{
  "_format": "hh-sol-artifact-1",
  "contractName": "Keys",
  "sourceName": "contracts/data/Keys.sol",
  "abi": [
    {
      "inputs": [],
      "name": "ACCOUNT_POSITION_LIST",
      "outputs": [
        {
          "internalType": "bytes32",
          "name": "",
          "type": "bytes32"
        }
      ],
      "stateMutability": "view",
      "type": "function"
    },
    {
      "inputs": [],
      "name": "DEBT_SAFETY_FACTOR",
      "outputs": [
        {
          "internalType": "bytes32",
          "name": "",
          "type": "bytes32"
        }
      ],
      "stateMutability": "view",
      "type": "function"
    },
    {
      "inputs": [],
      "name": "DEFAULT_INTEREST_RATE_STRATEGY",
      "outputs": [
        {
          "internalType": "bytes32",
          "name": "",
          "type": "bytes32"
        }
      ],
      "stateMutability": "view",
      "type": "function"
    },
    {
      "inputs": [],
      "name": "DEFAULT_POOL_CONFIGURATION",
      "outputs": [
        {
          "internalType": "bytes32",
          "name": "",
          "type": "bytes32"
        }
      ],
      "stateMutability": "view",
      "type": "function"
    },
    {
      "inputs": [],
      "name": "MARGIN_LEVELL_THRESHOLD",
      "outputs": [
        {
          "internalType": "bytes32",
          "name": "",
          "type": "bytes32"
        }
      ],
      "stateMutability": "view",
      "type": "function"
    },
    {
      "inputs": [],
      "name": "POOL",
      "outputs": [
        {
          "internalType": "bytes32",
          "name": "",
          "type": "bytes32"
        }
      ],
      "stateMutability": "view",
      "type": "function"
    },
    {
      "inputs": [],
      "name": "POOL_LIST",
      "outputs": [
        {
          "internalType": "bytes32",
          "name": "",
          "type": "bytes32"
        }
      ],
      "stateMutability": "view",
      "type": "function"
    },
    {
      "inputs": [],
      "name": "POSITION",
      "outputs": [
        {
          "internalType": "bytes32",
          "name": "",
          "type": "bytes32"
        }
      ],
      "stateMutability": "view",
      "type": "function"
    },
    {
      "inputs": [],
      "name": "POSITION_LIST",
      "outputs": [
        {
          "internalType": "bytes32",
          "name": "",
          "type": "bytes32"
        }
      ],
      "stateMutability": "view",
      "type": "function"
    },
    {
      "inputs": [],
      "name": "REENTRANCY_GUARD_STATUS",
      "outputs": [
        {
          "internalType": "bytes32",
          "name": "",
          "type": "bytes32"
        }
      ],
      "stateMutability": "view",
      "type": "function"
    },
    {
      "inputs": [],
      "name": "SHORT_LIQUIDITY_THRESHOLD",
      "outputs": [
        {
          "internalType": "bytes32",
          "name": "",
          "type": "bytes32"
        }
      ],
      "stateMutability": "view",
      "type": "function"
    },
    {
      "inputs": [],
      "name": "TOKEN_BASE",
      "outputs": [
        {
          "internalType": "bytes32",
          "name": "",
          "type": "bytes32"
        }
      ],
      "stateMutability": "view",
      "type": "function"
    },
    {
      "inputs": [],
      "name": "TREASURY",
      "outputs": [
        {
          "internalType": "bytes32",
          "name": "",
          "type": "bytes32"
        }
      ],
      "stateMutability": "view",
      "type": "function"
    },
    {
      "inputs": [],
      "name": "WNT",
      "outputs": [
        {
          "internalType": "bytes32",
          "name": "",
          "type": "bytes32"
        }
      ],
      "stateMutability": "view",
      "type": "function"
    }
  ],
  "bytecode": "0x610b30610052600b82828239805160001a6073146045577f4e487b7100000000000000000000000000000000000000000000000000000000600052600060045260246000fd5b30600052607381538281f3fe73000000000000000000000000000000000000000030146080604052600436106100f45760003560e01c80637535d24611610096578063993f545011610070578063993f5450146102255780639bfe0ccf14610243578063b8b4a54314610261578063cea63f5d1461027f576100f4565b80637535d246146101cb578063769af85d146101e95780637bf43e4714610207576100f4565b8063355ac596116100d2578063355ac5961461015357806335bf74571461017157806336fef13d1461018f5780636714ddd5146101ad576100f4565b8063041429b8146100f95780632ccfe1eb146101175780632d2c556514610135575b600080fd5b61010161029d565b60405161010e91906104e6565b60405180910390f35b61011f6102c5565b60405161012c91906104e6565b60405180910390f35b61013d6102ed565b60405161014a91906104e6565b60405180910390f35b61015b610315565b60405161016891906104e6565b60405180910390f35b61017961033d565b60405161018691906104e6565b60405180910390f35b610197610365565b6040516101a491906104e6565b60405180910390f35b6101b561038d565b6040516101c291906104e6565b60405180910390f35b6101d36103b5565b6040516101e091906104e6565b60405180910390f35b6101f16103dd565b6040516101fe91906104e6565b60405180910390f35b61020f610405565b60405161021c91906104e6565b60405180910390f35b61022d61042d565b60405161023a91906104e6565b60405180910390f35b61024b610455565b60405161025891906104e6565b60405180910390f35b61026961047d565b60405161027691906104e6565b60405180910390f35b6102876104a5565b60405161029491906104e6565b60405180910390f35b6040516020016102ac9061055e565b6040516020818303038152906040528051906020012081565b6040516020016102d4906105ca565b6040516020818303038152906040528051906020012081565b6040516020016102fc90610636565b6040516020818303038152906040528051906020012081565b604051602001610324906106a2565b6040516020818303038152906040528051906020012081565b60405160200161034c9061070e565b6040516020818303038152906040528051906020012081565b6040516020016103749061077a565b6040516020818303038152906040528051906020012081565b60405160200161039c906107e6565b6040516020818303038152906040528051906020012081565b6040516020016103c490610852565b6040516020818303038152906040528051906020012081565b6040516020016103ec906108be565b6040516020818303038152906040528051906020012081565b6040516020016104149061092a565b6040516020818303038152906040528051906020012081565b60405160200161043c90610996565b6040516020818303038152906040528051906020012081565b60405160200161046490610a02565b6040516020818303038152906040528051906020012081565b60405160200161048c90610a6e565b6040516020818303038152906040528051906020012081565b6040516020016104b490610ada565b6040516020818303038152906040528051906020012081565b6000819050919050565b6104e0816104cd565b82525050565b60006020820190506104fb60008301846104d7565b92915050565b600082825260208201905092915050565b7f4143434f554e545f504f534954494f4e5f4c4953540000000000000000000000600082015250565b6000610548601583610501565b915061055382610512565b602082019050919050565b600060208201905081810360008301526105778161053b565b9050919050565b7f53484f52545f4c49515549444954595f5448524553484f4c4400000000000000600082015250565b60006105b4601983610501565b91506105bf8261057e565b602082019050919050565b600060208201905081810360008301526105e3816105a7565b9050919050565b7f5452454153555259000000000000000000000000000000000000000000000000600082015250565b6000610620600883610501565b915061062b826105ea565b602082019050919050565b6000602082019050818103600083015261064f81610613565b9050919050565b7f504f534954494f4e000000000000000000000000000000000000000000000000600082015250565b600061068c600883610501565b915061069782610656565b602082019050919050565b600060208201905081810360008301526106bb8161067f565b9050919050565b7f504f4f4c5f4c4953540000000000000000000000000000000000000000000000600082015250565b60006106f8600983610501565b9150610703826106c2565b602082019050919050565b60006020820190508181036000830152610727816106eb565b9050919050565b7f444542545f5341464554595f464143544f520000000000000000000000000000600082015250565b6000610764601283610501565b915061076f8261072e565b602082019050919050565b6000602082019050818103600083015261079381610757565b9050919050565b7f44454641554c545f494e5445524553545f524154455f53545241544547590000600082015250565b60006107d0601e83610501565b91506107db8261079a565b602082019050919050565b600060208201905081810360008301526107ff816107c3565b9050919050565b7f504f4f4c00000000000000000000000000000000000000000000000000000000600082015250565b600061083c600483610501565b915061084782610806565b602082019050919050565b6000602082019050818103600083015261086b8161082f565b9050919050565b7f544f4b454e5f4241534500000000000000000000000000000000000000000000600082015250565b60006108a8600a83610501565b91506108b382610872565b602082019050919050565b600060208201905081810360008301526108d78161089b565b9050919050565b7f574e540000000000000000000000000000000000000000000000000000000000600082015250565b6000610914600383610501565b915061091f826108de565b602082019050919050565b6000602082019050818103600083015261094381610907565b9050919050565b7f44454641554c545f504f4f4c5f434f4e46494755524154494f4e000000000000600082015250565b6000610980601a83610501565b915061098b8261094a565b602082019050919050565b600060208201905081810360008301526109af81610973565b9050919050565b7f5245454e5452414e43595f47554152445f535441545553000000000000000000600082015250565b60006109ec601783610501565b91506109f7826109b6565b602082019050919050565b60006020820190508181036000830152610a1b816109df565b9050919050565b7f504f534954494f4e5f4c49535400000000000000000000000000000000000000600082015250565b6000610a58600d83610501565b9150610a6382610a22565b602082019050919050565b60006020820190508181036000830152610a8781610a4b565b9050919050565b7f4d415247494e5f4c4556454c4c5f5448524553484f4c44000000000000000000600082015250565b6000610ac4601783610501565b9150610acf82610a8e565b602082019050919050565b60006020820190508181036000830152610af381610ab7565b905091905056fea26469706673582212207e1034b04e70e0a2553ed2ca2da5266f91cd047756ab82ba4b7b93f15e3f4f8464736f6c634300081c0033",
  "linkReferences": {},
  "deployedLinkReferences": {}
}