{
  "_format": "hh-sol-artifact-1",
  "contractName": "Keys",
  "sourceName": "contracts/data/Keys.sol",
  "abi": [
    {
      "inputs": [],
      "name": "ACCOUNT_POSITION_LIST",
      "outputs": [
        {
          "internalType": "bytes32",
          "name": "",
          "type": "bytes32"
        }
      ],
      "stateMutability": "view",
      "type": "function"
    },
    {
      "inputs": [],
      "name": "DEBT_SAFETY_FACTOR",
      "outputs": [
        {
          "internalType": "bytes32",
          "name": "",
          "type": "bytes32"
        }
      ],
      "stateMutability": "view",
      "type": "function"
    },
    {
      "inputs": [],
      "name": "DEFAULT_INTEREST_RATE_STRATEGY",
      "outputs": [
        {
          "internalType": "bytes32",
          "name": "",
          "type": "bytes32"
        }
      ],
      "stateMutability": "view",
      "type": "function"
    },
    {
      "inputs": [],
      "name": "DEFAULT_POOL_CONFIGURATION",
      "outputs": [
        {
          "internalType": "bytes32",
          "name": "",
          "type": "bytes32"
        }
      ],
      "stateMutability": "view",
      "type": "function"
    },
    {
      "inputs": [],
      "name": "LIQUIDATION_FEE",
      "outputs": [
        {
          "internalType": "bytes32",
          "name": "",
          "type": "bytes32"
        }
      ],
      "stateMutability": "view",
      "type": "function"
    },
    {
      "inputs": [],
      "name": "MARGIN_LEVELL_THRESHOLD",
      "outputs": [
        {
          "internalType": "bytes32",
          "name": "",
          "type": "bytes32"
        }
      ],
      "stateMutability": "view",
      "type": "function"
    },
    {
      "inputs": [],
      "name": "MAX_BORROW_RATE",
      "outputs": [
        {
          "internalType": "bytes32",
          "name": "",
          "type": "bytes32"
        }
      ],
      "stateMutability": "view",
      "type": "function"
    },
    {
      "inputs": [],
      "name": "MAX_DEPOSIT_RATE",
      "outputs": [
        {
          "internalType": "bytes32",
          "name": "",
          "type": "bytes32"
        }
      ],
      "stateMutability": "view",
      "type": "function"
    },
    {
      "inputs": [],
      "name": "POOL",
      "outputs": [
        {
          "internalType": "bytes32",
          "name": "",
          "type": "bytes32"
        }
      ],
      "stateMutability": "view",
      "type": "function"
    },
    {
      "inputs": [],
      "name": "POOL_LIST",
      "outputs": [
        {
          "internalType": "bytes32",
          "name": "",
          "type": "bytes32"
        }
      ],
      "stateMutability": "view",
      "type": "function"
    },
    {
      "inputs": [],
      "name": "POSITION",
      "outputs": [
        {
          "internalType": "bytes32",
          "name": "",
          "type": "bytes32"
        }
      ],
      "stateMutability": "view",
      "type": "function"
    },
    {
      "inputs": [],
      "name": "POSITION_LIST",
      "outputs": [
        {
          "internalType": "bytes32",
          "name": "",
          "type": "bytes32"
        }
      ],
      "stateMutability": "view",
      "type": "function"
    },
    {
      "inputs": [],
      "name": "REENTRANCY_GUARD_STATUS",
      "outputs": [
        {
          "internalType": "bytes32",
          "name": "",
          "type": "bytes32"
        }
      ],
      "stateMutability": "view",
      "type": "function"
    },
    {
      "inputs": [],
      "name": "SHORT_LIQUIDITY_THRESHOLD",
      "outputs": [
        {
          "internalType": "bytes32",
          "name": "",
          "type": "bytes32"
        }
      ],
      "stateMutability": "view",
      "type": "function"
    },
    {
      "inputs": [],
      "name": "TOKEN_BASE",
      "outputs": [
        {
          "internalType": "bytes32",
          "name": "",
          "type": "bytes32"
        }
      ],
      "stateMutability": "view",
      "type": "function"
    },
    {
      "inputs": [],
      "name": "TRADABLE_DEBT_MULTIPIER_FACTOR",
      "outputs": [
        {
          "internalType": "bytes32",
          "name": "",
          "type": "bytes32"
        }
      ],
      "stateMutability": "view",
      "type": "function"
    },
    {
      "inputs": [],
      "name": "TREASURY",
      "outputs": [
        {
          "internalType": "bytes32",
          "name": "",
          "type": "bytes32"
        }
      ],
      "stateMutability": "view",
      "type": "function"
    },
    {
      "inputs": [],
      "name": "WNT",
      "outputs": [
        {
          "internalType": "bytes32",
          "name": "",
          "type": "bytes32"
        }
      ],
      "stateMutability": "view",
      "type": "function"
    }
  ],
  "bytecode": "0x610e24610052600b82828239805160001a6073146045577f4e487b7100000000000000000000000000000000000000000000000000000000600052600060045260246000fd5b30600052607381538281f3fe73000000000000000000000000000000000000000030146080604052600436106101205760003560e01c80637535d246116100ac578063993f54501161007b578063993f5450146102ab5780639bfe0ccf146102c9578063b1827330146102e7578063b8b4a54314610305578063cea63f5d1461032357610120565b80637535d24614610233578063769af85d146102515780637a0c5ebf1461026f5780637bf43e471461028d57610120565b806335bf7457116100f357806335bf74571461019d57806336fef13d146101bb5780633d49adda146101d95780633fe6e190146101f75780636714ddd51461021557610120565b8063041429b8146101255780632ccfe1eb146101435780632d2c556514610161578063355ac5961461017f575b600080fd5b61012d610341565b60405161013a919061062a565b60405180910390f35b61014b610369565b604051610158919061062a565b60405180910390f35b610169610391565b604051610176919061062a565b60405180910390f35b6101876103b9565b604051610194919061062a565b60405180910390f35b6101a56103e1565b6040516101b2919061062a565b60405180910390f35b6101c3610409565b6040516101d0919061062a565b60405180910390f35b6101e1610431565b6040516101ee919061062a565b60405180910390f35b6101ff610459565b60405161020c919061062a565b60405180910390f35b61021d610481565b60405161022a919061062a565b60405180910390f35b61023b6104a9565b604051610248919061062a565b60405180910390f35b6102596104d1565b604051610266919061062a565b60405180910390f35b6102776104f9565b604051610284919061062a565b60405180910390f35b610295610521565b6040516102a2919061062a565b60405180910390f35b6102b3610549565b6040516102c0919061062a565b60405180910390f35b6102d1610571565b6040516102de919061062a565b60405180910390f35b6102ef610599565b6040516102fc919061062a565b60405180910390f35b61030d6105c1565b60405161031a919061062a565b60405180910390f35b61032b6105e9565b604051610338919061062a565b60405180910390f35b604051602001610350906106a2565b6040516020818303038152906040528051906020012081565b6040516020016103789061070e565b6040516020818303038152906040528051906020012081565b6040516020016103a09061077a565b6040516020818303038152906040528051906020012081565b6040516020016103c8906107e6565b6040516020818303038152906040528051906020012081565b6040516020016103f090610852565b6040516020818303038152906040528051906020012081565b604051602001610418906108be565b6040516020818303038152906040528051906020012081565b6040516020016104409061092a565b6040516020818303038152906040528051906020012081565b60405160200161046890610996565b6040516020818303038152906040528051906020012081565b60405160200161049090610a02565b6040516020818303038152906040528051906020012081565b6040516020016104b890610a6e565b6040516020818303038152906040528051906020012081565b6040516020016104e090610ada565b6040516020818303038152906040528051906020012081565b60405160200161050890610b46565b6040516020818303038152906040528051906020012081565b60405160200161053090610bb2565b6040516020818303038152906040528051906020012081565b60405160200161055890610c1e565b6040516020818303038152906040528051906020012081565b60405160200161058090610c8a565b6040516020818303038152906040528051906020012081565b6040516020016105a890610cf6565b6040516020818303038152906040528051906020012081565b6040516020016105d090610d62565b6040516020818303038152906040528051906020012081565b6040516020016105f890610dce565b6040516020818303038152906040528051906020012081565b6000819050919050565b61062481610611565b82525050565b600060208201905061063f600083018461061b565b92915050565b600082825260208201905092915050565b7f4143434f554e545f504f534954494f4e5f4c4953540000000000000000000000600082015250565b600061068c601583610645565b915061069782610656565b602082019050919050565b600060208201905081810360008301526106bb8161067f565b9050919050565b7f53484f52545f4c49515549444954595f5448524553484f4c4400000000000000600082015250565b60006106f8601983610645565b9150610703826106c2565b602082019050919050565b60006020820190508181036000830152610727816106eb565b9050919050565b7f5452454153555259000000000000000000000000000000000000000000000000600082015250565b6000610764600883610645565b915061076f8261072e565b602082019050919050565b6000602082019050818103600083015261079381610757565b9050919050565b7f504f534954494f4e000000000000000000000000000000000000000000000000600082015250565b60006107d0600883610645565b91506107db8261079a565b602082019050919050565b600060208201905081810360008301526107ff816107c3565b9050919050565b7f504f4f4c5f4c4953540000000000000000000000000000000000000000000000600082015250565b600061083c600983610645565b915061084782610806565b602082019050919050565b6000602082019050818103600083015261086b8161082f565b9050919050565b7f444542545f5341464554595f464143544f520000000000000000000000000000600082015250565b60006108a8601283610645565b91506108b382610872565b602082019050919050565b600060208201905081810360008301526108d78161089b565b9050919050565b7f5452414441424c455f444542545f4d554c5449504945525f464143544f520000600082015250565b6000610914601e83610645565b915061091f826108de565b602082019050919050565b6000602082019050818103600083015261094381610907565b9050919050565b7f4d41585f4445504f5349545f5241544500000000000000000000000000000000600082015250565b6000610980601083610645565b915061098b8261094a565b602082019050919050565b600060208201905081810360008301526109af81610973565b9050919050565b7f44454641554c545f494e5445524553545f524154455f53545241544547590000600082015250565b60006109ec601e83610645565b91506109f7826109b6565b602082019050919050565b60006020820190508181036000830152610a1b816109df565b9050919050565b7f504f4f4c00000000000000000000000000000000000000000000000000000000600082015250565b6000610a58600483610645565b9150610a6382610a22565b602082019050919050565b60006020820190508181036000830152610a8781610a4b565b9050919050565b7f544f4b454e5f4241534500000000000000000000000000000000000000000000600082015250565b6000610ac4600a83610645565b9150610acf82610a8e565b602082019050919050565b60006020820190508181036000830152610af381610ab7565b9050919050565b7f4d41585f424f52524f575f524154450000000000000000000000000000000000600082015250565b6000610b30600f83610645565b9150610b3b82610afa565b602082019050919050565b60006020820190508181036000830152610b5f81610b23565b9050919050565b7f574e540000000000000000000000000000000000000000000000000000000000600082015250565b6000610b9c600383610645565b9150610ba782610b66565b602082019050919050565b60006020820190508181036000830152610bcb81610b8f565b9050919050565b7f44454641554c545f504f4f4c5f434f4e46494755524154494f4e000000000000600082015250565b6000610c08601a83610645565b9150610c1382610bd2565b602082019050919050565b60006020820190508181036000830152610c3781610bfb565b9050919050565b7f5245454e5452414e43595f47554152445f535441545553000000000000000000600082015250565b6000610c74601783610645565b9150610c7f82610c3e565b602082019050919050565b60006020820190508181036000830152610ca381610c67565b9050919050565b7f4c49515549444154494f4e5f4645450000000000000000000000000000000000600082015250565b6000610ce0600f83610645565b9150610ceb82610caa565b602082019050919050565b60006020820190508181036000830152610d0f81610cd3565b9050919050565b7f504f534954494f4e5f4c49535400000000000000000000000000000000000000600082015250565b6000610d4c600d83610645565b9150610d5782610d16565b602082019050919050565b60006020820190508181036000830152610d7b81610d3f565b9050919050565b7f4d415247494e5f4c4556454c4c5f5448524553484f4c44000000000000000000600082015250565b6000610db8601783610645565b9150610dc382610d82565b602082019050919050565b60006020820190508181036000830152610de781610dab565b905091905056fea2646970667358221220732d8b068d29acb265edafa7ba77d2aaccc2430143b9cadde534a0254da8224564736f6c634300081c0033",
  "linkReferences": {},
  "deployedLinkReferences": {}
}