{
  "_format": "hh-sol-artifact-1",
  "contractName": "CloseHandler",
  "sourceName": "contracts/exchange/CloseHandler.sol",
  "abi": [
    {
      "inputs": [
        {
          "internalType": "contract RoleStore",
          "name": "_roleStore",
          "type": "address"
        },
        {
          "internalType": "contract DataStore",
          "name": "_dataStore",
          "type": "address"
        },
        {
          "internalType": "contract EventEmitter",
          "name": "_eventEmitter",
          "type": "address"
        }
      ],
      "stateMutability": "nonpayable",
      "type": "constructor"
    },
    {
      "inputs": [
        {
          "internalType": "address",
          "name": "msgSender",
          "type": "address"
        },
        {
          "internalType": "string",
          "name": "role",
          "type": "string"
        }
      ],
      "name": "Unauthorized",
      "type": "error"
    },
    {
      "inputs": [],
      "name": "dataStore",
      "outputs": [
        {
          "internalType": "contract DataStore",
          "name": "",
          "type": "address"
        }
      ],
      "stateMutability": "view",
      "type": "function"
    },
    {
      "inputs": [],
      "name": "eventEmitter",
      "outputs": [
        {
          "internalType": "contract EventEmitter",
          "name": "",
          "type": "address"
        }
      ],
      "stateMutability": "view",
      "type": "function"
    },
    {
      "inputs": [
        {
          "internalType": "address",
          "name": "account",
          "type": "address"
        },
        {
          "components": [
            {
              "internalType": "uint256",
              "name": "positionId",
              "type": "uint256"
            }
          ],
          "internalType": "struct CloseUtils.CloseParams",
          "name": "closeParams",
          "type": "tuple"
        }
      ],
      "name": "executeClose",
      "outputs": [],
      "stateMutability": "nonpayable",
      "type": "function"
    },
    {
      "inputs": [],
      "name": "roleStore",
      "outputs": [
        {
          "internalType": "contract RoleStore",
          "name": "",
          "type": "address"
        }
      ],
      "stateMutability": "view",
      "type": "function"
    }
  ],
  "bytecode": "0x60e060405234801561001057600080fd5b50604051610e84380380610e84833981810160405281019061003291906101cb565b82828073ffffffffffffffffffffffffffffffffffffffff1660808173ffffffffffffffffffffffffffffffffffffffff1681525050508073ffffffffffffffffffffffffffffffffffffffff1660a08173ffffffffffffffffffffffffffffffffffffffff1681525050508073ffffffffffffffffffffffffffffffffffffffff1660c08173ffffffffffffffffffffffffffffffffffffffff168152505050505061021e565b600080fd5b600073ffffffffffffffffffffffffffffffffffffffff82169050919050565b600061010a826100df565b9050919050565b600061011c826100ff565b9050919050565b61012c81610111565b811461013757600080fd5b50565b60008151905061014981610123565b92915050565b600061015a826100ff565b9050919050565b61016a8161014f565b811461017557600080fd5b50565b60008151905061018781610161565b92915050565b6000610198826100ff565b9050919050565b6101a88161018d565b81146101b357600080fd5b50565b6000815190506101c58161019f565b92915050565b6000806000606084860312156101e4576101e36100da565b5b60006101f28682870161013a565b935050602061020386828701610178565b9250506040610214868287016101b6565b9150509250925092565b60805160a05160c051610c0f6102756000396000818161011101526101e901526000818160c9015261047101526000818160ed015281816101ad015281816102a7015281816103aa01526105540152610c0f6000f3fe608060405234801561001057600080fd5b506004361061004c5760003560e01c80634a4a7b0414610051578063660d0d671461006f5780639ff78c301461008d578063cf1454c8146100ab575b600080fd5b6100596100c7565b6040516100669190610697565b60405180910390f35b6100776100eb565b60405161008491906106d3565b60405180910390f35b61009561010f565b6040516100a2919061070f565b60405180910390f35b6100c560048036038101906100c09190610791565b610133565b005b7f000000000000000000000000000000000000000000000000000000000000000081565b7f000000000000000000000000000000000000000000000000000000000000000081565b7f000000000000000000000000000000000000000000000000000000000000000081565b61013b6102a3565b61019e60405160200161014d9061082e565b604051602081830303815290604052805190602001206040518060400160405280600a81526020017f434f4e54524f4c4c45520000000000000000000000000000000000000000000081525061046f565b600060405180606001604052807f000000000000000000000000000000000000000000000000000000000000000073ffffffffffffffffffffffffffffffffffffffff1681526020017f000000000000000000000000000000000000000000000000000000000000000073ffffffffffffffffffffffffffffffffffffffff1681526020018360000135815250905073__$a77b0289690f7ff9eafb57175f0374865e$__63e6f6cc7b84836040518363ffffffff1660e01b81526004016102669291906108c7565b60006040518083038186803b15801561027e57600080fd5b505af4158015610292573d6000803e3d6000fd5b505050505061029f610552565b5050565b60007f000000000000000000000000000000000000000000000000000000000000000073ffffffffffffffffffffffffffffffffffffffff1663bd02d0f56040516020016102f09061093c565b604051602081830303815290604052805190602001206040518263ffffffff1660e01b81526004016103229190610975565b602060405180830381865afa15801561033f573d6000803e3d6000fd5b505050506040513d601f19601f8201168201806040525081019061036391906109bc565b9050600081146103a8576040517f08c379a000000000000000000000000000000000000000000000000000000000815260040161039f90610a35565b60405180910390fd5b7f000000000000000000000000000000000000000000000000000000000000000073ffffffffffffffffffffffffffffffffffffffff1663e2a4853a6040516020016103f39061093c565b6040516020818303038152906040528051906020012060016040518363ffffffff1660e01b8152600401610428929190610a64565b6020604051808303816000875af1158015610447573d6000803e3d6000fd5b505050506040513d601f19601f8201168201806040525081019061046b91906109bc565b5050565b7f000000000000000000000000000000000000000000000000000000000000000073ffffffffffffffffffffffffffffffffffffffff1663ac4ab3fb33846040518363ffffffff1660e01b81526004016104ca929190610a9c565b602060405180830381865afa1580156104e7573d6000803e3d6000fd5b505050506040513d601f19601f8201168201806040525081019061050b9190610afd565b61054e5733816040517fa35b150b000000000000000000000000000000000000000000000000000000008152600401610545929190610ba9565b60405180910390fd5b5050565b7f000000000000000000000000000000000000000000000000000000000000000073ffffffffffffffffffffffffffffffffffffffff1663e2a4853a60405160200161059d9061093c565b6040516020818303038152906040528051906020012060006040518363ffffffff1660e01b81526004016105d2929190610a64565b6020604051808303816000875af11580156105f1573d6000803e3d6000fd5b505050506040513d601f19601f8201168201806040525081019061061591906109bc565b50565b600073ffffffffffffffffffffffffffffffffffffffff82169050919050565b6000819050919050565b600061065d61065861065384610618565b610638565b610618565b9050919050565b600061066f82610642565b9050919050565b600061068182610664565b9050919050565b61069181610676565b82525050565b60006020820190506106ac6000830184610688565b92915050565b60006106bd82610664565b9050919050565b6106cd816106b2565b82525050565b60006020820190506106e860008301846106c4565b92915050565b60006106f982610664565b9050919050565b610709816106ee565b82525050565b60006020820190506107246000830184610700565b92915050565b600080fd5b600061073a82610618565b9050919050565b61074a8161072f565b811461075557600080fd5b50565b60008135905061076781610741565b92915050565b600080fd5b6000602082840312156107885761078761076d565b5b81905092915050565b600080604083850312156107a8576107a761072a565b5b60006107b685828601610758565b92505060206107c785828601610772565b9150509250929050565b600082825260208201905092915050565b7f434f4e54524f4c4c455200000000000000000000000000000000000000000000600082015250565b6000610818600a836107d1565b9150610823826107e2565b602082019050919050565b600060208201905081810360008301526108478161080b565b9050919050565b6108578161072f565b82525050565b6108668161072f565b82525050565b6000819050919050565b61087f8161086c565b82525050565b60608201600082015161089b600085018261085d565b5060208201516108ae602085018261085d565b5060408201516108c16040850182610876565b50505050565b60006080820190506108dc600083018561084e565b6108e96020830184610885565b9392505050565b7f5245454e5452414e43595f47554152445f535441545553000000000000000000600082015250565b60006109266017836107d1565b9150610931826108f0565b602082019050919050565b6000602082019050818103600083015261095581610919565b9050919050565b6000819050919050565b61096f8161095c565b82525050565b600060208201905061098a6000830184610966565b92915050565b6109998161086c565b81146109a457600080fd5b50565b6000815190506109b681610990565b92915050565b6000602082840312156109d2576109d161072a565b5b60006109e0848285016109a7565b91505092915050565b7f5265656e7472616e637947756172643a207265656e7472616e742063616c6c00600082015250565b6000610a1f601f836107d1565b9150610a2a826109e9565b602082019050919050565b60006020820190508181036000830152610a4e81610a12565b9050919050565b610a5e8161086c565b82525050565b6000604082019050610a796000830185610966565b610a866020830184610a55565b9392505050565b610a968161072f565b82525050565b6000604082019050610ab16000830185610a8d565b610abe6020830184610966565b9392505050565b60008115159050919050565b610ada81610ac5565b8114610ae557600080fd5b50565b600081519050610af781610ad1565b92915050565b600060208284031215610b1357610b1261072a565b5b6000610b2184828501610ae8565b91505092915050565b600081519050919050565b60005b83811015610b53578082015181840152602081019050610b38565b60008484015250505050565b6000601f19601f8301169050919050565b6000610b7b82610b2a565b610b8581856107d1565b9350610b95818560208601610b35565b610b9e81610b5f565b840191505092915050565b6000604082019050610bbe6000830185610a8d565b8181036020830152610bd08184610b70565b9050939250505056fea2646970667358221220b222b3dc5888bb8fe3175318a726e223963b4a624577aef4c806161d4d64bee764736f6c634300081b0033",
  "linkReferences": {
    "contracts/close/CloseUtils.sol": {
      "CloseUtils": [
        {
          "length": 20,
          "start": 1188
        }
      ]
    }
  },
  "deployedLinkReferences": {
    "contracts/close/CloseUtils.sol": {
      "CloseUtils": [
        {
          "length": 20,
          "start": 559
        }
      ]
    }
  }
}