{
  "_format": "hh-sol-artifact-1",
  "contractName": "CloseHandler",
  "sourceName": "contracts/exchange/CloseHandler.sol",
  "abi": [
    {
      "inputs": [
        {
          "internalType": "contract RoleStore",
          "name": "_roleStore",
          "type": "address"
        },
        {
          "internalType": "contract DataStore",
          "name": "_dataStore",
          "type": "address"
        },
        {
          "internalType": "contract EventEmitter",
          "name": "_eventEmitter",
          "type": "address"
        }
      ],
      "stateMutability": "nonpayable",
      "type": "constructor"
    },
    {
      "inputs": [
        {
          "internalType": "address",
          "name": "accountInPosition",
          "type": "address"
        },
        {
          "internalType": "address",
          "name": "account",
          "type": "address"
        }
      ],
      "name": "AccountNotMatch",
      "type": "error"
    },
    {
      "inputs": [
        {
          "internalType": "bytes32",
          "name": "key",
          "type": "bytes32"
        }
      ],
      "name": "EmptyPool",
      "type": "error"
    },
    {
      "inputs": [],
      "name": "EmptyPosition",
      "type": "error"
    },
    {
      "inputs": [
        {
          "internalType": "uint256",
          "name": "marginLevel",
          "type": "uint256"
        },
        {
          "internalType": "uint256",
          "name": "marginLevelThreshold",
          "type": "uint256"
        }
      ],
      "name": "MarginBelowThreshold",
      "type": "error"
    },
    {
      "inputs": [],
      "name": "MathOverflowedMulDiv",
      "type": "error"
    },
    {
      "inputs": [
        {
          "internalType": "address",
          "name": "msgSender",
          "type": "address"
        },
        {
          "internalType": "string",
          "name": "role",
          "type": "string"
        }
      ],
      "name": "Unauthorized",
      "type": "error"
    },
    {
      "inputs": [],
      "name": "dataStore",
      "outputs": [
        {
          "internalType": "contract DataStore",
          "name": "",
          "type": "address"
        }
      ],
      "stateMutability": "view",
      "type": "function"
    },
    {
      "inputs": [],
      "name": "eventEmitter",
      "outputs": [
        {
          "internalType": "contract EventEmitter",
          "name": "",
          "type": "address"
        }
      ],
      "stateMutability": "view",
      "type": "function"
    },
    {
      "inputs": [
        {
          "internalType": "address",
          "name": "account",
          "type": "address"
        },
        {
          "components": [
            {
              "internalType": "uint256",
              "name": "positionId",
              "type": "uint256"
            }
          ],
          "internalType": "struct CloseUtils.CloseParams",
          "name": "closeParams",
          "type": "tuple"
        }
      ],
      "name": "executeClose",
      "outputs": [],
      "stateMutability": "nonpayable",
      "type": "function"
    },
    {
      "inputs": [],
      "name": "roleStore",
      "outputs": [
        {
          "internalType": "contract RoleStore",
          "name": "",
          "type": "address"
        }
      ],
      "stateMutability": "view",
      "type": "function"
    }
  ],
  "bytecode": "0x60e060405234801561001057600080fd5b5060405161478d38038061478d833981810160405281019061003291906101cb565b82828073ffffffffffffffffffffffffffffffffffffffff1660808173ffffffffffffffffffffffffffffffffffffffff1681525050508073ffffffffffffffffffffffffffffffffffffffff1660a08173ffffffffffffffffffffffffffffffffffffffff1681525050508073ffffffffffffffffffffffffffffffffffffffff1660c08173ffffffffffffffffffffffffffffffffffffffff168152505050505061021e565b600080fd5b600073ffffffffffffffffffffffffffffffffffffffff82169050919050565b600061010a826100df565b9050919050565b600061011c826100ff565b9050919050565b61012c81610111565b811461013757600080fd5b50565b60008151905061014981610123565b92915050565b600061015a826100ff565b9050919050565b61016a8161014f565b811461017557600080fd5b50565b60008151905061018781610161565b92915050565b6000610198826100ff565b9050919050565b6101a88161018d565b81146101b357600080fd5b50565b6000815190506101c58161019f565b92915050565b6000806000606084860312156101e4576101e36100da565b5b60006101f28682870161013a565b935050602061020386828701610178565b9250506040610214868287016101b6565b9150509250925092565b60805160a05160c0516145186102756000396000818161011101526101e901526000818160c9015261041201526000818160ed015281816101ad015281816102480152818161034b015261076c01526145186000f3fe608060405234801561001057600080fd5b506004361061004c5760003560e01c80634a4a7b0414610051578063660d0d671461006f5780639ff78c301461008d578063cf1454c8146100ab575b600080fd5b6100596100c7565b6040516100669190612f16565b60405180910390f35b6100776100eb565b6040516100849190612f52565b60405180910390f35b61009561010f565b6040516100a29190612f8e565b60405180910390f35b6100c560048036038101906100c0919061301a565b610133565b005b7f000000000000000000000000000000000000000000000000000000000000000081565b7f000000000000000000000000000000000000000000000000000000000000000081565b7f000000000000000000000000000000000000000000000000000000000000000081565b61013b610244565b61019e60405160200161014d906130b7565b604051602081830303815290604052805190602001206040518060400160405280600a81526020017f434f4e54524f4c4c455200000000000000000000000000000000000000000000815250610410565b600060405180606001604052807f000000000000000000000000000000000000000000000000000000000000000073ffffffffffffffffffffffffffffffffffffffff1681526020017f000000000000000000000000000000000000000000000000000000000000000073ffffffffffffffffffffffffffffffffffffffff1681526020018360000135815250905061023783826104f3565b5061024061076a565b5050565b60007f000000000000000000000000000000000000000000000000000000000000000073ffffffffffffffffffffffffffffffffffffffff1663bd02d0f560405160200161029190613123565b604051602081830303815290604052805190602001206040518263ffffffff1660e01b81526004016102c3919061315c565b602060405180830381865afa1580156102e0573d6000803e3d6000fd5b505050506040513d601f19601f8201168201806040525081019061030491906131ad565b905060008114610349576040517f08c379a000000000000000000000000000000000000000000000000000000000815260040161034090613226565b60405180910390fd5b7f000000000000000000000000000000000000000000000000000000000000000073ffffffffffffffffffffffffffffffffffffffff1663e2a4853a60405160200161039490613123565b6040516020818303038152906040528051906020012060016040518363ffffffff1660e01b81526004016103c9929190613255565b6020604051808303816000875af11580156103e8573d6000803e3d6000fd5b505050506040513d601f19601f8201168201806040525081019061040c91906131ad565b5050565b7f000000000000000000000000000000000000000000000000000000000000000073ffffffffffffffffffffffffffffffffffffffff1663ac4ab3fb33846040518363ffffffff1660e01b815260040161046b92919061328d565b602060405180830381865afa158015610488573d6000803e3d6000fd5b505050506040513d601f19601f820116820180604052508101906104ac91906132ee565b6104ef5733816040517fa35b150b0000000000000000000000000000000000000000000000000000000081526004016104e692919061339a565b60405180910390fd5b5050565b6104fb612b3b565b61050e8383600001518460400151610830565b826040018360600182815250829052505061057c8260000151826040015160000151600060ff1660028110610546576105456133ca565b5b602002015160000151836040015160000151600160ff166002811061056e5761056d6133ca565b5b602002015160000151610851565b82600001836020018281525082905250506105a482600001518260000151836040015161090a565b6105c3826020015184836000015184604001518660400151600061099e565b6105e2826020015184836000015184604001518660400151600161099e565b6105fe8260200151848360000151846040015160016000610cef565b61061a8260200151848360000151846040015160006001610cef565b610639826020015184836000015184604001518660400151600061099e565b610658826020015184836000015184604001518660400151600161099e565b61066581604001516110e8565b73__$3d31b232fb363902662fbc281b11ab3357$__6370b5270e8360000151836060015184604001516040518463ffffffff1660e01b81526004016106ac939291906135b9565b60006040518083038186803b1580156106c457600080fd5b505af41580156106d8573d6000803e3d6000fd5b505050506106ee8260200151826000015161123e565b73__$e0022d6f389ac14ff1ce1dc57a4018d0a3$__63be6afc398360000151836020015184600001516040518463ffffffff1660e01b815260040161073593929190613788565b60006040518083038186803b15801561074d57600080fd5b505af4158015610761573d6000803e3d6000fd5b50505050505050565b7f000000000000000000000000000000000000000000000000000000000000000073ffffffffffffffffffffffffffffffffffffffff1663e2a4853a6040516020016107b590613123565b6040516020818303038152906040528051906020012060006040518363ffffffff1660e01b81526004016107ea929190613255565b6020604051808303816000875af1158015610809573d6000803e3d6000fd5b505050506040513d601f19601f8201168201806040525081019061082d91906131ad565b50565b610838612b75565b6000610845858585611409565b91509150935093915050565b610859612bb2565b60008061086685856114b9565b9050600073__$e0022d6f389ac14ff1ce1dc57a4018d0a3$__637b82d74e88846040518363ffffffff1660e01b81526004016108a39291906137c0565b61024060405180830381865af41580156108c1573d6000803e3d6000fd5b505050506040513d601f19601f820116820180604052508101906108e59190613a7e565b90506108f18183611557565b6108fa816115d0565b8082935093505050935093915050565b610912612c13565b61091d84848461177c565b84600001856020018660400187606001848152508481525084815250848152505050505080602001518160000151101561099857806000015181602001516040517f82d6353f00000000000000000000000000000000000000000000000000000000815260040161098f929190613aac565b60405180910390fd5b50505050565b6109e06040518060400160405280600581526020017f72657061790000000000000000000000000000000000000000000000000000008152508260ff166117fd565b600083600001518260ff16600281106109fc576109fb6133ca565b5b6020020151604001510315610ce757610a13612c3b565b610a1e858584611848565b82600001836020018281525082815250505060008160000151118015610a48575060008160200151115b15610ce5578060200151816000015110610a825780602001518160400181815250506000816060019060ff16908160ff1681525050610aa4565b80600001518160400181815250506001816060019060ff16908160ff16815250505b610ae76040518060400160405280600b81526020017f7265706179416d6f756e7400000000000000000000000000000000000000000081525082604001516117fd565b610b2d6040518060400160405280600b81526020017f72657061794f7074696f6e000000000000000000000000000000000000000000815250826060015160ff166117fd565b610b628585848460400151610b4190613b0e565b8560400151610b4f90613b0e565b600060ff16876060015160ff16146118f6565b610ba06040518060400160405280600c81526020017f7869616f7975313939382d310000000000000000000000000000000000000000815250611bcb565b610ca687878660000151600060ff1660028110610bc057610bbf6133ca565b5b6020020151600001518760000151600160ff1660028110610be457610be36133ca565b5b6020020151600001518787876040015160405180608001604052808d60000151600060ff1660028110610c1a57610c196133ca565b5b60200201516020015181526020018d60000151600060ff1660028110610c4357610c426133ca565b5b60200201516040015181526020018d60000151600160ff1660028110610c6c57610c6b6133ca565b5b60200201516020015181526020018d60000151600160ff1660028110610c9557610c946133ca565b5b602002015160400151815250611c14565b610ce46040518060400160405280600c81526020017f7869616f7975313939382d320000000000000000000000000000000000000000815250611bcb565b5b505b505050505050565b610d316040518060400160405280600981526020017f737761702066726f6d00000000000000000000000000000000000000000000008152508360ff166117fd565b600083600001518360ff1660028110610d4d57610d4c6133ca565b5b60200201516020015103156110e057600060ff168260ff16148015610d945750600083600001518260ff1660028110610d8957610d886133ca565b5b602002015160400151145b6110e057610da0612c73565b600160ff168360ff1603610f4157610dba85856001611848565b5081600001818152505060008160400181815250508060000151816060018181525050610ded8160600151866000611c95565b90505081608001818152505060008160a0018181525050610e188585600084608001516000806118f6565b610e35858560018460600151610e2d90613b0e565b6000806118f6565b610f4087878660000151600160ff1660028110610e5557610e546133ca565b5b6020020151600001518760000151600060ff1660028110610e7957610e786133ca565b5b60200201516000015185606001518660800151600060405180608001604052808d60000151600060ff1660028110610eb457610eb36133ca565b5b60200201516020015181526020018d60000151600060ff1660028110610edd57610edc6133ca565b5b60200201516040015181526020018d60000151600160ff1660028110610f0657610f056133ca565b5b60200201516020015181526020018d60000151600160ff1660028110610f2f57610f2e6133ca565b5b602002015160400151815250611db1565b5b600060ff168360ff16036110de57610f5b85856001611848565b9050816020018181525050610f74816020015186611e32565b8160400181815250506000816060018181525050600081608001818152505080602001518160a0018181525050610fbe858560008460400151610fb690613b0e565b6000806118f6565b610fd2858560018460a001516000806118f6565b6110dd87878660000151600060ff1660028110610ff257610ff16133ca565b5b6020020151600001518760000151600160ff1660028110611016576110156133ca565b5b60200201516000015185604001518660a00151600060405180608001604052808d60000151600060ff1660028110611051576110506133ca565b5b60200201516020015181526020018d60000151600060ff166002811061107a576110796133ca565b5b60200201516040015181526020018d60000151600160ff16600281106110a3576110a26133ca565b5b60200201516020015181526020018d60000151600160ff16600281106110cc576110cb6133ca565b5b602002015160400151815250611db1565b5b505b505050505050565b60008160000151600060ff1660028110611105576111046133ca565b5b6020020151604001818152505060008160000151600160ff166002811061112f5761112e6133ca565b5b6020020151602001818152505060008160000151600160ff1660028110611159576111586133ca565b5b6020020151604001818152505060008160000151600160ff1660028110611183576111826133ca565b5b6020020151606001818152505060008160000151600160ff16600281106111ad576111ac6133ca565b5b602002015160a001818152505060008160000151600160ff16600281106111d7576111d66133ca565b5b6020020151608001818152505060008160000151600160ff1660028110611201576112006133ca565b5b602002015160c0018181525050600260ff168160000151600160ff166002811061122e5761122d6133ca565b5b602002015160e001818152505050565b611246612ca9565b611251826000611f0c565b826000018360200182815250828152505050816040015173ffffffffffffffffffffffffffffffffffffffff16634329759a60405180604001604052808460000151815260200184602001518152506040518263ffffffff1660e01b81526004016112bc9190613b94565b602060405180830381865afa1580156112d9573d6000803e3d6000fd5b505050506040513d601f19601f820116820180604052508101906112fd91906131ad565b8260000151600060ff1660028110611318576113176133ca565b5b60200201516040018181525050611330826001611f0c565b826000018360200182815250828152505050816040015173ffffffffffffffffffffffffffffffffffffffff16634329759a60405180604001604052808460000151815260200184602001518152506040518263ffffffff1660e01b815260040161139b9190613b94565b602060405180830381865afa1580156113b8573d6000803e3d6000fd5b505050506040513d601f19601f820116820180604052508101906113dc91906131ad565b8260000151600160ff16600281106113f7576113f66133ca565b5b60200201516040018181525050505050565b611411612b75565b60008061141e8685611f5c565b9050600073__$3d31b232fb363902662fbc281b11ab3357$__637b82d74e87846040518363ffffffff1660e01b815260040161145b9291906137c0565b61024060405180830381865af4158015611479573d6000803e3d6000fd5b505050506040513d601f19601f8201168201806040525081019061149d9190613d93565b90506114a98782611fb5565b8082935093505050935093915050565b60008173ffffffffffffffffffffffffffffffffffffffff168373ffffffffffffffffffffffffffffffffffffffff16106114f55781836114f8565b82825b809350819450505060405160200161150f90613e0d565b60405160208183030381529060405280519060200120838360405160200161153993929190613e2d565b60405160208183030381529060405280519060200120905092915050565b600073ffffffffffffffffffffffffffffffffffffffff16826020015173ffffffffffffffffffffffffffffffffffffffff16036115cc57806040517f7357d91f0000000000000000000000000000000000000000000000000000000081526004016115c3919061315c565b60405180910390fd5b5050565b60006115da61209d565b9050808260800151036115ed5750611779565b60008260000151600060ff166002811061160a576116096133ca565b5b602002015160a00151146116ad57600061164b8360000151600060ff1660028110611638576116376133ca565b5b60200201516040015184608001516120a5565b9050611683818460000151600060ff166002811061166c5761166b6133ca565b5b60200201516020015161210090919063ffffffff16565b8360000151600060ff166002811061169e5761169d6133ca565b5b60200201516020018181525050505b60008260000151600160ff16600281106116ca576116c96133ca565b5b602002015160a001511461176d57600061170b8360000151600160ff16600281106116f8576116f76133ca565b5b60200201516040015184608001516120a5565b9050611743818460000151600160ff166002811061172c5761172b6133ca565b5b60200201516020015161210090919063ffffffff16565b8360000151600160ff166002811061175e5761175d6133ca565b5b60200201516020018181525050505b80826080018181525050505b50565b600080600080600061178d8761214b565b905061179c8787836000612216565b8093508194505050600082116117d2577fffffffffffffffffffffffffffffffffffffffffffffffffffffffffffffffff6117e6565b6117e5828461244790919063ffffffff16565b5b94506117f18861248e565b93505093509350935093565b6000611844576118436040518060400160405280600681526020017f2573202d257300000000000000000000000000000000000000000000000000008152508383612535565b5b5050565b600080600084600001518460ff1660028110611867576118666133ca565b5b602002015160400151905060006118a087600001518660ff1660028110611891576118906133ca565b5b602002015188608001516125d4565b9050600082146118c2576118bd818361210090919063ffffffff16565b6118c5565b60005b925085600001518560ff16600281106118e1576118e06133ca565b5b60200201516020015193505050935093915050565b600061190184612623565b90506000841261197e578086600001518660ff1660028110611926576119256133ca565b5b602002015160200181815161193b9190613e64565b915081815250508087600001518660ff166002811061195d5761195c6133ca565b5b60200201516060018181516119729190613e64565b915081815250506119ed565b8086600001518660ff1660028110611999576119986133ca565b5b60200201516020018181516119ae9190613e98565b915081815250508087600001518660ff16600281106119d0576119cf6133ca565b5b60200201516060018181516119e59190613e98565b915081815250505b8115611a8157600086600001518660ff1660028110611a0f57611a0e6133ca565b5b60200201516040015190508088600001518760ff1660028110611a3557611a346133ca565b5b602002015160a001818151611a4a9190613e98565b91508181525050600087600001518760ff1660028110611a6d57611a6c6133ca565b5b602002015160400181815250505050611bc3565b60008303611a8f5750611bc3565b6000611a9a84612623565b90506000611ad389600001518860ff1660028110611abb57611aba6133ca565b5b6020020151602001518361244790919063ffffffff16565b905060008512611b50578088600001518860ff1660028110611af857611af76133ca565b5b6020020151604001818151611b0d9190613e64565b915081815250508089600001518860ff1660028110611b2f57611b2e6133ca565b5b602002015160a001818151611b449190613e64565b91508181525050611bbf565b8088600001518860ff1660028110611b6b57611b6a6133ca565b5b6020020151604001818151611b809190613e98565b915081815250508089600001518860ff1660028110611ba257611ba16133ca565b5b602002015160a001818151611bb79190613e98565b915081815250505b5050505b505050505050565b6000611c1157611c106040518060400160405280600281526020017f25730000000000000000000000000000000000000000000000000000000000008152508261263f565b5b50565b8773ffffffffffffffffffffffffffffffffffffffff16638262009e888888888888886040518863ffffffff1660e01b8152600401611c599796959493929190613f3d565b600060405180830381600087803b158015611c7357600080fd5b505af1158015611c87573d6000803e3d6000fd5b505050505050505050505050565b6000806000611ca2612cc3565b611cad8660006126db565b9050826000018360400182815250828152505050611ccc8660016126db565b90508260200183606001828152508281525050508415611d00578681602001818151611cf89190613e98565b915081815250505b611d2981600001518260200151611d248a856020015161276690919063ffffffff16565b6127bf565b816080018181525050611d4d816080015182600001516128c690919063ffffffff16565b8160a0018181525050611d63866060015161291f565b81610120018181525050611d978160a00151612710611d928461012001516127106128c690919063ffffffff16565b6127bf565b816040015182606001519350935093505093509350939050565b8773ffffffffffffffffffffffffffffffffffffffff166396de247f888888888888886040518863ffffffff1660e01b8152600401611df69796959493929190613fad565b600060405180830381600087803b158015611e1057600080fd5b505af1158015611e24573d6000803e3d6000fd5b505050505050505050505050565b6000611e3c612cc3565b611e478360006126db565b905050816000018181525050611e5e8360016126db565b905050816020018181525050611e9381600001518260200151611e8e8785602001516128c690919063ffffffff16565b6127bf565b8160e0018181525050611eb781600001518260e001516128c690919063ffffffff16565b81610100018181525050611ece836060015161291f565b81610120018181525050611f03816101000151612710611efe8461012001516127106128c690919063ffffffff16565b6127bf565b91505092915050565b6000806000611f3d85600001518560ff1660028110611f2e57611f2d6133ca565b5b60200201518660800151612950565b90506000611f4b8686612995565b905080829350935050509250929050565b6000604051602001611f6d90614069565b604051602081830303815290604052805190602001208383604051602001611f9793929190614089565b60405160208183030381529060405280519060200120905092915050565b600073ffffffffffffffffffffffffffffffffffffffff16816040015173ffffffffffffffffffffffffffffffffffffffff160361201f576040517f4dfbbff300000000000000000000000000000000000000000000000000000000815260040160405180910390fd5b806040015173ffffffffffffffffffffffffffffffffffffffff168273ffffffffffffffffffffffffffffffffffffffff1614612099578060400151826040517f25c7157e0000000000000000000000000000000000000000000000000000000081526004016120909291906140c0565b60405180910390fd5b5050565b600042905090565b600080826120b161209d565b6120bb9190613e98565b846120c691906140e9565b90506301e1338081816120dc576120db61412b565b5b049050806b033b2e3c9fd0803ce80000006120f79190613e64565b91505092915050565b6000816b019d971e4fe8401e74000000600019030483111582151761212457600080fd5b6b033b2e3c9fd0803ce80000006b019d971e4fe8401e740000008385020104905092915050565b6000806121598360006126db565b50509050600061216a8460016126db565b505090506000810361218157600092505050612211565b600061219285606001516000612a82565b905060006121a586606001516001612a82565b905060006121cc856b033b2e3c9fd0803ce800000085600a6121c7919061428d565b6127bf565b905060006121f3856b033b2e3c9fd0803ce800000085600a6121ee919061428d565b6127bf565b9050612208818361244790919063ffffffff16565b96505050505050505b919050565b6000806000808660000151600060ff1660028110612237576122366133ca565b5b60200201516000015173ffffffffffffffffffffffffffffffffffffffff168573ffffffffffffffffffffffffffffffffffffffff1614612311576000806122818a8a6000611848565b91509150600061229f60008c60600151612a8290919063ffffffff16565b905060006122c6846b033b2e3c9fd0803ce800000084600a6122c1919061428d565b6127bf565b905060006122ed846b033b2e3c9fd0803ce800000085600a6122e8919061428d565b6127bf565b905081876122fb9190613e64565b965080866123099190613e64565b955050505050505b8660000151600160ff166002811061232c5761232b6133ca565b5b60200201516000015173ffffffffffffffffffffffffffffffffffffffff168573ffffffffffffffffffffffffffffffffffffffff1614612436576000806123768a8a6001611848565b91509150600061239460018c60600151612a8290919063ffffffff16565b905060006123bb846b033b2e3c9fd0803ce800000084600a6123b6919061428d565b6127bf565b905060006123e2846b033b2e3c9fd0803ce800000085600a6123dd919061428d565b6127bf565b905060006123f98c8461210090919063ffffffff16565b905060006124108d8461210090919063ffffffff16565b9050818961241e9190613e64565b9850808861242c9190613e64565b9750505050505050505b819350809250505094509492505050565b60006b033b2e3c9fd0803ce8000000600283046000190304831115158215171561247057600080fd5b81600283046b033b2e3c9fd0803ce800000085020104905092915050565b60008173ffffffffffffffffffffffffffffffffffffffff1663bd02d0f56040516020016124bb90614324565b604051602081830303815290604052805190602001206040518263ffffffff1660e01b81526004016124ed919061315c565b602060405180830381865afa15801561250a573d6000803e3d6000fd5b505050506040513d601f19601f8201168201806040525081019061252e91906131ad565b9050919050565b6125cf83838360405160240161254d93929190614344565b6040516020818303038152906040527f5821efa1000000000000000000000000000000000000000000000000000000007bffffffffffffffffffffffffffffffffffffffffffffffffffffffff19166020820180517bffffffffffffffffffffffffffffffffffffffffffffffffffffffff8381831617835250505050612af5565b505050565b60006125de61209d565b82036125f0578260200151905061261d565b60006126008460400151846120a5565b905061261984602001518261210090919063ffffffff16565b9150505b92915050565b6000808212156126365781600003612638565b815b9050919050565b6126d78282604051602401612655929190614389565b6040516020818303038152906040527f4b5c4277000000000000000000000000000000000000000000000000000000007bffffffffffffffffffffffffffffffffffffffffffffffffffffffff19166020820180517bffffffffffffffffffffffffffffffffffffffffffffffffffffffff8381831617835250505050612af5565b5050565b60008060008085600001518560ff16600281106126fb576126fa6133ca565b5b60200201519050600061270e8787612995565b90506000810361272a576000806000945094509450505061275f565b600061273a838960800151612950565b905080826127489190613e64565b8282846127559190613e98565b9550955095505050505b9250925092565b60008282846127759190613e64565b91508110156127b9576040517f08c379a00000000000000000000000000000000000000000000000000000000081526004016127b09061440c565b60405180910390fd5b92915050565b60008083850290506000801985870982811083820303915050600081036127fa578382816127f0576127ef61412b565b5b04925050506128bf565b808411612833576040517f227bc15300000000000000000000000000000000000000000000000000000000815260040160405180910390fd5b600084868809905082811182039150808303925060008560000386169050808604955080840493506001818260000304019050808302841793506000600287600302189050808702600203810290508087026002038102905080870260020381029050808702600203810290508087026002038102905080870260020381029050808502955050505050505b9392505050565b60008282846128d59190613e98565b9150811115612919576040517f08c379a000000000000000000000000000000000000000000000000000000000815260040161291090614478565b60405180910390fd5b92915050565b600060387fffffffffffffffffffffffffffffffffffffffffffffff0000ffffffffffffff198316901c9050919050565b6000808360a0015103612966576000905061298f565b600061297284846125d4565b905061298b818560a0015161210090919063ffffffff16565b9150505b92915050565b60008083600001518360ff16600281106129b2576129b16133ca565b5b602002015190506000846020015173ffffffffffffffffffffffffffffffffffffffff1663e42c08f283600001516040518263ffffffff1660e01b81526004016129fc9190614498565b602060405180830381865afa158015612a19573d6000803e3d6000fd5b505050506040513d601f19601f82011682018060405250810190612a3d91906131ad565b905060008103612a5257600092505050612a7c565b6000826060015190508260c001518183612a6c9190613e98565b612a769190613e98565b93505050505b92915050565b6000807fffffffffffffffffffffffffffffffffffffffff00ffffffffffffffffffffff9050600060589050600160ff168460ff1603612ae4577fffffffffffffffffffffffffffffffffffffff00ffffffffffffffffffffffff9150606090505b8082198616901c9250505092915050565b612b0c81612b04612b0f612b30565b63ffffffff16565b50565b60006a636f6e736f6c652e6c6f679050600080835160208501845afa505050565b612d1d819050919050565b6040518060800160405280612b4e612bb2565b815260200160008019168152602001612b65612b75565b8152602001600080191681525090565b6040518060600160405280612b88612d27565b815260200160008152602001600073ffffffffffffffffffffffffffffffffffffffff1681525090565b6040518060a00160405280612bc5612d54565b8152602001600073ffffffffffffffffffffffffffffffffffffffff168152602001600073ffffffffffffffffffffffffffffffffffffffff16815260200160008152602001600081525090565b6040518060800160405280600081526020016000815260200160008152602001600081525090565b6040518060a00160405280600081526020016000815260200160008152602001600060ff168152602001612c6d612d81565b81525090565b6040518060c001604052806000815260200160008152602001600081526020016000815260200160008152602001600081525090565b604051806040016040528060008152602001600081525090565b60405180610160016040528060008152602001600081526020016000815260200160008152602001600081526020016000815260200160008152602001600081526020016000815260200160008152602001600081525090565b612d256144b3565b565b60405180604001604052806002905b612d3e612de9565b815260200190600190039081612d365790505090565b60405180604001604052806002905b612d6b612e44565b815260200190600190039081612d635790505090565b6040518060c00160405280600073ffffffffffffffffffffffffffffffffffffffff168152602001600073ffffffffffffffffffffffffffffffffffffffff16815260200160008152602001600060ff16815260200160008152602001600060ff1681525090565b604051806101000160405280600073ffffffffffffffffffffffffffffffffffffffff168152602001600081526020016000815260200160008152602001600081526020016000815260200160008152602001600081525090565b6040518060e00160405280600073ffffffffffffffffffffffffffffffffffffffff1681526020016000815260200160008152602001600081526020016000815260200160008152602001600081525090565b600073ffffffffffffffffffffffffffffffffffffffff82169050919050565b6000819050919050565b6000612edc612ed7612ed284612e97565b612eb7565b612e97565b9050919050565b6000612eee82612ec1565b9050919050565b6000612f0082612ee3565b9050919050565b612f1081612ef5565b82525050565b6000602082019050612f2b6000830184612f07565b92915050565b6000612f3c82612ee3565b9050919050565b612f4c81612f31565b82525050565b6000602082019050612f676000830184612f43565b92915050565b6000612f7882612ee3565b9050919050565b612f8881612f6d565b82525050565b6000602082019050612fa36000830184612f7f565b92915050565b6000604051905090565b600080fd5b6000612fc382612e97565b9050919050565b612fd381612fb8565b8114612fde57600080fd5b50565b600081359050612ff081612fca565b92915050565b600080fd5b60006020828403121561301157613010612ff6565b5b81905092915050565b6000806040838503121561303157613030612fb3565b5b600061303f85828601612fe1565b925050602061305085828601612ffb565b9150509250929050565b600082825260208201905092915050565b7f434f4e54524f4c4c455200000000000000000000000000000000000000000000600082015250565b60006130a1600a8361305a565b91506130ac8261306b565b602082019050919050565b600060208201905081810360008301526130d081613094565b9050919050565b7f5245454e5452414e43595f47554152445f535441545553000000000000000000600082015250565b600061310d60178361305a565b9150613118826130d7565b602082019050919050565b6000602082019050818103600083015261313c81613100565b9050919050565b6000819050919050565b61315681613143565b82525050565b6000602082019050613171600083018461314d565b92915050565b6000819050919050565b61318a81613177565b811461319557600080fd5b50565b6000815190506131a781613181565b92915050565b6000602082840312156131c3576131c2612fb3565b5b60006131d184828501613198565b91505092915050565b7f5265656e7472616e637947756172643a207265656e7472616e742063616c6c00600082015250565b6000613210601f8361305a565b915061321b826131da565b602082019050919050565b6000602082019050818103600083015261323f81613203565b9050919050565b61324f81613177565b82525050565b600060408201905061326a600083018561314d565b6132776020830184613246565b9392505050565b61328781612fb8565b82525050565b60006040820190506132a2600083018561327e565b6132af602083018461314d565b9392505050565b60008115159050919050565b6132cb816132b6565b81146132d657600080fd5b50565b6000815190506132e8816132c2565b92915050565b60006020828403121561330457613303612fb3565b5b6000613312848285016132d9565b91505092915050565b600081519050919050565b60005b83811015613344578082015181840152602081019050613329565b60008484015250505050565b6000601f19601f8301169050919050565b600061336c8261331b565b613376818561305a565b9350613386818560208601613326565b61338f81613350565b840191505092915050565b60006040820190506133af600083018561327e565b81810360208301526133c18184613361565b90509392505050565b7f4e487b7100000000000000000000000000000000000000000000000000000000600052603260045260246000fd5b61340281612fb8565b82525050565b61341181613143565b82525050565b600060029050919050565b600081905092915050565b6000819050919050565b61344081612fb8565b82525050565b61344f81613177565b82525050565b6101008201600082015161346c6000850182613437565b50602082015161347f6020850182613446565b5060408201516134926040850182613446565b5060608201516134a56060850182613446565b5060808201516134b86080850182613446565b5060a08201516134cb60a0850182613446565b5060c08201516134de60c0850182613446565b5060e08201516134f160e0850182613446565b50505050565b60006135038383613455565b6101008301905092915050565b6000602082019050919050565b61352681613417565b6135308184613422565b925061353b8261342d565b8060005b8381101561356c57815161355387826134f7565b965061355e83613510565b92505060018101905061353f565b505050505050565b6102408201600082015161358b600085018261351d565b50602082015161359f610200850182613446565b5060408201516135b3610220850182613437565b50505050565b6000610280820190506135cf60008301866133f9565b6135dc6020830185613408565b6135e96040830184613574565b949350505050565b600060029050919050565b600081905092915050565b6000819050919050565b60e0820160008201516136276000850182613437565b50602082015161363a6020850182613446565b50604082015161364d6040850182613446565b5060608201516136606060850182613446565b5060808201516136736080850182613446565b5060a082015161368660a0850182613446565b5060c082015161369960c0850182613446565b50505050565b60006136ab8383613611565b60e08301905092915050565b6000602082019050919050565b6136cd816135f1565b6136d781846135fc565b92506136e282613607565b8060005b838110156137135781516136fa878261369f565b9650613705836136b7565b9250506001810190506136e6565b505050505050565b6102408201600082015161373260008501826136c4565b5060208201516137466101c0850182613437565b50604082015161375a6101e0850182613437565b50606082015161376e610200850182613446565b506080820151613782610220850182613446565b50505050565b60006102808201905061379e60008301866133f9565b6137ab6020830185613408565b6137b8604083018461371b565b949350505050565b60006040820190506137d560008301856133f9565b6137e26020830184613408565b9392505050565b600080fd5b7f4e487b7100000000000000000000000000000000000000000000000000000000600052604160045260246000fd5b61382682613350565b810181811067ffffffffffffffff82111715613845576138446137ee565b5b80604052505050565b6000613858612fa9565b9050613864828261381d565b919050565b600080fd5b600067ffffffffffffffff821115613889576138886137ee565b5b602082029050919050565b600080fd5b6000815190506138a881612fca565b92915050565b600060e082840312156138c4576138c36137e9565b5b6138ce60e061384e565b905060006138de84828501613899565b60008301525060206138f284828501613198565b602083015250604061390684828501613198565b604083015250606061391a84828501613198565b606083015250608061392e84828501613198565b60808301525060a061394284828501613198565b60a08301525060c061395684828501613198565b60c08301525092915050565b60006139756139708461386e565b61384e565b90508060e0840283018581111561398f5761398e613894565b5b835b818110156139b857806139a488826138ae565b84526020840193505060e081019050613991565b5050509392505050565b600082601f8301126139d7576139d6613869565b5b60026139e4848285613962565b91505092915050565b60006102408284031215613a0457613a036137e9565b5b613a0e60a061384e565b90506000613a1e848285016139c2565b6000830152506101c0613a3384828501613899565b6020830152506101e0613a4884828501613899565b604083015250610200613a5d84828501613198565b606083015250610220613a7284828501613198565b60808301525092915050565b60006102408284031215613a9557613a94612fb3565b5b6000613aa3848285016139ed565b91505092915050565b6000604082019050613ac16000830185613246565b613ace6020830184613246565b9392505050565b6000819050919050565b7f4e487b7100000000000000000000000000000000000000000000000000000000600052601160045260246000fd5b6000613b1982613ad5565b91507f80000000000000000000000000000000000000000000000000000000000000008203613b4b57613b4a613adf565b5b816000039050919050565b613b5f81613177565b82525050565b604082016000820151613b7b6000850182613b56565b506020820151613b8e6020850182613b56565b50505050565b6000604082019050613ba96000830184613b65565b92915050565b600067ffffffffffffffff821115613bca57613bc96137ee565b5b602082029050919050565b60006101008284031215613bec57613beb6137e9565b5b613bf761010061384e565b90506000613c0784828501613899565b6000830152506020613c1b84828501613198565b6020830152506040613c2f84828501613198565b6040830152506060613c4384828501613198565b6060830152506080613c5784828501613198565b60808301525060a0613c6b84828501613198565b60a08301525060c0613c7f84828501613198565b60c08301525060e0613c9384828501613198565b60e08301525092915050565b6000613cb2613cad84613baf565b61384e565b9050806101008402830185811115613ccd57613ccc613894565b5b835b81811015613cf75780613ce28882613bd5565b84526020840193505061010081019050613ccf565b5050509392505050565b600082601f830112613d1657613d15613869565b5b6002613d23848285613c9f565b91505092915050565b60006102408284031215613d4357613d426137e9565b5b613d4d606061384e565b90506000613d5d84828501613d01565b600083015250610200613d7284828501613198565b602083015250610220613d8784828501613899565b60408301525092915050565b60006102408284031215613daa57613da9612fb3565b5b6000613db884828501613d2c565b91505092915050565b7f504f4f4c00000000000000000000000000000000000000000000000000000000600082015250565b6000613df760048361305a565b9150613e0282613dc1565b602082019050919050565b60006020820190508181036000830152613e2681613dea565b9050919050565b6000606082019050613e42600083018661314d565b613e4f602083018561327e565b613e5c604083018461327e565b949350505050565b6000613e6f82613177565b9150613e7a83613177565b9250828201905080821115613e9257613e91613adf565b5b92915050565b6000613ea382613177565b9150613eae83613177565b9250828203905081811115613ec657613ec5613adf565b5b92915050565b600060ff82169050919050565b613ee281613ecc565b82525050565b608082016000820151613efe6000850182613b56565b506020820151613f116020850182613b56565b506040820151613f246040850182613b56565b506060820151613f376060850182613b56565b50505050565b600061014082019050613f53600083018a61327e565b613f60602083018961327e565b613f6d604083018861327e565b613f7a6060830187613246565b613f876080830186613ed9565b613f9460a0830185613246565b613fa160c0830184613ee8565b98975050505050505050565b600061014082019050613fc3600083018a61327e565b613fd0602083018961327e565b613fdd604083018861327e565b613fea6060830187613246565b613ff76080830186613246565b61400460a0830185613246565b61401160c0830184613ee8565b98975050505050505050565b7f504f534954494f4e000000000000000000000000000000000000000000000000600082015250565b600061405360088361305a565b915061405e8261401d565b602082019050919050565b6000602082019050818103600083015261408281614046565b9050919050565b600060608201905061409e600083018661314d565b6140ab602083018561327e565b6140b86040830184613246565b949350505050565b60006040820190506140d5600083018561327e565b6140e2602083018461327e565b9392505050565b60006140f482613177565b91506140ff83613177565b925082820261410d81613177565b9150828204841483151761412457614123613adf565b5b5092915050565b7f4e487b7100000000000000000000000000000000000000000000000000000000600052601260045260246000fd5b60008160011c9050919050565b6000808291508390505b60018511156141b15780860481111561418d5761418c613adf565b5b600185161561419c5780820291505b80810290506141aa8561415a565b9450614171565b94509492505050565b6000826141ca5760019050614286565b816141d85760009050614286565b81600181146141ee57600281146141f857614227565b6001915050614286565b60ff84111561420a57614209613adf565b5b8360020a91508482111561422157614220613adf565b5b50614286565b5060208310610133831016604e8410600b841016171561425c5782820a90508381111561425757614256613adf565b5b614286565b6142698484846001614167565b925090508184048111156142805761427f613adf565b5b81810290505b9392505050565b600061429882613177565b91506142a383613177565b92506142d07fffffffffffffffffffffffffffffffffffffffffffffffffffffffffffffffff84846141ba565b905092915050565b7f4d415247494e5f4c4556454c4c5f5448524553484f4c44000000000000000000600082015250565b600061430e60178361305a565b9150614319826142d8565b602082019050919050565b6000602082019050818103600083015261433d81614301565b9050919050565b6000606082019050818103600083015261435e8186613361565b905081810360208301526143728185613361565b90506143816040830184613246565b949350505050565b600060408201905081810360008301526143a38185613361565b905081810360208301526143b78184613361565b90509392505050565b7f64732d6d6174682d6164642d6f766572666c6f77000000000000000000000000600082015250565b60006143f660148361305a565b9150614401826143c0565b602082019050919050565b60006020820190508181036000830152614425816143e9565b9050919050565b7f64732d6d6174682d7375622d756e646572666c6f770000000000000000000000600082015250565b600061446260158361305a565b915061446d8261442c565b602082019050919050565b6000602082019050818103600083015261449181614455565b9050919050565b60006020820190506144ad600083018461327e565b92915050565b7f4e487b7100000000000000000000000000000000000000000000000000000000600052605160045260246000fdfea26469706673582212209089702658918ff6767b951878b5ed478f8972d562585c489c3b4cb85f78487c64736f6c634300081c0033",
  "linkReferences": {
    "contracts/pool/PoolStoreUtils.sol": {
      "PoolStoreUtils": [
        {
          "length": 20,
          "start": 2405
        },
        {
          "length": 20,
          "start": 2785
        }
      ]
    },
    "contracts/position/PositionStoreUtils.sol": {
      "PositionStoreUtils": [
        {
          "length": 20,
          "start": 2268
        },
        {
          "length": 20,
          "start": 5785
        }
      ]
    }
  },
  "deployedLinkReferences": {
    "contracts/pool/PoolStoreUtils.sol": {
      "PoolStoreUtils": [
        {
          "length": 20,
          "start": 1776
        },
        {
          "length": 20,
          "start": 2156
        }
      ]
    },
    "contracts/position/PositionStoreUtils.sol": {
      "PositionStoreUtils": [
        {
          "length": 20,
          "start": 1639
        },
        {
          "length": 20,
          "start": 5156
        }
      ]
    }
  }
}