{
  "_format": "hh-sol-artifact-1",
  "contractName": "PoolInterestRateStrategy",
  "sourceName": "contracts/interest/PoolInterestRateStrategy.sol",
  "abi": [
    {
      "inputs": [
        {
          "components": [
            {
              "internalType": "uint256",
              "name": "optimalUsageRatio",
              "type": "uint256"
            },
            {
              "internalType": "uint256",
              "name": "rate0",
              "type": "uint256"
            },
            {
              "internalType": "uint256[]",
              "name": "rateSlope1",
              "type": "uint256[]"
            },
            {
              "internalType": "uint256[]",
              "name": "rateSlope2",
              "type": "uint256[]"
            }
          ],
          "internalType": "struct PoolInterestRateStrategy.InterestRateStrategyParams",
          "name": "params",
          "type": "tuple"
        }
      ],
      "stateMutability": "nonpayable",
      "type": "constructor"
    },
    {
      "inputs": [
        {
          "internalType": "uint256",
          "name": "optimalUsageRatio",
          "type": "uint256"
        }
      ],
      "name": "InvalidOptimalUsageRate",
      "type": "error"
    },
    {
      "inputs": [],
      "name": "BALANCE10000",
      "outputs": [
        {
          "internalType": "uint256",
          "name": "",
          "type": "uint256"
        }
      ],
      "stateMutability": "view",
      "type": "function"
    },
    {
      "inputs": [],
      "name": "BALANCE1000000",
      "outputs": [
        {
          "internalType": "uint256",
          "name": "",
          "type": "uint256"
        }
      ],
      "stateMutability": "view",
      "type": "function"
    },
    {
      "inputs": [],
      "name": "BALANCE5000",
      "outputs": [
        {
          "internalType": "uint256",
          "name": "",
          "type": "uint256"
        }
      ],
      "stateMutability": "view",
      "type": "function"
    },
    {
      "inputs": [],
      "name": "BALANCE50000",
      "outputs": [
        {
          "internalType": "uint256",
          "name": "",
          "type": "uint256"
        }
      ],
      "stateMutability": "view",
      "type": "function"
    },
    {
      "inputs": [],
      "name": "BALANCE500000",
      "outputs": [
        {
          "internalType": "uint256",
          "name": "",
          "type": "uint256"
        }
      ],
      "stateMutability": "view",
      "type": "function"
    },
    {
      "inputs": [],
      "name": "MAX_EXCESS_USAGE_RATIO",
      "outputs": [
        {
          "internalType": "uint256",
          "name": "",
          "type": "uint256"
        }
      ],
      "stateMutability": "view",
      "type": "function"
    },
    {
      "inputs": [],
      "name": "OPTIMAL_USAGE_RATIO",
      "outputs": [
        {
          "internalType": "uint256",
          "name": "",
          "type": "uint256"
        }
      ],
      "stateMutability": "view",
      "type": "function"
    },
    {
      "inputs": [],
      "name": "SLOPESIZE",
      "outputs": [
        {
          "internalType": "uint8",
          "name": "",
          "type": "uint8"
        }
      ],
      "stateMutability": "view",
      "type": "function"
    },
    {
      "inputs": [
        {
          "components": [
            {
              "internalType": "uint256",
              "name": "totalPoolBalance",
              "type": "uint256"
            },
            {
              "internalType": "uint256",
              "name": "totalDebt",
              "type": "uint256"
            }
          ],
          "internalType": "struct InterestUtils.CalculateInterestRatesParams",
          "name": "params",
          "type": "tuple"
        }
      ],
      "name": "calculateInterestRates",
      "outputs": [
        {
          "internalType": "uint256",
          "name": "",
          "type": "uint256"
        }
      ],
      "stateMutability": "view",
      "type": "function"
    },
    {
      "inputs": [],
      "name": "getOptimalUsageRatio",
      "outputs": [
        {
          "internalType": "uint256",
          "name": "",
          "type": "uint256"
        }
      ],
      "stateMutability": "view",
      "type": "function"
    },
    {
      "inputs": [],
      "name": "getRateSlope1",
      "outputs": [
        {
          "internalType": "uint256[]",
          "name": "",
          "type": "uint256[]"
        }
      ],
      "stateMutability": "view",
      "type": "function"
    },
    {
      "inputs": [],
      "name": "getRateSlope2",
      "outputs": [
        {
          "internalType": "uint256[]",
          "name": "",
          "type": "uint256[]"
        }
      ],
      "stateMutability": "view",
      "type": "function"
    },
    {
      "inputs": [],
      "name": "getRatebase",
      "outputs": [
        {
          "internalType": "uint256",
          "name": "",
          "type": "uint256"
        }
      ],
      "stateMutability": "view",
      "type": "function"
    },
    {
      "inputs": [
        {
          "internalType": "uint256",
          "name": "balance",
          "type": "uint256"
        }
      ],
      "name": "getSlopeIndex",
      "outputs": [
        {
          "internalType": "uint8",
          "name": "",
          "type": "uint8"
        }
      ],
      "stateMutability": "view",
      "type": "function"
    }
  ],
  "bytecode": "0x60e060405234801561001057600080fd5b50604051611168380380611168833981810160405281019061003291906103c9565b80600001516b033b2e3c9fd0803ce8000000101561008b5780600001516040517fb90df3f20000000000000000000000000000000000000000000000000000000081526004016100829190610421565b60405180910390fd5b80600001516080818152505080600001516b033b2e3c9fd0803ce80000006100b3919061046b565b60a08181525050806020015160c081815250508060400151600090805190602001906100e0929190610102565b508060600151600190805190602001906100fb929190610102565b505061049f565b82805482825590600052602060002090810192821561013e579160200282015b8281111561013d578251825591602001919060010190610122565b5b50905061014b919061014f565b5090565b5b80821115610168576000816000905550600101610150565b5090565b6000604051905090565b600080fd5b600080fd5b600080fd5b6000601f19601f8301169050919050565b7f4e487b7100000000000000000000000000000000000000000000000000000000600052604160045260246000fd5b6101ce82610185565b810181811067ffffffffffffffff821117156101ed576101ec610196565b5b80604052505050565b600061020061016c565b905061020c82826101c5565b919050565b600080fd5b6000819050919050565b61022981610216565b811461023457600080fd5b50565b60008151905061024681610220565b92915050565b600080fd5b600067ffffffffffffffff82111561026c5761026b610196565b5b602082029050602081019050919050565b600080fd5b600061029561029084610251565b6101f6565b905080838252602082019050602084028301858111156102b8576102b761027d565b5b835b818110156102e157806102cd8882610237565b8452602084019350506020810190506102ba565b5050509392505050565b600082601f830112610300576102ff61024c565b5b8151610310848260208601610282565b91505092915050565b60006080828403121561032f5761032e610180565b5b61033960806101f6565b9050600061034984828501610237565b600083015250602061035d84828501610237565b602083015250604082015167ffffffffffffffff81111561038157610380610211565b5b61038d848285016102eb565b604083015250606082015167ffffffffffffffff8111156103b1576103b0610211565b5b6103bd848285016102eb565b60608301525092915050565b6000602082840312156103df576103de610176565b5b600082015167ffffffffffffffff8111156103fd576103fc61017b565b5b61040984828501610319565b91505092915050565b61041b81610216565b82525050565b60006020820190506104366000830184610412565b92915050565b7f4e487b7100000000000000000000000000000000000000000000000000000000600052601160045260246000fd5b600061047682610216565b915061048183610216565b92508282039050818111156104995761049861043c565b5b92915050565b60805160a05160c051610c706104f86000396000818161032901526106d401526000818161044e015261073f01526000818161041d0152818161046f015281816104f60152818161058301526107190152610c706000f3fe608060405234801561001057600080fd5b50600436106100ea5760003560e01c806387f0409d1161008c578063a9c622f811610066578063a9c622f81461023f578063b1b064851461025d578063d41a41ba1461027b578063ed719cf814610299576100ea565b806387f0409d146101e5578063a3a9bc3314610203578063a8602e8614610221576100ea565b806354c365c6116100c857806354c365c61461015b57806375005bb0146101795780637aa78615146101975780638567992a146101b5576100ea565b80632dd9037b146100ef5780634329759a1461010d5780634ed09c0d1461013d575b600080fd5b6100f76102b7565b6040516101049190610939565b60405180910390f35b61012760048036038101906101229190610a77565b61030f565b6040516101349190610ab3565b60405180910390f35b610145610564565b6040516101529190610ab3565b60405180910390f35b610163610581565b6040516101709190610ab3565b60405180910390f35b6101816105a5565b60405161018e9190610939565b60405180910390f35b61019f6105fd565b6040516101ac9190610ab3565b60405180910390f35b6101cf60048036038101906101ca9190610ace565b61061a565b6040516101dc9190610b17565b60405180910390f35b6101ed6106d0565b6040516101fa9190610ab3565b60405180910390f35b61020b6106f8565b6040516102189190610ab3565b60405180910390f35b610229610715565b6040516102369190610ab3565b60405180910390f35b61024761073d565b6040516102549190610ab3565b60405180910390f35b610265610761565b6040516102729190610b17565b60405180910390f35b610283610766565b6040516102909190610ab3565b60405180910390f35b6102a1610784565b6040516102ae9190610ab3565b60405180910390f35b6060600080548060200260200160405190810160405280929190818152602001828054801561030557602002820191906000526020600020905b8154815260200190600101908083116102f1575b5050505050905090565b6000610319610834565b82602001518160200181815250507f00000000000000000000000000000000000000000000000000000000000000008160400181815250506000610360846000015161061a565b60ff168154811061037457610373610b32565b5b90600052602060002001548160a00181815250506001610397846000015161061a565b60ff16815481106103ab576103aa610b32565b5b90600052602060002001548160c0018181525050600081602001511461041b578260000151816000018181525050806020015181600001516103ed9190610b90565b816080018181525050610411816080015182602001516107a290919063ffffffff16565b8160600181815250505b7f0000000000000000000000000000000000000000000000000000000000000000816060015111156104f15760006104ab7f00000000000000000000000000000000000000000000000000000000000000007f0000000000000000000000000000000000000000000000000000000000000000846060015161049d9190610bc4565b6107a290919063ffffffff16565b90506104c4818360c001516107e990919063ffffffff16565b8260a001516104d39190610b90565b826040018181516104e49190610b90565b9150818152505050610557565b61053e7f000000000000000000000000000000000000000000000000000000000000000061053083606001518460a001516107e990919063ffffffff16565b6107a290919063ffffffff16565b8160400181815161054f9190610b90565b915081815250505b8060400151915050919050565b6b033b2e3c9fd0803ce800000061138861057e9190610bf8565b81565b7f000000000000000000000000000000000000000000000000000000000000000081565b606060018054806020026020016040519081016040528092919081815260200182805480156105f357602002820191906000526020600020905b8154815260200190600101908083116105df575b5050505050905090565b6b033b2e3c9fd0803ce80000006127106106179190610bf8565b81565b60006b033b2e3c9fd0803ce80000006127106106369190610bf8565b82101561064657600090506106cb565b6b033b2e3c9fd0803ce800000061c3506106609190610bf8565b82101561067057600190506106cb565b6b033b2e3c9fd0803ce80000006207a12061068b9190610bf8565b82101561069b57600290506106cb565b6b033b2e3c9fd0803ce8000000620f42406106b69190610bf8565b8210156106c657600390506106cb565b600490505b919050565b60007f0000000000000000000000000000000000000000000000000000000000000000905090565b6b033b2e3c9fd0803ce800000061c3506107129190610bf8565b81565b60007f0000000000000000000000000000000000000000000000000000000000000000905090565b7f000000000000000000000000000000000000000000000000000000000000000081565b600681565b6b033b2e3c9fd0803ce8000000620f42406107819190610bf8565b81565b6b033b2e3c9fd0803ce80000006207a12061079f9190610bf8565b81565b60006b033b2e3c9fd0803ce800000060028304600019030483111515821517156107cb57600080fd5b81600283046b033b2e3c9fd0803ce800000085020104905092915050565b6000816b019d971e4fe8401e74000000600019030483111582151761080d57600080fd5b6b033b2e3c9fd0803ce80000006b019d971e4fe8401e740000008385020104905092915050565b6040518060e00160405280600081526020016000815260200160008152602001600081526020016000815260200160008152602001600081525090565b600081519050919050565b600082825260208201905092915050565b6000819050602082019050919050565b6000819050919050565b6108b08161089d565b82525050565b60006108c283836108a7565b60208301905092915050565b6000602082019050919050565b60006108e682610871565b6108f0818561087c565b93506108fb8361088d565b8060005b8381101561092c57815161091388826108b6565b975061091e836108ce565b9250506001810190506108ff565b5085935050505092915050565b6000602082019050818103600083015261095381846108db565b905092915050565b6000604051905090565b600080fd5b600080fd5b6000601f19601f8301169050919050565b7f4e487b7100000000000000000000000000000000000000000000000000000000600052604160045260246000fd5b6109b88261096f565b810181811067ffffffffffffffff821117156109d7576109d6610980565b5b80604052505050565b60006109ea61095b565b90506109f682826109af565b919050565b610a048161089d565b8114610a0f57600080fd5b50565b600081359050610a21816109fb565b92915050565b600060408284031215610a3d57610a3c61096a565b5b610a4760406109e0565b90506000610a5784828501610a12565b6000830152506020610a6b84828501610a12565b60208301525092915050565b600060408284031215610a8d57610a8c610965565b5b6000610a9b84828501610a27565b91505092915050565b610aad8161089d565b82525050565b6000602082019050610ac86000830184610aa4565b92915050565b600060208284031215610ae457610ae3610965565b5b6000610af284828501610a12565b91505092915050565b600060ff82169050919050565b610b1181610afb565b82525050565b6000602082019050610b2c6000830184610b08565b92915050565b7f4e487b7100000000000000000000000000000000000000000000000000000000600052603260045260246000fd5b7f4e487b7100000000000000000000000000000000000000000000000000000000600052601160045260246000fd5b6000610b9b8261089d565b9150610ba68361089d565b9250828201905080821115610bbe57610bbd610b61565b5b92915050565b6000610bcf8261089d565b9150610bda8361089d565b9250828203905081811115610bf257610bf1610b61565b5b92915050565b6000610c038261089d565b9150610c0e8361089d565b9250828202610c1c8161089d565b91508282048414831517610c3357610c32610b61565b5b509291505056fea2646970667358221220fcd288b9a65197135ba70d65408c0a35405cc22d69f50df8a3501b2f34f9cfe564736f6c634300081c0033",
  "linkReferences": {},
  "deployedLinkReferences": {}
}