{
  "_format": "hh-sol-artifact-1",
  "contractName": "PoolInterestRateStrategy",
  "sourceName": "contracts/interest/PoolInterestRateStrategy.sol",
  "abi": [
    {
      "inputs": [
        {
          "components": [
            {
              "internalType": "uint256",
              "name": "optimalUsageRatio",
              "type": "uint256"
            },
            {
              "internalType": "uint256",
              "name": "rate0",
              "type": "uint256"
            },
            {
              "internalType": "uint256[]",
              "name": "rateSlope1",
              "type": "uint256[]"
            },
            {
              "internalType": "uint256[]",
              "name": "rateSlope2",
              "type": "uint256[]"
            }
          ],
          "internalType": "struct PoolInterestRateStrategy.InterestRateStrategyParams",
          "name": "params",
          "type": "tuple"
        }
      ],
      "stateMutability": "nonpayable",
      "type": "constructor"
    },
    {
      "inputs": [
        {
          "internalType": "uint256",
          "name": "optimalUsageRatio",
          "type": "uint256"
        }
      ],
      "name": "InvalidOptimalUsageRate",
      "type": "error"
    },
    {
      "inputs": [],
      "name": "BALANCE10000",
      "outputs": [
        {
          "internalType": "uint256",
          "name": "",
          "type": "uint256"
        }
      ],
      "stateMutability": "view",
      "type": "function"
    },
    {
      "inputs": [],
      "name": "BALANCE1000000",
      "outputs": [
        {
          "internalType": "uint256",
          "name": "",
          "type": "uint256"
        }
      ],
      "stateMutability": "view",
      "type": "function"
    },
    {
      "inputs": [],
      "name": "BALANCE50000",
      "outputs": [
        {
          "internalType": "uint256",
          "name": "",
          "type": "uint256"
        }
      ],
      "stateMutability": "view",
      "type": "function"
    },
    {
      "inputs": [],
      "name": "BALANCE500000",
      "outputs": [
        {
          "internalType": "uint256",
          "name": "",
          "type": "uint256"
        }
      ],
      "stateMutability": "view",
      "type": "function"
    },
    {
      "inputs": [],
      "name": "MAX_EXCESS_USAGE_RATIO",
      "outputs": [
        {
          "internalType": "uint256",
          "name": "",
          "type": "uint256"
        }
      ],
      "stateMutability": "view",
      "type": "function"
    },
    {
      "inputs": [],
      "name": "OPTIMAL_USAGE_RATIO",
      "outputs": [
        {
          "internalType": "uint256",
          "name": "",
          "type": "uint256"
        }
      ],
      "stateMutability": "view",
      "type": "function"
    },
    {
      "inputs": [],
      "name": "SLOPESIZE",
      "outputs": [
        {
          "internalType": "uint8",
          "name": "",
          "type": "uint8"
        }
      ],
      "stateMutability": "view",
      "type": "function"
    },
    {
      "inputs": [
        {
          "components": [
            {
              "internalType": "uint256",
              "name": "totalPoolBalance",
              "type": "uint256"
            },
            {
              "internalType": "uint256",
              "name": "totalDebt",
              "type": "uint256"
            },
            {
              "internalType": "uint256",
              "name": "totalPoolBalanceBase",
              "type": "uint256"
            }
          ],
          "internalType": "struct InterestUtils.CalculateInterestRatesParams",
          "name": "params",
          "type": "tuple"
        }
      ],
      "name": "calculateInterestRates",
      "outputs": [
        {
          "internalType": "uint256",
          "name": "",
          "type": "uint256"
        }
      ],
      "stateMutability": "view",
      "type": "function"
    },
    {
      "inputs": [],
      "name": "getOptimalUsageRatio",
      "outputs": [
        {
          "internalType": "uint256",
          "name": "",
          "type": "uint256"
        }
      ],
      "stateMutability": "view",
      "type": "function"
    },
    {
      "inputs": [],
      "name": "getRateSlope1",
      "outputs": [
        {
          "internalType": "uint256[]",
          "name": "",
          "type": "uint256[]"
        }
      ],
      "stateMutability": "view",
      "type": "function"
    },
    {
      "inputs": [],
      "name": "getRateSlope2",
      "outputs": [
        {
          "internalType": "uint256[]",
          "name": "",
          "type": "uint256[]"
        }
      ],
      "stateMutability": "view",
      "type": "function"
    },
    {
      "inputs": [],
      "name": "getRatebase",
      "outputs": [
        {
          "internalType": "uint256",
          "name": "",
          "type": "uint256"
        }
      ],
      "stateMutability": "view",
      "type": "function"
    },
    {
      "inputs": [
        {
          "internalType": "uint256",
          "name": "balance",
          "type": "uint256"
        }
      ],
      "name": "getSlopeIndex",
      "outputs": [
        {
          "internalType": "uint8",
          "name": "",
          "type": "uint8"
        }
      ],
      "stateMutability": "view",
      "type": "function"
    }
  ],
  "bytecode": "0x60e060405234801561001057600080fd5b506040516115ce3803806115ce833981810160405281019061003291906103c9565b80600001516b033b2e3c9fd0803ce8000000101561008b5780600001516040517fb90df3f20000000000000000000000000000000000000000000000000000000081526004016100829190610421565b60405180910390fd5b80600001516080818152505080600001516b033b2e3c9fd0803ce80000006100b3919061046b565b60a08181525050806020015160c081815250508060400151600090805190602001906100e0929190610102565b508060600151600190805190602001906100fb929190610102565b505061049f565b82805482825590600052602060002090810192821561013e579160200282015b8281111561013d578251825591602001919060010190610122565b5b50905061014b919061014f565b5090565b5b80821115610168576000816000905550600101610150565b5090565b6000604051905090565b600080fd5b600080fd5b600080fd5b6000601f19601f8301169050919050565b7f4e487b7100000000000000000000000000000000000000000000000000000000600052604160045260246000fd5b6101ce82610185565b810181811067ffffffffffffffff821117156101ed576101ec610196565b5b80604052505050565b600061020061016c565b905061020c82826101c5565b919050565b600080fd5b6000819050919050565b61022981610216565b811461023457600080fd5b50565b60008151905061024681610220565b92915050565b600080fd5b600067ffffffffffffffff82111561026c5761026b610196565b5b602082029050602081019050919050565b600080fd5b600061029561029084610251565b6101f6565b905080838252602082019050602084028301858111156102b8576102b761027d565b5b835b818110156102e157806102cd8882610237565b8452602084019350506020810190506102ba565b5050509392505050565b600082601f830112610300576102ff61024c565b5b8151610310848260208601610282565b91505092915050565b60006080828403121561032f5761032e610180565b5b61033960806101f6565b9050600061034984828501610237565b600083015250602061035d84828501610237565b602083015250604082015167ffffffffffffffff81111561038157610380610211565b5b61038d848285016102eb565b604083015250606082015167ffffffffffffffff8111156103b1576103b0610211565b5b6103bd848285016102eb565b60608301525092915050565b6000602082840312156103df576103de610176565b5b600082015167ffffffffffffffff8111156103fd576103fc61017b565b5b61040984828501610319565b91505092915050565b61041b81610216565b82525050565b60006020820190506104366000830184610412565b92915050565b7f4e487b7100000000000000000000000000000000000000000000000000000000600052601160045260246000fd5b600061047682610216565b915061048183610216565b92508282039050818111156104995761049861043c565b5b92915050565b60805160a05160c0516110c86105066000396000818161042901528181610511015261064401526000818161049401526108010152600081816102d80152818161046e015281816105e5015281816107d20152818161082201526108f901526110c86000f3fe608060405234801561001057600080fd5b50600436106100cf5760003560e01c8063a3a9bc331161008c578063b1b0648511610066578063b1b06485146101f4578063d41a41ba14610212578063ed719cf814610230578063fdd63ecf1461024e576100cf565b8063a3a9bc331461019a578063a8602e86146101b8578063a9c622f8146101d6576100cf565b80632dd9037b146100d457806354c365c6146100f257806375005bb0146101105780637aa786151461012e5780638567992a1461014c57806387f0409d1461017c575b600080fd5b6100dc61027e565b6040516100e99190610c8a565b60405180910390f35b6100fa6102d6565b6040516101079190610cbb565b60405180910390f35b6101186102fa565b6040516101259190610c8a565b60405180910390f35b610136610352565b6040516101439190610cbb565b60405180910390f35b61016660048036038101906101619190610d11565b61036f565b6040516101739190610d5a565b60405180910390f35b610184610425565b6040516101919190610cbb565b60405180910390f35b6101a261044d565b6040516101af9190610cbb565b60405180910390f35b6101c061046a565b6040516101cd9190610cbb565b60405180910390f35b6101de610492565b6040516101eb9190610cbb565b60405180910390f35b6101fc6104b6565b6040516102099190610d5a565b60405180910390f35b61021a6104bb565b6040516102279190610cbb565b60405180910390f35b6102386104d9565b6040516102459190610cbb565b60405180910390f35b61026860048036038101906102639190610e6a565b6104f7565b6040516102759190610cbb565b60405180910390f35b606060008054806020026020016040519081016040528092919081815260200182805480156102cc57602002820191906000526020600020905b8154815260200190600101908083116102b8575b5050505050905090565b7f000000000000000000000000000000000000000000000000000000000000000081565b6060600180548060200260200160405190810160405280929190818152602001828054801561034857602002820191906000526020600020905b815481526020019060010190808311610334575b5050505050905090565b6b033b2e3c9fd0803ce800000061271061036c9190610ec6565b81565b60006b033b2e3c9fd0803ce800000061271061038b9190610ec6565b82101561039b5760009050610420565b6b033b2e3c9fd0803ce800000061c3506103b59190610ec6565b8210156103c55760019050610420565b6b033b2e3c9fd0803ce80000006207a1206103e09190610ec6565b8210156103f05760029050610420565b6b033b2e3c9fd0803ce8000000620f424061040b9190610ec6565b82101561041b5760039050610420565b600490505b919050565b60007f0000000000000000000000000000000000000000000000000000000000000000905090565b6b033b2e3c9fd0803ce800000061c3506104679190610ec6565b81565b60007f0000000000000000000000000000000000000000000000000000000000000000905090565b7f000000000000000000000000000000000000000000000000000000000000000081565b600681565b6b033b2e3c9fd0803ce8000000620f42406104d69190610ec6565b81565b6b033b2e3c9fd0803ce80000006207a1206104f49190610ec6565b81565b6000610501610b6c565b82602001518160200181815250507f0000000000000000000000000000000000000000000000000000000000000000816040018181525050610546836040015161036f565b60ff168160e001818152505060008160e001518154811061056a57610569610f08565b5b90600052602060002001548160a001818152505060018160e001518154811061059657610595610f08565b5b90600052602060002001548160c00181815250506106096040518060400160405280601381526020017f4f5054494d414c5f55534147455f524154494f000000000000000000000000008152507f00000000000000000000000000000000000000000000000000000000000000006109aa565b6106686040518060400160405280600681526020017f5f726174653000000000000000000000000000000000000000000000000000008152507f00000000000000000000000000000000000000000000000000000000000000006109aa565b6106ab6040518060400160405280600581526020017f696e6465780000000000000000000000000000000000000000000000000000008152508260e001516109aa565b6106ee6040518060400160405280600a81526020017f72617465536c6f706531000000000000000000000000000000000000000000008152508260a001516109aa565b6107316040518060400160405280600a81526020017f72617465536c6f706532000000000000000000000000000000000000000000008152508260c001516109aa565b60008160200151146107d05782600001518160000181815250508060200151816000015161075f9190610f37565b816080018181525050610783816080015182602001516109f590919063ffffffff16565b8160600181815250506107cf6040518060400160405280601081526020017f626f72726f775573616765526174696f0000000000000000000000000000000081525082606001516109aa565b5b7f0000000000000000000000000000000000000000000000000000000000000000816060015111156108f45761085e7f00000000000000000000000000000000000000000000000000000000000000007f000000000000000000000000000000000000000000000000000000000000000083606001516108509190610f6b565b6109f590919063ffffffff16565b816101000181815250506108ac6040518060400160405280601681526020017f657863657373426f72726f775573616765526174696f000000000000000000008152508261010001516109aa565b6108c88161010001518260c00151610a3c90919063ffffffff16565b8160a001516108d79190610f37565b816040018181516108e89190610f37565b9150818152505061095a565b6109417f000000000000000000000000000000000000000000000000000000000000000061093383606001518460a00151610a3c90919063ffffffff16565b6109f590919063ffffffff16565b816040018181516109529190610f37565b915081815250505b61099d6040518060400160405280601181526020017f63757272656e74426f72726f775261746500000000000000000000000000000081525082604001516109aa565b8060400151915050919050565b60006109f1576109f06040518060400160405280600681526020017f2573202d257300000000000000000000000000000000000000000000000000008152508383610a87565b5b5050565b60006b033b2e3c9fd0803ce80000006002830460001903048311151582151715610a1e57600080fd5b81600283046b033b2e3c9fd0803ce800000085020104905092915050565b6000816b019d971e4fe8401e740000006000190304831115821517610a6057600080fd5b6b033b2e3c9fd0803ce80000006b019d971e4fe8401e740000008385020104905092915050565b610b21838383604051602401610a9f9392919061101e565b6040516020818303038152906040527f5821efa1000000000000000000000000000000000000000000000000000000007bffffffffffffffffffffffffffffffffffffffffffffffffffffffff19166020820180517bffffffffffffffffffffffffffffffffffffffffffffffffffffffff8381831617835250505050610b26565b505050565b610b3d81610b35610b40610b61565b63ffffffff16565b50565b60006a636f6e736f6c652e6c6f679050600080835160208501845afa505050565b610bb8819050919050565b6040518061012001604052806000815260200160008152602001600081526020016000815260200160008152602001600081526020016000815260200160008152602001600081525090565b610bc0611063565b565b600081519050919050565b600082825260208201905092915050565b6000819050602082019050919050565b6000819050919050565b610c0181610bee565b82525050565b6000610c138383610bf8565b60208301905092915050565b6000602082019050919050565b6000610c3782610bc2565b610c418185610bcd565b9350610c4c83610bde565b8060005b83811015610c7d578151610c648882610c07565b9750610c6f83610c1f565b925050600181019050610c50565b5085935050505092915050565b60006020820190508181036000830152610ca48184610c2c565b905092915050565b610cb581610bee565b82525050565b6000602082019050610cd06000830184610cac565b92915050565b6000604051905090565b600080fd5b610cee81610bee565b8114610cf957600080fd5b50565b600081359050610d0b81610ce5565b92915050565b600060208284031215610d2757610d26610ce0565b5b6000610d3584828501610cfc565b91505092915050565b600060ff82169050919050565b610d5481610d3e565b82525050565b6000602082019050610d6f6000830184610d4b565b92915050565b600080fd5b6000601f19601f8301169050919050565b7f4e487b7100000000000000000000000000000000000000000000000000000000600052604160045260246000fd5b610dc382610d7a565b810181811067ffffffffffffffff82111715610de257610de1610d8b565b5b80604052505050565b6000610df5610cd6565b9050610e018282610dba565b919050565b600060608284031215610e1c57610e1b610d75565b5b610e266060610deb565b90506000610e3684828501610cfc565b6000830152506020610e4a84828501610cfc565b6020830152506040610e5e84828501610cfc565b60408301525092915050565b600060608284031215610e8057610e7f610ce0565b5b6000610e8e84828501610e06565b91505092915050565b7f4e487b7100000000000000000000000000000000000000000000000000000000600052601160045260246000fd5b6000610ed182610bee565b9150610edc83610bee565b9250828202610eea81610bee565b91508282048414831517610f0157610f00610e97565b5b5092915050565b7f4e487b7100000000000000000000000000000000000000000000000000000000600052603260045260246000fd5b6000610f4282610bee565b9150610f4d83610bee565b9250828201905080821115610f6557610f64610e97565b5b92915050565b6000610f7682610bee565b9150610f8183610bee565b9250828203905081811115610f9957610f98610e97565b5b92915050565b600081519050919050565b600082825260208201905092915050565b60005b83811015610fd9578082015181840152602081019050610fbe565b60008484015250505050565b6000610ff082610f9f565b610ffa8185610faa565b935061100a818560208601610fbb565b61101381610d7a565b840191505092915050565b600060608201905081810360008301526110388186610fe5565b9050818103602083015261104c8185610fe5565b905061105b6040830184610cac565b949350505050565b7f4e487b7100000000000000000000000000000000000000000000000000000000600052605160045260246000fdfea2646970667358221220f7e26c2d64f1a7d313f7506dc61aaee2b44fe021b8597215b58ec77197919be764736f6c634300081c0033",
  "linkReferences": {},
  "deployedLinkReferences": {}
}