{
  "_format": "hh-sol-artifact-1",
  "contractName": "PoolConfigurationUtils",
  "sourceName": "contracts/pool/PoolConfigurationUtils.sol",
  "abi": [
    {
      "inputs": [],
      "name": "DEBT_CEILING_DECIMALS",
      "outputs": [
        {
          "internalType": "uint256",
          "name": "",
          "type": "uint256"
        }
      ],
      "stateMutability": "view",
      "type": "function"
    },
    {
      "inputs": [],
      "name": "MAX_POOLS_COUNT",
      "outputs": [
        {
          "internalType": "uint16",
          "name": "",
          "type": "uint16"
        }
      ],
      "stateMutability": "view",
      "type": "function"
    }
  ],
  "bytecode": "0x61011a610052600b82828239805160001a6073146045577f4e487b7100000000000000000000000000000000000000000000000000000000600052600060045260246000fd5b30600052607381538281f3fe7300000000000000000000000000000000000000003014608060405260043610603d5760003560e01c80631bbff814146042578063280d5de914605c575b600080fd5b60486076565b60405160539190609b565b60405180910390f35b6062607b565b604051606d919060cb565b60405180910390f35b608081565b600281565b600061ffff82169050919050565b6095816080565b82525050565b600060208201905060ae6000830184608e565b92915050565b6000819050919050565b60c58160b4565b82525050565b600060208201905060de600083018460be565b9291505056fea2646970667358221220d6aab2f83264f8f5b70c388964f35dfb0b41c3a181be5f91dddc290a0a69634c64736f6c634300081b0033",
  "linkReferences": {},
  "deployedLinkReferences": {}
}