{
  "_format": "hh-sol-artifact-1",
  "contractName": "RepayHandler",
  "sourceName": "contracts/exchange/RepayHandler.sol",
  "abi": [
    {
      "inputs": [
        {
          "internalType": "contract RoleStore",
          "name": "_roleStore",
          "type": "address"
        },
        {
          "internalType": "contract DataStore",
          "name": "_dataStore",
          "type": "address"
        },
        {
          "internalType": "contract EventEmitter",
          "name": "_eventEmitter",
          "type": "address"
        }
      ],
      "stateMutability": "nonpayable",
      "type": "constructor"
    },
    {
      "inputs": [
        {
          "internalType": "address",
          "name": "msgSender",
          "type": "address"
        },
        {
          "internalType": "string",
          "name": "role",
          "type": "string"
        }
      ],
      "name": "Unauthorized",
      "type": "error"
    },
    {
      "inputs": [],
      "name": "dataStore",
      "outputs": [
        {
          "internalType": "contract DataStore",
          "name": "",
          "type": "address"
        }
      ],
      "stateMutability": "view",
      "type": "function"
    },
    {
      "inputs": [],
      "name": "eventEmitter",
      "outputs": [
        {
          "internalType": "contract EventEmitter",
          "name": "",
          "type": "address"
        }
      ],
      "stateMutability": "view",
      "type": "function"
    },
    {
      "inputs": [
        {
          "internalType": "address",
          "name": "account",
          "type": "address"
        },
        {
          "components": [
            {
              "internalType": "uint256",
              "name": "positionId",
              "type": "uint256"
            },
            {
              "internalType": "uint8",
              "name": "tokenIndex",
              "type": "uint8"
            },
            {
              "internalType": "uint256",
              "name": "repayAmount",
              "type": "uint256"
            },
            {
              "internalType": "uint8",
              "name": "repayOption",
              "type": "uint8"
            }
          ],
          "internalType": "struct RepayUtils.RepayParams",
          "name": "repayParams",
          "type": "tuple"
        }
      ],
      "name": "executeRepay",
      "outputs": [],
      "stateMutability": "nonpayable",
      "type": "function"
    },
    {
      "inputs": [],
      "name": "roleStore",
      "outputs": [
        {
          "internalType": "contract RoleStore",
          "name": "",
          "type": "address"
        }
      ],
      "stateMutability": "view",
      "type": "function"
    }
  ],
  "bytecode": "0x60e060405234801561001057600080fd5b50604051610f72380380610f72833981810160405281019061003291906101cb565b82828073ffffffffffffffffffffffffffffffffffffffff1660808173ffffffffffffffffffffffffffffffffffffffff1681525050508073ffffffffffffffffffffffffffffffffffffffff1660a08173ffffffffffffffffffffffffffffffffffffffff1681525050508073ffffffffffffffffffffffffffffffffffffffff1660c08173ffffffffffffffffffffffffffffffffffffffff168152505050505061021e565b600080fd5b600073ffffffffffffffffffffffffffffffffffffffff82169050919050565b600061010a826100df565b9050919050565b600061011c826100ff565b9050919050565b61012c81610111565b811461013757600080fd5b50565b60008151905061014981610123565b92915050565b600061015a826100ff565b9050919050565b61016a8161014f565b811461017557600080fd5b50565b60008151905061018781610161565b92915050565b6000610198826100ff565b9050919050565b6101a88161018d565b81146101b357600080fd5b50565b6000815190506101c58161019f565b92915050565b6000806000606084860312156101e4576101e36100da565b5b60006101f28682870161013a565b935050602061020386828701610178565b9250506040610214868287016101b6565b9150509250925092565b60805160a05160c051610cfd610275600039600081816101c501526102c101526000818160c901526104b101526000818160ed01528181610189015281816102e7015281816103ea01526105940152610cfd6000f3fe608060405234801561001057600080fd5b506004361061004c5760003560e01c80634a4a7b0414610051578063660d0d671461006f57806397e318ac1461008d5780639ff78c30146100a9575b600080fd5b6100596100c7565b60405161006691906106d7565b60405180910390f35b6100776100eb565b6040516100849190610713565b60405180910390f35b6100a760048036038101906100a29190610795565b61010f565b005b6100b16102bf565b6040516100be91906107f6565b60405180910390f35b7f000000000000000000000000000000000000000000000000000000000000000081565b7f000000000000000000000000000000000000000000000000000000000000000081565b6101176102e3565b61017a6040516020016101299061086e565b604051602081830303815290604052805190602001206040518060400160405280600a81526020017f434f4e54524f4c4c4552000000000000000000000000000000000000000000008152506104af565b60006040518060c001604052807f000000000000000000000000000000000000000000000000000000000000000073ffffffffffffffffffffffffffffffffffffffff1681526020017f000000000000000000000000000000000000000000000000000000000000000073ffffffffffffffffffffffffffffffffffffffff1681526020018360000135815260200183602001602081019061021c91906108c7565b60ff1681526020018360400135815260200183606001602081019061024191906108c7565b60ff16815250905073__$df469ddb6634465290323e8231b2dc28e4$__6323536d6784836040518363ffffffff1660e01b81526004016102829291906109b5565b60006040518083038186803b15801561029a57600080fd5b505af41580156102ae573d6000803e3d6000fd5b50505050506102bb610592565b5050565b7f000000000000000000000000000000000000000000000000000000000000000081565b60007f000000000000000000000000000000000000000000000000000000000000000073ffffffffffffffffffffffffffffffffffffffff1663bd02d0f560405160200161033090610a2a565b604051602081830303815290604052805190602001206040518263ffffffff1660e01b81526004016103629190610a63565b602060405180830381865afa15801561037f573d6000803e3d6000fd5b505050506040513d601f19601f820116820180604052508101906103a39190610aaa565b9050600081146103e8576040517f08c379a00000000000000000000000000000000000000000000000000000000081526004016103df90610b23565b60405180910390fd5b7f000000000000000000000000000000000000000000000000000000000000000073ffffffffffffffffffffffffffffffffffffffff1663e2a4853a60405160200161043390610a2a565b6040516020818303038152906040528051906020012060016040518363ffffffff1660e01b8152600401610468929190610b52565b6020604051808303816000875af1158015610487573d6000803e3d6000fd5b505050506040513d601f19601f820116820180604052508101906104ab9190610aaa565b5050565b7f000000000000000000000000000000000000000000000000000000000000000073ffffffffffffffffffffffffffffffffffffffff1663ac4ab3fb33846040518363ffffffff1660e01b815260040161050a929190610b8a565b602060405180830381865afa158015610527573d6000803e3d6000fd5b505050506040513d601f19601f8201168201806040525081019061054b9190610beb565b61058e5733816040517fa35b150b000000000000000000000000000000000000000000000000000000008152600401610585929190610c97565b60405180910390fd5b5050565b7f000000000000000000000000000000000000000000000000000000000000000073ffffffffffffffffffffffffffffffffffffffff1663e2a4853a6040516020016105dd90610a2a565b6040516020818303038152906040528051906020012060006040518363ffffffff1660e01b8152600401610612929190610b52565b6020604051808303816000875af1158015610631573d6000803e3d6000fd5b505050506040513d601f19601f820116820180604052508101906106559190610aaa565b50565b600073ffffffffffffffffffffffffffffffffffffffff82169050919050565b6000819050919050565b600061069d61069861069384610658565b610678565b610658565b9050919050565b60006106af82610682565b9050919050565b60006106c1826106a4565b9050919050565b6106d1816106b6565b82525050565b60006020820190506106ec60008301846106c8565b92915050565b60006106fd826106a4565b9050919050565b61070d816106f2565b82525050565b60006020820190506107286000830184610704565b92915050565b600080fd5b600061073e82610658565b9050919050565b61074e81610733565b811461075957600080fd5b50565b60008135905061076b81610745565b92915050565b600080fd5b60006080828403121561078c5761078b610771565b5b81905092915050565b60008060a083850312156107ac576107ab61072e565b5b60006107ba8582860161075c565b92505060206107cb85828601610776565b9150509250929050565b60006107e0826106a4565b9050919050565b6107f0816107d5565b82525050565b600060208201905061080b60008301846107e7565b92915050565b600082825260208201905092915050565b7f434f4e54524f4c4c455200000000000000000000000000000000000000000000600082015250565b6000610858600a83610811565b915061086382610822565b602082019050919050565b600060208201905081810360008301526108878161084b565b9050919050565b600060ff82169050919050565b6108a48161088e565b81146108af57600080fd5b50565b6000813590506108c18161089b565b92915050565b6000602082840312156108dd576108dc61072e565b5b60006108eb848285016108b2565b91505092915050565b6108fd81610733565b82525050565b61090c81610733565b82525050565b6000819050919050565b61092581610912565b82525050565b6109348161088e565b82525050565b60c0820160008201516109506000850182610903565b5060208201516109636020850182610903565b506040820151610976604085018261091c565b506060820151610989606085018261092b565b50608082015161099c608085018261091c565b5060a08201516109af60a085018261092b565b50505050565b600060e0820190506109ca60008301856108f4565b6109d7602083018461093a565b9392505050565b7f5245454e5452414e43595f47554152445f535441545553000000000000000000600082015250565b6000610a14601783610811565b9150610a1f826109de565b602082019050919050565b60006020820190508181036000830152610a4381610a07565b9050919050565b6000819050919050565b610a5d81610a4a565b82525050565b6000602082019050610a786000830184610a54565b92915050565b610a8781610912565b8114610a9257600080fd5b50565b600081519050610aa481610a7e565b92915050565b600060208284031215610ac057610abf61072e565b5b6000610ace84828501610a95565b91505092915050565b7f5265656e7472616e637947756172643a207265656e7472616e742063616c6c00600082015250565b6000610b0d601f83610811565b9150610b1882610ad7565b602082019050919050565b60006020820190508181036000830152610b3c81610b00565b9050919050565b610b4c81610912565b82525050565b6000604082019050610b676000830185610a54565b610b746020830184610b43565b9392505050565b610b8481610733565b82525050565b6000604082019050610b9f6000830185610b7b565b610bac6020830184610a54565b9392505050565b60008115159050919050565b610bc881610bb3565b8114610bd357600080fd5b50565b600081519050610be581610bbf565b92915050565b600060208284031215610c0157610c0061072e565b5b6000610c0f84828501610bd6565b91505092915050565b600081519050919050565b60005b83811015610c41578082015181840152602081019050610c26565b60008484015250505050565b6000601f19601f8301169050919050565b6000610c6982610c18565b610c738185610811565b9350610c83818560208601610c23565b610c8c81610c4d565b840191505092915050565b6000604082019050610cac6000830185610b7b565b8181036020830152610cbe8184610c5e565b9050939250505056fea264697066735822122029009d8136e47449fcd4c0e80795cbe07912ac45b6f79e3b318164124e9cd45464736f6c634300081b0033",
  "linkReferences": {
    "contracts/repay/RepayUtils.sol": {
      "RepayUtils": [
        {
          "length": 20,
          "start": 1216
        }
      ]
    }
  },
  "deployedLinkReferences": {
    "contracts/repay/RepayUtils.sol": {
      "RepayUtils": [
        {
          "length": 20,
          "start": 587
        }
      ]
    }
  }
}