{
  "_format": "hh-sol-artifact-1",
  "contractName": "RepayHandler",
  "sourceName": "contracts/exchange/RepayHandler.sol",
  "abi": [
    {
      "inputs": [
        {
          "internalType": "contract RoleStore",
          "name": "_roleStore",
          "type": "address"
        },
        {
          "internalType": "contract DataStore",
          "name": "_dataStore",
          "type": "address"
        },
        {
          "internalType": "contract EventEmitter",
          "name": "_eventEmitter",
          "type": "address"
        }
      ],
      "stateMutability": "nonpayable",
      "type": "constructor"
    },
    {
      "inputs": [
        {
          "internalType": "address",
          "name": "accountInPosition",
          "type": "address"
        },
        {
          "internalType": "address",
          "name": "account",
          "type": "address"
        }
      ],
      "name": "AccountNotMatch",
      "type": "error"
    },
    {
      "inputs": [
        {
          "internalType": "bytes32",
          "name": "key",
          "type": "bytes32"
        }
      ],
      "name": "EmptyPool",
      "type": "error"
    },
    {
      "inputs": [],
      "name": "EmptyPosition",
      "type": "error"
    },
    {
      "inputs": [],
      "name": "EmptyRepayAmounts",
      "type": "error"
    },
    {
      "inputs": [
        {
          "internalType": "uint256",
          "name": "repayAmount",
          "type": "uint256"
        },
        {
          "internalType": "uint256",
          "name": "collateralAmount",
          "type": "uint256"
        }
      ],
      "name": "InsufficientCollateralAmountForRepay",
      "type": "error"
    },
    {
      "inputs": [],
      "name": "MathOverflowedMulDiv",
      "type": "error"
    },
    {
      "inputs": [
        {
          "internalType": "address",
          "name": "msgSender",
          "type": "address"
        },
        {
          "internalType": "string",
          "name": "role",
          "type": "string"
        }
      ],
      "name": "Unauthorized",
      "type": "error"
    },
    {
      "inputs": [
        {
          "internalType": "address",
          "name": "account",
          "type": "address"
        },
        {
          "internalType": "bytes32",
          "name": "positionKey",
          "type": "bytes32"
        }
      ],
      "name": "UserDoNotHaveDebtInPosition",
      "type": "error"
    },
    {
      "inputs": [],
      "name": "dataStore",
      "outputs": [
        {
          "internalType": "contract DataStore",
          "name": "",
          "type": "address"
        }
      ],
      "stateMutability": "view",
      "type": "function"
    },
    {
      "inputs": [],
      "name": "eventEmitter",
      "outputs": [
        {
          "internalType": "contract EventEmitter",
          "name": "",
          "type": "address"
        }
      ],
      "stateMutability": "view",
      "type": "function"
    },
    {
      "inputs": [
        {
          "internalType": "address",
          "name": "account",
          "type": "address"
        },
        {
          "components": [
            {
              "internalType": "uint256",
              "name": "positionId",
              "type": "uint256"
            },
            {
              "internalType": "uint8",
              "name": "tokenIndex",
              "type": "uint8"
            },
            {
              "internalType": "uint256",
              "name": "repayAmount",
              "type": "uint256"
            },
            {
              "internalType": "uint8",
              "name": "repayOption",
              "type": "uint8"
            }
          ],
          "internalType": "struct RepayUtils.RepayParams",
          "name": "repayParams",
          "type": "tuple"
        }
      ],
      "name": "executeRepay",
      "outputs": [],
      "stateMutability": "nonpayable",
      "type": "function"
    },
    {
      "inputs": [],
      "name": "roleStore",
      "outputs": [
        {
          "internalType": "contract RoleStore",
          "name": "",
          "type": "address"
        }
      ],
      "stateMutability": "view",
      "type": "function"
    }
  ],
  "bytecode": "0x60e060405234801561001057600080fd5b506040516137e73803806137e7833981810160405281019061003291906101cb565b82828073ffffffffffffffffffffffffffffffffffffffff1660808173ffffffffffffffffffffffffffffffffffffffff1681525050508073ffffffffffffffffffffffffffffffffffffffff1660a08173ffffffffffffffffffffffffffffffffffffffff1681525050508073ffffffffffffffffffffffffffffffffffffffff1660c08173ffffffffffffffffffffffffffffffffffffffff168152505050505061021e565b600080fd5b600073ffffffffffffffffffffffffffffffffffffffff82169050919050565b600061010a826100df565b9050919050565b600061011c826100ff565b9050919050565b61012c81610111565b811461013757600080fd5b50565b60008151905061014981610123565b92915050565b600061015a826100ff565b9050919050565b61016a8161014f565b811461017557600080fd5b50565b60008151905061018781610161565b92915050565b6000610198826100ff565b9050919050565b6101a88161018d565b81146101b357600080fd5b50565b6000815190506101c58161019f565b92915050565b6000806000606084860312156101e4576101e36100da565b5b60006101f28682870161013a565b935050602061020386828701610178565b9250506040610214868287016101b6565b9150509250925092565b60805160a05160c051613572610275600039600081816101c5015261026201526000818160c9015261045201526000818160ed01528181610189015281816102880152818161038b015261092701526135726000f3fe608060405234801561001057600080fd5b506004361061004c5760003560e01c80634a4a7b0414610051578063660d0d671461006f57806397e318ac1461008d5780639ff78c30146100a9575b600080fd5b6100596100c7565b60405161006691906120f7565b60405180910390f35b6100776100eb565b6040516100849190612133565b60405180910390f35b6100a760048036038101906100a291906121bf565b61010f565b005b6100b1610260565b6040516100be9190612220565b60405180910390f35b7f000000000000000000000000000000000000000000000000000000000000000081565b7f000000000000000000000000000000000000000000000000000000000000000081565b610117610284565b61017a60405160200161012990612298565b604051602081830303815290604052805190602001206040518060400160405280600a81526020017f434f4e54524f4c4c455200000000000000000000000000000000000000000000815250610450565b60006040518060c001604052807f000000000000000000000000000000000000000000000000000000000000000073ffffffffffffffffffffffffffffffffffffffff1681526020017f000000000000000000000000000000000000000000000000000000000000000073ffffffffffffffffffffffffffffffffffffffff1681526020018360000135815260200183602001602081019061021c91906122f1565b60ff1681526020018360400135815260200183606001602081019061024191906122f1565b60ff1681525090506102538382610533565b5061025c610925565b5050565b7f000000000000000000000000000000000000000000000000000000000000000081565b60007f000000000000000000000000000000000000000000000000000000000000000073ffffffffffffffffffffffffffffffffffffffff1663bd02d0f56040516020016102d19061236a565b604051602081830303815290604052805190602001206040518263ffffffff1660e01b815260040161030391906123a3565b602060405180830381865afa158015610320573d6000803e3d6000fd5b505050506040513d601f19601f8201168201806040525081019061034491906123f4565b905060008114610389576040517f08c379a00000000000000000000000000000000000000000000000000000000081526004016103809061246d565b60405180910390fd5b7f000000000000000000000000000000000000000000000000000000000000000073ffffffffffffffffffffffffffffffffffffffff1663e2a4853a6040516020016103d49061236a565b6040516020818303038152906040528051906020012060016040518363ffffffff1660e01b815260040161040992919061249c565b6020604051808303816000875af1158015610428573d6000803e3d6000fd5b505050506040513d601f19601f8201168201806040525081019061044c91906123f4565b5050565b7f000000000000000000000000000000000000000000000000000000000000000073ffffffffffffffffffffffffffffffffffffffff1663ac4ab3fb33846040518363ffffffff1660e01b81526004016104ab9291906124d4565b602060405180830381865afa1580156104c8573d6000803e3d6000fd5b505050506040513d601f19601f820116820180604052508101906104ec9190612535565b61052f5733816040517fa35b150b0000000000000000000000000000000000000000000000000000000081526004016105269291906125e1565b60405180910390fd5b5050565b61053b611e20565b61054e83836000015184604001516109eb565b82604001836060018281525082905250506105bc8260000151826040015160000151600060ff166002811061058657610585612611565b5b602002015160000151836040015160000151600160ff16600281106105ae576105ad612611565b5b602002015160000151610a0c565b826000018360200182815250829052505081608001518160800181815250506105f2816000015182604001518460600151610ac5565b8260e001836101000182815250828152505050600060ff168260a0015160ff1603610627578061010001518160800181815250505b61064f8382600001518360400151846060015185608001518661010001518760e00151610b73565b600160ff16826060015160ff16036106b55761066e8160000151610c44565b816101200181815250506106b4816040015160000151836060015160ff166002811061069d5761069c612611565b5b602002015182610120015183608001516000610d14565b5b6106f681600001518260400151846060015184608001516106d590612679565b85608001516106e390612679565b600060ff168860a0015160ff1614610ea0565b73__$3d31b232fb363902662fbc281b11ab3357$__6370b5270e8360000151836060015184604001516040518463ffffffff1660e01b815260040161073d93929190612881565b60006040518083038186803b15801561075557600080fd5b505af4158015610769573d6000803e3d6000fd5b5050505061077f82602001518260000151611175565b73__$e0022d6f389ac14ff1ce1dc57a4018d0a3$__63be6afc398360000151836020015184600001516040518463ffffffff1660e01b81526004016107c693929190612a50565b60006040518083038186803b1580156107de57600080fd5b505af41580156107f2573d6000803e3d6000fd5b50505050610920826020015184836040015160000151600060ff166002811061081e5761081d612611565b5b602002015160000151846040015160000151600160ff166002811061084657610845612611565b5b60200201516000015186604001518760600151886080015160405180608001604052808a6040015160000151600060ff166002811061088857610887612611565b5b60200201516020015181526020018a6040015160000151600060ff16600281106108b5576108b4612611565b5b60200201516040015181526020018a6040015160000151600160ff16600281106108e2576108e1612611565b5b60200201516020015181526020018a6040015160000151600160ff166002811061090f5761090e612611565b5b602002015160400151815250611362565b505050565b7f000000000000000000000000000000000000000000000000000000000000000073ffffffffffffffffffffffffffffffffffffffff1663e2a4853a6040516020016109709061236a565b6040516020818303038152906040528051906020012060006040518363ffffffff1660e01b81526004016109a592919061249c565b6020604051808303816000875af11580156109c4573d6000803e3d6000fd5b505050506040513d601f19601f820116820180604052508101906109e891906123f4565b50565b6109f3611eb1565b6000610a008585856113e3565b91509150935093915050565b610a14611eee565b600080610a218585611493565b9050600073__$e0022d6f389ac14ff1ce1dc57a4018d0a3$__637b82d74e88846040518363ffffffff1660e01b8152600401610a5e929190612a88565b61024060405180830381865af4158015610a7c573d6000803e3d6000fd5b505050506040513d601f19601f82011682018060405250810190610aa09190612d46565b9050610aac8183611531565b610ab5816115aa565b8082935093505050935093915050565b600080600084600001518460ff1660028110610ae457610ae3612611565b5b60200201516040015190506000610b1d87600001518660ff1660028110610b0e57610b0d612611565b5b60200201518860800151611756565b905060008214610b3f57610b3a81836117a590919063ffffffff16565b610b42565b60005b925085600001518560ff1660028110610b5e57610b5d612611565b5b60200201516020015193505050935093915050565b60008203610bba5786846040517f31439e89000000000000000000000000000000000000000000000000000000008152600401610bb19291906124d4565b60405180910390fd5b60008303610bf4576040517fc6d7c04d00000000000000000000000000000000000000000000000000000000815260040160405180910390fd5b82811015610c3b5782816040517f86c4ec21000000000000000000000000000000000000000000000000000000008152600401610c32929190612d74565b60405180910390fd5b50505050505050565b600080610c53836000806117f0565b50505090506000610c6784600160006117f0565b505050905060008103610c7f57600092505050610d0f565b6000610c90856060015160006118c4565b90506000610ca3866060015160016118c4565b90506000610cca856b033b2e3c9fd0803ce800000085600a610cc59190612ed0565b611937565b90506000610cf1856b033b2e3c9fd0803ce800000085600a610cec9190612ed0565b611937565b9050610d068183611a3e90919063ffffffff16565b96505050505050505b919050565b600260ff168460e0015103610d4a57600160ff168460e0018181525050818460a001818152505082846060018181525050610e9a565b600160ff168460e0015103610de15760008460a001519050828560a001818151610d749190612f1b565b915081815250508115610ddb576000610d9684866117a590919063ffffffff16565b610dad8388606001516117a590919063ffffffff16565b610db79190612f1b565b9050610dd08660a0015182611a3e90919063ffffffff16565b866060018181525050505b50610e99565b600060ff168460e0015103610e9857818460c001511115610e1a57818460c001818151610e0e9190612f4f565b91508181525050610e97565b818460c0015103610e4e57600260ff168460e001818152505060008460c00181815250506000846080018181525050610e96565b600160ff168460e00181815250508360c0015182610e6c9190612f4f565b8460a00181815250508284606001818152505060008460c001818152505060008460800181815250505b5b5b5b5b50505050565b6000610eab84611a85565b905060008412610f28578086600001518660ff1660028110610ed057610ecf612611565b5b6020020151602001818151610ee59190612f1b565b915081815250508087600001518660ff1660028110610f0757610f06612611565b5b6020020151606001818151610f1c9190612f1b565b91508181525050610f97565b8086600001518660ff1660028110610f4357610f42612611565b5b6020020151602001818151610f589190612f4f565b915081815250508087600001518660ff1660028110610f7a57610f79612611565b5b6020020151606001818151610f8f9190612f4f565b915081815250505b811561102b57600086600001518660ff1660028110610fb957610fb8612611565b5b60200201516040015190508088600001518760ff1660028110610fdf57610fde612611565b5b602002015160a001818151610ff49190612f4f565b91508181525050600087600001518760ff166002811061101757611016612611565b5b60200201516040018181525050505061116d565b60008303611039575061116d565b600061104484611a85565b9050600061107d89600001518860ff166002811061106557611064612611565b5b60200201516020015183611a3e90919063ffffffff16565b9050600085126110fa578088600001518860ff16600281106110a2576110a1612611565b5b60200201516040018181516110b79190612f1b565b915081815250508089600001518860ff16600281106110d9576110d8612611565b5b602002015160a0018181516110ee9190612f1b565b91508181525050611169565b8088600001518860ff166002811061111557611114612611565b5b602002015160400181815161112a9190612f4f565b915081815250508089600001518860ff166002811061114c5761114b612611565b5b602002015160a0018181516111619190612f4f565b915081815250505b5050505b505050505050565b61117d611f4f565b611188826000611aa1565b8260000183602001828152508281525050508060000151816040018181525050816040015173ffffffffffffffffffffffffffffffffffffffff1663fdd63ecf6040518060600160405280846000015181526020018460200151815260200184604001518152506040518263ffffffff1660e01b815260040161120b9190612fd4565b602060405180830381865afa158015611228573d6000803e3d6000fd5b505050506040513d601f19601f8201168201806040525081019061124c91906123f4565b8260000151600060ff166002811061126757611266612611565b5b6020020151604001818152505061127f826001611aa1565b826000018360200182815250828152505050816040015173ffffffffffffffffffffffffffffffffffffffff1663fdd63ecf6040518060600160405280846000015181526020018460200151815260200184604001518152506040518263ffffffff1660e01b81526004016112f49190612fd4565b602060405180830381865afa158015611311573d6000803e3d6000fd5b505050506040513d601f19601f8201168201806040525081019061133591906123f4565b8260000151600160ff16600281106113505761134f612611565b5b60200201516040018181525050505050565b8773ffffffffffffffffffffffffffffffffffffffff16638262009e888888888888886040518863ffffffff1660e01b81526004016113a79796959493929190613053565b600060405180830381600087803b1580156113c157600080fd5b505af11580156113d5573d6000803e3d6000fd5b505050505050505050505050565b6113eb611eb1565b6000806113f88685611af1565b9050600073__$3d31b232fb363902662fbc281b11ab3357$__637b82d74e87846040518363ffffffff1660e01b8152600401611435929190612a88565b61024060405180830381865af4158015611453573d6000803e3d6000fd5b505050506040513d601f19601f8201168201806040525081019061147791906132a7565b90506114838782611b4a565b8082935093505050935093915050565b60008173ffffffffffffffffffffffffffffffffffffffff168373ffffffffffffffffffffffffffffffffffffffff16106114cf5781836114d2565b82825b80935081945050506040516020016114e990613321565b60405160208183030381529060405280519060200120838360405160200161151393929190613341565b60405160208183030381529060405280519060200120905092915050565b600073ffffffffffffffffffffffffffffffffffffffff16826020015173ffffffffffffffffffffffffffffffffffffffff16036115a657806040517f7357d91f00000000000000000000000000000000000000000000000000000000815260040161159d91906123a3565b60405180910390fd5b5050565b60006115b4611c32565b9050808260800151036115c75750611753565b60008260000151600060ff16600281106115e4576115e3612611565b5b602002015160a00151146116875760006116258360000151600060ff166002811061161257611611612611565b5b6020020151604001518460800151611c3a565b905061165d818460000151600060ff166002811061164657611645612611565b5b6020020151602001516117a590919063ffffffff16565b8360000151600060ff166002811061167857611677612611565b5b60200201516020018181525050505b60008260000151600160ff16600281106116a4576116a3612611565b5b602002015160a00151146117475760006116e58360000151600160ff16600281106116d2576116d1612611565b5b6020020151604001518460800151611c3a565b905061171d818460000151600160ff166002811061170657611705612611565b5b6020020151602001516117a590919063ffffffff16565b8360000151600160ff166002811061173857611737612611565b5b60200201516020018181525050505b80826080018181525050505b50565b6000611760611c32565b8203611772578260200151905061179f565b6000611782846040015184611c3a565b905061179b8460200151826117a590919063ffffffff16565b9150505b92915050565b6000816b019d971e4fe8401e7400000060001903048311158215176117c957600080fd5b6b033b2e3c9fd0803ce80000006b019d971e4fe8401e740000008385020104905092915050565b600080600080600087600001518760ff166002811061181257611811612611565b5b6020020151905060006118258989611c95565b90506000810361184457600080600080955095509550955050506118bb565b6000611854838b60800151611d82565b9050600061186b89846117a590919063ffffffff16565b90506000808a1461188e576118898383611dc790919063ffffffff16565b611891565b60005b9050828461189f9190612f1b565b8484866118ac9190612f4f565b83985098509850985050505050505b93509350935093565b6000807fffffffffffffffffffffffffffffffffffffffff00ffffffffffffffffffffff9050600060589050600160ff168460ff1603611926577fffffffffffffffffffffffffffffffffffffff00ffffffffffffffffffffffff9150606090505b8082198616901c9250505092915050565b60008083850290506000801985870982811083820303915050600081036119725783828161196857611967613378565b5b0492505050611a37565b8084116119ab576040517f227bc15300000000000000000000000000000000000000000000000000000000815260040160405180910390fd5b600084868809905082811182039150808303925060008560000386169050808604955080840493506001818260000304019050808302841793506000600287600302189050808702600203810290508087026002038102905080870260020381029050808702600203810290508087026002038102905080870260020381029050808502955050505050505b9392505050565b60006b033b2e3c9fd0803ce80000006002830460001903048311151582151715611a6757600080fd5b81600283046b033b2e3c9fd0803ce800000085020104905092915050565b600080821215611a985781600003611a9a565b815b9050919050565b6000806000611ad285600001518560ff1660028110611ac357611ac2612611565b5b60200201518660800151611d82565b90506000611ae08686611c95565b905080829350935050509250929050565b6000604051602001611b02906133f3565b604051602081830303815290604052805190602001208383604051602001611b2c93929190613413565b60405160208183030381529060405280519060200120905092915050565b600073ffffffffffffffffffffffffffffffffffffffff16816040015173ffffffffffffffffffffffffffffffffffffffff1603611bb4576040517f4dfbbff300000000000000000000000000000000000000000000000000000000815260040160405180910390fd5b806040015173ffffffffffffffffffffffffffffffffffffffff168273ffffffffffffffffffffffffffffffffffffffff1614611c2e578060400151826040517f25c7157e000000000000000000000000000000000000000000000000000000008152600401611c2592919061344a565b60405180910390fd5b5050565b600042905090565b60008082611c46611c32565b611c509190612f4f565b84611c5b9190613473565b90506301e133808181611c7157611c70613378565b5b049050806b033b2e3c9fd0803ce8000000611c8c9190612f1b565b91505092915050565b60008083600001518360ff1660028110611cb257611cb1612611565b5b602002015190506000846020015173ffffffffffffffffffffffffffffffffffffffff1663e42c08f283600001516040518263ffffffff1660e01b8152600401611cfc91906134b5565b602060405180830381865afa158015611d19573d6000803e3d6000fd5b505050506040513d601f19601f82011682018060405250810190611d3d91906123f4565b905060008103611d5257600092505050611d7c565b6000826060015190508260c001518183611d6c9190612f4f565b611d769190612f4f565b93505050505b92915050565b6000808360a0015103611d985760009050611dc1565b6000611da48484611756565b9050611dbd818560a001516117a590919063ffffffff16565b9150505b92915050565b6000828284611dd69190612f4f565b9150811115611e1a576040517f08c379a0000000000000000000000000000000000000000000000000000000008152600401611e119061351c565b60405180910390fd5b92915050565b604051806101400160405280611e34611eee565b815260200160008019168152602001611e4b611eb1565b81526020016000801916815260200160008152602001600073ffffffffffffffffffffffffffffffffffffffff168152602001600073ffffffffffffffffffffffffffffffffffffffff1681526020016000815260200160008152602001600081525090565b6040518060600160405280611ec4611f70565b815260200160008152602001600073ffffffffffffffffffffffffffffffffffffffff1681525090565b6040518060a00160405280611f01611f9d565b8152602001600073ffffffffffffffffffffffffffffffffffffffff168152602001600073ffffffffffffffffffffffffffffffffffffffff16815260200160008152602001600081525090565b60405180606001604052806000815260200160008152602001600081525090565b60405180604001604052806002905b611f87611fca565b815260200190600190039081611f7f5790505090565b60405180604001604052806002905b611fb4612025565b815260200190600190039081611fac5790505090565b604051806101000160405280600073ffffffffffffffffffffffffffffffffffffffff168152602001600081526020016000815260200160008152602001600081526020016000815260200160008152602001600081525090565b6040518060e00160405280600073ffffffffffffffffffffffffffffffffffffffff1681526020016000815260200160008152602001600081526020016000815260200160008152602001600081525090565b600073ffffffffffffffffffffffffffffffffffffffff82169050919050565b6000819050919050565b60006120bd6120b86120b384612078565b612098565b612078565b9050919050565b60006120cf826120a2565b9050919050565b60006120e1826120c4565b9050919050565b6120f1816120d6565b82525050565b600060208201905061210c60008301846120e8565b92915050565b600061211d826120c4565b9050919050565b61212d81612112565b82525050565b60006020820190506121486000830184612124565b92915050565b6000604051905090565b600080fd5b600061216882612078565b9050919050565b6121788161215d565b811461218357600080fd5b50565b6000813590506121958161216f565b92915050565b600080fd5b6000608082840312156121b6576121b561219b565b5b81905092915050565b60008060a083850312156121d6576121d5612158565b5b60006121e485828601612186565b92505060206121f5858286016121a0565b9150509250929050565b600061220a826120c4565b9050919050565b61221a816121ff565b82525050565b60006020820190506122356000830184612211565b92915050565b600082825260208201905092915050565b7f434f4e54524f4c4c455200000000000000000000000000000000000000000000600082015250565b6000612282600a8361223b565b915061228d8261224c565b602082019050919050565b600060208201905081810360008301526122b181612275565b9050919050565b600060ff82169050919050565b6122ce816122b8565b81146122d957600080fd5b50565b6000813590506122eb816122c5565b92915050565b60006020828403121561230757612306612158565b5b6000612315848285016122dc565b91505092915050565b7f5245454e5452414e43595f47554152445f535441545553000000000000000000600082015250565b600061235460178361223b565b915061235f8261231e565b602082019050919050565b6000602082019050818103600083015261238381612347565b9050919050565b6000819050919050565b61239d8161238a565b82525050565b60006020820190506123b86000830184612394565b92915050565b6000819050919050565b6123d1816123be565b81146123dc57600080fd5b50565b6000815190506123ee816123c8565b92915050565b60006020828403121561240a57612409612158565b5b6000612418848285016123df565b91505092915050565b7f5265656e7472616e637947756172643a207265656e7472616e742063616c6c00600082015250565b6000612457601f8361223b565b915061246282612421565b602082019050919050565b600060208201905081810360008301526124868161244a565b9050919050565b612496816123be565b82525050565b60006040820190506124b16000830185612394565b6124be602083018461248d565b9392505050565b6124ce8161215d565b82525050565b60006040820190506124e960008301856124c5565b6124f66020830184612394565b9392505050565b60008115159050919050565b612512816124fd565b811461251d57600080fd5b50565b60008151905061252f81612509565b92915050565b60006020828403121561254b5761254a612158565b5b600061255984828501612520565b91505092915050565b600081519050919050565b60005b8381101561258b578082015181840152602081019050612570565b60008484015250505050565b6000601f19601f8301169050919050565b60006125b382612562565b6125bd818561223b565b93506125cd81856020860161256d565b6125d681612597565b840191505092915050565b60006040820190506125f660008301856124c5565b818103602083015261260881846125a8565b90509392505050565b7f4e487b7100000000000000000000000000000000000000000000000000000000600052603260045260246000fd5b6000819050919050565b7f4e487b7100000000000000000000000000000000000000000000000000000000600052601160045260246000fd5b600061268482612640565b91507f800000000000000000000000000000000000000000000000000000000000000082036126b6576126b561264a565b5b816000039050919050565b6126ca8161215d565b82525050565b6126d98161238a565b82525050565b600060029050919050565b600081905092915050565b6000819050919050565b6127088161215d565b82525050565b612717816123be565b82525050565b6101008201600082015161273460008501826126ff565b506020820151612747602085018261270e565b50604082015161275a604085018261270e565b50606082015161276d606085018261270e565b506080820151612780608085018261270e565b5060a082015161279360a085018261270e565b5060c08201516127a660c085018261270e565b5060e08201516127b960e085018261270e565b50505050565b60006127cb838361271d565b6101008301905092915050565b6000602082019050919050565b6127ee816126df565b6127f881846126ea565b9250612803826126f5565b8060005b8381101561283457815161281b87826127bf565b9650612826836127d8565b925050600181019050612807565b505050505050565b6102408201600082015161285360008501826127e5565b50602082015161286761020085018261270e565b50604082015161287b6102208501826126ff565b50505050565b60006102808201905061289760008301866126c1565b6128a460208301856126d0565b6128b1604083018461283c565b949350505050565b600060029050919050565b600081905092915050565b6000819050919050565b60e0820160008201516128ef60008501826126ff565b506020820151612902602085018261270e565b506040820151612915604085018261270e565b506060820151612928606085018261270e565b50608082015161293b608085018261270e565b5060a082015161294e60a085018261270e565b5060c082015161296160c085018261270e565b50505050565b600061297383836128d9565b60e08301905092915050565b6000602082019050919050565b612995816128b9565b61299f81846128c4565b92506129aa826128cf565b8060005b838110156129db5781516129c28782612967565b96506129cd8361297f565b9250506001810190506129ae565b505050505050565b610240820160008201516129fa600085018261298c565b506020820151612a0e6101c08501826126ff565b506040820151612a226101e08501826126ff565b506060820151612a3661020085018261270e565b506080820151612a4a61022085018261270e565b50505050565b600061028082019050612a6660008301866126c1565b612a7360208301856126d0565b612a8060408301846129e3565b949350505050565b6000604082019050612a9d60008301856126c1565b612aaa60208301846126d0565b9392505050565b600080fd5b7f4e487b7100000000000000000000000000000000000000000000000000000000600052604160045260246000fd5b612aee82612597565b810181811067ffffffffffffffff82111715612b0d57612b0c612ab6565b5b80604052505050565b6000612b2061214e565b9050612b2c8282612ae5565b919050565b600080fd5b600067ffffffffffffffff821115612b5157612b50612ab6565b5b602082029050919050565b600080fd5b600081519050612b708161216f565b92915050565b600060e08284031215612b8c57612b8b612ab1565b5b612b9660e0612b16565b90506000612ba684828501612b61565b6000830152506020612bba848285016123df565b6020830152506040612bce848285016123df565b6040830152506060612be2848285016123df565b6060830152506080612bf6848285016123df565b60808301525060a0612c0a848285016123df565b60a08301525060c0612c1e848285016123df565b60c08301525092915050565b6000612c3d612c3884612b36565b612b16565b90508060e08402830185811115612c5757612c56612b5c565b5b835b81811015612c805780612c6c8882612b76565b84526020840193505060e081019050612c59565b5050509392505050565b600082601f830112612c9f57612c9e612b31565b5b6002612cac848285612c2a565b91505092915050565b60006102408284031215612ccc57612ccb612ab1565b5b612cd660a0612b16565b90506000612ce684828501612c8a565b6000830152506101c0612cfb84828501612b61565b6020830152506101e0612d1084828501612b61565b604083015250610200612d25848285016123df565b606083015250610220612d3a848285016123df565b60808301525092915050565b60006102408284031215612d5d57612d5c612158565b5b6000612d6b84828501612cb5565b91505092915050565b6000604082019050612d89600083018561248d565b612d96602083018461248d565b9392505050565b60008160011c9050919050565b6000808291508390505b6001851115612df457808604811115612dd057612dcf61264a565b5b6001851615612ddf5780820291505b8081029050612ded85612d9d565b9450612db4565b94509492505050565b600082612e0d5760019050612ec9565b81612e1b5760009050612ec9565b8160018114612e315760028114612e3b57612e6a565b6001915050612ec9565b60ff841115612e4d57612e4c61264a565b5b8360020a915084821115612e6457612e6361264a565b5b50612ec9565b5060208310610133831016604e8410600b8410161715612e9f5782820a905083811115612e9a57612e9961264a565b5b612ec9565b612eac8484846001612daa565b92509050818404811115612ec357612ec261264a565b5b81810290505b9392505050565b6000612edb826123be565b9150612ee6836123be565b9250612f137fffffffffffffffffffffffffffffffffffffffffffffffffffffffffffffffff8484612dfd565b905092915050565b6000612f26826123be565b9150612f31836123be565b9250828201905080821115612f4957612f4861264a565b5b92915050565b6000612f5a826123be565b9150612f65836123be565b9250828203905081811115612f7d57612f7c61264a565b5b92915050565b612f8c816123be565b82525050565b606082016000820151612fa86000850182612f83565b506020820151612fbb6020850182612f83565b506040820151612fce6040850182612f83565b50505050565b6000606082019050612fe96000830184612f92565b92915050565b612ff8816122b8565b82525050565b6080820160008201516130146000850182612f83565b5060208201516130276020850182612f83565b50604082015161303a6040850182612f83565b50606082015161304d6060850182612f83565b50505050565b600061014082019050613069600083018a6124c5565b61307660208301896124c5565b61308360408301886124c5565b613090606083018761248d565b61309d6080830186612fef565b6130aa60a083018561248d565b6130b760c0830184612ffe565b98975050505050505050565b600067ffffffffffffffff8211156130de576130dd612ab6565b5b602082029050919050565b60006101008284031215613100576130ff612ab1565b5b61310b610100612b16565b9050600061311b84828501612b61565b600083015250602061312f848285016123df565b6020830152506040613143848285016123df565b6040830152506060613157848285016123df565b606083015250608061316b848285016123df565b60808301525060a061317f848285016123df565b60a08301525060c0613193848285016123df565b60c08301525060e06131a7848285016123df565b60e08301525092915050565b60006131c66131c1846130c3565b612b16565b90508061010084028301858111156131e1576131e0612b5c565b5b835b8181101561320b57806131f688826130e9565b845260208401935050610100810190506131e3565b5050509392505050565b600082601f83011261322a57613229612b31565b5b60026132378482856131b3565b91505092915050565b6000610240828403121561325757613256612ab1565b5b6132616060612b16565b9050600061327184828501613215565b600083015250610200613286848285016123df565b60208301525061022061329b84828501612b61565b60408301525092915050565b600061024082840312156132be576132bd612158565b5b60006132cc84828501613240565b91505092915050565b7f504f4f4c00000000000000000000000000000000000000000000000000000000600082015250565b600061330b60048361223b565b9150613316826132d5565b602082019050919050565b6000602082019050818103600083015261333a816132fe565b9050919050565b60006060820190506133566000830186612394565b61336360208301856124c5565b61337060408301846124c5565b949350505050565b7f4e487b7100000000000000000000000000000000000000000000000000000000600052601260045260246000fd5b7f504f534954494f4e000000000000000000000000000000000000000000000000600082015250565b60006133dd60088361223b565b91506133e8826133a7565b602082019050919050565b6000602082019050818103600083015261340c816133d0565b9050919050565b60006060820190506134286000830186612394565b61343560208301856124c5565b613442604083018461248d565b949350505050565b600060408201905061345f60008301856124c5565b61346c60208301846124c5565b9392505050565b600061347e826123be565b9150613489836123be565b9250828202613497816123be565b915082820484148315176134ae576134ad61264a565b5b5092915050565b60006020820190506134ca60008301846124c5565b92915050565b7f64732d6d6174682d7375622d756e646572666c6f770000000000000000000000600082015250565b600061350660158361223b565b9150613511826134d0565b602082019050919050565b60006020820190508181036000830152613535816134f9565b905091905056fea2646970667358221220e0e826fce75216e14af87a5d61be9234f4eb39bcb6ae325b3718b845149d863664736f6c634300081c0033",
  "linkReferences": {
    "contracts/pool/PoolStoreUtils.sol": {
      "PoolStoreUtils": [
        {
          "length": 20,
          "start": 2550
        },
        {
          "length": 20,
          "start": 3228
        }
      ]
    },
    "contracts/position/PositionStoreUtils.sol": {
      "PositionStoreUtils": [
        {
          "length": 20,
          "start": 2413
        },
        {
          "length": 20,
          "start": 5747
        }
      ]
    }
  },
  "deployedLinkReferences": {
    "contracts/pool/PoolStoreUtils.sol": {
      "PoolStoreUtils": [
        {
          "length": 20,
          "start": 1921
        },
        {
          "length": 20,
          "start": 2599
        }
      ]
    },
    "contracts/position/PositionStoreUtils.sol": {
      "PositionStoreUtils": [
        {
          "length": 20,
          "start": 1784
        },
        {
          "length": 20,
          "start": 5118
        }
      ]
    }
  }
}