{"contracts/interest/PoolInterestRateStrategy.sol":{"PoolInterestRateStrategy":{"abi":[{"inputs":[{"components":[{"internalType":"uint256","name":"optimalUsageRatio","type":"uint256"},{"internalType":"uint256","name":"rate0","type":"uint256"},{"internalType":"uint256[]","name":"rateSlope1","type":"uint256[]"},{"internalType":"uint256[]","name":"rateSlope2","type":"uint256[]"}],"internalType":"struct PoolInterestRateStrategy.InterestRateStrategyParams","name":"params","type":"tuple"}],"stateMutability":"nonpayable","type":"constructor"},{"inputs":[{"internalType":"uint256","name":"optimalUsageRatio","type":"uint256"}],"name":"InvalidOptimalUsageRate","type":"error"},{"inputs":[],"name":"BALANCE10000","outputs":[{"internalType":"uint256","name":"","type":"uint256"}],"stateMutability":"view","type":"function"},{"inputs":[],"name":"BALANCE1000000","outputs":[{"internalType":"uint256","name":"","type":"uint256"}],"stateMutability":"view","type":"function"},{"inputs":[],"name":"BALANCE50000","outputs":[{"internalType":"uint256","name":"","type":"uint256"}],"stateMutability":"view","type":"function"},{"inputs":[],"name":"BALANCE500000","outputs":[{"internalType":"uint256","name":"","type":"uint256"}],"stateMutability":"view","type":"function"},{"inputs":[],"name":"MAX_EXCESS_USAGE_RATIO","outputs":[{"internalType":"uint256","name":"","type":"uint256"}],"stateMutability":"view","type":"function"},{"inputs":[],"name":"OPTIMAL_USAGE_RATIO","outputs":[{"internalType":"uint256","name":"","type":"uint256"}],"stateMutability":"view","type":"function"},{"inputs":[],"name":"SLOPESIZE","outputs":[{"internalType":"uint8","name":"","type":"uint8"}],"stateMutability":"view","type":"function"},{"inputs":[{"components":[{"internalType":"uint256","name":"totalPoolBalance","type":"uint256"},{"internalType":"uint256","name":"totalDebt","type":"uint256"},{"internalType":"uint256","name":"totalPoolBalanceBase","type":"uint256"}],"internalType":"struct InterestUtils.CalculateInterestRatesParams","name":"params","type":"tuple"}],"name":"calculateInterestRates","outputs":[{"internalType":"uint256","name":"","type":"uint256"}],"stateMutability":"view","type":"function"},{"inputs":[],"name":"getOptimalUsageRatio","outputs":[{"internalType":"uint256","name":"","type":"uint256"}],"stateMutability":"view","type":"function"},{"inputs":[],"name":"getRateSlope1","outputs":[{"internalType":"uint256[]","name":"","type":"uint256[]"}],"stateMutability":"view","type":"function"},{"inputs":[],"name":"getRateSlope2","outputs":[{"internalType":"uint256[]","name":"","type":"uint256[]"}],"stateMutability":"view","type":"function"},{"inputs":[],"name":"getRatebase","outputs":[{"internalType":"uint256","name":"","type":"uint256"}],"stateMutability":"view","type":"function"},{"inputs":[{"internalType":"uint256","name":"balance","type":"uint256"}],"name":"getSlopeIndex","outputs":[{"internalType":"uint8","name":"","type":"uint8"}],"stateMutability":"view","type":"function"}],"evm":{"bytecode":{"linkReferences":{},"object":"60e060405234801561001057600080fd5b506040516116ac3803806116ac833981810160405281019061003291906103c9565b80600001516b033b2e3c9fd0803ce8000000101561008b5780600001516040517fb90df3f20000000000000000000000000000000000000000000000000000000081526004016100829190610421565b60405180910390fd5b80600001516080818152505080600001516b033b2e3c9fd0803ce80000006100b3919061046b565b60a08181525050806020015160c081815250508060400151600090805190602001906100e0929190610102565b508060600151600190805190602001906100fb929190610102565b505061049f565b82805482825590600052602060002090810192821561013e579160200282015b8281111561013d578251825591602001919060010190610122565b5b50905061014b919061014f565b5090565b5b80821115610168576000816000905550600101610150565b5090565b6000604051905090565b600080fd5b600080fd5b600080fd5b6000601f19601f8301169050919050565b7f4e487b7100000000000000000000000000000000000000000000000000000000600052604160045260246000fd5b6101ce82610185565b810181811067ffffffffffffffff821117156101ed576101ec610196565b5b80604052505050565b600061020061016c565b905061020c82826101c5565b919050565b600080fd5b6000819050919050565b61022981610216565b811461023457600080fd5b50565b60008151905061024681610220565b92915050565b600080fd5b600067ffffffffffffffff82111561026c5761026b610196565b5b602082029050602081019050919050565b600080fd5b600061029561029084610251565b6101f6565b905080838252602082019050602084028301858111156102b8576102b761027d565b5b835b818110156102e157806102cd8882610237565b8452602084019350506020810190506102ba565b5050509392505050565b600082601f830112610300576102ff61024c565b5b8151610310848260208601610282565b91505092915050565b60006080828403121561032f5761032e610180565b5b61033960806101f6565b9050600061034984828501610237565b600083015250602061035d84828501610237565b602083015250604082015167ffffffffffffffff81111561038157610380610211565b5b61038d848285016102eb565b604083015250606082015167ffffffffffffffff8111156103b1576103b0610211565b5b6103bd848285016102eb565b60608301525092915050565b6000602082840312156103df576103de610176565b5b600082015167ffffffffffffffff8111156103fd576103fc61017b565b5b61040984828501610319565b91505092915050565b61041b81610216565b82525050565b60006020820190506104366000830184610412565b92915050565b7f4e487b7100000000000000000000000000000000000000000000000000000000600052601160045260246000fd5b600061047682610216565b915061048183610216565b92508282039050818111156104995761049861043c565b5b92915050565b60805160a05160c0516111a66105066000396000818161042901528181610525015261072101526000818161049401526108de0152600081816102d80152818161046e015281816106c2015281816108af015281816108ff01526109de01526111a66000f3fe608060405234801561001057600080fd5b50600436106100cf5760003560e01c8063a3a9bc331161008c578063b1b0648511610066578063b1b06485146101f4578063d41a41ba14610212578063ed719cf814610230578063fdd63ecf1461024e576100cf565b8063a3a9bc331461019a578063a8602e86146101b8578063a9c622f8146101d6576100cf565b80632dd9037b146100d457806354c365c6146100f257806375005bb0146101105780637aa786151461012e5780638567992a1461014c57806387f0409d1461017c575b600080fd5b6100dc61027e565b6040516100e99190610d68565b60405180910390f35b6100fa6102d6565b6040516101079190610d99565b60405180910390f35b6101186102fa565b6040516101259190610d68565b60405180910390f35b610136610352565b6040516101439190610d99565b60405180910390f35b61016660048036038101906101619190610def565b61036f565b6040516101739190610e38565b60405180910390f35b610184610425565b6040516101919190610d99565b60405180910390f35b6101a261044d565b6040516101af9190610d99565b60405180910390f35b6101c061046a565b6040516101cd9190610d99565b60405180910390f35b6101de610492565b6040516101eb9190610d99565b60405180910390f35b6101fc6104b6565b6040516102099190610e38565b60405180910390f35b61021a6104bb565b6040516102279190610d99565b60405180910390f35b6102386104d9565b6040516102459190610d99565b60405180910390f35b61026860048036038101906102639190610f48565b6104f7565b6040516102759190610d99565b60405180910390f35b606060008054806020026020016040519081016040528092919081815260200182805480156102cc57602002820191906000526020600020905b8154815260200190600101908083116102b8575b5050505050905090565b7f000000000000000000000000000000000000000000000000000000000000000081565b6060600180548060200260200160405190810160405280929190818152602001828054801561034857602002820191906000526020600020905b815481526020019060010190808311610334575b5050505050905090565b6b033b2e3c9fd0803ce800000061271061036c9190610fa4565b81565b60006b033b2e3c9fd0803ce800000061271061038b9190610fa4565b82101561039b5760009050610420565b6b033b2e3c9fd0803ce800000061c3506103b59190610fa4565b8210156103c55760019050610420565b6b033b2e3c9fd0803ce80000006207a1206103e09190610fa4565b8210156103f05760029050610420565b6b033b2e3c9fd0803ce8000000620f424061040b9190610fa4565b82101561041b5760039050610420565b600490505b919050565b60007f0000000000000000000000000000000000000000000000000000000000000000905090565b6b033b2e3c9fd0803ce800000061c3506104679190610fa4565b81565b60007f0000000000000000000000000000000000000000000000000000000000000000905090565b7f000000000000000000000000000000000000000000000000000000000000000081565b600681565b6b033b2e3c9fd0803ce8000000620f42406104d69190610fa4565b81565b6b033b2e3c9fd0803ce80000006207a1206104f49190610fa4565b81565b60008082602001510361050d5760009050610a83565b610515610c4a565b82602001518160200181815250507f000000000000000000000000000000000000000000000000000000000000000081604001818152505061055a836040015161036f565b60ff168160e001818152505060008160e001518154811061057e5761057d610fe6565b5b90600052602060002001548160a001818152505060018160e00151815481106105aa576105a9610fe6565b5b90600052602060002001548160c00181815250506106016040518060400160405280601081526020017f746f74616c506f6f6c42616c616e6365000000000000000000000000000000008152508460000151610a88565b6106446040518060400160405280600981526020017f746f74616c4465627400000000000000000000000000000000000000000000008152508460200151610a88565b6106876040518060400160405280601481526020017f746f74616c506f6f6c42616c616e6365426173650000000000000000000000008152508460400151610a88565b6106e66040518060400160405280601381526020017f4f5054494d414c5f55534147455f524154494f000000000000000000000000008152507f0000000000000000000000000000000000000000000000000000000000000000610a88565b6107456040518060400160405280600681526020017f5f726174653000000000000000000000000000000000000000000000000000008152507f0000000000000000000000000000000000000000000000000000000000000000610a88565b6107886040518060400160405280600581526020017f696e6465780000000000000000000000000000000000000000000000000000008152508260e00151610a88565b6107cb6040518060400160405280600a81526020017f72617465536c6f706531000000000000000000000000000000000000000000008152508260a00151610a88565b61080e6040518060400160405280600a81526020017f72617465536c6f706532000000000000000000000000000000000000000000008152508260c00151610a88565b60008160200151146108ad5782600001518160000181815250508060200151816000015161083c9190611015565b81608001818152505061086081608001518260200151610ad390919063ffffffff16565b8160600181815250506108ac6040518060400160405280601081526020017f626f72726f775573616765526174696f000000000000000000000000000000008152508260600151610a88565b5b7f0000000000000000000000000000000000000000000000000000000000000000816060015111156109d15761093b7f00000000000000000000000000000000000000000000000000000000000000007f0000000000000000000000000000000000000000000000000000000000000000836060015161092d9190611049565b610ad390919063ffffffff16565b816101000181815250506109896040518060400160405280601681526020017f657863657373426f72726f775573616765526174696f00000000000000000000815250826101000151610a88565b6109a58161010001518260c00151610b1a90919063ffffffff16565b8160a001516109b49190611015565b816040018181516109c59190611015565b91508181525050610a37565b610a1e8160600151610a107f00000000000000000000000000000000000000000000000000000000000000008460a00151610ad390919063ffffffff16565b610b1a90919063ffffffff16565b81604001818151610a2f9190611015565b915081815250505b610a7a6040518060400160405280601181526020017f63757272656e74426f72726f77526174650000000000000000000000000000008152508260400151610a88565b80604001519150505b919050565b6000610acf57610ace6040518060400160405280600681526020017f2573202d257300000000000000000000000000000000000000000000000000008152508383610b65565b5b5050565b60006b033b2e3c9fd0803ce80000006002830460001903048311151582151715610afc57600080fd5b81600283046b033b2e3c9fd0803ce800000085020104905092915050565b6000816b019d971e4fe8401e740000006000190304831115821517610b3e57600080fd5b6b033b2e3c9fd0803ce80000006b019d971e4fe8401e740000008385020104905092915050565b610bff838383604051602401610b7d939291906110fc565b6040516020818303038152906040527f5821efa1000000000000000000000000000000000000000000000000000000007bffffffffffffffffffffffffffffffffffffffffffffffffffffffff19166020820180517bffffffffffffffffffffffffffffffffffffffffffffffffffffffff8381831617835250505050610c04565b505050565b610c1b81610c13610c1e610c3f565b63ffffffff16565b50565b60006a636f6e736f6c652e6c6f679050600080835160208501845afa505050565b610c96819050919050565b6040518061012001604052806000815260200160008152602001600081526020016000815260200160008152602001600081526020016000815260200160008152602001600081525090565b610c9e611141565b565b600081519050919050565b600082825260208201905092915050565b6000819050602082019050919050565b6000819050919050565b610cdf81610ccc565b82525050565b6000610cf18383610cd6565b60208301905092915050565b6000602082019050919050565b6000610d1582610ca0565b610d1f8185610cab565b9350610d2a83610cbc565b8060005b83811015610d5b578151610d428882610ce5565b9750610d4d83610cfd565b925050600181019050610d2e565b5085935050505092915050565b60006020820190508181036000830152610d828184610d0a565b905092915050565b610d9381610ccc565b82525050565b6000602082019050610dae6000830184610d8a565b92915050565b6000604051905090565b600080fd5b610dcc81610ccc565b8114610dd757600080fd5b50565b600081359050610de981610dc3565b92915050565b600060208284031215610e0557610e04610dbe565b5b6000610e1384828501610dda565b91505092915050565b600060ff82169050919050565b610e3281610e1c565b82525050565b6000602082019050610e4d6000830184610e29565b92915050565b600080fd5b6000601f19601f8301169050919050565b7f4e487b7100000000000000000000000000000000000000000000000000000000600052604160045260246000fd5b610ea182610e58565b810181811067ffffffffffffffff82111715610ec057610ebf610e69565b5b80604052505050565b6000610ed3610db4565b9050610edf8282610e98565b919050565b600060608284031215610efa57610ef9610e53565b5b610f046060610ec9565b90506000610f1484828501610dda565b6000830152506020610f2884828501610dda565b6020830152506040610f3c84828501610dda565b60408301525092915050565b600060608284031215610f5e57610f5d610dbe565b5b6000610f6c84828501610ee4565b91505092915050565b7f4e487b7100000000000000000000000000000000000000000000000000000000600052601160045260246000fd5b6000610faf82610ccc565b9150610fba83610ccc565b9250828202610fc881610ccc565b91508282048414831517610fdf57610fde610f75565b5b5092915050565b7f4e487b7100000000000000000000000000000000000000000000000000000000600052603260045260246000fd5b600061102082610ccc565b915061102b83610ccc565b925082820190508082111561104357611042610f75565b5b92915050565b600061105482610ccc565b915061105f83610ccc565b925082820390508181111561107757611076610f75565b5b92915050565b600081519050919050565b600082825260208201905092915050565b60005b838110156110b757808201518184015260208101905061109c565b60008484015250505050565b60006110ce8261107d565b6110d88185611088565b93506110e8818560208601611099565b6110f181610e58565b840191505092915050565b6000606082019050818103600083015261111681866110c3565b9050818103602083015261112a81856110c3565b90506111396040830184610d8a565b949350505050565b7f4e487b7100000000000000000000000000000000000000000000000000000000600052605160045260246000fdfea2646970667358221220f621b292686a8ebac65e4c6688d9a48a397853c9a72597ad0b5668f58353981464736f6c634300081c0033","opcodes":"PUSH1 0xE0 PUSH1 0x40 MSTORE CALLVALUE DUP1 ISZERO PUSH2 0x10 JUMPI PUSH1 0x0 DUP1 REVERT JUMPDEST POP PUSH1 0x40 MLOAD PUSH2 0x16AC CODESIZE SUB DUP1 PUSH2 0x16AC DUP4 CODECOPY DUP2 DUP2 ADD PUSH1 0x40 MSTORE DUP2 ADD SWAP1 PUSH2 0x32 SWAP2 SWAP1 PUSH2 0x3C9 JUMP JUMPDEST DUP1 PUSH1 0x0 ADD MLOAD PUSH12 0x33B2E3C9FD0803CE8000000 LT ISZERO PUSH2 0x8B JUMPI DUP1 PUSH1 0x0 ADD MLOAD PUSH1 0x40 MLOAD PUSH32 0xB90DF3F200000000000000000000000000000000000000000000000000000000 DUP2 MSTORE PUSH1 0x4 ADD PUSH2 0x82 SWAP2 SWAP1 PUSH2 0x421 JUMP JUMPDEST PUSH1 0x40 MLOAD DUP1 SWAP2 SUB SWAP1 REVERT JUMPDEST DUP1 PUSH1 0x0 ADD MLOAD PUSH1 0x80 DUP2 DUP2 MSTORE POP POP DUP1 PUSH1 0x0 ADD MLOAD PUSH12 0x33B2E3C9FD0803CE8000000 PUSH2 0xB3 SWAP2 SWAP1 PUSH2 0x46B JUMP JUMPDEST PUSH1 0xA0 DUP2 DUP2 MSTORE POP POP DUP1 PUSH1 0x20 ADD MLOAD PUSH1 0xC0 DUP2 DUP2 MSTORE POP POP DUP1 PUSH1 0x40 ADD MLOAD PUSH1 0x0 SWAP1 DUP1 MLOAD SWAP1 PUSH1 0x20 ADD SWAP1 PUSH2 0xE0 SWAP3 SWAP2 SWAP1 PUSH2 0x102 JUMP JUMPDEST POP DUP1 PUSH1 0x60 ADD MLOAD PUSH1 0x1 SWAP1 DUP1 MLOAD SWAP1 PUSH1 0x20 ADD SWAP1 PUSH2 0xFB SWAP3 SWAP2 SWAP1 PUSH2 0x102 JUMP JUMPDEST POP POP PUSH2 0x49F JUMP JUMPDEST DUP3 DUP1 SLOAD DUP3 DUP3 SSTORE SWAP1 PUSH1 0x0 MSTORE PUSH1 0x20 PUSH1 0x0 KECCAK256 SWAP1 DUP2 ADD SWAP3 DUP3 ISZERO PUSH2 0x13E JUMPI SWAP2 PUSH1 0x20 MUL DUP3 ADD JUMPDEST DUP3 DUP2 GT ISZERO PUSH2 0x13D JUMPI DUP3 MLOAD DUP3 SSTORE SWAP2 PUSH1 0x20 ADD SWAP2 SWAP1 PUSH1 0x1 ADD SWAP1 PUSH2 0x122 JUMP JUMPDEST JUMPDEST POP SWAP1 POP PUSH2 0x14B SWAP2 SWAP1 PUSH2 0x14F JUMP JUMPDEST POP SWAP1 JUMP JUMPDEST JUMPDEST DUP1 DUP3 GT ISZERO PUSH2 0x168 JUMPI PUSH1 0x0 DUP2 PUSH1 0x0 SWAP1 SSTORE POP PUSH1 0x1 ADD PUSH2 0x150 JUMP JUMPDEST POP SWAP1 JUMP JUMPDEST PUSH1 0x0 PUSH1 0x40 MLOAD SWAP1 POP SWAP1 JUMP JUMPDEST PUSH1 0x0 DUP1 REVERT JUMPDEST PUSH1 0x0 DUP1 REVERT JUMPDEST PUSH1 0x0 DUP1 REVERT JUMPDEST PUSH1 0x0 PUSH1 0x1F NOT PUSH1 0x1F DUP4 ADD AND SWAP1 POP SWAP2 SWAP1 POP JUMP JUMPDEST PUSH32 0x4E487B7100000000000000000000000000000000000000000000000000000000 PUSH1 0x0 MSTORE PUSH1 0x41 PUSH1 0x4 MSTORE PUSH1 0x24 PUSH1 0x0 REVERT JUMPDEST PUSH2 0x1CE DUP3 PUSH2 0x185 JUMP JUMPDEST DUP2 ADD DUP2 DUP2 LT PUSH8 0xFFFFFFFFFFFFFFFF DUP3 GT OR ISZERO PUSH2 0x1ED JUMPI PUSH2 0x1EC PUSH2 0x196 JUMP JUMPDEST JUMPDEST DUP1 PUSH1 0x40 MSTORE POP POP POP JUMP JUMPDEST PUSH1 0x0 PUSH2 0x200 PUSH2 0x16C JUMP JUMPDEST SWAP1 POP PUSH2 0x20C DUP3 DUP3 PUSH2 0x1C5 JUMP JUMPDEST SWAP2 SWAP1 POP JUMP JUMPDEST PUSH1 0x0 DUP1 REVERT JUMPDEST PUSH1 0x0 DUP2 SWAP1 POP SWAP2 SWAP1 POP JUMP JUMPDEST PUSH2 0x229 DUP2 PUSH2 0x216 JUMP JUMPDEST DUP2 EQ PUSH2 0x234 JUMPI PUSH1 0x0 DUP1 REVERT JUMPDEST POP JUMP JUMPDEST PUSH1 0x0 DUP2 MLOAD SWAP1 POP PUSH2 0x246 DUP2 PUSH2 0x220 JUMP JUMPDEST SWAP3 SWAP2 POP POP JUMP JUMPDEST PUSH1 0x0 DUP1 REVERT JUMPDEST PUSH1 0x0 PUSH8 0xFFFFFFFFFFFFFFFF DUP3 GT ISZERO PUSH2 0x26C JUMPI PUSH2 0x26B PUSH2 0x196 JUMP JUMPDEST JUMPDEST PUSH1 0x20 DUP3 MUL SWAP1 POP PUSH1 0x20 DUP2 ADD SWAP1 POP SWAP2 SWAP1 POP JUMP JUMPDEST PUSH1 0x0 DUP1 REVERT JUMPDEST PUSH1 0x0 PUSH2 0x295 PUSH2 0x290 DUP5 PUSH2 0x251 JUMP JUMPDEST PUSH2 0x1F6 JUMP JUMPDEST SWAP1 POP DUP1 DUP4 DUP3 MSTORE PUSH1 0x20 DUP3 ADD SWAP1 POP PUSH1 0x20 DUP5 MUL DUP4 ADD DUP6 DUP2 GT ISZERO PUSH2 0x2B8 JUMPI PUSH2 0x2B7 PUSH2 0x27D JUMP JUMPDEST JUMPDEST DUP4 JUMPDEST DUP2 DUP2 LT ISZERO PUSH2 0x2E1 JUMPI DUP1 PUSH2 0x2CD DUP9 DUP3 PUSH2 0x237 JUMP JUMPDEST DUP5 MSTORE PUSH1 0x20 DUP5 ADD SWAP4 POP POP PUSH1 0x20 DUP2 ADD SWAP1 POP PUSH2 0x2BA JUMP JUMPDEST POP POP POP SWAP4 SWAP3 POP POP POP JUMP JUMPDEST PUSH1 0x0 DUP3 PUSH1 0x1F DUP4 ADD SLT PUSH2 0x300 JUMPI PUSH2 0x2FF PUSH2 0x24C JUMP JUMPDEST JUMPDEST DUP2 MLOAD PUSH2 0x310 DUP5 DUP3 PUSH1 0x20 DUP7 ADD PUSH2 0x282 JUMP JUMPDEST SWAP2 POP POP SWAP3 SWAP2 POP POP JUMP JUMPDEST PUSH1 0x0 PUSH1 0x80 DUP3 DUP5 SUB SLT ISZERO PUSH2 0x32F JUMPI PUSH2 0x32E PUSH2 0x180 JUMP JUMPDEST JUMPDEST PUSH2 0x339 PUSH1 0x80 PUSH2 0x1F6 JUMP JUMPDEST SWAP1 POP PUSH1 0x0 PUSH2 0x349 DUP5 DUP3 DUP6 ADD PUSH2 0x237 JUMP JUMPDEST PUSH1 0x0 DUP4 ADD MSTORE POP PUSH1 0x20 PUSH2 0x35D DUP5 DUP3 DUP6 ADD PUSH2 0x237 JUMP JUMPDEST PUSH1 0x20 DUP4 ADD MSTORE POP PUSH1 0x40 DUP3 ADD MLOAD PUSH8 0xFFFFFFFFFFFFFFFF DUP2 GT ISZERO PUSH2 0x381 JUMPI PUSH2 0x380 PUSH2 0x211 JUMP JUMPDEST JUMPDEST PUSH2 0x38D DUP5 DUP3 DUP6 ADD PUSH2 0x2EB JUMP JUMPDEST PUSH1 0x40 DUP4 ADD MSTORE POP PUSH1 0x60 DUP3 ADD MLOAD PUSH8 0xFFFFFFFFFFFFFFFF DUP2 GT ISZERO PUSH2 0x3B1 JUMPI PUSH2 0x3B0 PUSH2 0x211 JUMP JUMPDEST JUMPDEST PUSH2 0x3BD DUP5 DUP3 DUP6 ADD PUSH2 0x2EB JUMP JUMPDEST PUSH1 0x60 DUP4 ADD MSTORE POP SWAP3 SWAP2 POP POP JUMP JUMPDEST PUSH1 0x0 PUSH1 0x20 DUP3 DUP5 SUB SLT ISZERO PUSH2 0x3DF JUMPI PUSH2 0x3DE PUSH2 0x176 JUMP JUMPDEST JUMPDEST PUSH1 0x0 DUP3 ADD MLOAD PUSH8 0xFFFFFFFFFFFFFFFF DUP2 GT ISZERO PUSH2 0x3FD JUMPI PUSH2 0x3FC PUSH2 0x17B JUMP JUMPDEST JUMPDEST PUSH2 0x409 DUP5 DUP3 DUP6 ADD PUSH2 0x319 JUMP JUMPDEST SWAP2 POP POP SWAP3 SWAP2 POP POP JUMP JUMPDEST PUSH2 0x41B DUP2 PUSH2 0x216 JUMP JUMPDEST DUP3 MSTORE POP POP JUMP JUMPDEST PUSH1 0x0 PUSH1 0x20 DUP3 ADD SWAP1 POP PUSH2 0x436 PUSH1 0x0 DUP4 ADD DUP5 PUSH2 0x412 JUMP JUMPDEST SWAP3 SWAP2 POP POP JUMP JUMPDEST PUSH32 0x4E487B7100000000000000000000000000000000000000000000000000000000 PUSH1 0x0 MSTORE PUSH1 0x11 PUSH1 0x4 MSTORE PUSH1 0x24 PUSH1 0x0 REVERT JUMPDEST PUSH1 0x0 PUSH2 0x476 DUP3 PUSH2 0x216 JUMP JUMPDEST SWAP2 POP PUSH2 0x481 DUP4 PUSH2 0x216 JUMP JUMPDEST SWAP3 POP DUP3 DUP3 SUB SWAP1 POP DUP2 DUP2 GT ISZERO PUSH2 0x499 JUMPI PUSH2 0x498 PUSH2 0x43C JUMP JUMPDEST JUMPDEST SWAP3 SWAP2 POP POP JUMP JUMPDEST PUSH1 0x80 MLOAD PUSH1 0xA0 MLOAD PUSH1 0xC0 MLOAD PUSH2 0x11A6 PUSH2 0x506 PUSH1 0x0 CODECOPY PUSH1 0x0 DUP2 DUP2 PUSH2 0x429 ADD MSTORE DUP2 DUP2 PUSH2 0x525 ADD MSTORE PUSH2 0x721 ADD MSTORE PUSH1 0x0 DUP2 DUP2 PUSH2 0x494 ADD MSTORE PUSH2 0x8DE ADD MSTORE PUSH1 0x0 DUP2 DUP2 PUSH2 0x2D8 ADD MSTORE DUP2 DUP2 PUSH2 0x46E ADD MSTORE DUP2 DUP2 PUSH2 0x6C2 ADD MSTORE DUP2 DUP2 PUSH2 0x8AF ADD MSTORE DUP2 DUP2 PUSH2 0x8FF ADD MSTORE PUSH2 0x9DE ADD MSTORE PUSH2 0x11A6 PUSH1 0x0 RETURN INVALID PUSH1 0x80 PUSH1 0x40 MSTORE CALLVALUE DUP1 ISZERO PUSH2 0x10 JUMPI PUSH1 0x0 DUP1 REVERT JUMPDEST POP PUSH1 0x4 CALLDATASIZE LT PUSH2 0xCF JUMPI PUSH1 0x0 CALLDATALOAD PUSH1 0xE0 SHR DUP1 PUSH4 0xA3A9BC33 GT PUSH2 0x8C JUMPI DUP1 PUSH4 0xB1B06485 GT PUSH2 0x66 JUMPI DUP1 PUSH4 0xB1B06485 EQ PUSH2 0x1F4 JUMPI DUP1 PUSH4 0xD41A41BA EQ PUSH2 0x212 JUMPI DUP1 PUSH4 0xED719CF8 EQ PUSH2 0x230 JUMPI DUP1 PUSH4 0xFDD63ECF EQ PUSH2 0x24E JUMPI PUSH2 0xCF JUMP JUMPDEST DUP1 PUSH4 0xA3A9BC33 EQ PUSH2 0x19A JUMPI DUP1 PUSH4 0xA8602E86 EQ PUSH2 0x1B8 JUMPI DUP1 PUSH4 0xA9C622F8 EQ PUSH2 0x1D6 JUMPI PUSH2 0xCF JUMP JUMPDEST DUP1 PUSH4 0x2DD9037B EQ PUSH2 0xD4 JUMPI DUP1 PUSH4 0x54C365C6 EQ PUSH2 0xF2 JUMPI DUP1 PUSH4 0x75005BB0 EQ PUSH2 0x110 JUMPI DUP1 PUSH4 0x7AA78615 EQ PUSH2 0x12E JUMPI DUP1 PUSH4 0x8567992A EQ PUSH2 0x14C JUMPI DUP1 PUSH4 0x87F0409D EQ PUSH2 0x17C JUMPI JUMPDEST PUSH1 0x0 DUP1 REVERT JUMPDEST PUSH2 0xDC PUSH2 0x27E JUMP JUMPDEST PUSH1 0x40 MLOAD PUSH2 0xE9 SWAP2 SWAP1 PUSH2 0xD68 JUMP JUMPDEST PUSH1 0x40 MLOAD DUP1 SWAP2 SUB SWAP1 RETURN JUMPDEST PUSH2 0xFA PUSH2 0x2D6 JUMP JUMPDEST PUSH1 0x40 MLOAD PUSH2 0x107 SWAP2 SWAP1 PUSH2 0xD99 JUMP JUMPDEST PUSH1 0x40 MLOAD DUP1 SWAP2 SUB SWAP1 RETURN JUMPDEST PUSH2 0x118 PUSH2 0x2FA JUMP JUMPDEST PUSH1 0x40 MLOAD PUSH2 0x125 SWAP2 SWAP1 PUSH2 0xD68 JUMP JUMPDEST PUSH1 0x40 MLOAD DUP1 SWAP2 SUB SWAP1 RETURN JUMPDEST PUSH2 0x136 PUSH2 0x352 JUMP JUMPDEST PUSH1 0x40 MLOAD PUSH2 0x143 SWAP2 SWAP1 PUSH2 0xD99 JUMP JUMPDEST PUSH1 0x40 MLOAD DUP1 SWAP2 SUB SWAP1 RETURN JUMPDEST PUSH2 0x166 PUSH1 0x4 DUP1 CALLDATASIZE SUB DUP2 ADD SWAP1 PUSH2 0x161 SWAP2 SWAP1 PUSH2 0xDEF JUMP JUMPDEST PUSH2 0x36F JUMP JUMPDEST PUSH1 0x40 MLOAD PUSH2 0x173 SWAP2 SWAP1 PUSH2 0xE38 JUMP JUMPDEST PUSH1 0x40 MLOAD DUP1 SWAP2 SUB SWAP1 RETURN JUMPDEST PUSH2 0x184 PUSH2 0x425 JUMP JUMPDEST PUSH1 0x40 MLOAD PUSH2 0x191 SWAP2 SWAP1 PUSH2 0xD99 JUMP JUMPDEST PUSH1 0x40 MLOAD DUP1 SWAP2 SUB SWAP1 RETURN JUMPDEST PUSH2 0x1A2 PUSH2 0x44D JUMP JUMPDEST PUSH1 0x40 MLOAD PUSH2 0x1AF SWAP2 SWAP1 PUSH2 0xD99 JUMP JUMPDEST PUSH1 0x40 MLOAD DUP1 SWAP2 SUB SWAP1 RETURN JUMPDEST PUSH2 0x1C0 PUSH2 0x46A JUMP JUMPDEST PUSH1 0x40 MLOAD PUSH2 0x1CD SWAP2 SWAP1 PUSH2 0xD99 JUMP JUMPDEST PUSH1 0x40 MLOAD DUP1 SWAP2 SUB SWAP1 RETURN JUMPDEST PUSH2 0x1DE PUSH2 0x492 JUMP JUMPDEST PUSH1 0x40 MLOAD PUSH2 0x1EB SWAP2 SWAP1 PUSH2 0xD99 JUMP JUMPDEST PUSH1 0x40 MLOAD DUP1 SWAP2 SUB SWAP1 RETURN JUMPDEST PUSH2 0x1FC PUSH2 0x4B6 JUMP JUMPDEST PUSH1 0x40 MLOAD PUSH2 0x209 SWAP2 SWAP1 PUSH2 0xE38 JUMP JUMPDEST PUSH1 0x40 MLOAD DUP1 SWAP2 SUB SWAP1 RETURN JUMPDEST PUSH2 0x21A PUSH2 0x4BB JUMP JUMPDEST PUSH1 0x40 MLOAD PUSH2 0x227 SWAP2 SWAP1 PUSH2 0xD99 JUMP JUMPDEST PUSH1 0x40 MLOAD DUP1 SWAP2 SUB SWAP1 RETURN JUMPDEST PUSH2 0x238 PUSH2 0x4D9 JUMP JUMPDEST PUSH1 0x40 MLOAD PUSH2 0x245 SWAP2 SWAP1 PUSH2 0xD99 JUMP JUMPDEST PUSH1 0x40 MLOAD DUP1 SWAP2 SUB SWAP1 RETURN JUMPDEST PUSH2 0x268 PUSH1 0x4 DUP1 CALLDATASIZE SUB DUP2 ADD SWAP1 PUSH2 0x263 SWAP2 SWAP1 PUSH2 0xF48 JUMP JUMPDEST PUSH2 0x4F7 JUMP JUMPDEST PUSH1 0x40 MLOAD PUSH2 0x275 SWAP2 SWAP1 PUSH2 0xD99 JUMP JUMPDEST PUSH1 0x40 MLOAD DUP1 SWAP2 SUB SWAP1 RETURN JUMPDEST PUSH1 0x60 PUSH1 0x0 DUP1 SLOAD DUP1 PUSH1 0x20 MUL PUSH1 0x20 ADD PUSH1 0x40 MLOAD SWAP1 DUP2 ADD PUSH1 0x40 MSTORE DUP1 SWAP3 SWAP2 SWAP1 DUP2 DUP2 MSTORE PUSH1 0x20 ADD DUP3 DUP1 SLOAD DUP1 ISZERO PUSH2 0x2CC JUMPI PUSH1 0x20 MUL DUP3 ADD SWAP2 SWAP1 PUSH1 0x0 MSTORE PUSH1 0x20 PUSH1 0x0 KECCAK256 SWAP1 JUMPDEST DUP2 SLOAD DUP2 MSTORE PUSH1 0x20 ADD SWAP1 PUSH1 0x1 ADD SWAP1 DUP1 DUP4 GT PUSH2 0x2B8 JUMPI JUMPDEST POP POP POP POP POP SWAP1 POP SWAP1 JUMP JUMPDEST PUSH32 0x0 DUP2 JUMP JUMPDEST PUSH1 0x60 PUSH1 0x1 DUP1 SLOAD DUP1 PUSH1 0x20 MUL PUSH1 0x20 ADD PUSH1 0x40 MLOAD SWAP1 DUP2 ADD PUSH1 0x40 MSTORE DUP1 SWAP3 SWAP2 SWAP1 DUP2 DUP2 MSTORE PUSH1 0x20 ADD DUP3 DUP1 SLOAD DUP1 ISZERO PUSH2 0x348 JUMPI PUSH1 0x20 MUL DUP3 ADD SWAP2 SWAP1 PUSH1 0x0 MSTORE PUSH1 0x20 PUSH1 0x0 KECCAK256 SWAP1 JUMPDEST DUP2 SLOAD DUP2 MSTORE PUSH1 0x20 ADD SWAP1 PUSH1 0x1 ADD SWAP1 DUP1 DUP4 GT PUSH2 0x334 JUMPI JUMPDEST POP POP POP POP POP SWAP1 POP SWAP1 JUMP JUMPDEST PUSH12 0x33B2E3C9FD0803CE8000000 PUSH2 0x2710 PUSH2 0x36C SWAP2 SWAP1 PUSH2 0xFA4 JUMP JUMPDEST DUP2 JUMP JUMPDEST PUSH1 0x0 PUSH12 0x33B2E3C9FD0803CE8000000 PUSH2 0x2710 PUSH2 0x38B SWAP2 SWAP1 PUSH2 0xFA4 JUMP JUMPDEST DUP3 LT ISZERO PUSH2 0x39B JUMPI PUSH1 0x0 SWAP1 POP PUSH2 0x420 JUMP JUMPDEST PUSH12 0x33B2E3C9FD0803CE8000000 PUSH2 0xC350 PUSH2 0x3B5 SWAP2 SWAP1 PUSH2 0xFA4 JUMP JUMPDEST DUP3 LT ISZERO PUSH2 0x3C5 JUMPI PUSH1 0x1 SWAP1 POP PUSH2 0x420 JUMP JUMPDEST PUSH12 0x33B2E3C9FD0803CE8000000 PUSH3 0x7A120 PUSH2 0x3E0 SWAP2 SWAP1 PUSH2 0xFA4 JUMP JUMPDEST DUP3 LT ISZERO PUSH2 0x3F0 JUMPI PUSH1 0x2 SWAP1 POP PUSH2 0x420 JUMP JUMPDEST PUSH12 0x33B2E3C9FD0803CE8000000 PUSH3 0xF4240 PUSH2 0x40B SWAP2 SWAP1 PUSH2 0xFA4 JUMP JUMPDEST DUP3 LT ISZERO PUSH2 0x41B JUMPI PUSH1 0x3 SWAP1 POP PUSH2 0x420 JUMP JUMPDEST PUSH1 0x4 SWAP1 POP JUMPDEST SWAP2 SWAP1 POP JUMP JUMPDEST PUSH1 0x0 PUSH32 0x0 SWAP1 POP SWAP1 JUMP JUMPDEST PUSH12 0x33B2E3C9FD0803CE8000000 PUSH2 0xC350 PUSH2 0x467 SWAP2 SWAP1 PUSH2 0xFA4 JUMP JUMPDEST DUP2 JUMP JUMPDEST PUSH1 0x0 PUSH32 0x0 SWAP1 POP SWAP1 JUMP JUMPDEST PUSH32 0x0 DUP2 JUMP JUMPDEST PUSH1 0x6 DUP2 JUMP JUMPDEST PUSH12 0x33B2E3C9FD0803CE8000000 PUSH3 0xF4240 PUSH2 0x4D6 SWAP2 SWAP1 PUSH2 0xFA4 JUMP JUMPDEST DUP2 JUMP JUMPDEST PUSH12 0x33B2E3C9FD0803CE8000000 PUSH3 0x7A120 PUSH2 0x4F4 SWAP2 SWAP1 PUSH2 0xFA4 JUMP JUMPDEST DUP2 JUMP JUMPDEST PUSH1 0x0 DUP1 DUP3 PUSH1 0x20 ADD MLOAD SUB PUSH2 0x50D JUMPI PUSH1 0x0 SWAP1 POP PUSH2 0xA83 JUMP JUMPDEST PUSH2 0x515 PUSH2 0xC4A JUMP JUMPDEST DUP3 PUSH1 0x20 ADD MLOAD DUP2 PUSH1 0x20 ADD DUP2 DUP2 MSTORE POP POP PUSH32 0x0 DUP2 PUSH1 0x40 ADD DUP2 DUP2 MSTORE POP POP PUSH2 0x55A DUP4 PUSH1 0x40 ADD MLOAD PUSH2 0x36F JUMP JUMPDEST PUSH1 0xFF AND DUP2 PUSH1 0xE0 ADD DUP2 DUP2 MSTORE POP POP PUSH1 0x0 DUP2 PUSH1 0xE0 ADD MLOAD DUP2 SLOAD DUP2 LT PUSH2 0x57E JUMPI PUSH2 0x57D PUSH2 0xFE6 JUMP JUMPDEST JUMPDEST SWAP1 PUSH1 0x0 MSTORE PUSH1 0x20 PUSH1 0x0 KECCAK256 ADD SLOAD DUP2 PUSH1 0xA0 ADD DUP2 DUP2 MSTORE POP POP PUSH1 0x1 DUP2 PUSH1 0xE0 ADD MLOAD DUP2 SLOAD DUP2 LT PUSH2 0x5AA JUMPI PUSH2 0x5A9 PUSH2 0xFE6 JUMP JUMPDEST JUMPDEST SWAP1 PUSH1 0x0 MSTORE PUSH1 0x20 PUSH1 0x0 KECCAK256 ADD SLOAD DUP2 PUSH1 0xC0 ADD DUP2 DUP2 MSTORE POP POP PUSH2 0x601 PUSH1 0x40 MLOAD DUP1 PUSH1 0x40 ADD PUSH1 0x40 MSTORE DUP1 PUSH1 0x10 DUP2 MSTORE PUSH1 0x20 ADD PUSH32 0x746F74616C506F6F6C42616C616E636500000000000000000000000000000000 DUP2 MSTORE POP DUP5 PUSH1 0x0 ADD MLOAD PUSH2 0xA88 JUMP JUMPDEST PUSH2 0x644 PUSH1 0x40 MLOAD DUP1 PUSH1 0x40 ADD PUSH1 0x40 MSTORE DUP1 PUSH1 0x9 DUP2 MSTORE PUSH1 0x20 ADD PUSH32 0x746F74616C446562740000000000000000000000000000000000000000000000 DUP2 MSTORE POP DUP5 PUSH1 0x20 ADD MLOAD PUSH2 0xA88 JUMP JUMPDEST PUSH2 0x687 PUSH1 0x40 MLOAD DUP1 PUSH1 0x40 ADD PUSH1 0x40 MSTORE DUP1 PUSH1 0x14 DUP2 MSTORE PUSH1 0x20 ADD PUSH32 0x746F74616C506F6F6C42616C616E636542617365000000000000000000000000 DUP2 MSTORE POP DUP5 PUSH1 0x40 ADD MLOAD PUSH2 0xA88 JUMP JUMPDEST PUSH2 0x6E6 PUSH1 0x40 MLOAD DUP1 PUSH1 0x40 ADD PUSH1 0x40 MSTORE DUP1 PUSH1 0x13 DUP2 MSTORE PUSH1 0x20 ADD PUSH32 0x4F5054494D414C5F55534147455F524154494F00000000000000000000000000 DUP2 MSTORE POP PUSH32 0x0 PUSH2 0xA88 JUMP JUMPDEST PUSH2 0x745 PUSH1 0x40 MLOAD DUP1 PUSH1 0x40 ADD PUSH1 0x40 MSTORE DUP1 PUSH1 0x6 DUP2 MSTORE PUSH1 0x20 ADD PUSH32 0x5F72617465300000000000000000000000000000000000000000000000000000 DUP2 MSTORE POP PUSH32 0x0 PUSH2 0xA88 JUMP JUMPDEST PUSH2 0x788 PUSH1 0x40 MLOAD DUP1 PUSH1 0x40 ADD PUSH1 0x40 MSTORE DUP1 PUSH1 0x5 DUP2 MSTORE PUSH1 0x20 ADD PUSH32 0x696E646578000000000000000000000000000000000000000000000000000000 DUP2 MSTORE POP DUP3 PUSH1 0xE0 ADD MLOAD PUSH2 0xA88 JUMP JUMPDEST PUSH2 0x7CB PUSH1 0x40 MLOAD DUP1 PUSH1 0x40 ADD PUSH1 0x40 MSTORE DUP1 PUSH1 0xA DUP2 MSTORE PUSH1 0x20 ADD PUSH32 0x72617465536C6F70653100000000000000000000000000000000000000000000 DUP2 MSTORE POP DUP3 PUSH1 0xA0 ADD MLOAD PUSH2 0xA88 JUMP JUMPDEST PUSH2 0x80E PUSH1 0x40 MLOAD DUP1 PUSH1 0x40 ADD PUSH1 0x40 MSTORE DUP1 PUSH1 0xA DUP2 MSTORE PUSH1 0x20 ADD PUSH32 0x72617465536C6F70653200000000000000000000000000000000000000000000 DUP2 MSTORE POP DUP3 PUSH1 0xC0 ADD MLOAD PUSH2 0xA88 JUMP JUMPDEST PUSH1 0x0 DUP2 PUSH1 0x20 ADD MLOAD EQ PUSH2 0x8AD JUMPI DUP3 PUSH1 0x0 ADD MLOAD DUP2 PUSH1 0x0 ADD DUP2 DUP2 MSTORE POP POP DUP1 PUSH1 0x20 ADD MLOAD DUP2 PUSH1 0x0 ADD MLOAD PUSH2 0x83C SWAP2 SWAP1 PUSH2 0x1015 JUMP JUMPDEST DUP2 PUSH1 0x80 ADD DUP2 DUP2 MSTORE POP POP PUSH2 0x860 DUP2 PUSH1 0x80 ADD MLOAD DUP3 PUSH1 0x20 ADD MLOAD PUSH2 0xAD3 SWAP1 SWAP2 SWAP1 PUSH4 0xFFFFFFFF AND JUMP JUMPDEST DUP2 PUSH1 0x60 ADD DUP2 DUP2 MSTORE POP POP PUSH2 0x8AC PUSH1 0x40 MLOAD DUP1 PUSH1 0x40 ADD PUSH1 0x40 MSTORE DUP1 PUSH1 0x10 DUP2 MSTORE PUSH1 0x20 ADD PUSH32 0x626F72726F775573616765526174696F00000000000000000000000000000000 DUP2 MSTORE POP DUP3 PUSH1 0x60 ADD MLOAD PUSH2 0xA88 JUMP JUMPDEST JUMPDEST PUSH32 0x0 DUP2 PUSH1 0x60 ADD MLOAD GT ISZERO PUSH2 0x9D1 JUMPI PUSH2 0x93B PUSH32 0x0 PUSH32 0x0 DUP4 PUSH1 0x60 ADD MLOAD PUSH2 0x92D SWAP2 SWAP1 PUSH2 0x1049 JUMP JUMPDEST PUSH2 0xAD3 SWAP1 SWAP2 SWAP1 PUSH4 0xFFFFFFFF AND JUMP JUMPDEST DUP2 PUSH2 0x100 ADD DUP2 DUP2 MSTORE POP POP PUSH2 0x989 PUSH1 0x40 MLOAD DUP1 PUSH1 0x40 ADD PUSH1 0x40 MSTORE DUP1 PUSH1 0x16 DUP2 MSTORE PUSH1 0x20 ADD PUSH32 0x657863657373426F72726F775573616765526174696F00000000000000000000 DUP2 MSTORE POP DUP3 PUSH2 0x100 ADD MLOAD PUSH2 0xA88 JUMP JUMPDEST PUSH2 0x9A5 DUP2 PUSH2 0x100 ADD MLOAD DUP3 PUSH1 0xC0 ADD MLOAD PUSH2 0xB1A SWAP1 SWAP2 SWAP1 PUSH4 0xFFFFFFFF AND JUMP JUMPDEST DUP2 PUSH1 0xA0 ADD MLOAD PUSH2 0x9B4 SWAP2 SWAP1 PUSH2 0x1015 JUMP JUMPDEST DUP2 PUSH1 0x40 ADD DUP2 DUP2 MLOAD PUSH2 0x9C5 SWAP2 SWAP1 PUSH2 0x1015 JUMP JUMPDEST SWAP2 POP DUP2 DUP2 MSTORE POP POP PUSH2 0xA37 JUMP JUMPDEST PUSH2 0xA1E DUP2 PUSH1 0x60 ADD MLOAD PUSH2 0xA10 PUSH32 0x0 DUP5 PUSH1 0xA0 ADD MLOAD PUSH2 0xAD3 SWAP1 SWAP2 SWAP1 PUSH4 0xFFFFFFFF AND JUMP JUMPDEST PUSH2 0xB1A SWAP1 SWAP2 SWAP1 PUSH4 0xFFFFFFFF AND JUMP JUMPDEST DUP2 PUSH1 0x40 ADD DUP2 DUP2 MLOAD PUSH2 0xA2F SWAP2 SWAP1 PUSH2 0x1015 JUMP JUMPDEST SWAP2 POP DUP2 DUP2 MSTORE POP POP JUMPDEST PUSH2 0xA7A PUSH1 0x40 MLOAD DUP1 PUSH1 0x40 ADD PUSH1 0x40 MSTORE DUP1 PUSH1 0x11 DUP2 MSTORE PUSH1 0x20 ADD PUSH32 0x63757272656E74426F72726F7752617465000000000000000000000000000000 DUP2 MSTORE POP DUP3 PUSH1 0x40 ADD MLOAD PUSH2 0xA88 JUMP JUMPDEST DUP1 PUSH1 0x40 ADD MLOAD SWAP2 POP POP JUMPDEST SWAP2 SWAP1 POP JUMP JUMPDEST PUSH1 0x0 PUSH2 0xACF JUMPI PUSH2 0xACE PUSH1 0x40 MLOAD DUP1 PUSH1 0x40 ADD PUSH1 0x40 MSTORE DUP1 PUSH1 0x6 DUP2 MSTORE PUSH1 0x20 ADD PUSH32 0x2573202D25730000000000000000000000000000000000000000000000000000 DUP2 MSTORE POP DUP4 DUP4 PUSH2 0xB65 JUMP JUMPDEST JUMPDEST POP POP JUMP JUMPDEST PUSH1 0x0 PUSH12 0x33B2E3C9FD0803CE8000000 PUSH1 0x2 DUP4 DIV PUSH1 0x0 NOT SUB DIV DUP4 GT ISZERO ISZERO DUP3 ISZERO OR ISZERO PUSH2 0xAFC JUMPI PUSH1 0x0 DUP1 REVERT JUMPDEST DUP2 PUSH1 0x2 DUP4 DIV PUSH12 0x33B2E3C9FD0803CE8000000 DUP6 MUL ADD DIV SWAP1 POP SWAP3 SWAP2 POP POP JUMP JUMPDEST PUSH1 0x0 DUP2 PUSH12 0x19D971E4FE8401E74000000 PUSH1 0x0 NOT SUB DIV DUP4 GT ISZERO DUP3 ISZERO OR PUSH2 0xB3E JUMPI PUSH1 0x0 DUP1 REVERT JUMPDEST PUSH12 0x33B2E3C9FD0803CE8000000 PUSH12 0x19D971E4FE8401E74000000 DUP4 DUP6 MUL ADD DIV SWAP1 POP SWAP3 SWAP2 POP POP JUMP JUMPDEST PUSH2 0xBFF DUP4 DUP4 DUP4 PUSH1 0x40 MLOAD PUSH1 0x24 ADD PUSH2 0xB7D SWAP4 SWAP3 SWAP2 SWAP1 PUSH2 0x10FC JUMP JUMPDEST PUSH1 0x40 MLOAD PUSH1 0x20 DUP2 DUP4 SUB SUB DUP2 MSTORE SWAP1 PUSH1 0x40 MSTORE PUSH32 0x5821EFA100000000000000000000000000000000000000000000000000000000 PUSH28 0xFFFFFFFFFFFFFFFFFFFFFFFFFFFFFFFFFFFFFFFFFFFFFFFFFFFFFFFF NOT AND PUSH1 0x20 DUP3 ADD DUP1 MLOAD PUSH28 0xFFFFFFFFFFFFFFFFFFFFFFFFFFFFFFFFFFFFFFFFFFFFFFFFFFFFFFFF DUP4 DUP2 DUP4 AND OR DUP4 MSTORE POP POP POP POP PUSH2 0xC04 JUMP JUMPDEST POP POP POP JUMP JUMPDEST PUSH2 0xC1B DUP2 PUSH2 0xC13 PUSH2 0xC1E PUSH2 0xC3F JUMP JUMPDEST PUSH4 0xFFFFFFFF AND JUMP JUMPDEST POP JUMP JUMPDEST PUSH1 0x0 PUSH11 0x636F6E736F6C652E6C6F67 SWAP1 POP PUSH1 0x0 DUP1 DUP4 MLOAD PUSH1 0x20 DUP6 ADD DUP5 GAS STATICCALL POP POP POP JUMP JUMPDEST PUSH2 0xC96 DUP2 SWAP1 POP SWAP2 SWAP1 POP JUMP JUMPDEST PUSH1 0x40 MLOAD DUP1 PUSH2 0x120 ADD PUSH1 0x40 MSTORE DUP1 PUSH1 0x0 DUP2 MSTORE PUSH1 0x20 ADD PUSH1 0x0 DUP2 MSTORE PUSH1 0x20 ADD PUSH1 0x0 DUP2 MSTORE PUSH1 0x20 ADD PUSH1 0x0 DUP2 MSTORE PUSH1 0x20 ADD PUSH1 0x0 DUP2 MSTORE PUSH1 0x20 ADD PUSH1 0x0 DUP2 MSTORE PUSH1 0x20 ADD PUSH1 0x0 DUP2 MSTORE PUSH1 0x20 ADD PUSH1 0x0 DUP2 MSTORE PUSH1 0x20 ADD PUSH1 0x0 DUP2 MSTORE POP SWAP1 JUMP JUMPDEST PUSH2 0xC9E PUSH2 0x1141 JUMP JUMPDEST JUMP JUMPDEST PUSH1 0x0 DUP2 MLOAD SWAP1 POP SWAP2 SWAP1 POP JUMP JUMPDEST PUSH1 0x0 DUP3 DUP3 MSTORE PUSH1 0x20 DUP3 ADD SWAP1 POP SWAP3 SWAP2 POP POP JUMP JUMPDEST PUSH1 0x0 DUP2 SWAP1 POP PUSH1 0x20 DUP3 ADD SWAP1 POP SWAP2 SWAP1 POP JUMP JUMPDEST PUSH1 0x0 DUP2 SWAP1 POP SWAP2 SWAP1 POP JUMP JUMPDEST PUSH2 0xCDF DUP2 PUSH2 0xCCC JUMP JUMPDEST DUP3 MSTORE POP POP JUMP JUMPDEST PUSH1 0x0 PUSH2 0xCF1 DUP4 DUP4 PUSH2 0xCD6 JUMP JUMPDEST PUSH1 0x20 DUP4 ADD SWAP1 POP SWAP3 SWAP2 POP POP JUMP JUMPDEST PUSH1 0x0 PUSH1 0x20 DUP3 ADD SWAP1 POP SWAP2 SWAP1 POP JUMP JUMPDEST PUSH1 0x0 PUSH2 0xD15 DUP3 PUSH2 0xCA0 JUMP JUMPDEST PUSH2 0xD1F DUP2 DUP6 PUSH2 0xCAB JUMP JUMPDEST SWAP4 POP PUSH2 0xD2A DUP4 PUSH2 0xCBC JUMP JUMPDEST DUP1 PUSH1 0x0 JUMPDEST DUP4 DUP2 LT ISZERO PUSH2 0xD5B JUMPI DUP2 MLOAD PUSH2 0xD42 DUP9 DUP3 PUSH2 0xCE5 JUMP JUMPDEST SWAP8 POP PUSH2 0xD4D DUP4 PUSH2 0xCFD JUMP JUMPDEST SWAP3 POP POP PUSH1 0x1 DUP2 ADD SWAP1 POP PUSH2 0xD2E JUMP JUMPDEST POP DUP6 SWAP4 POP POP POP POP SWAP3 SWAP2 POP POP JUMP JUMPDEST PUSH1 0x0 PUSH1 0x20 DUP3 ADD SWAP1 POP DUP2 DUP2 SUB PUSH1 0x0 DUP4 ADD MSTORE PUSH2 0xD82 DUP2 DUP5 PUSH2 0xD0A JUMP JUMPDEST SWAP1 POP SWAP3 SWAP2 POP POP JUMP JUMPDEST PUSH2 0xD93 DUP2 PUSH2 0xCCC JUMP JUMPDEST DUP3 MSTORE POP POP JUMP JUMPDEST PUSH1 0x0 PUSH1 0x20 DUP3 ADD SWAP1 POP PUSH2 0xDAE PUSH1 0x0 DUP4 ADD DUP5 PUSH2 0xD8A JUMP JUMPDEST SWAP3 SWAP2 POP POP JUMP JUMPDEST PUSH1 0x0 PUSH1 0x40 MLOAD SWAP1 POP SWAP1 JUMP JUMPDEST PUSH1 0x0 DUP1 REVERT JUMPDEST PUSH2 0xDCC DUP2 PUSH2 0xCCC JUMP JUMPDEST DUP2 EQ PUSH2 0xDD7 JUMPI PUSH1 0x0 DUP1 REVERT JUMPDEST POP JUMP JUMPDEST PUSH1 0x0 DUP2 CALLDATALOAD SWAP1 POP PUSH2 0xDE9 DUP2 PUSH2 0xDC3 JUMP JUMPDEST SWAP3 SWAP2 POP POP JUMP JUMPDEST PUSH1 0x0 PUSH1 0x20 DUP3 DUP5 SUB SLT ISZERO PUSH2 0xE05 JUMPI PUSH2 0xE04 PUSH2 0xDBE JUMP JUMPDEST JUMPDEST PUSH1 0x0 PUSH2 0xE13 DUP5 DUP3 DUP6 ADD PUSH2 0xDDA JUMP JUMPDEST SWAP2 POP POP SWAP3 SWAP2 POP POP JUMP JUMPDEST PUSH1 0x0 PUSH1 0xFF DUP3 AND SWAP1 POP SWAP2 SWAP1 POP JUMP JUMPDEST PUSH2 0xE32 DUP2 PUSH2 0xE1C JUMP JUMPDEST DUP3 MSTORE POP POP JUMP JUMPDEST PUSH1 0x0 PUSH1 0x20 DUP3 ADD SWAP1 POP PUSH2 0xE4D PUSH1 0x0 DUP4 ADD DUP5 PUSH2 0xE29 JUMP JUMPDEST SWAP3 SWAP2 POP POP JUMP JUMPDEST PUSH1 0x0 DUP1 REVERT JUMPDEST PUSH1 0x0 PUSH1 0x1F NOT PUSH1 0x1F DUP4 ADD AND SWAP1 POP SWAP2 SWAP1 POP JUMP JUMPDEST PUSH32 0x4E487B7100000000000000000000000000000000000000000000000000000000 PUSH1 0x0 MSTORE PUSH1 0x41 PUSH1 0x4 MSTORE PUSH1 0x24 PUSH1 0x0 REVERT JUMPDEST PUSH2 0xEA1 DUP3 PUSH2 0xE58 JUMP JUMPDEST DUP2 ADD DUP2 DUP2 LT PUSH8 0xFFFFFFFFFFFFFFFF DUP3 GT OR ISZERO PUSH2 0xEC0 JUMPI PUSH2 0xEBF PUSH2 0xE69 JUMP JUMPDEST JUMPDEST DUP1 PUSH1 0x40 MSTORE POP POP POP JUMP JUMPDEST PUSH1 0x0 PUSH2 0xED3 PUSH2 0xDB4 JUMP JUMPDEST SWAP1 POP PUSH2 0xEDF DUP3 DUP3 PUSH2 0xE98 JUMP JUMPDEST SWAP2 SWAP1 POP JUMP JUMPDEST PUSH1 0x0 PUSH1 0x60 DUP3 DUP5 SUB SLT ISZERO PUSH2 0xEFA JUMPI PUSH2 0xEF9 PUSH2 0xE53 JUMP JUMPDEST JUMPDEST PUSH2 0xF04 PUSH1 0x60 PUSH2 0xEC9 JUMP JUMPDEST SWAP1 POP PUSH1 0x0 PUSH2 0xF14 DUP5 DUP3 DUP6 ADD PUSH2 0xDDA JUMP JUMPDEST PUSH1 0x0 DUP4 ADD MSTORE POP PUSH1 0x20 PUSH2 0xF28 DUP5 DUP3 DUP6 ADD PUSH2 0xDDA JUMP JUMPDEST PUSH1 0x20 DUP4 ADD MSTORE POP PUSH1 0x40 PUSH2 0xF3C DUP5 DUP3 DUP6 ADD PUSH2 0xDDA JUMP JUMPDEST PUSH1 0x40 DUP4 ADD MSTORE POP SWAP3 SWAP2 POP POP JUMP JUMPDEST PUSH1 0x0 PUSH1 0x60 DUP3 DUP5 SUB SLT ISZERO PUSH2 0xF5E JUMPI PUSH2 0xF5D PUSH2 0xDBE JUMP JUMPDEST JUMPDEST PUSH1 0x0 PUSH2 0xF6C DUP5 DUP3 DUP6 ADD PUSH2 0xEE4 JUMP JUMPDEST SWAP2 POP POP SWAP3 SWAP2 POP POP JUMP JUMPDEST PUSH32 0x4E487B7100000000000000000000000000000000000000000000000000000000 PUSH1 0x0 MSTORE PUSH1 0x11 PUSH1 0x4 MSTORE PUSH1 0x24 PUSH1 0x0 REVERT JUMPDEST PUSH1 0x0 PUSH2 0xFAF DUP3 PUSH2 0xCCC JUMP JUMPDEST SWAP2 POP PUSH2 0xFBA DUP4 PUSH2 0xCCC JUMP JUMPDEST SWAP3 POP DUP3 DUP3 MUL PUSH2 0xFC8 DUP2 PUSH2 0xCCC JUMP JUMPDEST SWAP2 POP DUP3 DUP3 DIV DUP5 EQ DUP4 ISZERO OR PUSH2 0xFDF JUMPI PUSH2 0xFDE PUSH2 0xF75 JUMP JUMPDEST JUMPDEST POP SWAP3 SWAP2 POP POP JUMP JUMPDEST PUSH32 0x4E487B7100000000000000000000000000000000000000000000000000000000 PUSH1 0x0 MSTORE PUSH1 0x32 PUSH1 0x4 MSTORE PUSH1 0x24 PUSH1 0x0 REVERT JUMPDEST PUSH1 0x0 PUSH2 0x1020 DUP3 PUSH2 0xCCC JUMP JUMPDEST SWAP2 POP PUSH2 0x102B DUP4 PUSH2 0xCCC JUMP JUMPDEST SWAP3 POP DUP3 DUP3 ADD SWAP1 POP DUP1 DUP3 GT ISZERO PUSH2 0x1043 JUMPI PUSH2 0x1042 PUSH2 0xF75 JUMP JUMPDEST JUMPDEST SWAP3 SWAP2 POP POP JUMP JUMPDEST PUSH1 0x0 PUSH2 0x1054 DUP3 PUSH2 0xCCC JUMP JUMPDEST SWAP2 POP PUSH2 0x105F DUP4 PUSH2 0xCCC JUMP JUMPDEST SWAP3 POP DUP3 DUP3 SUB SWAP1 POP DUP2 DUP2 GT ISZERO PUSH2 0x1077 JUMPI PUSH2 0x1076 PUSH2 0xF75 JUMP JUMPDEST JUMPDEST SWAP3 SWAP2 POP POP JUMP JUMPDEST PUSH1 0x0 DUP2 MLOAD SWAP1 POP SWAP2 SWAP1 POP JUMP JUMPDEST PUSH1 0x0 DUP3 DUP3 MSTORE PUSH1 0x20 DUP3 ADD SWAP1 POP SWAP3 SWAP2 POP POP JUMP JUMPDEST PUSH1 0x0 JUMPDEST DUP4 DUP2 LT ISZERO PUSH2 0x10B7 JUMPI DUP1 DUP3 ADD MLOAD DUP2 DUP5 ADD MSTORE PUSH1 0x20 DUP2 ADD SWAP1 POP PUSH2 0x109C JUMP JUMPDEST PUSH1 0x0 DUP5 DUP5 ADD MSTORE POP POP POP POP JUMP JUMPDEST PUSH1 0x0 PUSH2 0x10CE DUP3 PUSH2 0x107D JUMP JUMPDEST PUSH2 0x10D8 DUP2 DUP6 PUSH2 0x1088 JUMP JUMPDEST SWAP4 POP PUSH2 0x10E8 DUP2 DUP6 PUSH1 0x20 DUP7 ADD PUSH2 0x1099 JUMP JUMPDEST PUSH2 0x10F1 DUP2 PUSH2 0xE58 JUMP JUMPDEST DUP5 ADD SWAP2 POP POP SWAP3 SWAP2 POP POP JUMP JUMPDEST PUSH1 0x0 PUSH1 0x60 DUP3 ADD SWAP1 POP DUP2 DUP2 SUB PUSH1 0x0 DUP4 ADD MSTORE PUSH2 0x1116 DUP2 DUP7 PUSH2 0x10C3 JUMP JUMPDEST SWAP1 POP DUP2 DUP2 SUB PUSH1 0x20 DUP4 ADD MSTORE PUSH2 0x112A DUP2 DUP6 PUSH2 0x10C3 JUMP JUMPDEST SWAP1 POP PUSH2 0x1139 PUSH1 0x40 DUP4 ADD DUP5 PUSH2 0xD8A JUMP JUMPDEST SWAP5 SWAP4 POP POP POP POP JUMP JUMPDEST PUSH32 0x4E487B7100000000000000000000000000000000000000000000000000000000 PUSH1 0x0 MSTORE PUSH1 0x51 PUSH1 0x4 MSTORE PUSH1 0x24 PUSH1 0x0 REVERT INVALID LOG2 PUSH5 0x6970667358 0x22 SLT KECCAK256 0xF6 0x21 0xB2 SWAP3 PUSH9 0x6A8EBAC65E4C6688D9 LOG4 DUP11 CODECOPY PUSH25 0x53C9A72597AD0B5668F58353981464736F6C634300081C0033 "},"methodIdentifiers":{"BALANCE10000()":"7aa78615","BALANCE1000000()":"d41a41ba","BALANCE50000()":"a3a9bc33","BALANCE500000()":"ed719cf8","MAX_EXCESS_USAGE_RATIO()":"a9c622f8","OPTIMAL_USAGE_RATIO()":"54c365c6","SLOPESIZE()":"b1b06485","calculateInterestRates((uint256,uint256,uint256))":"fdd63ecf","getOptimalUsageRatio()":"a8602e86","getRateSlope1()":"2dd9037b","getRateSlope2()":"75005bb0","getRatebase()":"87f0409d","getSlopeIndex(uint256)":"8567992a"}}}}}