{"contracts/interest/PoolInterestRateStrategy.sol":{"PoolInterestRateStrategy":{"abi":[{"inputs":[{"components":[{"internalType":"uint256","name":"optimalUsageRatio","type":"uint256"},{"internalType":"uint256","name":"rate0","type":"uint256"},{"internalType":"uint256[]","name":"rateSlope1","type":"uint256[]"},{"internalType":"uint256[]","name":"rateSlope2","type":"uint256[]"}],"internalType":"struct PoolInterestRateStrategy.InterestRateStrategyParams","name":"params","type":"tuple"}],"stateMutability":"nonpayable","type":"constructor"},{"inputs":[{"internalType":"uint256","name":"optimalUsageRatio","type":"uint256"}],"name":"InvalidOptimalUsageRate","type":"error"},{"inputs":[],"name":"BALANCE10000","outputs":[{"internalType":"uint256","name":"","type":"uint256"}],"stateMutability":"view","type":"function"},{"inputs":[],"name":"BALANCE1000000","outputs":[{"internalType":"uint256","name":"","type":"uint256"}],"stateMutability":"view","type":"function"},{"inputs":[],"name":"BALANCE5000","outputs":[{"internalType":"uint256","name":"","type":"uint256"}],"stateMutability":"view","type":"function"},{"inputs":[],"name":"BALANCE50000","outputs":[{"internalType":"uint256","name":"","type":"uint256"}],"stateMutability":"view","type":"function"},{"inputs":[],"name":"BALANCE500000","outputs":[{"internalType":"uint256","name":"","type":"uint256"}],"stateMutability":"view","type":"function"},{"inputs":[],"name":"MAX_EXCESS_USAGE_RATIO","outputs":[{"internalType":"uint256","name":"","type":"uint256"}],"stateMutability":"view","type":"function"},{"inputs":[],"name":"OPTIMAL_USAGE_RATIO","outputs":[{"internalType":"uint256","name":"","type":"uint256"}],"stateMutability":"view","type":"function"},{"inputs":[],"name":"SLOPESIZE","outputs":[{"internalType":"uint8","name":"","type":"uint8"}],"stateMutability":"view","type":"function"},{"inputs":[{"components":[{"internalType":"uint256","name":"totalPoolBalance","type":"uint256"},{"internalType":"uint256","name":"totalDebt","type":"uint256"}],"internalType":"struct InterestUtils.CalculateInterestRatesParams","name":"params","type":"tuple"}],"name":"calculateInterestRates","outputs":[{"internalType":"uint256","name":"","type":"uint256"}],"stateMutability":"view","type":"function"},{"inputs":[],"name":"getOptimalUsageRatio","outputs":[{"internalType":"uint256","name":"","type":"uint256"}],"stateMutability":"view","type":"function"},{"inputs":[],"name":"getRateSlope1","outputs":[{"internalType":"uint256[]","name":"","type":"uint256[]"}],"stateMutability":"view","type":"function"},{"inputs":[],"name":"getRateSlope2","outputs":[{"internalType":"uint256[]","name":"","type":"uint256[]"}],"stateMutability":"view","type":"function"},{"inputs":[],"name":"getRatebase","outputs":[{"internalType":"uint256","name":"","type":"uint256"}],"stateMutability":"view","type":"function"},{"inputs":[{"internalType":"uint256","name":"balance","type":"uint256"}],"name":"getSlopeIndex","outputs":[{"internalType":"uint8","name":"","type":"uint8"}],"stateMutability":"view","type":"function"}],"evm":{"bytecode":{"linkReferences":{},"object":"60e060405234801561001057600080fd5b50604051611168380380611168833981810160405281019061003291906103c9565b80600001516b033b2e3c9fd0803ce8000000101561008b5780600001516040517fb90df3f20000000000000000000000000000000000000000000000000000000081526004016100829190610421565b60405180910390fd5b80600001516080818152505080600001516b033b2e3c9fd0803ce80000006100b3919061046b565b60a08181525050806020015160c081815250508060400151600090805190602001906100e0929190610102565b508060600151600190805190602001906100fb929190610102565b505061049f565b82805482825590600052602060002090810192821561013e579160200282015b8281111561013d578251825591602001919060010190610122565b5b50905061014b919061014f565b5090565b5b80821115610168576000816000905550600101610150565b5090565b6000604051905090565b600080fd5b600080fd5b600080fd5b6000601f19601f8301169050919050565b7f4e487b7100000000000000000000000000000000000000000000000000000000600052604160045260246000fd5b6101ce82610185565b810181811067ffffffffffffffff821117156101ed576101ec610196565b5b80604052505050565b600061020061016c565b905061020c82826101c5565b919050565b600080fd5b6000819050919050565b61022981610216565b811461023457600080fd5b50565b60008151905061024681610220565b92915050565b600080fd5b600067ffffffffffffffff82111561026c5761026b610196565b5b602082029050602081019050919050565b600080fd5b600061029561029084610251565b6101f6565b905080838252602082019050602084028301858111156102b8576102b761027d565b5b835b818110156102e157806102cd8882610237565b8452602084019350506020810190506102ba565b5050509392505050565b600082601f830112610300576102ff61024c565b5b8151610310848260208601610282565b91505092915050565b60006080828403121561032f5761032e610180565b5b61033960806101f6565b9050600061034984828501610237565b600083015250602061035d84828501610237565b602083015250604082015167ffffffffffffffff81111561038157610380610211565b5b61038d848285016102eb565b604083015250606082015167ffffffffffffffff8111156103b1576103b0610211565b5b6103bd848285016102eb565b60608301525092915050565b6000602082840312156103df576103de610176565b5b600082015167ffffffffffffffff8111156103fd576103fc61017b565b5b61040984828501610319565b91505092915050565b61041b81610216565b82525050565b60006020820190506104366000830184610412565b92915050565b7f4e487b7100000000000000000000000000000000000000000000000000000000600052601160045260246000fd5b600061047682610216565b915061048183610216565b92508282039050818111156104995761049861043c565b5b92915050565b60805160a05160c051610c706104f86000396000818161032901526106d401526000818161044e015261073f01526000818161041d0152818161046f015281816104f60152818161058301526107190152610c706000f3fe608060405234801561001057600080fd5b50600436106100ea5760003560e01c806387f0409d1161008c578063a9c622f811610066578063a9c622f81461023f578063b1b064851461025d578063d41a41ba1461027b578063ed719cf814610299576100ea565b806387f0409d146101e5578063a3a9bc3314610203578063a8602e8614610221576100ea565b806354c365c6116100c857806354c365c61461015b57806375005bb0146101795780637aa78615146101975780638567992a146101b5576100ea565b80632dd9037b146100ef5780634329759a1461010d5780634ed09c0d1461013d575b600080fd5b6100f76102b7565b6040516101049190610939565b60405180910390f35b61012760048036038101906101229190610a77565b61030f565b6040516101349190610ab3565b60405180910390f35b610145610564565b6040516101529190610ab3565b60405180910390f35b610163610581565b6040516101709190610ab3565b60405180910390f35b6101816105a5565b60405161018e9190610939565b60405180910390f35b61019f6105fd565b6040516101ac9190610ab3565b60405180910390f35b6101cf60048036038101906101ca9190610ace565b61061a565b6040516101dc9190610b17565b60405180910390f35b6101ed6106d0565b6040516101fa9190610ab3565b60405180910390f35b61020b6106f8565b6040516102189190610ab3565b60405180910390f35b610229610715565b6040516102369190610ab3565b60405180910390f35b61024761073d565b6040516102549190610ab3565b60405180910390f35b610265610761565b6040516102729190610b17565b60405180910390f35b610283610766565b6040516102909190610ab3565b60405180910390f35b6102a1610784565b6040516102ae9190610ab3565b60405180910390f35b6060600080548060200260200160405190810160405280929190818152602001828054801561030557602002820191906000526020600020905b8154815260200190600101908083116102f1575b5050505050905090565b6000610319610834565b82602001518160200181815250507f00000000000000000000000000000000000000000000000000000000000000008160400181815250506000610360846000015161061a565b60ff168154811061037457610373610b32565b5b90600052602060002001548160a00181815250506001610397846000015161061a565b60ff16815481106103ab576103aa610b32565b5b90600052602060002001548160c0018181525050600081602001511461041b578260000151816000018181525050806020015181600001516103ed9190610b90565b816080018181525050610411816080015182602001516107a290919063ffffffff16565b8160600181815250505b7f0000000000000000000000000000000000000000000000000000000000000000816060015111156104f15760006104ab7f00000000000000000000000000000000000000000000000000000000000000007f0000000000000000000000000000000000000000000000000000000000000000846060015161049d9190610bc4565b6107a290919063ffffffff16565b90506104c4818360c001516107e990919063ffffffff16565b8260a001516104d39190610b90565b826040018181516104e49190610b90565b9150818152505050610557565b61053e7f000000000000000000000000000000000000000000000000000000000000000061053083606001518460a001516107e990919063ffffffff16565b6107a290919063ffffffff16565b8160400181815161054f9190610b90565b915081815250505b8060400151915050919050565b6b033b2e3c9fd0803ce800000061138861057e9190610bf8565b81565b7f000000000000000000000000000000000000000000000000000000000000000081565b606060018054806020026020016040519081016040528092919081815260200182805480156105f357602002820191906000526020600020905b8154815260200190600101908083116105df575b5050505050905090565b6b033b2e3c9fd0803ce80000006127106106179190610bf8565b81565b60006b033b2e3c9fd0803ce80000006127106106369190610bf8565b82101561064657600090506106cb565b6b033b2e3c9fd0803ce800000061c3506106609190610bf8565b82101561067057600190506106cb565b6b033b2e3c9fd0803ce80000006207a12061068b9190610bf8565b82101561069b57600290506106cb565b6b033b2e3c9fd0803ce8000000620f42406106b69190610bf8565b8210156106c657600390506106cb565b600490505b919050565b60007f0000000000000000000000000000000000000000000000000000000000000000905090565b6b033b2e3c9fd0803ce800000061c3506107129190610bf8565b81565b60007f0000000000000000000000000000000000000000000000000000000000000000905090565b7f000000000000000000000000000000000000000000000000000000000000000081565b600681565b6b033b2e3c9fd0803ce8000000620f42406107819190610bf8565b81565b6b033b2e3c9fd0803ce80000006207a12061079f9190610bf8565b81565b60006b033b2e3c9fd0803ce800000060028304600019030483111515821517156107cb57600080fd5b81600283046b033b2e3c9fd0803ce800000085020104905092915050565b6000816b019d971e4fe8401e74000000600019030483111582151761080d57600080fd5b6b033b2e3c9fd0803ce80000006b019d971e4fe8401e740000008385020104905092915050565b6040518060e00160405280600081526020016000815260200160008152602001600081526020016000815260200160008152602001600081525090565b600081519050919050565b600082825260208201905092915050565b6000819050602082019050919050565b6000819050919050565b6108b08161089d565b82525050565b60006108c283836108a7565b60208301905092915050565b6000602082019050919050565b60006108e682610871565b6108f0818561087c565b93506108fb8361088d565b8060005b8381101561092c57815161091388826108b6565b975061091e836108ce565b9250506001810190506108ff565b5085935050505092915050565b6000602082019050818103600083015261095381846108db565b905092915050565b6000604051905090565b600080fd5b600080fd5b6000601f19601f8301169050919050565b7f4e487b7100000000000000000000000000000000000000000000000000000000600052604160045260246000fd5b6109b88261096f565b810181811067ffffffffffffffff821117156109d7576109d6610980565b5b80604052505050565b60006109ea61095b565b90506109f682826109af565b919050565b610a048161089d565b8114610a0f57600080fd5b50565b600081359050610a21816109fb565b92915050565b600060408284031215610a3d57610a3c61096a565b5b610a4760406109e0565b90506000610a5784828501610a12565b6000830152506020610a6b84828501610a12565b60208301525092915050565b600060408284031215610a8d57610a8c610965565b5b6000610a9b84828501610a27565b91505092915050565b610aad8161089d565b82525050565b6000602082019050610ac86000830184610aa4565b92915050565b600060208284031215610ae457610ae3610965565b5b6000610af284828501610a12565b91505092915050565b600060ff82169050919050565b610b1181610afb565b82525050565b6000602082019050610b2c6000830184610b08565b92915050565b7f4e487b7100000000000000000000000000000000000000000000000000000000600052603260045260246000fd5b7f4e487b7100000000000000000000000000000000000000000000000000000000600052601160045260246000fd5b6000610b9b8261089d565b9150610ba68361089d565b9250828201905080821115610bbe57610bbd610b61565b5b92915050565b6000610bcf8261089d565b9150610bda8361089d565b9250828203905081811115610bf257610bf1610b61565b5b92915050565b6000610c038261089d565b9150610c0e8361089d565b9250828202610c1c8161089d565b91508282048414831517610c3357610c32610b61565b5b509291505056fea26469706673582212203edae8e8a3920a6228a2d28dd631505298a0295b9aa8de7ec84a2408a00baf9d64736f6c634300081b0033","opcodes":"PUSH1 0xE0 PUSH1 0x40 MSTORE CALLVALUE DUP1 ISZERO PUSH2 0x10 JUMPI PUSH1 0x0 DUP1 REVERT JUMPDEST POP PUSH1 0x40 MLOAD PUSH2 0x1168 CODESIZE SUB DUP1 PUSH2 0x1168 DUP4 CODECOPY DUP2 DUP2 ADD PUSH1 0x40 MSTORE DUP2 ADD SWAP1 PUSH2 0x32 SWAP2 SWAP1 PUSH2 0x3C9 JUMP JUMPDEST DUP1 PUSH1 0x0 ADD MLOAD PUSH12 0x33B2E3C9FD0803CE8000000 LT ISZERO PUSH2 0x8B JUMPI DUP1 PUSH1 0x0 ADD MLOAD PUSH1 0x40 MLOAD PUSH32 0xB90DF3F200000000000000000000000000000000000000000000000000000000 DUP2 MSTORE PUSH1 0x4 ADD PUSH2 0x82 SWAP2 SWAP1 PUSH2 0x421 JUMP JUMPDEST PUSH1 0x40 MLOAD DUP1 SWAP2 SUB SWAP1 REVERT JUMPDEST DUP1 PUSH1 0x0 ADD MLOAD PUSH1 0x80 DUP2 DUP2 MSTORE POP POP DUP1 PUSH1 0x0 ADD MLOAD PUSH12 0x33B2E3C9FD0803CE8000000 PUSH2 0xB3 SWAP2 SWAP1 PUSH2 0x46B JUMP JUMPDEST PUSH1 0xA0 DUP2 DUP2 MSTORE POP POP DUP1 PUSH1 0x20 ADD MLOAD PUSH1 0xC0 DUP2 DUP2 MSTORE POP POP DUP1 PUSH1 0x40 ADD MLOAD PUSH1 0x0 SWAP1 DUP1 MLOAD SWAP1 PUSH1 0x20 ADD SWAP1 PUSH2 0xE0 SWAP3 SWAP2 SWAP1 PUSH2 0x102 JUMP JUMPDEST POP DUP1 PUSH1 0x60 ADD MLOAD PUSH1 0x1 SWAP1 DUP1 MLOAD SWAP1 PUSH1 0x20 ADD SWAP1 PUSH2 0xFB SWAP3 SWAP2 SWAP1 PUSH2 0x102 JUMP JUMPDEST POP POP PUSH2 0x49F JUMP JUMPDEST DUP3 DUP1 SLOAD DUP3 DUP3 SSTORE SWAP1 PUSH1 0x0 MSTORE PUSH1 0x20 PUSH1 0x0 KECCAK256 SWAP1 DUP2 ADD SWAP3 DUP3 ISZERO PUSH2 0x13E JUMPI SWAP2 PUSH1 0x20 MUL DUP3 ADD JUMPDEST DUP3 DUP2 GT ISZERO PUSH2 0x13D JUMPI DUP3 MLOAD DUP3 SSTORE SWAP2 PUSH1 0x20 ADD SWAP2 SWAP1 PUSH1 0x1 ADD SWAP1 PUSH2 0x122 JUMP JUMPDEST JUMPDEST POP SWAP1 POP PUSH2 0x14B SWAP2 SWAP1 PUSH2 0x14F JUMP JUMPDEST POP SWAP1 JUMP JUMPDEST JUMPDEST DUP1 DUP3 GT ISZERO PUSH2 0x168 JUMPI PUSH1 0x0 DUP2 PUSH1 0x0 SWAP1 SSTORE POP PUSH1 0x1 ADD PUSH2 0x150 JUMP JUMPDEST POP SWAP1 JUMP JUMPDEST PUSH1 0x0 PUSH1 0x40 MLOAD SWAP1 POP SWAP1 JUMP JUMPDEST PUSH1 0x0 DUP1 REVERT JUMPDEST PUSH1 0x0 DUP1 REVERT JUMPDEST PUSH1 0x0 DUP1 REVERT JUMPDEST PUSH1 0x0 PUSH1 0x1F NOT PUSH1 0x1F DUP4 ADD AND SWAP1 POP SWAP2 SWAP1 POP JUMP JUMPDEST PUSH32 0x4E487B7100000000000000000000000000000000000000000000000000000000 PUSH1 0x0 MSTORE PUSH1 0x41 PUSH1 0x4 MSTORE PUSH1 0x24 PUSH1 0x0 REVERT JUMPDEST PUSH2 0x1CE DUP3 PUSH2 0x185 JUMP JUMPDEST DUP2 ADD DUP2 DUP2 LT PUSH8 0xFFFFFFFFFFFFFFFF DUP3 GT OR ISZERO PUSH2 0x1ED JUMPI PUSH2 0x1EC PUSH2 0x196 JUMP JUMPDEST JUMPDEST DUP1 PUSH1 0x40 MSTORE POP POP POP JUMP JUMPDEST PUSH1 0x0 PUSH2 0x200 PUSH2 0x16C JUMP JUMPDEST SWAP1 POP PUSH2 0x20C DUP3 DUP3 PUSH2 0x1C5 JUMP JUMPDEST SWAP2 SWAP1 POP JUMP JUMPDEST PUSH1 0x0 DUP1 REVERT JUMPDEST PUSH1 0x0 DUP2 SWAP1 POP SWAP2 SWAP1 POP JUMP JUMPDEST PUSH2 0x229 DUP2 PUSH2 0x216 JUMP JUMPDEST DUP2 EQ PUSH2 0x234 JUMPI PUSH1 0x0 DUP1 REVERT JUMPDEST POP JUMP JUMPDEST PUSH1 0x0 DUP2 MLOAD SWAP1 POP PUSH2 0x246 DUP2 PUSH2 0x220 JUMP JUMPDEST SWAP3 SWAP2 POP POP JUMP JUMPDEST PUSH1 0x0 DUP1 REVERT JUMPDEST PUSH1 0x0 PUSH8 0xFFFFFFFFFFFFFFFF DUP3 GT ISZERO PUSH2 0x26C JUMPI PUSH2 0x26B PUSH2 0x196 JUMP JUMPDEST JUMPDEST PUSH1 0x20 DUP3 MUL SWAP1 POP PUSH1 0x20 DUP2 ADD SWAP1 POP SWAP2 SWAP1 POP JUMP JUMPDEST PUSH1 0x0 DUP1 REVERT JUMPDEST PUSH1 0x0 PUSH2 0x295 PUSH2 0x290 DUP5 PUSH2 0x251 JUMP JUMPDEST PUSH2 0x1F6 JUMP JUMPDEST SWAP1 POP DUP1 DUP4 DUP3 MSTORE PUSH1 0x20 DUP3 ADD SWAP1 POP PUSH1 0x20 DUP5 MUL DUP4 ADD DUP6 DUP2 GT ISZERO PUSH2 0x2B8 JUMPI PUSH2 0x2B7 PUSH2 0x27D JUMP JUMPDEST JUMPDEST DUP4 JUMPDEST DUP2 DUP2 LT ISZERO PUSH2 0x2E1 JUMPI DUP1 PUSH2 0x2CD DUP9 DUP3 PUSH2 0x237 JUMP JUMPDEST DUP5 MSTORE PUSH1 0x20 DUP5 ADD SWAP4 POP POP PUSH1 0x20 DUP2 ADD SWAP1 POP PUSH2 0x2BA JUMP JUMPDEST POP POP POP SWAP4 SWAP3 POP POP POP JUMP JUMPDEST PUSH1 0x0 DUP3 PUSH1 0x1F DUP4 ADD SLT PUSH2 0x300 JUMPI PUSH2 0x2FF PUSH2 0x24C JUMP JUMPDEST JUMPDEST DUP2 MLOAD PUSH2 0x310 DUP5 DUP3 PUSH1 0x20 DUP7 ADD PUSH2 0x282 JUMP JUMPDEST SWAP2 POP POP SWAP3 SWAP2 POP POP JUMP JUMPDEST PUSH1 0x0 PUSH1 0x80 DUP3 DUP5 SUB SLT ISZERO PUSH2 0x32F JUMPI PUSH2 0x32E PUSH2 0x180 JUMP JUMPDEST JUMPDEST PUSH2 0x339 PUSH1 0x80 PUSH2 0x1F6 JUMP JUMPDEST SWAP1 POP PUSH1 0x0 PUSH2 0x349 DUP5 DUP3 DUP6 ADD PUSH2 0x237 JUMP JUMPDEST PUSH1 0x0 DUP4 ADD MSTORE POP PUSH1 0x20 PUSH2 0x35D DUP5 DUP3 DUP6 ADD PUSH2 0x237 JUMP JUMPDEST PUSH1 0x20 DUP4 ADD MSTORE POP PUSH1 0x40 DUP3 ADD MLOAD PUSH8 0xFFFFFFFFFFFFFFFF DUP2 GT ISZERO PUSH2 0x381 JUMPI PUSH2 0x380 PUSH2 0x211 JUMP JUMPDEST JUMPDEST PUSH2 0x38D DUP5 DUP3 DUP6 ADD PUSH2 0x2EB JUMP JUMPDEST PUSH1 0x40 DUP4 ADD MSTORE POP PUSH1 0x60 DUP3 ADD MLOAD PUSH8 0xFFFFFFFFFFFFFFFF DUP2 GT ISZERO PUSH2 0x3B1 JUMPI PUSH2 0x3B0 PUSH2 0x211 JUMP JUMPDEST JUMPDEST PUSH2 0x3BD DUP5 DUP3 DUP6 ADD PUSH2 0x2EB JUMP JUMPDEST PUSH1 0x60 DUP4 ADD MSTORE POP SWAP3 SWAP2 POP POP JUMP JUMPDEST PUSH1 0x0 PUSH1 0x20 DUP3 DUP5 SUB SLT ISZERO PUSH2 0x3DF JUMPI PUSH2 0x3DE PUSH2 0x176 JUMP JUMPDEST JUMPDEST PUSH1 0x0 DUP3 ADD MLOAD PUSH8 0xFFFFFFFFFFFFFFFF DUP2 GT ISZERO PUSH2 0x3FD JUMPI PUSH2 0x3FC PUSH2 0x17B JUMP JUMPDEST JUMPDEST PUSH2 0x409 DUP5 DUP3 DUP6 ADD PUSH2 0x319 JUMP JUMPDEST SWAP2 POP POP SWAP3 SWAP2 POP POP JUMP JUMPDEST PUSH2 0x41B DUP2 PUSH2 0x216 JUMP JUMPDEST DUP3 MSTORE POP POP JUMP JUMPDEST PUSH1 0x0 PUSH1 0x20 DUP3 ADD SWAP1 POP PUSH2 0x436 PUSH1 0x0 DUP4 ADD DUP5 PUSH2 0x412 JUMP JUMPDEST SWAP3 SWAP2 POP POP JUMP JUMPDEST PUSH32 0x4E487B7100000000000000000000000000000000000000000000000000000000 PUSH1 0x0 MSTORE PUSH1 0x11 PUSH1 0x4 MSTORE PUSH1 0x24 PUSH1 0x0 REVERT JUMPDEST PUSH1 0x0 PUSH2 0x476 DUP3 PUSH2 0x216 JUMP JUMPDEST SWAP2 POP PUSH2 0x481 DUP4 PUSH2 0x216 JUMP JUMPDEST SWAP3 POP DUP3 DUP3 SUB SWAP1 POP DUP2 DUP2 GT ISZERO PUSH2 0x499 JUMPI PUSH2 0x498 PUSH2 0x43C JUMP JUMPDEST JUMPDEST SWAP3 SWAP2 POP POP JUMP JUMPDEST PUSH1 0x80 MLOAD PUSH1 0xA0 MLOAD PUSH1 0xC0 MLOAD PUSH2 0xC70 PUSH2 0x4F8 PUSH1 0x0 CODECOPY PUSH1 0x0 DUP2 DUP2 PUSH2 0x329 ADD MSTORE PUSH2 0x6D4 ADD MSTORE PUSH1 0x0 DUP2 DUP2 PUSH2 0x44E ADD MSTORE PUSH2 0x73F ADD MSTORE PUSH1 0x0 DUP2 DUP2 PUSH2 0x41D ADD MSTORE DUP2 DUP2 PUSH2 0x46F ADD MSTORE DUP2 DUP2 PUSH2 0x4F6 ADD MSTORE DUP2 DUP2 PUSH2 0x583 ADD MSTORE PUSH2 0x719 ADD MSTORE PUSH2 0xC70 PUSH1 0x0 RETURN INVALID PUSH1 0x80 PUSH1 0x40 MSTORE CALLVALUE DUP1 ISZERO PUSH2 0x10 JUMPI PUSH1 0x0 DUP1 REVERT JUMPDEST POP PUSH1 0x4 CALLDATASIZE LT PUSH2 0xEA JUMPI PUSH1 0x0 CALLDATALOAD PUSH1 0xE0 SHR DUP1 PUSH4 0x87F0409D GT PUSH2 0x8C JUMPI DUP1 PUSH4 0xA9C622F8 GT PUSH2 0x66 JUMPI DUP1 PUSH4 0xA9C622F8 EQ PUSH2 0x23F JUMPI DUP1 PUSH4 0xB1B06485 EQ PUSH2 0x25D JUMPI DUP1 PUSH4 0xD41A41BA EQ PUSH2 0x27B JUMPI DUP1 PUSH4 0xED719CF8 EQ PUSH2 0x299 JUMPI PUSH2 0xEA JUMP JUMPDEST DUP1 PUSH4 0x87F0409D EQ PUSH2 0x1E5 JUMPI DUP1 PUSH4 0xA3A9BC33 EQ PUSH2 0x203 JUMPI DUP1 PUSH4 0xA8602E86 EQ PUSH2 0x221 JUMPI PUSH2 0xEA JUMP JUMPDEST DUP1 PUSH4 0x54C365C6 GT PUSH2 0xC8 JUMPI DUP1 PUSH4 0x54C365C6 EQ PUSH2 0x15B JUMPI DUP1 PUSH4 0x75005BB0 EQ PUSH2 0x179 JUMPI DUP1 PUSH4 0x7AA78615 EQ PUSH2 0x197 JUMPI DUP1 PUSH4 0x8567992A EQ PUSH2 0x1B5 JUMPI PUSH2 0xEA JUMP JUMPDEST DUP1 PUSH4 0x2DD9037B EQ PUSH2 0xEF JUMPI DUP1 PUSH4 0x4329759A EQ PUSH2 0x10D JUMPI DUP1 PUSH4 0x4ED09C0D EQ PUSH2 0x13D JUMPI JUMPDEST PUSH1 0x0 DUP1 REVERT JUMPDEST PUSH2 0xF7 PUSH2 0x2B7 JUMP JUMPDEST PUSH1 0x40 MLOAD PUSH2 0x104 SWAP2 SWAP1 PUSH2 0x939 JUMP JUMPDEST PUSH1 0x40 MLOAD DUP1 SWAP2 SUB SWAP1 RETURN JUMPDEST PUSH2 0x127 PUSH1 0x4 DUP1 CALLDATASIZE SUB DUP2 ADD SWAP1 PUSH2 0x122 SWAP2 SWAP1 PUSH2 0xA77 JUMP JUMPDEST PUSH2 0x30F JUMP JUMPDEST PUSH1 0x40 MLOAD PUSH2 0x134 SWAP2 SWAP1 PUSH2 0xAB3 JUMP JUMPDEST PUSH1 0x40 MLOAD DUP1 SWAP2 SUB SWAP1 RETURN JUMPDEST PUSH2 0x145 PUSH2 0x564 JUMP JUMPDEST PUSH1 0x40 MLOAD PUSH2 0x152 SWAP2 SWAP1 PUSH2 0xAB3 JUMP JUMPDEST PUSH1 0x40 MLOAD DUP1 SWAP2 SUB SWAP1 RETURN JUMPDEST PUSH2 0x163 PUSH2 0x581 JUMP JUMPDEST PUSH1 0x40 MLOAD PUSH2 0x170 SWAP2 SWAP1 PUSH2 0xAB3 JUMP JUMPDEST PUSH1 0x40 MLOAD DUP1 SWAP2 SUB SWAP1 RETURN JUMPDEST PUSH2 0x181 PUSH2 0x5A5 JUMP JUMPDEST PUSH1 0x40 MLOAD PUSH2 0x18E SWAP2 SWAP1 PUSH2 0x939 JUMP JUMPDEST PUSH1 0x40 MLOAD DUP1 SWAP2 SUB SWAP1 RETURN JUMPDEST PUSH2 0x19F PUSH2 0x5FD JUMP JUMPDEST PUSH1 0x40 MLOAD PUSH2 0x1AC SWAP2 SWAP1 PUSH2 0xAB3 JUMP JUMPDEST PUSH1 0x40 MLOAD DUP1 SWAP2 SUB SWAP1 RETURN JUMPDEST PUSH2 0x1CF PUSH1 0x4 DUP1 CALLDATASIZE SUB DUP2 ADD SWAP1 PUSH2 0x1CA SWAP2 SWAP1 PUSH2 0xACE JUMP JUMPDEST PUSH2 0x61A JUMP JUMPDEST PUSH1 0x40 MLOAD PUSH2 0x1DC SWAP2 SWAP1 PUSH2 0xB17 JUMP JUMPDEST PUSH1 0x40 MLOAD DUP1 SWAP2 SUB SWAP1 RETURN JUMPDEST PUSH2 0x1ED PUSH2 0x6D0 JUMP JUMPDEST PUSH1 0x40 MLOAD PUSH2 0x1FA SWAP2 SWAP1 PUSH2 0xAB3 JUMP JUMPDEST PUSH1 0x40 MLOAD DUP1 SWAP2 SUB SWAP1 RETURN JUMPDEST PUSH2 0x20B PUSH2 0x6F8 JUMP JUMPDEST PUSH1 0x40 MLOAD PUSH2 0x218 SWAP2 SWAP1 PUSH2 0xAB3 JUMP JUMPDEST PUSH1 0x40 MLOAD DUP1 SWAP2 SUB SWAP1 RETURN JUMPDEST PUSH2 0x229 PUSH2 0x715 JUMP JUMPDEST PUSH1 0x40 MLOAD PUSH2 0x236 SWAP2 SWAP1 PUSH2 0xAB3 JUMP JUMPDEST PUSH1 0x40 MLOAD DUP1 SWAP2 SUB SWAP1 RETURN JUMPDEST PUSH2 0x247 PUSH2 0x73D JUMP JUMPDEST PUSH1 0x40 MLOAD PUSH2 0x254 SWAP2 SWAP1 PUSH2 0xAB3 JUMP JUMPDEST PUSH1 0x40 MLOAD DUP1 SWAP2 SUB SWAP1 RETURN JUMPDEST PUSH2 0x265 PUSH2 0x761 JUMP JUMPDEST PUSH1 0x40 MLOAD PUSH2 0x272 SWAP2 SWAP1 PUSH2 0xB17 JUMP JUMPDEST PUSH1 0x40 MLOAD DUP1 SWAP2 SUB SWAP1 RETURN JUMPDEST PUSH2 0x283 PUSH2 0x766 JUMP JUMPDEST PUSH1 0x40 MLOAD PUSH2 0x290 SWAP2 SWAP1 PUSH2 0xAB3 JUMP JUMPDEST PUSH1 0x40 MLOAD DUP1 SWAP2 SUB SWAP1 RETURN JUMPDEST PUSH2 0x2A1 PUSH2 0x784 JUMP JUMPDEST PUSH1 0x40 MLOAD PUSH2 0x2AE SWAP2 SWAP1 PUSH2 0xAB3 JUMP JUMPDEST PUSH1 0x40 MLOAD DUP1 SWAP2 SUB SWAP1 RETURN JUMPDEST PUSH1 0x60 PUSH1 0x0 DUP1 SLOAD DUP1 PUSH1 0x20 MUL PUSH1 0x20 ADD PUSH1 0x40 MLOAD SWAP1 DUP2 ADD PUSH1 0x40 MSTORE DUP1 SWAP3 SWAP2 SWAP1 DUP2 DUP2 MSTORE PUSH1 0x20 ADD DUP3 DUP1 SLOAD DUP1 ISZERO PUSH2 0x305 JUMPI PUSH1 0x20 MUL DUP3 ADD SWAP2 SWAP1 PUSH1 0x0 MSTORE PUSH1 0x20 PUSH1 0x0 KECCAK256 SWAP1 JUMPDEST DUP2 SLOAD DUP2 MSTORE PUSH1 0x20 ADD SWAP1 PUSH1 0x1 ADD SWAP1 DUP1 DUP4 GT PUSH2 0x2F1 JUMPI JUMPDEST POP POP POP POP POP SWAP1 POP SWAP1 JUMP JUMPDEST PUSH1 0x0 PUSH2 0x319 PUSH2 0x834 JUMP JUMPDEST DUP3 PUSH1 0x20 ADD MLOAD DUP2 PUSH1 0x20 ADD DUP2 DUP2 MSTORE POP POP PUSH32 0x0 DUP2 PUSH1 0x40 ADD DUP2 DUP2 MSTORE POP POP PUSH1 0x0 PUSH2 0x360 DUP5 PUSH1 0x0 ADD MLOAD PUSH2 0x61A JUMP JUMPDEST PUSH1 0xFF AND DUP2 SLOAD DUP2 LT PUSH2 0x374 JUMPI PUSH2 0x373 PUSH2 0xB32 JUMP JUMPDEST JUMPDEST SWAP1 PUSH1 0x0 MSTORE PUSH1 0x20 PUSH1 0x0 KECCAK256 ADD SLOAD DUP2 PUSH1 0xA0 ADD DUP2 DUP2 MSTORE POP POP PUSH1 0x1 PUSH2 0x397 DUP5 PUSH1 0x0 ADD MLOAD PUSH2 0x61A JUMP JUMPDEST PUSH1 0xFF AND DUP2 SLOAD DUP2 LT PUSH2 0x3AB JUMPI PUSH2 0x3AA PUSH2 0xB32 JUMP JUMPDEST JUMPDEST SWAP1 PUSH1 0x0 MSTORE PUSH1 0x20 PUSH1 0x0 KECCAK256 ADD SLOAD DUP2 PUSH1 0xC0 ADD DUP2 DUP2 MSTORE POP POP PUSH1 0x0 DUP2 PUSH1 0x20 ADD MLOAD EQ PUSH2 0x41B JUMPI DUP3 PUSH1 0x0 ADD MLOAD DUP2 PUSH1 0x0 ADD DUP2 DUP2 MSTORE POP POP DUP1 PUSH1 0x20 ADD MLOAD DUP2 PUSH1 0x0 ADD MLOAD PUSH2 0x3ED SWAP2 SWAP1 PUSH2 0xB90 JUMP JUMPDEST DUP2 PUSH1 0x80 ADD DUP2 DUP2 MSTORE POP POP PUSH2 0x411 DUP2 PUSH1 0x80 ADD MLOAD DUP3 PUSH1 0x20 ADD MLOAD PUSH2 0x7A2 SWAP1 SWAP2 SWAP1 PUSH4 0xFFFFFFFF AND JUMP JUMPDEST DUP2 PUSH1 0x60 ADD DUP2 DUP2 MSTORE POP POP JUMPDEST PUSH32 0x0 DUP2 PUSH1 0x60 ADD MLOAD GT ISZERO PUSH2 0x4F1 JUMPI PUSH1 0x0 PUSH2 0x4AB PUSH32 0x0 PUSH32 0x0 DUP5 PUSH1 0x60 ADD MLOAD PUSH2 0x49D SWAP2 SWAP1 PUSH2 0xBC4 JUMP JUMPDEST PUSH2 0x7A2 SWAP1 SWAP2 SWAP1 PUSH4 0xFFFFFFFF AND JUMP JUMPDEST SWAP1 POP PUSH2 0x4C4 DUP2 DUP4 PUSH1 0xC0 ADD MLOAD PUSH2 0x7E9 SWAP1 SWAP2 SWAP1 PUSH4 0xFFFFFFFF AND JUMP JUMPDEST DUP3 PUSH1 0xA0 ADD MLOAD PUSH2 0x4D3 SWAP2 SWAP1 PUSH2 0xB90 JUMP JUMPDEST DUP3 PUSH1 0x40 ADD DUP2 DUP2 MLOAD PUSH2 0x4E4 SWAP2 SWAP1 PUSH2 0xB90 JUMP JUMPDEST SWAP2 POP DUP2 DUP2 MSTORE POP POP POP PUSH2 0x557 JUMP JUMPDEST PUSH2 0x53E PUSH32 0x0 PUSH2 0x530 DUP4 PUSH1 0x60 ADD MLOAD DUP5 PUSH1 0xA0 ADD MLOAD PUSH2 0x7E9 SWAP1 SWAP2 SWAP1 PUSH4 0xFFFFFFFF AND JUMP JUMPDEST PUSH2 0x7A2 SWAP1 SWAP2 SWAP1 PUSH4 0xFFFFFFFF AND JUMP JUMPDEST DUP2 PUSH1 0x40 ADD DUP2 DUP2 MLOAD PUSH2 0x54F SWAP2 SWAP1 PUSH2 0xB90 JUMP JUMPDEST SWAP2 POP DUP2 DUP2 MSTORE POP POP JUMPDEST DUP1 PUSH1 0x40 ADD MLOAD SWAP2 POP POP SWAP2 SWAP1 POP JUMP JUMPDEST PUSH12 0x33B2E3C9FD0803CE8000000 PUSH2 0x1388 PUSH2 0x57E SWAP2 SWAP1 PUSH2 0xBF8 JUMP JUMPDEST DUP2 JUMP JUMPDEST PUSH32 0x0 DUP2 JUMP JUMPDEST PUSH1 0x60 PUSH1 0x1 DUP1 SLOAD DUP1 PUSH1 0x20 MUL PUSH1 0x20 ADD PUSH1 0x40 MLOAD SWAP1 DUP2 ADD PUSH1 0x40 MSTORE DUP1 SWAP3 SWAP2 SWAP1 DUP2 DUP2 MSTORE PUSH1 0x20 ADD DUP3 DUP1 SLOAD DUP1 ISZERO PUSH2 0x5F3 JUMPI PUSH1 0x20 MUL DUP3 ADD SWAP2 SWAP1 PUSH1 0x0 MSTORE PUSH1 0x20 PUSH1 0x0 KECCAK256 SWAP1 JUMPDEST DUP2 SLOAD DUP2 MSTORE PUSH1 0x20 ADD SWAP1 PUSH1 0x1 ADD SWAP1 DUP1 DUP4 GT PUSH2 0x5DF JUMPI JUMPDEST POP POP POP POP POP SWAP1 POP SWAP1 JUMP JUMPDEST PUSH12 0x33B2E3C9FD0803CE8000000 PUSH2 0x2710 PUSH2 0x617 SWAP2 SWAP1 PUSH2 0xBF8 JUMP JUMPDEST DUP2 JUMP JUMPDEST PUSH1 0x0 PUSH12 0x33B2E3C9FD0803CE8000000 PUSH2 0x2710 PUSH2 0x636 SWAP2 SWAP1 PUSH2 0xBF8 JUMP JUMPDEST DUP3 LT ISZERO PUSH2 0x646 JUMPI PUSH1 0x0 SWAP1 POP PUSH2 0x6CB JUMP JUMPDEST PUSH12 0x33B2E3C9FD0803CE8000000 PUSH2 0xC350 PUSH2 0x660 SWAP2 SWAP1 PUSH2 0xBF8 JUMP JUMPDEST DUP3 LT ISZERO PUSH2 0x670 JUMPI PUSH1 0x1 SWAP1 POP PUSH2 0x6CB JUMP JUMPDEST PUSH12 0x33B2E3C9FD0803CE8000000 PUSH3 0x7A120 PUSH2 0x68B SWAP2 SWAP1 PUSH2 0xBF8 JUMP JUMPDEST DUP3 LT ISZERO PUSH2 0x69B JUMPI PUSH1 0x2 SWAP1 POP PUSH2 0x6CB JUMP JUMPDEST PUSH12 0x33B2E3C9FD0803CE8000000 PUSH3 0xF4240 PUSH2 0x6B6 SWAP2 SWAP1 PUSH2 0xBF8 JUMP JUMPDEST DUP3 LT ISZERO PUSH2 0x6C6 JUMPI PUSH1 0x3 SWAP1 POP PUSH2 0x6CB JUMP JUMPDEST PUSH1 0x4 SWAP1 POP JUMPDEST SWAP2 SWAP1 POP JUMP JUMPDEST PUSH1 0x0 PUSH32 0x0 SWAP1 POP SWAP1 JUMP JUMPDEST PUSH12 0x33B2E3C9FD0803CE8000000 PUSH2 0xC350 PUSH2 0x712 SWAP2 SWAP1 PUSH2 0xBF8 JUMP JUMPDEST DUP2 JUMP JUMPDEST PUSH1 0x0 PUSH32 0x0 SWAP1 POP SWAP1 JUMP JUMPDEST PUSH32 0x0 DUP2 JUMP JUMPDEST PUSH1 0x6 DUP2 JUMP JUMPDEST PUSH12 0x33B2E3C9FD0803CE8000000 PUSH3 0xF4240 PUSH2 0x781 SWAP2 SWAP1 PUSH2 0xBF8 JUMP JUMPDEST DUP2 JUMP JUMPDEST PUSH12 0x33B2E3C9FD0803CE8000000 PUSH3 0x7A120 PUSH2 0x79F SWAP2 SWAP1 PUSH2 0xBF8 JUMP JUMPDEST DUP2 JUMP JUMPDEST PUSH1 0x0 PUSH12 0x33B2E3C9FD0803CE8000000 PUSH1 0x2 DUP4 DIV PUSH1 0x0 NOT SUB DIV DUP4 GT ISZERO ISZERO DUP3 ISZERO OR ISZERO PUSH2 0x7CB JUMPI PUSH1 0x0 DUP1 REVERT JUMPDEST DUP2 PUSH1 0x2 DUP4 DIV PUSH12 0x33B2E3C9FD0803CE8000000 DUP6 MUL ADD DIV SWAP1 POP SWAP3 SWAP2 POP POP JUMP JUMPDEST PUSH1 0x0 DUP2 PUSH12 0x19D971E4FE8401E74000000 PUSH1 0x0 NOT SUB DIV DUP4 GT ISZERO DUP3 ISZERO OR PUSH2 0x80D JUMPI PUSH1 0x0 DUP1 REVERT JUMPDEST PUSH12 0x33B2E3C9FD0803CE8000000 PUSH12 0x19D971E4FE8401E74000000 DUP4 DUP6 MUL ADD DIV SWAP1 POP SWAP3 SWAP2 POP POP JUMP JUMPDEST PUSH1 0x40 MLOAD DUP1 PUSH1 0xE0 ADD PUSH1 0x40 MSTORE DUP1 PUSH1 0x0 DUP2 MSTORE PUSH1 0x20 ADD PUSH1 0x0 DUP2 MSTORE PUSH1 0x20 ADD PUSH1 0x0 DUP2 MSTORE PUSH1 0x20 ADD PUSH1 0x0 DUP2 MSTORE PUSH1 0x20 ADD PUSH1 0x0 DUP2 MSTORE PUSH1 0x20 ADD PUSH1 0x0 DUP2 MSTORE PUSH1 0x20 ADD PUSH1 0x0 DUP2 MSTORE POP SWAP1 JUMP JUMPDEST PUSH1 0x0 DUP2 MLOAD SWAP1 POP SWAP2 SWAP1 POP JUMP JUMPDEST PUSH1 0x0 DUP3 DUP3 MSTORE PUSH1 0x20 DUP3 ADD SWAP1 POP SWAP3 SWAP2 POP POP JUMP JUMPDEST PUSH1 0x0 DUP2 SWAP1 POP PUSH1 0x20 DUP3 ADD SWAP1 POP SWAP2 SWAP1 POP JUMP JUMPDEST PUSH1 0x0 DUP2 SWAP1 POP SWAP2 SWAP1 POP JUMP JUMPDEST PUSH2 0x8B0 DUP2 PUSH2 0x89D JUMP JUMPDEST DUP3 MSTORE POP POP JUMP JUMPDEST PUSH1 0x0 PUSH2 0x8C2 DUP4 DUP4 PUSH2 0x8A7 JUMP JUMPDEST PUSH1 0x20 DUP4 ADD SWAP1 POP SWAP3 SWAP2 POP POP JUMP JUMPDEST PUSH1 0x0 PUSH1 0x20 DUP3 ADD SWAP1 POP SWAP2 SWAP1 POP JUMP JUMPDEST PUSH1 0x0 PUSH2 0x8E6 DUP3 PUSH2 0x871 JUMP JUMPDEST PUSH2 0x8F0 DUP2 DUP6 PUSH2 0x87C JUMP JUMPDEST SWAP4 POP PUSH2 0x8FB DUP4 PUSH2 0x88D JUMP JUMPDEST DUP1 PUSH1 0x0 JUMPDEST DUP4 DUP2 LT ISZERO PUSH2 0x92C JUMPI DUP2 MLOAD PUSH2 0x913 DUP9 DUP3 PUSH2 0x8B6 JUMP JUMPDEST SWAP8 POP PUSH2 0x91E DUP4 PUSH2 0x8CE JUMP JUMPDEST SWAP3 POP POP PUSH1 0x1 DUP2 ADD SWAP1 POP PUSH2 0x8FF JUMP JUMPDEST POP DUP6 SWAP4 POP POP POP POP SWAP3 SWAP2 POP POP JUMP JUMPDEST PUSH1 0x0 PUSH1 0x20 DUP3 ADD SWAP1 POP DUP2 DUP2 SUB PUSH1 0x0 DUP4 ADD MSTORE PUSH2 0x953 DUP2 DUP5 PUSH2 0x8DB JUMP JUMPDEST SWAP1 POP SWAP3 SWAP2 POP POP JUMP JUMPDEST PUSH1 0x0 PUSH1 0x40 MLOAD SWAP1 POP SWAP1 JUMP JUMPDEST PUSH1 0x0 DUP1 REVERT JUMPDEST PUSH1 0x0 DUP1 REVERT JUMPDEST PUSH1 0x0 PUSH1 0x1F NOT PUSH1 0x1F DUP4 ADD AND SWAP1 POP SWAP2 SWAP1 POP JUMP JUMPDEST PUSH32 0x4E487B7100000000000000000000000000000000000000000000000000000000 PUSH1 0x0 MSTORE PUSH1 0x41 PUSH1 0x4 MSTORE PUSH1 0x24 PUSH1 0x0 REVERT JUMPDEST PUSH2 0x9B8 DUP3 PUSH2 0x96F JUMP JUMPDEST DUP2 ADD DUP2 DUP2 LT PUSH8 0xFFFFFFFFFFFFFFFF DUP3 GT OR ISZERO PUSH2 0x9D7 JUMPI PUSH2 0x9D6 PUSH2 0x980 JUMP JUMPDEST JUMPDEST DUP1 PUSH1 0x40 MSTORE POP POP POP JUMP JUMPDEST PUSH1 0x0 PUSH2 0x9EA PUSH2 0x95B JUMP JUMPDEST SWAP1 POP PUSH2 0x9F6 DUP3 DUP3 PUSH2 0x9AF JUMP JUMPDEST SWAP2 SWAP1 POP JUMP JUMPDEST PUSH2 0xA04 DUP2 PUSH2 0x89D JUMP JUMPDEST DUP2 EQ PUSH2 0xA0F JUMPI PUSH1 0x0 DUP1 REVERT JUMPDEST POP JUMP JUMPDEST PUSH1 0x0 DUP2 CALLDATALOAD SWAP1 POP PUSH2 0xA21 DUP2 PUSH2 0x9FB JUMP JUMPDEST SWAP3 SWAP2 POP POP JUMP JUMPDEST PUSH1 0x0 PUSH1 0x40 DUP3 DUP5 SUB SLT ISZERO PUSH2 0xA3D JUMPI PUSH2 0xA3C PUSH2 0x96A JUMP JUMPDEST JUMPDEST PUSH2 0xA47 PUSH1 0x40 PUSH2 0x9E0 JUMP JUMPDEST SWAP1 POP PUSH1 0x0 PUSH2 0xA57 DUP5 DUP3 DUP6 ADD PUSH2 0xA12 JUMP JUMPDEST PUSH1 0x0 DUP4 ADD MSTORE POP PUSH1 0x20 PUSH2 0xA6B DUP5 DUP3 DUP6 ADD PUSH2 0xA12 JUMP JUMPDEST PUSH1 0x20 DUP4 ADD MSTORE POP SWAP3 SWAP2 POP POP JUMP JUMPDEST PUSH1 0x0 PUSH1 0x40 DUP3 DUP5 SUB SLT ISZERO PUSH2 0xA8D JUMPI PUSH2 0xA8C PUSH2 0x965 JUMP JUMPDEST JUMPDEST PUSH1 0x0 PUSH2 0xA9B DUP5 DUP3 DUP6 ADD PUSH2 0xA27 JUMP JUMPDEST SWAP2 POP POP SWAP3 SWAP2 POP POP JUMP JUMPDEST PUSH2 0xAAD DUP2 PUSH2 0x89D JUMP JUMPDEST DUP3 MSTORE POP POP JUMP JUMPDEST PUSH1 0x0 PUSH1 0x20 DUP3 ADD SWAP1 POP PUSH2 0xAC8 PUSH1 0x0 DUP4 ADD DUP5 PUSH2 0xAA4 JUMP JUMPDEST SWAP3 SWAP2 POP POP JUMP JUMPDEST PUSH1 0x0 PUSH1 0x20 DUP3 DUP5 SUB SLT ISZERO PUSH2 0xAE4 JUMPI PUSH2 0xAE3 PUSH2 0x965 JUMP JUMPDEST JUMPDEST PUSH1 0x0 PUSH2 0xAF2 DUP5 DUP3 DUP6 ADD PUSH2 0xA12 JUMP JUMPDEST SWAP2 POP POP SWAP3 SWAP2 POP POP JUMP JUMPDEST PUSH1 0x0 PUSH1 0xFF DUP3 AND SWAP1 POP SWAP2 SWAP1 POP JUMP JUMPDEST PUSH2 0xB11 DUP2 PUSH2 0xAFB JUMP JUMPDEST DUP3 MSTORE POP POP JUMP JUMPDEST PUSH1 0x0 PUSH1 0x20 DUP3 ADD SWAP1 POP PUSH2 0xB2C PUSH1 0x0 DUP4 ADD DUP5 PUSH2 0xB08 JUMP JUMPDEST SWAP3 SWAP2 POP POP JUMP JUMPDEST PUSH32 0x4E487B7100000000000000000000000000000000000000000000000000000000 PUSH1 0x0 MSTORE PUSH1 0x32 PUSH1 0x4 MSTORE PUSH1 0x24 PUSH1 0x0 REVERT JUMPDEST PUSH32 0x4E487B7100000000000000000000000000000000000000000000000000000000 PUSH1 0x0 MSTORE PUSH1 0x11 PUSH1 0x4 MSTORE PUSH1 0x24 PUSH1 0x0 REVERT JUMPDEST PUSH1 0x0 PUSH2 0xB9B DUP3 PUSH2 0x89D JUMP JUMPDEST SWAP2 POP PUSH2 0xBA6 DUP4 PUSH2 0x89D JUMP JUMPDEST SWAP3 POP DUP3 DUP3 ADD SWAP1 POP DUP1 DUP3 GT ISZERO PUSH2 0xBBE JUMPI PUSH2 0xBBD PUSH2 0xB61 JUMP JUMPDEST JUMPDEST SWAP3 SWAP2 POP POP JUMP JUMPDEST PUSH1 0x0 PUSH2 0xBCF DUP3 PUSH2 0x89D JUMP JUMPDEST SWAP2 POP PUSH2 0xBDA DUP4 PUSH2 0x89D JUMP JUMPDEST SWAP3 POP DUP3 DUP3 SUB SWAP1 POP DUP2 DUP2 GT ISZERO PUSH2 0xBF2 JUMPI PUSH2 0xBF1 PUSH2 0xB61 JUMP JUMPDEST JUMPDEST SWAP3 SWAP2 POP POP JUMP JUMPDEST PUSH1 0x0 PUSH2 0xC03 DUP3 PUSH2 0x89D JUMP JUMPDEST SWAP2 POP PUSH2 0xC0E DUP4 PUSH2 0x89D JUMP JUMPDEST SWAP3 POP DUP3 DUP3 MUL PUSH2 0xC1C DUP2 PUSH2 0x89D JUMP JUMPDEST SWAP2 POP DUP3 DUP3 DIV DUP5 EQ DUP4 ISZERO OR PUSH2 0xC33 JUMPI PUSH2 0xC32 PUSH2 0xB61 JUMP JUMPDEST JUMPDEST POP SWAP3 SWAP2 POP POP JUMP INVALID LOG2 PUSH5 0x6970667358 0x22 SLT KECCAK256 RETURNDATACOPY 0xDA 0xE8 0xE8 LOG3 SWAP3 EXP PUSH3 0x28A2D2 DUP14 0xD6 BALANCE POP MSTORE SWAP9 LOG0 0x29 JUMPDEST SWAP11 0xA8 0xDE PUSH31 0xC84A2408A00BAF9D64736F6C634300081B0033000000000000000000000000 "},"methodIdentifiers":{"BALANCE10000()":"7aa78615","BALANCE1000000()":"d41a41ba","BALANCE5000()":"4ed09c0d","BALANCE50000()":"a3a9bc33","BALANCE500000()":"ed719cf8","MAX_EXCESS_USAGE_RATIO()":"a9c622f8","OPTIMAL_USAGE_RATIO()":"54c365c6","SLOPESIZE()":"b1b06485","calculateInterestRates((uint256,uint256))":"4329759a","getOptimalUsageRatio()":"a8602e86","getRateSlope1()":"2dd9037b","getRateSlope2()":"75005bb0","getRatebase()":"87f0409d","getSlopeIndex(uint256)":"8567992a"}}}}}