{
  "_format": "hh-sol-artifact-1",
  "contractName": "TwapStoreUtils",
  "sourceName": "contracts/twap/TwapStoreUtils.sol",
  "abi": [
    {
      "inputs": [],
      "name": "TWAP_AVERAGE_PRICE",
      "outputs": [
        {
          "internalType": "bytes32",
          "name": "",
          "type": "bytes32"
        }
      ],
      "stateMutability": "view",
      "type": "function"
    },
    {
      "inputs": [],
      "name": "TWAP_LAST_BLOCK_TIME_STAMP",
      "outputs": [
        {
          "internalType": "bytes32",
          "name": "",
          "type": "bytes32"
        }
      ],
      "stateMutability": "view",
      "type": "function"
    },
    {
      "inputs": [],
      "name": "TWAP_LAST_BLOCK_TIME_STAMP_BY_PERIOD",
      "outputs": [
        {
          "internalType": "bytes32",
          "name": "",
          "type": "bytes32"
        }
      ],
      "stateMutability": "view",
      "type": "function"
    },
    {
      "inputs": [],
      "name": "TWAP_LAST_PRICE_CUMMULATIVE_KEY",
      "outputs": [
        {
          "internalType": "bytes32",
          "name": "",
          "type": "bytes32"
        }
      ],
      "stateMutability": "view",
      "type": "function"
    },
    {
      "inputs": [],
      "name": "TWAP_LAST_PRICE_CUMMULATIVE_KEY_BY_PERIOD",
      "outputs": [
        {
          "internalType": "bytes32",
          "name": "",
          "type": "bytes32"
        }
      ],
      "stateMutability": "view",
      "type": "function"
    },
    {
      "inputs": [],
      "name": "TWAP_PERIOD",
      "outputs": [
        {
          "internalType": "bytes32",
          "name": "",
          "type": "bytes32"
        }
      ],
      "stateMutability": "view",
      "type": "function"
    }
  ],
  "bytecode": "0x610564610052600b82828239805160001a6073146045577f4e487b7100000000000000000000000000000000000000000000000000000000600052600060045260246000fd5b30600052607381538281f3fe730000000000000000000000000000000000000000301460806040526004361061006c5760003560e01c80631d6048961461007157806351634c8b1461008f5780636f817dc6146100ad5780637ca25184146100cb578063e1fd4eb6146100e9578063fd910c0614610107575b600080fd5b610079610125565b604051610086919061022e565b60405180910390f35b61009761014d565b6040516100a4919061022e565b60405180910390f35b6100b5610175565b6040516100c2919061022e565b60405180910390f35b6100d361019d565b6040516100e0919061022e565b60405180910390f35b6100f16101c5565b6040516100fe919061022e565b60405180910390f35b61010f6101ed565b60405161011c919061022e565b60405180910390f35b604051602001610134906102a6565b6040516020818303038152906040528051906020012081565b60405160200161015c90610338565b6040516020818303038152906040528051906020012081565b604051602001610184906103a4565b6040516020818303038152906040528051906020012081565b6040516020016101ac90610410565b6040516020818303038152906040528051906020012081565b6040516020016101d4906104a2565b6040516020818303038152906040528051906020012081565b6040516020016101fc9061050e565b6040516020818303038152906040528051906020012081565b6000819050919050565b61022881610215565b82525050565b6000602082019050610243600083018461021f565b92915050565b600082825260208201905092915050565b7f545741505f4c4153545f50524943455f43554d4d554c41544956455f4b455900600082015250565b6000610290601f83610249565b915061029b8261025a565b602082019050919050565b600060208201905081810360008301526102bf81610283565b9050919050565b7f545741505f4c4153545f424c4f434b5f54494d455f5354414d505f42595f504560008201527f52494f4400000000000000000000000000000000000000000000000000000000602082015250565b6000610322602483610249565b915061032d826102c6565b604082019050919050565b6000602082019050818103600083015261035181610315565b9050919050565b7f545741505f4c4153545f424c4f434b5f54494d455f5354414d50000000000000600082015250565b600061038e601a83610249565b915061039982610358565b602082019050919050565b600060208201905081810360008301526103bd81610381565b9050919050565b7f545741505f504552494f44000000000000000000000000000000000000000000600082015250565b60006103fa600b83610249565b9150610405826103c4565b602082019050919050565b60006020820190508181036000830152610429816103ed565b9050919050565b7f545741505f4c4153545f50524943455f43554d4d554c41544956455f4b45595f60008201527f42595f504552494f440000000000000000000000000000000000000000000000602082015250565b600061048c602983610249565b915061049782610430565b604082019050919050565b600060208201905081810360008301526104bb8161047f565b9050919050565b7f545741505f415645524147455f50524943450000000000000000000000000000600082015250565b60006104f8601283610249565b9150610503826104c2565b602082019050919050565b60006020820190508181036000830152610527816104eb565b905091905056fea2646970667358221220b5254afbcd84584664f3a19e0852aedb278bbf62cc3124055dde9e20deb2282e64736f6c634300081c0033",
  "linkReferences": {},
  "deployedLinkReferences": {}
}