{
  "_format": "hh-sol-artifact-1",
  "contractName": "ExchangeRouter",
  "sourceName": "contracts/router/ExchangeRouter.sol",
  "abi": [
    {
      "inputs": [
        {
          "internalType": "contract Router",
          "name": "_router",
          "type": "address"
        },
        {
          "internalType": "contract RoleStore",
          "name": "_roleStore",
          "type": "address"
        },
        {
          "internalType": "contract DataStore",
          "name": "_dataStore",
          "type": "address"
        },
        {
          "internalType": "contract ILiquidityHandler",
          "name": "_liquidityHandler",
          "type": "address"
        },
        {
          "internalType": "contract ISwapHandler",
          "name": "_swapHandler",
          "type": "address"
        },
        {
          "internalType": "contract IDepositHandler",
          "name": "_depositHandler",
          "type": "address"
        },
        {
          "internalType": "contract IBorrowHandler",
          "name": "_borrowHandler",
          "type": "address"
        },
        {
          "internalType": "contract IRepayHandler",
          "name": "_repayHandler",
          "type": "address"
        },
        {
          "internalType": "contract IWithdrawHandler",
          "name": "_withdrawHandler",
          "type": "address"
        },
        {
          "internalType": "contract ILiquidationHandler",
          "name": "_liquidationHandler",
          "type": "address"
        },
        {
          "internalType": "contract ICloseHandler",
          "name": "_closeHandler",
          "type": "address"
        }
      ],
      "stateMutability": "nonpayable",
      "type": "constructor"
    },
    {
      "inputs": [],
      "name": "EmptyReceiver",
      "type": "error"
    },
    {
      "inputs": [],
      "name": "ReentrancyGuardReentrantCall",
      "type": "error"
    },
    {
      "inputs": [],
      "name": "borrowHandler",
      "outputs": [
        {
          "internalType": "contract IBorrowHandler",
          "name": "",
          "type": "address"
        }
      ],
      "stateMutability": "view",
      "type": "function"
    },
    {
      "inputs": [],
      "name": "closeHandler",
      "outputs": [
        {
          "internalType": "contract ICloseHandler",
          "name": "",
          "type": "address"
        }
      ],
      "stateMutability": "view",
      "type": "function"
    },
    {
      "inputs": [],
      "name": "dataStore",
      "outputs": [
        {
          "internalType": "contract DataStore",
          "name": "",
          "type": "address"
        }
      ],
      "stateMutability": "view",
      "type": "function"
    },
    {
      "inputs": [],
      "name": "depositHandler",
      "outputs": [
        {
          "internalType": "contract IDepositHandler",
          "name": "",
          "type": "address"
        }
      ],
      "stateMutability": "view",
      "type": "function"
    },
    {
      "inputs": [
        {
          "components": [
            {
              "internalType": "address",
              "name": "token0",
              "type": "address"
            },
            {
              "internalType": "address",
              "name": "token1",
              "type": "address"
            },
            {
              "internalType": "address",
              "name": "to",
              "type": "address"
            }
          ],
          "internalType": "struct LiquidityUtils.AddParams",
          "name": "params",
          "type": "tuple"
        }
      ],
      "name": "executeAdd",
      "outputs": [],
      "stateMutability": "payable",
      "type": "function"
    },
    {
      "inputs": [
        {
          "components": [
            {
              "internalType": "uint256",
              "name": "positionId",
              "type": "uint256"
            },
            {
              "internalType": "uint8",
              "name": "tokenIndex",
              "type": "uint8"
            },
            {
              "internalType": "uint256",
              "name": "borrowAmount",
              "type": "uint256"
            }
          ],
          "internalType": "struct BorrowUtils.BorrowParams",
          "name": "params",
          "type": "tuple"
        }
      ],
      "name": "executeBorrow",
      "outputs": [],
      "stateMutability": "payable",
      "type": "function"
    },
    {
      "inputs": [
        {
          "components": [
            {
              "internalType": "uint256",
              "name": "positionId",
              "type": "uint256"
            }
          ],
          "internalType": "struct CloseUtils.CloseParams",
          "name": "params",
          "type": "tuple"
        }
      ],
      "name": "executeClose",
      "outputs": [],
      "stateMutability": "payable",
      "type": "function"
    },
    {
      "inputs": [
        {
          "components": [
            {
              "internalType": "uint256",
              "name": "positionId",
              "type": "uint256"
            },
            {
              "internalType": "address",
              "name": "token0",
              "type": "address"
            },
            {
              "internalType": "address",
              "name": "token1",
              "type": "address"
            },
            {
              "internalType": "uint8",
              "name": "tokenIndex",
              "type": "uint8"
            }
          ],
          "internalType": "struct DepositUtils.DepositParams",
          "name": "params",
          "type": "tuple"
        }
      ],
      "name": "executeDeposit",
      "outputs": [],
      "stateMutability": "payable",
      "type": "function"
    },
    {
      "inputs": [
        {
          "components": [
            {
              "internalType": "address",
              "name": "account",
              "type": "address"
            },
            {
              "internalType": "uint256",
              "name": "positionId",
              "type": "uint256"
            }
          ],
          "internalType": "struct LiquidationUtils.LiquidationParams",
          "name": "params",
          "type": "tuple"
        }
      ],
      "name": "executeLiquidation",
      "outputs": [],
      "stateMutability": "payable",
      "type": "function"
    },
    {
      "inputs": [
        {
          "components": [
            {
              "internalType": "address",
              "name": "token0",
              "type": "address"
            },
            {
              "internalType": "address",
              "name": "token1",
              "type": "address"
            },
            {
              "internalType": "uint256",
              "name": "liquidity",
              "type": "uint256"
            },
            {
              "internalType": "address",
              "name": "to",
              "type": "address"
            }
          ],
          "internalType": "struct LiquidityUtils.RemoveParams",
          "name": "params",
          "type": "tuple"
        }
      ],
      "name": "executeRemove",
      "outputs": [],
      "stateMutability": "payable",
      "type": "function"
    },
    {
      "inputs": [
        {
          "components": [
            {
              "internalType": "uint256",
              "name": "positionId",
              "type": "uint256"
            },
            {
              "internalType": "uint8",
              "name": "tokenIndex",
              "type": "uint8"
            },
            {
              "internalType": "uint256",
              "name": "repayAmount",
              "type": "uint256"
            },
            {
              "internalType": "uint8",
              "name": "repayOption",
              "type": "uint8"
            }
          ],
          "internalType": "struct RepayUtils.RepayParams",
          "name": "params",
          "type": "tuple"
        }
      ],
      "name": "executeRepay",
      "outputs": [],
      "stateMutability": "payable",
      "type": "function"
    },
    {
      "inputs": [
        {
          "components": [
            {
              "internalType": "address",
              "name": "token0",
              "type": "address"
            },
            {
              "internalType": "address",
              "name": "token1",
              "type": "address"
            },
            {
              "internalType": "uint256",
              "name": "amount0In",
              "type": "uint256"
            },
            {
              "internalType": "uint256",
              "name": "amount1In",
              "type": "uint256"
            },
            {
              "internalType": "uint256",
              "name": "amount0Out",
              "type": "uint256"
            },
            {
              "internalType": "uint256",
              "name": "amount1Out",
              "type": "uint256"
            },
            {
              "internalType": "address",
              "name": "to",
              "type": "address"
            }
          ],
          "internalType": "struct SwapUtils.SwapParams",
          "name": "params",
          "type": "tuple"
        }
      ],
      "name": "executeSwap",
      "outputs": [],
      "stateMutability": "payable",
      "type": "function"
    },
    {
      "inputs": [
        {
          "components": [
            {
              "internalType": "uint256",
              "name": "positionId",
              "type": "uint256"
            },
            {
              "internalType": "uint256",
              "name": "amount0In",
              "type": "uint256"
            },
            {
              "internalType": "uint256",
              "name": "amount1In",
              "type": "uint256"
            },
            {
              "internalType": "uint256",
              "name": "amount0Out",
              "type": "uint256"
            },
            {
              "internalType": "uint256",
              "name": "amount1Out",
              "type": "uint256"
            }
          ],
          "internalType": "struct SwapUtils.SwapInPositionParams",
          "name": "params",
          "type": "tuple"
        }
      ],
      "name": "executeSwapInPosition",
      "outputs": [],
      "stateMutability": "payable",
      "type": "function"
    },
    {
      "inputs": [
        {
          "components": [
            {
              "internalType": "uint256",
              "name": "positionId",
              "type": "uint256"
            },
            {
              "internalType": "uint8",
              "name": "tokenIndex",
              "type": "uint8"
            },
            {
              "internalType": "uint256",
              "name": "withdrawAmount",
              "type": "uint256"
            },
            {
              "internalType": "address",
              "name": "to",
              "type": "address"
            }
          ],
          "internalType": "struct WithdrawUtils.WithdrawParams",
          "name": "params",
          "type": "tuple"
        }
      ],
      "name": "executeWithdraw",
      "outputs": [],
      "stateMutability": "payable",
      "type": "function"
    },
    {
      "inputs": [],
      "name": "liquidationHandler",
      "outputs": [
        {
          "internalType": "contract ILiquidationHandler",
          "name": "",
          "type": "address"
        }
      ],
      "stateMutability": "view",
      "type": "function"
    },
    {
      "inputs": [],
      "name": "liquidityHandler",
      "outputs": [
        {
          "internalType": "contract ILiquidityHandler",
          "name": "",
          "type": "address"
        }
      ],
      "stateMutability": "view",
      "type": "function"
    },
    {
      "inputs": [
        {
          "internalType": "bytes[]",
          "name": "data",
          "type": "bytes[]"
        }
      ],
      "name": "multicall",
      "outputs": [
        {
          "internalType": "bytes[]",
          "name": "results",
          "type": "bytes[]"
        }
      ],
      "stateMutability": "payable",
      "type": "function"
    },
    {
      "inputs": [],
      "name": "repayHandler",
      "outputs": [
        {
          "internalType": "contract IRepayHandler",
          "name": "",
          "type": "address"
        }
      ],
      "stateMutability": "view",
      "type": "function"
    },
    {
      "inputs": [],
      "name": "roleStore",
      "outputs": [
        {
          "internalType": "contract RoleStore",
          "name": "",
          "type": "address"
        }
      ],
      "stateMutability": "view",
      "type": "function"
    },
    {
      "inputs": [],
      "name": "router",
      "outputs": [
        {
          "internalType": "contract Router",
          "name": "",
          "type": "address"
        }
      ],
      "stateMutability": "view",
      "type": "function"
    },
    {
      "inputs": [
        {
          "internalType": "address",
          "name": "token",
          "type": "address"
        },
        {
          "internalType": "address",
          "name": "receiver",
          "type": "address"
        },
        {
          "internalType": "uint256",
          "name": "amount",
          "type": "uint256"
        }
      ],
      "name": "sendTokens",
      "outputs": [],
      "stateMutability": "payable",
      "type": "function"
    },
    {
      "inputs": [],
      "name": "swapHandler",
      "outputs": [
        {
          "internalType": "contract ISwapHandler",
          "name": "",
          "type": "address"
        }
      ],
      "stateMutability": "view",
      "type": "function"
    },
    {
      "inputs": [],
      "name": "withdrawHandler",
      "outputs": [
        {
          "internalType": "contract IWithdrawHandler",
          "name": "",
          "type": "address"
        }
      ],
      "stateMutability": "view",
      "type": "function"
    }
  ],
  "bytecode": "0x6101e060405234801561001157600080fd5b50604051612aa1380380612aa183398181016040528101906100339190610577565b8a8a8a8160016000819055508073ffffffffffffffffffffffffffffffffffffffff1660808173ffffffffffffffffffffffffffffffffffffffff1681525050508273ffffffffffffffffffffffffffffffffffffffff1660a08173ffffffffffffffffffffffffffffffffffffffff16815250508073ffffffffffffffffffffffffffffffffffffffff1660c08173ffffffffffffffffffffffffffffffffffffffff16815250505050508773ffffffffffffffffffffffffffffffffffffffff1660e08173ffffffffffffffffffffffffffffffffffffffff16815250508673ffffffffffffffffffffffffffffffffffffffff166101008173ffffffffffffffffffffffffffffffffffffffff16815250508573ffffffffffffffffffffffffffffffffffffffff166101208173ffffffffffffffffffffffffffffffffffffffff16815250508473ffffffffffffffffffffffffffffffffffffffff166101408173ffffffffffffffffffffffffffffffffffffffff16815250508373ffffffffffffffffffffffffffffffffffffffff166101608173ffffffffffffffffffffffffffffffffffffffff16815250508273ffffffffffffffffffffffffffffffffffffffff166101808173ffffffffffffffffffffffffffffffffffffffff16815250508173ffffffffffffffffffffffffffffffffffffffff166101a08173ffffffffffffffffffffffffffffffffffffffff16815250508073ffffffffffffffffffffffffffffffffffffffff166101c08173ffffffffffffffffffffffffffffffffffffffff1681525050505050505050505050505061066b565b600080fd5b600073ffffffffffffffffffffffffffffffffffffffff82169050919050565b60006102c68261029b565b9050919050565b60006102d8826102bb565b9050919050565b6102e8816102cd565b81146102f357600080fd5b50565b600081519050610305816102df565b92915050565b6000610316826102bb565b9050919050565b6103268161030b565b811461033157600080fd5b50565b6000815190506103438161031d565b92915050565b6000610354826102bb565b9050919050565b61036481610349565b811461036f57600080fd5b50565b6000815190506103818161035b565b92915050565b6000610392826102bb565b9050919050565b6103a281610387565b81146103ad57600080fd5b50565b6000815190506103bf81610399565b92915050565b60006103d0826102bb565b9050919050565b6103e0816103c5565b81146103eb57600080fd5b50565b6000815190506103fd816103d7565b92915050565b600061040e826102bb565b9050919050565b61041e81610403565b811461042957600080fd5b50565b60008151905061043b81610415565b92915050565b600061044c826102bb565b9050919050565b61045c81610441565b811461046757600080fd5b50565b60008151905061047981610453565b92915050565b600061048a826102bb565b9050919050565b61049a8161047f565b81146104a557600080fd5b50565b6000815190506104b781610491565b92915050565b60006104c8826102bb565b9050919050565b6104d8816104bd565b81146104e357600080fd5b50565b6000815190506104f5816104cf565b92915050565b6000610506826102bb565b9050919050565b610516816104fb565b811461052157600080fd5b50565b6000815190506105338161050d565b92915050565b6000610544826102bb565b9050919050565b61055481610539565b811461055f57600080fd5b50565b6000815190506105718161054b565b92915050565b60008060008060008060008060008060006101608c8e03121561059d5761059c610296565b5b60006105ab8e828f016102f6565b9b505060206105bc8e828f01610334565b9a505060406105cd8e828f01610372565b99505060606105de8e828f016103b0565b98505060806105ef8e828f016103ee565b97505060a06106008e828f0161042c565b96505060c06106118e828f0161046a565b95505060e06106228e828f016104a8565b9450506101006106348e828f016104e6565b9350506101206106468e828f01610524565b9250506101406106588e828f01610562565b9150509295989b509295989b9093969950565b60805160a05160c05160e05161010051610120516101405161016051610180516101a0516101c05161236361073e60003960008181610bf60152610d8c015260008181610b500152610c8f0152600081816104840152610a040152600081816106ef01526108760152600081816107b9015261089a015260008181610601015261085201526000818161055b015281816107880152610aaa0152600081816104b501528181610cb30152610dbd015260006106be015260008181610ced0152610e560152600061069a01526123636000f3fe6080604052600436106101405760003560e01c8063a82ed4ce116100b6578063d25adeb31161006f578063d25adeb31461039e578063d9e08811146103c9578063e6d66ac8146103f4578063ed27afaf14610410578063f3e01a4e1461043b578063f887ea401461045757610140565b8063a82ed4ce146102d3578063ac9650d8146102fe578063ad0c99341461032e578063b18406751461034a578063b610321514610366578063c56d4a2a1461038257610140565b8063660d0d6711610108578063660d0d67146101ef5780637b123bc81461021a5780638a53aaac14610236578063907e7454146102615780639c8b2cfb1461027d5780639d451d0c146102a857610140565b8063083473ef1461014557806321b108cc1461017057806334f5db7e1461018c57806347570cdc146101a85780634a4a7b04146101c4575b600080fd5b34801561015157600080fd5b5061015a610482565b60405161016791906110f8565b60405180910390f35b61018a6004803603810190610185919061114b565b6104a6565b005b6101a660048036038101906101a19190611197565b61054c565b005b6101c260048036038101906101bd91906111e3565b6105f2565b005b3480156101d057600080fd5b506101d9610698565b6040516101e69190611231565b60405180910390f35b3480156101fb57600080fd5b506102046106bc565b604051610211919061126d565b60405180910390f35b610234600480360381019061022f91906112a7565b6106e0565b005b34801561024257600080fd5b5061024b610786565b60405161025891906112f5565b60405180910390f35b61027b6004803603810190610276919061132f565b6107aa565b005b34801561028957600080fd5b50610292610850565b60405161029f919061137d565b60405180910390f35b3480156102b457600080fd5b506102bd610874565b6040516102ca91906113b9565b60405180910390f35b3480156102df57600080fd5b506102e8610898565b6040516102f591906113f5565b60405180910390f35b61031860048036038101906103139190611475565b6108bc565b6040516103259190611614565b60405180910390f35b61034860048036038101906103439190611655565b6109f5565b005b610364600480360381019061035f91906116a1565b610a9b565b005b610380600480360381019061037b91906116ed565b610b41565b005b61039c60048036038101906103979190611739565b610be7565b005b3480156103aa57600080fd5b506103b3610c8d565b6040516103c09190611787565b60405180910390f35b3480156103d557600080fd5b506103de610cb1565b6040516103eb91906117c3565b60405180910390f35b61040e60048036038101906104099190611852565b610cd5565b005b34801561041c57600080fd5b50610425610d8a565b60405161043291906118c6565b60405180910390f35b61045560048036038101906104509190611900565b610dae565b005b34801561046357600080fd5b5061046c610e54565b604051610479919061194e565b60405180910390f35b7f000000000000000000000000000000000000000000000000000000000000000081565b6104ae610e78565b60003390507f000000000000000000000000000000000000000000000000000000000000000073ffffffffffffffffffffffffffffffffffffffff16635ecd44e882846040518363ffffffff1660e01b815260040161050e9291906119f8565b600060405180830381600087803b15801561052857600080fd5b505af115801561053c573d6000803e3d6000fd5b5050505050610549610ebe565b50565b610554610e78565b60003390507f000000000000000000000000000000000000000000000000000000000000000073ffffffffffffffffffffffffffffffffffffffff1663d9c4274282846040518363ffffffff1660e01b81526004016105b4929190611b0d565b600060405180830381600087803b1580156105ce57600080fd5b505af11580156105e2573d6000803e3d6000fd5b50505050506105ef610ebe565b50565b6105fa610e78565b60003390507f000000000000000000000000000000000000000000000000000000000000000073ffffffffffffffffffffffffffffffffffffffff16630f4e5ba182846040518363ffffffff1660e01b815260040161065a929190611c0b565b600060405180830381600087803b15801561067457600080fd5b505af1158015610688573d6000803e3d6000fd5b5050505050610695610ebe565b50565b7f000000000000000000000000000000000000000000000000000000000000000081565b7f000000000000000000000000000000000000000000000000000000000000000081565b6106e8610e78565b60003390507f000000000000000000000000000000000000000000000000000000000000000073ffffffffffffffffffffffffffffffffffffffff166397e318ac82846040518363ffffffff1660e01b8152600401610748929190611ca9565b600060405180830381600087803b15801561076257600080fd5b505af1158015610776573d6000803e3d6000fd5b5050505050610783610ebe565b50565b7f000000000000000000000000000000000000000000000000000000000000000081565b6107b2610e78565b60003390507f000000000000000000000000000000000000000000000000000000000000000073ffffffffffffffffffffffffffffffffffffffff16639a24a66882846040518363ffffffff1660e01b8152600401610812929190611d2c565b600060405180830381600087803b15801561082c57600080fd5b505af1158015610840573d6000803e3d6000fd5b505050505061084d610ebe565b50565b7f000000000000000000000000000000000000000000000000000000000000000081565b7f000000000000000000000000000000000000000000000000000000000000000081565b7f000000000000000000000000000000000000000000000000000000000000000081565b60608282905067ffffffffffffffff8111156108db576108da611d55565b5b60405190808252806020026020018201604052801561090e57816020015b60608152602001906001900390816108f95790505b50905060005b838390508110156109ee576000803073ffffffffffffffffffffffffffffffffffffffff1686868581811061094c5761094b611d84565b5b905060200281019061095e9190611dc2565b60405161096c929190611e64565b600060405180830381855af49150503d80600081146109a7576040519150601f19603f3d011682016040523d82523d6000602084013e6109ac565b606091505b5091509150816109c0576109bf81610ec8565b5b808484815181106109d4576109d3611d84565b5b602002602001018190525050508080600101915050610914565b5092915050565b6109fd610e78565b60003390507f000000000000000000000000000000000000000000000000000000000000000073ffffffffffffffffffffffffffffffffffffffff1663267badea82846040518363ffffffff1660e01b8152600401610a5d929190611ef2565b600060405180830381600087803b158015610a7757600080fd5b505af1158015610a8b573d6000803e3d6000fd5b5050505050610a98610ebe565b50565b610aa3610e78565b60003390507f000000000000000000000000000000000000000000000000000000000000000073ffffffffffffffffffffffffffffffffffffffff166352b5de3d82846040518363ffffffff1660e01b8152600401610b03929190611fab565b600060405180830381600087803b158015610b1d57600080fd5b505af1158015610b31573d6000803e3d6000fd5b5050505050610b3e610ebe565b50565b610b49610e78565b60003390507f000000000000000000000000000000000000000000000000000000000000000073ffffffffffffffffffffffffffffffffffffffff166383f3d2eb82846040518363ffffffff1660e01b8152600401610ba9929190612013565b600060405180830381600087803b158015610bc357600080fd5b505af1158015610bd7573d6000803e3d6000fd5b5050505050610be4610ebe565b50565b610bef610e78565b60003390507f000000000000000000000000000000000000000000000000000000000000000073ffffffffffffffffffffffffffffffffffffffff1663cf1454c882846040518363ffffffff1660e01b8152600401610c4f929190612060565b600060405180830381600087803b158015610c6957600080fd5b505af1158015610c7d573d6000803e3d6000fd5b5050505050610c8a610ebe565b50565b7f000000000000000000000000000000000000000000000000000000000000000081565b7f000000000000000000000000000000000000000000000000000000000000000081565b610cdd610e78565b610ce682610f29565b60003390507f000000000000000000000000000000000000000000000000000000000000000073ffffffffffffffffffffffffffffffffffffffff16631b827878858386866040518563ffffffff1660e01b8152600401610d4a9493929190612098565b600060405180830381600087803b158015610d6457600080fd5b505af1158015610d78573d6000803e3d6000fd5b5050505050610d85610ebe565b505050565b7f000000000000000000000000000000000000000000000000000000000000000081565b610db6610e78565b60003390507f000000000000000000000000000000000000000000000000000000000000000073ffffffffffffffffffffffffffffffffffffffff16637d237c9982846040518363ffffffff1660e01b8152600401610e16929190612152565b600060405180830381600087803b158015610e3057600080fd5b505af1158015610e44573d6000803e3d6000fd5b5050505050610e51610ebe565b50565b7f000000000000000000000000000000000000000000000000000000000000000081565b600260005403610eb4576040517f3ee5aeb500000000000000000000000000000000000000000000000000000000815260040160405180910390fd5b6002600081905550565b6001600081905550565b600080610ed483610f92565b915091508015610f1b57816040517f08c379a0000000000000000000000000000000000000000000000000000000008152600401610f1291906121d0565b60405180910390fd5b610f2483611059565b505050565b600073ffffffffffffffffffffffffffffffffffffffff168173ffffffffffffffffffffffffffffffffffffffff1603610f8f576040517fd551823d00000000000000000000000000000000000000000000000000000000815260040160405180910390fd5b50565b60606000604483511015610fbc576000604051806020016040528060008152509091509150611054565b6000610fc784611066565b90506308c379a060e01b7bffffffffffffffffffffffffffffffffffffffffffffffffffffffff1916817bffffffffffffffffffffffffffffffffffffffffffffffffffffffff19160361103b576004840193508380602001905181019061102f91906122e4565b60019250925050611054565b6000604051806020016040528060008152509092509250505b915091565b6000815190508060208301fd5b6000806020830151905080915050919050565b600073ffffffffffffffffffffffffffffffffffffffff82169050919050565b6000819050919050565b60006110be6110b96110b484611079565b611099565b611079565b9050919050565b60006110d0826110a3565b9050919050565b60006110e2826110c5565b9050919050565b6110f2816110d7565b82525050565b600060208201905061110d60008301846110e9565b92915050565b6000604051905090565b600080fd5b600080fd5b600080fd5b60006060828403121561114257611141611127565b5b81905092915050565b6000606082840312156111615761116061111d565b5b600061116f8482850161112c565b91505092915050565b600060e0828403121561118e5761118d611127565b5b81905092915050565b600060e082840312156111ad576111ac61111d565b5b60006111bb84828501611178565b91505092915050565b6000608082840312156111da576111d9611127565b5b81905092915050565b6000608082840312156111f9576111f861111d565b5b6000611207848285016111c4565b91505092915050565b600061121b826110c5565b9050919050565b61122b81611210565b82525050565b60006020820190506112466000830184611222565b92915050565b6000611257826110c5565b9050919050565b6112678161124c565b82525050565b6000602082019050611282600083018461125e565b92915050565b60006080828403121561129e5761129d611127565b5b81905092915050565b6000608082840312156112bd576112bc61111d565b5b60006112cb84828501611288565b91505092915050565b60006112df826110c5565b9050919050565b6112ef816112d4565b82525050565b600060208201905061130a60008301846112e6565b92915050565b60006060828403121561132657611325611127565b5b81905092915050565b6000606082840312156113455761134461111d565b5b600061135384828501611310565b91505092915050565b6000611367826110c5565b9050919050565b6113778161135c565b82525050565b6000602082019050611392600083018461136e565b92915050565b60006113a3826110c5565b9050919050565b6113b381611398565b82525050565b60006020820190506113ce60008301846113aa565b92915050565b60006113df826110c5565b9050919050565b6113ef816113d4565b82525050565b600060208201905061140a60008301846113e6565b92915050565b600080fd5b600080fd5b600080fd5b60008083601f84011261143557611434611410565b5b8235905067ffffffffffffffff81111561145257611451611415565b5b60208301915083602082028301111561146e5761146d61141a565b5b9250929050565b6000806020838503121561148c5761148b61111d565b5b600083013567ffffffffffffffff8111156114aa576114a9611122565b5b6114b68582860161141f565b92509250509250929050565b600081519050919050565b600082825260208201905092915050565b6000819050602082019050919050565b600081519050919050565b600082825260208201905092915050565b60005b8381101561152857808201518184015260208101905061150d565b60008484015250505050565b6000601f19601f8301169050919050565b6000611550826114ee565b61155a81856114f9565b935061156a81856020860161150a565b61157381611534565b840191505092915050565b600061158a8383611545565b905092915050565b6000602082019050919050565b60006115aa826114c2565b6115b481856114cd565b9350836020820285016115c6856114de565b8060005b8581101561160257848403895281516115e3858261157e565b94506115ee83611592565b925060208a019950506001810190506115ca565b50829750879550505050505092915050565b6000602082019050818103600083015261162e818461159f565b905092915050565b60006080828403121561164c5761164b611127565b5b81905092915050565b60006080828403121561166b5761166a61111d565b5b600061167984828501611636565b91505092915050565b600060a0828403121561169857611697611127565b5b81905092915050565b600060a082840312156116b7576116b661111d565b5b60006116c584828501611682565b91505092915050565b6000604082840312156116e4576116e3611127565b5b81905092915050565b6000604082840312156117035761170261111d565b5b6000611711848285016116ce565b91505092915050565b6000602082840312156117305761172f611127565b5b81905092915050565b60006020828403121561174f5761174e61111d565b5b600061175d8482850161171a565b91505092915050565b6000611771826110c5565b9050919050565b61178181611766565b82525050565b600060208201905061179c6000830184611778565b92915050565b60006117ad826110c5565b9050919050565b6117bd816117a2565b82525050565b60006020820190506117d860008301846117b4565b92915050565b60006117e982611079565b9050919050565b6117f9816117de565b811461180457600080fd5b50565b600081359050611816816117f0565b92915050565b6000819050919050565b61182f8161181c565b811461183a57600080fd5b50565b60008135905061184c81611826565b92915050565b60008060006060848603121561186b5761186a61111d565b5b600061187986828701611807565b935050602061188a86828701611807565b925050604061189b8682870161183d565b9150509250925092565b60006118b0826110c5565b9050919050565b6118c0816118a5565b82525050565b60006020820190506118db60008301846118b7565b92915050565b6000608082840312156118f7576118f6611127565b5b81905092915050565b6000608082840312156119165761191561111d565b5b6000611924848285016118e1565b91505092915050565b6000611938826110c5565b9050919050565b6119488161192d565b82525050565b6000602082019050611963600083018461193f565b92915050565b611972816117de565b82525050565b60006119876020840184611807565b905092915050565b611998816117de565b82525050565b606082016119af6000830183611978565b6119bc600085018261198f565b506119ca6020830183611978565b6119d7602085018261198f565b506119e56040830183611978565b6119f2604085018261198f565b50505050565b6000608082019050611a0d6000830185611969565b611a1a602083018461199e565b9392505050565b6000611a30602084018461183d565b905092915050565b611a418161181c565b82525050565b60e08201611a586000830183611978565b611a65600085018261198f565b50611a736020830183611978565b611a80602085018261198f565b50611a8e6040830183611a21565b611a9b6040850182611a38565b50611aa96060830183611a21565b611ab66060850182611a38565b50611ac46080830183611a21565b611ad16080850182611a38565b50611adf60a0830183611a21565b611aec60a0850182611a38565b50611afa60c0830183611978565b611b0760c085018261198f565b50505050565b600061010082019050611b236000830185611969565b611b306020830184611a47565b9392505050565b600060ff82169050919050565b611b4d81611b37565b8114611b5857600080fd5b50565b600081359050611b6a81611b44565b92915050565b6000611b7f6020840184611b5b565b905092915050565b611b9081611b37565b82525050565b60808201611ba76000830183611a21565b611bb46000850182611a38565b50611bc26020830183611978565b611bcf602085018261198f565b50611bdd6040830183611978565b611bea604085018261198f565b50611bf86060830183611b70565b611c056060850182611b87565b50505050565b600060a082019050611c206000830185611969565b611c2d6020830184611b96565b9392505050565b60808201611c456000830183611a21565b611c526000850182611a38565b50611c606020830183611b70565b611c6d6020850182611b87565b50611c7b6040830183611a21565b611c886040850182611a38565b50611c966060830183611b70565b611ca36060850182611b87565b50505050565b600060a082019050611cbe6000830185611969565b611ccb6020830184611c34565b9392505050565b60608201611ce36000830183611a21565b611cf06000850182611a38565b50611cfe6020830183611b70565b611d0b6020850182611b87565b50611d196040830183611a21565b611d266040850182611a38565b50505050565b6000608082019050611d416000830185611969565b611d4e6020830184611cd2565b9392505050565b7f4e487b7100000000000000000000000000000000000000000000000000000000600052604160045260246000fd5b7f4e487b7100000000000000000000000000000000000000000000000000000000600052603260045260246000fd5b600080fd5b600080fd5b600080fd5b60008083356001602003843603038112611ddf57611dde611db3565b5b80840192508235915067ffffffffffffffff821115611e0157611e00611db8565b5b602083019250600182023603831315611e1d57611e1c611dbd565b5b509250929050565b600081905092915050565b82818337600083830152505050565b6000611e4b8385611e25565b9350611e58838584611e30565b82840190509392505050565b6000611e71828486611e3f565b91508190509392505050565b60808201611e8e6000830183611a21565b611e9b6000850182611a38565b50611ea96020830183611b70565b611eb66020850182611b87565b50611ec46040830183611a21565b611ed16040850182611a38565b50611edf6060830183611978565b611eec606085018261198f565b50505050565b600060a082019050611f076000830185611969565b611f146020830184611e7d565b9392505050565b60a08201611f2c6000830183611a21565b611f396000850182611a38565b50611f476020830183611a21565b611f546020850182611a38565b50611f626040830183611a21565b611f6f6040850182611a38565b50611f7d6060830183611a21565b611f8a6060850182611a38565b50611f986080830183611a21565b611fa56080850182611a38565b50505050565b600060c082019050611fc06000830185611969565b611fcd6020830184611f1b565b9392505050565b60408201611fe56000830183611978565b611ff2600085018261198f565b506120006020830183611a21565b61200d6020850182611a38565b50505050565b60006060820190506120286000830185611969565b6120356020830184611fd4565b9392505050565b6020820161204d6000830183611a21565b61205a6000850182611a38565b50505050565b60006040820190506120756000830185611969565b612082602083018461203c565b9392505050565b6120928161181c565b82525050565b60006080820190506120ad6000830187611969565b6120ba6020830186611969565b6120c76040830185611969565b6120d46060830184612089565b95945050505050565b608082016120ee6000830183611978565b6120fb600085018261198f565b506121096020830183611978565b612116602085018261198f565b506121246040830183611a21565b6121316040850182611a38565b5061213f6060830183611978565b61214c606085018261198f565b50505050565b600060a0820190506121676000830185611969565b61217460208301846120dd565b9392505050565b600081519050919050565b600082825260208201905092915050565b60006121a28261217b565b6121ac8185612186565b93506121bc81856020860161150a565b6121c581611534565b840191505092915050565b600060208201905081810360008301526121ea8184612197565b905092915050565b600080fd5b61220082611534565b810181811067ffffffffffffffff8211171561221f5761221e611d55565b5b80604052505050565b6000612232611113565b905061223e82826121f7565b919050565b600067ffffffffffffffff82111561225e5761225d611d55565b5b61226782611534565b9050602081019050919050565b600061228761228284612243565b612228565b9050828152602081018484840111156122a3576122a26121f2565b5b6122ae84828561150a565b509392505050565b600082601f8301126122cb576122ca611410565b5b81516122db848260208601612274565b91505092915050565b6000602082840312156122fa576122f961111d565b5b600082015167ffffffffffffffff81111561231857612317611122565b5b612324848285016122b6565b9150509291505056fea2646970667358221220a2fc4a8fb254757f634d83cdbc97138eb4271305832451c9392d755c030120be64736f6c634300081c0033",
  "linkReferences": {},
  "deployedLinkReferences": {}
}