{
  "_format": "hh-sol-artifact-1",
  "contractName": "ExchangeRouter",
  "sourceName": "contracts/router/ExchangeRouter.sol",
  "abi": [
    {
      "inputs": [
        {
          "internalType": "contract Router",
          "name": "_router",
          "type": "address"
        },
        {
          "internalType": "contract RoleStore",
          "name": "_roleStore",
          "type": "address"
        },
        {
          "internalType": "contract DataStore",
          "name": "_dataStore",
          "type": "address"
        },
        {
          "internalType": "contract ILiquidityHandler",
          "name": "_liquidityHandler",
          "type": "address"
        },
        {
          "internalType": "contract ISwapHandler",
          "name": "_swapHandler",
          "type": "address"
        },
        {
          "internalType": "contract IDepositHandler",
          "name": "_depositHandler",
          "type": "address"
        },
        {
          "internalType": "contract IBorrowHandler",
          "name": "_borrowHandler",
          "type": "address"
        },
        {
          "internalType": "contract IRepayHandler",
          "name": "_repayHandler",
          "type": "address"
        },
        {
          "internalType": "contract IWithdrawHandler",
          "name": "_withdrawHandler",
          "type": "address"
        },
        {
          "internalType": "contract ILiquidationHandler",
          "name": "_liquidationHandler",
          "type": "address"
        },
        {
          "internalType": "contract ICloseHandler",
          "name": "_closeHandler",
          "type": "address"
        }
      ],
      "stateMutability": "nonpayable",
      "type": "constructor"
    },
    {
      "inputs": [],
      "name": "EmptyReceiver",
      "type": "error"
    },
    {
      "inputs": [],
      "name": "ReentrancyGuardReentrantCall",
      "type": "error"
    },
    {
      "inputs": [
        {
          "internalType": "address",
          "name": "msgSender",
          "type": "address"
        },
        {
          "internalType": "string",
          "name": "role",
          "type": "string"
        }
      ],
      "name": "Unauthorized",
      "type": "error"
    },
    {
      "inputs": [],
      "name": "borrowHandler",
      "outputs": [
        {
          "internalType": "contract IBorrowHandler",
          "name": "",
          "type": "address"
        }
      ],
      "stateMutability": "view",
      "type": "function"
    },
    {
      "inputs": [],
      "name": "closeHandler",
      "outputs": [
        {
          "internalType": "contract ICloseHandler",
          "name": "",
          "type": "address"
        }
      ],
      "stateMutability": "view",
      "type": "function"
    },
    {
      "inputs": [],
      "name": "dataStore",
      "outputs": [
        {
          "internalType": "contract DataStore",
          "name": "",
          "type": "address"
        }
      ],
      "stateMutability": "view",
      "type": "function"
    },
    {
      "inputs": [],
      "name": "depositHandler",
      "outputs": [
        {
          "internalType": "contract IDepositHandler",
          "name": "",
          "type": "address"
        }
      ],
      "stateMutability": "view",
      "type": "function"
    },
    {
      "inputs": [
        {
          "components": [
            {
              "internalType": "address",
              "name": "token0",
              "type": "address"
            },
            {
              "internalType": "address",
              "name": "token1",
              "type": "address"
            },
            {
              "internalType": "address",
              "name": "to",
              "type": "address"
            }
          ],
          "internalType": "struct LiquidityUtils.AddParams",
          "name": "params",
          "type": "tuple"
        }
      ],
      "name": "executeAdd",
      "outputs": [],
      "stateMutability": "payable",
      "type": "function"
    },
    {
      "inputs": [
        {
          "components": [
            {
              "internalType": "uint256",
              "name": "positionId",
              "type": "uint256"
            },
            {
              "internalType": "uint8",
              "name": "tokenIndex",
              "type": "uint8"
            },
            {
              "internalType": "uint256",
              "name": "borrowAmount",
              "type": "uint256"
            }
          ],
          "internalType": "struct BorrowUtils.BorrowParams",
          "name": "params",
          "type": "tuple"
        }
      ],
      "name": "executeBorrow",
      "outputs": [],
      "stateMutability": "payable",
      "type": "function"
    },
    {
      "inputs": [
        {
          "components": [
            {
              "internalType": "uint256",
              "name": "positionId",
              "type": "uint256"
            }
          ],
          "internalType": "struct CloseUtils.CloseParams",
          "name": "params",
          "type": "tuple"
        }
      ],
      "name": "executeClose",
      "outputs": [],
      "stateMutability": "payable",
      "type": "function"
    },
    {
      "inputs": [
        {
          "components": [
            {
              "internalType": "uint256",
              "name": "positionId",
              "type": "uint256"
            },
            {
              "internalType": "address",
              "name": "token0",
              "type": "address"
            },
            {
              "internalType": "address",
              "name": "token1",
              "type": "address"
            },
            {
              "internalType": "uint8",
              "name": "tokenIndex",
              "type": "uint8"
            }
          ],
          "internalType": "struct DepositUtils.DepositParams",
          "name": "params",
          "type": "tuple"
        }
      ],
      "name": "executeDeposit",
      "outputs": [],
      "stateMutability": "payable",
      "type": "function"
    },
    {
      "inputs": [
        {
          "components": [
            {
              "internalType": "address",
              "name": "account",
              "type": "address"
            },
            {
              "internalType": "uint256",
              "name": "positionId",
              "type": "uint256"
            }
          ],
          "internalType": "struct LiquidationUtils.LiquidationParams",
          "name": "params",
          "type": "tuple"
        }
      ],
      "name": "executeLiquidation",
      "outputs": [],
      "stateMutability": "payable",
      "type": "function"
    },
    {
      "inputs": [
        {
          "components": [
            {
              "internalType": "address",
              "name": "account",
              "type": "address"
            },
            {
              "internalType": "uint256",
              "name": "positionId",
              "type": "uint256"
            }
          ],
          "internalType": "struct LiquidationUtils.LiquidationParams[]",
          "name": "params",
          "type": "tuple[]"
        }
      ],
      "name": "executeLiquidationBatch",
      "outputs": [],
      "stateMutability": "payable",
      "type": "function"
    },
    {
      "inputs": [
        {
          "components": [
            {
              "internalType": "address",
              "name": "token0",
              "type": "address"
            },
            {
              "internalType": "address",
              "name": "token1",
              "type": "address"
            },
            {
              "internalType": "uint256",
              "name": "liquidity",
              "type": "uint256"
            },
            {
              "internalType": "address",
              "name": "to",
              "type": "address"
            }
          ],
          "internalType": "struct LiquidityUtils.RemoveParams",
          "name": "params",
          "type": "tuple"
        }
      ],
      "name": "executeRemove",
      "outputs": [],
      "stateMutability": "payable",
      "type": "function"
    },
    {
      "inputs": [
        {
          "components": [
            {
              "internalType": "uint256",
              "name": "positionId",
              "type": "uint256"
            },
            {
              "internalType": "uint8",
              "name": "tokenIndex",
              "type": "uint8"
            },
            {
              "internalType": "uint256",
              "name": "repayAmount",
              "type": "uint256"
            },
            {
              "internalType": "uint8",
              "name": "repayOption",
              "type": "uint8"
            }
          ],
          "internalType": "struct RepayUtils.RepayParams",
          "name": "params",
          "type": "tuple"
        }
      ],
      "name": "executeRepay",
      "outputs": [],
      "stateMutability": "payable",
      "type": "function"
    },
    {
      "inputs": [
        {
          "components": [
            {
              "internalType": "address",
              "name": "token0",
              "type": "address"
            },
            {
              "internalType": "address",
              "name": "token1",
              "type": "address"
            },
            {
              "internalType": "uint256",
              "name": "amount0In",
              "type": "uint256"
            },
            {
              "internalType": "uint256",
              "name": "amount1In",
              "type": "uint256"
            },
            {
              "internalType": "uint256",
              "name": "amount0Out",
              "type": "uint256"
            },
            {
              "internalType": "uint256",
              "name": "amount1Out",
              "type": "uint256"
            },
            {
              "internalType": "address",
              "name": "to",
              "type": "address"
            }
          ],
          "internalType": "struct SwapUtils.SwapParams",
          "name": "params",
          "type": "tuple"
        }
      ],
      "name": "executeSwap",
      "outputs": [],
      "stateMutability": "payable",
      "type": "function"
    },
    {
      "inputs": [
        {
          "components": [
            {
              "internalType": "uint256",
              "name": "positionId",
              "type": "uint256"
            },
            {
              "internalType": "uint256",
              "name": "amount0In",
              "type": "uint256"
            },
            {
              "internalType": "uint256",
              "name": "amount1In",
              "type": "uint256"
            },
            {
              "internalType": "uint256",
              "name": "amount0Out",
              "type": "uint256"
            },
            {
              "internalType": "uint256",
              "name": "amount1Out",
              "type": "uint256"
            }
          ],
          "internalType": "struct SwapUtils.SwapInPositionParams",
          "name": "params",
          "type": "tuple"
        }
      ],
      "name": "executeSwapInPosition",
      "outputs": [],
      "stateMutability": "payable",
      "type": "function"
    },
    {
      "inputs": [
        {
          "components": [
            {
              "internalType": "uint256",
              "name": "positionId",
              "type": "uint256"
            },
            {
              "internalType": "uint8",
              "name": "tokenIndex",
              "type": "uint8"
            },
            {
              "internalType": "uint256",
              "name": "withdrawAmount",
              "type": "uint256"
            },
            {
              "internalType": "address",
              "name": "to",
              "type": "address"
            }
          ],
          "internalType": "struct WithdrawUtils.WithdrawParams",
          "name": "params",
          "type": "tuple"
        }
      ],
      "name": "executeWithdraw",
      "outputs": [],
      "stateMutability": "payable",
      "type": "function"
    },
    {
      "inputs": [],
      "name": "liquidationHandler",
      "outputs": [
        {
          "internalType": "contract ILiquidationHandler",
          "name": "",
          "type": "address"
        }
      ],
      "stateMutability": "view",
      "type": "function"
    },
    {
      "inputs": [],
      "name": "liquidityHandler",
      "outputs": [
        {
          "internalType": "contract ILiquidityHandler",
          "name": "",
          "type": "address"
        }
      ],
      "stateMutability": "view",
      "type": "function"
    },
    {
      "inputs": [
        {
          "internalType": "bytes[]",
          "name": "data",
          "type": "bytes[]"
        }
      ],
      "name": "multicall",
      "outputs": [
        {
          "internalType": "bytes[]",
          "name": "results",
          "type": "bytes[]"
        }
      ],
      "stateMutability": "payable",
      "type": "function"
    },
    {
      "inputs": [],
      "name": "repayHandler",
      "outputs": [
        {
          "internalType": "contract IRepayHandler",
          "name": "",
          "type": "address"
        }
      ],
      "stateMutability": "view",
      "type": "function"
    },
    {
      "inputs": [],
      "name": "roleStore",
      "outputs": [
        {
          "internalType": "contract RoleStore",
          "name": "",
          "type": "address"
        }
      ],
      "stateMutability": "view",
      "type": "function"
    },
    {
      "inputs": [],
      "name": "router",
      "outputs": [
        {
          "internalType": "contract Router",
          "name": "",
          "type": "address"
        }
      ],
      "stateMutability": "view",
      "type": "function"
    },
    {
      "inputs": [
        {
          "internalType": "address",
          "name": "token",
          "type": "address"
        },
        {
          "internalType": "address",
          "name": "receiver",
          "type": "address"
        },
        {
          "internalType": "uint256",
          "name": "amount",
          "type": "uint256"
        }
      ],
      "name": "sendTokens",
      "outputs": [],
      "stateMutability": "payable",
      "type": "function"
    },
    {
      "inputs": [],
      "name": "swapHandler",
      "outputs": [
        {
          "internalType": "contract ISwapHandler",
          "name": "",
          "type": "address"
        }
      ],
      "stateMutability": "view",
      "type": "function"
    },
    {
      "inputs": [],
      "name": "withdrawHandler",
      "outputs": [
        {
          "internalType": "contract IWithdrawHandler",
          "name": "",
          "type": "address"
        }
      ],
      "stateMutability": "view",
      "type": "function"
    }
  ],
  "bytecode": "0x6101e060405234801561001157600080fd5b50604051612f40380380612f4083398181016040528101906100339190610577565b8a8a8a8160016000819055508073ffffffffffffffffffffffffffffffffffffffff1660808173ffffffffffffffffffffffffffffffffffffffff1681525050508273ffffffffffffffffffffffffffffffffffffffff1660a08173ffffffffffffffffffffffffffffffffffffffff16815250508073ffffffffffffffffffffffffffffffffffffffff1660c08173ffffffffffffffffffffffffffffffffffffffff16815250505050508773ffffffffffffffffffffffffffffffffffffffff1660e08173ffffffffffffffffffffffffffffffffffffffff16815250508673ffffffffffffffffffffffffffffffffffffffff166101008173ffffffffffffffffffffffffffffffffffffffff16815250508573ffffffffffffffffffffffffffffffffffffffff166101208173ffffffffffffffffffffffffffffffffffffffff16815250508473ffffffffffffffffffffffffffffffffffffffff166101408173ffffffffffffffffffffffffffffffffffffffff16815250508373ffffffffffffffffffffffffffffffffffffffff166101608173ffffffffffffffffffffffffffffffffffffffff16815250508273ffffffffffffffffffffffffffffffffffffffff166101808173ffffffffffffffffffffffffffffffffffffffff16815250508173ffffffffffffffffffffffffffffffffffffffff166101a08173ffffffffffffffffffffffffffffffffffffffff16815250508073ffffffffffffffffffffffffffffffffffffffff166101c08173ffffffffffffffffffffffffffffffffffffffff1681525050505050505050505050505061066b565b600080fd5b600073ffffffffffffffffffffffffffffffffffffffff82169050919050565b60006102c68261029b565b9050919050565b60006102d8826102bb565b9050919050565b6102e8816102cd565b81146102f357600080fd5b50565b600081519050610305816102df565b92915050565b6000610316826102bb565b9050919050565b6103268161030b565b811461033157600080fd5b50565b6000815190506103438161031d565b92915050565b6000610354826102bb565b9050919050565b61036481610349565b811461036f57600080fd5b50565b6000815190506103818161035b565b92915050565b6000610392826102bb565b9050919050565b6103a281610387565b81146103ad57600080fd5b50565b6000815190506103bf81610399565b92915050565b60006103d0826102bb565b9050919050565b6103e0816103c5565b81146103eb57600080fd5b50565b6000815190506103fd816103d7565b92915050565b600061040e826102bb565b9050919050565b61041e81610403565b811461042957600080fd5b50565b60008151905061043b81610415565b92915050565b600061044c826102bb565b9050919050565b61045c81610441565b811461046757600080fd5b50565b60008151905061047981610453565b92915050565b600061048a826102bb565b9050919050565b61049a8161047f565b81146104a557600080fd5b50565b6000815190506104b781610491565b92915050565b60006104c8826102bb565b9050919050565b6104d8816104bd565b81146104e357600080fd5b50565b6000815190506104f5816104cf565b92915050565b6000610506826102bb565b9050919050565b610516816104fb565b811461052157600080fd5b50565b6000815190506105338161050d565b92915050565b6000610544826102bb565b9050919050565b61055481610539565b811461055f57600080fd5b50565b6000815190506105718161054b565b92915050565b60008060008060008060008060008060006101608c8e03121561059d5761059c610296565b5b60006105ab8e828f016102f6565b9b505060206105bc8e828f01610334565b9a505060406105cd8e828f01610372565b99505060606105de8e828f016103b0565b98505060806105ef8e828f016103ee565b97505060a06106008e828f0161042c565b96505060c06106118e828f0161046a565b95505060e06106228e828f016104a8565b9450506101006106348e828f016104e6565b9350506101206106468e828f01610524565b9250506101406106588e828f01610562565b9150509295989b509295989b9093969950565b60805160a05160c05160e05161010051610120516101405161016051610180516101a0516101c0516127f461074c60003960008181610dbe0152610f5401526000818161093f01528181610d180152610e570152600081816104ab0152610b69015260008181610716015261089d0152600081816107e001526109ff0152600081816106280152610879015260008181610582015281816107af0152610c0f0152600081816104dc01528181610e7b0152610f85015260006106e5015260008181610eb5015261101e0152600081816106c1015261109201526127f46000f3fe60806040526004361061014b5760003560e01c8063a82ed4ce116100b6578063d25adeb31161006f578063d25adeb3146103c5578063d9e08811146103f0578063e6d66ac81461041b578063ed27afaf14610437578063f3e01a4e14610462578063f887ea401461047e5761014b565b8063a82ed4ce146102fa578063ac9650d814610325578063ad0c993414610355578063b184067514610371578063b61032151461038d578063c56d4a2a146103a95761014b565b80637b123bc8116101085780637b123bc8146102255780638a53aaac14610241578063907e74541461026c5780639c8b2cfb146102885780639d451d0c146102b3578063a76718d2146102de5761014b565b8063083473ef1461015057806321b108cc1461017b57806334f5db7e1461019757806347570cdc146101b35780634a4a7b04146101cf578063660d0d67146101fa575b600080fd5b34801561015c57600080fd5b506101656104a9565b60405161017291906113a3565b60405180910390f35b610195600480360381019061019091906113f6565b6104cd565b005b6101b160048036038101906101ac9190611442565b610573565b005b6101cd60048036038101906101c8919061148e565b610619565b005b3480156101db57600080fd5b506101e46106bf565b6040516101f191906114dc565b60405180910390f35b34801561020657600080fd5b5061020f6106e3565b60405161021c9190611518565b60405180910390f35b61023f600480360381019061023a9190611552565b610707565b005b34801561024d57600080fd5b506102566107ad565b60405161026391906115a0565b60405180910390f35b610286600480360381019061028191906115da565b6107d1565b005b34801561029457600080fd5b5061029d610877565b6040516102aa9190611628565b60405180910390f35b3480156102bf57600080fd5b506102c861089b565b6040516102d59190611664565b60405180910390f35b6102f860048036038101906102f391906116e4565b6108bf565b005b34801561030657600080fd5b5061030f6109fd565b60405161031c9190611752565b60405180910390f35b61033f600480360381019061033a91906117c3565b610a21565b60405161034c9190611962565b60405180910390f35b61036f600480360381019061036a91906119a3565b610b5a565b005b61038b600480360381019061038691906119ef565b610c00565b005b6103a760048036038101906103a29190611a3b565b610ca6565b005b6103c360048036038101906103be9190611a87565b610daf565b005b3480156103d157600080fd5b506103da610e55565b6040516103e79190611ad5565b60405180910390f35b3480156103fc57600080fd5b50610405610e79565b6040516104129190611b11565b60405180910390f35b61043560048036038101906104309190611ba0565b610e9d565b005b34801561044357600080fd5b5061044c610f52565b6040516104599190611c14565b60405180910390f35b61047c60048036038101906104779190611c4e565b610f76565b005b34801561048a57600080fd5b5061049361101c565b6040516104a09190611c9c565b60405180910390f35b7f000000000000000000000000000000000000000000000000000000000000000081565b6104d5611040565b60003390507f000000000000000000000000000000000000000000000000000000000000000073ffffffffffffffffffffffffffffffffffffffff16635ecd44e882846040518363ffffffff1660e01b8152600401610535929190611d46565b600060405180830381600087803b15801561054f57600080fd5b505af1158015610563573d6000803e3d6000fd5b5050505050610570611086565b50565b61057b611040565b60003390507f000000000000000000000000000000000000000000000000000000000000000073ffffffffffffffffffffffffffffffffffffffff1663d9c4274282846040518363ffffffff1660e01b81526004016105db929190611e5b565b600060405180830381600087803b1580156105f557600080fd5b505af1158015610609573d6000803e3d6000fd5b5050505050610616611086565b50565b610621611040565b60003390507f000000000000000000000000000000000000000000000000000000000000000073ffffffffffffffffffffffffffffffffffffffff16630f4e5ba182846040518363ffffffff1660e01b8152600401610681929190611f59565b600060405180830381600087803b15801561069b57600080fd5b505af11580156106af573d6000803e3d6000fd5b50505050506106bc611086565b50565b7f000000000000000000000000000000000000000000000000000000000000000081565b7f000000000000000000000000000000000000000000000000000000000000000081565b61070f611040565b60003390507f000000000000000000000000000000000000000000000000000000000000000073ffffffffffffffffffffffffffffffffffffffff166397e318ac82846040518363ffffffff1660e01b815260040161076f929190611ff7565b600060405180830381600087803b15801561078957600080fd5b505af115801561079d573d6000803e3d6000fd5b50505050506107aa611086565b50565b7f000000000000000000000000000000000000000000000000000000000000000081565b6107d9611040565b60003390507f000000000000000000000000000000000000000000000000000000000000000073ffffffffffffffffffffffffffffffffffffffff16639a24a66882846040518363ffffffff1660e01b815260040161083992919061207a565b600060405180830381600087803b15801561085357600080fd5b505af1158015610867573d6000803e3d6000fd5b5050505050610874611086565b50565b7f000000000000000000000000000000000000000000000000000000000000000081565b7f000000000000000000000000000000000000000000000000000000000000000081565b6108c7611040565b61092a6040516020016108d990612100565b604051602081830303815290604052805190602001206040518060400160405280601281526020017f4c49515549444154494f4e5f4b45455045520000000000000000000000000000815250611090565b600033905060005b838390508110156109ef577f000000000000000000000000000000000000000000000000000000000000000073ffffffffffffffffffffffffffffffffffffffff166383f3d2eb8386868581811061098d5761098c612120565b5b9050604002016040518363ffffffff1660e01b81526004016109b092919061218e565b600060405180830381600087803b1580156109ca57600080fd5b505af11580156109de573d6000803e3d6000fd5b505050508080600101915050610932565b50506109f9611086565b5050565b7f000000000000000000000000000000000000000000000000000000000000000081565b60608282905067ffffffffffffffff811115610a4057610a3f6121b7565b5b604051908082528060200260200182016040528015610a7357816020015b6060815260200190600190039081610a5e5790505b50905060005b83839050811015610b53576000803073ffffffffffffffffffffffffffffffffffffffff16868685818110610ab157610ab0612120565b5b9050602002810190610ac391906121f5565b604051610ad1929190612297565b600060405180830381855af49150503d8060008114610b0c576040519150601f19603f3d011682016040523d82523d6000602084013e610b11565b606091505b509150915081610b2557610b2481611173565b5b80848481518110610b3957610b38612120565b5b602002602001018190525050508080600101915050610a79565b5092915050565b610b62611040565b60003390507f000000000000000000000000000000000000000000000000000000000000000073ffffffffffffffffffffffffffffffffffffffff1663267badea82846040518363ffffffff1660e01b8152600401610bc2929190612325565b600060405180830381600087803b158015610bdc57600080fd5b505af1158015610bf0573d6000803e3d6000fd5b5050505050610bfd611086565b50565b610c08611040565b60003390507f000000000000000000000000000000000000000000000000000000000000000073ffffffffffffffffffffffffffffffffffffffff166352b5de3d82846040518363ffffffff1660e01b8152600401610c689291906123de565b600060405180830381600087803b158015610c8257600080fd5b505af1158015610c96573d6000803e3d6000fd5b5050505050610ca3611086565b50565b610cae611040565b610d11604051602001610cc090612100565b604051602081830303815290604052805190602001206040518060400160405280601281526020017f4c49515549444154494f4e5f4b45455045520000000000000000000000000000815250611090565b60003390507f000000000000000000000000000000000000000000000000000000000000000073ffffffffffffffffffffffffffffffffffffffff166383f3d2eb82846040518363ffffffff1660e01b8152600401610d7192919061218e565b600060405180830381600087803b158015610d8b57600080fd5b505af1158015610d9f573d6000803e3d6000fd5b5050505050610dac611086565b50565b610db7611040565b60003390507f000000000000000000000000000000000000000000000000000000000000000073ffffffffffffffffffffffffffffffffffffffff1663cf1454c882846040518363ffffffff1660e01b8152600401610e1792919061242b565b600060405180830381600087803b158015610e3157600080fd5b505af1158015610e45573d6000803e3d6000fd5b5050505050610e52611086565b50565b7f000000000000000000000000000000000000000000000000000000000000000081565b7f000000000000000000000000000000000000000000000000000000000000000081565b610ea5611040565b610eae826111d4565b60003390507f000000000000000000000000000000000000000000000000000000000000000073ffffffffffffffffffffffffffffffffffffffff16631b827878858386866040518563ffffffff1660e01b8152600401610f129493929190612463565b600060405180830381600087803b158015610f2c57600080fd5b505af1158015610f40573d6000803e3d6000fd5b5050505050610f4d611086565b505050565b7f000000000000000000000000000000000000000000000000000000000000000081565b610f7e611040565b60003390507f000000000000000000000000000000000000000000000000000000000000000073ffffffffffffffffffffffffffffffffffffffff16637d237c9982846040518363ffffffff1660e01b8152600401610fde92919061251d565b600060405180830381600087803b158015610ff857600080fd5b505af115801561100c573d6000803e3d6000fd5b5050505050611019611086565b50565b7f000000000000000000000000000000000000000000000000000000000000000081565b60026000540361107c576040517f3ee5aeb500000000000000000000000000000000000000000000000000000000815260040160405180910390fd5b6002600081905550565b6001600081905550565b7f000000000000000000000000000000000000000000000000000000000000000073ffffffffffffffffffffffffffffffffffffffff1663ac4ab3fb33846040518363ffffffff1660e01b81526004016110eb92919061255f565b602060405180830381865afa158015611108573d6000803e3d6000fd5b505050506040513d601f19601f8201168201806040525081019061112c91906125c0565b61116f5733816040517fa35b150b000000000000000000000000000000000000000000000000000000008152600401611166929190612631565b60405180910390fd5b5050565b60008061117f8361123d565b9150915080156111c657816040517f08c379a00000000000000000000000000000000000000000000000000000000081526004016111bd9190612661565b60405180910390fd5b6111cf83611304565b505050565b600073ffffffffffffffffffffffffffffffffffffffff168173ffffffffffffffffffffffffffffffffffffffff160361123a576040517fd551823d00000000000000000000000000000000000000000000000000000000815260040160405180910390fd5b50565b606060006044835110156112675760006040518060200160405280600081525090915091506112ff565b600061127284611311565b90506308c379a060e01b7bffffffffffffffffffffffffffffffffffffffffffffffffffffffff1916817bffffffffffffffffffffffffffffffffffffffffffffffffffffffff1916036112e657600484019350838060200190518101906112da9190612775565b600192509250506112ff565b6000604051806020016040528060008152509092509250505b915091565b6000815190508060208301fd5b6000806020830151905080915050919050565b600073ffffffffffffffffffffffffffffffffffffffff82169050919050565b6000819050919050565b600061136961136461135f84611324565b611344565b611324565b9050919050565b600061137b8261134e565b9050919050565b600061138d82611370565b9050919050565b61139d81611382565b82525050565b60006020820190506113b86000830184611394565b92915050565b6000604051905090565b600080fd5b600080fd5b600080fd5b6000606082840312156113ed576113ec6113d2565b5b81905092915050565b60006060828403121561140c5761140b6113c8565b5b600061141a848285016113d7565b91505092915050565b600060e08284031215611439576114386113d2565b5b81905092915050565b600060e08284031215611458576114576113c8565b5b600061146684828501611423565b91505092915050565b600060808284031215611485576114846113d2565b5b81905092915050565b6000608082840312156114a4576114a36113c8565b5b60006114b28482850161146f565b91505092915050565b60006114c682611370565b9050919050565b6114d6816114bb565b82525050565b60006020820190506114f160008301846114cd565b92915050565b600061150282611370565b9050919050565b611512816114f7565b82525050565b600060208201905061152d6000830184611509565b92915050565b600060808284031215611549576115486113d2565b5b81905092915050565b600060808284031215611568576115676113c8565b5b600061157684828501611533565b91505092915050565b600061158a82611370565b9050919050565b61159a8161157f565b82525050565b60006020820190506115b56000830184611591565b92915050565b6000606082840312156115d1576115d06113d2565b5b81905092915050565b6000606082840312156115f0576115ef6113c8565b5b60006115fe848285016115bb565b91505092915050565b600061161282611370565b9050919050565b61162281611607565b82525050565b600060208201905061163d6000830184611619565b92915050565b600061164e82611370565b9050919050565b61165e81611643565b82525050565b60006020820190506116796000830184611655565b92915050565b600080fd5b600080fd5b600080fd5b60008083601f8401126116a4576116a361167f565b5b8235905067ffffffffffffffff8111156116c1576116c0611684565b5b6020830191508360408202830111156116dd576116dc611689565b5b9250929050565b600080602083850312156116fb576116fa6113c8565b5b600083013567ffffffffffffffff811115611719576117186113cd565b5b6117258582860161168e565b92509250509250929050565b600061173c82611370565b9050919050565b61174c81611731565b82525050565b60006020820190506117676000830184611743565b92915050565b60008083601f8401126117835761178261167f565b5b8235905067ffffffffffffffff8111156117a05761179f611684565b5b6020830191508360208202830111156117bc576117bb611689565b5b9250929050565b600080602083850312156117da576117d96113c8565b5b600083013567ffffffffffffffff8111156117f8576117f76113cd565b5b6118048582860161176d565b92509250509250929050565b600081519050919050565b600082825260208201905092915050565b6000819050602082019050919050565b600081519050919050565b600082825260208201905092915050565b60005b8381101561187657808201518184015260208101905061185b565b60008484015250505050565b6000601f19601f8301169050919050565b600061189e8261183c565b6118a88185611847565b93506118b8818560208601611858565b6118c181611882565b840191505092915050565b60006118d88383611893565b905092915050565b6000602082019050919050565b60006118f882611810565b611902818561181b565b9350836020820285016119148561182c565b8060005b85811015611950578484038952815161193185826118cc565b945061193c836118e0565b925060208a01995050600181019050611918565b50829750879550505050505092915050565b6000602082019050818103600083015261197c81846118ed565b905092915050565b60006080828403121561199a576119996113d2565b5b81905092915050565b6000608082840312156119b9576119b86113c8565b5b60006119c784828501611984565b91505092915050565b600060a082840312156119e6576119e56113d2565b5b81905092915050565b600060a08284031215611a0557611a046113c8565b5b6000611a13848285016119d0565b91505092915050565b600060408284031215611a3257611a316113d2565b5b81905092915050565b600060408284031215611a5157611a506113c8565b5b6000611a5f84828501611a1c565b91505092915050565b600060208284031215611a7e57611a7d6113d2565b5b81905092915050565b600060208284031215611a9d57611a9c6113c8565b5b6000611aab84828501611a68565b91505092915050565b6000611abf82611370565b9050919050565b611acf81611ab4565b82525050565b6000602082019050611aea6000830184611ac6565b92915050565b6000611afb82611370565b9050919050565b611b0b81611af0565b82525050565b6000602082019050611b266000830184611b02565b92915050565b6000611b3782611324565b9050919050565b611b4781611b2c565b8114611b5257600080fd5b50565b600081359050611b6481611b3e565b92915050565b6000819050919050565b611b7d81611b6a565b8114611b8857600080fd5b50565b600081359050611b9a81611b74565b92915050565b600080600060608486031215611bb957611bb86113c8565b5b6000611bc786828701611b55565b9350506020611bd886828701611b55565b9250506040611be986828701611b8b565b9150509250925092565b6000611bfe82611370565b9050919050565b611c0e81611bf3565b82525050565b6000602082019050611c296000830184611c05565b92915050565b600060808284031215611c4557611c446113d2565b5b81905092915050565b600060808284031215611c6457611c636113c8565b5b6000611c7284828501611c2f565b91505092915050565b6000611c8682611370565b9050919050565b611c9681611c7b565b82525050565b6000602082019050611cb16000830184611c8d565b92915050565b611cc081611b2c565b82525050565b6000611cd56020840184611b55565b905092915050565b611ce681611b2c565b82525050565b60608201611cfd6000830183611cc6565b611d0a6000850182611cdd565b50611d186020830183611cc6565b611d256020850182611cdd565b50611d336040830183611cc6565b611d406040850182611cdd565b50505050565b6000608082019050611d5b6000830185611cb7565b611d686020830184611cec565b9392505050565b6000611d7e6020840184611b8b565b905092915050565b611d8f81611b6a565b82525050565b60e08201611da66000830183611cc6565b611db36000850182611cdd565b50611dc16020830183611cc6565b611dce6020850182611cdd565b50611ddc6040830183611d6f565b611de96040850182611d86565b50611df76060830183611d6f565b611e046060850182611d86565b50611e126080830183611d6f565b611e1f6080850182611d86565b50611e2d60a0830183611d6f565b611e3a60a0850182611d86565b50611e4860c0830183611cc6565b611e5560c0850182611cdd565b50505050565b600061010082019050611e716000830185611cb7565b611e7e6020830184611d95565b9392505050565b600060ff82169050919050565b611e9b81611e85565b8114611ea657600080fd5b50565b600081359050611eb881611e92565b92915050565b6000611ecd6020840184611ea9565b905092915050565b611ede81611e85565b82525050565b60808201611ef56000830183611d6f565b611f026000850182611d86565b50611f106020830183611cc6565b611f1d6020850182611cdd565b50611f2b6040830183611cc6565b611f386040850182611cdd565b50611f466060830183611ebe565b611f536060850182611ed5565b50505050565b600060a082019050611f6e6000830185611cb7565b611f7b6020830184611ee4565b9392505050565b60808201611f936000830183611d6f565b611fa06000850182611d86565b50611fae6020830183611ebe565b611fbb6020850182611ed5565b50611fc96040830183611d6f565b611fd66040850182611d86565b50611fe46060830183611ebe565b611ff16060850182611ed5565b50505050565b600060a08201905061200c6000830185611cb7565b6120196020830184611f82565b9392505050565b606082016120316000830183611d6f565b61203e6000850182611d86565b5061204c6020830183611ebe565b6120596020850182611ed5565b506120676040830183611d6f565b6120746040850182611d86565b50505050565b600060808201905061208f6000830185611cb7565b61209c6020830184612020565b9392505050565b600082825260208201905092915050565b7f4c49515549444154494f4e5f4b45455045520000000000000000000000000000600082015250565b60006120ea6012836120a3565b91506120f5826120b4565b602082019050919050565b60006020820190508181036000830152612119816120dd565b9050919050565b7f4e487b7100000000000000000000000000000000000000000000000000000000600052603260045260246000fd5b604082016121606000830183611cc6565b61216d6000850182611cdd565b5061217b6020830183611d6f565b6121886020850182611d86565b50505050565b60006060820190506121a36000830185611cb7565b6121b0602083018461214f565b9392505050565b7f4e487b7100000000000000000000000000000000000000000000000000000000600052604160045260246000fd5b600080fd5b600080fd5b600080fd5b60008083356001602003843603038112612212576122116121e6565b5b80840192508235915067ffffffffffffffff821115612234576122336121eb565b5b6020830192506001820236038313156122505761224f6121f0565b5b509250929050565b600081905092915050565b82818337600083830152505050565b600061227e8385612258565b935061228b838584612263565b82840190509392505050565b60006122a4828486612272565b91508190509392505050565b608082016122c16000830183611d6f565b6122ce6000850182611d86565b506122dc6020830183611ebe565b6122e96020850182611ed5565b506122f76040830183611d6f565b6123046040850182611d86565b506123126060830183611cc6565b61231f6060850182611cdd565b50505050565b600060a08201905061233a6000830185611cb7565b61234760208301846122b0565b9392505050565b60a0820161235f6000830183611d6f565b61236c6000850182611d86565b5061237a6020830183611d6f565b6123876020850182611d86565b506123956040830183611d6f565b6123a26040850182611d86565b506123b06060830183611d6f565b6123bd6060850182611d86565b506123cb6080830183611d6f565b6123d86080850182611d86565b50505050565b600060c0820190506123f36000830185611cb7565b612400602083018461234e565b9392505050565b602082016124186000830183611d6f565b6124256000850182611d86565b50505050565b60006040820190506124406000830185611cb7565b61244d6020830184612407565b9392505050565b61245d81611b6a565b82525050565b60006080820190506124786000830187611cb7565b6124856020830186611cb7565b6124926040830185611cb7565b61249f6060830184612454565b95945050505050565b608082016124b96000830183611cc6565b6124c66000850182611cdd565b506124d46020830183611cc6565b6124e16020850182611cdd565b506124ef6040830183611d6f565b6124fc6040850182611d86565b5061250a6060830183611cc6565b6125176060850182611cdd565b50505050565b600060a0820190506125326000830185611cb7565b61253f60208301846124a8565b9392505050565b6000819050919050565b61255981612546565b82525050565b60006040820190506125746000830185611cb7565b6125816020830184612550565b9392505050565b60008115159050919050565b61259d81612588565b81146125a857600080fd5b50565b6000815190506125ba81612594565b92915050565b6000602082840312156125d6576125d56113c8565b5b60006125e4848285016125ab565b91505092915050565b600081519050919050565b6000612603826125ed565b61260d81856120a3565b935061261d818560208601611858565b61262681611882565b840191505092915050565b60006040820190506126466000830185611cb7565b818103602083015261265881846125f8565b90509392505050565b6000602082019050818103600083015261267b81846125f8565b905092915050565b600080fd5b61269182611882565b810181811067ffffffffffffffff821117156126b0576126af6121b7565b5b80604052505050565b60006126c36113be565b90506126cf8282612688565b919050565b600067ffffffffffffffff8211156126ef576126ee6121b7565b5b6126f882611882565b9050602081019050919050565b6000612718612713846126d4565b6126b9565b90508281526020810184848401111561273457612733612683565b5b61273f848285611858565b509392505050565b600082601f83011261275c5761275b61167f565b5b815161276c848260208601612705565b91505092915050565b60006020828403121561278b5761278a6113c8565b5b600082015167ffffffffffffffff8111156127a9576127a86113cd565b5b6127b584828501612747565b9150509291505056fea2646970667358221220d7aee7ea60b51526108c66c86f5228e387469d495cc2398152cf5482fc97c49764736f6c634300081c0033",
  "linkReferences": {},
  "deployedLinkReferences": {}
}