{
  "_format": "hh-sol-artifact-1",
  "contractName": "Role",
  "sourceName": "contracts/role/Role.sol",
  "abi": [
    {
      "inputs": [],
      "name": "CONFIG_KEEPER",
      "outputs": [
        {
          "internalType": "bytes32",
          "name": "",
          "type": "bytes32"
        }
      ],
      "stateMutability": "view",
      "type": "function"
    },
    {
      "inputs": [],
      "name": "CONTROLLER",
      "outputs": [
        {
          "internalType": "bytes32",
          "name": "",
          "type": "bytes32"
        }
      ],
      "stateMutability": "view",
      "type": "function"
    },
    {
      "inputs": [],
      "name": "FEE_DISTRIBUTION_KEEPER",
      "outputs": [
        {
          "internalType": "bytes32",
          "name": "",
          "type": "bytes32"
        }
      ],
      "stateMutability": "view",
      "type": "function"
    },
    {
      "inputs": [],
      "name": "FEE_KEEPER",
      "outputs": [
        {
          "internalType": "bytes32",
          "name": "",
          "type": "bytes32"
        }
      ],
      "stateMutability": "view",
      "type": "function"
    },
    {
      "inputs": [],
      "name": "GOV_TOKEN_CONTROLLER",
      "outputs": [
        {
          "internalType": "bytes32",
          "name": "",
          "type": "bytes32"
        }
      ],
      "stateMutability": "view",
      "type": "function"
    },
    {
      "inputs": [],
      "name": "LIMITED_CONFIG_KEEPER",
      "outputs": [
        {
          "internalType": "bytes32",
          "name": "",
          "type": "bytes32"
        }
      ],
      "stateMutability": "view",
      "type": "function"
    },
    {
      "inputs": [],
      "name": "LIQUIDATION_KEEPER",
      "outputs": [
        {
          "internalType": "bytes32",
          "name": "",
          "type": "bytes32"
        }
      ],
      "stateMutability": "view",
      "type": "function"
    },
    {
      "inputs": [],
      "name": "POOL_KEEPER",
      "outputs": [
        {
          "internalType": "bytes32",
          "name": "",
          "type": "bytes32"
        }
      ],
      "stateMutability": "view",
      "type": "function"
    },
    {
      "inputs": [],
      "name": "PRICING_KEEPER",
      "outputs": [
        {
          "internalType": "bytes32",
          "name": "",
          "type": "bytes32"
        }
      ],
      "stateMutability": "view",
      "type": "function"
    },
    {
      "inputs": [],
      "name": "ROLE_ADMIN",
      "outputs": [
        {
          "internalType": "bytes32",
          "name": "",
          "type": "bytes32"
        }
      ],
      "stateMutability": "view",
      "type": "function"
    },
    {
      "inputs": [],
      "name": "ROUTER_PLUGIN",
      "outputs": [
        {
          "internalType": "bytes32",
          "name": "",
          "type": "bytes32"
        }
      ],
      "stateMutability": "view",
      "type": "function"
    },
    {
      "inputs": [],
      "name": "TIMELOCK_ADMIN",
      "outputs": [
        {
          "internalType": "bytes32",
          "name": "",
          "type": "bytes32"
        }
      ],
      "stateMutability": "view",
      "type": "function"
    },
    {
      "inputs": [],
      "name": "TIMELOCK_MULTISIG",
      "outputs": [
        {
          "internalType": "bytes32",
          "name": "",
          "type": "bytes32"
        }
      ],
      "stateMutability": "view",
      "type": "function"
    }
  ],
  "bytecode": "0x610a63610052600b82828239805160001a6073146045577f4e487b7100000000000000000000000000000000000000000000000000000000600052600060045260246000fd5b30600052607381538281f3fe73000000000000000000000000000000000000000030146080604052600436106100d95760003560e01c8063cf7fb1d011610096578063e2ff47b311610070578063e2ff47b3146101ec578063e629d48c1461020a578063ee0fc12114610228578063f13c5a4b14610246576100d9565b8063cf7fb1d014610192578063d391014b146101b0578063e0fde20c146101ce576100d9565b80634479d97b146100de57806375d3adbb146100fc578063774fb4b81461011a5780639b8b49f8146101385780639ecff61714610156578063c66aade114610174575b600080fd5b6100e6610264565b6040516100f39190610485565b60405180910390f35b61010461028c565b6040516101119190610485565b60405180910390f35b6101226102b4565b60405161012f9190610485565b60405180910390f35b6101406102dc565b60405161014d9190610485565b60405180910390f35b61015e610304565b60405161016b9190610485565b60405180910390f35b61017c61032c565b6040516101899190610485565b60405180910390f35b61019a610354565b6040516101a79190610485565b60405180910390f35b6101b861037c565b6040516101c59190610485565b60405180910390f35b6101d66103a4565b6040516101e39190610485565b60405180910390f35b6101f46103cc565b6040516102019190610485565b60405180910390f35b6102126103f4565b60405161021f9190610485565b60405180910390f35b61023061041c565b60405161023d9190610485565b60405180910390f35b61024e610444565b60405161025b9190610485565b60405180910390f35b604051602001610273906104fd565b6040516020818303038152906040528051906020012081565b60405160200161029b90610569565b6040516020818303038152906040528051906020012081565b6040516020016102c3906105d5565b6040516020818303038152906040528051906020012081565b6040516020016102eb90610641565b6040516020818303038152906040528051906020012081565b604051602001610313906106ad565b6040516020818303038152906040528051906020012081565b60405160200161033b90610719565b6040516020818303038152906040528051906020012081565b60405160200161036390610785565b6040516020818303038152906040528051906020012081565b60405160200161038b906107f1565b6040516020818303038152906040528051906020012081565b6040516020016103b39061085d565b6040516020818303038152906040528051906020012081565b6040516020016103db906108c9565b6040516020818303038152906040528051906020012081565b60405160200161040390610935565b6040516020818303038152906040528051906020012081565b60405160200161042b906109a1565b6040516020818303038152906040528051906020012081565b60405160200161045390610a0d565b6040516020818303038152906040528051906020012081565b6000819050919050565b61047f8161046c565b82525050565b600060208201905061049a6000830184610476565b92915050565b600082825260208201905092915050565b7f54494d454c4f434b5f4d554c5449534947000000000000000000000000000000600082015250565b60006104e76011836104a0565b91506104f2826104b1565b602082019050919050565b60006020820190508181036000830152610516816104da565b9050919050565b7f4645455f444953545249425554494f4e5f4b4545504552000000000000000000600082015250565b60006105536017836104a0565b915061055e8261051d565b602082019050919050565b6000602082019050818103600083015261058281610546565b9050919050565b7f4c494d495445445f434f4e4649475f4b45455045520000000000000000000000600082015250565b60006105bf6015836104a0565b91506105ca82610589565b602082019050919050565b600060208201905081810360008301526105ee816105b2565b9050919050565b7f524f555445525f504c5547494e00000000000000000000000000000000000000600082015250565b600061062b600d836104a0565b9150610636826105f5565b602082019050919050565b6000602082019050818103600083015261065a8161061e565b9050919050565b7f50524943494e475f4b4545504552000000000000000000000000000000000000600082015250565b6000610697600e836104a0565b91506106a282610661565b602082019050919050565b600060208201905081810360008301526106c68161068a565b9050919050565b7f434f4e4649475f4b454550455200000000000000000000000000000000000000600082015250565b6000610703600d836104a0565b915061070e826106cd565b602082019050919050565b60006020820190508181036000830152610732816106f6565b9050919050565b7f4645455f4b454550455200000000000000000000000000000000000000000000600082015250565b600061076f600a836104a0565b915061077a82610739565b602082019050919050565b6000602082019050818103600083015261079e81610762565b9050919050565b7f524f4c455f41444d494e00000000000000000000000000000000000000000000600082015250565b60006107db600a836104a0565b91506107e6826107a5565b602082019050919050565b6000602082019050818103600083015261080a816107ce565b9050919050565b7f474f565f544f4b454e5f434f4e54524f4c4c4552000000000000000000000000600082015250565b60006108476014836104a0565b915061085282610811565b602082019050919050565b600060208201905081810360008301526108768161083a565b9050919050565b7f54494d454c4f434b5f41444d494e000000000000000000000000000000000000600082015250565b60006108b3600e836104a0565b91506108be8261087d565b602082019050919050565b600060208201905081810360008301526108e2816108a6565b9050919050565b7f504f4f4c5f4b4545504552000000000000000000000000000000000000000000600082015250565b600061091f600b836104a0565b915061092a826108e9565b602082019050919050565b6000602082019050818103600083015261094e81610912565b9050919050565b7f434f4e54524f4c4c455200000000000000000000000000000000000000000000600082015250565b600061098b600a836104a0565b915061099682610955565b602082019050919050565b600060208201905081810360008301526109ba8161097e565b9050919050565b7f4c49515549444154494f4e5f4b45455045520000000000000000000000000000600082015250565b60006109f76012836104a0565b9150610a02826109c1565b602082019050919050565b60006020820190508181036000830152610a26816109ea565b905091905056fea26469706673582212203e5cf394af7d582443ffc60e3705d3aec07ae8b83b9c51465f60966686f7333d64736f6c634300081b0033",
  "linkReferences": {},
  "deployedLinkReferences": {}
}