{
  "_format": "hh-sol-artifact-1",
  "contractName": "LiquidityUtils",
  "sourceName": "contracts/liquidity/LiquidityUtils.sol",
  "abi": [
    {
      "inputs": [],
      "name": "MINIMUM_LIQUIDITY",
      "outputs": [
        {
          "internalType": "uint256",
          "name": "",
          "type": "uint256"
        }
      ],
      "stateMutability": "view",
      "type": "function"
    }
  ],
  "bytecode": "0x60be610051600b82828239805160001a6073146044577f4e487b7100000000000000000000000000000000000000000000000000000000600052600060045260246000fd5b30600052607381538281f3fe730000000000000000000000000000000000000000301460806040526004361060335760003560e01c8063ba9a7a56146038575b600080fd5b603e6052565b60405160499190606f565b60405180910390f35b6103e881565b6000819050919050565b6069816058565b82525050565b6000602082019050608260008301846062565b9291505056fea26469706673582212201729913f42de99a08eb6746f9e8eb9df4da1bcb683c1737a738d8b23632f862c64736f6c634300081c0033",
  "linkReferences": {},
  "deployedLinkReferences": {}
}