{
  "_format": "hh-sol-artifact-1",
  "contractName": "LiquidityUtils",
  "sourceName": "contracts/liquidity/LiquidityUtils.sol",
  "abi": [
    {
      "inputs": [],
      "name": "EmptyAddAmounts",
      "type": "error"
    },
    {
      "inputs": [
        {
          "internalType": "bytes32",
          "name": "key",
          "type": "bytes32"
        }
      ],
      "name": "EmptyPool",
      "type": "error"
    },
    {
      "inputs": [],
      "name": "EmptyRemoveAmounts",
      "type": "error"
    },
    {
      "inputs": [
        {
          "internalType": "uint256",
          "name": "balance",
          "type": "uint256"
        },
        {
          "internalType": "uint256",
          "name": "liquidity",
          "type": "uint256"
        }
      ],
      "name": "InsufficientUserBalance",
      "type": "error"
    },
    {
      "inputs": [
        {
          "internalType": "uint256",
          "name": "amount0",
          "type": "uint256"
        },
        {
          "internalType": "uint256",
          "name": "availableReserve0",
          "type": "uint256"
        }
      ],
      "name": "Reserve0Insufficient",
      "type": "error"
    },
    {
      "inputs": [
        {
          "internalType": "uint256",
          "name": "amount1",
          "type": "uint256"
        },
        {
          "internalType": "uint256",
          "name": "availableReserve1",
          "type": "uint256"
        }
      ],
      "name": "Reserve1Insufficient",
      "type": "error"
    },
    {
      "inputs": [],
      "name": "MINIMUM_LIQUIDITY",
      "outputs": [
        {
          "internalType": "uint256",
          "name": "",
          "type": "uint256"
        }
      ],
      "stateMutability": "view",
      "type": "function"
    }
  ],
  "bytecode": "0x6120b1610052600b82828239805160001a6073146045577f4e487b7100000000000000000000000000000000000000000000000000000000600052600060045260246000fd5b30600052607381538281f3fe730000000000000000000000000000000000000000301460806040526004361061004b5760003560e01c8063ba9a7a5614610050578063f3f395151461006e578063f46f6fb714610097575b600080fd5b6100586100c0565b604051610065919061155f565b60405180910390f35b81801561007a57600080fd5b506100956004803603810190610090919061160b565b6100c6565b005b8180156100a357600080fd5b506100be60048036038101906100b9919061166a565b610455565b005b6103e881565b60008061010a8360000160208101906100df91906116aa565b8460400160208101906100f291906116aa565b85606001602081019061010591906116aa565b610695565b9150915061011d8483856080013561074e565b60008061012b84600061085d565b925050915060008061013e86600161085d565b925050915060008660200151905060008173ffffffffffffffffffffffffffffffffffffffff166318160ddd6040518163ffffffff1660e01b8152600401602060405180830381865afa158015610199573d6000803e3d6000fd5b505050506040513d601f19601f820116820180604052508101906101bd9190611703565b90506000816101d9888c608001356108e890919063ffffffff16565b6101e3919061178e565b90506000826101ff878d608001356108e890919063ffffffff16565b610209919061178e565b905061021782828988610955565b8373ffffffffffffffffffffffffffffffffffffffff16639dc29fac8d8d608001356040518363ffffffff1660e01b81526004016102569291906117dd565b600060405180830381600087803b15801561027057600080fd5b505af1158015610284573d6000803e3d6000fd5b505050508373ffffffffffffffffffffffffffffffffffffffff1663078d3b798c60400160208101906102b791906116aa565b8d60a00160208101906102ca91906116aa565b856040518463ffffffff1660e01b81526004016102e993929190611806565b600060405180830381600087803b15801561030357600080fd5b505af1158015610317573d6000803e3d6000fd5b505050508373ffffffffffffffffffffffffffffffffffffffff1663078d3b798c606001602081019061034a91906116aa565b8d60a001602081019061035d91906116aa565b846040518463ffffffff1660e01b815260040161037c93929190611806565b600060405180830381600087803b15801561039657600080fd5b505af11580156103aa573d6000803e3d6000fd5b505050506103ca8b60200160208101906103c491906116aa565b8b6109e9565b73__$e0022d6f389ac14ff1ce1dc57a4018d0a3$__63be6afc398c60000160208101906103f791906116aa565b8b8d6040518463ffffffff1660e01b815260040161041793929190611a1a565b60006040518083038186803b15801561042f57600080fd5b505af4158015610443573d6000803e3d6000fd5b50505050505050505050505050505050565b60008061049983600001602081019061046e91906116aa565b84604001602081019061048191906116aa565b85606001602081019061049491906116aa565b610695565b9150915060008260200151905060008173ffffffffffffffffffffffffffffffffffffffff1663352f9aed8660400160208101906104d791906116aa565b6040518263ffffffff1660e01b81526004016104f39190611a52565b6020604051808303816000875af1158015610512573d6000803e3d6000fd5b505050506040513d601f19601f820116820180604052508101906105369190611703565b905060008273ffffffffffffffffffffffffffffffffffffffff1663352f9aed87606001602081019061056991906116aa565b6040518263ffffffff1660e01b81526004016105859190611a52565b6020604051808303816000875af11580156105a4573d6000803e3d6000fd5b505050506040513d601f19601f820116820180604052508101906105c89190611703565b90506105d48282610a03565b6105f3858484848a60800160208101906105ee91906116aa565b610a4d565b61060f86602001602081019061060991906116aa565b866109e9565b73__$e0022d6f389ac14ff1ce1dc57a4018d0a3$__63be6afc3987600001602081019061063c91906116aa565b86886040518463ffffffff1660e01b815260040161065c93929190611a1a565b60006040518083038186803b15801561067457600080fd5b505af4158015610688573d6000803e3d6000fd5b5050505050505050505050565b61069d61144b565b6000806106aa8585610c72565b9050600073__$e0022d6f389ac14ff1ce1dc57a4018d0a3$__637b82d74e88846040518363ffffffff1660e01b81526004016106e7929190611a6d565b61024060405180830381865af4158015610705573d6000803e3d6000fd5b505050506040513d601f19601f820116820180604052508101906107299190611d3c565b90506107358183610d10565b61073e81610d89565b8082935093505050935093915050565b60008103610788576040517f5186591100000000000000000000000000000000000000000000000000000000815260040160405180910390fd5b60008260200151905060008173ffffffffffffffffffffffffffffffffffffffff166370a08231866040518263ffffffff1660e01b81526004016107cc9190611a52565b602060405180830381865afa1580156107e9573d6000803e3d6000fd5b505050506040513d601f19601f8201168201806040525081019061080d9190611703565b9050808311156108565780836040517f5f504d2000000000000000000000000000000000000000000000000000000000815260040161084d929190611d6a565b60405180910390fd5b5050505050565b60008060008085600001518560ff166002811061087d5761087c611d93565b5b6020020151905060006108908787610dcb565b9050600081036108ac57600080600094509450945050506108e1565b60006108bc838960800151610eb8565b905080826108ca9190611dc2565b8282846108d79190611df6565b9550955095505050505b9250925092565b6000808214806109105750828283856109019190611e2a565b92508261090e919061178e565b145b61094f576040517f08c379a000000000000000000000000000000000000000000000000000000000815260040161094690611ec9565b60405180910390fd5b92915050565b8184111561099c5783826040517f1fc107c1000000000000000000000000000000000000000000000000000000008152600401610993929190611d6a565b60405180910390fd5b808311156109e35782816040517f0e793baf0000000000000000000000000000000000000000000000000000000081526004016109da929190611d6a565b60405180910390fd5b50505050565b6109f4816000610efd565b6109ff816001610efd565b5050565b6000821480610a125750600081145b15610a49576040517f6977ca0c00000000000000000000000000000000000000000000000000000000815260040160405180910390fd5b5050565b6000808573ffffffffffffffffffffffffffffffffffffffff166318160ddd6040518163ffffffff1660e01b8152600401602060405180830381865afa158015610a9b573d6000803e3d6000fd5b505050506040513d601f19601f82011682018060405250810190610abf9190611703565b90506000610ace88600061085d565b505090506000610adf89600161085d565b5050905060008783610af19190611df6565b905060008783610b019190611df6565b905060008503610bb157610b3a6103e8610b2c610b278b8d6108e890919063ffffffff16565b610fe7565b6110e090919063ffffffff16565b95508973ffffffffffffffffffffffffffffffffffffffff166340c10f1960006103e86040518363ffffffff1660e01b8152600401610b7a9291906117dd565b600060405180830381600087803b158015610b9457600080fd5b505af1158015610ba8573d6000803e3d6000fd5b50505050610bf8565b610bf582610bc8878c6108e890919063ffffffff16565b610bd2919061178e565b82610be6888c6108e890919063ffffffff16565b610bf0919061178e565b611139565b95505b8973ffffffffffffffffffffffffffffffffffffffff166340c10f1988886040518363ffffffff1660e01b8152600401610c339291906117dd565b600060405180830381600087803b158015610c4d57600080fd5b505af1158015610c61573d6000803e3d6000fd5b505050505050505050505050505050565b60008173ffffffffffffffffffffffffffffffffffffffff168373ffffffffffffffffffffffffffffffffffffffff1610610cae578183610cb1565b82825b8093508194505050604051602001610cc890611f35565b604051602081830303815290604052805190602001208383604051602001610cf293929190611f64565b60405160208183030381529060405280519060200120905092915050565b600073ffffffffffffffffffffffffffffffffffffffff16826020015173ffffffffffffffffffffffffffffffffffffffff1603610d8557806040517f7357d91f000000000000000000000000000000000000000000000000000000008152600401610d7c9190611f9b565b60405180910390fd5b5050565b6000610d93611152565b905080826080015103610da65750610dc8565b610db182600061115a565b610dbc82600061115a565b80826080018181525050505b50565b60008083600001518360ff1660028110610de857610de7611d93565b5b602002015190506000846020015173ffffffffffffffffffffffffffffffffffffffff1663e42c08f283600001516040518263ffffffff1660e01b8152600401610e329190611a52565b602060405180830381865afa158015610e4f573d6000803e3d6000fd5b505050506040513d601f19601f82011682018060405250810190610e739190611703565b905060008103610e8857600092505050610eb2565b6000826060015190508260c001518183610ea29190611df6565b610eac9190611df6565b93505050505b92915050565b6000808360a0015103610ece5760009050610ef7565b6000610eda848461121a565b9050610ef3818560a0015161126990919063ffffffff16565b9150505b92915050565b610f056114ac565b610f0f83836112b4565b826000018360200182815250828152505050826040015173ffffffffffffffffffffffffffffffffffffffff16634329759a60405180604001604052808460200151815260200184600001518152506040518263ffffffff1660e01b8152600401610f7a9190611ff4565b602060405180830381865afa158015610f97573d6000803e3d6000fd5b505050506040513d601f19601f82011682018060405250810190610fbb9190611703565b83600001518360ff1660028110610fd557610fd4611d93565b5b60200201516040018181525050505050565b6000808203610ff957600090506110db565b600060016110068461130f565b901c6001901b905060018184816110205761101f611730565b5b048201901c9050600181848161103957611038611730565b5b048201901c9050600181848161105257611051611730565b5b048201901c9050600181848161106b5761106a611730565b5b048201901c9050600181848161108457611083611730565b5b048201901c9050600181848161109d5761109c611730565b5b048201901c905060018184816110b6576110b5611730565b5b048201901c90506110d7818285816110d1576110d0611730565b5b04611139565b9150505b919050565b60008282846110ef9190611df6565b9150811115611133576040517f08c379a000000000000000000000000000000000000000000000000000000000815260040161112a9061205b565b60405180910390fd5b92915050565b6000818310611148578161114a565b825b905092915050565b600042905090565b600082600001518260ff166002811061117657611175611d93565b5b602002015160a00151146112165760006111b683600001518360ff16600281106111a3576111a2611d93565b5b60200201516040015184608001516113f0565b90506111ed8184600001518460ff16600281106111d6576111d5611d93565b5b60200201516020015161126990919063ffffffff16565b83600001518360ff166002811061120757611206611d93565b5b60200201516020018181525050505b5050565b6000611224611152565b82036112365782602001519050611263565b60006112468460400151846113f0565b905061125f84602001518261126990919063ffffffff16565b9150505b92915050565b6000816b019d971e4fe8401e74000000600019030483111582151761128d57600080fd5b6b033b2e3c9fd0803ce80000006b019d971e4fe8401e740000008385020104905092915050565b60008060006112e585600001518560ff16600281106112d6576112d5611d93565b5b60200201518660800151610eb8565b905060006112f38686610dcb565b90508182826113029190611df6565b9350935050509250929050565b600080600090506000608084901c111561133157608083901c92506080810190505b6000604084901c111561134c57604083901c92506040810190505b6000602084901c111561136757602083901c92506020810190505b6000601084901c111561138257601083901c92506010810190505b6000600884901c111561139d57600883901c92506008810190505b6000600484901c11156113b857600483901c92506004810190505b6000600284901c11156113d357600283901c92506002810190505b6000600184901c11156113e7576001810190505b80915050919050565b600080826113fc611152565b6114069190611df6565b846114119190611e2a565b90506301e13380818161142757611426611730565b5b049050806b033b2e3c9fd0803ce80000006114429190611dc2565b91505092915050565b6040518060a0016040528061145e6114c6565b8152602001600073ffffffffffffffffffffffffffffffffffffffff168152602001600073ffffffffffffffffffffffffffffffffffffffff16815260200160008152602001600081525090565b604051806040016040528060008152602001600081525090565b60405180604001604052806002905b6114dd6114f3565b8152602001906001900390816114d55790505090565b6040518060e00160405280600073ffffffffffffffffffffffffffffffffffffffff1681526020016000815260200160008152602001600081526020016000815260200160008152602001600081525090565b6000819050919050565b61155981611546565b82525050565b60006020820190506115746000830184611550565b92915050565b6000604051905090565b600080fd5b600073ffffffffffffffffffffffffffffffffffffffff82169050919050565b60006115b482611589565b9050919050565b6115c4816115a9565b81146115cf57600080fd5b50565b6000813590506115e1816115bb565b92915050565b600080fd5b600060c08284031215611602576116016115e7565b5b81905092915050565b60008060e0838503121561162257611621611584565b5b6000611630858286016115d2565b9250506020611641858286016115ec565b9150509250929050565b600060a08284031215611661576116606115e7565b5b81905092915050565b60008060c0838503121561168157611680611584565b5b600061168f858286016115d2565b92505060206116a08582860161164b565b9150509250929050565b6000602082840312156116c0576116bf611584565b5b60006116ce848285016115d2565b91505092915050565b6116e081611546565b81146116eb57600080fd5b50565b6000815190506116fd816116d7565b92915050565b60006020828403121561171957611718611584565b5b6000611727848285016116ee565b91505092915050565b7f4e487b7100000000000000000000000000000000000000000000000000000000600052601260045260246000fd5b7f4e487b7100000000000000000000000000000000000000000000000000000000600052601160045260246000fd5b600061179982611546565b91506117a483611546565b9250826117b4576117b3611730565b5b828204905092915050565b6117c8816115a9565b82525050565b6117d781611546565b82525050565b60006040820190506117f260008301856117bf565b6117ff60208301846117ce565b9392505050565b600060608201905061181b60008301866117bf565b61182860208301856117bf565b61183560408301846117ce565b949350505050565b611846816115a9565b82525050565b6000819050919050565b61185f8161184c565b82525050565b600060029050919050565b600081905092915050565b6000819050919050565b61188e816115a9565b82525050565b61189d81611546565b82525050565b60e0820160008201516118b96000850182611885565b5060208201516118cc6020850182611894565b5060408201516118df6040850182611894565b5060608201516118f26060850182611894565b5060808201516119056080850182611894565b5060a082015161191860a0850182611894565b5060c082015161192b60c0850182611894565b50505050565b600061193d83836118a3565b60e08301905092915050565b6000602082019050919050565b61195f81611865565b6119698184611870565b92506119748261187b565b8060005b838110156119a557815161198c8782611931565b965061199783611949565b925050600181019050611978565b505050505050565b610240820160008201516119c46000850182611956565b5060208201516119d86101c0850182611885565b5060408201516119ec6101e0850182611885565b506060820151611a00610200850182611894565b506080820151611a14610220850182611894565b50505050565b600061028082019050611a30600083018661183d565b611a3d6020830185611856565b611a4a60408301846119ad565b949350505050565b6000602082019050611a6760008301846117bf565b92915050565b6000604082019050611a82600083018561183d565b611a8f6020830184611856565b9392505050565b600080fd5b6000601f19601f8301169050919050565b7f4e487b7100000000000000000000000000000000000000000000000000000000600052604160045260246000fd5b611ae482611a9b565b810181811067ffffffffffffffff82111715611b0357611b02611aac565b5b80604052505050565b6000611b1661157a565b9050611b228282611adb565b919050565b600080fd5b600067ffffffffffffffff821115611b4757611b46611aac565b5b602082029050919050565b600080fd5b600081519050611b66816115bb565b92915050565b600060e08284031215611b8257611b81611a96565b5b611b8c60e0611b0c565b90506000611b9c84828501611b57565b6000830152506020611bb0848285016116ee565b6020830152506040611bc4848285016116ee565b6040830152506060611bd8848285016116ee565b6060830152506080611bec848285016116ee565b60808301525060a0611c00848285016116ee565b60a08301525060c0611c14848285016116ee565b60c08301525092915050565b6000611c33611c2e84611b2c565b611b0c565b90508060e08402830185811115611c4d57611c4c611b52565b5b835b81811015611c765780611c628882611b6c565b84526020840193505060e081019050611c4f565b5050509392505050565b600082601f830112611c9557611c94611b27565b5b6002611ca2848285611c20565b91505092915050565b60006102408284031215611cc257611cc1611a96565b5b611ccc60a0611b0c565b90506000611cdc84828501611c80565b6000830152506101c0611cf184828501611b57565b6020830152506101e0611d0684828501611b57565b604083015250610200611d1b848285016116ee565b606083015250610220611d30848285016116ee565b60808301525092915050565b60006102408284031215611d5357611d52611584565b5b6000611d6184828501611cab565b91505092915050565b6000604082019050611d7f60008301856117ce565b611d8c60208301846117ce565b9392505050565b7f4e487b7100000000000000000000000000000000000000000000000000000000600052603260045260246000fd5b6000611dcd82611546565b9150611dd883611546565b9250828201905080821115611df057611def61175f565b5b92915050565b6000611e0182611546565b9150611e0c83611546565b9250828203905081811115611e2457611e2361175f565b5b92915050565b6000611e3582611546565b9150611e4083611546565b9250828202611e4e81611546565b91508282048414831517611e6557611e6461175f565b5b5092915050565b600082825260208201905092915050565b7f64732d6d6174682d6d756c2d6f766572666c6f77000000000000000000000000600082015250565b6000611eb3601483611e6c565b9150611ebe82611e7d565b602082019050919050565b60006020820190508181036000830152611ee281611ea6565b9050919050565b7f504f4f4c00000000000000000000000000000000000000000000000000000000600082015250565b6000611f1f600483611e6c565b9150611f2a82611ee9565b602082019050919050565b60006020820190508181036000830152611f4e81611f12565b9050919050565b611f5e8161184c565b82525050565b6000606082019050611f796000830186611f55565b611f8660208301856117bf565b611f9360408301846117bf565b949350505050565b6000602082019050611fb06000830184611f55565b92915050565b611fbf81611546565b82525050565b604082016000820151611fdb6000850182611fb6565b506020820151611fee6020850182611fb6565b50505050565b60006040820190506120096000830184611fc5565b92915050565b7f64732d6d6174682d7375622d756e646572666c6f770000000000000000000000600082015250565b6000612045601583611e6c565b91506120508261200f565b602082019050919050565b6000602082019050818103600083015261207481612038565b905091905056fea2646970667358221220f502c24be36f8b87819d82a1e938df00683a33c442d03840313e9754b88c379664736f6c634300081b0033",
  "linkReferences": {
    "contracts/pool/PoolStoreUtils.sol": {
      "PoolStoreUtils": [
        {
          "length": 20,
          "start": 1054
        },
        {
          "length": 20,
          "start": 1635
        },
        {
          "length": 20,
          "start": 1794
        }
      ]
    }
  },
  "deployedLinkReferences": {
    "contracts/pool/PoolStoreUtils.sol": {
      "PoolStoreUtils": [
        {
          "length": 20,
          "start": 972
        },
        {
          "length": 20,
          "start": 1553
        },
        {
          "length": 20,
          "start": 1712
        }
      ]
    }
  }
}