{
  "_format": "hh-sol-artifact-1",
  "contractName": "SwapHandler",
  "sourceName": "contracts/exchange/SwapHandler.sol",
  "abi": [
    {
      "inputs": [
        {
          "internalType": "contract RoleStore",
          "name": "_roleStore",
          "type": "address"
        },
        {
          "internalType": "contract DataStore",
          "name": "_dataStore",
          "type": "address"
        },
        {
          "internalType": "contract EventEmitter",
          "name": "_eventEmitter",
          "type": "address"
        }
      ],
      "stateMutability": "nonpayable",
      "type": "constructor"
    },
    {
      "inputs": [
        {
          "internalType": "address",
          "name": "accountInPosition",
          "type": "address"
        },
        {
          "internalType": "address",
          "name": "account",
          "type": "address"
        }
      ],
      "name": "AccountNotMatch",
      "type": "error"
    },
    {
      "inputs": [
        {
          "internalType": "bytes32",
          "name": "key",
          "type": "bytes32"
        }
      ],
      "name": "EmptyPool",
      "type": "error"
    },
    {
      "inputs": [],
      "name": "EmptyPosition",
      "type": "error"
    },
    {
      "inputs": [],
      "name": "EmptySwapInAmount",
      "type": "error"
    },
    {
      "inputs": [],
      "name": "MathOverflowedMulDiv",
      "type": "error"
    },
    {
      "inputs": [
        {
          "internalType": "uint256",
          "name": "amount1Out",
          "type": "uint256"
        },
        {
          "internalType": "uint256",
          "name": "amount1OutMax",
          "type": "uint256"
        }
      ],
      "name": "RequestedAmount1ExceedsPriceLimit",
      "type": "error"
    },
    {
      "inputs": [
        {
          "internalType": "uint256",
          "name": "amount0Out",
          "type": "uint256"
        },
        {
          "internalType": "uint256",
          "name": "amount0OutMax",
          "type": "uint256"
        }
      ],
      "name": "RequestedAmountOExceedsPriceLimit",
      "type": "error"
    },
    {
      "inputs": [
        {
          "internalType": "uint256",
          "name": "amount0",
          "type": "uint256"
        },
        {
          "internalType": "uint256",
          "name": "availableReserve0",
          "type": "uint256"
        }
      ],
      "name": "Reserve0Insufficient",
      "type": "error"
    },
    {
      "inputs": [
        {
          "internalType": "uint256",
          "name": "amount1",
          "type": "uint256"
        },
        {
          "internalType": "uint256",
          "name": "availableReserve1",
          "type": "uint256"
        }
      ],
      "name": "Reserve1Insufficient",
      "type": "error"
    },
    {
      "inputs": [
        {
          "internalType": "int256",
          "name": "value",
          "type": "int256"
        }
      ],
      "name": "SafeCastOverflowedIntToUint",
      "type": "error"
    },
    {
      "inputs": [],
      "name": "SingleTokenInOutSwapOnly",
      "type": "error"
    },
    {
      "inputs": [
        {
          "internalType": "address",
          "name": "msgSender",
          "type": "address"
        },
        {
          "internalType": "string",
          "name": "role",
          "type": "string"
        }
      ],
      "name": "Unauthorized",
      "type": "error"
    },
    {
      "inputs": [],
      "name": "dataStore",
      "outputs": [
        {
          "internalType": "contract DataStore",
          "name": "",
          "type": "address"
        }
      ],
      "stateMutability": "view",
      "type": "function"
    },
    {
      "inputs": [],
      "name": "eventEmitter",
      "outputs": [
        {
          "internalType": "contract EventEmitter",
          "name": "",
          "type": "address"
        }
      ],
      "stateMutability": "view",
      "type": "function"
    },
    {
      "inputs": [
        {
          "internalType": "address",
          "name": "account",
          "type": "address"
        },
        {
          "components": [
            {
              "internalType": "address",
              "name": "token0",
              "type": "address"
            },
            {
              "internalType": "address",
              "name": "token1",
              "type": "address"
            },
            {
              "internalType": "uint256",
              "name": "amount0In",
              "type": "uint256"
            },
            {
              "internalType": "uint256",
              "name": "amount1In",
              "type": "uint256"
            },
            {
              "internalType": "uint256",
              "name": "amount0Out",
              "type": "uint256"
            },
            {
              "internalType": "uint256",
              "name": "amount1Out",
              "type": "uint256"
            },
            {
              "internalType": "address",
              "name": "to",
              "type": "address"
            }
          ],
          "internalType": "struct SwapUtils.SwapParams",
          "name": "swapParams",
          "type": "tuple"
        }
      ],
      "name": "executeSwap",
      "outputs": [],
      "stateMutability": "nonpayable",
      "type": "function"
    },
    {
      "inputs": [
        {
          "internalType": "address",
          "name": "account",
          "type": "address"
        },
        {
          "components": [
            {
              "internalType": "uint256",
              "name": "positionId",
              "type": "uint256"
            },
            {
              "internalType": "uint256",
              "name": "amount0In",
              "type": "uint256"
            },
            {
              "internalType": "uint256",
              "name": "amount1In",
              "type": "uint256"
            },
            {
              "internalType": "uint256",
              "name": "amount0Out",
              "type": "uint256"
            },
            {
              "internalType": "uint256",
              "name": "amount1Out",
              "type": "uint256"
            }
          ],
          "internalType": "struct SwapUtils.SwapInPositionParams",
          "name": "swapParams",
          "type": "tuple"
        }
      ],
      "name": "executeSwapInPosition",
      "outputs": [],
      "stateMutability": "nonpayable",
      "type": "function"
    },
    {
      "inputs": [],
      "name": "roleStore",
      "outputs": [
        {
          "internalType": "contract RoleStore",
          "name": "",
          "type": "address"
        }
      ],
      "stateMutability": "view",
      "type": "function"
    }
  ],
  "bytecode": "0x60e060405234801561001057600080fd5b506040516150fa3803806150fa833981810160405281019061003291906101cb565b82828073ffffffffffffffffffffffffffffffffffffffff1660808173ffffffffffffffffffffffffffffffffffffffff1681525050508073ffffffffffffffffffffffffffffffffffffffff1660a08173ffffffffffffffffffffffffffffffffffffffff1681525050508073ffffffffffffffffffffffffffffffffffffffff1660c08173ffffffffffffffffffffffffffffffffffffffff168152505050505061021e565b600080fd5b600073ffffffffffffffffffffffffffffffffffffffff82169050919050565b600061010a826100df565b9050919050565b600061011c826100ff565b9050919050565b61012c81610111565b811461013757600080fd5b50565b60008151905061014981610123565b92915050565b600061015a826100ff565b9050919050565b61016a8161014f565b811461017557600080fd5b50565b60008151905061018781610161565b92915050565b6000610198826100ff565b9050919050565b6101a88161018d565b81146101b357600080fd5b50565b6000815190506101c58161019f565b92915050565b6000806000606084860312156101e4576101e36100da565b5b60006101f28682870161013a565b935050602061020386828701610178565b9250506040610214868287016101b6565b9150509250925092565b60805160a05160c051614e76610284600039600081816101c801528181610271015261034a01526000818160f0015261061b01526000818161018c0152818161024d0152818161030e01528181610451015281816105540152610cf60152614e766000f3fe608060405234801561001057600080fd5b50600436106100575760003560e01c80634a4a7b041461005c57806352b5de3d1461007a578063660d0d67146100965780639ff78c30146100b4578063d9c42742146100d2575b600080fd5b6100646100ee565b6040516100719190613872565b60405180910390f35b610094600480360381019061008f91906138fe565b610112565b005b61009e61024b565b6040516100ab919061395f565b60405180910390f35b6100bc61026f565b6040516100c9919061399b565b60405180910390f35b6100ec60048036038101906100e791906139d5565b610293565b005b7f000000000000000000000000000000000000000000000000000000000000000081565b61011a61044d565b61017d60405160200161012c90613a73565b604051602081830303815290604052805190602001206040518060400160405280600a81526020017f434f4e54524f4c4c455200000000000000000000000000000000000000000000815250610619565b60006040518060e001604052807f000000000000000000000000000000000000000000000000000000000000000073ffffffffffffffffffffffffffffffffffffffff1681526020017f000000000000000000000000000000000000000000000000000000000000000073ffffffffffffffffffffffffffffffffffffffff168152602001836000013581526020018360200135815260200183604001358152602001836060013581526020018360800135815250905061023e83826106fc565b50610247610cf4565b5050565b7f000000000000000000000000000000000000000000000000000000000000000081565b7f000000000000000000000000000000000000000000000000000000000000000081565b61029b61044d565b6102fe6040516020016102ad90613a73565b604051602081830303815290604052805190602001206040518060400160405280600a81526020017f434f4e54524f4c4c455200000000000000000000000000000000000000000000815250610619565b60006040518061012001604052807f000000000000000000000000000000000000000000000000000000000000000073ffffffffffffffffffffffffffffffffffffffff1681526020017f000000000000000000000000000000000000000000000000000000000000000073ffffffffffffffffffffffffffffffffffffffff1681526020018360000160208101906103979190613a93565b73ffffffffffffffffffffffffffffffffffffffff1681526020018360200160208101906103c59190613a93565b73ffffffffffffffffffffffffffffffffffffffff1681526020018360400135815260200183606001358152602001836080013581526020018360a0013581526020018360c001602081019061041b9190613a93565b73ffffffffffffffffffffffffffffffffffffffff1681525090506104408382610dba565b50610449610cf4565b5050565b60007f000000000000000000000000000000000000000000000000000000000000000073ffffffffffffffffffffffffffffffffffffffff1663bd02d0f560405160200161049a90613b0c565b604051602081830303815290604052805190602001206040518263ffffffff1660e01b81526004016104cc9190613b45565b602060405180830381865afa1580156104e9573d6000803e3d6000fd5b505050506040513d601f19601f8201168201806040525081019061050d9190613b96565b905060008114610552576040517f08c379a000000000000000000000000000000000000000000000000000000000815260040161054990613c0f565b60405180910390fd5b7f000000000000000000000000000000000000000000000000000000000000000073ffffffffffffffffffffffffffffffffffffffff1663e2a4853a60405160200161059d90613b0c565b6040516020818303038152906040528051906020012060016040518363ffffffff1660e01b81526004016105d2929190613c3e565b6020604051808303816000875af11580156105f1573d6000803e3d6000fd5b505050506040513d601f19601f820116820180604052508101906106159190613b96565b5050565b7f000000000000000000000000000000000000000000000000000000000000000073ffffffffffffffffffffffffffffffffffffffff1663ac4ab3fb33846040518363ffffffff1660e01b8152600401610674929190613c76565b602060405180830381865afa158015610691573d6000803e3d6000fd5b505050506040513d601f19601f820116820180604052508101906106b59190613cd7565b6106f85733816040517fa35b150b0000000000000000000000000000000000000000000000000000000081526004016106ef929190613d83565b60405180910390fd5b5050565b610704613371565b61071783836000015184604001516112ed565b82604001836060018281525082905250506107858260000151826040015160000151600060ff166002811061074f5761074e613db3565b5b602002015160000151836040015160000151600160ff166002811061077757610776613db3565b5b60200201516000015161130e565b826000018360200182815250829052505081606001518160a001818152505081608001518160c00181815250506107d581600001518260a001518360c001518560a001518660c0015160016113c7565b8460e001856101000186610160018761018001848152508481525084815250848152505050505061083f6040518060400160405280600981526020017f616d6f756e7430496e00000000000000000000000000000000000000000000008152508260a001516116ec565b6108826040518060400160405280600981526020017f616d6f756e7431496e00000000000000000000000000000000000000000000008152508260c001516116ec565b6108c56040518060400160405280600a81526020017f616d6f756e74304f7574000000000000000000000000000000000000000000008152508260e001516116ec565b6109096040518060400160405280600a81526020017f616d6f756e74314f7574000000000000000000000000000000000000000000008152508261010001516116ec565b61095b6040518060400160405280600c81526020017f616d6f756e743044656c746100000000000000000000000000000000000000008152508260a001518360e001516109569190613e1b565b611737565b6109ae6040518060400160405280600c81526020017f616d6f756e743144656c746100000000000000000000000000000000000000008152508260c001518361010001516109a99190613e1b565b611737565b6109dc81600001518260a001518360c001518460e001518561010001518661016001518761018001516117ea565b81610220018181525050610a118160000151826040015160008460a001518560e00151610a099190613e1b565b6000806118f8565b610a3d8160000151826040015160018460c00151856101000151610a359190613e1b565b6000806118f8565b610a64816000015182604001518360a001518460c001518560e00151866101000151611bcd565b73__$3d31b232fb363902662fbc281b11ab3357$__6370b5270e8360000151836060015184604001516040518463ffffffff1660e01b8152600401610aab9392919061401e565b60006040518083038186803b158015610ac357600080fd5b505af4158015610ad7573d6000803e3d6000fd5b50505050610aed82602001518260000151611c6f565b73__$e0022d6f389ac14ff1ce1dc57a4018d0a3$__63be6afc398360000151836020015184600001516040518463ffffffff1660e01b8152600401610b34939291906141ed565b60006040518083038186803b158015610b4c57600080fd5b505af4158015610b60573d6000803e3d6000fd5b50505050610b8681600001518260a001518360c001518460e00151856101000151611e3a565b846101a001856101c001866101e001876102000184815250848152508473ffffffffffffffffffffffffffffffffffffffff1673ffffffffffffffffffffffffffffffffffffffff168152508473ffffffffffffffffffffffffffffffffffffffff1673ffffffffffffffffffffffffffffffffffffffff1681525050505050610cef826020015184836101a00151846101c00151856101e0015186610200015187610220015160405180608001604052808a6040015160000151600060ff1660028110610c5757610c56613db3565b5b60200201516020015181526020018a6040015160000151600060ff1660028110610c8457610c83613db3565b5b60200201516040015181526020018a6040015160000151600160ff1660028110610cb157610cb0613db3565b5b60200201516020015181526020018a6040015160000151600160ff1660028110610cde57610cdd613db3565b5b602002015160400151815250612036565b505050565b7f000000000000000000000000000000000000000000000000000000000000000073ffffffffffffffffffffffffffffffffffffffff1663e2a4853a604051602001610d3f90613b0c565b6040516020818303038152906040528051906020012060006040518363ffffffff1660e01b8152600401610d74929190613c3e565b6020604051808303816000875af1158015610d93573d6000803e3d6000fd5b505050506040513d601f19601f82011682018060405250810190610db79190613b96565b50565b610dc2613450565b610dd982600001518360400151846060015161130e565b8260000183602001828152508290525050806000015160200151816040019073ffffffffffffffffffffffffffffffffffffffff16908173ffffffffffffffffffffffffffffffffffffffff1681525050806040015173ffffffffffffffffffffffffffffffffffffffff1663352f9aed83604001516040518263ffffffff1660e01b8152600401610e6b9190614225565b6020604051808303816000875af1158015610e8a573d6000803e3d6000fd5b505050506040513d601f19601f82011682018060405250810190610eae9190613b96565b816060018181525050806040015173ffffffffffffffffffffffffffffffffffffffff1663352f9aed83606001516040518263ffffffff1660e01b8152600401610ef89190614225565b6020604051808303816000875af1158015610f17573d6000803e3d6000fd5b505050506040513d601f19601f82011682018060405250810190610f3b9190613b96565b8160800181815250506000816060015111158015610f5e57506000816080015111155b15610f95576040517ff9381afa00000000000000000000000000000000000000000000000000000000815260040160405180910390fd5b816080015181606001511015610fb45781608001518160600181815250505b8160a0015181608001511015610fd3578160a001518160800181815250505b610ff68160000151826060015183608001518560c001518660e0015160006113c7565b8460a0018560c0018660e001876101000184815250848152508481525084815250505050506110478160000151826060015183608001518460a001518560c001518660e001518761010001516117ea565b816101a001818152505060008160a0015111156110df57806040015173ffffffffffffffffffffffffffffffffffffffff1663078d3b7983604001518461010001518460a001516040518463ffffffff1660e01b81526004016110ac93929190614240565b600060405180830381600087803b1580156110c657600080fd5b505af11580156110da573d6000803e3d6000fd5b505050505b60008160c00151111561116d57806040015173ffffffffffffffffffffffffffffffffffffffff1663078d3b7983606001518461010001518460c001516040518463ffffffff1660e01b815260040161113a93929190614240565b600060405180830381600087803b15801561115457600080fd5b505af1158015611168573d6000803e3d6000fd5b505050505b61117f82602001518260000151611c6f565b73__$e0022d6f389ac14ff1ce1dc57a4018d0a3$__63be6afc398360000151836020015184600001516040518463ffffffff1660e01b81526004016111c6939291906141ed565b60006040518083038186803b1580156111de57600080fd5b505af41580156111f2573d6000803e3d6000fd5b505050506112178160000151826060015183608001518460a001518560c00151611e3a565b846101200185610140018661016001876101800184815250848152508473ffffffffffffffffffffffffffffffffffffffff1673ffffffffffffffffffffffffffffffffffffffff168152508473ffffffffffffffffffffffffffffffffffffffff1673ffffffffffffffffffffffffffffffffffffffff16815250505050506112e8826020015184836101200151846101400151856101600151866101800151876101a0015160405180608001604052806000815260200160008152602001600081526020016000815250612036565b505050565b6112f561350a565b60006113028585856120b7565b91509150935093915050565b611316613547565b6000806113238585612167565b9050600073__$e0022d6f389ac14ff1ce1dc57a4018d0a3$__637b82d74e88846040518363ffffffff1660e01b8152600401611360929190614277565b61024060405180830381865af415801561137e573d6000803e3d6000fd5b505050506040513d601f19601f820116820180604052508101906113a29190614535565b90506113ae8183612205565b6113b78161227e565b8082935093505050935093915050565b6000806000806113d56135a8565b6000891180156113e55750600087145b156114e3576113f5898c8861242a565b8360000184604001856060018381525083815250838152505050508a60000151600160ff166002811061142b5761142a613db3565b5b602002015160000151816080019073ffffffffffffffffffffffffffffffffffffffff16908173ffffffffffffffffffffffffffffffffffffffff16815250508a60000151600060ff166002811061148657611485613db3565b5b6020020151600001518160a0019073ffffffffffffffffffffffffffffffffffffffff16908173ffffffffffffffffffffffffffffffffffffffff1681525050888160c001818152505080600001518160e0018181525050611624565b60008a1180156114f35750600088145b156115f1576115038a8c88612545565b8360200184604001856060018381525083815250838152505050508a60000151600060ff166002811061153957611538613db3565b5b602002015160000151816080019073ffffffffffffffffffffffffffffffffffffffff16908173ffffffffffffffffffffffffffffffffffffffff16815250508a60000151600160ff166002811061159457611593613db3565b5b6020020151600001518160a0019073ffffffffffffffffffffffffffffffffffffffff16908173ffffffffffffffffffffffffffffffffffffffff1681525050898160c001818152505080602001518160e0018181525050611623565b6040517f6331fab100000000000000000000000000000000000000000000000000000000815260040160405180910390fd5b5b8781600001511015611673578781600001516040517fcf0f158200000000000000000000000000000000000000000000000000000000815260040161166a929190614563565b60405180910390fd5b86816020015110156116c2578681602001516040517fea1d68920000000000000000000000000000000000000000000000000000000081526004016116b9929190614563565b60405180910390fd5b80600001518160200151826040015183606001519450945094509450509650965096509692505050565b6000611733576117326040518060400160405280600681526020017f2573202d257300000000000000000000000000000000000000000000000000008152508383612671565b5b5050565b60006117e657600081121561179c576117976040518060400160405280600681526020017f2573202d25730000000000000000000000000000000000000000000000000000815250836117928461178d9061458c565b612710565b612671565b6117e5565b6117e46040518060400160405280600681526020017f2573202b25730000000000000000000000000000000000000000000000000000815250836117df84612710565b612671565b5b5b5050565b6000806117fa896060015161275f565b905060008087111561187857611819828861279090919063ffffffff16565b905084818861182891906145d4565b111561186d5786856040517f1fc107c1000000000000000000000000000000000000000000000000000000008152600401611864929190614563565b60405180910390fd5b6118778a826127bd565b5b60008611156118e857611894828a61279090919063ffffffff16565b9050838611156118dd5785846040517f0e793baf0000000000000000000000000000000000000000000000000000000081526004016118d4929190614563565b60405180910390fd5b6118e78a826127bd565b5b8092505050979650505050505050565b6000611903846127f9565b905060008412611980578086600001518660ff166002811061192857611927613db3565b5b602002015160200181815161193d91906145d4565b915081815250508087600001518660ff166002811061195f5761195e613db3565b5b602002015160600181815161197491906145d4565b915081815250506119ef565b8086600001518660ff166002811061199b5761199a613db3565b5b60200201516020018181516119b09190614608565b915081815250508087600001518660ff16600281106119d2576119d1613db3565b5b60200201516060018181516119e79190614608565b915081815250505b8115611a8357600086600001518660ff1660028110611a1157611a10613db3565b5b60200201516040015190508088600001518760ff1660028110611a3757611a36613db3565b5b602002015160a001818151611a4c9190614608565b91508181525050600087600001518760ff1660028110611a6f57611a6e613db3565b5b602002015160400181815250505050611bc5565b60008303611a915750611bc5565b6000611a9c846127f9565b90506000611ad589600001518860ff1660028110611abd57611abc613db3565b5b6020020151602001518361281590919063ffffffff16565b905060008512611b52578088600001518860ff1660028110611afa57611af9613db3565b5b6020020151604001818151611b0f91906145d4565b915081815250508089600001518860ff1660028110611b3157611b30613db3565b5b602002015160a001818151611b4691906145d4565b91508181525050611bc1565b8088600001518860ff1660028110611b6d57611b6c613db3565b5b6020020151604001818151611b829190614608565b915081815250508089600001518860ff1660028110611ba457611ba3613db3565b5b602002015160a001818151611bb99190614608565b915081815250505b5050505b505050505050565b60008382611bdb9190613e1b565b90506000611bec888787878761285c565b90506000821315611c3057611c2b8760000151600160ff1660028110611c1557611c14613db3565b5b602002015182611c24856127f9565b600161296b565b611c65565b611c648760000151600160ff1660028110611c4e57611c4d613db3565b5b602002015182611c5d856127f9565b6001612af7565b5b5050505050505050565b611c77613619565b611c82826000612c83565b826000018360200182815250828152505050816040015173ffffffffffffffffffffffffffffffffffffffff16634329759a60405180604001604052808460000151815260200184602001518152506040518263ffffffff1660e01b8152600401611ced919061467a565b602060405180830381865afa158015611d0a573d6000803e3d6000fd5b505050506040513d601f19601f82011682018060405250810190611d2e9190613b96565b8260000151600060ff1660028110611d4957611d48613db3565b5b60200201516040018181525050611d61826001612c83565b826000018360200182815250828152505050816040015173ffffffffffffffffffffffffffffffffffffffff16634329759a60405180604001604052808460000151815260200184602001518152506040518263ffffffff1660e01b8152600401611dcc919061467a565b602060405180830381865afa158015611de9573d6000803e3d6000fd5b505050506040513d601f19601f82011682018060405250810190611e0d9190613b96565b8260000151600160ff1660028110611e2857611e27613db3565b5b60200201516040018181525050505050565b600080600080611e48613633565b600088118015611e585750600086145b15611f2c578960000151600160ff1660028110611e7857611e77613db3565b5b602002015160000151816000019073ffffffffffffffffffffffffffffffffffffffff16908173ffffffffffffffffffffffffffffffffffffffff16815250508960000151600060ff1660028110611ed357611ed2613db3565b5b602002015160000151816020019073ffffffffffffffffffffffffffffffffffffffff16908173ffffffffffffffffffffffffffffffffffffffff1681525050878160400181815250508681606001818152505061200d565b600089118015611f3c5750600087145b1561200c578960000151600060ff1660028110611f5c57611f5b613db3565b5b602002015160000151816000019073ffffffffffffffffffffffffffffffffffffffff16908173ffffffffffffffffffffffffffffffffffffffff16815250508960000151600160ff1660028110611fb757611fb6613db3565b5b602002015160000151816020019073ffffffffffffffffffffffffffffffffffffffff16908173ffffffffffffffffffffffffffffffffffffffff168152505088816040018181525050858160600181815250505b5b806000015181602001518260400151836060015194509450945094505095509550955095915050565b8773ffffffffffffffffffffffffffffffffffffffff166396de247f888888888888886040518863ffffffff1660e01b815260040161207b97969594939291906146ea565b600060405180830381600087803b15801561209557600080fd5b505af11580156120a9573d6000803e3d6000fd5b505050505050505050505050565b6120bf61350a565b6000806120cc8685612cd3565b9050600073__$3d31b232fb363902662fbc281b11ab3357$__637b82d74e87846040518363ffffffff1660e01b8152600401612109929190614277565b61024060405180830381865af4158015612127573d6000803e3d6000fd5b505050506040513d601f19601f8201168201806040525081019061214b919061493e565b90506121578782612d2c565b8082935093505050935093915050565b60008173ffffffffffffffffffffffffffffffffffffffff168373ffffffffffffffffffffffffffffffffffffffff16106121a35781836121a6565b82825b80935081945050506040516020016121bd906149b8565b6040516020818303038152906040528051906020012083836040516020016121e7939291906149d8565b60405160208183030381529060405280519060200120905092915050565b600073ffffffffffffffffffffffffffffffffffffffff16826020015173ffffffffffffffffffffffffffffffffffffffff160361227a57806040517f7357d91f0000000000000000000000000000000000000000000000000000000081526004016122719190613b45565b60405180910390fd5b5050565b6000612288612e14565b90508082608001510361229b5750612427565b60008260000151600060ff16600281106122b8576122b7613db3565b5b602002015160a001511461235b5760006122f98360000151600060ff16600281106122e6576122e5613db3565b5b6020020151604001518460800151612e1c565b9050612331818460000151600060ff166002811061231a57612319613db3565b5b602002015160200151612e7790919063ffffffff16565b8360000151600060ff166002811061234c5761234b613db3565b5b60200201516020018181525050505b60008260000151600160ff166002811061237857612377613db3565b5b602002015160a001511461241b5760006123b98360000151600160ff16600281106123a6576123a5613db3565b5b6020020151604001518460800151612e1c565b90506123f1818460000151600160ff16600281106123da576123d9613db3565b5b602002015160200151612e7790919063ffffffff16565b8360000151600160ff166002811061240c5761240b613db3565b5b60200201516020018181525050505b80826080018181525050505b50565b6000806000612437613687565b612442866000612ec2565b9050826000018360400182815250828152505050612461866001612ec2565b90508260200183606001828152508281525050508461249457868160200181815161248c9190614608565b915081815250505b6124bd816000015182602001516124b88a8560200151612f4d90919063ffffffff16565b612fa6565b8160800181815250506124e1816080015182600001516130ad90919063ffffffff16565b8160a00181815250506124f78660600151613106565b8161012001818152505061252b8160a001516127106125268461012001516127106130ad90919063ffffffff16565b612fa6565b816040015182606001519350935093505093509350939050565b6000806000612552613687565b61255d866000612ec2565b905082600001836040018281525082815250505061257c866001612ec2565b905082602001836060018281525082815250505084156125b05786816000018181516125a89190614608565b915081815250505b6125bd8660600151613106565b816101200181815250506125ed876127106125e88461012001516127106130ad90919063ffffffff16565b612fa6565b81610140018181525050612625816000015182602001516126208461014001518560000151612f4d90919063ffffffff16565b612fa6565b816080018181525050612649816080015182602001516130ad90919063ffffffff16565b8160c00181815250508060c00151816040015182606001519350935093505093509350939050565b61270b83838360405160240161268993929190614a0f565b6040516020818303038152906040527f5821efa1000000000000000000000000000000000000000000000000000000007bffffffffffffffffffffffffffffffffffffffffffffffffffffffff19166020820180517bffffffffffffffffffffffffffffffffffffffffffffffffffffffff8381831617835250505050613137565b505050565b60008082121561275757816040517fa8ce443200000000000000000000000000000000000000000000000000000000815260040161274e9190614a63565b60405180910390fd5b819050919050565b600060487fffffffffffffffffffffffffffffffffffffffffff0000ffffffffffffffffff198316901c9050919050565b60008161138860001903048311158215176127aa57600080fd5b6127106113888385020104905092915050565b808260000151600060ff16600281106127d9576127d8613db3565b5b602002015160c0018181516127ee91906145d4565b915081815250505050565b60008082121561280c578160000361280e565b815b9050919050565b60006b033b2e3c9fd0803ce8000000600283046000190304831115158215171561283e57600080fd5b81600283046b033b2e3c9fd0803ce800000085020104905092915050565b600080600080861180156128705750600084145b15612880578491508590506128d3565b6000871180156128905750600085145b156128a0578691508390506128d2565b6040517f6331fab100000000000000000000000000000000000000000000000000000000815260040160405180910390fd5b5b60006128e489606001516000613151565b905060006128f78a606001516001613151565b9050600061291e856b033b2e3c9fd0803ce800000085600a6129199190614bb1565b612fa6565b90506000612945856b033b2e3c9fd0803ce800000085600a6129409190614bb1565b612fa6565b905061295a818361281590919063ffffffff16565b965050505050505095945050505050565b600260ff168460e00151036129a157600160ff168460e0018181525050818460a001818152505082846060018181525050612af1565b600160ff168460e0015103612a385760008460a001519050828560a0018181516129cb91906145d4565b915081815250508115612a325760006129ed8486612e7790919063ffffffff16565b612a04838860600151612e7790919063ffffffff16565b612a0e91906145d4565b9050612a278660a001518261281590919063ffffffff16565b866060018181525050505b50612af0565b600060ff168460e0015103612aef57818460c001511115612a7157818460c001818151612a659190614608565b91508181525050612aee565b818460c0015103612aa557600260ff168460e001818152505060008460c00181815250506000846080018181525050612aed565b600160ff168460e00181815250508360c0015182612ac39190614608565b8460a00181815250508284606001818152505060008460c001818152505060008460800181815250505b5b5b5b5b50505050565b600260ff168460e0015103612b2d57600060ff168460e0018181525050818460c001818152505082846080018181525050612c7d565b600060ff168460e0015103612bc45760008460c001519050828560c001818151612b5791906145d4565b915081815250508115612bbe576000612b798486612e7790919063ffffffff16565b612b90838860800151612e7790919063ffffffff16565b612b9a91906145d4565b9050612bb38660c001518261281590919063ffffffff16565b866080018181525050505b50612c7c565b600160ff168460e0015103612c7b57818460a001511115612bfd57818460a001818151612bf19190614608565b91508181525050612c7a565b818460a0015103612c3157600260ff168460e001818152505060008460a00181815250506000846060018181525050612c79565b600060ff168460e00181815250508360a0015182612c4f9190614608565b8460c00181815250508284608001818152505060008460a001818152505060008460600181815250505b5b5b5b5b50505050565b6000806000612cb485600001518560ff1660028110612ca557612ca4613db3565b5b602002015186608001516131c4565b90506000612cc28686613209565b905080829350935050509250929050565b6000604051602001612ce490614c48565b604051602081830303815290604052805190602001208383604051602001612d0e93929190614c68565b60405160208183030381529060405280519060200120905092915050565b600073ffffffffffffffffffffffffffffffffffffffff16816040015173ffffffffffffffffffffffffffffffffffffffff1603612d96576040517f4dfbbff300000000000000000000000000000000000000000000000000000000815260040160405180910390fd5b806040015173ffffffffffffffffffffffffffffffffffffffff168273ffffffffffffffffffffffffffffffffffffffff1614612e10578060400151826040517f25c7157e000000000000000000000000000000000000000000000000000000008152600401612e07929190614c9f565b60405180910390fd5b5050565b600042905090565b60008082612e28612e14565b612e329190614608565b84612e3d9190614cc8565b90506301e133808181612e5357612e52614d0a565b5b049050806b033b2e3c9fd0803ce8000000612e6e91906145d4565b91505092915050565b6000816b019d971e4fe8401e740000006000190304831115821517612e9b57600080fd5b6b033b2e3c9fd0803ce80000006b019d971e4fe8401e740000008385020104905092915050565b60008060008085600001518560ff1660028110612ee257612ee1613db3565b5b602002015190506000612ef58787613209565b905060008103612f115760008060009450945094505050612f46565b6000612f218389608001516131c4565b90508082612f2f91906145d4565b828284612f3c9190614608565b9550955095505050505b9250925092565b6000828284612f5c91906145d4565b9150811015612fa0576040517f08c379a0000000000000000000000000000000000000000000000000000000008152600401612f9790614d85565b60405180910390fd5b92915050565b6000808385029050600080198587098281108382030391505060008103612fe157838281612fd757612fd6614d0a565b5b04925050506130a6565b80841161301a576040517f227bc15300000000000000000000000000000000000000000000000000000000815260040160405180910390fd5b600084868809905082811182039150808303925060008560000386169050808604955080840493506001818260000304019050808302841793506000600287600302189050808702600203810290508087026002038102905080870260020381029050808702600203810290508087026002038102905080870260020381029050808502955050505050505b9392505050565b60008282846130bc9190614608565b9150811115613100576040517f08c379a00000000000000000000000000000000000000000000000000000000081526004016130f790614df1565b60405180910390fd5b92915050565b600060387fffffffffffffffffffffffffffffffffffffffffffffff0000ffffffffffffff198316901c9050919050565b61314e816131466132f6613317565b63ffffffff16565b50565b6000807fffffffffffffffffffffffffffffffffffffffff00ffffffffffffffffffffff9050600060589050600160ff168460ff16036131b3577fffffffffffffffffffffffffffffffffffffff00ffffffffffffffffffffffff9150606090505b8082198616901c9250505092915050565b6000808360a00151036131da5760009050613203565b60006131e68484613322565b90506131ff818560a00151612e7790919063ffffffff16565b9150505b92915050565b60008083600001518360ff166002811061322657613225613db3565b5b602002015190506000846020015173ffffffffffffffffffffffffffffffffffffffff1663e42c08f283600001516040518263ffffffff1660e01b81526004016132709190614225565b602060405180830381865afa15801561328d573d6000803e3d6000fd5b505050506040513d601f19601f820116820180604052508101906132b19190613b96565b9050600081036132c6576000925050506132f0565b6000826060015190508260c0015181836132e09190614608565b6132ea9190614608565b93505050505b92915050565b60006a636f6e736f6c652e6c6f679050600080835160208501845afa505050565b6136e1819050919050565b600061332c612e14565b820361333e578260200151905061336b565b600061334e846040015184612e1c565b9050613367846020015182612e7790919063ffffffff16565b9150505b92915050565b604051806102400160405280613385613547565b81526020016000801916815260200161339c61350a565b815260200160008019168152602001600073ffffffffffffffffffffffffffffffffffffffff1681526020016000815260200160008152602001600081526020016000815260200160008152602001600081526020016000815260200160008152602001600073ffffffffffffffffffffffffffffffffffffffff168152602001600073ffffffffffffffffffffffffffffffffffffffff1681526020016000815260200160008152602001600081525090565b604051806101c00160405280613464613547565b815260200160008019168152602001600073ffffffffffffffffffffffffffffffffffffffff168152602001600081526020016000815260200160008152602001600081526020016000815260200160008152602001600073ffffffffffffffffffffffffffffffffffffffff168152602001600073ffffffffffffffffffffffffffffffffffffffff1681526020016000815260200160008152602001600081525090565b604051806060016040528061351d6136eb565b815260200160008152602001600073ffffffffffffffffffffffffffffffffffffffff1681525090565b6040518060a0016040528061355a613718565b8152602001600073ffffffffffffffffffffffffffffffffffffffff168152602001600073ffffffffffffffffffffffffffffffffffffffff16815260200160008152602001600081525090565b60405180610100016040528060008152602001600081526020016000815260200160008152602001600073ffffffffffffffffffffffffffffffffffffffff168152602001600073ffffffffffffffffffffffffffffffffffffffff16815260200160008152602001600081525090565b604051806040016040528060008152602001600081525090565b6040518060800160405280600073ffffffffffffffffffffffffffffffffffffffff168152602001600073ffffffffffffffffffffffffffffffffffffffff16815260200160008152602001600081525090565b60405180610160016040528060008152602001600081526020016000815260200160008152602001600081526020016000815260200160008152602001600081526020016000815260200160008152602001600081525090565b6136e9614e11565b565b60405180604001604052806002905b613702613745565b8152602001906001900390816136fa5790505090565b60405180604001604052806002905b61372f6137a0565b8152602001906001900390816137275790505090565b604051806101000160405280600073ffffffffffffffffffffffffffffffffffffffff168152602001600081526020016000815260200160008152602001600081526020016000815260200160008152602001600081525090565b6040518060e00160405280600073ffffffffffffffffffffffffffffffffffffffff1681526020016000815260200160008152602001600081526020016000815260200160008152602001600081525090565b600073ffffffffffffffffffffffffffffffffffffffff82169050919050565b6000819050919050565b600061383861383361382e846137f3565b613813565b6137f3565b9050919050565b600061384a8261381d565b9050919050565b600061385c8261383f565b9050919050565b61386c81613851565b82525050565b60006020820190506138876000830184613863565b92915050565b6000604051905090565b600080fd5b60006138a7826137f3565b9050919050565b6138b78161389c565b81146138c257600080fd5b50565b6000813590506138d4816138ae565b92915050565b600080fd5b600060a082840312156138f5576138f46138da565b5b81905092915050565b60008060c0838503121561391557613914613897565b5b6000613923858286016138c5565b9250506020613934858286016138df565b9150509250929050565b60006139498261383f565b9050919050565b6139598161393e565b82525050565b60006020820190506139746000830184613950565b92915050565b60006139858261383f565b9050919050565b6139958161397a565b82525050565b60006020820190506139b0600083018461398c565b92915050565b600060e082840312156139cc576139cb6138da565b5b81905092915050565b60008061010083850312156139ed576139ec613897565b5b60006139fb858286016138c5565b9250506020613a0c858286016139b6565b9150509250929050565b600082825260208201905092915050565b7f434f4e54524f4c4c455200000000000000000000000000000000000000000000600082015250565b6000613a5d600a83613a16565b9150613a6882613a27565b602082019050919050565b60006020820190508181036000830152613a8c81613a50565b9050919050565b600060208284031215613aa957613aa8613897565b5b6000613ab7848285016138c5565b91505092915050565b7f5245454e5452414e43595f47554152445f535441545553000000000000000000600082015250565b6000613af6601783613a16565b9150613b0182613ac0565b602082019050919050565b60006020820190508181036000830152613b2581613ae9565b9050919050565b6000819050919050565b613b3f81613b2c565b82525050565b6000602082019050613b5a6000830184613b36565b92915050565b6000819050919050565b613b7381613b60565b8114613b7e57600080fd5b50565b600081519050613b9081613b6a565b92915050565b600060208284031215613bac57613bab613897565b5b6000613bba84828501613b81565b91505092915050565b7f5265656e7472616e637947756172643a207265656e7472616e742063616c6c00600082015250565b6000613bf9601f83613a16565b9150613c0482613bc3565b602082019050919050565b60006020820190508181036000830152613c2881613bec565b9050919050565b613c3881613b60565b82525050565b6000604082019050613c536000830185613b36565b613c606020830184613c2f565b9392505050565b613c708161389c565b82525050565b6000604082019050613c8b6000830185613c67565b613c986020830184613b36565b9392505050565b60008115159050919050565b613cb481613c9f565b8114613cbf57600080fd5b50565b600081519050613cd181613cab565b92915050565b600060208284031215613ced57613cec613897565b5b6000613cfb84828501613cc2565b91505092915050565b600081519050919050565b60005b83811015613d2d578082015181840152602081019050613d12565b60008484015250505050565b6000601f19601f8301169050919050565b6000613d5582613d04565b613d5f8185613a16565b9350613d6f818560208601613d0f565b613d7881613d39565b840191505092915050565b6000604082019050613d986000830185613c67565b8181036020830152613daa8184613d4a565b90509392505050565b7f4e487b7100000000000000000000000000000000000000000000000000000000600052603260045260246000fd5b6000819050919050565b7f4e487b7100000000000000000000000000000000000000000000000000000000600052601160045260246000fd5b6000613e2682613de2565b9150613e3183613de2565b9250828203905081811260008412168282136000851215161715613e5857613e57613dec565b5b92915050565b613e678161389c565b82525050565b613e7681613b2c565b82525050565b600060029050919050565b600081905092915050565b6000819050919050565b613ea58161389c565b82525050565b613eb481613b60565b82525050565b61010082016000820151613ed16000850182613e9c565b506020820151613ee46020850182613eab565b506040820151613ef76040850182613eab565b506060820151613f0a6060850182613eab565b506080820151613f1d6080850182613eab565b5060a0820151613f3060a0850182613eab565b5060c0820151613f4360c0850182613eab565b5060e0820151613f5660e0850182613eab565b50505050565b6000613f688383613eba565b6101008301905092915050565b6000602082019050919050565b613f8b81613e7c565b613f958184613e87565b9250613fa082613e92565b8060005b83811015613fd1578151613fb88782613f5c565b9650613fc383613f75565b925050600181019050613fa4565b505050505050565b61024082016000820151613ff06000850182613f82565b506020820151614004610200850182613eab565b506040820151614018610220850182613e9c565b50505050565b6000610280820190506140346000830186613e5e565b6140416020830185613e6d565b61404e6040830184613fd9565b949350505050565b600060029050919050565b600081905092915050565b6000819050919050565b60e08201600082015161408c6000850182613e9c565b50602082015161409f6020850182613eab565b5060408201516140b26040850182613eab565b5060608201516140c56060850182613eab565b5060808201516140d86080850182613eab565b5060a08201516140eb60a0850182613eab565b5060c08201516140fe60c0850182613eab565b50505050565b60006141108383614076565b60e08301905092915050565b6000602082019050919050565b61413281614056565b61413c8184614061565b92506141478261406c565b8060005b8381101561417857815161415f8782614104565b965061416a8361411c565b92505060018101905061414b565b505050505050565b610240820160008201516141976000850182614129565b5060208201516141ab6101c0850182613e9c565b5060408201516141bf6101e0850182613e9c565b5060608201516141d3610200850182613eab565b5060808201516141e7610220850182613eab565b50505050565b6000610280820190506142036000830186613e5e565b6142106020830185613e6d565b61421d6040830184614180565b949350505050565b600060208201905061423a6000830184613c67565b92915050565b60006060820190506142556000830186613c67565b6142626020830185613c67565b61426f6040830184613c2f565b949350505050565b600060408201905061428c6000830185613e5e565b6142996020830184613e6d565b9392505050565b600080fd5b7f4e487b7100000000000000000000000000000000000000000000000000000000600052604160045260246000fd5b6142dd82613d39565b810181811067ffffffffffffffff821117156142fc576142fb6142a5565b5b80604052505050565b600061430f61388d565b905061431b82826142d4565b919050565b600080fd5b600067ffffffffffffffff8211156143405761433f6142a5565b5b602082029050919050565b600080fd5b60008151905061435f816138ae565b92915050565b600060e0828403121561437b5761437a6142a0565b5b61438560e0614305565b9050600061439584828501614350565b60008301525060206143a984828501613b81565b60208301525060406143bd84828501613b81565b60408301525060606143d184828501613b81565b60608301525060806143e584828501613b81565b60808301525060a06143f984828501613b81565b60a08301525060c061440d84828501613b81565b60c08301525092915050565b600061442c61442784614325565b614305565b90508060e084028301858111156144465761444561434b565b5b835b8181101561446f578061445b8882614365565b84526020840193505060e081019050614448565b5050509392505050565b600082601f83011261448e5761448d614320565b5b600261449b848285614419565b91505092915050565b600061024082840312156144bb576144ba6142a0565b5b6144c560a0614305565b905060006144d584828501614479565b6000830152506101c06144ea84828501614350565b6020830152506101e06144ff84828501614350565b60408301525061020061451484828501613b81565b60608301525061022061452984828501613b81565b60808301525092915050565b6000610240828403121561454c5761454b613897565b5b600061455a848285016144a4565b91505092915050565b60006040820190506145786000830185613c2f565b6145856020830184613c2f565b9392505050565b600061459782613de2565b91507f800000000000000000000000000000000000000000000000000000000000000082036145c9576145c8613dec565b5b816000039050919050565b60006145df82613b60565b91506145ea83613b60565b925082820190508082111561460257614601613dec565b5b92915050565b600061461382613b60565b915061461e83613b60565b925082820390508181111561463657614635613dec565b5b92915050565b61464581613b60565b82525050565b604082016000820151614661600085018261463c565b506020820151614674602085018261463c565b50505050565b600060408201905061468f600083018461464b565b92915050565b6080820160008201516146ab600085018261463c565b5060208201516146be602085018261463c565b5060408201516146d1604085018261463c565b5060608201516146e4606085018261463c565b50505050565b600061014082019050614700600083018a613c67565b61470d6020830189613c67565b61471a6040830188613c67565b6147276060830187613c2f565b6147346080830186613c2f565b61474160a0830185613c2f565b61474e60c0830184614695565b98975050505050505050565b600067ffffffffffffffff821115614775576147746142a5565b5b602082029050919050565b60006101008284031215614797576147966142a0565b5b6147a2610100614305565b905060006147b284828501614350565b60008301525060206147c684828501613b81565b60208301525060406147da84828501613b81565b60408301525060606147ee84828501613b81565b606083015250608061480284828501613b81565b60808301525060a061481684828501613b81565b60a08301525060c061482a84828501613b81565b60c08301525060e061483e84828501613b81565b60e08301525092915050565b600061485d6148588461475a565b614305565b90508061010084028301858111156148785761487761434b565b5b835b818110156148a2578061488d8882614780565b8452602084019350506101008101905061487a565b5050509392505050565b600082601f8301126148c1576148c0614320565b5b60026148ce84828561484a565b91505092915050565b600061024082840312156148ee576148ed6142a0565b5b6148f86060614305565b90506000614908848285016148ac565b60008301525061020061491d84828501613b81565b60208301525061022061493284828501614350565b60408301525092915050565b6000610240828403121561495557614954613897565b5b6000614963848285016148d7565b91505092915050565b7f504f4f4c00000000000000000000000000000000000000000000000000000000600082015250565b60006149a2600483613a16565b91506149ad8261496c565b602082019050919050565b600060208201905081810360008301526149d181614995565b9050919050565b60006060820190506149ed6000830186613b36565b6149fa6020830185613c67565b614a076040830184613c67565b949350505050565b60006060820190508181036000830152614a298186613d4a565b90508181036020830152614a3d8185613d4a565b9050614a4c6040830184613c2f565b949350505050565b614a5d81613de2565b82525050565b6000602082019050614a786000830184614a54565b92915050565b60008160011c9050919050565b6000808291508390505b6001851115614ad557808604811115614ab157614ab0613dec565b5b6001851615614ac05780820291505b8081029050614ace85614a7e565b9450614a95565b94509492505050565b600082614aee5760019050614baa565b81614afc5760009050614baa565b8160018114614b125760028114614b1c57614b4b565b6001915050614baa565b60ff841115614b2e57614b2d613dec565b5b8360020a915084821115614b4557614b44613dec565b5b50614baa565b5060208310610133831016604e8410600b8410161715614b805782820a905083811115614b7b57614b7a613dec565b5b614baa565b614b8d8484846001614a8b565b92509050818404811115614ba457614ba3613dec565b5b81810290505b9392505050565b6000614bbc82613b60565b9150614bc783613b60565b9250614bf47fffffffffffffffffffffffffffffffffffffffffffffffffffffffffffffffff8484614ade565b905092915050565b7f504f534954494f4e000000000000000000000000000000000000000000000000600082015250565b6000614c32600883613a16565b9150614c3d82614bfc565b602082019050919050565b60006020820190508181036000830152614c6181614c25565b9050919050565b6000606082019050614c7d6000830186613b36565b614c8a6020830185613c67565b614c976040830184613c2f565b949350505050565b6000604082019050614cb46000830185613c67565b614cc16020830184613c67565b9392505050565b6000614cd382613b60565b9150614cde83613b60565b9250828202614cec81613b60565b91508282048414831517614d0357614d02613dec565b5b5092915050565b7f4e487b7100000000000000000000000000000000000000000000000000000000600052601260045260246000fd5b7f64732d6d6174682d6164642d6f766572666c6f77000000000000000000000000600082015250565b6000614d6f601483613a16565b9150614d7a82614d39565b602082019050919050565b60006020820190508181036000830152614d9e81614d62565b9050919050565b7f64732d6d6174682d7375622d756e646572666c6f770000000000000000000000600082015250565b6000614ddb601583613a16565b9150614de682614da5565b602082019050919050565b60006020820190508181036000830152614e0a81614dce565b9050919050565b7f4e487b7100000000000000000000000000000000000000000000000000000000600052605160045260246000fdfea264697066735822122090bba869e47e25c14ed9ec8c739ad5a88bebb565a71c329eda72e3b70984434864736f6c634300081c0033",
  "linkReferences": {
    "contracts/pool/PoolStoreUtils.sol": {
      "PoolStoreUtils": [
        {
          "length": 20,
          "start": 3443
        },
        {
          "length": 20,
          "start": 5125
        },
        {
          "length": 20,
          "start": 5549
        }
      ]
    },
    "contracts/position/PositionStoreUtils.sol": {
      "PositionStoreUtils": [
        {
          "length": 20,
          "start": 3306
        },
        {
          "length": 20,
          "start": 9046
        }
      ]
    }
  },
  "deployedLinkReferences": {
    "contracts/pool/PoolStoreUtils.sol": {
      "PoolStoreUtils": [
        {
          "length": 20,
          "start": 2799
        },
        {
          "length": 20,
          "start": 4481
        },
        {
          "length": 20,
          "start": 4905
        }
      ]
    },
    "contracts/position/PositionStoreUtils.sol": {
      "PositionStoreUtils": [
        {
          "length": 20,
          "start": 2662
        },
        {
          "length": 20,
          "start": 8402
        }
      ]
    }
  }
}