{
  "_format": "hh-sol-artifact-1",
  "contractName": "SwapHandler",
  "sourceName": "contracts/exchange/SwapHandler.sol",
  "abi": [
    {
      "inputs": [
        {
          "internalType": "contract RoleStore",
          "name": "_roleStore",
          "type": "address"
        },
        {
          "internalType": "contract DataStore",
          "name": "_dataStore",
          "type": "address"
        },
        {
          "internalType": "contract EventEmitter",
          "name": "_eventEmitter",
          "type": "address"
        }
      ],
      "stateMutability": "nonpayable",
      "type": "constructor"
    },
    {
      "inputs": [
        {
          "internalType": "address",
          "name": "accountInPosition",
          "type": "address"
        },
        {
          "internalType": "address",
          "name": "account",
          "type": "address"
        }
      ],
      "name": "AccountNotMatch",
      "type": "error"
    },
    {
      "inputs": [
        {
          "internalType": "bytes32",
          "name": "key",
          "type": "bytes32"
        }
      ],
      "name": "EmptyPool",
      "type": "error"
    },
    {
      "inputs": [],
      "name": "EmptyPosition",
      "type": "error"
    },
    {
      "inputs": [],
      "name": "EmptySwapInAmount",
      "type": "error"
    },
    {
      "inputs": [
        {
          "internalType": "uint256",
          "name": "amountIn",
          "type": "uint256"
        },
        {
          "internalType": "uint256",
          "name": "collateral",
          "type": "uint256"
        }
      ],
      "name": "InsufficientSwapCollateral",
      "type": "error"
    },
    {
      "inputs": [],
      "name": "MathOverflowedMulDiv",
      "type": "error"
    },
    {
      "inputs": [
        {
          "internalType": "uint256",
          "name": "amount1Out",
          "type": "uint256"
        },
        {
          "internalType": "uint256",
          "name": "amount1OutMax",
          "type": "uint256"
        }
      ],
      "name": "RequestedAmount1ExceedsPriceLimit",
      "type": "error"
    },
    {
      "inputs": [
        {
          "internalType": "uint256",
          "name": "amount0Out",
          "type": "uint256"
        },
        {
          "internalType": "uint256",
          "name": "amount0OutMax",
          "type": "uint256"
        }
      ],
      "name": "RequestedAmountOExceedsPriceLimit",
      "type": "error"
    },
    {
      "inputs": [
        {
          "internalType": "uint256",
          "name": "amount0",
          "type": "uint256"
        },
        {
          "internalType": "uint256",
          "name": "availableReserve0",
          "type": "uint256"
        }
      ],
      "name": "Reserve0Insufficient",
      "type": "error"
    },
    {
      "inputs": [
        {
          "internalType": "uint256",
          "name": "amount1",
          "type": "uint256"
        },
        {
          "internalType": "uint256",
          "name": "availableReserve1",
          "type": "uint256"
        }
      ],
      "name": "Reserve1Insufficient",
      "type": "error"
    },
    {
      "inputs": [],
      "name": "SingleTokenInOutSwapOnly",
      "type": "error"
    },
    {
      "inputs": [
        {
          "internalType": "address",
          "name": "msgSender",
          "type": "address"
        },
        {
          "internalType": "string",
          "name": "role",
          "type": "string"
        }
      ],
      "name": "Unauthorized",
      "type": "error"
    },
    {
      "inputs": [],
      "name": "dataStore",
      "outputs": [
        {
          "internalType": "contract DataStore",
          "name": "",
          "type": "address"
        }
      ],
      "stateMutability": "view",
      "type": "function"
    },
    {
      "inputs": [],
      "name": "eventEmitter",
      "outputs": [
        {
          "internalType": "contract EventEmitter",
          "name": "",
          "type": "address"
        }
      ],
      "stateMutability": "view",
      "type": "function"
    },
    {
      "inputs": [
        {
          "internalType": "address",
          "name": "account",
          "type": "address"
        },
        {
          "components": [
            {
              "internalType": "address",
              "name": "token0",
              "type": "address"
            },
            {
              "internalType": "address",
              "name": "token1",
              "type": "address"
            },
            {
              "internalType": "uint256",
              "name": "amount0In",
              "type": "uint256"
            },
            {
              "internalType": "uint256",
              "name": "amount1In",
              "type": "uint256"
            },
            {
              "internalType": "uint256",
              "name": "amount0Out",
              "type": "uint256"
            },
            {
              "internalType": "uint256",
              "name": "amount1Out",
              "type": "uint256"
            },
            {
              "internalType": "address",
              "name": "to",
              "type": "address"
            }
          ],
          "internalType": "struct SwapUtils.SwapParams",
          "name": "swapParams",
          "type": "tuple"
        }
      ],
      "name": "executeSwap",
      "outputs": [],
      "stateMutability": "nonpayable",
      "type": "function"
    },
    {
      "inputs": [
        {
          "internalType": "address",
          "name": "account",
          "type": "address"
        },
        {
          "components": [
            {
              "internalType": "uint256",
              "name": "positionId",
              "type": "uint256"
            },
            {
              "internalType": "uint256",
              "name": "amount0In",
              "type": "uint256"
            },
            {
              "internalType": "uint256",
              "name": "amount1In",
              "type": "uint256"
            },
            {
              "internalType": "uint256",
              "name": "amount0Out",
              "type": "uint256"
            },
            {
              "internalType": "uint256",
              "name": "amount1Out",
              "type": "uint256"
            }
          ],
          "internalType": "struct SwapUtils.SwapInPositionParams",
          "name": "swapParams",
          "type": "tuple"
        }
      ],
      "name": "executeSwapInPosition",
      "outputs": [],
      "stateMutability": "nonpayable",
      "type": "function"
    },
    {
      "inputs": [],
      "name": "roleStore",
      "outputs": [
        {
          "internalType": "contract RoleStore",
          "name": "",
          "type": "address"
        }
      ],
      "stateMutability": "view",
      "type": "function"
    }
  ],
  "bytecode": "0x60e060405234801561001057600080fd5b50604051615339380380615339833981810160405281019061003291906101cb565b82828073ffffffffffffffffffffffffffffffffffffffff1660808173ffffffffffffffffffffffffffffffffffffffff1681525050508073ffffffffffffffffffffffffffffffffffffffff1660a08173ffffffffffffffffffffffffffffffffffffffff1681525050508073ffffffffffffffffffffffffffffffffffffffff1660c08173ffffffffffffffffffffffffffffffffffffffff168152505050505061021e565b600080fd5b600073ffffffffffffffffffffffffffffffffffffffff82169050919050565b600061010a826100df565b9050919050565b600061011c826100ff565b9050919050565b61012c81610111565b811461013757600080fd5b50565b60008151905061014981610123565b92915050565b600061015a826100ff565b9050919050565b61016a8161014f565b811461017557600080fd5b50565b60008151905061018781610161565b92915050565b6000610198826100ff565b9050919050565b6101a88161018d565b81146101b357600080fd5b50565b6000815190506101c58161019f565b92915050565b6000806000606084860312156101e4576101e36100da565b5b60006101f28682870161013a565b935050602061020386828701610178565b9250506040610214868287016101b6565b9150509250925092565b60805160a05160c0516150b5610284600039600081816101c801528181610271015261034a01526000818160f0015261061b01526000818161018c0152818161024d0152818161030e01528181610451015281816105540152610bb801526150b56000f3fe608060405234801561001057600080fd5b50600436106100575760003560e01c80634a4a7b041461005c57806352b5de3d1461007a578063660d0d67146100965780639ff78c30146100b4578063d9c42742146100d2575b600080fd5b6100646100ee565b6040516100719190613aa4565b60405180910390f35b610094600480360381019061008f9190613b30565b610112565b005b61009e61024b565b6040516100ab9190613b91565b60405180910390f35b6100bc61026f565b6040516100c99190613bcd565b60405180910390f35b6100ec60048036038101906100e79190613c07565b610293565b005b7f000000000000000000000000000000000000000000000000000000000000000081565b61011a61044d565b61017d60405160200161012c90613ca5565b604051602081830303815290604052805190602001206040518060400160405280600a81526020017f434f4e54524f4c4c455200000000000000000000000000000000000000000000815250610619565b60006040518060e001604052807f000000000000000000000000000000000000000000000000000000000000000073ffffffffffffffffffffffffffffffffffffffff1681526020017f000000000000000000000000000000000000000000000000000000000000000073ffffffffffffffffffffffffffffffffffffffff168152602001836000013581526020018360200135815260200183604001358152602001836060013581526020018360800135815250905061023e83826106fc565b50610247610bb6565b5050565b7f000000000000000000000000000000000000000000000000000000000000000081565b7f000000000000000000000000000000000000000000000000000000000000000081565b61029b61044d565b6102fe6040516020016102ad90613ca5565b604051602081830303815290604052805190602001206040518060400160405280600a81526020017f434f4e54524f4c4c455200000000000000000000000000000000000000000000815250610619565b60006040518061012001604052807f000000000000000000000000000000000000000000000000000000000000000073ffffffffffffffffffffffffffffffffffffffff1681526020017f000000000000000000000000000000000000000000000000000000000000000073ffffffffffffffffffffffffffffffffffffffff1681526020018360000160208101906103979190613cc5565b73ffffffffffffffffffffffffffffffffffffffff1681526020018360200160208101906103c59190613cc5565b73ffffffffffffffffffffffffffffffffffffffff1681526020018360400135815260200183606001358152602001836080013581526020018360a0013581526020018360c001602081019061041b9190613cc5565b73ffffffffffffffffffffffffffffffffffffffff1681525090506104408382610c7c565b50610449610bb6565b5050565b60007f000000000000000000000000000000000000000000000000000000000000000073ffffffffffffffffffffffffffffffffffffffff1663bd02d0f560405160200161049a90613d3e565b604051602081830303815290604052805190602001206040518263ffffffff1660e01b81526004016104cc9190613d77565b602060405180830381865afa1580156104e9573d6000803e3d6000fd5b505050506040513d601f19601f8201168201806040525081019061050d9190613dc8565b905060008114610552576040517f08c379a000000000000000000000000000000000000000000000000000000000815260040161054990613e41565b60405180910390fd5b7f000000000000000000000000000000000000000000000000000000000000000073ffffffffffffffffffffffffffffffffffffffff1663e2a4853a60405160200161059d90613d3e565b6040516020818303038152906040528051906020012060016040518363ffffffff1660e01b81526004016105d2929190613e70565b6020604051808303816000875af11580156105f1573d6000803e3d6000fd5b505050506040513d601f19601f820116820180604052508101906106159190613dc8565b5050565b7f000000000000000000000000000000000000000000000000000000000000000073ffffffffffffffffffffffffffffffffffffffff1663ac4ab3fb33846040518363ffffffff1660e01b8152600401610674929190613ea8565b602060405180830381865afa158015610691573d6000803e3d6000fd5b505050506040513d601f19601f820116820180604052508101906106b59190613f09565b6106f85733816040517fa35b150b0000000000000000000000000000000000000000000000000000000081526004016106ef929190613fb5565b60405180910390fd5b5050565b61073a6040518060400160405280601581526020017f6578656375746553776170496e506f736974696f6e0000000000000000000000815250611202565b610742613580565b610755838360000151846040015161124b565b82604001836060018281525082905250506107c38260000151826040015160000151600060ff166002811061078d5761078c613fe5565b5b602002015160000151836040015160000151600160ff16600281106107b5576107b4613fe5565b5b60200201516000015161126c565b826000018360200182815250829052505081606001518160a001818152505081608001518160c001818152505061081381600001518260a001518360c001518560a001518660c001516000611325565b8560e00186610100018761016001886101800189610220018581525085815250858152508581525085815250505050505061086681604001518260a001518360c001518460e00151856101000151611737565b6108798160000151826102200151611889565b816102400181815250506108ae8160000151826040015160008460a001518560e001516108a6919061404d565b6000806118c7565b6108da8160000151826040015160018460c001518561010001516108d2919061404d565b6000806118c7565b60008160a0015111156108fa576108f982600001518260000151611b9c565b5b610921816000015182604001518360a001518460c001518560e00151866101000151611bee565b73__$3d31b232fb363902662fbc281b11ab3357$__6370b5270e8360000151836060015184604001516040518463ffffffff1660e01b815260040161096893929190614250565b60006040518083038186803b15801561098057600080fd5b505af4158015610994573d6000803e3d6000fd5b505050506109aa82602001518260000151611c90565b73__$e0022d6f389ac14ff1ce1dc57a4018d0a3$__63be6afc398360000151836020015184600001516040518463ffffffff1660e01b81526004016109f19392919061441f565b60006040518083038186803b158015610a0957600080fd5b505af4158015610a1d573d6000803e3d6000fd5b50505050610a4381600001518260a001518360c001518460e00151856101000151611e7d565b846101a001856101c001866101e001876102000184815250848152508473ffffffffffffffffffffffffffffffffffffffff1673ffffffffffffffffffffffffffffffffffffffff168152508473ffffffffffffffffffffffffffffffffffffffff1673ffffffffffffffffffffffffffffffffffffffff1681525050505050610bb1826020015184836101a00151846101c001518660400151866101e0015187610200015188610240015160405180608001604052808b6040015160000151600060ff1660028110610b1957610b18613fe5565b5b60200201516020015181526020018b6040015160000151600060ff1660028110610b4657610b45613fe5565b5b60200201516040015181526020018b6040015160000151600160ff1660028110610b7357610b72613fe5565b5b60200201516020015181526020018b6040015160000151600160ff1660028110610ba057610b9f613fe5565b5b602002015160400151815250612079565b505050565b7f000000000000000000000000000000000000000000000000000000000000000073ffffffffffffffffffffffffffffffffffffffff1663e2a4853a604051602001610c0190613d3e565b6040516020818303038152906040528051906020012060006040518363ffffffff1660e01b8152600401610c36929190613e70565b6020604051808303816000875af1158015610c55573d6000803e3d6000fd5b505050506040513d601f19601f82011682018060405250810190610c799190613dc8565b50565b610cba6040518060400160405280600b81526020017f6578656375746553776170000000000000000000000000000000000000000000815250611202565b610cc2613666565b610cd982600001518360400151846060015161126c565b8260000183602001828152508290525050806000015160200151816040019073ffffffffffffffffffffffffffffffffffffffff16908173ffffffffffffffffffffffffffffffffffffffff1681525050806040015173ffffffffffffffffffffffffffffffffffffffff1663352f9aed83604001516040518263ffffffff1660e01b8152600401610d6b9190614457565b6020604051808303816000875af1158015610d8a573d6000803e3d6000fd5b505050506040513d601f19601f82011682018060405250810190610dae9190613dc8565b816060018181525050806040015173ffffffffffffffffffffffffffffffffffffffff1663352f9aed83606001516040518263ffffffff1660e01b8152600401610df89190614457565b6020604051808303816000875af1158015610e17573d6000803e3d6000fd5b505050506040513d601f19601f82011682018060405250810190610e3b9190613dc8565b8160800181815250506000816060015111158015610e5e57506000816080015111155b15610e95576040517ff9381afa00000000000000000000000000000000000000000000000000000000815260040160405180910390fd5b816080015181606001511015610eb45781608001518160600181815250505b8160a0015181608001511015610ed3578160a001518160800181815250505b610ef68160000151826060015183608001518560c001518660e001516001611325565b8560a0018660c0018760e0018861010001896101a00185815250858152508581525085815250858152505050505050610f388160000151826101a00151611889565b816101c001818152505060008160a001511115610fd057806040015173ffffffffffffffffffffffffffffffffffffffff1663078d3b7983604001518461010001518460a001516040518463ffffffff1660e01b8152600401610f9d93929190614472565b600060405180830381600087803b158015610fb757600080fd5b505af1158015610fcb573d6000803e3d6000fd5b505050505b60008160c00151111561105e57806040015173ffffffffffffffffffffffffffffffffffffffff1663078d3b7983606001518461010001518460c001516040518463ffffffff1660e01b815260040161102b93929190614472565b600060405180830381600087803b15801561104557600080fd5b505af1158015611059573d6000803e3d6000fd5b505050505b61107082602001518260000151611c90565b6000816060015111156110905761108f82600001518260000151611b9c565b5b73__$e0022d6f389ac14ff1ce1dc57a4018d0a3$__63be6afc398360000151836020015184600001516040518463ffffffff1660e01b81526004016110d79392919061441f565b60006040518083038186803b1580156110ef57600080fd5b505af4158015611103573d6000803e3d6000fd5b505050506111288160000151826060015183608001518460a001518560c00151611e7d565b846101200185610140018661016001876101800184815250848152508473ffffffffffffffffffffffffffffffffffffffff1673ffffffffffffffffffffffffffffffffffffffff168152508473ffffffffffffffffffffffffffffffffffffffff1673ffffffffffffffffffffffffffffffffffffffff16815250505050506111fd826020015184836101200151846101400151627a1200866101600151876101800151886101c0015160405180608001604052806000815260200160008152602001600081526020016000815250612079565b505050565b6000611248576112476040518060400160405280600281526020017f2573000000000000000000000000000000000000000000000000000000000000815250826120fd565b5b50565b611253613727565b6000611260858585612199565b91509150935093915050565b611274613764565b6000806112818585612249565b9050600073__$e0022d6f389ac14ff1ce1dc57a4018d0a3$__637b82d74e88846040518363ffffffff1660e01b81526004016112be9291906144a9565b61024060405180830381865af41580156112dc573d6000803e3d6000fd5b505050506040513d601f19601f820116820180604052508101906113009190614767565b905061130c81836122e7565b61131581612360565b8082935093505050935093915050565b60008060008060006113356137c5565b60008a1180156113455750600088145b15611513576113558a8d8961250c565b846000018560400186606001876101000184815250848152508481525084815250505050508b60000151600160ff166002811061139557611394613fe5565b5b602002015160000151816080019073ffffffffffffffffffffffffffffffffffffffff16908173ffffffffffffffffffffffffffffffffffffffff16815250508b60000151600060ff16600281106113f0576113ef613fe5565b5b6020020151600001518160a0019073ffffffffffffffffffffffffffffffffffffffff16908173ffffffffffffffffffffffffffffffffffffffff1681525050898160c001818152505080600001518160e00181815250508881600001511015611497578881600001516040517fcf0f158200000000000000000000000000000000000000000000000000000000815260040161148e929190614795565b60405180910390fd5b806040015181610100015182600001516114b191906147be565b111561150e5780610100015181600001516114cc91906147be565b81604001516040517f1fc107c1000000000000000000000000000000000000000000000000000000008152600401611505929190614795565b60405180910390fd5b611704565b60008b1180156115235750600089145b156116d1576115338b8d8961264e565b846020018560400186606001876101000184815250848152508481525084815250505050508b60000151600060ff166002811061157357611572613fe5565b5b602002015160000151816080019073ffffffffffffffffffffffffffffffffffffffff16908173ffffffffffffffffffffffffffffffffffffffff16815250508b60000151600160ff16600281106115ce576115cd613fe5565b5b6020020151600001518160a0019073ffffffffffffffffffffffffffffffffffffffff16908173ffffffffffffffffffffffffffffffffffffffff16815250508a8160c001818152505080602001518160e00181815250508781602001511015611675578781602001516040517fea1d689200000000000000000000000000000000000000000000000000000000815260040161166c929190614795565b60405180910390fd5b8060600151816020015111156116cc57806020015181606001516040517f0e793baf0000000000000000000000000000000000000000000000000000000081526004016116c3929190614795565b60405180910390fd5b611703565b6040517f6331fab100000000000000000000000000000000000000000000000000000000815260040160405180910390fd5b5b80600001518160200151826040015183606001518461010001519550955095509550955050965096509650965096915050565b6000831180156117475750600081145b156117de578460000151600160ff166002811061176757611766613fe5565b5b6020020151602001518311156117d957828560000151600160ff166002811061179357611792613fe5565b5b6020020151602001516040517f671abd070000000000000000000000000000000000000000000000000000000081526004016117d0929190614795565b60405180910390fd5b611882565b6000841180156117ee5750600082145b15611881578460000151600060ff166002811061180e5761180d613fe5565b5b60200201516020015184111561188057838560000151600060ff166002811061183a57611839613fe5565b5b6020020151602001516040517f671abd07000000000000000000000000000000000000000000000000000000008152600401611877929190614795565b60405180910390fd5b5b5b5050505050565b600080611899846060015161279c565b905060006118b082856127cd90919063ffffffff16565b90506118bc85826127fa565b809250505092915050565b60006118d284612836565b90506000841261194f578086600001518660ff16600281106118f7576118f6613fe5565b5b602002015160200181815161190c91906147be565b915081815250508087600001518660ff166002811061192e5761192d613fe5565b5b602002015160600181815161194391906147be565b915081815250506119be565b8086600001518660ff166002811061196a57611969613fe5565b5b602002015160200181815161197f91906147f2565b915081815250508087600001518660ff16600281106119a1576119a0613fe5565b5b60200201516060018181516119b691906147f2565b915081815250505b8115611a5257600086600001518660ff16600281106119e0576119df613fe5565b5b60200201516040015190508088600001518760ff1660028110611a0657611a05613fe5565b5b602002015160a001818151611a1b91906147f2565b91508181525050600087600001518760ff1660028110611a3e57611a3d613fe5565b5b602002015160400181815250505050611b94565b60008303611a605750611b94565b6000611a6b84612836565b90506000611aa489600001518860ff1660028110611a8c57611a8b613fe5565b5b6020020151602001518361285290919063ffffffff16565b905060008512611b21578088600001518860ff1660028110611ac957611ac8613fe5565b5b6020020151604001818151611ade91906147be565b915081815250508089600001518860ff1660028110611b0057611aff613fe5565b5b602002015160a001818151611b1591906147be565b91508181525050611b90565b8088600001518860ff1660028110611b3c57611b3b613fe5565b5b6020020151604001818151611b5191906147f2565b915081815250508089600001518860ff1660028110611b7357611b72613fe5565b5b602002015160a001818151611b8891906147f2565b915081815250505b5050505b505050505050565b611ba98160600151612899565b611bea57600080611bba84846128c9565b91509150818110611be757611bdd6001846060015161293790919063ffffffff16565b8360600181815250505b50505b5050565b60008382611bfc919061404d565b90506000611c0d888787878761297b565b90506000821315611c5157611c4c8760000151600160ff1660028110611c3657611c35613fe5565b5b602002015182611c4585612836565b6001612a8a565b611c86565b611c858760000151600160ff1660028110611c6f57611c6e613fe5565b5b602002015182611c7e85612836565b6001612c16565b5b5050505050505050565b611c9861383d565b611ca3826000612da2565b8260000183602001828152508281525050508060000151816040018181525050816040015173ffffffffffffffffffffffffffffffffffffffff1663fdd63ecf6040518060600160405280846000015181526020018460200151815260200184604001518152506040518263ffffffff1660e01b8152600401611d269190614877565b602060405180830381865afa158015611d43573d6000803e3d6000fd5b505050506040513d601f19601f82011682018060405250810190611d679190613dc8565b8260000151600060ff1660028110611d8257611d81613fe5565b5b60200201516040018181525050611d9a826001612da2565b826000018360200182815250828152505050816040015173ffffffffffffffffffffffffffffffffffffffff1663fdd63ecf6040518060600160405280846000015181526020018460200151815260200184604001518152506040518263ffffffff1660e01b8152600401611e0f9190614877565b602060405180830381865afa158015611e2c573d6000803e3d6000fd5b505050506040513d601f19601f82011682018060405250810190611e509190613dc8565b8260000151600160ff1660028110611e6b57611e6a613fe5565b5b60200201516040018181525050505050565b600080600080611e8b61385e565b600088118015611e9b5750600086145b15611f6f578960000151600160ff1660028110611ebb57611eba613fe5565b5b602002015160000151816000019073ffffffffffffffffffffffffffffffffffffffff16908173ffffffffffffffffffffffffffffffffffffffff16815250508960000151600060ff1660028110611f1657611f15613fe5565b5b602002015160000151816020019073ffffffffffffffffffffffffffffffffffffffff16908173ffffffffffffffffffffffffffffffffffffffff16815250508781604001818152505086816060018181525050612050565b600089118015611f7f5750600087145b1561204f578960000151600060ff1660028110611f9f57611f9e613fe5565b5b602002015160000151816000019073ffffffffffffffffffffffffffffffffffffffff16908173ffffffffffffffffffffffffffffffffffffffff16815250508960000151600160ff1660028110611ffa57611ff9613fe5565b5b602002015160000151816020019073ffffffffffffffffffffffffffffffffffffffff16908173ffffffffffffffffffffffffffffffffffffffff168152505088816040018181525050858160600181815250505b5b806000015181602001518260400151836060015194509450945094505095509550955095915050565b8873ffffffffffffffffffffffffffffffffffffffff166311ccb21d89898989898989896040518963ffffffff1660e01b81526004016120c09897969594939291906148e7565b600060405180830381600087803b1580156120da57600080fd5b505af11580156120ee573d6000803e3d6000fd5b50505050505050505050505050565b6121958282604051602401612113929190614965565b6040516020818303038152906040527f4b5c4277000000000000000000000000000000000000000000000000000000007bffffffffffffffffffffffffffffffffffffffffffffffffffffffff19166020820180517bffffffffffffffffffffffffffffffffffffffffffffffffffffffff8381831617835250505050612df2565b5050565b6121a1613727565b6000806121ae8685612e0c565b9050600073__$3d31b232fb363902662fbc281b11ab3357$__637b82d74e87846040518363ffffffff1660e01b81526004016121eb9291906144a9565b61024060405180830381865af4158015612209573d6000803e3d6000fd5b505050506040513d601f19601f8201168201806040525081019061222d9190614b80565b90506122398782612e65565b8082935093505050935093915050565b60008173ffffffffffffffffffffffffffffffffffffffff168373ffffffffffffffffffffffffffffffffffffffff1610612285578183612288565b82825b809350819450505060405160200161229f90614bfa565b6040516020818303038152906040528051906020012083836040516020016122c993929190614c1a565b60405160208183030381529060405280519060200120905092915050565b600073ffffffffffffffffffffffffffffffffffffffff16826020015173ffffffffffffffffffffffffffffffffffffffff160361235c57806040517f7357d91f0000000000000000000000000000000000000000000000000000000081526004016123539190613d77565b60405180910390fd5b5050565b600061236a612f4d565b90508082608001510361237d5750612509565b60008260000151600060ff166002811061239a57612399613fe5565b5b602002015160a001511461243d5760006123db8360000151600060ff16600281106123c8576123c7613fe5565b5b6020020151604001518460800151612f55565b9050612413818460000151600060ff16600281106123fc576123fb613fe5565b5b602002015160200151612fb090919063ffffffff16565b8360000151600060ff166002811061242e5761242d613fe5565b5b60200201516020018181525050505b60008260000151600160ff166002811061245a57612459613fe5565b5b602002015160a00151146124fd57600061249b8360000151600160ff166002811061248857612487613fe5565b5b6020020151604001518460800151612f55565b90506124d3818460000151600160ff16600281106124bc576124bb613fe5565b5b602002015160200151612fb090919063ffffffff16565b8360000151600160ff16600281106124ee576124ed613fe5565b5b60200201516020018181525050505b80826080018181525050505b50565b60008060008061251a6138b2565b61252687600080612ffb565b909150508260000183604001828152508281525050506125498760016000612ffb565b90915050826020018360600182815250828152505050851561257f57878160200181815161257791906147f2565b915081815250505b6125a8816000015182602001516125a38b85602001516130cf90919063ffffffff16565b613128565b8160800181815250506125cc8160800151826000015161322f90919063ffffffff16565b8160a00181815250506125e28760600151613288565b816101200181815250506126168160a0015161260e83610120015161271061322f90919063ffffffff16565b612710613128565b8160400151826060015161263c8461012001518560a001516127cd90919063ffffffff16565b94509450945094505093509350935093565b60008060008061265c6138b2565b61266887600080612ffb565b9091505082600001836040018281525082815250505061268b8760016000612ffb565b9091505082602001836060018281525082815250505085156126c15787816000018181516126b991906147f2565b915081815250505b6126ce8760600151613288565b816101200181815250506126fe886126f683610120015161271061322f90919063ffffffff16565b612710613128565b816101400181815250506127368160000151826020015161273184610140015185600001516130cf90919063ffffffff16565b613128565b81608001818152505061275a8160800151826020015161322f90919063ffffffff16565b8160c00181815250508060c001518160400151826060015161278a8461012001518c6127cd90919063ffffffff16565b94509450945094505093509350935093565b600060487fffffffffffffffffffffffffffffffffffffffffff0000ffffffffffffffffff198316901c9050919050565b60008161138860001903048311158215176127e757600080fd5b6127106113888385020104905092915050565b808260000151600060ff166002811061281657612815613fe5565b5b602002015160c00181815161282b91906147be565b915081815250505050565b600080821215612849578160000361284b565b815b9050919050565b60006b033b2e3c9fd0803ce8000000600283046000190304831115158215171561287b57600080fd5b81600283046b033b2e3c9fd0803ce800000085020104905092915050565b6000807ffffffffffffffffffffffffffffffffffffffffffffffffffff7ffffffffffff19831614159050919050565b60008060006128dd846060015160006132b9565b905060006128ea8661332c565b905060006129118284600a6128ff9190614d84565b6b033b2e3c9fd0803ce8000000613128565b9050600061292187600080612ffb565b5050509050818195509550505050509250929050565b600060338261294757600061294a565b60015b60ff16901b7ffffffffffffffffffffffffffffffffffffffffffffffffffff7ffffffffffff841617905092915050565b6000806000808611801561298f5750600084145b1561299f578491508590506129f2565b6000871180156129af5750600085145b156129bf578691508390506129f1565b6040517f6331fab100000000000000000000000000000000000000000000000000000000815260040160405180910390fd5b5b6000612a03896060015160006132b9565b90506000612a168a6060015160016132b9565b90506000612a3d856b033b2e3c9fd0803ce800000085600a612a389190614d84565b613128565b90506000612a64856b033b2e3c9fd0803ce800000085600a612a5f9190614d84565b613128565b9050612a79818361285290919063ffffffff16565b965050505050505095945050505050565b600260ff168460e0015103612ac057600160ff168460e0018181525050818460a001818152505082846060018181525050612c10565b600160ff168460e0015103612b575760008460a001519050828560a001818151612aea91906147be565b915081815250508115612b51576000612b0c8486612fb090919063ffffffff16565b612b23838860600151612fb090919063ffffffff16565b612b2d91906147be565b9050612b468660a001518261285290919063ffffffff16565b866060018181525050505b50612c0f565b600060ff168460e0015103612c0e57818460c001511115612b9057818460c001818151612b8491906147f2565b91508181525050612c0d565b818460c0015103612bc457600260ff168460e001818152505060008460c00181815250506000846080018181525050612c0c565b600160ff168460e00181815250508360c0015182612be291906147f2565b8460a00181815250508284606001818152505060008460c001818152505060008460800181815250505b5b5b5b5b50505050565b600260ff168460e0015103612c4c57600060ff168460e0018181525050818460c001818152505082846080018181525050612d9c565b600060ff168460e0015103612ce35760008460c001519050828560c001818151612c7691906147be565b915081815250508115612cdd576000612c988486612fb090919063ffffffff16565b612caf838860800151612fb090919063ffffffff16565b612cb991906147be565b9050612cd28660c001518261285290919063ffffffff16565b866080018181525050505b50612d9b565b600160ff168460e0015103612d9a57818460a001511115612d1c57818460a001818151612d1091906147f2565b91508181525050612d99565b818460a0015103612d5057600260ff168460e001818152505060008460a00181815250506000846060018181525050612d98565b600060ff168460e00181815250508360a0015182612d6e91906147f2565b8460c00181815250508284608001818152505060008460a001818152505060008460600181815250505b5b5b5b5b50505050565b6000806000612dd385600001518560ff1660028110612dc457612dc3613fe5565b5b602002015186608001516133d3565b90506000612de18686613418565b905080829350935050509250929050565b612e0981612e01613505613526565b63ffffffff16565b50565b6000604051602001612e1d90614e1b565b604051602081830303815290604052805190602001208383604051602001612e4793929190614e3b565b60405160208183030381529060405280519060200120905092915050565b600073ffffffffffffffffffffffffffffffffffffffff16816040015173ffffffffffffffffffffffffffffffffffffffff1603612ecf576040517f4dfbbff300000000000000000000000000000000000000000000000000000000815260040160405180910390fd5b806040015173ffffffffffffffffffffffffffffffffffffffff168273ffffffffffffffffffffffffffffffffffffffff1614612f49578060400151826040517f25c7157e000000000000000000000000000000000000000000000000000000008152600401612f40929190614e72565b60405180910390fd5b5050565b600042905090565b60008082612f61612f4d565b612f6b91906147f2565b84612f769190614e9b565b90506301e133808181612f8c57612f8b614edd565b5b049050806b033b2e3c9fd0803ce8000000612fa791906147be565b91505092915050565b6000816b019d971e4fe8401e740000006000190304831115821517612fd457600080fd5b6b033b2e3c9fd0803ce80000006b019d971e4fe8401e740000008385020104905092915050565b600080600080600087600001518760ff166002811061301d5761301c613fe5565b5b6020020151905060006130308989613418565b90506000810361304f57600080600080955095509550955050506130c6565b600061305f838b608001516133d3565b905060006130768984612fb090919063ffffffff16565b90506000808a1461309957613094838361322f90919063ffffffff16565b61309c565b60005b905082846130aa91906147be565b8484866130b791906147f2565b83985098509850985050505050505b93509350935093565b60008282846130de91906147be565b9150811015613122576040517f08c379a000000000000000000000000000000000000000000000000000000000815260040161311990614f58565b60405180910390fd5b92915050565b60008083850290506000801985870982811083820303915050600081036131635783828161315957613158614edd565b5b0492505050613228565b80841161319c576040517f227bc15300000000000000000000000000000000000000000000000000000000815260040160405180910390fd5b600084868809905082811182039150808303925060008560000386169050808604955080840493506001818260000304019050808302841793506000600287600302189050808702600203810290508087026002038102905080870260020381029050808702600203810290508087026002038102905080870260020381029050808502955050505050505b9392505050565b600082828461323e91906147f2565b9150811115613282576040517f08c379a000000000000000000000000000000000000000000000000000000000815260040161327990614fc4565b60405180910390fd5b92915050565b600060387fffffffffffffffffffffffffffffffffffffffffffffff0000ffffffffffffff198316901c9050919050565b6000807fffffffffffffffffffffffffffffffffffffffff00ffffffffffffffffffffff9050600060589050600160ff168460ff160361331b577fffffffffffffffffffffffffffffffffffffff00ffffffffffffffffffffffff9150606090505b8082198616901c9250505092915050565b60008173ffffffffffffffffffffffffffffffffffffffff1663bd02d0f560405160200161335990615030565b604051602081830303815290604052805190602001206040518263ffffffff1660e01b815260040161338b9190613d77565b602060405180830381865afa1580156133a8573d6000803e3d6000fd5b505050506040513d601f19601f820116820180604052508101906133cc9190613dc8565b9050919050565b6000808360a00151036133e95760009050613412565b60006133f58484613531565b905061340e818560a00151612fb090919063ffffffff16565b9150505b92915050565b60008083600001518360ff166002811061343557613434613fe5565b5b602002015190506000846020015173ffffffffffffffffffffffffffffffffffffffff1663e42c08f283600001516040518263ffffffff1660e01b815260040161347f9190614457565b602060405180830381865afa15801561349c573d6000803e3d6000fd5b505050506040513d601f19601f820116820180604052508101906134c09190613dc8565b9050600081036134d5576000925050506134ff565b6000826060015190508260c0015181836134ef91906147f2565b6134f991906147f2565b93505050505b92915050565b60006a636f6e736f6c652e6c6f679050600080835160208501845afa505050565b613913819050919050565b600061353b612f4d565b820361354d578260200151905061357a565b600061355d846040015184612f55565b9050613576846020015182612fb090919063ffffffff16565b9150505b92915050565b604051806102600160405280613594613764565b8152602001600080191681526020016135ab613727565b815260200160008019168152602001600073ffffffffffffffffffffffffffffffffffffffff1681526020016000815260200160008152602001600081526020016000815260200160008152602001600081526020016000815260200160008152602001600073ffffffffffffffffffffffffffffffffffffffff168152602001600073ffffffffffffffffffffffffffffffffffffffff168152602001600081526020016000815260200160008152602001600081525090565b604051806101e0016040528061367a613764565b815260200160008019168152602001600073ffffffffffffffffffffffffffffffffffffffff168152602001600081526020016000815260200160008152602001600081526020016000815260200160008152602001600073ffffffffffffffffffffffffffffffffffffffff168152602001600073ffffffffffffffffffffffffffffffffffffffff168152602001600081526020016000815260200160008152602001600081525090565b604051806060016040528061373a61391d565b815260200160008152602001600073ffffffffffffffffffffffffffffffffffffffff1681525090565b6040518060a0016040528061377761394a565b8152602001600073ffffffffffffffffffffffffffffffffffffffff168152602001600073ffffffffffffffffffffffffffffffffffffffff16815260200160008152602001600081525090565b60405180610120016040528060008152602001600081526020016000815260200160008152602001600073ffffffffffffffffffffffffffffffffffffffff168152602001600073ffffffffffffffffffffffffffffffffffffffff1681526020016000815260200160008152602001600081525090565b60405180606001604052806000815260200160008152602001600081525090565b6040518060800160405280600073ffffffffffffffffffffffffffffffffffffffff168152602001600073ffffffffffffffffffffffffffffffffffffffff16815260200160008152602001600081525090565b6040518061018001604052806000815260200160008152602001600081526020016000815260200160008152602001600081526020016000815260200160008152602001600081526020016000815260200160008152602001600081525090565b61391b615050565b565b60405180604001604052806002905b613934613977565b81526020019060019003908161392c5790505090565b60405180604001604052806002905b6139616139d2565b8152602001906001900390816139595790505090565b604051806101000160405280600073ffffffffffffffffffffffffffffffffffffffff168152602001600081526020016000815260200160008152602001600081526020016000815260200160008152602001600081525090565b6040518060e00160405280600073ffffffffffffffffffffffffffffffffffffffff1681526020016000815260200160008152602001600081526020016000815260200160008152602001600081525090565b600073ffffffffffffffffffffffffffffffffffffffff82169050919050565b6000819050919050565b6000613a6a613a65613a6084613a25565b613a45565b613a25565b9050919050565b6000613a7c82613a4f565b9050919050565b6000613a8e82613a71565b9050919050565b613a9e81613a83565b82525050565b6000602082019050613ab96000830184613a95565b92915050565b6000604051905090565b600080fd5b6000613ad982613a25565b9050919050565b613ae981613ace565b8114613af457600080fd5b50565b600081359050613b0681613ae0565b92915050565b600080fd5b600060a08284031215613b2757613b26613b0c565b5b81905092915050565b60008060c08385031215613b4757613b46613ac9565b5b6000613b5585828601613af7565b9250506020613b6685828601613b11565b9150509250929050565b6000613b7b82613a71565b9050919050565b613b8b81613b70565b82525050565b6000602082019050613ba66000830184613b82565b92915050565b6000613bb782613a71565b9050919050565b613bc781613bac565b82525050565b6000602082019050613be26000830184613bbe565b92915050565b600060e08284031215613bfe57613bfd613b0c565b5b81905092915050565b6000806101008385031215613c1f57613c1e613ac9565b5b6000613c2d85828601613af7565b9250506020613c3e85828601613be8565b9150509250929050565b600082825260208201905092915050565b7f434f4e54524f4c4c455200000000000000000000000000000000000000000000600082015250565b6000613c8f600a83613c48565b9150613c9a82613c59565b602082019050919050565b60006020820190508181036000830152613cbe81613c82565b9050919050565b600060208284031215613cdb57613cda613ac9565b5b6000613ce984828501613af7565b91505092915050565b7f5245454e5452414e43595f47554152445f535441545553000000000000000000600082015250565b6000613d28601783613c48565b9150613d3382613cf2565b602082019050919050565b60006020820190508181036000830152613d5781613d1b565b9050919050565b6000819050919050565b613d7181613d5e565b82525050565b6000602082019050613d8c6000830184613d68565b92915050565b6000819050919050565b613da581613d92565b8114613db057600080fd5b50565b600081519050613dc281613d9c565b92915050565b600060208284031215613dde57613ddd613ac9565b5b6000613dec84828501613db3565b91505092915050565b7f5265656e7472616e637947756172643a207265656e7472616e742063616c6c00600082015250565b6000613e2b601f83613c48565b9150613e3682613df5565b602082019050919050565b60006020820190508181036000830152613e5a81613e1e565b9050919050565b613e6a81613d92565b82525050565b6000604082019050613e856000830185613d68565b613e926020830184613e61565b9392505050565b613ea281613ace565b82525050565b6000604082019050613ebd6000830185613e99565b613eca6020830184613d68565b9392505050565b60008115159050919050565b613ee681613ed1565b8114613ef157600080fd5b50565b600081519050613f0381613edd565b92915050565b600060208284031215613f1f57613f1e613ac9565b5b6000613f2d84828501613ef4565b91505092915050565b600081519050919050565b60005b83811015613f5f578082015181840152602081019050613f44565b60008484015250505050565b6000601f19601f8301169050919050565b6000613f8782613f36565b613f918185613c48565b9350613fa1818560208601613f41565b613faa81613f6b565b840191505092915050565b6000604082019050613fca6000830185613e99565b8181036020830152613fdc8184613f7c565b90509392505050565b7f4e487b7100000000000000000000000000000000000000000000000000000000600052603260045260246000fd5b6000819050919050565b7f4e487b7100000000000000000000000000000000000000000000000000000000600052601160045260246000fd5b600061405882614014565b915061406383614014565b925082820390508181126000841216828213600085121516171561408a5761408961401e565b5b92915050565b61409981613ace565b82525050565b6140a881613d5e565b82525050565b600060029050919050565b600081905092915050565b6000819050919050565b6140d781613ace565b82525050565b6140e681613d92565b82525050565b6101008201600082015161410360008501826140ce565b50602082015161411660208501826140dd565b50604082015161412960408501826140dd565b50606082015161413c60608501826140dd565b50608082015161414f60808501826140dd565b5060a082015161416260a08501826140dd565b5060c082015161417560c08501826140dd565b5060e082015161418860e08501826140dd565b50505050565b600061419a83836140ec565b6101008301905092915050565b6000602082019050919050565b6141bd816140ae565b6141c781846140b9565b92506141d2826140c4565b8060005b838110156142035781516141ea878261418e565b96506141f5836141a7565b9250506001810190506141d6565b505050505050565b6102408201600082015161422260008501826141b4565b5060208201516142366102008501826140dd565b50604082015161424a6102208501826140ce565b50505050565b6000610280820190506142666000830186614090565b614273602083018561409f565b614280604083018461420b565b949350505050565b600060029050919050565b600081905092915050565b6000819050919050565b60e0820160008201516142be60008501826140ce565b5060208201516142d160208501826140dd565b5060408201516142e460408501826140dd565b5060608201516142f760608501826140dd565b50608082015161430a60808501826140dd565b5060a082015161431d60a08501826140dd565b5060c082015161433060c08501826140dd565b50505050565b600061434283836142a8565b60e08301905092915050565b6000602082019050919050565b61436481614288565b61436e8184614293565b92506143798261429e565b8060005b838110156143aa5781516143918782614336565b965061439c8361434e565b92505060018101905061437d565b505050505050565b610240820160008201516143c9600085018261435b565b5060208201516143dd6101c08501826140ce565b5060408201516143f16101e08501826140ce565b5060608201516144056102008501826140dd565b5060808201516144196102208501826140dd565b50505050565b6000610280820190506144356000830186614090565b614442602083018561409f565b61444f60408301846143b2565b949350505050565b600060208201905061446c6000830184613e99565b92915050565b60006060820190506144876000830186613e99565b6144946020830185613e99565b6144a16040830184613e61565b949350505050565b60006040820190506144be6000830185614090565b6144cb602083018461409f565b9392505050565b600080fd5b7f4e487b7100000000000000000000000000000000000000000000000000000000600052604160045260246000fd5b61450f82613f6b565b810181811067ffffffffffffffff8211171561452e5761452d6144d7565b5b80604052505050565b6000614541613abf565b905061454d8282614506565b919050565b600080fd5b600067ffffffffffffffff821115614572576145716144d7565b5b602082029050919050565b600080fd5b60008151905061459181613ae0565b92915050565b600060e082840312156145ad576145ac6144d2565b5b6145b760e0614537565b905060006145c784828501614582565b60008301525060206145db84828501613db3565b60208301525060406145ef84828501613db3565b604083015250606061460384828501613db3565b606083015250608061461784828501613db3565b60808301525060a061462b84828501613db3565b60a08301525060c061463f84828501613db3565b60c08301525092915050565b600061465e61465984614557565b614537565b90508060e084028301858111156146785761467761457d565b5b835b818110156146a1578061468d8882614597565b84526020840193505060e08101905061467a565b5050509392505050565b600082601f8301126146c0576146bf614552565b5b60026146cd84828561464b565b91505092915050565b600061024082840312156146ed576146ec6144d2565b5b6146f760a0614537565b90506000614707848285016146ab565b6000830152506101c061471c84828501614582565b6020830152506101e061473184828501614582565b60408301525061020061474684828501613db3565b60608301525061022061475b84828501613db3565b60808301525092915050565b6000610240828403121561477e5761477d613ac9565b5b600061478c848285016146d6565b91505092915050565b60006040820190506147aa6000830185613e61565b6147b76020830184613e61565b9392505050565b60006147c982613d92565b91506147d483613d92565b92508282019050808211156147ec576147eb61401e565b5b92915050565b60006147fd82613d92565b915061480883613d92565b92508282039050818111156148205761481f61401e565b5b92915050565b61482f81613d92565b82525050565b60608201600082015161484b6000850182614826565b50602082015161485e6020850182614826565b5060408201516148716040850182614826565b50505050565b600060608201905061488c6000830184614835565b92915050565b6080820160008201516148a86000850182614826565b5060208201516148bb6020850182614826565b5060408201516148ce6040850182614826565b5060608201516148e16060850182614826565b50505050565b6000610160820190506148fd600083018b613e99565b61490a602083018a613e99565b6149176040830189613e99565b6149246060830188613e61565b6149316080830187613e61565b61493e60a0830186613e61565b61494b60c0830185613e61565b61495860e0830184614892565b9998505050505050505050565b6000604082019050818103600083015261497f8185613f7c565b905081810360208301526149938184613f7c565b90509392505050565b600067ffffffffffffffff8211156149b7576149b66144d7565b5b602082029050919050565b600061010082840312156149d9576149d86144d2565b5b6149e4610100614537565b905060006149f484828501614582565b6000830152506020614a0884828501613db3565b6020830152506040614a1c84828501613db3565b6040830152506060614a3084828501613db3565b6060830152506080614a4484828501613db3565b60808301525060a0614a5884828501613db3565b60a08301525060c0614a6c84828501613db3565b60c08301525060e0614a8084828501613db3565b60e08301525092915050565b6000614a9f614a9a8461499c565b614537565b9050806101008402830185811115614aba57614ab961457d565b5b835b81811015614ae45780614acf88826149c2565b84526020840193505061010081019050614abc565b5050509392505050565b600082601f830112614b0357614b02614552565b5b6002614b10848285614a8c565b91505092915050565b60006102408284031215614b3057614b2f6144d2565b5b614b3a6060614537565b90506000614b4a84828501614aee565b600083015250610200614b5f84828501613db3565b602083015250610220614b7484828501614582565b60408301525092915050565b60006102408284031215614b9757614b96613ac9565b5b6000614ba584828501614b19565b91505092915050565b7f504f4f4c00000000000000000000000000000000000000000000000000000000600082015250565b6000614be4600483613c48565b9150614bef82614bae565b602082019050919050565b60006020820190508181036000830152614c1381614bd7565b9050919050565b6000606082019050614c2f6000830186613d68565b614c3c6020830185613e99565b614c496040830184613e99565b949350505050565b60008160011c9050919050565b6000808291508390505b6001851115614ca857808604811115614c8457614c8361401e565b5b6001851615614c935780820291505b8081029050614ca185614c51565b9450614c68565b94509492505050565b600082614cc15760019050614d7d565b81614ccf5760009050614d7d565b8160018114614ce55760028114614cef57614d1e565b6001915050614d7d565b60ff841115614d0157614d0061401e565b5b8360020a915084821115614d1857614d1761401e565b5b50614d7d565b5060208310610133831016604e8410600b8410161715614d535782820a905083811115614d4e57614d4d61401e565b5b614d7d565b614d608484846001614c5e565b92509050818404811115614d7757614d7661401e565b5b81810290505b9392505050565b6000614d8f82613d92565b9150614d9a83613d92565b9250614dc77fffffffffffffffffffffffffffffffffffffffffffffffffffffffffffffffff8484614cb1565b905092915050565b7f504f534954494f4e000000000000000000000000000000000000000000000000600082015250565b6000614e05600883613c48565b9150614e1082614dcf565b602082019050919050565b60006020820190508181036000830152614e3481614df8565b9050919050565b6000606082019050614e506000830186613d68565b614e5d6020830185613e99565b614e6a6040830184613e61565b949350505050565b6000604082019050614e876000830185613e99565b614e946020830184613e99565b9392505050565b6000614ea682613d92565b9150614eb183613d92565b9250828202614ebf81613d92565b91508282048414831517614ed657614ed561401e565b5b5092915050565b7f4e487b7100000000000000000000000000000000000000000000000000000000600052601260045260246000fd5b7f64732d6d6174682d6164642d6f766572666c6f77000000000000000000000000600082015250565b6000614f42601483613c48565b9150614f4d82614f0c565b602082019050919050565b60006020820190508181036000830152614f7181614f35565b9050919050565b7f64732d6d6174682d7375622d756e646572666c6f770000000000000000000000600082015250565b6000614fae601583613c48565b9150614fb982614f78565b602082019050919050565b60006020820190508181036000830152614fdd81614fa1565b9050919050565b7f53484f52545f4c49515549444954595f5448524553484f4c4400000000000000600082015250565b600061501a601983613c48565b915061502582614fe4565b602082019050919050565b600060208201905081810360008301526150498161500d565b9050919050565b7f4e487b7100000000000000000000000000000000000000000000000000000000600052605160045260246000fdfea2646970667358221220ff25c3c9199efdfb9700fa88fe1a53525c7a3f244ac7c448a469ac4babe10d6f64736f6c634300081c0033",
  "linkReferences": {
    "contracts/pool/PoolStoreUtils.sol": {
      "PoolStoreUtils": [
        {
          "length": 20,
          "start": 3120
        },
        {
          "length": 20,
          "start": 4886
        },
        {
          "length": 20,
          "start": 5387
        }
      ]
    },
    "contracts/position/PositionStoreUtils.sol": {
      "PositionStoreUtils": [
        {
          "length": 20,
          "start": 2983
        },
        {
          "length": 20,
          "start": 9272
        }
      ]
    }
  },
  "deployedLinkReferences": {
    "contracts/pool/PoolStoreUtils.sol": {
      "PoolStoreUtils": [
        {
          "length": 20,
          "start": 2476
        },
        {
          "length": 20,
          "start": 4242
        },
        {
          "length": 20,
          "start": 4743
        }
      ]
    },
    "contracts/position/PositionStoreUtils.sol": {
      "PositionStoreUtils": [
        {
          "length": 20,
          "start": 2339
        },
        {
          "length": 20,
          "start": 8628
        }
      ]
    }
  }
}