{
  "_format": "hh-sol-artifact-1",
  "contractName": "Reader",
  "sourceName": "contracts/reader/Reader.sol",
  "abi": [
    {
      "inputs": [],
      "name": "MathOverflowedMulDiv",
      "type": "error"
    },
    {
      "inputs": [
        {
          "internalType": "address",
          "name": "dataStore",
          "type": "address"
        },
        {
          "internalType": "address",
          "name": "token0",
          "type": "address"
        },
        {
          "internalType": "address",
          "name": "token1",
          "type": "address"
        },
        {
          "internalType": "uint256",
          "name": "amountIn",
          "type": "uint256"
        },
        {
          "internalType": "uint8",
          "name": "tokenInIndex",
          "type": "uint8"
        }
      ],
      "name": "calcAmountOut",
      "outputs": [
        {
          "internalType": "uint256",
          "name": "",
          "type": "uint256"
        },
        {
          "internalType": "uint256",
          "name": "",
          "type": "uint256"
        },
        {
          "internalType": "int256",
          "name": "",
          "type": "int256"
        }
      ],
      "stateMutability": "view",
      "type": "function"
    },
    {
      "inputs": [
        {
          "internalType": "address",
          "name": "dataStore",
          "type": "address"
        },
        {
          "internalType": "address",
          "name": "token0",
          "type": "address"
        },
        {
          "internalType": "address",
          "name": "token1",
          "type": "address"
        },
        {
          "internalType": "uint256",
          "name": "amount0",
          "type": "uint256"
        },
        {
          "internalType": "uint256",
          "name": "amount1",
          "type": "uint256"
        }
      ],
      "name": "calcLiquidityOut",
      "outputs": [
        {
          "internalType": "uint256",
          "name": "",
          "type": "uint256"
        }
      ],
      "stateMutability": "view",
      "type": "function"
    },
    {
      "inputs": [
        {
          "internalType": "address",
          "name": "dataStore",
          "type": "address"
        },
        {
          "internalType": "address",
          "name": "token0",
          "type": "address"
        },
        {
          "internalType": "address",
          "name": "token1",
          "type": "address"
        },
        {
          "internalType": "uint256",
          "name": "liquidity",
          "type": "uint256"
        }
      ],
      "name": "calcTokenPairOut",
      "outputs": [
        {
          "internalType": "uint256",
          "name": "",
          "type": "uint256"
        },
        {
          "internalType": "uint256",
          "name": "",
          "type": "uint256"
        }
      ],
      "stateMutability": "view",
      "type": "function"
    },
    {
      "inputs": [
        {
          "internalType": "address",
          "name": "dataStore",
          "type": "address"
        }
      ],
      "name": "getDefaultInterestRateStrategy",
      "outputs": [
        {
          "internalType": "address",
          "name": "",
          "type": "address"
        }
      ],
      "stateMutability": "view",
      "type": "function"
    },
    {
      "inputs": [
        {
          "internalType": "address",
          "name": "dataStore",
          "type": "address"
        }
      ],
      "name": "getDefaultPoolConfiguration",
      "outputs": [
        {
          "internalType": "uint256",
          "name": "",
          "type": "uint256"
        }
      ],
      "stateMutability": "view",
      "type": "function"
    },
    {
      "inputs": [
        {
          "internalType": "address",
          "name": "dataStore",
          "type": "address"
        }
      ],
      "name": "getMarginLevelThreshold",
      "outputs": [
        {
          "internalType": "uint256",
          "name": "",
          "type": "uint256"
        }
      ],
      "stateMutability": "view",
      "type": "function"
    },
    {
      "inputs": [
        {
          "internalType": "address",
          "name": "dataStore",
          "type": "address"
        }
      ],
      "name": "getPools",
      "outputs": [
        {
          "components": [
            {
              "components": [
                {
                  "internalType": "address",
                  "name": "token",
                  "type": "address"
                },
                {
                  "internalType": "string",
                  "name": "symbol",
                  "type": "string"
                },
                {
                  "internalType": "uint256",
                  "name": "decimals",
                  "type": "uint256"
                },
                {
                  "internalType": "uint256",
                  "name": "borrowIndex",
                  "type": "uint256"
                },
                {
                  "internalType": "uint256",
                  "name": "borrowApy",
                  "type": "uint256"
                },
                {
                  "internalType": "uint256",
                  "name": "totalCollateral",
                  "type": "uint256"
                },
                {
                  "internalType": "uint256",
                  "name": "totalCollateralWithDebt",
                  "type": "uint256"
                },
                {
                  "internalType": "uint256",
                  "name": "totalDebtScaled",
                  "type": "uint256"
                },
                {
                  "internalType": "uint256",
                  "name": "poolBalance",
                  "type": "uint256"
                },
                {
                  "internalType": "uint256",
                  "name": "priceLiquidity",
                  "type": "uint256"
                },
                {
                  "internalType": "uint256",
                  "name": "avaiableLoan",
                  "type": "uint256"
                },
                {
                  "internalType": "uint256",
                  "name": "actualTradable",
                  "type": "uint256"
                }
              ],
              "internalType": "struct ReaderPoolUtils.Asset[2]",
              "name": "assets",
              "type": "tuple[2]"
            },
            {
              "internalType": "address",
              "name": "bank",
              "type": "address"
            },
            {
              "internalType": "address",
              "name": "interestRateStrategy",
              "type": "address"
            },
            {
              "internalType": "uint256",
              "name": "configuration",
              "type": "uint256"
            },
            {
              "internalType": "uint256",
              "name": "lastUpdateTimestamp",
              "type": "uint256"
            },
            {
              "internalType": "uint256",
              "name": "priceDecimals",
              "type": "uint256"
            },
            {
              "internalType": "uint256",
              "name": "price",
              "type": "uint256"
            },
            {
              "internalType": "address",
              "name": "source",
              "type": "address"
            },
            {
              "internalType": "bool",
              "name": "shortEnabled",
              "type": "bool"
            },
            {
              "internalType": "uint256",
              "name": "createdTimestamp",
              "type": "uint256"
            },
            {
              "internalType": "uint256",
              "name": "unclaimedFee",
              "type": "uint256"
            }
          ],
          "internalType": "struct ReaderPoolUtils.GetPool[]",
          "name": "",
          "type": "tuple[]"
        }
      ],
      "stateMutability": "view",
      "type": "function"
    },
    {
      "inputs": [
        {
          "internalType": "address",
          "name": "dataStore",
          "type": "address"
        },
        {
          "internalType": "uint256",
          "name": "start",
          "type": "uint256"
        },
        {
          "internalType": "uint256",
          "name": "end",
          "type": "uint256"
        }
      ],
      "name": "getPools",
      "outputs": [
        {
          "components": [
            {
              "components": [
                {
                  "internalType": "address",
                  "name": "token",
                  "type": "address"
                },
                {
                  "internalType": "string",
                  "name": "symbol",
                  "type": "string"
                },
                {
                  "internalType": "uint256",
                  "name": "decimals",
                  "type": "uint256"
                },
                {
                  "internalType": "uint256",
                  "name": "borrowIndex",
                  "type": "uint256"
                },
                {
                  "internalType": "uint256",
                  "name": "borrowApy",
                  "type": "uint256"
                },
                {
                  "internalType": "uint256",
                  "name": "totalCollateral",
                  "type": "uint256"
                },
                {
                  "internalType": "uint256",
                  "name": "totalCollateralWithDebt",
                  "type": "uint256"
                },
                {
                  "internalType": "uint256",
                  "name": "totalDebtScaled",
                  "type": "uint256"
                },
                {
                  "internalType": "uint256",
                  "name": "poolBalance",
                  "type": "uint256"
                },
                {
                  "internalType": "uint256",
                  "name": "priceLiquidity",
                  "type": "uint256"
                },
                {
                  "internalType": "uint256",
                  "name": "avaiableLoan",
                  "type": "uint256"
                },
                {
                  "internalType": "uint256",
                  "name": "actualTradable",
                  "type": "uint256"
                }
              ],
              "internalType": "struct ReaderPoolUtils.Asset[2]",
              "name": "assets",
              "type": "tuple[2]"
            },
            {
              "internalType": "address",
              "name": "bank",
              "type": "address"
            },
            {
              "internalType": "address",
              "name": "interestRateStrategy",
              "type": "address"
            },
            {
              "internalType": "uint256",
              "name": "configuration",
              "type": "uint256"
            },
            {
              "internalType": "uint256",
              "name": "lastUpdateTimestamp",
              "type": "uint256"
            },
            {
              "internalType": "uint256",
              "name": "priceDecimals",
              "type": "uint256"
            },
            {
              "internalType": "uint256",
              "name": "price",
              "type": "uint256"
            },
            {
              "internalType": "address",
              "name": "source",
              "type": "address"
            },
            {
              "internalType": "bool",
              "name": "shortEnabled",
              "type": "bool"
            },
            {
              "internalType": "uint256",
              "name": "createdTimestamp",
              "type": "uint256"
            },
            {
              "internalType": "uint256",
              "name": "unclaimedFee",
              "type": "uint256"
            }
          ],
          "internalType": "struct ReaderPoolUtils.GetPool[]",
          "name": "",
          "type": "tuple[]"
        }
      ],
      "stateMutability": "view",
      "type": "function"
    },
    {
      "inputs": [
        {
          "internalType": "address",
          "name": "dataStore",
          "type": "address"
        }
      ],
      "name": "getPoolsCount",
      "outputs": [
        {
          "internalType": "uint256",
          "name": "",
          "type": "uint256"
        }
      ],
      "stateMutability": "view",
      "type": "function"
    },
    {
      "inputs": [
        {
          "internalType": "address",
          "name": "dataStore",
          "type": "address"
        },
        {
          "internalType": "address",
          "name": "account",
          "type": "address"
        }
      ],
      "name": "getPositions",
      "outputs": [
        {
          "components": [
            {
              "components": [
                {
                  "internalType": "address",
                  "name": "token",
                  "type": "address"
                },
                {
                  "internalType": "string",
                  "name": "symbol",
                  "type": "string"
                },
                {
                  "internalType": "uint256",
                  "name": "decimals",
                  "type": "uint256"
                },
                {
                  "internalType": "uint256",
                  "name": "balance",
                  "type": "uint256"
                },
                {
                  "internalType": "uint256",
                  "name": "debt",
                  "type": "uint256"
                },
                {
                  "internalType": "int256",
                  "name": "netWorth",
                  "type": "int256"
                },
                {
                  "internalType": "uint256",
                  "name": "maxRedeemAmount",
                  "type": "uint256"
                },
                {
                  "internalType": "uint256",
                  "name": "borrowApy",
                  "type": "uint256"
                },
                {
                  "internalType": "int256",
                  "name": "equity",
                  "type": "int256"
                },
                {
                  "internalType": "int256",
                  "name": "equityValue",
                  "type": "int256"
                }
              ],
              "internalType": "struct ReaderPositionUtils.Asset[2]",
              "name": "assets",
              "type": "tuple[2]"
            },
            {
              "internalType": "uint256",
              "name": "id",
              "type": "uint256"
            },
            {
              "internalType": "address",
              "name": "account",
              "type": "address"
            },
            {
              "internalType": "uint256",
              "name": "marginLevel",
              "type": "uint256"
            },
            {
              "internalType": "uint256",
              "name": "entryPrice",
              "type": "uint256"
            },
            {
              "internalType": "uint256",
              "name": "IndexPrice",
              "type": "uint256"
            },
            {
              "internalType": "int256",
              "name": "pnl",
              "type": "int256"
            },
            {
              "internalType": "uint256",
              "name": "liquidationPrice",
              "type": "uint256"
            },
            {
              "internalType": "int256",
              "name": "toLiquidationPrice",
              "type": "int256"
            }
          ],
          "internalType": "struct ReaderPositionUtils.GetPosition[]",
          "name": "",
          "type": "tuple[]"
        }
      ],
      "stateMutability": "view",
      "type": "function"
    },
    {
      "inputs": [
        {
          "internalType": "address",
          "name": "dataStore",
          "type": "address"
        }
      ],
      "name": "getTokenBase",
      "outputs": [
        {
          "internalType": "address",
          "name": "",
          "type": "address"
        }
      ],
      "stateMutability": "view",
      "type": "function"
    },
    {
      "inputs": [
        {
          "internalType": "address",
          "name": "dataStore",
          "type": "address"
        }
      ],
      "name": "getTreasury",
      "outputs": [
        {
          "internalType": "address",
          "name": "",
          "type": "address"
        }
      ],
      "stateMutability": "view",
      "type": "function"
    }
  ],
  "bytecode": "0x6080604052348015600f57600080fd5b50614c738061001f6000396000f3fe608060405234801561001057600080fd5b50600436106100b45760003560e01c8063739118a411610071578063739118a4146101da57806378f212d11461020a5780638f6c7a3c1461023a578063d28b0a151461026a578063e335adb71461029c578063f68a7131146102cc576100b4565b806328a0ccf4146100b9578063317b50ec146100e957806350ed592d1461011a57806357b91ca61461014a5780635a6f57101461017a5780635c39f467146101aa575b600080fd5b6100d360048036038101906100ce9190612a35565b6102fc565b6040516100e09190612a71565b60405180910390f35b61010360048036038101906100fe9190612ac2565b61030e565b604051610111929190612b38565b60405180910390f35b610134600480360381019061012f9190612a35565b61039b565b6040516101419190612b61565b60405180910390f35b610164600480360381019061015f9190612a35565b6103ad565b6040516101719190612b61565b60405180910390f35b610194600480360381019061018f9190612a35565b6103bf565b6040516101a19190612b61565b60405180910390f35b6101c460048036038101906101bf9190612a35565b6103d1565b6040516101d19190612fb0565b60405180910390f35b6101f460048036038101906101ef9190612fd2565b61046a565b6040516102019190613342565b60405180910390f35b610224600480360381019061021f9190612a35565b610490565b6040516102319190612a71565b60405180910390f35b610254600480360381019061024f9190613364565b6104a2565b6040516102619190612fb0565b60405180910390f35b610284600480360381019061027f91906133f0565b61052e565b6040516102939392919061347a565b60405180910390f35b6102b660048036038101906102b19190612a35565b6105c4565b6040516102c39190612a71565b60405180910390f35b6102e660048036038101906102e191906134b1565b6105d6565b6040516102f39190612b61565b60405180910390f35b600061030782610663565b9050919050565b60008073__$22ab6dac19e7eec84dc260d26b99b72765$__63317b50ec878787876040518563ffffffff1660e01b815260040161034e949392919061354a565b6040805180830381865af415801561036a573d6000803e3d6000fd5b505050506040513d601f19601f8201168201806040525081019061038e91906135a4565b9150915094509492505050565b60006103a68261070a565b9050919050565b60006103b8826107b1565b9050919050565b60006103ca82610858565b9050919050565b606060006103de83610858565b905073__$22ab6dac19e7eec84dc260d26b99b72765$__638f6c7a3c846000846040518463ffffffff1660e01b815260040161041c93929190613629565b600060405180830381865af4158015610439573d6000803e3d6000fd5b505050506040513d6000823e3d601f19601f820116820180604052508101906104629190613bec565b915050919050565b6060600061047884846108ff565b9050610487848460008461098b565b91505092915050565b600061049b82610a6b565b9050919050565b606073__$22ab6dac19e7eec84dc260d26b99b72765$__638f6c7a3c8585856040518463ffffffff1660e01b81526004016104df93929190613c35565b600060405180830381865af41580156104fc573d6000803e3d6000fd5b505050506040513d6000823e3d601f19601f820116820180604052508101906105259190613bec565b90509392505050565b600080600073__$22ab6dac19e7eec84dc260d26b99b72765$__63d28b0a1589898989896040518663ffffffff1660e01b8152600401610572959493929190613c7b565b606060405180830381865af415801561058f573d6000803e3d6000fd5b505050506040513d601f19601f820116820180604052508101906105b39190613cfa565b925092509250955095509592505050565b60006105cf82610b12565b9050919050565b600073__$22ab6dac19e7eec84dc260d26b99b72765$__63f68a713187878787876040518663ffffffff1660e01b8152600401610617959493929190613d4d565b602060405180830381865af4158015610634573d6000803e3d6000fd5b505050506040513d601f19601f820116820180604052508101906106589190613da0565b905095945050505050565b60008173ffffffffffffffffffffffffffffffffffffffff166321f8a72160405160200161069090613e2a565b604051602081830303815290604052805190602001206040518263ffffffff1660e01b81526004016106c29190613e63565b602060405180830381865afa1580156106df573d6000803e3d6000fd5b505050506040513d601f19601f820116820180604052508101906107039190613e7e565b9050919050565b60008173ffffffffffffffffffffffffffffffffffffffff1663bd02d0f560405160200161073790613ef7565b604051602081830303815290604052805190602001206040518263ffffffff1660e01b81526004016107699190613e63565b602060405180830381865afa158015610786573d6000803e3d6000fd5b505050506040513d601f19601f820116820180604052508101906107aa9190613da0565b9050919050565b60008173ffffffffffffffffffffffffffffffffffffffff1663bd02d0f56040516020016107de90613f63565b604051602081830303815290604052805190602001206040518263ffffffff1660e01b81526004016108109190613e63565b602060405180830381865afa15801561082d573d6000803e3d6000fd5b505050506040513d601f19601f820116820180604052508101906108519190613da0565b9050919050565b60008173ffffffffffffffffffffffffffffffffffffffff1663f3903b9f60405160200161088590613fcf565b604051602081830303815290604052805190602001206040518263ffffffff1660e01b81526004016108b79190613e63565b602060405180830381865afa1580156108d4573d6000803e3d6000fd5b505050506040513d601f19601f820116820180604052508101906108f89190613da0565b9050919050565b60008273ffffffffffffffffffffffffffffffffffffffff1663f3903b9f61092684610bb9565b6040518263ffffffff1660e01b81526004016109429190613e63565b602060405180830381865afa15801561095f573d6000803e3d6000fd5b505050506040513d601f19601f820116820180604052508101906109839190613da0565b905092915050565b6060600061099b86868686610c0f565b90506000815167ffffffffffffffff8111156109ba576109b9613665565b5b6040519080825280602002602001820160405280156109f357816020015b6109e06125e4565b8152602001906001900390816109d85790505b50905060005b8251811015610a5d576000838281518110610a1757610a16613fef565b5b602002602001015190506000610a2d8a83610ca6565b905080848481518110610a4357610a42613fef565b5b6020026020010181905250505080806001019150506109f9565b508092505050949350505050565b60008173ffffffffffffffffffffffffffffffffffffffff166321f8a721604051602001610a989061406a565b604051602081830303815290604052805190602001206040518263ffffffff1660e01b8152600401610aca9190613e63565b602060405180830381865afa158015610ae7573d6000803e3d6000fd5b505050506040513d601f19601f82011682018060405250810190610b0b9190613e7e565b9050919050565b60008173ffffffffffffffffffffffffffffffffffffffff166321f8a721604051602001610b3f906140d6565b604051602081830303815290604052805190602001206040518263ffffffff1660e01b8152600401610b719190613e63565b602060405180830381865afa158015610b8e573d6000803e3d6000fd5b505050506040513d601f19601f82011682018060405250810190610bb29190613e7e565b9050919050565b6000604051602001610bca90614142565b6040516020818303038152906040528051906020012082604051602001610bf2929190614162565b604051602081830303815290604052805190602001209050919050565b60608473ffffffffffffffffffffffffffffffffffffffff1663f069052a610c3686610bb9565b85856040518463ffffffff1660e01b8152600401610c569392919061418b565b600060405180830381865afa158015610c73573d6000803e3d6000fd5b505050506040513d6000823e3d601f19601f82011682018060405250810190610c9c91906142b1565b9050949350505050565b610cae6125e4565b610cb661264c565b73__$3d31b232fb363902662fbc281b11ab3357$__637b82d74e85856040518363ffffffff1660e01b8152600401610cef929190614309565b61024060405180830381865af4158015610d0d573d6000803e3d6000fd5b505050506040513d601f19601f82011682018060405250810190610d319190614516565b8160000181905250610d91816000015160000151600060ff1660028110610d5b57610d5a613fef565b5b602002015160000151826000015160000151600160ff1660028110610d8357610d82613fef565b5b602002015160000151611629565b81604001818152505073__$e0022d6f389ac14ff1ce1dc57a4018d0a3$__637b82d74e8583604001516040518363ffffffff1660e01b8152600401610dd7929190614309565b61024060405180830381865af4158015610df5573d6000803e3d6000fd5b505050506040513d601f19601f82011682018060405250810190610e19919061473a565b8160200181905250610e3484826020015183600001516116c7565b90919250909150905050816060018181525050610e548160200151611749565b81610300018181525050806000015160000151600060ff1660028110610e7d57610e7c613fef565b5b6020020151602001518160e0018181525050610ef0816020015160000151600060ff1660028110610eb157610eb0613fef565b5b602002015160200151826000015160000151600060ff1660028110610ed957610ed8613fef565b5b60200201516040015161181990919063ffffffff16565b8160c0018181525050610f0c8160200151606001516000611864565b8160a0018181525050610f278160e001518260c001516118d7565b81610100018181525050610f448161010001518260a00151611906565b81610120018181525050610f668160e001518260c00151836101000151611933565b81610140018181525050610f8b84826020015183600001518461030001516000611956565b8161016001818152505080610140015181610180018181525050610fbd8160e001518260c00151836101200151611b17565b816101a0018181525050610fda8160200151606001516001611864565b816101c0018181525050806000015160000151600160ff166002811061100357611002613fef565b5b60200201516020015181610200018181525050611077816020015160000151600160ff166002811061103857611037613fef565b5b602002015160200151826000015160000151600160ff16600281106110605761105f613fef565b5b60200201516040015161181990919063ffffffff16565b816101e0018181525050611095816102000151826101e001516118d7565b816102200181815250506110b3816102200151826101c00151611906565b816102400181815250506110da81610300015182610240015161181990919063ffffffff16565b816102600181815250506110fe816102000151826101e00151836102200151611933565b8161028001818152505061112384826020015183600001518461030001516001611956565b816102a0018181525050806102800151816102c0018181525050611157816102000151826101e00151836102600151611b17565b816102e001818152505061116e8160000151611b3a565b816080018181525050600260ff16816000015160000151600160ff166002811061119b5761119a613fef565b5b602002015160e00151146112c1576111bc8161030001518260800151611bf8565b816103200181815250506111e381610320015182610240015161181990919063ffffffff16565b8161034001818152505080608001518161030001511181610380019015159081151581525050611229816103800151826102000151836101e00151846103400151611c27565b81610360018181525050806103600151816103a0018181525050611298846112598360e001518460a00151611c51565b61126b8460c001518560a00151611c51565b61127f856102000151866101c00151611c51565b611293866101e00151876101c00151611c51565b611c7e565b816103c00181815250506112b6816103c00151826103000151611d6e565b816103e00181815250505b6040518061012001604052806040518060400160405280604051806101400160405280866000015160000151600060ff166002811061130357611302613fef565b5b60200201516000015173ffffffffffffffffffffffffffffffffffffffff168152602001866000015160000151600060ff166002811061134657611345613fef565b5b60200201516000015173ffffffffffffffffffffffffffffffffffffffff166395d89b416040518163ffffffff1660e01b8152600401600060405180830381865afa158015611399573d6000803e3d6000fd5b505050506040513d6000823e3d601f19601f820116820180604052508101906113c29190614768565b81526020018660a0015181526020018660e0015181526020018660c00151815260200186610140015181526020018661016001518152602001866020015160000151600060ff166002811061141a57611419613fef565b5b60200201516040015181526020018661018001518152602001866101a001518152508152602001604051806101400160405280866000015160000151600160ff166002811061146c5761146b613fef565b5b60200201516000015173ffffffffffffffffffffffffffffffffffffffff168152602001866000015160000151600160ff16600281106114af576114ae613fef565b5b60200201516000015173ffffffffffffffffffffffffffffffffffffffff166395d89b416040518163ffffffff1660e01b8152600401600060405180830381865afa158015611502573d6000803e3d6000fd5b505050506040513d6000823e3d601f19601f8201168201806040525081019061152b9190614768565b8152602001866101c0015181526020018661020001518152602001866101e0015181526020018661028001518152602001866102a001518152602001866020015160000151600160ff166002811061158657611585613fef565b5b6020020151604001518152602001866102c001518152602001866102e001518152508152508152602001826000015160200151815260200182600001516040015173ffffffffffffffffffffffffffffffffffffffff16815260200182606001518152602001826080015181526020018261030001518152602001826103a001518152602001826103c001518152602001826103e0015181525091505092915050565b60008173ffffffffffffffffffffffffffffffffffffffff168373ffffffffffffffffffffffffffffffffffffffff1610611665578183611668565b82825b809350819450505060405160200161167f906147fd565b6040516020818303038152906040528051906020012083836040516020016116a99392919061481d565b60405160208183030381529060405280519060200120905092915050565b60008060008060006116d887611749565b90506116e78787836000611de3565b80935081945050506000821161171d577fffffffffffffffffffffffffffffffffffffffffffffffffffffffffffffffff611731565b611730828461201490919063ffffffff16565b5b945061173c886107b1565b9350939792965093509350565b6000806117588360008061205b565b5050509050600061176c846001600061205b565b50505090506000810361178457600092505050611814565b600061179585606001516000611864565b905060006117a886606001516001611864565b905060006117cf856b033b2e3c9fd0803ce800000085600a6117ca91906149b6565b61212f565b905060006117f6856b033b2e3c9fd0803ce800000085600a6117f191906149b6565b61212f565b905061180b818361201490919063ffffffff16565b96505050505050505b919050565b6000816b019d971e4fe8401e74000000600019030483111582151761183d57600080fd5b6b033b2e3c9fd0803ce80000006b019d971e4fe8401e740000008385020104905092915050565b6000807fffffffffffffffffffffffffffffffffffffffff00ffffffffffffffffffffff9050600060589050600160ff168460ff16036118c6577fffffffffffffffffffffffffffffffffffffff00ffffffffffffffffffffffff9150606090505b8082198616901c9250505092915050565b60008183116118f15782826118ec9190614a01565b6118fe565b81836118fd9190614a01565b5b905092915050565b600061192b836b033b2e3c9fd0803ce800000084600a61192691906149b6565b61212f565b905092915050565b600082841161194b578161194690614a35565b61194d565b815b90509392505050565b600061196061274a565b61196d8686866000611de3565b8260000183602001828152508281525050506000816000015114806119b45750600085600001518460ff16600281106119a9576119a8613fef565b5b602002015160200151145b156119c3576000915050611b0e565b6119cc87612236565b8160400181815250506119f08160400151826020015161181990919063ffffffff16565b816080018181525050806080015181600001511015611a13576000915050611b0e565b80608001518160000151611a279190614a01565b816060018181525050611a3e866060015184611864565b8160a0018181525050611a7281606001518260a00151600a611a6091906149b6565b6b033b2e3c9fd0803ce800000061212f565b8160c0018181525050600160ff168360ff1603611aaa57611aa0848260c0015161201490919063ffffffff16565b8160c00181815250505b84600001518360ff1660028110611ac457611ac3613fef565b5b6020020151602001518160c001511115611b055784600001518360ff1660028110611af257611af1613fef565b5b6020020151602001518160c00181815250505b8060c001519150505b95945050505050565b6000828411611b2f5781611b2a90614a35565b611b31565b815b90509392505050565b6000600160ff168260000151600160ff1660028110611b5c57611b5b613fef565b5b602002015160e0015103611b95578160000151600160ff1660028110611b8557611b84613fef565b5b6020020151606001519050611bf3565b600060ff168260000151600160ff1660028110611bb557611bb4613fef565b5b602002015160e0015103611bee578160000151600160ff1660028110611bde57611bdd613fef565b5b6020020151608001519050611bf3565b600090505b919050565b6000818311611c12578282611c0d9190614a01565b611c1f565b8183611c1e9190614a01565b5b905092915050565b6000828411151585151514611c455781611c4090614a35565b611c47565b815b9050949350505050565b6000611c76836b033b2e3c9fd0803ce800000084600a611c7191906149b6565b61212f565b905092915050565b600080611c8a876107b1565b90506000611ca1868361181990919063ffffffff16565b90506000611cb8858461181990919063ffffffff16565b905060008883611cc89190614a7d565b905060008288611cd89190614a7d565b90506000611ce5836122dd565b90506000611cf2836122dd565b9050600084138015611d045750600083125b80611d1b5750600084128015611d1a5750600083135b5b15611d30576000975050505050505050611d65565b60008103611d48576000975050505050505050611d65565b611d5b818361201490919063ffffffff16565b9750505050505050505b95945050505050565b6000808203611d805760009050611ddd565b6000828411611d9a578383611d959190614a01565b611da7565b8284611da69190614a01565b5b90506000611dbe848361201490919063ffffffff16565b9050838511611dd65780611dd190614a35565b611dd8565b805b925050505b92915050565b6000806000808660000151600060ff1660028110611e0457611e03613fef565b5b60200201516000015173ffffffffffffffffffffffffffffffffffffffff168573ffffffffffffffffffffffffffffffffffffffff1614611ede57600080611e4e8a8a60006122f9565b915091506000611e6c60008c6060015161186490919063ffffffff16565b90506000611e93846b033b2e3c9fd0803ce800000084600a611e8e91906149b6565b61212f565b90506000611eba846b033b2e3c9fd0803ce800000085600a611eb591906149b6565b61212f565b90508187611ec89190614ac0565b96508086611ed69190614ac0565b955050505050505b8660000151600160ff1660028110611ef957611ef8613fef565b5b60200201516000015173ffffffffffffffffffffffffffffffffffffffff168573ffffffffffffffffffffffffffffffffffffffff161461200357600080611f438a8a60016122f9565b915091506000611f6160018c6060015161186490919063ffffffff16565b90506000611f88846b033b2e3c9fd0803ce800000084600a611f8391906149b6565b61212f565b90506000611faf846b033b2e3c9fd0803ce800000085600a611faa91906149b6565b61212f565b90506000611fc68c8461181990919063ffffffff16565b90506000611fdd8d8461181990919063ffffffff16565b90508189611feb9190614ac0565b98508088611ff99190614ac0565b9750505050505050505b819350809250505094509492505050565b60006b033b2e3c9fd0803ce8000000600283046000190304831115158215171561203d57600080fd5b81600283046b033b2e3c9fd0803ce800000085020104905092915050565b600080600080600087600001518760ff166002811061207d5761207c613fef565b5b60200201519050600061209089896123a7565b9050600081036120af5760008060008095509550955095505050612126565b60006120bf838b60800151612494565b905060006120d6898461181990919063ffffffff16565b90506000808a146120f9576120f483836124d990919063ffffffff16565b6120fc565b60005b9050828461210a9190614ac0565b8484866121179190614a01565b83985098509850985050505050505b93509350935093565b600080838502905060008019858709828110838203039150506000810361216a578382816121605761215f614af4565b5b049250505061222f565b8084116121a3576040517f227bc15300000000000000000000000000000000000000000000000000000000815260040160405180910390fd5b600084868809905082811182039150808303925060008560000386169050808604955080840493506001818260000304019050808302841793506000600287600302189050808702600203810290508087026002038102905080870260020381029050808702600203810290508087026002038102905080870260020381029050808502955050505050505b9392505050565b60008173ffffffffffffffffffffffffffffffffffffffff1663bd02d0f560405160200161226390614b6f565b604051602081830303815290604052805190602001206040518263ffffffff1660e01b81526004016122959190613e63565b602060405180830381865afa1580156122b2573d6000803e3d6000fd5b505050506040513d601f19601f820116820180604052508101906122d69190613da0565b9050919050565b6000808212156122f057816000036122f2565b815b9050919050565b600080600084600001518460ff166002811061231857612317613fef565b5b6020020151604001519050600061235187600001518660ff166002811061234257612341613fef565b5b60200201518860800151612532565b9050600082146123735761236e818361181990919063ffffffff16565b612376565b60005b925085600001518560ff166002811061239257612391613fef565b5b60200201516020015193505050935093915050565b60008083600001518360ff16600281106123c4576123c3613fef565b5b602002015190506000846020015173ffffffffffffffffffffffffffffffffffffffff1663e42c08f283600001516040518263ffffffff1660e01b815260040161240e9190612a71565b602060405180830381865afa15801561242b573d6000803e3d6000fd5b505050506040513d601f19601f8201168201806040525081019061244f9190613da0565b9050600081036124645760009250505061248e565b6000826060015190508260c00151818361247e9190614a01565b6124889190614a01565b93505050505b92915050565b6000808360a00151036124aa57600090506124d3565b60006124b68484612532565b90506124cf818560a0015161181990919063ffffffff16565b9150505b92915050565b60008282846124e89190614a01565b915081111561252c576040517f08c379a000000000000000000000000000000000000000000000000000000000815260040161252390614bdb565b60405180910390fd5b92915050565b600061253c612581565b820361254e578260200151905061257b565b600061255e846040015184612589565b905061257784602001518261181990919063ffffffff16565b9150505b92915050565b600042905090565b60008082612595612581565b61259f9190614a01565b846125aa9190614bfb565b90506301e1338081816125c0576125bf614af4565b5b049050806b033b2e3c9fd0803ce80000006125db9190614ac0565b91505092915050565b6040518061012001604052806125f8612787565b815260200160008152602001600073ffffffffffffffffffffffffffffffffffffffff1681526020016000815260200160008152602001600081526020016000815260200160008152602001600081525090565b6040518061040001604052806126606127b4565b815260200161266d6127f1565b815260200160008019168152602001600081526020016000815260200160008152602001600081526020016000815260200160008152602001600081526020016000815260200160008152602001600081526020016000815260200160008152602001600081526020016000815260200160008152602001600081526020016000815260200160008152602001600081526020016000815260200160008152602001600081526020016000815260200160008152602001600081526020016000151581526020016000815260200160008152602001600081525090565b6040518060e00160405280600081526020016000815260200160008152602001600081526020016000815260200160008152602001600081525090565b60405180604001604052806002905b61279e612852565b8152602001906001900390816127965790505090565b60405180606001604052806127c76128bb565b815260200160008152602001600073ffffffffffffffffffffffffffffffffffffffff1681525090565b6040518060a001604052806128046128e8565b8152602001600073ffffffffffffffffffffffffffffffffffffffff168152602001600073ffffffffffffffffffffffffffffffffffffffff16815260200160008152602001600081525090565b604051806101400160405280600073ffffffffffffffffffffffffffffffffffffffff1681526020016060815260200160008152602001600081526020016000815260200160008152602001600081526020016000815260200160008152602001600081525090565b60405180604001604052806002905b6128d2612915565b8152602001906001900390816128ca5790505090565b60405180604001604052806002905b6128ff612970565b8152602001906001900390816128f75790505090565b604051806101000160405280600073ffffffffffffffffffffffffffffffffffffffff168152602001600081526020016000815260200160008152602001600081526020016000815260200160008152602001600081525090565b6040518060e00160405280600073ffffffffffffffffffffffffffffffffffffffff1681526020016000815260200160008152602001600081526020016000815260200160008152602001600081525090565b6000604051905090565b600080fd5b600080fd5b600073ffffffffffffffffffffffffffffffffffffffff82169050919050565b6000612a02826129d7565b9050919050565b612a12816129f7565b8114612a1d57600080fd5b50565b600081359050612a2f81612a09565b92915050565b600060208284031215612a4b57612a4a6129cd565b5b6000612a5984828501612a20565b91505092915050565b612a6b816129f7565b82525050565b6000602082019050612a866000830184612a62565b92915050565b6000819050919050565b612a9f81612a8c565b8114612aaa57600080fd5b50565b600081359050612abc81612a96565b92915050565b60008060008060808587031215612adc57612adb6129cd565b5b6000612aea87828801612a20565b9450506020612afb87828801612a20565b9350506040612b0c87828801612a20565b9250506060612b1d87828801612aad565b91505092959194509250565b612b3281612a8c565b82525050565b6000604082019050612b4d6000830185612b29565b612b5a6020830184612b29565b9392505050565b6000602082019050612b766000830184612b29565b92915050565b600081519050919050565b600082825260208201905092915050565b6000819050602082019050919050565b600060029050919050565b600081905092915050565b6000819050919050565b612bd1816129f7565b82525050565b600081519050919050565b600082825260208201905092915050565b60005b83811015612c11578082015181840152602081019050612bf6565b60008484015250505050565b6000601f19601f8301169050919050565b6000612c3982612bd7565b612c438185612be2565b9350612c53818560208601612bf3565b612c5c81612c1d565b840191505092915050565b612c7081612a8c565b82525050565b600061018083016000830151612c8f6000860182612bc8565b5060208301518482036020860152612ca78282612c2e565b9150506040830151612cbc6040860182612c67565b506060830151612ccf6060860182612c67565b506080830151612ce26080860182612c67565b5060a0830151612cf560a0860182612c67565b5060c0830151612d0860c0860182612c67565b5060e0830151612d1b60e0860182612c67565b50610100830151612d30610100860182612c67565b50610120830151612d45610120860182612c67565b50610140830151612d5a610140860182612c67565b50610160830151612d6f610160860182612c67565b508091505092915050565b6000612d868383612c76565b905092915050565b6000602082019050919050565b6000612da682612ba8565b612db08185612bb3565b935083602082028501612dc285612bbe565b8060005b85811015612dfe5784840389528151612ddf8582612d7a565b9450612dea83612d8e565b925060208a01995050600181019050612dc6565b50829750879550505050505092915050565b60008115159050919050565b612e2581612e10565b82525050565b6000610160830160008301518482036000860152612e498282612d9b565b9150506020830151612e5e6020860182612bc8565b506040830151612e716040860182612bc8565b506060830151612e846060860182612c67565b506080830151612e976080860182612c67565b5060a0830151612eaa60a0860182612c67565b5060c0830151612ebd60c0860182612c67565b5060e0830151612ed060e0860182612bc8565b50610100830151612ee5610100860182612e1c565b50610120830151612efa610120860182612c67565b50610140830151612f0f610140860182612c67565b508091505092915050565b6000612f268383612e2b565b905092915050565b6000602082019050919050565b6000612f4682612b7c565b612f508185612b87565b935083602082028501612f6285612b98565b8060005b85811015612f9e5784840389528151612f7f8582612f1a565b9450612f8a83612f2e565b925060208a01995050600181019050612f66565b50829750879550505050505092915050565b60006020820190508181036000830152612fca8184612f3b565b905092915050565b60008060408385031215612fe957612fe86129cd565b5b6000612ff785828601612a20565b925050602061300885828601612a20565b9150509250929050565b600081519050919050565b600082825260208201905092915050565b6000819050602082019050919050565b600060029050919050565b600081905092915050565b6000819050919050565b6000819050919050565b6130718161305e565b82525050565b6000610140830160008301516130906000860182612bc8565b50602083015184820360208601526130a88282612c2e565b91505060408301516130bd6040860182612c67565b5060608301516130d06060860182612c67565b5060808301516130e36080860182612c67565b5060a08301516130f660a0860182613068565b5060c083015161310960c0860182612c67565b5060e083015161311c60e0860182612c67565b50610100830151613131610100860182613068565b50610120830151613146610120860182613068565b508091505092915050565b600061315d8383613077565b905092915050565b6000602082019050919050565b600061317d8261303e565b6131878185613049565b93508360208202850161319985613054565b8060005b858110156131d557848403895281516131b68582613151565b94506131c183613165565b925060208a0199505060018101905061319d565b50829750879550505050505092915050565b60006101208301600083015184820360008601526132058282613172565b915050602083015161321a6020860182612c67565b50604083015161322d6040860182612bc8565b5060608301516132406060860182612c67565b5060808301516132536080860182612c67565b5060a083015161326660a0860182612c67565b5060c083015161327960c0860182613068565b5060e083015161328c60e0860182612c67565b506101008301516132a1610100860182613068565b508091505092915050565b60006132b883836131e7565b905092915050565b6000602082019050919050565b60006132d882613012565b6132e2818561301d565b9350836020820285016132f48561302e565b8060005b85811015613330578484038952815161331185826132ac565b945061331c836132c0565b925060208a019950506001810190506132f8565b50829750879550505050505092915050565b6000602082019050818103600083015261335c81846132cd565b905092915050565b60008060006060848603121561337d5761337c6129cd565b5b600061338b86828701612a20565b935050602061339c86828701612aad565b92505060406133ad86828701612aad565b9150509250925092565b600060ff82169050919050565b6133cd816133b7565b81146133d857600080fd5b50565b6000813590506133ea816133c4565b92915050565b600080600080600060a0868803121561340c5761340b6129cd565b5b600061341a88828901612a20565b955050602061342b88828901612a20565b945050604061343c88828901612a20565b935050606061344d88828901612aad565b925050608061345e888289016133db565b9150509295509295909350565b6134748161305e565b82525050565b600060608201905061348f6000830186612b29565b61349c6020830185612b29565b6134a9604083018461346b565b949350505050565b600080600080600060a086880312156134cd576134cc6129cd565b5b60006134db88828901612a20565b95505060206134ec88828901612a20565b94505060406134fd88828901612a20565b935050606061350e88828901612aad565b925050608061351f88828901612aad565b9150509295509295909350565b613535816129f7565b82525050565b61354481612a8c565b82525050565b600060808201905061355f600083018761352c565b61356c602083018661352c565b613579604083018561352c565b613586606083018461353b565b95945050505050565b60008151905061359e81612a96565b92915050565b600080604083850312156135bb576135ba6129cd565b5b60006135c98582860161358f565b92505060206135da8582860161358f565b9150509250929050565b6000819050919050565b6000819050919050565b600061361361360e613609846135e4565b6135ee565b612a8c565b9050919050565b613623816135f8565b82525050565b600060608201905061363e600083018661352c565b61364b602083018561361a565b613658604083018461353b565b949350505050565b600080fd5b7f4e487b7100000000000000000000000000000000000000000000000000000000600052604160045260246000fd5b61369d82612c1d565b810181811067ffffffffffffffff821117156136bc576136bb613665565b5b80604052505050565b60006136cf6129c3565b90506136db8282613694565b919050565b600067ffffffffffffffff8211156136fb576136fa613665565b5b602082029050602081019050919050565b600080fd5b600080fd5b600080fd5b600067ffffffffffffffff82111561373657613735613665565b5b602082029050919050565b60008151905061375081612a09565b92915050565b600080fd5b600067ffffffffffffffff82111561377657613775613665565b5b61377f82612c1d565b9050602081019050919050565b600061379f61379a8461375b565b6136c5565b9050828152602081018484840111156137bb576137ba613756565b5b6137c6848285612bf3565b509392505050565b600082601f8301126137e3576137e2613660565b5b81516137f384826020860161378c565b91505092915050565b6000610180828403121561381357613812613711565b5b61381e6101806136c5565b9050600061382e84828501613741565b600083015250602082015167ffffffffffffffff81111561385257613851613716565b5b61385e848285016137ce565b60208301525060406138728482850161358f565b60408301525060606138868482850161358f565b606083015250608061389a8482850161358f565b60808301525060a06138ae8482850161358f565b60a08301525060c06138c28482850161358f565b60c08301525060e06138d68482850161358f565b60e0830152506101006138eb8482850161358f565b610100830152506101206139018482850161358f565b610120830152506101406139178482850161358f565b6101408301525061016061392d8482850161358f565b6101608301525092915050565b600061394d6139488461371b565b6136c5565b905080602084028301858111156139675761396661370c565b5b835b818110156139ae57805167ffffffffffffffff81111561398c5761398b613660565b5b80860161399989826137fc565b85526020850194505050602081019050613969565b5050509392505050565b600082601f8301126139cd576139cc613660565b5b60026139da84828561393a565b91505092915050565b6139ec81612e10565b81146139f757600080fd5b50565b600081519050613a09816139e3565b92915050565b60006101608284031215613a2657613a25613711565b5b613a316101606136c5565b9050600082015167ffffffffffffffff811115613a5157613a50613716565b5b613a5d848285016139b8565b6000830152506020613a7184828501613741565b6020830152506040613a8584828501613741565b6040830152506060613a998482850161358f565b6060830152506080613aad8482850161358f565b60808301525060a0613ac18482850161358f565b60a08301525060c0613ad58482850161358f565b60c08301525060e0613ae984828501613741565b60e083015250610100613afe848285016139fa565b61010083015250610120613b148482850161358f565b61012083015250610140613b2a8482850161358f565b6101408301525092915050565b6000613b4a613b45846136e0565b6136c5565b90508083825260208201905060208402830185811115613b6d57613b6c61370c565b5b835b81811015613bb457805167ffffffffffffffff811115613b9257613b91613660565b5b808601613b9f8982613a0f565b85526020850194505050602081019050613b6f565b5050509392505050565b600082601f830112613bd357613bd2613660565b5b8151613be3848260208601613b37565b91505092915050565b600060208284031215613c0257613c016129cd565b5b600082015167ffffffffffffffff811115613c2057613c1f6129d2565b5b613c2c84828501613bbe565b91505092915050565b6000606082019050613c4a600083018661352c565b613c57602083018561353b565b613c64604083018461353b565b949350505050565b613c75816133b7565b82525050565b600060a082019050613c90600083018861352c565b613c9d602083018761352c565b613caa604083018661352c565b613cb7606083018561353b565b613cc46080830184613c6c565b9695505050505050565b613cd78161305e565b8114613ce257600080fd5b50565b600081519050613cf481613cce565b92915050565b600080600060608486031215613d1357613d126129cd565b5b6000613d218682870161358f565b9350506020613d328682870161358f565b9250506040613d4386828701613ce5565b9150509250925092565b600060a082019050613d62600083018861352c565b613d6f602083018761352c565b613d7c604083018661352c565b613d89606083018561353b565b613d96608083018461353b565b9695505050505050565b600060208284031215613db657613db56129cd565b5b6000613dc48482850161358f565b91505092915050565b600082825260208201905092915050565b7f544f4b454e5f4241534500000000000000000000000000000000000000000000600082015250565b6000613e14600a83613dcd565b9150613e1f82613dde565b602082019050919050565b60006020820190508181036000830152613e4381613e07565b9050919050565b6000819050919050565b613e5d81613e4a565b82525050565b6000602082019050613e786000830184613e54565b92915050565b600060208284031215613e9457613e936129cd565b5b6000613ea284828501613741565b91505092915050565b7f44454641554c545f504f4f4c5f434f4e46494755524154494f4e000000000000600082015250565b6000613ee1601a83613dcd565b9150613eec82613eab565b602082019050919050565b60006020820190508181036000830152613f1081613ed4565b9050919050565b7f4d415247494e5f4c4556454c4c5f5448524553484f4c44000000000000000000600082015250565b6000613f4d601783613dcd565b9150613f5882613f17565b602082019050919050565b60006020820190508181036000830152613f7c81613f40565b9050919050565b7f504f4f4c5f4c4953540000000000000000000000000000000000000000000000600082015250565b6000613fb9600983613dcd565b9150613fc482613f83565b602082019050919050565b60006020820190508181036000830152613fe881613fac565b9050919050565b7f4e487b7100000000000000000000000000000000000000000000000000000000600052603260045260246000fd5b7f5452454153555259000000000000000000000000000000000000000000000000600082015250565b6000614054600883613dcd565b915061405f8261401e565b602082019050919050565b6000602082019050818103600083015261408381614047565b9050919050565b7f44454641554c545f494e5445524553545f524154455f53545241544547590000600082015250565b60006140c0601e83613dcd565b91506140cb8261408a565b602082019050919050565b600060208201905081810360008301526140ef816140b3565b9050919050565b7f4143434f554e545f504f534954494f4e5f4c4953540000000000000000000000600082015250565b600061412c601583613dcd565b9150614137826140f6565b602082019050919050565b6000602082019050818103600083015261415b8161411f565b9050919050565b60006040820190506141776000830185613e54565b6141846020830184612a62565b9392505050565b60006060820190506141a06000830186613e54565b6141ad6020830185612b29565b6141ba6040830184612b29565b949350505050565b600067ffffffffffffffff8211156141dd576141dc613665565b5b602082029050602081019050919050565b6141f781613e4a565b811461420257600080fd5b50565b600081519050614214816141ee565b92915050565b600061422d614228846141c2565b6136c5565b905080838252602082019050602084028301858111156142505761424f61370c565b5b835b8181101561427957806142658882614205565b845260208401935050602081019050614252565b5050509392505050565b600082601f83011261429857614297613660565b5b81516142a884826020860161421a565b91505092915050565b6000602082840312156142c7576142c66129cd565b5b600082015167ffffffffffffffff8111156142e5576142e46129d2565b5b6142f184828501614283565b91505092915050565b61430381613e4a565b82525050565b600060408201905061431e600083018561352c565b61432b60208301846142fa565b9392505050565b600067ffffffffffffffff82111561434d5761434c613665565b5b602082029050919050565b6000610100828403121561436f5761436e613711565b5b61437a6101006136c5565b9050600061438a84828501613741565b600083015250602061439e8482850161358f565b60208301525060406143b28482850161358f565b60408301525060606143c68482850161358f565b60608301525060806143da8482850161358f565b60808301525060a06143ee8482850161358f565b60a08301525060c06144028482850161358f565b60c08301525060e06144168482850161358f565b60e08301525092915050565b600061443561443084614332565b6136c5565b90508061010084028301858111156144505761444f61370c565b5b835b8181101561447a57806144658882614358565b84526020840193505061010081019050614452565b5050509392505050565b600082601f83011261449957614498613660565b5b60026144a6848285614422565b91505092915050565b600061024082840312156144c6576144c5613711565b5b6144d060606136c5565b905060006144e084828501614484565b6000830152506102006144f58482850161358f565b60208301525061022061450a84828501613741565b60408301525092915050565b6000610240828403121561452d5761452c6129cd565b5b600061453b848285016144af565b91505092915050565b600067ffffffffffffffff82111561455f5761455e613665565b5b602082029050919050565b600060e082840312156145805761457f613711565b5b61458a60e06136c5565b9050600061459a84828501613741565b60008301525060206145ae8482850161358f565b60208301525060406145c28482850161358f565b60408301525060606145d68482850161358f565b60608301525060806145ea8482850161358f565b60808301525060a06145fe8482850161358f565b60a08301525060c06146128482850161358f565b60c08301525092915050565b600061463161462c84614544565b6136c5565b90508060e0840283018581111561464b5761464a61370c565b5b835b818110156146745780614660888261456a565b84526020840193505060e08101905061464d565b5050509392505050565b600082601f83011261469357614692613660565b5b60026146a084828561461e565b91505092915050565b600061024082840312156146c0576146bf613711565b5b6146ca60a06136c5565b905060006146da8482850161467e565b6000830152506101c06146ef84828501613741565b6020830152506101e061470484828501613741565b6040830152506102006147198482850161358f565b60608301525061022061472e8482850161358f565b60808301525092915050565b60006102408284031215614751576147506129cd565b5b600061475f848285016146a9565b91505092915050565b60006020828403121561477e5761477d6129cd565b5b600082015167ffffffffffffffff81111561479c5761479b6129d2565b5b6147a8848285016137ce565b91505092915050565b7f504f4f4c00000000000000000000000000000000000000000000000000000000600082015250565b60006147e7600483613dcd565b91506147f2826147b1565b602082019050919050565b60006020820190508181036000830152614816816147da565b9050919050565b60006060820190506148326000830186613e54565b61483f6020830185612a62565b61484c6040830184612a62565b949350505050565b7f4e487b7100000000000000000000000000000000000000000000000000000000600052601160045260246000fd5b60008160011c9050919050565b6000808291508390505b60018511156148da578086048111156148b6576148b5614854565b5b60018516156148c55780820291505b80810290506148d385614883565b945061489a565b94509492505050565b6000826148f357600190506149af565b8161490157600090506149af565b8160018114614917576002811461492157614950565b60019150506149af565b60ff84111561493357614932614854565b5b8360020a91508482111561494a57614949614854565b5b506149af565b5060208310610133831016604e8410600b84101617156149855782820a9050838111156149805761497f614854565b5b6149af565b6149928484846001614890565b925090508184048111156149a9576149a8614854565b5b81810290505b9392505050565b60006149c182612a8c565b91506149cc83612a8c565b92506149f97fffffffffffffffffffffffffffffffffffffffffffffffffffffffffffffffff84846148e3565b905092915050565b6000614a0c82612a8c565b9150614a1783612a8c565b9250828203905081811115614a2f57614a2e614854565b5b92915050565b6000614a408261305e565b91507f80000000000000000000000000000000000000000000000000000000000000008203614a7257614a71614854565b5b816000039050919050565b6000614a888261305e565b9150614a938361305e565b9250828203905081811260008412168282136000851215161715614aba57614ab9614854565b5b92915050565b6000614acb82612a8c565b9150614ad683612a8c565b9250828201905080821115614aee57614aed614854565b5b92915050565b7f4e487b7100000000000000000000000000000000000000000000000000000000600052601260045260246000fd5b7f444542545f5341464554595f464143544f520000000000000000000000000000600082015250565b6000614b59601283613dcd565b9150614b6482614b23565b602082019050919050565b60006020820190508181036000830152614b8881614b4c565b9050919050565b7f64732d6d6174682d7375622d756e646572666c6f770000000000000000000000600082015250565b6000614bc5601583613dcd565b9150614bd082614b8f565b602082019050919050565b60006020820190508181036000830152614bf481614bb8565b9050919050565b6000614c0682612a8c565b9150614c1183612a8c565b9250828202614c1f81612a8c565b91508282048414831517614c3657614c35614854565b5b509291505056fea2646970667358221220262e273b6c95497b820611461bd97547ac37bbc21033a39e71de97804d8e139d64736f6c634300081c0033",
  "linkReferences": {
    "contracts/pool/PoolStoreUtils.sol": {
      "PoolStoreUtils": [
        {
          "length": 20,
          "start": 3515
        }
      ]
    },
    "contracts/position/PositionStoreUtils.sol": {
      "PositionStoreUtils": [
        {
          "length": 20,
          "start": 3287
        }
      ]
    },
    "contracts/reader/ReaderPoolUtils.sol": {
      "ReaderPoolUtils": [
        {
          "length": 20,
          "start": 818
        },
        {
          "length": 20,
          "start": 1025
        },
        {
          "length": 20,
          "start": 1221
        },
        {
          "length": 20,
          "start": 1364
        },
        {
          "length": 20,
          "start": 1529
        }
      ]
    }
  },
  "deployedLinkReferences": {
    "contracts/pool/PoolStoreUtils.sol": {
      "PoolStoreUtils": [
        {
          "length": 20,
          "start": 3484
        }
      ]
    },
    "contracts/position/PositionStoreUtils.sol": {
      "PositionStoreUtils": [
        {
          "length": 20,
          "start": 3256
        }
      ]
    },
    "contracts/reader/ReaderPoolUtils.sol": {
      "ReaderPoolUtils": [
        {
          "length": 20,
          "start": 787
        },
        {
          "length": 20,
          "start": 994
        },
        {
          "length": 20,
          "start": 1190
        },
        {
          "length": 20,
          "start": 1333
        },
        {
          "length": 20,
          "start": 1498
        }
      ]
    }
  }
}