{
  "_format": "hh-sol-artifact-1",
  "contractName": "Reader",
  "sourceName": "contracts/reader/Reader.sol",
  "abi": [
    {
      "inputs": [],
      "name": "MathOverflowedMulDiv",
      "type": "error"
    },
    {
      "inputs": [
        {
          "internalType": "address",
          "name": "dataStore",
          "type": "address"
        },
        {
          "internalType": "address",
          "name": "token0",
          "type": "address"
        },
        {
          "internalType": "address",
          "name": "token1",
          "type": "address"
        },
        {
          "internalType": "uint256",
          "name": "amountOut",
          "type": "uint256"
        },
        {
          "internalType": "uint8",
          "name": "tokenOutIndex",
          "type": "uint8"
        }
      ],
      "name": "calcAmountIn",
      "outputs": [
        {
          "internalType": "uint256",
          "name": "",
          "type": "uint256"
        },
        {
          "internalType": "uint256",
          "name": "",
          "type": "uint256"
        },
        {
          "internalType": "int256",
          "name": "",
          "type": "int256"
        }
      ],
      "stateMutability": "view",
      "type": "function"
    },
    {
      "inputs": [
        {
          "internalType": "address",
          "name": "dataStore",
          "type": "address"
        },
        {
          "internalType": "address",
          "name": "token0",
          "type": "address"
        },
        {
          "internalType": "address",
          "name": "token1",
          "type": "address"
        },
        {
          "internalType": "uint256",
          "name": "amountIn",
          "type": "uint256"
        },
        {
          "internalType": "uint8",
          "name": "tokenInIndex",
          "type": "uint8"
        }
      ],
      "name": "calcAmountOut",
      "outputs": [
        {
          "internalType": "uint256",
          "name": "",
          "type": "uint256"
        },
        {
          "internalType": "uint256",
          "name": "",
          "type": "uint256"
        },
        {
          "internalType": "int256",
          "name": "",
          "type": "int256"
        }
      ],
      "stateMutability": "view",
      "type": "function"
    },
    {
      "inputs": [
        {
          "internalType": "address",
          "name": "dataStore",
          "type": "address"
        },
        {
          "internalType": "address",
          "name": "token0",
          "type": "address"
        },
        {
          "internalType": "address",
          "name": "token1",
          "type": "address"
        },
        {
          "internalType": "uint256",
          "name": "amount0",
          "type": "uint256"
        },
        {
          "internalType": "uint256",
          "name": "amount1",
          "type": "uint256"
        }
      ],
      "name": "calcLiquidityOut",
      "outputs": [
        {
          "internalType": "uint256",
          "name": "",
          "type": "uint256"
        }
      ],
      "stateMutability": "view",
      "type": "function"
    },
    {
      "inputs": [
        {
          "internalType": "address",
          "name": "dataStore",
          "type": "address"
        },
        {
          "internalType": "address",
          "name": "token0",
          "type": "address"
        },
        {
          "internalType": "address",
          "name": "token1",
          "type": "address"
        },
        {
          "internalType": "uint256",
          "name": "liquidity",
          "type": "uint256"
        }
      ],
      "name": "calcTokenPairOut",
      "outputs": [
        {
          "internalType": "uint256",
          "name": "",
          "type": "uint256"
        },
        {
          "internalType": "uint256",
          "name": "",
          "type": "uint256"
        }
      ],
      "stateMutability": "view",
      "type": "function"
    },
    {
      "inputs": [
        {
          "internalType": "address",
          "name": "dataStore",
          "type": "address"
        }
      ],
      "name": "getDefaultInterestRateStrategy",
      "outputs": [
        {
          "internalType": "address",
          "name": "",
          "type": "address"
        }
      ],
      "stateMutability": "view",
      "type": "function"
    },
    {
      "inputs": [
        {
          "internalType": "address",
          "name": "dataStore",
          "type": "address"
        }
      ],
      "name": "getDefaultPoolConfiguration",
      "outputs": [
        {
          "internalType": "uint256",
          "name": "",
          "type": "uint256"
        }
      ],
      "stateMutability": "view",
      "type": "function"
    },
    {
      "inputs": [
        {
          "internalType": "address",
          "name": "dataStore",
          "type": "address"
        }
      ],
      "name": "getMarginLevelThreshold",
      "outputs": [
        {
          "internalType": "uint256",
          "name": "",
          "type": "uint256"
        }
      ],
      "stateMutability": "view",
      "type": "function"
    },
    {
      "inputs": [
        {
          "internalType": "address",
          "name": "dataStore",
          "type": "address"
        }
      ],
      "name": "getPools",
      "outputs": [
        {
          "components": [
            {
              "components": [
                {
                  "internalType": "address",
                  "name": "token",
                  "type": "address"
                },
                {
                  "internalType": "string",
                  "name": "symbol",
                  "type": "string"
                },
                {
                  "internalType": "uint256",
                  "name": "decimals",
                  "type": "uint256"
                },
                {
                  "internalType": "uint256",
                  "name": "borrowIndex",
                  "type": "uint256"
                },
                {
                  "internalType": "uint256",
                  "name": "borrowApy",
                  "type": "uint256"
                },
                {
                  "internalType": "uint256",
                  "name": "totalCollateral",
                  "type": "uint256"
                },
                {
                  "internalType": "uint256",
                  "name": "totalCollateralWithDebt",
                  "type": "uint256"
                },
                {
                  "internalType": "uint256",
                  "name": "totalDebtScaled",
                  "type": "uint256"
                },
                {
                  "internalType": "uint256",
                  "name": "poolBalance",
                  "type": "uint256"
                },
                {
                  "internalType": "uint256",
                  "name": "priceLiquidity",
                  "type": "uint256"
                },
                {
                  "internalType": "uint256",
                  "name": "avaiableLoan",
                  "type": "uint256"
                },
                {
                  "internalType": "uint256",
                  "name": "actualTradable",
                  "type": "uint256"
                }
              ],
              "internalType": "struct ReaderPoolUtils.Asset[2]",
              "name": "assets",
              "type": "tuple[2]"
            },
            {
              "internalType": "address",
              "name": "bank",
              "type": "address"
            },
            {
              "internalType": "address",
              "name": "interestRateStrategy",
              "type": "address"
            },
            {
              "internalType": "uint256",
              "name": "configuration",
              "type": "uint256"
            },
            {
              "internalType": "uint256",
              "name": "lastUpdateTimestamp",
              "type": "uint256"
            },
            {
              "internalType": "uint256",
              "name": "priceDecimals",
              "type": "uint256"
            },
            {
              "internalType": "uint256",
              "name": "price",
              "type": "uint256"
            },
            {
              "internalType": "address",
              "name": "source",
              "type": "address"
            },
            {
              "internalType": "bool",
              "name": "shortEnabled",
              "type": "bool"
            },
            {
              "internalType": "uint256",
              "name": "createdTimestamp",
              "type": "uint256"
            },
            {
              "internalType": "uint256",
              "name": "unclaimedFee",
              "type": "uint256"
            }
          ],
          "internalType": "struct ReaderPoolUtils.GetPool[]",
          "name": "",
          "type": "tuple[]"
        }
      ],
      "stateMutability": "view",
      "type": "function"
    },
    {
      "inputs": [
        {
          "internalType": "address",
          "name": "dataStore",
          "type": "address"
        },
        {
          "internalType": "uint256",
          "name": "start",
          "type": "uint256"
        },
        {
          "internalType": "uint256",
          "name": "end",
          "type": "uint256"
        }
      ],
      "name": "getPools",
      "outputs": [
        {
          "components": [
            {
              "components": [
                {
                  "internalType": "address",
                  "name": "token",
                  "type": "address"
                },
                {
                  "internalType": "string",
                  "name": "symbol",
                  "type": "string"
                },
                {
                  "internalType": "uint256",
                  "name": "decimals",
                  "type": "uint256"
                },
                {
                  "internalType": "uint256",
                  "name": "borrowIndex",
                  "type": "uint256"
                },
                {
                  "internalType": "uint256",
                  "name": "borrowApy",
                  "type": "uint256"
                },
                {
                  "internalType": "uint256",
                  "name": "totalCollateral",
                  "type": "uint256"
                },
                {
                  "internalType": "uint256",
                  "name": "totalCollateralWithDebt",
                  "type": "uint256"
                },
                {
                  "internalType": "uint256",
                  "name": "totalDebtScaled",
                  "type": "uint256"
                },
                {
                  "internalType": "uint256",
                  "name": "poolBalance",
                  "type": "uint256"
                },
                {
                  "internalType": "uint256",
                  "name": "priceLiquidity",
                  "type": "uint256"
                },
                {
                  "internalType": "uint256",
                  "name": "avaiableLoan",
                  "type": "uint256"
                },
                {
                  "internalType": "uint256",
                  "name": "actualTradable",
                  "type": "uint256"
                }
              ],
              "internalType": "struct ReaderPoolUtils.Asset[2]",
              "name": "assets",
              "type": "tuple[2]"
            },
            {
              "internalType": "address",
              "name": "bank",
              "type": "address"
            },
            {
              "internalType": "address",
              "name": "interestRateStrategy",
              "type": "address"
            },
            {
              "internalType": "uint256",
              "name": "configuration",
              "type": "uint256"
            },
            {
              "internalType": "uint256",
              "name": "lastUpdateTimestamp",
              "type": "uint256"
            },
            {
              "internalType": "uint256",
              "name": "priceDecimals",
              "type": "uint256"
            },
            {
              "internalType": "uint256",
              "name": "price",
              "type": "uint256"
            },
            {
              "internalType": "address",
              "name": "source",
              "type": "address"
            },
            {
              "internalType": "bool",
              "name": "shortEnabled",
              "type": "bool"
            },
            {
              "internalType": "uint256",
              "name": "createdTimestamp",
              "type": "uint256"
            },
            {
              "internalType": "uint256",
              "name": "unclaimedFee",
              "type": "uint256"
            }
          ],
          "internalType": "struct ReaderPoolUtils.GetPool[]",
          "name": "",
          "type": "tuple[]"
        }
      ],
      "stateMutability": "view",
      "type": "function"
    },
    {
      "inputs": [
        {
          "internalType": "address",
          "name": "dataStore",
          "type": "address"
        }
      ],
      "name": "getPoolsCount",
      "outputs": [
        {
          "internalType": "uint256",
          "name": "",
          "type": "uint256"
        }
      ],
      "stateMutability": "view",
      "type": "function"
    },
    {
      "inputs": [
        {
          "internalType": "address",
          "name": "dataStore",
          "type": "address"
        },
        {
          "internalType": "address",
          "name": "account",
          "type": "address"
        }
      ],
      "name": "getPositions",
      "outputs": [
        {
          "components": [
            {
              "components": [
                {
                  "internalType": "address",
                  "name": "token",
                  "type": "address"
                },
                {
                  "internalType": "string",
                  "name": "symbol",
                  "type": "string"
                },
                {
                  "internalType": "uint256",
                  "name": "decimals",
                  "type": "uint256"
                },
                {
                  "internalType": "uint256",
                  "name": "balance",
                  "type": "uint256"
                },
                {
                  "internalType": "uint256",
                  "name": "debt",
                  "type": "uint256"
                },
                {
                  "internalType": "int256",
                  "name": "netWorth",
                  "type": "int256"
                },
                {
                  "internalType": "uint256",
                  "name": "maxRedeemAmount",
                  "type": "uint256"
                },
                {
                  "internalType": "uint256",
                  "name": "borrowApy",
                  "type": "uint256"
                },
                {
                  "internalType": "int256",
                  "name": "equity",
                  "type": "int256"
                },
                {
                  "internalType": "int256",
                  "name": "equityValue",
                  "type": "int256"
                }
              ],
              "internalType": "struct ReaderPositionUtils.Asset[2]",
              "name": "assets",
              "type": "tuple[2]"
            },
            {
              "internalType": "uint256",
              "name": "id",
              "type": "uint256"
            },
            {
              "internalType": "address",
              "name": "account",
              "type": "address"
            },
            {
              "internalType": "uint256",
              "name": "marginLevel",
              "type": "uint256"
            },
            {
              "internalType": "uint256",
              "name": "entryPrice",
              "type": "uint256"
            },
            {
              "internalType": "uint256",
              "name": "IndexPrice",
              "type": "uint256"
            },
            {
              "internalType": "int256",
              "name": "pnl",
              "type": "int256"
            },
            {
              "internalType": "uint256",
              "name": "liquidationPrice",
              "type": "uint256"
            },
            {
              "internalType": "int256",
              "name": "toLiquidationPrice",
              "type": "int256"
            }
          ],
          "internalType": "struct ReaderPositionUtils.GetPosition[]",
          "name": "",
          "type": "tuple[]"
        }
      ],
      "stateMutability": "view",
      "type": "function"
    },
    {
      "inputs": [
        {
          "internalType": "address",
          "name": "dataStore",
          "type": "address"
        }
      ],
      "name": "getTokenBase",
      "outputs": [
        {
          "internalType": "address",
          "name": "",
          "type": "address"
        }
      ],
      "stateMutability": "view",
      "type": "function"
    },
    {
      "inputs": [
        {
          "internalType": "address",
          "name": "dataStore",
          "type": "address"
        }
      ],
      "name": "getTreasury",
      "outputs": [
        {
          "internalType": "address",
          "name": "",
          "type": "address"
        }
      ],
      "stateMutability": "view",
      "type": "function"
    }
  ],
  "bytecode": "0x6080604052348015600f57600080fd5b50614d9f8061001f6000396000f3fe608060405234801561001057600080fd5b50600436106100cf5760003560e01c8063739118a41161008c578063c2bdeda111610066578063c2bdeda114610285578063d28b0a15146102b7578063e335adb7146102e9578063f68a713114610319576100cf565b8063739118a4146101f557806378f212d1146102255780638f6c7a3c14610255576100cf565b806328a0ccf4146100d4578063317b50ec1461010457806350ed592d1461013557806357b91ca6146101655780635a6f5710146101955780635c39f467146101c5575b600080fd5b6100ee60048036038101906100e99190612b61565b610349565b6040516100fb9190612b9d565b60405180910390f35b61011e60048036038101906101199190612bee565b61035b565b60405161012c929190612c64565b60405180910390f35b61014f600480360381019061014a9190612b61565b6103e8565b60405161015c9190612c8d565b60405180910390f35b61017f600480360381019061017a9190612b61565b6103fa565b60405161018c9190612c8d565b60405180910390f35b6101af60048036038101906101aa9190612b61565b61040c565b6040516101bc9190612c8d565b60405180910390f35b6101df60048036038101906101da9190612b61565b61041e565b6040516101ec91906130dc565b60405180910390f35b61020f600480360381019061020a91906130fe565b6104b7565b60405161021c919061346e565b60405180910390f35b61023f600480360381019061023a9190612b61565b6104dd565b60405161024c9190612b9d565b60405180910390f35b61026f600480360381019061026a9190613490565b6104ef565b60405161027c91906130dc565b60405180910390f35b61029f600480360381019061029a919061351c565b61057b565b6040516102ae939291906135a6565b60405180910390f35b6102d160048036038101906102cc919061351c565b610611565b6040516102e0939291906135a6565b60405180910390f35b61030360048036038101906102fe9190612b61565b6106a7565b6040516103109190612b9d565b60405180910390f35b610333600480360381019061032e91906135dd565b6106b9565b6040516103409190612c8d565b60405180910390f35b600061035482610746565b9050919050565b60008073__$22ab6dac19e7eec84dc260d26b99b72765$__63317b50ec878787876040518563ffffffff1660e01b815260040161039b9493929190613676565b6040805180830381865af41580156103b7573d6000803e3d6000fd5b505050506040513d601f19601f820116820180604052508101906103db91906136d0565b9150915094509492505050565b60006103f3826107ed565b9050919050565b600061040582610894565b9050919050565b60006104178261093b565b9050919050565b6060600061042b8361093b565b905073__$22ab6dac19e7eec84dc260d26b99b72765$__638f6c7a3c846000846040518463ffffffff1660e01b815260040161046993929190613755565b600060405180830381865af4158015610486573d6000803e3d6000fd5b505050506040513d6000823e3d601f19601f820116820180604052508101906104af9190613d18565b915050919050565b606060006104c584846109e2565b90506104d48484600084610a6e565b91505092915050565b60006104e882610b4e565b9050919050565b606073__$22ab6dac19e7eec84dc260d26b99b72765$__638f6c7a3c8585856040518463ffffffff1660e01b815260040161052c93929190613d61565b600060405180830381865af4158015610549573d6000803e3d6000fd5b505050506040513d6000823e3d601f19601f820116820180604052508101906105729190613d18565b90509392505050565b600080600073__$22ab6dac19e7eec84dc260d26b99b72765$__63c2bdeda189898989896040518663ffffffff1660e01b81526004016105bf959493929190613da7565b606060405180830381865af41580156105dc573d6000803e3d6000fd5b505050506040513d601f19601f820116820180604052508101906106009190613e26565b925092509250955095509592505050565b600080600073__$22ab6dac19e7eec84dc260d26b99b72765$__63d28b0a1589898989896040518663ffffffff1660e01b8152600401610655959493929190613da7565b606060405180830381865af4158015610672573d6000803e3d6000fd5b505050506040513d601f19601f820116820180604052508101906106969190613e26565b925092509250955095509592505050565b60006106b282610bf5565b9050919050565b600073__$22ab6dac19e7eec84dc260d26b99b72765$__63f68a713187878787876040518663ffffffff1660e01b81526004016106fa959493929190613e79565b602060405180830381865af4158015610717573d6000803e3d6000fd5b505050506040513d601f19601f8201168201806040525081019061073b9190613ecc565b905095945050505050565b60008173ffffffffffffffffffffffffffffffffffffffff166321f8a72160405160200161077390613f56565b604051602081830303815290604052805190602001206040518263ffffffff1660e01b81526004016107a59190613f8f565b602060405180830381865afa1580156107c2573d6000803e3d6000fd5b505050506040513d601f19601f820116820180604052508101906107e69190613faa565b9050919050565b60008173ffffffffffffffffffffffffffffffffffffffff1663bd02d0f560405160200161081a90614023565b604051602081830303815290604052805190602001206040518263ffffffff1660e01b815260040161084c9190613f8f565b602060405180830381865afa158015610869573d6000803e3d6000fd5b505050506040513d601f19601f8201168201806040525081019061088d9190613ecc565b9050919050565b60008173ffffffffffffffffffffffffffffffffffffffff1663bd02d0f56040516020016108c19061408f565b604051602081830303815290604052805190602001206040518263ffffffff1660e01b81526004016108f39190613f8f565b602060405180830381865afa158015610910573d6000803e3d6000fd5b505050506040513d601f19601f820116820180604052508101906109349190613ecc565b9050919050565b60008173ffffffffffffffffffffffffffffffffffffffff1663f3903b9f604051602001610968906140fb565b604051602081830303815290604052805190602001206040518263ffffffff1660e01b815260040161099a9190613f8f565b602060405180830381865afa1580156109b7573d6000803e3d6000fd5b505050506040513d601f19601f820116820180604052508101906109db9190613ecc565b9050919050565b60008273ffffffffffffffffffffffffffffffffffffffff1663f3903b9f610a0984610c9c565b6040518263ffffffff1660e01b8152600401610a259190613f8f565b602060405180830381865afa158015610a42573d6000803e3d6000fd5b505050506040513d601f19601f82011682018060405250810190610a669190613ecc565b905092915050565b60606000610a7e86868686610cf2565b90506000815167ffffffffffffffff811115610a9d57610a9c613791565b5b604051908082528060200260200182016040528015610ad657816020015b610ac3612710565b815260200190600190039081610abb5790505b50905060005b8251811015610b40576000838281518110610afa57610af961411b565b5b602002602001015190506000610b108a83610d89565b905080848481518110610b2657610b2561411b565b5b602002602001018190525050508080600101915050610adc565b508092505050949350505050565b60008173ffffffffffffffffffffffffffffffffffffffff166321f8a721604051602001610b7b90614196565b604051602081830303815290604052805190602001206040518263ffffffff1660e01b8152600401610bad9190613f8f565b602060405180830381865afa158015610bca573d6000803e3d6000fd5b505050506040513d601f19601f82011682018060405250810190610bee9190613faa565b9050919050565b60008173ffffffffffffffffffffffffffffffffffffffff166321f8a721604051602001610c2290614202565b604051602081830303815290604052805190602001206040518263ffffffff1660e01b8152600401610c549190613f8f565b602060405180830381865afa158015610c71573d6000803e3d6000fd5b505050506040513d601f19601f82011682018060405250810190610c959190613faa565b9050919050565b6000604051602001610cad9061426e565b6040516020818303038152906040528051906020012082604051602001610cd592919061428e565b604051602081830303815290604052805190602001209050919050565b60608473ffffffffffffffffffffffffffffffffffffffff1663f069052a610d1986610c9c565b85856040518463ffffffff1660e01b8152600401610d39939291906142b7565b600060405180830381865afa158015610d56573d6000803e3d6000fd5b505050506040513d6000823e3d601f19601f82011682018060405250810190610d7f91906143dd565b9050949350505050565b610d91612710565b610d99612778565b73__$3d31b232fb363902662fbc281b11ab3357$__637b82d74e85856040518363ffffffff1660e01b8152600401610dd2929190614435565b61024060405180830381865af4158015610df0573d6000803e3d6000fd5b505050506040513d601f19601f82011682018060405250810190610e149190614642565b8160000181905250610e74816000015160000151600060ff1660028110610e3e57610e3d61411b565b5b602002015160000151826000015160000151600160ff1660028110610e6657610e6561411b565b5b60200201516000015161170c565b81604001818152505073__$e0022d6f389ac14ff1ce1dc57a4018d0a3$__637b82d74e8583604001516040518363ffffffff1660e01b8152600401610eba929190614435565b61024060405180830381865af4158015610ed8573d6000803e3d6000fd5b505050506040513d601f19601f82011682018060405250810190610efc9190614866565b8160200181905250610f1784826020015183600001516117aa565b90919250909150905050816060018181525050610f37816020015161182c565b81610300018181525050806000015160000151600060ff1660028110610f6057610f5f61411b565b5b6020020151602001518160e0018181525050610fd3816020015160000151600060ff1660028110610f9457610f9361411b565b5b602002015160200151826000015160000151600060ff1660028110610fbc57610fbb61411b565b5b6020020151604001516118fc90919063ffffffff16565b8160c0018181525050610fef8160200151606001516000611947565b8160a001818152505061100a8160e001518260c001516119ba565b816101000181815250506110278161010001518260a001516119e9565b816101200181815250506110498160e001518260c00151836101000151611a16565b8161014001818152505061106e84826020015183600001518461030001516000611a39565b81610160018181525050806101400151816101800181815250506110a08160e001518260c00151836101200151611bfa565b816101a00181815250506110bd8160200151606001516001611947565b816101c0018181525050806000015160000151600160ff16600281106110e6576110e561411b565b5b6020020151602001518161020001818152505061115a816020015160000151600160ff166002811061111b5761111a61411b565b5b602002015160200151826000015160000151600160ff16600281106111435761114261411b565b5b6020020151604001516118fc90919063ffffffff16565b816101e0018181525050611178816102000151826101e001516119ba565b81610220018181525050611196816102200151826101c001516119e9565b816102400181815250506111bd8161030001518261024001516118fc90919063ffffffff16565b816102600181815250506111e1816102000151826101e00151836102200151611a16565b8161028001818152505061120684826020015183600001518461030001516001611a39565b816102a0018181525050806102800151816102c001818152505061123a816102000151826101e00151836102600151611bfa565b816102e00181815250506112518160000151611c1d565b816080018181525050600260ff16816000015160000151600160ff166002811061127e5761127d61411b565b5b602002015160e00151146113a45761129f8161030001518260800151611cdb565b816103200181815250506112c68161032001518261024001516118fc90919063ffffffff16565b816103400181815250508060800151816103000151118161038001901515908115158152505061130c816103800151826102000151836101e00151846103400151611d0a565b81610360018181525050806103600151816103a001818152505061137b8461133c8360e001518460a00151611d34565b61134e8460c001518560a00151611d34565b611362856102000151866101c00151611d34565b611376866101e00151876101c00151611d34565b611d61565b816103c0018181525050611399816103c00151826103000151611e51565b816103e00181815250505b6040518061012001604052806040518060400160405280604051806101400160405280866000015160000151600060ff16600281106113e6576113e561411b565b5b60200201516000015173ffffffffffffffffffffffffffffffffffffffff168152602001866000015160000151600060ff16600281106114295761142861411b565b5b60200201516000015173ffffffffffffffffffffffffffffffffffffffff166395d89b416040518163ffffffff1660e01b8152600401600060405180830381865afa15801561147c573d6000803e3d6000fd5b505050506040513d6000823e3d601f19601f820116820180604052508101906114a59190614894565b81526020018660a0015181526020018660e0015181526020018660c00151815260200186610140015181526020018661016001518152602001866020015160000151600060ff16600281106114fd576114fc61411b565b5b60200201516040015181526020018661018001518152602001866101a001518152508152602001604051806101400160405280866000015160000151600160ff166002811061154f5761154e61411b565b5b60200201516000015173ffffffffffffffffffffffffffffffffffffffff168152602001866000015160000151600160ff16600281106115925761159161411b565b5b60200201516000015173ffffffffffffffffffffffffffffffffffffffff166395d89b416040518163ffffffff1660e01b8152600401600060405180830381865afa1580156115e5573d6000803e3d6000fd5b505050506040513d6000823e3d601f19601f8201168201806040525081019061160e9190614894565b8152602001866101c0015181526020018661020001518152602001866101e0015181526020018661028001518152602001866102a001518152602001866020015160000151600160ff16600281106116695761166861411b565b5b6020020151604001518152602001866102c001518152602001866102e001518152508152508152602001826000015160200151815260200182600001516040015173ffffffffffffffffffffffffffffffffffffffff16815260200182606001518152602001826080015181526020018261030001518152602001826103a001518152602001826103c001518152602001826103e0015181525091505092915050565b60008173ffffffffffffffffffffffffffffffffffffffff168373ffffffffffffffffffffffffffffffffffffffff161061174857818361174b565b82825b809350819450505060405160200161176290614929565b60405160208183030381529060405280519060200120838360405160200161178c93929190614949565b60405160208183030381529060405280519060200120905092915050565b60008060008060006117bb8761182c565b90506117ca8787836000611ec6565b809350819450505060008211611800577fffffffffffffffffffffffffffffffffffffffffffffffffffffffffffffffff611814565b61181382846120f790919063ffffffff16565b5b945061181f88610894565b9350939792965093509350565b60008061183b8360008061213e565b5050509050600061184f846001600061213e565b505050905060008103611867576000925050506118f7565b600061187885606001516000611947565b9050600061188b86606001516001611947565b905060006118b2856b033b2e3c9fd0803ce800000085600a6118ad9190614ae2565b61223d565b905060006118d9856b033b2e3c9fd0803ce800000085600a6118d49190614ae2565b61223d565b90506118ee81836120f790919063ffffffff16565b96505050505050505b919050565b6000816b019d971e4fe8401e74000000600019030483111582151761192057600080fd5b6b033b2e3c9fd0803ce80000006b019d971e4fe8401e740000008385020104905092915050565b6000807fffffffffffffffffffffffffffffffffffffffff00ffffffffffffffffffffff9050600060589050600160ff168460ff16036119a9577fffffffffffffffffffffffffffffffffffffff00ffffffffffffffffffffffff9150606090505b8082198616901c9250505092915050565b60008183116119d45782826119cf9190614b2d565b6119e1565b81836119e09190614b2d565b5b905092915050565b6000611a0e836b033b2e3c9fd0803ce800000084600a611a099190614ae2565b61223d565b905092915050565b6000828411611a2e5781611a2990614b61565b611a30565b815b90509392505050565b6000611a43612876565b611a508686866000611ec6565b826000018360200182815250828152505050600081600001511480611a975750600085600001518460ff1660028110611a8c57611a8b61411b565b5b602002015160200151145b15611aa6576000915050611bf1565b611aaf87612344565b816040018181525050611ad3816040015182602001516118fc90919063ffffffff16565b816080018181525050806080015181600001511015611af6576000915050611bf1565b80608001518160000151611b0a9190614b2d565b816060018181525050611b21866060015184611947565b8160a0018181525050611b5581606001518260a00151600a611b439190614ae2565b6b033b2e3c9fd0803ce800000061223d565b8160c0018181525050600160ff168360ff1603611b8d57611b83848260c001516120f790919063ffffffff16565b8160c00181815250505b84600001518360ff1660028110611ba757611ba661411b565b5b6020020151602001518160c001511115611be85784600001518360ff1660028110611bd557611bd461411b565b5b6020020151602001518160c00181815250505b8060c001519150505b95945050505050565b6000828411611c125781611c0d90614b61565b611c14565b815b90509392505050565b6000600160ff168260000151600160ff1660028110611c3f57611c3e61411b565b5b602002015160e0015103611c78578160000151600160ff1660028110611c6857611c6761411b565b5b6020020151606001519050611cd6565b600060ff168260000151600160ff1660028110611c9857611c9761411b565b5b602002015160e0015103611cd1578160000151600160ff1660028110611cc157611cc061411b565b5b6020020151608001519050611cd6565b600090505b919050565b6000818311611cf5578282611cf09190614b2d565b611d02565b8183611d019190614b2d565b5b905092915050565b6000828411151585151514611d285781611d2390614b61565b611d2a565b815b9050949350505050565b6000611d59836b033b2e3c9fd0803ce800000084600a611d549190614ae2565b61223d565b905092915050565b600080611d6d87610894565b90506000611d8486836118fc90919063ffffffff16565b90506000611d9b85846118fc90919063ffffffff16565b905060008883611dab9190614ba9565b905060008288611dbb9190614ba9565b90506000611dc8836123eb565b90506000611dd5836123eb565b9050600084138015611de75750600083125b80611dfe5750600084128015611dfd5750600083135b5b15611e13576000975050505050505050611e48565b60008103611e2b576000975050505050505050611e48565b611e3e81836120f790919063ffffffff16565b9750505050505050505b95945050505050565b6000808203611e635760009050611ec0565b6000828411611e7d578383611e789190614b2d565b611e8a565b8284611e899190614b2d565b5b90506000611ea184836120f790919063ffffffff16565b9050838511611eb95780611eb490614b61565b611ebb565b805b925050505b92915050565b6000806000808660000151600060ff1660028110611ee757611ee661411b565b5b60200201516000015173ffffffffffffffffffffffffffffffffffffffff168573ffffffffffffffffffffffffffffffffffffffff1614611fc157600080611f318a8a6000612407565b915091506000611f4f60008c6060015161194790919063ffffffff16565b90506000611f76846b033b2e3c9fd0803ce800000084600a611f719190614ae2565b61223d565b90506000611f9d846b033b2e3c9fd0803ce800000085600a611f989190614ae2565b61223d565b90508187611fab9190614bec565b96508086611fb99190614bec565b955050505050505b8660000151600160ff1660028110611fdc57611fdb61411b565b5b60200201516000015173ffffffffffffffffffffffffffffffffffffffff168573ffffffffffffffffffffffffffffffffffffffff16146120e6576000806120268a8a6001612407565b91509150600061204460018c6060015161194790919063ffffffff16565b9050600061206b846b033b2e3c9fd0803ce800000084600a6120669190614ae2565b61223d565b90506000612092846b033b2e3c9fd0803ce800000085600a61208d9190614ae2565b61223d565b905060006120a98c846118fc90919063ffffffff16565b905060006120c08d846118fc90919063ffffffff16565b905081896120ce9190614bec565b985080886120dc9190614bec565b9750505050505050505b819350809250505094509492505050565b60006b033b2e3c9fd0803ce8000000600283046000190304831115158215171561212057600080fd5b81600283046b033b2e3c9fd0803ce800000085020104905092915050565b600080600080600087600001518760ff16600281106121605761215f61411b565b5b60200201519050600061217389896124b5565b9050600081036121925760008060008095509550955095505050612234565b60006121a2838b608001516125c0565b905060008183106121c5576121c0828461260590919063ffffffff16565b6121c8565b60005b905060006121df8a856118fc90919063ffffffff16565b90506000808b146122115783821061220957612204848361260590919063ffffffff16565b61220c565b60005b612214565b60005b905083856122229190614bec565b85848399509950995099505050505050505b93509350935093565b60008083850290506000801985870982811083820303915050600081036122785783828161226e5761226d614c20565b5b049250505061233d565b8084116122b1576040517f227bc15300000000000000000000000000000000000000000000000000000000815260040160405180910390fd5b600084868809905082811182039150808303925060008560000386169050808604955080840493506001818260000304019050808302841793506000600287600302189050808702600203810290508087026002038102905080870260020381029050808702600203810290508087026002038102905080870260020381029050808502955050505050505b9392505050565b60008173ffffffffffffffffffffffffffffffffffffffff1663bd02d0f560405160200161237190614c9b565b604051602081830303815290604052805190602001206040518263ffffffff1660e01b81526004016123a39190613f8f565b602060405180830381865afa1580156123c0573d6000803e3d6000fd5b505050506040513d601f19601f820116820180604052508101906123e49190613ecc565b9050919050565b6000808212156123fe5781600003612400565b815b9050919050565b600080600084600001518460ff16600281106124265761242561411b565b5b6020020151604001519050600061245f87600001518660ff16600281106124505761244f61411b565b5b6020020151886080015161265e565b9050600082146124815761247c81836118fc90919063ffffffff16565b612484565b60005b925085600001518560ff16600281106124a05761249f61411b565b5b60200201516020015193505050935093915050565b60008083600001518360ff16600281106124d2576124d161411b565b5b602002015190506000846020015173ffffffffffffffffffffffffffffffffffffffff1663e42c08f283600001516040518263ffffffff1660e01b815260040161251c9190612b9d565b602060405180830381865afa158015612539573d6000803e3d6000fd5b505050506040513d601f19601f8201168201806040525081019061255d9190613ecc565b905060008103612572576000925050506125ba565b6000826060015190508260c001518161258b9190614bec565b82106125b1578260c0015181836125a29190614b2d565b6125ac9190614b2d565b6125b4565b60005b93505050505b92915050565b6000808360a00151036125d657600090506125ff565b60006125e2848461265e565b90506125fb818560a001516118fc90919063ffffffff16565b9150505b92915050565b60008282846126149190614b2d565b9150811115612658576040517f08c379a000000000000000000000000000000000000000000000000000000000815260040161264f90614d07565b60405180910390fd5b92915050565b60006126686126ad565b820361267a57826020015190506126a7565b600061268a8460400151846126b5565b90506126a38460200151826118fc90919063ffffffff16565b9150505b92915050565b600042905090565b600080826126c16126ad565b6126cb9190614b2d565b846126d69190614d27565b90506301e1338081816126ec576126eb614c20565b5b049050806b033b2e3c9fd0803ce80000006127079190614bec565b91505092915050565b6040518061012001604052806127246128b3565b815260200160008152602001600073ffffffffffffffffffffffffffffffffffffffff1681526020016000815260200160008152602001600081526020016000815260200160008152602001600081525090565b60405180610400016040528061278c6128e0565b815260200161279961291d565b815260200160008019168152602001600081526020016000815260200160008152602001600081526020016000815260200160008152602001600081526020016000815260200160008152602001600081526020016000815260200160008152602001600081526020016000815260200160008152602001600081526020016000815260200160008152602001600081526020016000815260200160008152602001600081526020016000815260200160008152602001600081526020016000151581526020016000815260200160008152602001600081525090565b6040518060e00160405280600081526020016000815260200160008152602001600081526020016000815260200160008152602001600081525090565b60405180604001604052806002905b6128ca61297e565b8152602001906001900390816128c25790505090565b60405180606001604052806128f36129e7565b815260200160008152602001600073ffffffffffffffffffffffffffffffffffffffff1681525090565b6040518060a00160405280612930612a14565b8152602001600073ffffffffffffffffffffffffffffffffffffffff168152602001600073ffffffffffffffffffffffffffffffffffffffff16815260200160008152602001600081525090565b604051806101400160405280600073ffffffffffffffffffffffffffffffffffffffff1681526020016060815260200160008152602001600081526020016000815260200160008152602001600081526020016000815260200160008152602001600081525090565b60405180604001604052806002905b6129fe612a41565b8152602001906001900390816129f65790505090565b60405180604001604052806002905b612a2b612a9c565b815260200190600190039081612a235790505090565b604051806101000160405280600073ffffffffffffffffffffffffffffffffffffffff168152602001600081526020016000815260200160008152602001600081526020016000815260200160008152602001600081525090565b6040518060e00160405280600073ffffffffffffffffffffffffffffffffffffffff1681526020016000815260200160008152602001600081526020016000815260200160008152602001600081525090565b6000604051905090565b600080fd5b600080fd5b600073ffffffffffffffffffffffffffffffffffffffff82169050919050565b6000612b2e82612b03565b9050919050565b612b3e81612b23565b8114612b4957600080fd5b50565b600081359050612b5b81612b35565b92915050565b600060208284031215612b7757612b76612af9565b5b6000612b8584828501612b4c565b91505092915050565b612b9781612b23565b82525050565b6000602082019050612bb26000830184612b8e565b92915050565b6000819050919050565b612bcb81612bb8565b8114612bd657600080fd5b50565b600081359050612be881612bc2565b92915050565b60008060008060808587031215612c0857612c07612af9565b5b6000612c1687828801612b4c565b9450506020612c2787828801612b4c565b9350506040612c3887828801612b4c565b9250506060612c4987828801612bd9565b91505092959194509250565b612c5e81612bb8565b82525050565b6000604082019050612c796000830185612c55565b612c866020830184612c55565b9392505050565b6000602082019050612ca26000830184612c55565b92915050565b600081519050919050565b600082825260208201905092915050565b6000819050602082019050919050565b600060029050919050565b600081905092915050565b6000819050919050565b612cfd81612b23565b82525050565b600081519050919050565b600082825260208201905092915050565b60005b83811015612d3d578082015181840152602081019050612d22565b60008484015250505050565b6000601f19601f8301169050919050565b6000612d6582612d03565b612d6f8185612d0e565b9350612d7f818560208601612d1f565b612d8881612d49565b840191505092915050565b612d9c81612bb8565b82525050565b600061018083016000830151612dbb6000860182612cf4565b5060208301518482036020860152612dd38282612d5a565b9150506040830151612de86040860182612d93565b506060830151612dfb6060860182612d93565b506080830151612e0e6080860182612d93565b5060a0830151612e2160a0860182612d93565b5060c0830151612e3460c0860182612d93565b5060e0830151612e4760e0860182612d93565b50610100830151612e5c610100860182612d93565b50610120830151612e71610120860182612d93565b50610140830151612e86610140860182612d93565b50610160830151612e9b610160860182612d93565b508091505092915050565b6000612eb28383612da2565b905092915050565b6000602082019050919050565b6000612ed282612cd4565b612edc8185612cdf565b935083602082028501612eee85612cea565b8060005b85811015612f2a5784840389528151612f0b8582612ea6565b9450612f1683612eba565b925060208a01995050600181019050612ef2565b50829750879550505050505092915050565b60008115159050919050565b612f5181612f3c565b82525050565b6000610160830160008301518482036000860152612f758282612ec7565b9150506020830151612f8a6020860182612cf4565b506040830151612f9d6040860182612cf4565b506060830151612fb06060860182612d93565b506080830151612fc36080860182612d93565b5060a0830151612fd660a0860182612d93565b5060c0830151612fe960c0860182612d93565b5060e0830151612ffc60e0860182612cf4565b50610100830151613011610100860182612f48565b50610120830151613026610120860182612d93565b5061014083015161303b610140860182612d93565b508091505092915050565b60006130528383612f57565b905092915050565b6000602082019050919050565b600061307282612ca8565b61307c8185612cb3565b93508360208202850161308e85612cc4565b8060005b858110156130ca57848403895281516130ab8582613046565b94506130b68361305a565b925060208a01995050600181019050613092565b50829750879550505050505092915050565b600060208201905081810360008301526130f68184613067565b905092915050565b6000806040838503121561311557613114612af9565b5b600061312385828601612b4c565b925050602061313485828601612b4c565b9150509250929050565b600081519050919050565b600082825260208201905092915050565b6000819050602082019050919050565b600060029050919050565b600081905092915050565b6000819050919050565b6000819050919050565b61319d8161318a565b82525050565b6000610140830160008301516131bc6000860182612cf4565b50602083015184820360208601526131d48282612d5a565b91505060408301516131e96040860182612d93565b5060608301516131fc6060860182612d93565b50608083015161320f6080860182612d93565b5060a083015161322260a0860182613194565b5060c083015161323560c0860182612d93565b5060e083015161324860e0860182612d93565b5061010083015161325d610100860182613194565b50610120830151613272610120860182613194565b508091505092915050565b600061328983836131a3565b905092915050565b6000602082019050919050565b60006132a98261316a565b6132b38185613175565b9350836020820285016132c585613180565b8060005b8581101561330157848403895281516132e2858261327d565b94506132ed83613291565b925060208a019950506001810190506132c9565b50829750879550505050505092915050565b6000610120830160008301518482036000860152613331828261329e565b91505060208301516133466020860182612d93565b5060408301516133596040860182612cf4565b50606083015161336c6060860182612d93565b50608083015161337f6080860182612d93565b5060a083015161339260a0860182612d93565b5060c08301516133a560c0860182613194565b5060e08301516133b860e0860182612d93565b506101008301516133cd610100860182613194565b508091505092915050565b60006133e48383613313565b905092915050565b6000602082019050919050565b60006134048261313e565b61340e8185613149565b9350836020820285016134208561315a565b8060005b8581101561345c578484038952815161343d85826133d8565b9450613448836133ec565b925060208a01995050600181019050613424565b50829750879550505050505092915050565b6000602082019050818103600083015261348881846133f9565b905092915050565b6000806000606084860312156134a9576134a8612af9565b5b60006134b786828701612b4c565b93505060206134c886828701612bd9565b92505060406134d986828701612bd9565b9150509250925092565b600060ff82169050919050565b6134f9816134e3565b811461350457600080fd5b50565b600081359050613516816134f0565b92915050565b600080600080600060a0868803121561353857613537612af9565b5b600061354688828901612b4c565b955050602061355788828901612b4c565b945050604061356888828901612b4c565b935050606061357988828901612bd9565b925050608061358a88828901613507565b9150509295509295909350565b6135a08161318a565b82525050565b60006060820190506135bb6000830186612c55565b6135c86020830185612c55565b6135d56040830184613597565b949350505050565b600080600080600060a086880312156135f9576135f8612af9565b5b600061360788828901612b4c565b955050602061361888828901612b4c565b945050604061362988828901612b4c565b935050606061363a88828901612bd9565b925050608061364b88828901612bd9565b9150509295509295909350565b61366181612b23565b82525050565b61367081612bb8565b82525050565b600060808201905061368b6000830187613658565b6136986020830186613658565b6136a56040830185613658565b6136b26060830184613667565b95945050505050565b6000815190506136ca81612bc2565b92915050565b600080604083850312156136e7576136e6612af9565b5b60006136f5858286016136bb565b9250506020613706858286016136bb565b9150509250929050565b6000819050919050565b6000819050919050565b600061373f61373a61373584613710565b61371a565b612bb8565b9050919050565b61374f81613724565b82525050565b600060608201905061376a6000830186613658565b6137776020830185613746565b6137846040830184613667565b949350505050565b600080fd5b7f4e487b7100000000000000000000000000000000000000000000000000000000600052604160045260246000fd5b6137c982612d49565b810181811067ffffffffffffffff821117156137e8576137e7613791565b5b80604052505050565b60006137fb612aef565b905061380782826137c0565b919050565b600067ffffffffffffffff82111561382757613826613791565b5b602082029050602081019050919050565b600080fd5b600080fd5b600080fd5b600067ffffffffffffffff82111561386257613861613791565b5b602082029050919050565b60008151905061387c81612b35565b92915050565b600080fd5b600067ffffffffffffffff8211156138a2576138a1613791565b5b6138ab82612d49565b9050602081019050919050565b60006138cb6138c684613887565b6137f1565b9050828152602081018484840111156138e7576138e6613882565b5b6138f2848285612d1f565b509392505050565b600082601f83011261390f5761390e61378c565b5b815161391f8482602086016138b8565b91505092915050565b6000610180828403121561393f5761393e61383d565b5b61394a6101806137f1565b9050600061395a8482850161386d565b600083015250602082015167ffffffffffffffff81111561397e5761397d613842565b5b61398a848285016138fa565b602083015250604061399e848285016136bb565b60408301525060606139b2848285016136bb565b60608301525060806139c6848285016136bb565b60808301525060a06139da848285016136bb565b60a08301525060c06139ee848285016136bb565b60c08301525060e0613a02848285016136bb565b60e083015250610100613a17848285016136bb565b61010083015250610120613a2d848285016136bb565b61012083015250610140613a43848285016136bb565b61014083015250610160613a59848285016136bb565b6101608301525092915050565b6000613a79613a7484613847565b6137f1565b90508060208402830185811115613a9357613a92613838565b5b835b81811015613ada57805167ffffffffffffffff811115613ab857613ab761378c565b5b808601613ac58982613928565b85526020850194505050602081019050613a95565b5050509392505050565b600082601f830112613af957613af861378c565b5b6002613b06848285613a66565b91505092915050565b613b1881612f3c565b8114613b2357600080fd5b50565b600081519050613b3581613b0f565b92915050565b60006101608284031215613b5257613b5161383d565b5b613b5d6101606137f1565b9050600082015167ffffffffffffffff811115613b7d57613b7c613842565b5b613b8984828501613ae4565b6000830152506020613b9d8482850161386d565b6020830152506040613bb18482850161386d565b6040830152506060613bc5848285016136bb565b6060830152506080613bd9848285016136bb565b60808301525060a0613bed848285016136bb565b60a08301525060c0613c01848285016136bb565b60c08301525060e0613c158482850161386d565b60e083015250610100613c2a84828501613b26565b61010083015250610120613c40848285016136bb565b61012083015250610140613c56848285016136bb565b6101408301525092915050565b6000613c76613c718461380c565b6137f1565b90508083825260208201905060208402830185811115613c9957613c98613838565b5b835b81811015613ce057805167ffffffffffffffff811115613cbe57613cbd61378c565b5b808601613ccb8982613b3b565b85526020850194505050602081019050613c9b565b5050509392505050565b600082601f830112613cff57613cfe61378c565b5b8151613d0f848260208601613c63565b91505092915050565b600060208284031215613d2e57613d2d612af9565b5b600082015167ffffffffffffffff811115613d4c57613d4b612afe565b5b613d5884828501613cea565b91505092915050565b6000606082019050613d766000830186613658565b613d836020830185613667565b613d906040830184613667565b949350505050565b613da1816134e3565b82525050565b600060a082019050613dbc6000830188613658565b613dc96020830187613658565b613dd66040830186613658565b613de36060830185613667565b613df06080830184613d98565b9695505050505050565b613e038161318a565b8114613e0e57600080fd5b50565b600081519050613e2081613dfa565b92915050565b600080600060608486031215613e3f57613e3e612af9565b5b6000613e4d868287016136bb565b9350506020613e5e868287016136bb565b9250506040613e6f86828701613e11565b9150509250925092565b600060a082019050613e8e6000830188613658565b613e9b6020830187613658565b613ea86040830186613658565b613eb56060830185613667565b613ec26080830184613667565b9695505050505050565b600060208284031215613ee257613ee1612af9565b5b6000613ef0848285016136bb565b91505092915050565b600082825260208201905092915050565b7f544f4b454e5f4241534500000000000000000000000000000000000000000000600082015250565b6000613f40600a83613ef9565b9150613f4b82613f0a565b602082019050919050565b60006020820190508181036000830152613f6f81613f33565b9050919050565b6000819050919050565b613f8981613f76565b82525050565b6000602082019050613fa46000830184613f80565b92915050565b600060208284031215613fc057613fbf612af9565b5b6000613fce8482850161386d565b91505092915050565b7f44454641554c545f504f4f4c5f434f4e46494755524154494f4e000000000000600082015250565b600061400d601a83613ef9565b915061401882613fd7565b602082019050919050565b6000602082019050818103600083015261403c81614000565b9050919050565b7f4d415247494e5f4c4556454c4c5f5448524553484f4c44000000000000000000600082015250565b6000614079601783613ef9565b915061408482614043565b602082019050919050565b600060208201905081810360008301526140a88161406c565b9050919050565b7f504f4f4c5f4c4953540000000000000000000000000000000000000000000000600082015250565b60006140e5600983613ef9565b91506140f0826140af565b602082019050919050565b60006020820190508181036000830152614114816140d8565b9050919050565b7f4e487b7100000000000000000000000000000000000000000000000000000000600052603260045260246000fd5b7f5452454153555259000000000000000000000000000000000000000000000000600082015250565b6000614180600883613ef9565b915061418b8261414a565b602082019050919050565b600060208201905081810360008301526141af81614173565b9050919050565b7f44454641554c545f494e5445524553545f524154455f53545241544547590000600082015250565b60006141ec601e83613ef9565b91506141f7826141b6565b602082019050919050565b6000602082019050818103600083015261421b816141df565b9050919050565b7f4143434f554e545f504f534954494f4e5f4c4953540000000000000000000000600082015250565b6000614258601583613ef9565b915061426382614222565b602082019050919050565b600060208201905081810360008301526142878161424b565b9050919050565b60006040820190506142a36000830185613f80565b6142b06020830184612b8e565b9392505050565b60006060820190506142cc6000830186613f80565b6142d96020830185612c55565b6142e66040830184612c55565b949350505050565b600067ffffffffffffffff82111561430957614308613791565b5b602082029050602081019050919050565b61432381613f76565b811461432e57600080fd5b50565b6000815190506143408161431a565b92915050565b6000614359614354846142ee565b6137f1565b9050808382526020820190506020840283018581111561437c5761437b613838565b5b835b818110156143a557806143918882614331565b84526020840193505060208101905061437e565b5050509392505050565b600082601f8301126143c4576143c361378c565b5b81516143d4848260208601614346565b91505092915050565b6000602082840312156143f3576143f2612af9565b5b600082015167ffffffffffffffff81111561441157614410612afe565b5b61441d848285016143af565b91505092915050565b61442f81613f76565b82525050565b600060408201905061444a6000830185613658565b6144576020830184614426565b9392505050565b600067ffffffffffffffff82111561447957614478613791565b5b602082029050919050565b6000610100828403121561449b5761449a61383d565b5b6144a66101006137f1565b905060006144b68482850161386d565b60008301525060206144ca848285016136bb565b60208301525060406144de848285016136bb565b60408301525060606144f2848285016136bb565b6060830152506080614506848285016136bb565b60808301525060a061451a848285016136bb565b60a08301525060c061452e848285016136bb565b60c08301525060e0614542848285016136bb565b60e08301525092915050565b600061456161455c8461445e565b6137f1565b905080610100840283018581111561457c5761457b613838565b5b835b818110156145a657806145918882614484565b8452602084019350506101008101905061457e565b5050509392505050565b600082601f8301126145c5576145c461378c565b5b60026145d284828561454e565b91505092915050565b600061024082840312156145f2576145f161383d565b5b6145fc60606137f1565b9050600061460c848285016145b0565b600083015250610200614621848285016136bb565b6020830152506102206146368482850161386d565b60408301525092915050565b6000610240828403121561465957614658612af9565b5b6000614667848285016145db565b91505092915050565b600067ffffffffffffffff82111561468b5761468a613791565b5b602082029050919050565b600060e082840312156146ac576146ab61383d565b5b6146b660e06137f1565b905060006146c68482850161386d565b60008301525060206146da848285016136bb565b60208301525060406146ee848285016136bb565b6040830152506060614702848285016136bb565b6060830152506080614716848285016136bb565b60808301525060a061472a848285016136bb565b60a08301525060c061473e848285016136bb565b60c08301525092915050565b600061475d61475884614670565b6137f1565b90508060e0840283018581111561477757614776613838565b5b835b818110156147a0578061478c8882614696565b84526020840193505060e081019050614779565b5050509392505050565b600082601f8301126147bf576147be61378c565b5b60026147cc84828561474a565b91505092915050565b600061024082840312156147ec576147eb61383d565b5b6147f660a06137f1565b90506000614806848285016147aa565b6000830152506101c061481b8482850161386d565b6020830152506101e06148308482850161386d565b604083015250610200614845848285016136bb565b60608301525061022061485a848285016136bb565b60808301525092915050565b6000610240828403121561487d5761487c612af9565b5b600061488b848285016147d5565b91505092915050565b6000602082840312156148aa576148a9612af9565b5b600082015167ffffffffffffffff8111156148c8576148c7612afe565b5b6148d4848285016138fa565b91505092915050565b7f504f4f4c00000000000000000000000000000000000000000000000000000000600082015250565b6000614913600483613ef9565b915061491e826148dd565b602082019050919050565b6000602082019050818103600083015261494281614906565b9050919050565b600060608201905061495e6000830186613f80565b61496b6020830185612b8e565b6149786040830184612b8e565b949350505050565b7f4e487b7100000000000000000000000000000000000000000000000000000000600052601160045260246000fd5b60008160011c9050919050565b6000808291508390505b6001851115614a06578086048111156149e2576149e1614980565b5b60018516156149f15780820291505b80810290506149ff856149af565b94506149c6565b94509492505050565b600082614a1f5760019050614adb565b81614a2d5760009050614adb565b8160018114614a435760028114614a4d57614a7c565b6001915050614adb565b60ff841115614a5f57614a5e614980565b5b8360020a915084821115614a7657614a75614980565b5b50614adb565b5060208310610133831016604e8410600b8410161715614ab15782820a905083811115614aac57614aab614980565b5b614adb565b614abe84848460016149bc565b92509050818404811115614ad557614ad4614980565b5b81810290505b9392505050565b6000614aed82612bb8565b9150614af883612bb8565b9250614b257fffffffffffffffffffffffffffffffffffffffffffffffffffffffffffffffff8484614a0f565b905092915050565b6000614b3882612bb8565b9150614b4383612bb8565b9250828203905081811115614b5b57614b5a614980565b5b92915050565b6000614b6c8261318a565b91507f80000000000000000000000000000000000000000000000000000000000000008203614b9e57614b9d614980565b5b816000039050919050565b6000614bb48261318a565b9150614bbf8361318a565b9250828203905081811260008412168282136000851215161715614be657614be5614980565b5b92915050565b6000614bf782612bb8565b9150614c0283612bb8565b9250828201905080821115614c1a57614c19614980565b5b92915050565b7f4e487b7100000000000000000000000000000000000000000000000000000000600052601260045260246000fd5b7f444542545f5341464554595f464143544f520000000000000000000000000000600082015250565b6000614c85601283613ef9565b9150614c9082614c4f565b602082019050919050565b60006020820190508181036000830152614cb481614c78565b9050919050565b7f64732d6d6174682d7375622d756e646572666c6f770000000000000000000000600082015250565b6000614cf1601583613ef9565b9150614cfc82614cbb565b602082019050919050565b60006020820190508181036000830152614d2081614ce4565b9050919050565b6000614d3282612bb8565b9150614d3d83612bb8565b9250828202614d4b81612bb8565b91508282048414831517614d6257614d61614980565b5b509291505056fea264697066735822122061e6a9b374529dea28b03a9ba2bb731e37ccd01c0b250dedd65ad56a57fa78ba64736f6c634300081c0033",
  "linkReferences": {
    "contracts/pool/PoolStoreUtils.sol": {
      "PoolStoreUtils": [
        {
          "length": 20,
          "start": 3742
        }
      ]
    },
    "contracts/position/PositionStoreUtils.sol": {
      "PositionStoreUtils": [
        {
          "length": 20,
          "start": 3514
        }
      ]
    },
    "contracts/reader/ReaderPoolUtils.sol": {
      "ReaderPoolUtils": [
        {
          "length": 20,
          "start": 895
        },
        {
          "length": 20,
          "start": 1102
        },
        {
          "length": 20,
          "start": 1298
        },
        {
          "length": 20,
          "start": 1441
        },
        {
          "length": 20,
          "start": 1591
        },
        {
          "length": 20,
          "start": 1756
        }
      ]
    }
  },
  "deployedLinkReferences": {
    "contracts/pool/PoolStoreUtils.sol": {
      "PoolStoreUtils": [
        {
          "length": 20,
          "start": 3711
        }
      ]
    },
    "contracts/position/PositionStoreUtils.sol": {
      "PositionStoreUtils": [
        {
          "length": 20,
          "start": 3483
        }
      ]
    },
    "contracts/reader/ReaderPoolUtils.sol": {
      "ReaderPoolUtils": [
        {
          "length": 20,
          "start": 864
        },
        {
          "length": 20,
          "start": 1071
        },
        {
          "length": 20,
          "start": 1267
        },
        {
          "length": 20,
          "start": 1410
        },
        {
          "length": 20,
          "start": 1560
        },
        {
          "length": 20,
          "start": 1725
        }
      ]
    }
  }
}