{
  "_format": "hh-sol-artifact-1",
  "contractName": "Reader",
  "sourceName": "contracts/reader/Reader.sol",
  "abi": [
    {
      "inputs": [],
      "name": "MathOverflowedMulDiv",
      "type": "error"
    },
    {
      "inputs": [
        {
          "internalType": "address",
          "name": "dataStore",
          "type": "address"
        },
        {
          "internalType": "address",
          "name": "token0",
          "type": "address"
        },
        {
          "internalType": "address",
          "name": "token1",
          "type": "address"
        },
        {
          "internalType": "uint256",
          "name": "amountIn",
          "type": "uint256"
        },
        {
          "internalType": "uint8",
          "name": "tokenInIndex",
          "type": "uint8"
        }
      ],
      "name": "calcAmountOut",
      "outputs": [
        {
          "internalType": "uint256",
          "name": "",
          "type": "uint256"
        },
        {
          "internalType": "uint256",
          "name": "",
          "type": "uint256"
        },
        {
          "internalType": "int256",
          "name": "",
          "type": "int256"
        }
      ],
      "stateMutability": "view",
      "type": "function"
    },
    {
      "inputs": [
        {
          "internalType": "address",
          "name": "dataStore",
          "type": "address"
        },
        {
          "internalType": "address",
          "name": "token0",
          "type": "address"
        },
        {
          "internalType": "address",
          "name": "token1",
          "type": "address"
        },
        {
          "internalType": "uint256",
          "name": "amount0",
          "type": "uint256"
        },
        {
          "internalType": "uint256",
          "name": "amount1",
          "type": "uint256"
        }
      ],
      "name": "calcLiquidityOut",
      "outputs": [
        {
          "internalType": "uint256",
          "name": "",
          "type": "uint256"
        }
      ],
      "stateMutability": "view",
      "type": "function"
    },
    {
      "inputs": [
        {
          "internalType": "address",
          "name": "dataStore",
          "type": "address"
        },
        {
          "internalType": "address",
          "name": "token0",
          "type": "address"
        },
        {
          "internalType": "address",
          "name": "token1",
          "type": "address"
        },
        {
          "internalType": "uint256",
          "name": "liquidity",
          "type": "uint256"
        }
      ],
      "name": "calcTokenPairOut",
      "outputs": [
        {
          "internalType": "uint256",
          "name": "",
          "type": "uint256"
        },
        {
          "internalType": "uint256",
          "name": "",
          "type": "uint256"
        }
      ],
      "stateMutability": "view",
      "type": "function"
    },
    {
      "inputs": [
        {
          "internalType": "address",
          "name": "dataStore",
          "type": "address"
        }
      ],
      "name": "getDefaultInterestRateStrategy",
      "outputs": [
        {
          "internalType": "address",
          "name": "",
          "type": "address"
        }
      ],
      "stateMutability": "view",
      "type": "function"
    },
    {
      "inputs": [
        {
          "internalType": "address",
          "name": "dataStore",
          "type": "address"
        }
      ],
      "name": "getDefaultPoolConfiguration",
      "outputs": [
        {
          "internalType": "uint256",
          "name": "",
          "type": "uint256"
        }
      ],
      "stateMutability": "view",
      "type": "function"
    },
    {
      "inputs": [
        {
          "internalType": "address",
          "name": "dataStore",
          "type": "address"
        }
      ],
      "name": "getMarginLevelThreshold",
      "outputs": [
        {
          "internalType": "uint256",
          "name": "",
          "type": "uint256"
        }
      ],
      "stateMutability": "view",
      "type": "function"
    },
    {
      "inputs": [
        {
          "internalType": "address",
          "name": "dataStore",
          "type": "address"
        }
      ],
      "name": "getPools",
      "outputs": [
        {
          "components": [
            {
              "components": [
                {
                  "internalType": "address",
                  "name": "token",
                  "type": "address"
                },
                {
                  "internalType": "string",
                  "name": "symbol",
                  "type": "string"
                },
                {
                  "internalType": "uint256",
                  "name": "decimals",
                  "type": "uint256"
                },
                {
                  "internalType": "uint256",
                  "name": "borrowIndex",
                  "type": "uint256"
                },
                {
                  "internalType": "uint256",
                  "name": "borrowApy",
                  "type": "uint256"
                },
                {
                  "internalType": "uint256",
                  "name": "totalCollateral",
                  "type": "uint256"
                },
                {
                  "internalType": "uint256",
                  "name": "totalCollateralWithDebt",
                  "type": "uint256"
                },
                {
                  "internalType": "uint256",
                  "name": "totalDebtScaled",
                  "type": "uint256"
                },
                {
                  "internalType": "uint256",
                  "name": "poolBalance",
                  "type": "uint256"
                },
                {
                  "internalType": "uint256",
                  "name": "priceLiquidity",
                  "type": "uint256"
                },
                {
                  "internalType": "uint256",
                  "name": "avaiableLoan",
                  "type": "uint256"
                },
                {
                  "internalType": "uint256",
                  "name": "actualTradable",
                  "type": "uint256"
                }
              ],
              "internalType": "struct ReaderPoolUtils.Asset[2]",
              "name": "assets",
              "type": "tuple[2]"
            },
            {
              "internalType": "address",
              "name": "bank",
              "type": "address"
            },
            {
              "internalType": "address",
              "name": "interestRateStrategy",
              "type": "address"
            },
            {
              "internalType": "uint256",
              "name": "configuration",
              "type": "uint256"
            },
            {
              "internalType": "uint256",
              "name": "lastUpdateTimestamp",
              "type": "uint256"
            },
            {
              "internalType": "uint256",
              "name": "priceDecimals",
              "type": "uint256"
            },
            {
              "internalType": "uint256",
              "name": "price",
              "type": "uint256"
            },
            {
              "internalType": "address",
              "name": "source",
              "type": "address"
            },
            {
              "internalType": "bool",
              "name": "shortEnabled",
              "type": "bool"
            },
            {
              "internalType": "uint256",
              "name": "createdTimestamp",
              "type": "uint256"
            }
          ],
          "internalType": "struct ReaderPoolUtils.GetPool[]",
          "name": "",
          "type": "tuple[]"
        }
      ],
      "stateMutability": "view",
      "type": "function"
    },
    {
      "inputs": [
        {
          "internalType": "address",
          "name": "dataStore",
          "type": "address"
        },
        {
          "internalType": "uint256",
          "name": "start",
          "type": "uint256"
        },
        {
          "internalType": "uint256",
          "name": "end",
          "type": "uint256"
        }
      ],
      "name": "getPools",
      "outputs": [
        {
          "components": [
            {
              "components": [
                {
                  "internalType": "address",
                  "name": "token",
                  "type": "address"
                },
                {
                  "internalType": "string",
                  "name": "symbol",
                  "type": "string"
                },
                {
                  "internalType": "uint256",
                  "name": "decimals",
                  "type": "uint256"
                },
                {
                  "internalType": "uint256",
                  "name": "borrowIndex",
                  "type": "uint256"
                },
                {
                  "internalType": "uint256",
                  "name": "borrowApy",
                  "type": "uint256"
                },
                {
                  "internalType": "uint256",
                  "name": "totalCollateral",
                  "type": "uint256"
                },
                {
                  "internalType": "uint256",
                  "name": "totalCollateralWithDebt",
                  "type": "uint256"
                },
                {
                  "internalType": "uint256",
                  "name": "totalDebtScaled",
                  "type": "uint256"
                },
                {
                  "internalType": "uint256",
                  "name": "poolBalance",
                  "type": "uint256"
                },
                {
                  "internalType": "uint256",
                  "name": "priceLiquidity",
                  "type": "uint256"
                },
                {
                  "internalType": "uint256",
                  "name": "avaiableLoan",
                  "type": "uint256"
                },
                {
                  "internalType": "uint256",
                  "name": "actualTradable",
                  "type": "uint256"
                }
              ],
              "internalType": "struct ReaderPoolUtils.Asset[2]",
              "name": "assets",
              "type": "tuple[2]"
            },
            {
              "internalType": "address",
              "name": "bank",
              "type": "address"
            },
            {
              "internalType": "address",
              "name": "interestRateStrategy",
              "type": "address"
            },
            {
              "internalType": "uint256",
              "name": "configuration",
              "type": "uint256"
            },
            {
              "internalType": "uint256",
              "name": "lastUpdateTimestamp",
              "type": "uint256"
            },
            {
              "internalType": "uint256",
              "name": "priceDecimals",
              "type": "uint256"
            },
            {
              "internalType": "uint256",
              "name": "price",
              "type": "uint256"
            },
            {
              "internalType": "address",
              "name": "source",
              "type": "address"
            },
            {
              "internalType": "bool",
              "name": "shortEnabled",
              "type": "bool"
            },
            {
              "internalType": "uint256",
              "name": "createdTimestamp",
              "type": "uint256"
            }
          ],
          "internalType": "struct ReaderPoolUtils.GetPool[]",
          "name": "",
          "type": "tuple[]"
        }
      ],
      "stateMutability": "view",
      "type": "function"
    },
    {
      "inputs": [
        {
          "internalType": "address",
          "name": "dataStore",
          "type": "address"
        }
      ],
      "name": "getPoolsCount",
      "outputs": [
        {
          "internalType": "uint256",
          "name": "",
          "type": "uint256"
        }
      ],
      "stateMutability": "view",
      "type": "function"
    },
    {
      "inputs": [
        {
          "internalType": "address",
          "name": "dataStore",
          "type": "address"
        },
        {
          "internalType": "address",
          "name": "account",
          "type": "address"
        }
      ],
      "name": "getPositions",
      "outputs": [
        {
          "components": [
            {
              "components": [
                {
                  "internalType": "address",
                  "name": "token",
                  "type": "address"
                },
                {
                  "internalType": "string",
                  "name": "symbol",
                  "type": "string"
                },
                {
                  "internalType": "uint256",
                  "name": "decimals",
                  "type": "uint256"
                },
                {
                  "internalType": "uint256",
                  "name": "balance",
                  "type": "uint256"
                },
                {
                  "internalType": "uint256",
                  "name": "debt",
                  "type": "uint256"
                },
                {
                  "internalType": "int256",
                  "name": "netWorth",
                  "type": "int256"
                },
                {
                  "internalType": "uint256",
                  "name": "maxRedeemAmount",
                  "type": "uint256"
                },
                {
                  "internalType": "uint256",
                  "name": "borrowApy",
                  "type": "uint256"
                },
                {
                  "internalType": "int256",
                  "name": "equity",
                  "type": "int256"
                },
                {
                  "internalType": "int256",
                  "name": "equityValue",
                  "type": "int256"
                }
              ],
              "internalType": "struct ReaderPositionUtils.Asset[2]",
              "name": "assets",
              "type": "tuple[2]"
            },
            {
              "internalType": "uint256",
              "name": "id",
              "type": "uint256"
            },
            {
              "internalType": "address",
              "name": "account",
              "type": "address"
            },
            {
              "internalType": "uint256",
              "name": "marginLevel",
              "type": "uint256"
            },
            {
              "internalType": "uint256",
              "name": "entryPrice",
              "type": "uint256"
            },
            {
              "internalType": "uint256",
              "name": "IndexPrice",
              "type": "uint256"
            },
            {
              "internalType": "int256",
              "name": "pnl",
              "type": "int256"
            },
            {
              "internalType": "uint256",
              "name": "liquidationPrice",
              "type": "uint256"
            },
            {
              "internalType": "int256",
              "name": "toLiquidationPrice",
              "type": "int256"
            }
          ],
          "internalType": "struct ReaderPositionUtils.GetPosition[]",
          "name": "",
          "type": "tuple[]"
        }
      ],
      "stateMutability": "view",
      "type": "function"
    },
    {
      "inputs": [
        {
          "internalType": "address",
          "name": "dataStore",
          "type": "address"
        }
      ],
      "name": "getTokenBase",
      "outputs": [
        {
          "internalType": "address",
          "name": "",
          "type": "address"
        }
      ],
      "stateMutability": "view",
      "type": "function"
    },
    {
      "inputs": [
        {
          "internalType": "address",
          "name": "dataStore",
          "type": "address"
        }
      ],
      "name": "getTreasury",
      "outputs": [
        {
          "internalType": "address",
          "name": "",
          "type": "address"
        }
      ],
      "stateMutability": "view",
      "type": "function"
    }
  ],
  "bytecode": "0x6080604052348015600f57600080fd5b50614c4b8061001f6000396000f3fe608060405234801561001057600080fd5b50600436106100b45760003560e01c8063739118a411610071578063739118a4146101da57806378f212d11461020a5780638f6c7a3c1461023a578063d28b0a151461026a578063e335adb71461029c578063f68a7131146102cc576100b4565b806328a0ccf4146100b9578063317b50ec146100e957806350ed592d1461011a57806357b91ca61461014a5780635a6f57101461017a5780635c39f467146101aa575b600080fd5b6100d360048036038101906100ce9190612a38565b6102fc565b6040516100e09190612a74565b60405180910390f35b61010360048036038101906100fe9190612ac5565b61030e565b604051610111929190612b3b565b60405180910390f35b610134600480360381019061012f9190612a38565b61039b565b6040516101419190612b64565b60405180910390f35b610164600480360381019061015f9190612a38565b6103ad565b6040516101719190612b64565b60405180910390f35b610194600480360381019061018f9190612a38565b6103bf565b6040516101a19190612b64565b60405180910390f35b6101c460048036038101906101bf9190612a38565b6103d1565b6040516101d19190612f9e565b60405180910390f35b6101f460048036038101906101ef9190612fc0565b61046a565b6040516102019190613330565b60405180910390f35b610224600480360381019061021f9190612a38565b610490565b6040516102319190612a74565b60405180910390f35b610254600480360381019061024f9190613352565b6104a2565b6040516102619190612f9e565b60405180910390f35b610284600480360381019061027f91906133de565b61052e565b60405161029393929190613468565b60405180910390f35b6102b660048036038101906102b19190612a38565b6105c4565b6040516102c39190612a74565b60405180910390f35b6102e660048036038101906102e1919061349f565b6105d6565b6040516102f39190612b64565b60405180910390f35b600061030782610663565b9050919050565b60008073__$22ab6dac19e7eec84dc260d26b99b72765$__63317b50ec878787876040518563ffffffff1660e01b815260040161034e9493929190613538565b6040805180830381865af415801561036a573d6000803e3d6000fd5b505050506040513d601f19601f8201168201806040525081019061038e9190613592565b9150915094509492505050565b60006103a68261070a565b9050919050565b60006103b8826107b1565b9050919050565b60006103ca82610858565b9050919050565b606060006103de83610858565b905073__$22ab6dac19e7eec84dc260d26b99b72765$__638f6c7a3c846000846040518463ffffffff1660e01b815260040161041c93929190613617565b600060405180830381865af4158015610439573d6000803e3d6000fd5b505050506040513d6000823e3d601f19601f820116820180604052508101906104629190613bc4565b915050919050565b6060600061047884846108ff565b9050610487848460008461098b565b91505092915050565b600061049b82610a6b565b9050919050565b606073__$22ab6dac19e7eec84dc260d26b99b72765$__638f6c7a3c8585856040518463ffffffff1660e01b81526004016104df93929190613c0d565b600060405180830381865af41580156104fc573d6000803e3d6000fd5b505050506040513d6000823e3d601f19601f820116820180604052508101906105259190613bc4565b90509392505050565b600080600073__$22ab6dac19e7eec84dc260d26b99b72765$__63d28b0a1589898989896040518663ffffffff1660e01b8152600401610572959493929190613c53565b606060405180830381865af415801561058f573d6000803e3d6000fd5b505050506040513d601f19601f820116820180604052508101906105b39190613cd2565b925092509250955095509592505050565b60006105cf82610b12565b9050919050565b600073__$22ab6dac19e7eec84dc260d26b99b72765$__63f68a713187878787876040518663ffffffff1660e01b8152600401610617959493929190613d25565b602060405180830381865af4158015610634573d6000803e3d6000fd5b505050506040513d601f19601f820116820180604052508101906106589190613d78565b905095945050505050565b60008173ffffffffffffffffffffffffffffffffffffffff166321f8a72160405160200161069090613e02565b604051602081830303815290604052805190602001206040518263ffffffff1660e01b81526004016106c29190613e3b565b602060405180830381865afa1580156106df573d6000803e3d6000fd5b505050506040513d601f19601f820116820180604052508101906107039190613e56565b9050919050565b60008173ffffffffffffffffffffffffffffffffffffffff1663bd02d0f560405160200161073790613ecf565b604051602081830303815290604052805190602001206040518263ffffffff1660e01b81526004016107699190613e3b565b602060405180830381865afa158015610786573d6000803e3d6000fd5b505050506040513d601f19601f820116820180604052508101906107aa9190613d78565b9050919050565b60008173ffffffffffffffffffffffffffffffffffffffff1663bd02d0f56040516020016107de90613f3b565b604051602081830303815290604052805190602001206040518263ffffffff1660e01b81526004016108109190613e3b565b602060405180830381865afa15801561082d573d6000803e3d6000fd5b505050506040513d601f19601f820116820180604052508101906108519190613d78565b9050919050565b60008173ffffffffffffffffffffffffffffffffffffffff1663f3903b9f60405160200161088590613fa7565b604051602081830303815290604052805190602001206040518263ffffffff1660e01b81526004016108b79190613e3b565b602060405180830381865afa1580156108d4573d6000803e3d6000fd5b505050506040513d601f19601f820116820180604052508101906108f89190613d78565b9050919050565b60008273ffffffffffffffffffffffffffffffffffffffff1663f3903b9f61092684610bb9565b6040518263ffffffff1660e01b81526004016109429190613e3b565b602060405180830381865afa15801561095f573d6000803e3d6000fd5b505050506040513d601f19601f820116820180604052508101906109839190613d78565b905092915050565b6060600061099b86868686610c0f565b90506000815167ffffffffffffffff8111156109ba576109b9613653565b5b6040519080825280602002602001820160405280156109f357816020015b6109e06125e7565b8152602001906001900390816109d85790505b50905060005b8251811015610a5d576000838281518110610a1757610a16613fc7565b5b602002602001015190506000610a2d8a83610ca6565b905080848481518110610a4357610a42613fc7565b5b6020026020010181905250505080806001019150506109f9565b508092505050949350505050565b60008173ffffffffffffffffffffffffffffffffffffffff166321f8a721604051602001610a9890614042565b604051602081830303815290604052805190602001206040518263ffffffff1660e01b8152600401610aca9190613e3b565b602060405180830381865afa158015610ae7573d6000803e3d6000fd5b505050506040513d601f19601f82011682018060405250810190610b0b9190613e56565b9050919050565b60008173ffffffffffffffffffffffffffffffffffffffff166321f8a721604051602001610b3f906140ae565b604051602081830303815290604052805190602001206040518263ffffffff1660e01b8152600401610b719190613e3b565b602060405180830381865afa158015610b8e573d6000803e3d6000fd5b505050506040513d601f19601f82011682018060405250810190610bb29190613e56565b9050919050565b6000604051602001610bca9061411a565b6040516020818303038152906040528051906020012082604051602001610bf292919061413a565b604051602081830303815290604052805190602001209050919050565b60608473ffffffffffffffffffffffffffffffffffffffff1663f069052a610c3686610bb9565b85856040518463ffffffff1660e01b8152600401610c5693929190614163565b600060405180830381865afa158015610c73573d6000803e3d6000fd5b505050506040513d6000823e3d601f19601f82011682018060405250810190610c9c9190614289565b9050949350505050565b610cae6125e7565b610cb661264f565b73__$3d31b232fb363902662fbc281b11ab3357$__637b82d74e85856040518363ffffffff1660e01b8152600401610cef9291906142e1565b61024060405180830381865af4158015610d0d573d6000803e3d6000fd5b505050506040513d601f19601f82011682018060405250810190610d3191906144ee565b8160000181905250610d91816000015160000151600060ff1660028110610d5b57610d5a613fc7565b5b602002015160000151826000015160000151600160ff1660028110610d8357610d82613fc7565b5b602002015160000151611629565b81604001818152505073__$e0022d6f389ac14ff1ce1dc57a4018d0a3$__637b82d74e8583604001516040518363ffffffff1660e01b8152600401610dd79291906142e1565b61024060405180830381865af4158015610df5573d6000803e3d6000fd5b505050506040513d601f19601f82011682018060405250810190610e199190614712565b8160200181905250610e3484826020015183600001516116c7565b90919250909150905050816060018181525050610e548160200151611749565b81610300018181525050806000015160000151600060ff1660028110610e7d57610e7c613fc7565b5b6020020151602001518160e0018181525050610ef0816020015160000151600060ff1660028110610eb157610eb0613fc7565b5b602002015160200151826000015160000151600060ff1660028110610ed957610ed8613fc7565b5b60200201516040015161181990919063ffffffff16565b8160c0018181525050610f0c8160200151606001516000611864565b8160a0018181525050610f278160e001518260c001516118d7565b81610100018181525050610f448161010001518260a00151611906565b81610120018181525050610f668160e001518260c00151836101000151611933565b81610140018181525050610f8b84826020015183600001518461030001516000611956565b8161016001818152505080610140015181610180018181525050610fbd8160e001518260c00151836101200151611b17565b816101a0018181525050610fda8160200151606001516001611864565b816101c0018181525050806000015160000151600160ff166002811061100357611002613fc7565b5b60200201516020015181610200018181525050611077816020015160000151600160ff166002811061103857611037613fc7565b5b602002015160200151826000015160000151600160ff16600281106110605761105f613fc7565b5b60200201516040015161181990919063ffffffff16565b816101e0018181525050611095816102000151826101e001516118d7565b816102200181815250506110b3816102200151826101c00151611906565b816102400181815250506110da81610300015182610240015161181990919063ffffffff16565b816102600181815250506110fe816102000151826101e00151836102200151611933565b8161028001818152505061112384826020015183600001518461030001516001611956565b816102a0018181525050806102800151816102c0018181525050611157816102000151826101e00151836102600151611b17565b816102e001818152505061116e8160000151611b3a565b816080018181525050600260ff16816000015160000151600160ff166002811061119b5761119a613fc7565b5b602002015160e00151146112c1576111bc8161030001518260800151611bf8565b816103200181815250506111e381610320015182610240015161181990919063ffffffff16565b8161034001818152505080608001518161030001511181610380019015159081151581525050611229816103800151826102000151836101e00151846103400151611c27565b81610360018181525050806103600151816103a0018181525050611298846112598360e001518460a00151611c54565b61126b8460c001518560a00151611c54565b61127f856102000151866101c00151611c54565b611293866101e00151876101c00151611c54565b611c81565b816103c00181815250506112b6816103c00151826103000151611d71565b816103e00181815250505b6040518061012001604052806040518060400160405280604051806101400160405280866000015160000151600060ff166002811061130357611302613fc7565b5b60200201516000015173ffffffffffffffffffffffffffffffffffffffff168152602001866000015160000151600060ff166002811061134657611345613fc7565b5b60200201516000015173ffffffffffffffffffffffffffffffffffffffff166395d89b416040518163ffffffff1660e01b8152600401600060405180830381865afa158015611399573d6000803e3d6000fd5b505050506040513d6000823e3d601f19601f820116820180604052508101906113c29190614740565b81526020018660a0015181526020018660e0015181526020018660c00151815260200186610140015181526020018661016001518152602001866020015160000151600060ff166002811061141a57611419613fc7565b5b60200201516040015181526020018661018001518152602001866101a001518152508152602001604051806101400160405280866000015160000151600160ff166002811061146c5761146b613fc7565b5b60200201516000015173ffffffffffffffffffffffffffffffffffffffff168152602001866000015160000151600160ff16600281106114af576114ae613fc7565b5b60200201516000015173ffffffffffffffffffffffffffffffffffffffff166395d89b416040518163ffffffff1660e01b8152600401600060405180830381865afa158015611502573d6000803e3d6000fd5b505050506040513d6000823e3d601f19601f8201168201806040525081019061152b9190614740565b8152602001866101c0015181526020018661020001518152602001866101e0015181526020018661028001518152602001866102a001518152602001866020015160000151600160ff166002811061158657611585613fc7565b5b6020020151604001518152602001866102c001518152602001866102e001518152508152508152602001826000015160200151815260200182600001516040015173ffffffffffffffffffffffffffffffffffffffff16815260200182606001518152602001826080015181526020018261030001518152602001826103a001518152602001826103c001518152602001826103e0015181525091505092915050565b60008173ffffffffffffffffffffffffffffffffffffffff168373ffffffffffffffffffffffffffffffffffffffff1610611665578183611668565b82825b809350819450505060405160200161167f906147d5565b6040516020818303038152906040528051906020012083836040516020016116a9939291906147f5565b60405160208183030381529060405280519060200120905092915050565b60008060008060006116d887611749565b90506116e78787836000611de6565b80935081945050506000821161171d577fffffffffffffffffffffffffffffffffffffffffffffffffffffffffffffffff611731565b611730828461201790919063ffffffff16565b5b945061173c886107b1565b9350939792965093509350565b6000806117588360008061205e565b5050509050600061176c846001600061205e565b50505090506000810361178457600092505050611814565b600061179585606001516000611864565b905060006117a886606001516001611864565b905060006117cf856b033b2e3c9fd0803ce800000085600a6117ca919061498e565b612132565b905060006117f6856b033b2e3c9fd0803ce800000085600a6117f1919061498e565b612132565b905061180b818361201790919063ffffffff16565b96505050505050505b919050565b6000816b019d971e4fe8401e74000000600019030483111582151761183d57600080fd5b6b033b2e3c9fd0803ce80000006b019d971e4fe8401e740000008385020104905092915050565b6000807fffffffffffffffffffffffffffffffffffffffff00ffffffffffffffffffffff9050600060589050600160ff168460ff16036118c6577fffffffffffffffffffffffffffffffffffffff00ffffffffffffffffffffffff9150606090505b8082198616901c9250505092915050565b60008183116118f15782826118ec91906149d9565b6118fe565b81836118fd91906149d9565b5b905092915050565b600061192b836b033b2e3c9fd0803ce800000084600a611926919061498e565b612132565b905092915050565b600082841161194b578161194690614a0d565b61194d565b815b90509392505050565b600061196061274d565b61196d8686866000611de6565b8260000183602001828152508281525050506000816000015114806119b45750600085600001518460ff16600281106119a9576119a8613fc7565b5b602002015160200151145b156119c3576000915050611b0e565b6119cc87612239565b8160400181815250506119f08160400151826020015161181990919063ffffffff16565b816080018181525050806080015181600001511015611a13576000915050611b0e565b80608001518160000151611a2791906149d9565b816060018181525050611a3e866060015184611864565b8160a0018181525050611a7281606001518260a00151600a611a60919061498e565b6b033b2e3c9fd0803ce8000000612132565b8160c0018181525050600160ff168360ff1603611aaa57611aa0848260c0015161201790919063ffffffff16565b8160c00181815250505b84600001518360ff1660028110611ac457611ac3613fc7565b5b6020020151602001518160c001511115611b055784600001518360ff1660028110611af257611af1613fc7565b5b6020020151602001518160c00181815250505b8060c001519150505b95945050505050565b6000828411611b2f5781611b2a90614a0d565b611b31565b815b90509392505050565b6000600160ff168260000151600160ff1660028110611b5c57611b5b613fc7565b5b602002015160e0015103611b95578160000151600160ff1660028110611b8557611b84613fc7565b5b6020020151606001519050611bf3565b600060ff168260000151600160ff1660028110611bb557611bb4613fc7565b5b602002015160e0015103611bee578160000151600160ff1660028110611bde57611bdd613fc7565b5b6020020151608001519050611bf3565b600090505b919050565b6000818311611c12578282611c0d91906149d9565b611c1f565b8183611c1e91906149d9565b5b905092915050565b6000848015611c3557508284115b611c485781611c4390614a0d565b611c4a565b815b9050949350505050565b6000611c79836b033b2e3c9fd0803ce800000084600a611c74919061498e565b612132565b905092915050565b600080611c8d876107b1565b90506000611ca4868361181990919063ffffffff16565b90506000611cbb858461181990919063ffffffff16565b905060008883611ccb9190614a55565b905060008288611cdb9190614a55565b90506000611ce8836122e0565b90506000611cf5836122e0565b9050600084138015611d075750600083125b80611d1e5750600084128015611d1d5750600083135b5b15611d33576000975050505050505050611d68565b60008103611d4b576000975050505050505050611d68565b611d5e818361201790919063ffffffff16565b9750505050505050505b95945050505050565b6000808203611d835760009050611de0565b6000828411611d9d578383611d9891906149d9565b611daa565b8284611da991906149d9565b5b90506000611dc1848361201790919063ffffffff16565b9050838511611dd95780611dd490614a0d565b611ddb565b805b925050505b92915050565b6000806000808660000151600060ff1660028110611e0757611e06613fc7565b5b60200201516000015173ffffffffffffffffffffffffffffffffffffffff168573ffffffffffffffffffffffffffffffffffffffff1614611ee157600080611e518a8a60006122fc565b915091506000611e6f60008c6060015161186490919063ffffffff16565b90506000611e96846b033b2e3c9fd0803ce800000084600a611e91919061498e565b612132565b90506000611ebd846b033b2e3c9fd0803ce800000085600a611eb8919061498e565b612132565b90508187611ecb9190614a98565b96508086611ed99190614a98565b955050505050505b8660000151600160ff1660028110611efc57611efb613fc7565b5b60200201516000015173ffffffffffffffffffffffffffffffffffffffff168573ffffffffffffffffffffffffffffffffffffffff161461200657600080611f468a8a60016122fc565b915091506000611f6460018c6060015161186490919063ffffffff16565b90506000611f8b846b033b2e3c9fd0803ce800000084600a611f86919061498e565b612132565b90506000611fb2846b033b2e3c9fd0803ce800000085600a611fad919061498e565b612132565b90506000611fc98c8461181990919063ffffffff16565b90506000611fe08d8461181990919063ffffffff16565b90508189611fee9190614a98565b98508088611ffc9190614a98565b9750505050505050505b819350809250505094509492505050565b60006b033b2e3c9fd0803ce8000000600283046000190304831115158215171561204057600080fd5b81600283046b033b2e3c9fd0803ce800000085020104905092915050565b600080600080600087600001518760ff16600281106120805761207f613fc7565b5b60200201519050600061209389896123aa565b9050600081036120b25760008060008095509550955095505050612129565b60006120c2838b60800151612497565b905060006120d9898461181990919063ffffffff16565b90506000808a146120fc576120f783836124dc90919063ffffffff16565b6120ff565b60005b9050828461210d9190614a98565b84848661211a91906149d9565b83985098509850985050505050505b93509350935093565b600080838502905060008019858709828110838203039150506000810361216d5783828161216357612162614acc565b5b0492505050612232565b8084116121a6576040517f227bc15300000000000000000000000000000000000000000000000000000000815260040160405180910390fd5b600084868809905082811182039150808303925060008560000386169050808604955080840493506001818260000304019050808302841793506000600287600302189050808702600203810290508087026002038102905080870260020381029050808702600203810290508087026002038102905080870260020381029050808502955050505050505b9392505050565b60008173ffffffffffffffffffffffffffffffffffffffff1663bd02d0f560405160200161226690614b47565b604051602081830303815290604052805190602001206040518263ffffffff1660e01b81526004016122989190613e3b565b602060405180830381865afa1580156122b5573d6000803e3d6000fd5b505050506040513d601f19601f820116820180604052508101906122d99190613d78565b9050919050565b6000808212156122f357816000036122f5565b815b9050919050565b600080600084600001518460ff166002811061231b5761231a613fc7565b5b6020020151604001519050600061235487600001518660ff166002811061234557612344613fc7565b5b60200201518860800151612535565b90506000821461237657612371818361181990919063ffffffff16565b612379565b60005b925085600001518560ff166002811061239557612394613fc7565b5b60200201516020015193505050935093915050565b60008083600001518360ff16600281106123c7576123c6613fc7565b5b602002015190506000846020015173ffffffffffffffffffffffffffffffffffffffff1663e42c08f283600001516040518263ffffffff1660e01b81526004016124119190612a74565b602060405180830381865afa15801561242e573d6000803e3d6000fd5b505050506040513d601f19601f820116820180604052508101906124529190613d78565b90506000810361246757600092505050612491565b6000826060015190508260c00151818361248191906149d9565b61248b91906149d9565b93505050505b92915050565b6000808360a00151036124ad57600090506124d6565b60006124b98484612535565b90506124d2818560a0015161181990919063ffffffff16565b9150505b92915050565b60008282846124eb91906149d9565b915081111561252f576040517f08c379a000000000000000000000000000000000000000000000000000000000815260040161252690614bb3565b60405180910390fd5b92915050565b600061253f612584565b8203612551578260200151905061257e565b600061256184604001518461258c565b905061257a84602001518261181990919063ffffffff16565b9150505b92915050565b600042905090565b60008082612598612584565b6125a291906149d9565b846125ad9190614bd3565b90506301e1338081816125c3576125c2614acc565b5b049050806b033b2e3c9fd0803ce80000006125de9190614a98565b91505092915050565b6040518061012001604052806125fb61278a565b815260200160008152602001600073ffffffffffffffffffffffffffffffffffffffff1681526020016000815260200160008152602001600081526020016000815260200160008152602001600081525090565b6040518061040001604052806126636127b7565b81526020016126706127f4565b815260200160008019168152602001600081526020016000815260200160008152602001600081526020016000815260200160008152602001600081526020016000815260200160008152602001600081526020016000815260200160008152602001600081526020016000815260200160008152602001600081526020016000815260200160008152602001600081526020016000815260200160008152602001600081526020016000815260200160008152602001600081526020016000151581526020016000815260200160008152602001600081525090565b6040518060e00160405280600081526020016000815260200160008152602001600081526020016000815260200160008152602001600081525090565b60405180604001604052806002905b6127a1612855565b8152602001906001900390816127995790505090565b60405180606001604052806127ca6128be565b815260200160008152602001600073ffffffffffffffffffffffffffffffffffffffff1681525090565b6040518060a001604052806128076128eb565b8152602001600073ffffffffffffffffffffffffffffffffffffffff168152602001600073ffffffffffffffffffffffffffffffffffffffff16815260200160008152602001600081525090565b604051806101400160405280600073ffffffffffffffffffffffffffffffffffffffff1681526020016060815260200160008152602001600081526020016000815260200160008152602001600081526020016000815260200160008152602001600081525090565b60405180604001604052806002905b6128d5612918565b8152602001906001900390816128cd5790505090565b60405180604001604052806002905b612902612973565b8152602001906001900390816128fa5790505090565b604051806101000160405280600073ffffffffffffffffffffffffffffffffffffffff168152602001600081526020016000815260200160008152602001600081526020016000815260200160008152602001600081525090565b6040518060e00160405280600073ffffffffffffffffffffffffffffffffffffffff1681526020016000815260200160008152602001600081526020016000815260200160008152602001600081525090565b6000604051905090565b600080fd5b600080fd5b600073ffffffffffffffffffffffffffffffffffffffff82169050919050565b6000612a05826129da565b9050919050565b612a15816129fa565b8114612a2057600080fd5b50565b600081359050612a3281612a0c565b92915050565b600060208284031215612a4e57612a4d6129d0565b5b6000612a5c84828501612a23565b91505092915050565b612a6e816129fa565b82525050565b6000602082019050612a896000830184612a65565b92915050565b6000819050919050565b612aa281612a8f565b8114612aad57600080fd5b50565b600081359050612abf81612a99565b92915050565b60008060008060808587031215612adf57612ade6129d0565b5b6000612aed87828801612a23565b9450506020612afe87828801612a23565b9350506040612b0f87828801612a23565b9250506060612b2087828801612ab0565b91505092959194509250565b612b3581612a8f565b82525050565b6000604082019050612b506000830185612b2c565b612b5d6020830184612b2c565b9392505050565b6000602082019050612b796000830184612b2c565b92915050565b600081519050919050565b600082825260208201905092915050565b6000819050602082019050919050565b600060029050919050565b600081905092915050565b6000819050919050565b612bd4816129fa565b82525050565b600081519050919050565b600082825260208201905092915050565b60005b83811015612c14578082015181840152602081019050612bf9565b60008484015250505050565b6000601f19601f8301169050919050565b6000612c3c82612bda565b612c468185612be5565b9350612c56818560208601612bf6565b612c5f81612c20565b840191505092915050565b612c7381612a8f565b82525050565b600061018083016000830151612c926000860182612bcb565b5060208301518482036020860152612caa8282612c31565b9150506040830151612cbf6040860182612c6a565b506060830151612cd26060860182612c6a565b506080830151612ce56080860182612c6a565b5060a0830151612cf860a0860182612c6a565b5060c0830151612d0b60c0860182612c6a565b5060e0830151612d1e60e0860182612c6a565b50610100830151612d33610100860182612c6a565b50610120830151612d48610120860182612c6a565b50610140830151612d5d610140860182612c6a565b50610160830151612d72610160860182612c6a565b508091505092915050565b6000612d898383612c79565b905092915050565b6000602082019050919050565b6000612da982612bab565b612db38185612bb6565b935083602082028501612dc585612bc1565b8060005b85811015612e015784840389528151612de28582612d7d565b9450612ded83612d91565b925060208a01995050600181019050612dc9565b50829750879550505050505092915050565b60008115159050919050565b612e2881612e13565b82525050565b6000610140830160008301518482036000860152612e4c8282612d9e565b9150506020830151612e616020860182612bcb565b506040830151612e746040860182612bcb565b506060830151612e876060860182612c6a565b506080830151612e9a6080860182612c6a565b5060a0830151612ead60a0860182612c6a565b5060c0830151612ec060c0860182612c6a565b5060e0830151612ed360e0860182612bcb565b50610100830151612ee8610100860182612e1f565b50610120830151612efd610120860182612c6a565b508091505092915050565b6000612f148383612e2e565b905092915050565b6000602082019050919050565b6000612f3482612b7f565b612f3e8185612b8a565b935083602082028501612f5085612b9b565b8060005b85811015612f8c5784840389528151612f6d8582612f08565b9450612f7883612f1c565b925060208a01995050600181019050612f54565b50829750879550505050505092915050565b60006020820190508181036000830152612fb88184612f29565b905092915050565b60008060408385031215612fd757612fd66129d0565b5b6000612fe585828601612a23565b9250506020612ff685828601612a23565b9150509250929050565b600081519050919050565b600082825260208201905092915050565b6000819050602082019050919050565b600060029050919050565b600081905092915050565b6000819050919050565b6000819050919050565b61305f8161304c565b82525050565b60006101408301600083015161307e6000860182612bcb565b50602083015184820360208601526130968282612c31565b91505060408301516130ab6040860182612c6a565b5060608301516130be6060860182612c6a565b5060808301516130d16080860182612c6a565b5060a08301516130e460a0860182613056565b5060c08301516130f760c0860182612c6a565b5060e083015161310a60e0860182612c6a565b5061010083015161311f610100860182613056565b50610120830151613134610120860182613056565b508091505092915050565b600061314b8383613065565b905092915050565b6000602082019050919050565b600061316b8261302c565b6131758185613037565b93508360208202850161318785613042565b8060005b858110156131c357848403895281516131a4858261313f565b94506131af83613153565b925060208a0199505060018101905061318b565b50829750879550505050505092915050565b60006101208301600083015184820360008601526131f38282613160565b91505060208301516132086020860182612c6a565b50604083015161321b6040860182612bcb565b50606083015161322e6060860182612c6a565b5060808301516132416080860182612c6a565b5060a083015161325460a0860182612c6a565b5060c083015161326760c0860182613056565b5060e083015161327a60e0860182612c6a565b5061010083015161328f610100860182613056565b508091505092915050565b60006132a683836131d5565b905092915050565b6000602082019050919050565b60006132c682613000565b6132d0818561300b565b9350836020820285016132e28561301c565b8060005b8581101561331e57848403895281516132ff858261329a565b945061330a836132ae565b925060208a019950506001810190506132e6565b50829750879550505050505092915050565b6000602082019050818103600083015261334a81846132bb565b905092915050565b60008060006060848603121561336b5761336a6129d0565b5b600061337986828701612a23565b935050602061338a86828701612ab0565b925050604061339b86828701612ab0565b9150509250925092565b600060ff82169050919050565b6133bb816133a5565b81146133c657600080fd5b50565b6000813590506133d8816133b2565b92915050565b600080600080600060a086880312156133fa576133f96129d0565b5b600061340888828901612a23565b955050602061341988828901612a23565b945050604061342a88828901612a23565b935050606061343b88828901612ab0565b925050608061344c888289016133c9565b9150509295509295909350565b6134628161304c565b82525050565b600060608201905061347d6000830186612b2c565b61348a6020830185612b2c565b6134976040830184613459565b949350505050565b600080600080600060a086880312156134bb576134ba6129d0565b5b60006134c988828901612a23565b95505060206134da88828901612a23565b94505060406134eb88828901612a23565b93505060606134fc88828901612ab0565b925050608061350d88828901612ab0565b9150509295509295909350565b613523816129fa565b82525050565b61353281612a8f565b82525050565b600060808201905061354d600083018761351a565b61355a602083018661351a565b613567604083018561351a565b6135746060830184613529565b95945050505050565b60008151905061358c81612a99565b92915050565b600080604083850312156135a9576135a86129d0565b5b60006135b78582860161357d565b92505060206135c88582860161357d565b9150509250929050565b6000819050919050565b6000819050919050565b60006136016135fc6135f7846135d2565b6135dc565b612a8f565b9050919050565b613611816135e6565b82525050565b600060608201905061362c600083018661351a565b6136396020830185613608565b6136466040830184613529565b949350505050565b600080fd5b7f4e487b7100000000000000000000000000000000000000000000000000000000600052604160045260246000fd5b61368b82612c20565b810181811067ffffffffffffffff821117156136aa576136a9613653565b5b80604052505050565b60006136bd6129c6565b90506136c98282613682565b919050565b600067ffffffffffffffff8211156136e9576136e8613653565b5b602082029050602081019050919050565b600080fd5b600080fd5b600080fd5b600067ffffffffffffffff82111561372457613723613653565b5b602082029050919050565b60008151905061373e81612a0c565b92915050565b600080fd5b600067ffffffffffffffff82111561376457613763613653565b5b61376d82612c20565b9050602081019050919050565b600061378d61378884613749565b6136b3565b9050828152602081018484840111156137a9576137a8613744565b5b6137b4848285612bf6565b509392505050565b600082601f8301126137d1576137d061364e565b5b81516137e184826020860161377a565b91505092915050565b60006101808284031215613801576138006136ff565b5b61380c6101806136b3565b9050600061381c8482850161372f565b600083015250602082015167ffffffffffffffff8111156138405761383f613704565b5b61384c848285016137bc565b60208301525060406138608482850161357d565b60408301525060606138748482850161357d565b60608301525060806138888482850161357d565b60808301525060a061389c8482850161357d565b60a08301525060c06138b08482850161357d565b60c08301525060e06138c48482850161357d565b60e0830152506101006138d98482850161357d565b610100830152506101206138ef8482850161357d565b610120830152506101406139058482850161357d565b6101408301525061016061391b8482850161357d565b6101608301525092915050565b600061393b61393684613709565b6136b3565b90508060208402830185811115613955576139546136fa565b5b835b8181101561399c57805167ffffffffffffffff81111561397a5761397961364e565b5b80860161398789826137ea565b85526020850194505050602081019050613957565b5050509392505050565b600082601f8301126139bb576139ba61364e565b5b60026139c8848285613928565b91505092915050565b6139da81612e13565b81146139e557600080fd5b50565b6000815190506139f7816139d1565b92915050565b60006101408284031215613a1457613a136136ff565b5b613a1f6101406136b3565b9050600082015167ffffffffffffffff811115613a3f57613a3e613704565b5b613a4b848285016139a6565b6000830152506020613a5f8482850161372f565b6020830152506040613a738482850161372f565b6040830152506060613a878482850161357d565b6060830152506080613a9b8482850161357d565b60808301525060a0613aaf8482850161357d565b60a08301525060c0613ac38482850161357d565b60c08301525060e0613ad78482850161372f565b60e083015250610100613aec848285016139e8565b61010083015250610120613b028482850161357d565b6101208301525092915050565b6000613b22613b1d846136ce565b6136b3565b90508083825260208201905060208402830185811115613b4557613b446136fa565b5b835b81811015613b8c57805167ffffffffffffffff811115613b6a57613b6961364e565b5b808601613b7789826139fd565b85526020850194505050602081019050613b47565b5050509392505050565b600082601f830112613bab57613baa61364e565b5b8151613bbb848260208601613b0f565b91505092915050565b600060208284031215613bda57613bd96129d0565b5b600082015167ffffffffffffffff811115613bf857613bf76129d5565b5b613c0484828501613b96565b91505092915050565b6000606082019050613c22600083018661351a565b613c2f6020830185613529565b613c3c6040830184613529565b949350505050565b613c4d816133a5565b82525050565b600060a082019050613c68600083018861351a565b613c75602083018761351a565b613c82604083018661351a565b613c8f6060830185613529565b613c9c6080830184613c44565b9695505050505050565b613caf8161304c565b8114613cba57600080fd5b50565b600081519050613ccc81613ca6565b92915050565b600080600060608486031215613ceb57613cea6129d0565b5b6000613cf98682870161357d565b9350506020613d0a8682870161357d565b9250506040613d1b86828701613cbd565b9150509250925092565b600060a082019050613d3a600083018861351a565b613d47602083018761351a565b613d54604083018661351a565b613d616060830185613529565b613d6e6080830184613529565b9695505050505050565b600060208284031215613d8e57613d8d6129d0565b5b6000613d9c8482850161357d565b91505092915050565b600082825260208201905092915050565b7f544f4b454e5f4241534500000000000000000000000000000000000000000000600082015250565b6000613dec600a83613da5565b9150613df782613db6565b602082019050919050565b60006020820190508181036000830152613e1b81613ddf565b9050919050565b6000819050919050565b613e3581613e22565b82525050565b6000602082019050613e506000830184613e2c565b92915050565b600060208284031215613e6c57613e6b6129d0565b5b6000613e7a8482850161372f565b91505092915050565b7f44454641554c545f504f4f4c5f434f4e46494755524154494f4e000000000000600082015250565b6000613eb9601a83613da5565b9150613ec482613e83565b602082019050919050565b60006020820190508181036000830152613ee881613eac565b9050919050565b7f4d415247494e5f4c4556454c4c5f5448524553484f4c44000000000000000000600082015250565b6000613f25601783613da5565b9150613f3082613eef565b602082019050919050565b60006020820190508181036000830152613f5481613f18565b9050919050565b7f504f4f4c5f4c4953540000000000000000000000000000000000000000000000600082015250565b6000613f91600983613da5565b9150613f9c82613f5b565b602082019050919050565b60006020820190508181036000830152613fc081613f84565b9050919050565b7f4e487b7100000000000000000000000000000000000000000000000000000000600052603260045260246000fd5b7f5452454153555259000000000000000000000000000000000000000000000000600082015250565b600061402c600883613da5565b915061403782613ff6565b602082019050919050565b6000602082019050818103600083015261405b8161401f565b9050919050565b7f44454641554c545f494e5445524553545f524154455f53545241544547590000600082015250565b6000614098601e83613da5565b91506140a382614062565b602082019050919050565b600060208201905081810360008301526140c78161408b565b9050919050565b7f4143434f554e545f504f534954494f4e5f4c4953540000000000000000000000600082015250565b6000614104601583613da5565b915061410f826140ce565b602082019050919050565b60006020820190508181036000830152614133816140f7565b9050919050565b600060408201905061414f6000830185613e2c565b61415c6020830184612a65565b9392505050565b60006060820190506141786000830186613e2c565b6141856020830185612b2c565b6141926040830184612b2c565b949350505050565b600067ffffffffffffffff8211156141b5576141b4613653565b5b602082029050602081019050919050565b6141cf81613e22565b81146141da57600080fd5b50565b6000815190506141ec816141c6565b92915050565b60006142056142008461419a565b6136b3565b90508083825260208201905060208402830185811115614228576142276136fa565b5b835b81811015614251578061423d88826141dd565b84526020840193505060208101905061422a565b5050509392505050565b600082601f8301126142705761426f61364e565b5b81516142808482602086016141f2565b91505092915050565b60006020828403121561429f5761429e6129d0565b5b600082015167ffffffffffffffff8111156142bd576142bc6129d5565b5b6142c98482850161425b565b91505092915050565b6142db81613e22565b82525050565b60006040820190506142f6600083018561351a565b61430360208301846142d2565b9392505050565b600067ffffffffffffffff82111561432557614324613653565b5b602082029050919050565b60006101008284031215614347576143466136ff565b5b6143526101006136b3565b905060006143628482850161372f565b60008301525060206143768482850161357d565b602083015250604061438a8482850161357d565b604083015250606061439e8482850161357d565b60608301525060806143b28482850161357d565b60808301525060a06143c68482850161357d565b60a08301525060c06143da8482850161357d565b60c08301525060e06143ee8482850161357d565b60e08301525092915050565b600061440d6144088461430a565b6136b3565b9050806101008402830185811115614428576144276136fa565b5b835b81811015614452578061443d8882614330565b8452602084019350506101008101905061442a565b5050509392505050565b600082601f8301126144715761447061364e565b5b600261447e8482856143fa565b91505092915050565b6000610240828403121561449e5761449d6136ff565b5b6144a860606136b3565b905060006144b88482850161445c565b6000830152506102006144cd8482850161357d565b6020830152506102206144e28482850161372f565b60408301525092915050565b60006102408284031215614505576145046129d0565b5b600061451384828501614487565b91505092915050565b600067ffffffffffffffff82111561453757614536613653565b5b602082029050919050565b600060e08284031215614558576145576136ff565b5b61456260e06136b3565b905060006145728482850161372f565b60008301525060206145868482850161357d565b602083015250604061459a8482850161357d565b60408301525060606145ae8482850161357d565b60608301525060806145c28482850161357d565b60808301525060a06145d68482850161357d565b60a08301525060c06145ea8482850161357d565b60c08301525092915050565b60006146096146048461451c565b6136b3565b90508060e08402830185811115614623576146226136fa565b5b835b8181101561464c57806146388882614542565b84526020840193505060e081019050614625565b5050509392505050565b600082601f83011261466b5761466a61364e565b5b60026146788482856145f6565b91505092915050565b60006102408284031215614698576146976136ff565b5b6146a260a06136b3565b905060006146b284828501614656565b6000830152506101c06146c78482850161372f565b6020830152506101e06146dc8482850161372f565b6040830152506102006146f18482850161357d565b6060830152506102206147068482850161357d565b60808301525092915050565b60006102408284031215614729576147286129d0565b5b600061473784828501614681565b91505092915050565b600060208284031215614756576147556129d0565b5b600082015167ffffffffffffffff811115614774576147736129d5565b5b614780848285016137bc565b91505092915050565b7f504f4f4c00000000000000000000000000000000000000000000000000000000600082015250565b60006147bf600483613da5565b91506147ca82614789565b602082019050919050565b600060208201905081810360008301526147ee816147b2565b9050919050565b600060608201905061480a6000830186613e2c565b6148176020830185612a65565b6148246040830184612a65565b949350505050565b7f4e487b7100000000000000000000000000000000000000000000000000000000600052601160045260246000fd5b60008160011c9050919050565b6000808291508390505b60018511156148b25780860481111561488e5761488d61482c565b5b600185161561489d5780820291505b80810290506148ab8561485b565b9450614872565b94509492505050565b6000826148cb5760019050614987565b816148d95760009050614987565b81600181146148ef57600281146148f957614928565b6001915050614987565b60ff84111561490b5761490a61482c565b5b8360020a9150848211156149225761492161482c565b5b50614987565b5060208310610133831016604e8410600b841016171561495d5782820a9050838111156149585761495761482c565b5b614987565b61496a8484846001614868565b925090508184048111156149815761498061482c565b5b81810290505b9392505050565b600061499982612a8f565b91506149a483612a8f565b92506149d17fffffffffffffffffffffffffffffffffffffffffffffffffffffffffffffffff84846148bb565b905092915050565b60006149e482612a8f565b91506149ef83612a8f565b9250828203905081811115614a0757614a0661482c565b5b92915050565b6000614a188261304c565b91507f80000000000000000000000000000000000000000000000000000000000000008203614a4a57614a4961482c565b5b816000039050919050565b6000614a608261304c565b9150614a6b8361304c565b9250828203905081811260008412168282136000851215161715614a9257614a9161482c565b5b92915050565b6000614aa382612a8f565b9150614aae83612a8f565b9250828201905080821115614ac657614ac561482c565b5b92915050565b7f4e487b7100000000000000000000000000000000000000000000000000000000600052601260045260246000fd5b7f444542545f5341464554595f464143544f520000000000000000000000000000600082015250565b6000614b31601283613da5565b9150614b3c82614afb565b602082019050919050565b60006020820190508181036000830152614b6081614b24565b9050919050565b7f64732d6d6174682d7375622d756e646572666c6f770000000000000000000000600082015250565b6000614b9d601583613da5565b9150614ba882614b67565b602082019050919050565b60006020820190508181036000830152614bcc81614b90565b9050919050565b6000614bde82612a8f565b9150614be983612a8f565b9250828202614bf781612a8f565b91508282048414831517614c0e57614c0d61482c565b5b509291505056fea2646970667358221220b784ebb991e6888f7ade9032251ee5f86da9a406335b62089ff5c9247f99dd2964736f6c634300081c0033",
  "linkReferences": {
    "contracts/pool/PoolStoreUtils.sol": {
      "PoolStoreUtils": [
        {
          "length": 20,
          "start": 3515
        }
      ]
    },
    "contracts/position/PositionStoreUtils.sol": {
      "PositionStoreUtils": [
        {
          "length": 20,
          "start": 3287
        }
      ]
    },
    "contracts/reader/ReaderPoolUtils.sol": {
      "ReaderPoolUtils": [
        {
          "length": 20,
          "start": 818
        },
        {
          "length": 20,
          "start": 1025
        },
        {
          "length": 20,
          "start": 1221
        },
        {
          "length": 20,
          "start": 1364
        },
        {
          "length": 20,
          "start": 1529
        }
      ]
    }
  },
  "deployedLinkReferences": {
    "contracts/pool/PoolStoreUtils.sol": {
      "PoolStoreUtils": [
        {
          "length": 20,
          "start": 3484
        }
      ]
    },
    "contracts/position/PositionStoreUtils.sol": {
      "PositionStoreUtils": [
        {
          "length": 20,
          "start": 3256
        }
      ]
    },
    "contracts/reader/ReaderPoolUtils.sol": {
      "ReaderPoolUtils": [
        {
          "length": 20,
          "start": 787
        },
        {
          "length": 20,
          "start": 994
        },
        {
          "length": 20,
          "start": 1190
        },
        {
          "length": 20,
          "start": 1333
        },
        {
          "length": 20,
          "start": 1498
        }
      ]
    }
  }
}