{
  "_format": "hh-sol-artifact-1",
  "contractName": "Reader",
  "sourceName": "contracts/reader/Reader.sol",
  "abi": [
    {
      "inputs": [],
      "name": "MathOverflowedMulDiv",
      "type": "error"
    },
    {
      "inputs": [
        {
          "internalType": "address",
          "name": "dataStore",
          "type": "address"
        },
        {
          "internalType": "address",
          "name": "token0",
          "type": "address"
        },
        {
          "internalType": "address",
          "name": "token1",
          "type": "address"
        },
        {
          "internalType": "uint256",
          "name": "amountOut",
          "type": "uint256"
        },
        {
          "internalType": "uint8",
          "name": "tokenOutIndex",
          "type": "uint8"
        }
      ],
      "name": "calcAmountIn",
      "outputs": [
        {
          "internalType": "uint256",
          "name": "",
          "type": "uint256"
        },
        {
          "internalType": "uint256",
          "name": "",
          "type": "uint256"
        },
        {
          "internalType": "int256",
          "name": "",
          "type": "int256"
        }
      ],
      "stateMutability": "view",
      "type": "function"
    },
    {
      "inputs": [
        {
          "internalType": "address",
          "name": "dataStore",
          "type": "address"
        },
        {
          "internalType": "address",
          "name": "token0",
          "type": "address"
        },
        {
          "internalType": "address",
          "name": "token1",
          "type": "address"
        },
        {
          "internalType": "uint256",
          "name": "amountIn",
          "type": "uint256"
        },
        {
          "internalType": "uint8",
          "name": "tokenInIndex",
          "type": "uint8"
        }
      ],
      "name": "calcAmountOut",
      "outputs": [
        {
          "internalType": "uint256",
          "name": "",
          "type": "uint256"
        },
        {
          "internalType": "uint256",
          "name": "",
          "type": "uint256"
        },
        {
          "internalType": "int256",
          "name": "",
          "type": "int256"
        }
      ],
      "stateMutability": "view",
      "type": "function"
    },
    {
      "inputs": [
        {
          "internalType": "address",
          "name": "dataStore",
          "type": "address"
        },
        {
          "internalType": "address",
          "name": "token0",
          "type": "address"
        },
        {
          "internalType": "address",
          "name": "token1",
          "type": "address"
        },
        {
          "internalType": "uint256",
          "name": "amount0",
          "type": "uint256"
        },
        {
          "internalType": "uint256",
          "name": "amount1",
          "type": "uint256"
        }
      ],
      "name": "calcLiquidityOut",
      "outputs": [
        {
          "internalType": "uint256",
          "name": "",
          "type": "uint256"
        }
      ],
      "stateMutability": "view",
      "type": "function"
    },
    {
      "inputs": [
        {
          "internalType": "address",
          "name": "dataStore",
          "type": "address"
        },
        {
          "internalType": "address",
          "name": "token0",
          "type": "address"
        },
        {
          "internalType": "address",
          "name": "token1",
          "type": "address"
        },
        {
          "internalType": "uint256",
          "name": "liquidity",
          "type": "uint256"
        }
      ],
      "name": "calcTokenPairOut",
      "outputs": [
        {
          "internalType": "uint256",
          "name": "",
          "type": "uint256"
        },
        {
          "internalType": "uint256",
          "name": "",
          "type": "uint256"
        }
      ],
      "stateMutability": "view",
      "type": "function"
    },
    {
      "inputs": [
        {
          "internalType": "address",
          "name": "dataStore",
          "type": "address"
        }
      ],
      "name": "getDefaultInterestRateStrategy",
      "outputs": [
        {
          "internalType": "address",
          "name": "",
          "type": "address"
        }
      ],
      "stateMutability": "view",
      "type": "function"
    },
    {
      "inputs": [
        {
          "internalType": "address",
          "name": "dataStore",
          "type": "address"
        }
      ],
      "name": "getDefaultPoolConfiguration",
      "outputs": [
        {
          "internalType": "uint256",
          "name": "",
          "type": "uint256"
        }
      ],
      "stateMutability": "view",
      "type": "function"
    },
    {
      "inputs": [
        {
          "internalType": "address",
          "name": "dataStore",
          "type": "address"
        }
      ],
      "name": "getMarginLevelThreshold",
      "outputs": [
        {
          "internalType": "uint256",
          "name": "",
          "type": "uint256"
        }
      ],
      "stateMutability": "view",
      "type": "function"
    },
    {
      "inputs": [
        {
          "internalType": "address",
          "name": "dataStore",
          "type": "address"
        }
      ],
      "name": "getPools",
      "outputs": [
        {
          "components": [
            {
              "components": [
                {
                  "internalType": "address",
                  "name": "token",
                  "type": "address"
                },
                {
                  "internalType": "string",
                  "name": "symbol",
                  "type": "string"
                },
                {
                  "internalType": "uint256",
                  "name": "decimals",
                  "type": "uint256"
                },
                {
                  "internalType": "uint256",
                  "name": "borrowIndex",
                  "type": "uint256"
                },
                {
                  "internalType": "uint256",
                  "name": "borrowApy",
                  "type": "uint256"
                },
                {
                  "internalType": "uint256",
                  "name": "totalCollateral",
                  "type": "uint256"
                },
                {
                  "internalType": "uint256",
                  "name": "totalCollateralWithDebt",
                  "type": "uint256"
                },
                {
                  "internalType": "uint256",
                  "name": "totalDebtScaled",
                  "type": "uint256"
                },
                {
                  "internalType": "uint256",
                  "name": "poolBalance",
                  "type": "uint256"
                },
                {
                  "internalType": "uint256",
                  "name": "priceLiquidity",
                  "type": "uint256"
                },
                {
                  "internalType": "uint256",
                  "name": "avaiableLoan",
                  "type": "uint256"
                },
                {
                  "internalType": "uint256",
                  "name": "actualTradable",
                  "type": "uint256"
                }
              ],
              "internalType": "struct ReaderPoolUtils.Asset[2]",
              "name": "assets",
              "type": "tuple[2]"
            },
            {
              "internalType": "address",
              "name": "bank",
              "type": "address"
            },
            {
              "internalType": "address",
              "name": "interestRateStrategy",
              "type": "address"
            },
            {
              "internalType": "uint256",
              "name": "configuration",
              "type": "uint256"
            },
            {
              "internalType": "uint256",
              "name": "lastUpdateTimestamp",
              "type": "uint256"
            },
            {
              "internalType": "uint256",
              "name": "priceDecimals",
              "type": "uint256"
            },
            {
              "internalType": "uint256",
              "name": "price",
              "type": "uint256"
            },
            {
              "internalType": "address",
              "name": "source",
              "type": "address"
            },
            {
              "internalType": "bool",
              "name": "shortEnabled",
              "type": "bool"
            },
            {
              "internalType": "uint256",
              "name": "createdTimestamp",
              "type": "uint256"
            },
            {
              "internalType": "uint256",
              "name": "unclaimedFee",
              "type": "uint256"
            },
            {
              "internalType": "uint256",
              "name": "memeMaxDepositAmount",
              "type": "uint256"
            },
            {
              "internalType": "uint256",
              "name": "averagePrice",
              "type": "uint256"
            }
          ],
          "internalType": "struct ReaderPoolUtils.GetPool[]",
          "name": "",
          "type": "tuple[]"
        }
      ],
      "stateMutability": "view",
      "type": "function"
    },
    {
      "inputs": [
        {
          "internalType": "address",
          "name": "dataStore",
          "type": "address"
        },
        {
          "internalType": "uint256",
          "name": "start",
          "type": "uint256"
        },
        {
          "internalType": "uint256",
          "name": "end",
          "type": "uint256"
        }
      ],
      "name": "getPools",
      "outputs": [
        {
          "components": [
            {
              "components": [
                {
                  "internalType": "address",
                  "name": "token",
                  "type": "address"
                },
                {
                  "internalType": "string",
                  "name": "symbol",
                  "type": "string"
                },
                {
                  "internalType": "uint256",
                  "name": "decimals",
                  "type": "uint256"
                },
                {
                  "internalType": "uint256",
                  "name": "borrowIndex",
                  "type": "uint256"
                },
                {
                  "internalType": "uint256",
                  "name": "borrowApy",
                  "type": "uint256"
                },
                {
                  "internalType": "uint256",
                  "name": "totalCollateral",
                  "type": "uint256"
                },
                {
                  "internalType": "uint256",
                  "name": "totalCollateralWithDebt",
                  "type": "uint256"
                },
                {
                  "internalType": "uint256",
                  "name": "totalDebtScaled",
                  "type": "uint256"
                },
                {
                  "internalType": "uint256",
                  "name": "poolBalance",
                  "type": "uint256"
                },
                {
                  "internalType": "uint256",
                  "name": "priceLiquidity",
                  "type": "uint256"
                },
                {
                  "internalType": "uint256",
                  "name": "avaiableLoan",
                  "type": "uint256"
                },
                {
                  "internalType": "uint256",
                  "name": "actualTradable",
                  "type": "uint256"
                }
              ],
              "internalType": "struct ReaderPoolUtils.Asset[2]",
              "name": "assets",
              "type": "tuple[2]"
            },
            {
              "internalType": "address",
              "name": "bank",
              "type": "address"
            },
            {
              "internalType": "address",
              "name": "interestRateStrategy",
              "type": "address"
            },
            {
              "internalType": "uint256",
              "name": "configuration",
              "type": "uint256"
            },
            {
              "internalType": "uint256",
              "name": "lastUpdateTimestamp",
              "type": "uint256"
            },
            {
              "internalType": "uint256",
              "name": "priceDecimals",
              "type": "uint256"
            },
            {
              "internalType": "uint256",
              "name": "price",
              "type": "uint256"
            },
            {
              "internalType": "address",
              "name": "source",
              "type": "address"
            },
            {
              "internalType": "bool",
              "name": "shortEnabled",
              "type": "bool"
            },
            {
              "internalType": "uint256",
              "name": "createdTimestamp",
              "type": "uint256"
            },
            {
              "internalType": "uint256",
              "name": "unclaimedFee",
              "type": "uint256"
            },
            {
              "internalType": "uint256",
              "name": "memeMaxDepositAmount",
              "type": "uint256"
            },
            {
              "internalType": "uint256",
              "name": "averagePrice",
              "type": "uint256"
            }
          ],
          "internalType": "struct ReaderPoolUtils.GetPool[]",
          "name": "",
          "type": "tuple[]"
        }
      ],
      "stateMutability": "view",
      "type": "function"
    },
    {
      "inputs": [
        {
          "internalType": "address",
          "name": "dataStore",
          "type": "address"
        },
        {
          "internalType": "bytes32[]",
          "name": "poolKeys",
          "type": "bytes32[]"
        }
      ],
      "name": "getPools2",
      "outputs": [
        {
          "components": [
            {
              "components": [
                {
                  "internalType": "address",
                  "name": "token",
                  "type": "address"
                },
                {
                  "internalType": "uint256",
                  "name": "borrowIndex",
                  "type": "uint256"
                },
                {
                  "internalType": "uint256",
                  "name": "borrowRate",
                  "type": "uint256"
                },
                {
                  "internalType": "uint256",
                  "name": "totalCollateral",
                  "type": "uint256"
                },
                {
                  "internalType": "uint256",
                  "name": "totalCollateralWithDebt",
                  "type": "uint256"
                },
                {
                  "internalType": "uint256",
                  "name": "totalDebtScaled",
                  "type": "uint256"
                },
                {
                  "internalType": "uint256",
                  "name": "unclaimedFee",
                  "type": "uint256"
                }
              ],
              "internalType": "struct Pool.Asset[2]",
              "name": "assets",
              "type": "tuple[2]"
            },
            {
              "internalType": "address",
              "name": "bank",
              "type": "address"
            },
            {
              "internalType": "address",
              "name": "interestRateStrategy",
              "type": "address"
            },
            {
              "internalType": "uint256",
              "name": "configuration",
              "type": "uint256"
            },
            {
              "internalType": "uint256",
              "name": "lastUpdateTimestamp",
              "type": "uint256"
            }
          ],
          "internalType": "struct Pool.Props[]",
          "name": "",
          "type": "tuple[]"
        }
      ],
      "stateMutability": "view",
      "type": "function"
    },
    {
      "inputs": [
        {
          "internalType": "address",
          "name": "dataStore",
          "type": "address"
        }
      ],
      "name": "getPoolsCount",
      "outputs": [
        {
          "internalType": "uint256",
          "name": "",
          "type": "uint256"
        }
      ],
      "stateMutability": "view",
      "type": "function"
    },
    {
      "inputs": [
        {
          "internalType": "address",
          "name": "dataStore",
          "type": "address"
        }
      ],
      "name": "getPoolsInfo",
      "outputs": [
        {
          "components": [
            {
              "components": [
                {
                  "internalType": "address",
                  "name": "token",
                  "type": "address"
                },
                {
                  "internalType": "string",
                  "name": "symbol",
                  "type": "string"
                },
                {
                  "internalType": "uint256",
                  "name": "decimals",
                  "type": "uint256"
                },
                {
                  "internalType": "uint256",
                  "name": "borrowIndex",
                  "type": "uint256"
                }
              ],
              "internalType": "struct ReaderPoolUtils.AssetInfo[2]",
              "name": "assets",
              "type": "tuple[2]"
            },
            {
              "internalType": "uint256",
              "name": "priceDecimals",
              "type": "uint256"
            },
            {
              "internalType": "uint256",
              "name": "price",
              "type": "uint256"
            }
          ],
          "internalType": "struct ReaderPoolUtils.GetPoolInfo[]",
          "name": "",
          "type": "tuple[]"
        }
      ],
      "stateMutability": "view",
      "type": "function"
    },
    {
      "inputs": [
        {
          "internalType": "address",
          "name": "dataStore",
          "type": "address"
        },
        {
          "internalType": "uint256",
          "name": "start",
          "type": "uint256"
        },
        {
          "internalType": "uint256",
          "name": "end",
          "type": "uint256"
        }
      ],
      "name": "getPoolsInfo",
      "outputs": [
        {
          "components": [
            {
              "components": [
                {
                  "internalType": "address",
                  "name": "token",
                  "type": "address"
                },
                {
                  "internalType": "string",
                  "name": "symbol",
                  "type": "string"
                },
                {
                  "internalType": "uint256",
                  "name": "decimals",
                  "type": "uint256"
                },
                {
                  "internalType": "uint256",
                  "name": "borrowIndex",
                  "type": "uint256"
                }
              ],
              "internalType": "struct ReaderPoolUtils.AssetInfo[2]",
              "name": "assets",
              "type": "tuple[2]"
            },
            {
              "internalType": "uint256",
              "name": "priceDecimals",
              "type": "uint256"
            },
            {
              "internalType": "uint256",
              "name": "price",
              "type": "uint256"
            }
          ],
          "internalType": "struct ReaderPoolUtils.GetPoolInfo[]",
          "name": "",
          "type": "tuple[]"
        }
      ],
      "stateMutability": "view",
      "type": "function"
    },
    {
      "inputs": [
        {
          "internalType": "address",
          "name": "dataStore",
          "type": "address"
        },
        {
          "internalType": "bytes32[]",
          "name": "poolKeys",
          "type": "bytes32[]"
        }
      ],
      "name": "getPoolsInfo",
      "outputs": [
        {
          "components": [
            {
              "components": [
                {
                  "internalType": "address",
                  "name": "token",
                  "type": "address"
                },
                {
                  "internalType": "string",
                  "name": "symbol",
                  "type": "string"
                },
                {
                  "internalType": "uint256",
                  "name": "decimals",
                  "type": "uint256"
                },
                {
                  "internalType": "uint256",
                  "name": "borrowIndex",
                  "type": "uint256"
                }
              ],
              "internalType": "struct ReaderPoolUtils.AssetInfo[2]",
              "name": "assets",
              "type": "tuple[2]"
            },
            {
              "internalType": "uint256",
              "name": "priceDecimals",
              "type": "uint256"
            },
            {
              "internalType": "uint256",
              "name": "price",
              "type": "uint256"
            }
          ],
          "internalType": "struct ReaderPoolUtils.GetPoolInfo[]",
          "name": "",
          "type": "tuple[]"
        }
      ],
      "stateMutability": "view",
      "type": "function"
    },
    {
      "inputs": [
        {
          "internalType": "address",
          "name": "dataStore",
          "type": "address"
        },
        {
          "internalType": "bytes32[]",
          "name": "positionKeys",
          "type": "bytes32[]"
        }
      ],
      "name": "getPositions",
      "outputs": [
        {
          "components": [
            {
              "components": [
                {
                  "internalType": "address",
                  "name": "token",
                  "type": "address"
                },
                {
                  "internalType": "string",
                  "name": "symbol",
                  "type": "string"
                },
                {
                  "internalType": "uint256",
                  "name": "decimals",
                  "type": "uint256"
                },
                {
                  "internalType": "uint256",
                  "name": "balance",
                  "type": "uint256"
                },
                {
                  "internalType": "uint256",
                  "name": "debt",
                  "type": "uint256"
                },
                {
                  "internalType": "int256",
                  "name": "netWorth",
                  "type": "int256"
                },
                {
                  "internalType": "uint256",
                  "name": "maxRedeemAmount",
                  "type": "uint256"
                },
                {
                  "internalType": "uint256",
                  "name": "borrowApy",
                  "type": "uint256"
                },
                {
                  "internalType": "int256",
                  "name": "equity",
                  "type": "int256"
                },
                {
                  "internalType": "int256",
                  "name": "equityValue",
                  "type": "int256"
                }
              ],
              "internalType": "struct ReaderPositionUtils.Asset[2]",
              "name": "assets",
              "type": "tuple[2]"
            },
            {
              "internalType": "uint256",
              "name": "id",
              "type": "uint256"
            },
            {
              "internalType": "address",
              "name": "account",
              "type": "address"
            },
            {
              "internalType": "uint256",
              "name": "marginLevel",
              "type": "uint256"
            },
            {
              "internalType": "uint256",
              "name": "entryPrice",
              "type": "uint256"
            },
            {
              "internalType": "uint256",
              "name": "IndexPrice",
              "type": "uint256"
            },
            {
              "internalType": "int256",
              "name": "pnl",
              "type": "int256"
            },
            {
              "internalType": "uint256",
              "name": "liquidationPrice",
              "type": "uint256"
            },
            {
              "internalType": "int256",
              "name": "toLiquidationPrice",
              "type": "int256"
            }
          ],
          "internalType": "struct ReaderPositionUtils.GetPosition[]",
          "name": "",
          "type": "tuple[]"
        }
      ],
      "stateMutability": "view",
      "type": "function"
    },
    {
      "inputs": [
        {
          "internalType": "address",
          "name": "dataStore",
          "type": "address"
        },
        {
          "internalType": "address",
          "name": "account",
          "type": "address"
        }
      ],
      "name": "getPositions",
      "outputs": [
        {
          "components": [
            {
              "components": [
                {
                  "internalType": "address",
                  "name": "token",
                  "type": "address"
                },
                {
                  "internalType": "string",
                  "name": "symbol",
                  "type": "string"
                },
                {
                  "internalType": "uint256",
                  "name": "decimals",
                  "type": "uint256"
                },
                {
                  "internalType": "uint256",
                  "name": "balance",
                  "type": "uint256"
                },
                {
                  "internalType": "uint256",
                  "name": "debt",
                  "type": "uint256"
                },
                {
                  "internalType": "int256",
                  "name": "netWorth",
                  "type": "int256"
                },
                {
                  "internalType": "uint256",
                  "name": "maxRedeemAmount",
                  "type": "uint256"
                },
                {
                  "internalType": "uint256",
                  "name": "borrowApy",
                  "type": "uint256"
                },
                {
                  "internalType": "int256",
                  "name": "equity",
                  "type": "int256"
                },
                {
                  "internalType": "int256",
                  "name": "equityValue",
                  "type": "int256"
                }
              ],
              "internalType": "struct ReaderPositionUtils.Asset[2]",
              "name": "assets",
              "type": "tuple[2]"
            },
            {
              "internalType": "uint256",
              "name": "id",
              "type": "uint256"
            },
            {
              "internalType": "address",
              "name": "account",
              "type": "address"
            },
            {
              "internalType": "uint256",
              "name": "marginLevel",
              "type": "uint256"
            },
            {
              "internalType": "uint256",
              "name": "entryPrice",
              "type": "uint256"
            },
            {
              "internalType": "uint256",
              "name": "IndexPrice",
              "type": "uint256"
            },
            {
              "internalType": "int256",
              "name": "pnl",
              "type": "int256"
            },
            {
              "internalType": "uint256",
              "name": "liquidationPrice",
              "type": "uint256"
            },
            {
              "internalType": "int256",
              "name": "toLiquidationPrice",
              "type": "int256"
            }
          ],
          "internalType": "struct ReaderPositionUtils.GetPosition[]",
          "name": "",
          "type": "tuple[]"
        }
      ],
      "stateMutability": "view",
      "type": "function"
    },
    {
      "inputs": [
        {
          "internalType": "address",
          "name": "dataStore",
          "type": "address"
        }
      ],
      "name": "getTokenBase",
      "outputs": [
        {
          "internalType": "address",
          "name": "",
          "type": "address"
        }
      ],
      "stateMutability": "view",
      "type": "function"
    },
    {
      "inputs": [
        {
          "internalType": "address",
          "name": "dataStore",
          "type": "address"
        }
      ],
      "name": "getTreasury",
      "outputs": [
        {
          "internalType": "address",
          "name": "",
          "type": "address"
        }
      ],
      "stateMutability": "view",
      "type": "function"
    }
  ],
  "bytecode": "0x6080604052348015600f57600080fd5b50615e648061001f6000396000f3fe608060405234801561001057600080fd5b50600436106101165760003560e01c80635c39f467116100a2578063c2bdeda111610071578063c2bdeda11461038c578063d28b0a15146103be578063e335adb7146103f0578063eed0742814610420578063f68a71311461045057610116565b80635c39f467146102cc578063739118a4146102fc57806378f212d11461032c5780638f6c7a3c1461035c57610116565b806350376aaa116100e957806350376aaa146101dc57806350ed592d1461020c578063525f560c1461023c57806357b91ca61461026c5780635a6f57101461029c57610116565b80631a3081751461011b57806328a0ccf41461014b578063317b50ec1461017b578063382fc72e146101ac575b600080fd5b6101356004803603810190610130919061305a565b610480565b604051610142919061336a565b60405180910390f35b6101656004803603810190610160919061305a565b610519565b604051610172919061339b565b60405180910390f35b610195600480360381019061019091906133e2565b61052b565b6040516101a3929190613458565b60405180910390f35b6101c660048036038101906101c19190613481565b6105b8565b6040516101d3919061336a565b60405180910390f35b6101f660048036038101906101f19190613652565b610644565b60405161020391906138f5565b60405180910390f35b6102266004803603810190610221919061305a565b61077c565b6040516102339190613917565b60405180910390f35b61025660048036038101906102519190613652565b61078e565b6040516102639190613c62565b60405180910390f35b6102866004803603810190610281919061305a565b6107a2565b6040516102939190613917565b60405180910390f35b6102b660048036038101906102b1919061305a565b6107b4565b6040516102c39190613917565b60405180910390f35b6102e660048036038101906102e1919061305a565b6107c6565b6040516102f39190614034565b60405180910390f35b61031660048036038101906103119190614056565b61085f565b6040516103239190613c62565b60405180910390f35b6103466004803603810190610341919061305a565b610885565b604051610353919061339b565b60405180910390f35b61037660048036038101906103719190613481565b610897565b6040516103839190614034565b60405180910390f35b6103a660048036038101906103a191906140cf565b610923565b6040516103b593929190614159565b60405180910390f35b6103d860048036038101906103d391906140cf565b6109b9565b6040516103e793929190614159565b60405180910390f35b61040a6004803603810190610405919061305a565b610a4f565b604051610417919061339b565b60405180910390f35b61043a60048036038101906104359190613652565b610a61565b604051610447919061336a565b60405180910390f35b61046a60048036038101906104659190614190565b610aea565b6040516104779190613917565b60405180910390f35b6060600061048d83610b77565b905073__$22ab6dac19e7eec84dc260d26b99b72765$__63382fc72e846000846040518463ffffffff1660e01b81526004016104cb9392919061426e565b600060405180830381865af41580156104e8573d6000803e3d6000fd5b505050506040513d6000823e3d601f19601f820116820180604052508101906105119190614643565b915050919050565b600061052482610c1e565b9050919050565b60008073__$22ab6dac19e7eec84dc260d26b99b72765$__63317b50ec878787876040518563ffffffff1660e01b815260040161056b949392919061468c565b6040805180830381865af4158015610587573d6000803e3d6000fd5b505050506040513d601f19601f820116820180604052508101906105ab91906146d1565b9150915094509492505050565b606073__$22ab6dac19e7eec84dc260d26b99b72765$__63382fc72e8585856040518463ffffffff1660e01b81526004016105f593929190614711565b600060405180830381865af4158015610612573d6000803e3d6000fd5b505050506040513d6000823e3d601f19601f8201168201806040525081019061063b9190614643565b90509392505050565b60606000825167ffffffffffffffff811115610663576106626134d9565b5b60405190808252806020026020018201604052801561069c57816020015b610689612c09565b8152602001906001900390816106815790505b50905060005b835181101561077157600073__$e0022d6f389ac14ff1ce1dc57a4018d0a3$__637b82d74e878785815181106106db576106da614748565b5b60200260200101516040518363ffffffff1660e01b8152600401610700929190614786565b61024060405180830381865af415801561071e573d6000803e3d6000fd5b505050506040513d601f19601f8201168201806040525081019061074291906149a5565b90508083838151811061075857610757614748565b5b60200260200101819052505080806001019150506106a2565b508091505092915050565b600061078782610cc5565b9050919050565b606061079a8383610d6c565b905092915050565b60006107ad82610e39565b9050919050565b60006107bf82610b77565b9050919050565b606060006107d383610b77565b905073__$22ab6dac19e7eec84dc260d26b99b72765$__638f6c7a3c846000846040518463ffffffff1660e01b81526004016108119392919061426e565b600060405180830381865af415801561082e573d6000803e3d6000fd5b505050506040513d6000823e3d601f19601f820116820180604052508101906108579190614e41565b915050919050565b6060600061086d8484610ee0565b905061087c8484600084610f6c565b91505092915050565b600061089082610f93565b9050919050565b606073__$22ab6dac19e7eec84dc260d26b99b72765$__638f6c7a3c8585856040518463ffffffff1660e01b81526004016108d493929190614711565b600060405180830381865af41580156108f1573d6000803e3d6000fd5b505050506040513d6000823e3d601f19601f8201168201806040525081019061091a9190614e41565b90509392505050565b600080600073__$22ab6dac19e7eec84dc260d26b99b72765$__63c2bdeda189898989896040518663ffffffff1660e01b8152600401610967959493929190614e99565b606060405180830381865af4158015610984573d6000803e3d6000fd5b505050506040513d601f19601f820116820180604052508101906109a89190614f18565b925092509250955095509592505050565b600080600073__$22ab6dac19e7eec84dc260d26b99b72765$__63d28b0a1589898989896040518663ffffffff1660e01b81526004016109fd959493929190614e99565b606060405180830381865af4158015610a1a573d6000803e3d6000fd5b505050506040513d601f19601f82011682018060405250810190610a3e9190614f18565b925092509250955095509592505050565b6000610a5a8261103a565b9050919050565b606073__$22ab6dac19e7eec84dc260d26b99b72765$__63eed0742884846040518363ffffffff1660e01b8152600401610a9c929190615029565b600060405180830381865af4158015610ab9573d6000803e3d6000fd5b505050506040513d6000823e3d601f19601f82011682018060405250810190610ae29190614643565b905092915050565b600073__$22ab6dac19e7eec84dc260d26b99b72765$__63f68a713187878787876040518663ffffffff1660e01b8152600401610b2b959493929190615059565b602060405180830381865af4158015610b48573d6000803e3d6000fd5b505050506040513d601f19601f82011682018060405250810190610b6c91906150ac565b905095945050505050565b60008173ffffffffffffffffffffffffffffffffffffffff1663f3903b9f604051602001610ba490615136565b604051602081830303815290604052805190602001206040518263ffffffff1660e01b8152600401610bd69190615165565b602060405180830381865afa158015610bf3573d6000803e3d6000fd5b505050506040513d601f19601f82011682018060405250810190610c1791906150ac565b9050919050565b60008173ffffffffffffffffffffffffffffffffffffffff166321f8a721604051602001610c4b906151cc565b604051602081830303815290604052805190602001206040518263ffffffff1660e01b8152600401610c7d9190615165565b602060405180830381865afa158015610c9a573d6000803e3d6000fd5b505050506040513d601f19601f82011682018060405250810190610cbe91906151ec565b9050919050565b60008173ffffffffffffffffffffffffffffffffffffffff1663bd02d0f5604051602001610cf290615265565b604051602081830303815290604052805190602001206040518263ffffffff1660e01b8152600401610d249190615165565b602060405180830381865afa158015610d41573d6000803e3d6000fd5b505050506040513d601f19601f82011682018060405250810190610d6591906150ac565b9050919050565b60606000825167ffffffffffffffff811115610d8b57610d8a6134d9565b5b604051908082528060200260200182016040528015610dc457816020015b610db1612c6a565b815260200190600190039081610da95790505b50905060005b8351811015610e2e576000848281518110610de857610de7614748565b5b602002602001015190506000610dfe87836110e1565b905080848481518110610e1457610e13614748565b5b602002602001018190525050508080600101915050610dca565b508091505092915050565b60008173ffffffffffffffffffffffffffffffffffffffff1663bd02d0f5604051602001610e66906152d1565b604051602081830303815290604052805190602001206040518263ffffffff1660e01b8152600401610e989190615165565b602060405180830381865afa158015610eb5573d6000803e3d6000fd5b505050506040513d601f19601f82011682018060405250810190610ed991906150ac565b9050919050565b60008273ffffffffffffffffffffffffffffffffffffffff1663f3903b9f610f0784611a64565b6040518263ffffffff1660e01b8152600401610f239190615165565b602060405180830381865afa158015610f40573d6000803e3d6000fd5b505050506040513d601f19601f82011682018060405250810190610f6491906150ac565b905092915050565b60606000610f7c86868686611aba565b9050610f888682610d6c565b915050949350505050565b60008173ffffffffffffffffffffffffffffffffffffffff166321f8a721604051602001610fc09061533d565b604051602081830303815290604052805190602001206040518263ffffffff1660e01b8152600401610ff29190615165565b602060405180830381865afa15801561100f573d6000803e3d6000fd5b505050506040513d601f19601f8201168201806040525081019061103391906151ec565b9050919050565b60008173ffffffffffffffffffffffffffffffffffffffff166321f8a721604051602001611067906153a9565b604051602081830303815290604052805190602001206040518263ffffffff1660e01b81526004016110999190615165565b602060405180830381865afa1580156110b6573d6000803e3d6000fd5b505050506040513d601f19601f820116820180604052508101906110da91906151ec565b9050919050565b6110e9612c6a565b6110f1612cd2565b73__$3d31b232fb363902662fbc281b11ab3357$__637b82d74e85856040518363ffffffff1660e01b815260040161112a929190614786565b61024060405180830381865af4158015611148573d6000803e3d6000fd5b505050506040513d601f19601f8201168201806040525081019061116c91906155ad565b81600001819052506111cc816000015160000151600060ff166002811061119657611195614748565b5b602002015160000151826000015160000151600160ff16600281106111be576111bd614748565b5b602002015160000151611b51565b81604001818152505073__$e0022d6f389ac14ff1ce1dc57a4018d0a3$__637b82d74e8583604001516040518363ffffffff1660e01b8152600401611212929190614786565b61024060405180830381865af4158015611230573d6000803e3d6000fd5b505050506040513d601f19601f8201168201806040525081019061125491906149a5565b816020018190525061126f8482602001518360000151611bef565b9091925090915090505081606001818152505061128f8160200151611ce2565b81610300018181525050806000015160000151600060ff16600281106112b8576112b7614748565b5b6020020151602001518160e001818152505061132b816020015160000151600060ff16600281106112ec576112eb614748565b5b602002015160200151826000015160000151600060ff166002811061131457611313614748565b5b602002015160400151611dcc90919063ffffffff16565b8160c00181815250506113478160200151606001516000611e17565b8160a00181815250506113628160e001518260c00151611e8a565b8161010001818152505061137f8161010001518260a00151611eb9565b816101200181815250506113a18160e001518260c00151836101000151611ee6565b816101400181815250506113c684826020015183600001518461030001516000611f09565b81610160018181525050806101400151816101800181815250506113f88160e001518260c001518361012001516120ca565b816101a00181815250506114158160200151606001516001611e17565b816101c0018181525050806000015160000151600160ff166002811061143e5761143d614748565b5b602002015160200151816102000181815250506114b2816020015160000151600160ff166002811061147357611472614748565b5b602002015160200151826000015160000151600160ff166002811061149b5761149a614748565b5b602002015160400151611dcc90919063ffffffff16565b816101e00181815250506114d0816102000151826101e00151611e8a565b816102200181815250506114ee816102200151826101c00151611eb9565b81610240018181525050611515816103000151826102400151611dcc90919063ffffffff16565b81610260018181525050611539816102000151826101e00151836102200151611ee6565b8161028001818152505061155e84826020015183600001518461030001516001611f09565b816102a0018181525050806102800151816102c0018181525050611592816102000151826101e001518361026001516120ca565b816102e00181815250506115a981600001516120ed565b816080018181525050600260ff16816000015160000151600160ff16600281106115d6576115d5614748565b5b602002015160e00151146116fc576115f781610300015182608001516121ab565b8161032001818152505061161e816103200151826102400151611dcc90919063ffffffff16565b8161034001818152505080608001518161030001511181610380019015159081151581525050611664816103800151826102000151836101e001518461034001516121da565b81610360018181525050806103600151816103a00181815250506116d3846116948360e001518460a00151612204565b6116a68460c001518560a00151612204565b6116ba856102000151866101c00151612204565b6116ce866101e00151876101c00151612204565b612231565b816103c00181815250506116f1816103c00151826103000151612321565b816103e00181815250505b6040518061012001604052806040518060400160405280604051806101400160405280866000015160000151600060ff166002811061173e5761173d614748565b5b60200201516000015173ffffffffffffffffffffffffffffffffffffffff168152602001866000015160000151600060ff166002811061178157611780614748565b5b60200201516000015173ffffffffffffffffffffffffffffffffffffffff166395d89b416040518163ffffffff1660e01b8152600401600060405180830381865afa1580156117d4573d6000803e3d6000fd5b505050506040513d6000823e3d601f19601f820116820180604052508101906117fd91906155db565b81526020018660a0015181526020018660e0015181526020018660c00151815260200186610140015181526020018661016001518152602001866020015160000151600060ff166002811061185557611854614748565b5b60200201516040015181526020018661018001518152602001866101a001518152508152602001604051806101400160405280866000015160000151600160ff16600281106118a7576118a6614748565b5b60200201516000015173ffffffffffffffffffffffffffffffffffffffff168152602001866000015160000151600160ff16600281106118ea576118e9614748565b5b60200201516000015173ffffffffffffffffffffffffffffffffffffffff166395d89b416040518163ffffffff1660e01b8152600401600060405180830381865afa15801561193d573d6000803e3d6000fd5b505050506040513d6000823e3d601f19601f8201168201806040525081019061196691906155db565b8152602001866101c0015181526020018661020001518152602001866101e0015181526020018661028001518152602001866102a001518152602001866020015160000151600160ff16600281106119c1576119c0614748565b5b6020020151604001518152602001866102c001518152602001866102e001518152508152508152602001826000015160200151815260200182600001516040015173ffffffffffffffffffffffffffffffffffffffff16815260200182606001518152602001826080015181526020018261030001518152602001826103a001518152602001826103c001518152602001826103e0015181525091505092915050565b6000604051602001611a7590615670565b6040516020818303038152906040528051906020012082604051602001611a9d929190615690565b604051602081830303815290604052805190602001209050919050565b60608473ffffffffffffffffffffffffffffffffffffffff1663f069052a611ae186611a64565b85856040518463ffffffff1660e01b8152600401611b01939291906156b9565b600060405180830381865afa158015611b1e573d6000803e3d6000fd5b505050506040513d6000823e3d601f19601f82011682018060405250810190611b47919061579c565b9050949350505050565b60008173ffffffffffffffffffffffffffffffffffffffff168373ffffffffffffffffffffffffffffffffffffffff1610611b8d578183611b90565b82825b8093508194505050604051602001611ba790615831565b604051602081830303815290604052805190602001208383604051602001611bd193929190615851565b60405160208183030381529060405280519060200120905092915050565b600080600080600073__$298f7a26f5551156800138e763233ed11a$__63d46cdf3289896040518363ffffffff1660e01b8152600401611c30929190615a1b565b602060405180830381865af4158015611c4d573d6000803e3d6000fd5b505050506040513d601f19601f82011682018060405250810190611c7191906150ac565b9050611c808787836000612396565b809350819450505060008211611cb6577fffffffffffffffffffffffffffffffffffffffffffffffffffffffffffffffff611cca565b611cc982846125c790919063ffffffff16565b5b9450611cd588610e39565b9350939792965093509350565b600080611cf383600080600061260e565b50505090506000611d0884600160008061260e565b505050905060008103611d2057600092505050611dc7565b6000611d3185606001516000611e17565b90506000611d4486606001516001611e17565b90506000611d6b856b033b2e3c9fd0803ce800000085600a611d669190615ba7565b612736565b90506000611d92856b033b2e3c9fd0803ce800000085600a611d8d9190615ba7565b612736565b905060008103611dab5760009650505050505050611dc7565b611dbe81836125c790919063ffffffff16565b96505050505050505b919050565b6000816b019d971e4fe8401e740000006000190304831115821517611df057600080fd5b6b033b2e3c9fd0803ce80000006b019d971e4fe8401e740000008385020104905092915050565b6000807fffffffffffffffffffffffffffffffffffffffff00ffffffffffffffffffffff9050600060589050600160ff168460ff1603611e79577fffffffffffffffffffffffffffffffffffffff00ffffffffffffffffffffffff9150606090505b8082198616901c9250505092915050565b6000818311611ea4578282611e9f9190615bf2565b611eb1565b8183611eb09190615bf2565b5b905092915050565b6000611ede836b033b2e3c9fd0803ce800000084600a611ed99190615ba7565b612736565b905092915050565b6000828411611efe5781611ef990615c26565b611f00565b815b90509392505050565b6000611f13612dd0565b611f208686866000612396565b826000018360200182815250828152505050600081600001511480611f675750600085600001518460ff1660028110611f5c57611f5b614748565b5b602002015160200151145b15611f765760009150506120c1565b611f7f8761283d565b816040018181525050611fa381604001518260200151611dcc90919063ffffffff16565b816080018181525050806080015181600001511015611fc65760009150506120c1565b80608001518160000151611fda9190615bf2565b816060018181525050611ff1866060015184611e17565b8160a001818152505061202581606001518260a00151600a6120139190615ba7565b6b033b2e3c9fd0803ce8000000612736565b8160c0018181525050600160ff168360ff160361205d57612053848260c001516125c790919063ffffffff16565b8160c00181815250505b84600001518360ff166002811061207757612076614748565b5b6020020151602001518160c0015111156120b85784600001518360ff16600281106120a5576120a4614748565b5b6020020151602001518160c00181815250505b8060c001519150505b95945050505050565b60008284116120e257816120dd90615c26565b6120e4565b815b90509392505050565b6000600160ff168260000151600160ff166002811061210f5761210e614748565b5b602002015160e0015103612148578160000151600160ff166002811061213857612137614748565b5b60200201516060015190506121a6565b600060ff168260000151600160ff166002811061216857612167614748565b5b602002015160e00151036121a1578160000151600160ff166002811061219157612190614748565b5b60200201516080015190506121a6565b600090505b919050565b60008183116121c55782826121c09190615bf2565b6121d2565b81836121d19190615bf2565b5b905092915050565b60008284111515851515146121f857816121f390615c26565b6121fa565b815b9050949350505050565b6000612229836b033b2e3c9fd0803ce800000084600a6122249190615ba7565b612736565b905092915050565b60008061223d87610e39565b905060006122548683611dcc90919063ffffffff16565b9050600061226b8584611dcc90919063ffffffff16565b90506000888361227b9190615c6e565b90506000828861228b9190615c6e565b90506000612298836128e4565b905060006122a5836128e4565b90506000841380156122b75750600083125b806122ce57506000841280156122cd5750600083135b5b156122e3576000975050505050505050612318565b600081036122fb576000975050505050505050612318565b61230e81836125c790919063ffffffff16565b9750505050505050505b95945050505050565b60008082036123335760009050612390565b600082841161234d5783836123489190615bf2565b61235a565b82846123599190615bf2565b5b9050600061237184836125c790919063ffffffff16565b9050838511612389578061238490615c26565b61238b565b805b925050505b92915050565b6000806000808660000151600060ff16600281106123b7576123b6614748565b5b60200201516000015173ffffffffffffffffffffffffffffffffffffffff168573ffffffffffffffffffffffffffffffffffffffff1614612491576000806124018a8a6000612900565b91509150600061241f60008c60600151611e1790919063ffffffff16565b90506000612446846b033b2e3c9fd0803ce800000084600a6124419190615ba7565b612736565b9050600061246d846b033b2e3c9fd0803ce800000085600a6124689190615ba7565b612736565b9050818761247b9190615cb1565b965080866124899190615cb1565b955050505050505b8660000151600160ff16600281106124ac576124ab614748565b5b60200201516000015173ffffffffffffffffffffffffffffffffffffffff168573ffffffffffffffffffffffffffffffffffffffff16146125b6576000806124f68a8a6001612900565b91509150600061251460018c60600151611e1790919063ffffffff16565b9050600061253b846b033b2e3c9fd0803ce800000084600a6125369190615ba7565b612736565b90506000612562846b033b2e3c9fd0803ce800000085600a61255d9190615ba7565b612736565b905060006125798c84611dcc90919063ffffffff16565b905060006125908d84611dcc90919063ffffffff16565b9050818961259e9190615cb1565b985080886125ac9190615cb1565b9750505050505050505b819350809250505094509492505050565b60006b033b2e3c9fd0803ce800000060028304600019030483111515821517156125f057600080fd5b81600283046b033b2e3c9fd0803ce800000085020104905092915050565b600080600080600088600001518860ff16600281106126305761262f614748565b5b6020020151905060006126438a8a6129ae565b905060008103612662576000806000809550955095509550505061272b565b6000612672838c60800151612ab9565b905060006126898983611dcc90919063ffffffff16565b90506000808a146126bb578184106126b3576126ae8285612afe90919063ffffffff16565b6126b6565b60005b6126be565b60005b905060006126d58c86611dcc90919063ffffffff16565b90506000808d14612707578482106126ff576126fa8583612afe90919063ffffffff16565b612702565b60005b61270a565b60005b905084866127189190615cb1565b8684839a509a509a509a50505050505050505b945094509450949050565b60008083850290506000801985870982811083820303915050600081036127715783828161276757612766615ce5565b5b0492505050612836565b8084116127aa576040517f227bc15300000000000000000000000000000000000000000000000000000000815260040160405180910390fd5b600084868809905082811182039150808303925060008560000386169050808604955080840493506001818260000304019050808302841793506000600287600302189050808702600203810290508087026002038102905080870260020381029050808702600203810290508087026002038102905080870260020381029050808502955050505050505b9392505050565b60008173ffffffffffffffffffffffffffffffffffffffff1663bd02d0f560405160200161286a90615d60565b604051602081830303815290604052805190602001206040518263ffffffff1660e01b815260040161289c9190615165565b602060405180830381865afa1580156128b9573d6000803e3d6000fd5b505050506040513d601f19601f820116820180604052508101906128dd91906150ac565b9050919050565b6000808212156128f757816000036128f9565b815b9050919050565b600080600084600001518460ff166002811061291f5761291e614748565b5b6020020151604001519050600061295887600001518660ff166002811061294957612948614748565b5b60200201518860800151612b57565b90506000821461297a576129758183611dcc90919063ffffffff16565b61297d565b60005b925085600001518560ff166002811061299957612998614748565b5b60200201516020015193505050935093915050565b60008083600001518360ff16600281106129cb576129ca614748565b5b602002015190506000846020015173ffffffffffffffffffffffffffffffffffffffff1663e42c08f283600001516040518263ffffffff1660e01b8152600401612a15919061339b565b602060405180830381865afa158015612a32573d6000803e3d6000fd5b505050506040513d601f19601f82011682018060405250810190612a5691906150ac565b905060008103612a6b57600092505050612ab3565b6000826060015190508260c0015181612a849190615cb1565b8210612aaa578260c001518183612a9b9190615bf2565b612aa59190615bf2565b612aad565b60005b93505050505b92915050565b6000808360a0015103612acf5760009050612af8565b6000612adb8484612b57565b9050612af4818560a00151611dcc90919063ffffffff16565b9150505b92915050565b6000828284612b0d9190615bf2565b9150811115612b51576040517f08c379a0000000000000000000000000000000000000000000000000000000008152600401612b4890615dcc565b60405180910390fd5b92915050565b6000612b61612ba6565b8203612b735782602001519050612ba0565b6000612b83846040015184612bae565b9050612b9c846020015182611dcc90919063ffffffff16565b9150505b92915050565b600042905090565b60008082612bba612ba6565b612bc49190615bf2565b84612bcf9190615dec565b90506301e133808181612be557612be4615ce5565b5b049050806b033b2e3c9fd0803ce8000000612c009190615cb1565b91505092915050565b6040518060a00160405280612c1c612e0d565b8152602001600073ffffffffffffffffffffffffffffffffffffffff168152602001600073ffffffffffffffffffffffffffffffffffffffff16815260200160008152602001600081525090565b604051806101200160405280612c7e612e3a565b815260200160008152602001600073ffffffffffffffffffffffffffffffffffffffff1681526020016000815260200160008152602001600081526020016000815260200160008152602001600081525090565b604051806104000160405280612ce6612e67565b8152602001612cf3612c09565b815260200160008019168152602001600081526020016000815260200160008152602001600081526020016000815260200160008152602001600081526020016000815260200160008152602001600081526020016000815260200160008152602001600081526020016000815260200160008152602001600081526020016000815260200160008152602001600081526020016000815260200160008152602001600081526020016000815260200160008152602001600081526020016000151581526020016000815260200160008152602001600081525090565b6040518060e00160405280600081526020016000815260200160008152602001600081526020016000815260200160008152602001600081525090565b60405180604001604052806002905b612e24612ea4565b815260200190600190039081612e1c5790505090565b60405180604001604052806002905b612e51612ef7565b815260200190600190039081612e495790505090565b6040518060600160405280612e7a612f60565b815260200160008152602001600073ffffffffffffffffffffffffffffffffffffffff1681525090565b6040518060e00160405280600073ffffffffffffffffffffffffffffffffffffffff1681526020016000815260200160008152602001600081526020016000815260200160008152602001600081525090565b604051806101400160405280600073ffffffffffffffffffffffffffffffffffffffff1681526020016060815260200160008152602001600081526020016000815260200160008152602001600081526020016000815260200160008152602001600081525090565b60405180604001604052806002905b612f77612f8d565b815260200190600190039081612f6f5790505090565b604051806101000160405280600073ffffffffffffffffffffffffffffffffffffffff168152602001600081526020016000815260200160008152602001600081526020016000815260200160008152602001600081525090565b6000604051905090565b600080fd5b600080fd5b600073ffffffffffffffffffffffffffffffffffffffff82169050919050565b600061302782612ffc565b9050919050565b6130378161301c565b811461304257600080fd5b50565b6000813590506130548161302e565b92915050565b6000602082840312156130705761306f612ff2565b5b600061307e84828501613045565b91505092915050565b600081519050919050565b600082825260208201905092915050565b6000819050602082019050919050565b600060029050919050565b600081905092915050565b6000819050919050565b6130dc8161301c565b82525050565b600081519050919050565b600082825260208201905092915050565b60005b8381101561311c578082015181840152602081019050613101565b60008484015250505050565b6000601f19601f8301169050919050565b6000613144826130e2565b61314e81856130ed565b935061315e8185602086016130fe565b61316781613128565b840191505092915050565b6000819050919050565b61318581613172565b82525050565b60006080830160008301516131a360008601826130d3565b50602083015184820360208601526131bb8282613139565b91505060408301516131d0604086018261317c565b5060608301516131e3606086018261317c565b508091505092915050565b60006131fa838361318b565b905092915050565b6000602082019050919050565b600061321a826130b3565b61322481856130be565b935083602082028501613236856130c9565b8060005b85811015613272578484038952815161325385826131ee565b945061325e83613202565b925060208a0199505060018101905061323a565b50829750879550505050505092915050565b600060608301600083015184820360008601526132a1828261320f565b91505060208301516132b6602086018261317c565b5060408301516132c9604086018261317c565b508091505092915050565b60006132e08383613284565b905092915050565b6000602082019050919050565b600061330082613087565b61330a8185613092565b93508360208202850161331c856130a3565b8060005b85811015613358578484038952815161333985826132d4565b9450613344836132e8565b925060208a01995050600181019050613320565b50829750879550505050505092915050565b6000602082019050818103600083015261338481846132f5565b905092915050565b6133958161301c565b82525050565b60006020820190506133b0600083018461338c565b92915050565b6133bf81613172565b81146133ca57600080fd5b50565b6000813590506133dc816133b6565b92915050565b600080600080608085870312156133fc576133fb612ff2565b5b600061340a87828801613045565b945050602061341b87828801613045565b935050604061342c87828801613045565b925050606061343d878288016133cd565b91505092959194509250565b61345281613172565b82525050565b600060408201905061346d6000830185613449565b61347a6020830184613449565b9392505050565b60008060006060848603121561349a57613499612ff2565b5b60006134a886828701613045565b93505060206134b9868287016133cd565b92505060406134ca868287016133cd565b9150509250925092565b600080fd5b7f4e487b7100000000000000000000000000000000000000000000000000000000600052604160045260246000fd5b61351182613128565b810181811067ffffffffffffffff821117156135305761352f6134d9565b5b80604052505050565b6000613543612fe8565b905061354f8282613508565b919050565b600067ffffffffffffffff82111561356f5761356e6134d9565b5b602082029050602081019050919050565b600080fd5b6000819050919050565b61359881613585565b81146135a357600080fd5b50565b6000813590506135b58161358f565b92915050565b60006135ce6135c984613554565b613539565b905080838252602082019050602084028301858111156135f1576135f0613580565b5b835b8181101561361a578061360688826135a6565b8452602084019350506020810190506135f3565b5050509392505050565b600082601f830112613639576136386134d4565b5b81356136498482602086016135bb565b91505092915050565b6000806040838503121561366957613668612ff2565b5b600061367785828601613045565b925050602083013567ffffffffffffffff81111561369857613697612ff7565b5b6136a485828601613624565b9150509250929050565b600081519050919050565b600082825260208201905092915050565b6000819050602082019050919050565b600060029050919050565b600081905092915050565b6000819050919050565b60e08201600082015161371060008501826130d3565b506020820151613723602085018261317c565b506040820151613736604085018261317c565b506060820151613749606085018261317c565b50608082015161375c608085018261317c565b5060a082015161376f60a085018261317c565b5060c082015161378260c085018261317c565b50505050565b600061379483836136fa565b60e08301905092915050565b6000602082019050919050565b6137b6816136da565b6137c081846136e5565b92506137cb826136f0565b8060005b838110156137fc5781516137e38782613788565b96506137ee836137a0565b9250506001810190506137cf565b505050505050565b6102408201600082015161381b60008501826137ad565b50602082015161382f6101c08501826130d3565b5060408201516138436101e08501826130d3565b50606082015161385761020085018261317c565b50608082015161386b61022085018261317c565b50505050565b600061387d8383613804565b6102408301905092915050565b6000602082019050919050565b60006138a2826136ae565b6138ac81856136b9565b93506138b7836136ca565b8060005b838110156138e85781516138cf8882613871565b97506138da8361388a565b9250506001810190506138bb565b5085935050505092915050565b6000602082019050818103600083015261390f8184613897565b905092915050565b600060208201905061392c6000830184613449565b92915050565b600081519050919050565b600082825260208201905092915050565b6000819050602082019050919050565b600060029050919050565b600081905092915050565b6000819050919050565b6000819050919050565b6139918161397e565b82525050565b6000610140830160008301516139b060008601826130d3565b50602083015184820360208601526139c88282613139565b91505060408301516139dd604086018261317c565b5060608301516139f0606086018261317c565b506080830151613a03608086018261317c565b5060a0830151613a1660a0860182613988565b5060c0830151613a2960c086018261317c565b5060e0830151613a3c60e086018261317c565b50610100830151613a51610100860182613988565b50610120830151613a66610120860182613988565b508091505092915050565b6000613a7d8383613997565b905092915050565b6000602082019050919050565b6000613a9d8261395e565b613aa78185613969565b935083602082028501613ab985613974565b8060005b85811015613af55784840389528151613ad68582613a71565b9450613ae183613a85565b925060208a01995050600181019050613abd565b50829750879550505050505092915050565b6000610120830160008301518482036000860152613b258282613a92565b9150506020830151613b3a602086018261317c565b506040830151613b4d60408601826130d3565b506060830151613b60606086018261317c565b506080830151613b73608086018261317c565b5060a0830151613b8660a086018261317c565b5060c0830151613b9960c0860182613988565b5060e0830151613bac60e086018261317c565b50610100830151613bc1610100860182613988565b508091505092915050565b6000613bd88383613b07565b905092915050565b6000602082019050919050565b6000613bf882613932565b613c02818561393d565b935083602082028501613c148561394e565b8060005b85811015613c505784840389528151613c318582613bcc565b9450613c3c83613be0565b925060208a01995050600181019050613c18565b50829750879550505050505092915050565b60006020820190508181036000830152613c7c8184613bed565b905092915050565b600081519050919050565b600082825260208201905092915050565b6000819050602082019050919050565b600060029050919050565b600081905092915050565b6000819050919050565b600061018083016000830151613ce960008601826130d3565b5060208301518482036020860152613d018282613139565b9150506040830151613d16604086018261317c565b506060830151613d29606086018261317c565b506080830151613d3c608086018261317c565b5060a0830151613d4f60a086018261317c565b5060c0830151613d6260c086018261317c565b5060e0830151613d7560e086018261317c565b50610100830151613d8a61010086018261317c565b50610120830151613d9f61012086018261317c565b50610140830151613db461014086018261317c565b50610160830151613dc961016086018261317c565b508091505092915050565b6000613de08383613cd0565b905092915050565b6000602082019050919050565b6000613e0082613cb0565b613e0a8185613cbb565b935083602082028501613e1c85613cc6565b8060005b85811015613e585784840389528151613e398582613dd4565b9450613e4483613de8565b925060208a01995050600181019050613e20565b50829750879550505050505092915050565b60008115159050919050565b613e7f81613e6a565b82525050565b60006101a0830160008301518482036000860152613ea38282613df5565b9150506020830151613eb860208601826130d3565b506040830151613ecb60408601826130d3565b506060830151613ede606086018261317c565b506080830151613ef1608086018261317c565b5060a0830151613f0460a086018261317c565b5060c0830151613f1760c086018261317c565b5060e0830151613f2a60e08601826130d3565b50610100830151613f3f610100860182613e76565b50610120830151613f5461012086018261317c565b50610140830151613f6961014086018261317c565b50610160830151613f7e61016086018261317c565b50610180830151613f9361018086018261317c565b508091505092915050565b6000613faa8383613e85565b905092915050565b6000602082019050919050565b6000613fca82613c84565b613fd48185613c8f565b935083602082028501613fe685613ca0565b8060005b8581101561402257848403895281516140038582613f9e565b945061400e83613fb2565b925060208a01995050600181019050613fea565b50829750879550505050505092915050565b6000602082019050818103600083015261404e8184613fbf565b905092915050565b6000806040838503121561406d5761406c612ff2565b5b600061407b85828601613045565b925050602061408c85828601613045565b9150509250929050565b600060ff82169050919050565b6140ac81614096565b81146140b757600080fd5b50565b6000813590506140c9816140a3565b92915050565b600080600080600060a086880312156140eb576140ea612ff2565b5b60006140f988828901613045565b955050602061410a88828901613045565b945050604061411b88828901613045565b935050606061412c888289016133cd565b925050608061413d888289016140ba565b9150509295509295909350565b6141538161397e565b82525050565b600060608201905061416e6000830186613449565b61417b6020830185613449565b614188604083018461414a565b949350505050565b600080600080600060a086880312156141ac576141ab612ff2565b5b60006141ba88828901613045565b95505060206141cb88828901613045565b94505060406141dc88828901613045565b93505060606141ed888289016133cd565b92505060806141fe888289016133cd565b9150509295509295909350565b6142148161301c565b82525050565b6000819050919050565b6000819050919050565b600061424961424461423f8461421a565b614224565b613172565b9050919050565b6142598161422e565b82525050565b61426881613172565b82525050565b6000606082019050614283600083018661420b565b6142906020830185614250565b61429d604083018461425f565b949350505050565b600067ffffffffffffffff8211156142c0576142bf6134d9565b5b602082029050602081019050919050565b600080fd5b600080fd5b600067ffffffffffffffff8211156142f6576142f56134d9565b5b602082029050919050565b6000815190506143108161302e565b92915050565b600080fd5b600067ffffffffffffffff821115614336576143356134d9565b5b61433f82613128565b9050602081019050919050565b600061435f61435a8461431b565b613539565b90508281526020810184848401111561437b5761437a614316565b5b6143868482856130fe565b509392505050565b600082601f8301126143a3576143a26134d4565b5b81516143b384826020860161434c565b91505092915050565b6000815190506143cb816133b6565b92915050565b6000608082840312156143e7576143e66142d1565b5b6143f16080613539565b9050600061440184828501614301565b600083015250602082015167ffffffffffffffff811115614425576144246142d6565b5b6144318482850161438e565b6020830152506040614445848285016143bc565b6040830152506060614459848285016143bc565b60608301525092915050565b6000614478614473846142db565b613539565b9050806020840283018581111561449257614491613580565b5b835b818110156144d957805167ffffffffffffffff8111156144b7576144b66134d4565b5b8086016144c489826143d1565b85526020850194505050602081019050614494565b5050509392505050565b600082601f8301126144f8576144f76134d4565b5b6002614505848285614465565b91505092915050565b600060608284031215614524576145236142d1565b5b61452e6060613539565b9050600082015167ffffffffffffffff81111561454e5761454d6142d6565b5b61455a848285016144e3565b600083015250602061456e848285016143bc565b6020830152506040614582848285016143bc565b60408301525092915050565b60006145a161459c846142a5565b613539565b905080838252602082019050602084028301858111156145c4576145c3613580565b5b835b8181101561460b57805167ffffffffffffffff8111156145e9576145e86134d4565b5b8086016145f6898261450e565b855260208501945050506020810190506145c6565b5050509392505050565b600082601f83011261462a576146296134d4565b5b815161463a84826020860161458e565b91505092915050565b60006020828403121561465957614658612ff2565b5b600082015167ffffffffffffffff81111561467757614676612ff7565b5b61468384828501614615565b91505092915050565b60006080820190506146a1600083018761420b565b6146ae602083018661420b565b6146bb604083018561420b565b6146c8606083018461425f565b95945050505050565b600080604083850312156146e8576146e7612ff2565b5b60006146f6858286016143bc565b9250506020614707858286016143bc565b9150509250929050565b6000606082019050614726600083018661420b565b614733602083018561425f565b614740604083018461425f565b949350505050565b7f4e487b7100000000000000000000000000000000000000000000000000000000600052603260045260246000fd5b61478081613585565b82525050565b600060408201905061479b600083018561420b565b6147a86020830184614777565b9392505050565b600067ffffffffffffffff8211156147ca576147c96134d9565b5b602082029050919050565b600060e082840312156147eb576147ea6142d1565b5b6147f560e0613539565b9050600061480584828501614301565b6000830152506020614819848285016143bc565b602083015250604061482d848285016143bc565b6040830152506060614841848285016143bc565b6060830152506080614855848285016143bc565b60808301525060a0614869848285016143bc565b60a08301525060c061487d848285016143bc565b60c08301525092915050565b600061489c614897846147af565b613539565b90508060e084028301858111156148b6576148b5613580565b5b835b818110156148df57806148cb88826147d5565b84526020840193505060e0810190506148b8565b5050509392505050565b600082601f8301126148fe576148fd6134d4565b5b600261490b848285614889565b91505092915050565b6000610240828403121561492b5761492a6142d1565b5b61493560a0613539565b90506000614945848285016148e9565b6000830152506101c061495a84828501614301565b6020830152506101e061496f84828501614301565b604083015250610200614984848285016143bc565b606083015250610220614999848285016143bc565b60808301525092915050565b600061024082840312156149bc576149bb612ff2565b5b60006149ca84828501614914565b91505092915050565b600067ffffffffffffffff8211156149ee576149ed6134d9565b5b602082029050602081019050919050565b600067ffffffffffffffff821115614a1a57614a196134d9565b5b602082029050919050565b60006101808284031215614a3c57614a3b6142d1565b5b614a47610180613539565b90506000614a5784828501614301565b600083015250602082015167ffffffffffffffff811115614a7b57614a7a6142d6565b5b614a878482850161438e565b6020830152506040614a9b848285016143bc565b6040830152506060614aaf848285016143bc565b6060830152506080614ac3848285016143bc565b60808301525060a0614ad7848285016143bc565b60a08301525060c0614aeb848285016143bc565b60c08301525060e0614aff848285016143bc565b60e083015250610100614b14848285016143bc565b61010083015250610120614b2a848285016143bc565b61012083015250610140614b40848285016143bc565b61014083015250610160614b56848285016143bc565b6101608301525092915050565b6000614b76614b71846149ff565b613539565b90508060208402830185811115614b9057614b8f613580565b5b835b81811015614bd757805167ffffffffffffffff811115614bb557614bb46134d4565b5b808601614bc28982614a25565b85526020850194505050602081019050614b92565b5050509392505050565b600082601f830112614bf657614bf56134d4565b5b6002614c03848285614b63565b91505092915050565b614c1581613e6a565b8114614c2057600080fd5b50565b600081519050614c3281614c0c565b92915050565b60006101a08284031215614c4f57614c4e6142d1565b5b614c5a6101a0613539565b9050600082015167ffffffffffffffff811115614c7a57614c796142d6565b5b614c8684828501614be1565b6000830152506020614c9a84828501614301565b6020830152506040614cae84828501614301565b6040830152506060614cc2848285016143bc565b6060830152506080614cd6848285016143bc565b60808301525060a0614cea848285016143bc565b60a08301525060c0614cfe848285016143bc565b60c08301525060e0614d1284828501614301565b60e083015250610100614d2784828501614c23565b61010083015250610120614d3d848285016143bc565b61012083015250610140614d53848285016143bc565b61014083015250610160614d69848285016143bc565b61016083015250610180614d7f848285016143bc565b6101808301525092915050565b6000614d9f614d9a846149d3565b613539565b90508083825260208201905060208402830185811115614dc257614dc1613580565b5b835b81811015614e0957805167ffffffffffffffff811115614de757614de66134d4565b5b808601614df48982614c38565b85526020850194505050602081019050614dc4565b5050509392505050565b600082601f830112614e2857614e276134d4565b5b8151614e38848260208601614d8c565b91505092915050565b600060208284031215614e5757614e56612ff2565b5b600082015167ffffffffffffffff811115614e7557614e74612ff7565b5b614e8184828501614e13565b91505092915050565b614e9381614096565b82525050565b600060a082019050614eae600083018861420b565b614ebb602083018761420b565b614ec8604083018661420b565b614ed5606083018561425f565b614ee26080830184614e8a565b9695505050505050565b614ef58161397e565b8114614f0057600080fd5b50565b600081519050614f1281614eec565b92915050565b600080600060608486031215614f3157614f30612ff2565b5b6000614f3f868287016143bc565b9350506020614f50868287016143bc565b9250506040614f6186828701614f03565b9150509250925092565b600081519050919050565b600082825260208201905092915050565b6000819050602082019050919050565b614fa081613585565b82525050565b6000614fb28383614f97565b60208301905092915050565b6000602082019050919050565b6000614fd682614f6b565b614fe08185614f76565b9350614feb83614f87565b8060005b8381101561501c5781516150038882614fa6565b975061500e83614fbe565b925050600181019050614fef565b5085935050505092915050565b600060408201905061503e600083018561420b565b81810360208301526150508184614fcb565b90509392505050565b600060a08201905061506e600083018861420b565b61507b602083018761420b565b615088604083018661420b565b615095606083018561425f565b6150a2608083018461425f565b9695505050505050565b6000602082840312156150c2576150c1612ff2565b5b60006150d0848285016143bc565b91505092915050565b600082825260208201905092915050565b7f504f4f4c5f4c4953540000000000000000000000000000000000000000000000600082015250565b60006151206009836150d9565b915061512b826150ea565b602082019050919050565b6000602082019050818103600083015261514f81615113565b9050919050565b61515f81613585565b82525050565b600060208201905061517a6000830184615156565b92915050565b7f544f4b454e5f4241534500000000000000000000000000000000000000000000600082015250565b60006151b6600a836150d9565b91506151c182615180565b602082019050919050565b600060208201905081810360008301526151e5816151a9565b9050919050565b60006020828403121561520257615201612ff2565b5b600061521084828501614301565b91505092915050565b7f44454641554c545f504f4f4c5f434f4e46494755524154494f4e000000000000600082015250565b600061524f601a836150d9565b915061525a82615219565b602082019050919050565b6000602082019050818103600083015261527e81615242565b9050919050565b7f4d415247494e5f4c4556454c4c5f5448524553484f4c44000000000000000000600082015250565b60006152bb6017836150d9565b91506152c682615285565b602082019050919050565b600060208201905081810360008301526152ea816152ae565b9050919050565b7f5452454153555259000000000000000000000000000000000000000000000000600082015250565b60006153276008836150d9565b9150615332826152f1565b602082019050919050565b600060208201905081810360008301526153568161531a565b9050919050565b7f44454641554c545f494e5445524553545f524154455f53545241544547590000600082015250565b6000615393601e836150d9565b915061539e8261535d565b602082019050919050565b600060208201905081810360008301526153c281615386565b9050919050565b600067ffffffffffffffff8211156153e4576153e36134d9565b5b602082029050919050565b60006101008284031215615406576154056142d1565b5b615411610100613539565b9050600061542184828501614301565b6000830152506020615435848285016143bc565b6020830152506040615449848285016143bc565b604083015250606061545d848285016143bc565b6060830152506080615471848285016143bc565b60808301525060a0615485848285016143bc565b60a08301525060c0615499848285016143bc565b60c08301525060e06154ad848285016143bc565b60e08301525092915050565b60006154cc6154c7846153c9565b613539565b90508061010084028301858111156154e7576154e6613580565b5b835b8181101561551157806154fc88826153ef565b845260208401935050610100810190506154e9565b5050509392505050565b600082601f8301126155305761552f6134d4565b5b600261553d8482856154b9565b91505092915050565b6000610240828403121561555d5761555c6142d1565b5b6155676060613539565b905060006155778482850161551b565b60008301525061020061558c848285016143bc565b6020830152506102206155a184828501614301565b60408301525092915050565b600061024082840312156155c4576155c3612ff2565b5b60006155d284828501615546565b91505092915050565b6000602082840312156155f1576155f0612ff2565b5b600082015167ffffffffffffffff81111561560f5761560e612ff7565b5b61561b8482850161438e565b91505092915050565b7f4143434f554e545f504f534954494f4e5f4c4953540000000000000000000000600082015250565b600061565a6015836150d9565b915061566582615624565b602082019050919050565b600060208201905081810360008301526156898161564d565b9050919050565b60006040820190506156a56000830185615156565b6156b2602083018461338c565b9392505050565b60006060820190506156ce6000830186615156565b6156db6020830185613449565b6156e86040830184613449565b949350505050565b6000815190506156ff8161358f565b92915050565b600061571861571384613554565b613539565b9050808382526020820190506020840283018581111561573b5761573a613580565b5b835b81811015615764578061575088826156f0565b84526020840193505060208101905061573d565b5050509392505050565b600082601f830112615783576157826134d4565b5b8151615793848260208601615705565b91505092915050565b6000602082840312156157b2576157b1612ff2565b5b600082015167ffffffffffffffff8111156157d0576157cf612ff7565b5b6157dc8482850161576e565b91505092915050565b7f504f4f4c00000000000000000000000000000000000000000000000000000000600082015250565b600061581b6004836150d9565b9150615826826157e5565b602082019050919050565b6000602082019050818103600083015261584a8161580e565b9050919050565b60006060820190506158666000830186615156565b615873602083018561338c565b615880604083018461338c565b949350505050565b600081905092915050565b61589c8161301c565b82525050565b6158ab81613172565b82525050565b60e0820160008201516158c76000850182615893565b5060208201516158da60208501826158a2565b5060408201516158ed60408501826158a2565b50606082015161590060608501826158a2565b50608082015161591360808501826158a2565b5060a082015161592660a08501826158a2565b5060c082015161593960c08501826158a2565b50505050565b600061594b83836158b1565b60e08301905092915050565b615960816136da565b61596a8184615888565b9250615975826136f0565b8060005b838110156159a657815161598d878261593f565b9650615998836137a0565b925050600181019050615979565b505050505050565b610240820160008201516159c56000850182615957565b5060208201516159d96101c0850182615893565b5060408201516159ed6101e0850182615893565b506060820151615a016102008501826158a2565b506080820151615a156102208501826158a2565b50505050565b600061026082019050615a31600083018561420b565b615a3e60208301846159ae565b9392505050565b7f4e487b7100000000000000000000000000000000000000000000000000000000600052601160045260246000fd5b60008160011c9050919050565b6000808291508390505b6001851115615acb57808604811115615aa757615aa6615a45565b5b6001851615615ab65780820291505b8081029050615ac485615a74565b9450615a8b565b94509492505050565b600082615ae45760019050615ba0565b81615af25760009050615ba0565b8160018114615b085760028114615b1257615b41565b6001915050615ba0565b60ff841115615b2457615b23615a45565b5b8360020a915084821115615b3b57615b3a615a45565b5b50615ba0565b5060208310610133831016604e8410600b8410161715615b765782820a905083811115615b7157615b70615a45565b5b615ba0565b615b838484846001615a81565b92509050818404811115615b9a57615b99615a45565b5b81810290505b9392505050565b6000615bb282613172565b9150615bbd83613172565b9250615bea7fffffffffffffffffffffffffffffffffffffffffffffffffffffffffffffffff8484615ad4565b905092915050565b6000615bfd82613172565b9150615c0883613172565b9250828203905081811115615c2057615c1f615a45565b5b92915050565b6000615c318261397e565b91507f80000000000000000000000000000000000000000000000000000000000000008203615c6357615c62615a45565b5b816000039050919050565b6000615c798261397e565b9150615c848361397e565b9250828203905081811260008412168282136000851215161715615cab57615caa615a45565b5b92915050565b6000615cbc82613172565b9150615cc783613172565b9250828201905080821115615cdf57615cde615a45565b5b92915050565b7f4e487b7100000000000000000000000000000000000000000000000000000000600052601260045260246000fd5b7f444542545f5341464554595f464143544f520000000000000000000000000000600082015250565b6000615d4a6012836150d9565b9150615d5582615d14565b602082019050919050565b60006020820190508181036000830152615d7981615d3d565b9050919050565b7f64732d6d6174682d7375622d756e646572666c6f770000000000000000000000600082015250565b6000615db66015836150d9565b9150615dc182615d80565b602082019050919050565b60006020820190508181036000830152615de581615da9565b9050919050565b6000615df782613172565b9150615e0283613172565b9250828202615e1081613172565b91508282048414831517615e2757615e26615a45565b5b509291505056fea2646970667358221220e51934de544cfa096e69bc03b9a30c31c8fd5bb0af6702dc3aaa31eff898415c64736f6c634300081c0033",
  "linkReferences": {
    "contracts/pool/PoolStoreUtils.sol": {
      "PoolStoreUtils": [
        {
          "length": 20,
          "start": 1742
        },
        {
          "length": 20,
          "start": 4598
        }
      ]
    },
    "contracts/position/PositionStoreUtils.sol": {
      "PositionStoreUtils": [
        {
          "length": 20,
          "start": 4370
        }
      ]
    },
    "contracts/reader/ReaderPoolUtils.sol": {
      "ReaderPoolUtils": [
        {
          "length": 20,
          "start": 1200
        },
        {
          "length": 20,
          "start": 1359
        },
        {
          "length": 20,
          "start": 1499
        },
        {
          "length": 20,
          "start": 2038
        },
        {
          "length": 20,
          "start": 2234
        },
        {
          "length": 20,
          "start": 2377
        },
        {
          "length": 20,
          "start": 2527
        },
        {
          "length": 20,
          "start": 2692
        },
        {
          "length": 20,
          "start": 2829
        }
      ]
    },
    "contracts/twap/TwapUtils.sol": {
      "TwapUtils": [
        {
          "length": 20,
          "start": 7192
        }
      ]
    }
  },
  "deployedLinkReferences": {
    "contracts/pool/PoolStoreUtils.sol": {
      "PoolStoreUtils": [
        {
          "length": 20,
          "start": 1711
        },
        {
          "length": 20,
          "start": 4567
        }
      ]
    },
    "contracts/position/PositionStoreUtils.sol": {
      "PositionStoreUtils": [
        {
          "length": 20,
          "start": 4339
        }
      ]
    },
    "contracts/reader/ReaderPoolUtils.sol": {
      "ReaderPoolUtils": [
        {
          "length": 20,
          "start": 1169
        },
        {
          "length": 20,
          "start": 1328
        },
        {
          "length": 20,
          "start": 1468
        },
        {
          "length": 20,
          "start": 2007
        },
        {
          "length": 20,
          "start": 2203
        },
        {
          "length": 20,
          "start": 2346
        },
        {
          "length": 20,
          "start": 2496
        },
        {
          "length": 20,
          "start": 2661
        },
        {
          "length": 20,
          "start": 2798
        }
      ]
    },
    "contracts/twap/TwapUtils.sol": {
      "TwapUtils": [
        {
          "length": 20,
          "start": 7161
        }
      ]
    }
  }
}