{
  "_format": "hh-sol-artifact-1",
  "contractName": "Reader",
  "sourceName": "contracts/reader/Reader.sol",
  "abi": [
    {
      "inputs": [
        {
          "internalType": "bytes32",
          "name": "key",
          "type": "bytes32"
        }
      ],
      "name": "EmptyPool",
      "type": "error"
    },
    {
      "inputs": [],
      "name": "MathOverflowedMulDiv",
      "type": "error"
    },
    {
      "inputs": [
        {
          "internalType": "address",
          "name": "dataStore",
          "type": "address"
        },
        {
          "internalType": "address",
          "name": "token0",
          "type": "address"
        },
        {
          "internalType": "address",
          "name": "token1",
          "type": "address"
        },
        {
          "internalType": "uint256",
          "name": "amountIn",
          "type": "uint256"
        },
        {
          "internalType": "uint8",
          "name": "tokenInIndex",
          "type": "uint8"
        }
      ],
      "name": "calcAmountOut",
      "outputs": [
        {
          "internalType": "uint256",
          "name": "",
          "type": "uint256"
        }
      ],
      "stateMutability": "nonpayable",
      "type": "function"
    },
    {
      "inputs": [
        {
          "internalType": "address",
          "name": "dataStore",
          "type": "address"
        }
      ],
      "name": "getDefaultInterestRateStrategy",
      "outputs": [
        {
          "internalType": "address",
          "name": "",
          "type": "address"
        }
      ],
      "stateMutability": "view",
      "type": "function"
    },
    {
      "inputs": [
        {
          "internalType": "address",
          "name": "dataStore",
          "type": "address"
        }
      ],
      "name": "getDefaultPoolConfiguration",
      "outputs": [
        {
          "internalType": "uint256",
          "name": "",
          "type": "uint256"
        }
      ],
      "stateMutability": "view",
      "type": "function"
    },
    {
      "inputs": [
        {
          "internalType": "address",
          "name": "dataStore",
          "type": "address"
        }
      ],
      "name": "getPools",
      "outputs": [
        {
          "components": [
            {
              "components": [
                {
                  "internalType": "address",
                  "name": "token",
                  "type": "address"
                },
                {
                  "internalType": "string",
                  "name": "symbol",
                  "type": "string"
                },
                {
                  "internalType": "uint256",
                  "name": "decimals",
                  "type": "uint256"
                },
                {
                  "internalType": "uint256",
                  "name": "borrowIndex",
                  "type": "uint256"
                },
                {
                  "internalType": "uint256",
                  "name": "borrowApy",
                  "type": "uint256"
                },
                {
                  "internalType": "uint256",
                  "name": "totalCollateral",
                  "type": "uint256"
                },
                {
                  "internalType": "uint256",
                  "name": "totalCollateralWithDebt",
                  "type": "uint256"
                },
                {
                  "internalType": "uint256",
                  "name": "totalDebtScaled",
                  "type": "uint256"
                },
                {
                  "internalType": "uint256",
                  "name": "poolBalance",
                  "type": "uint256"
                },
                {
                  "internalType": "uint256",
                  "name": "priceLiquidity",
                  "type": "uint256"
                },
                {
                  "internalType": "uint256",
                  "name": "avaiableLiquidity",
                  "type": "uint256"
                },
                {
                  "internalType": "uint256",
                  "name": "loan",
                  "type": "uint256"
                }
              ],
              "internalType": "struct ReaderPoolUtils.Asset[2]",
              "name": "assets",
              "type": "tuple[2]"
            },
            {
              "internalType": "address",
              "name": "bank",
              "type": "address"
            },
            {
              "internalType": "address",
              "name": "interestRateStrategy",
              "type": "address"
            },
            {
              "internalType": "uint256",
              "name": "configuration",
              "type": "uint256"
            },
            {
              "internalType": "uint256",
              "name": "lastUpdateTimestamp",
              "type": "uint256"
            },
            {
              "internalType": "uint256",
              "name": "priceDecimals",
              "type": "uint256"
            },
            {
              "internalType": "uint256",
              "name": "price",
              "type": "uint256"
            },
            {
              "internalType": "address",
              "name": "source",
              "type": "address"
            }
          ],
          "internalType": "struct ReaderPoolUtils.GetPool[]",
          "name": "",
          "type": "tuple[]"
        }
      ],
      "stateMutability": "view",
      "type": "function"
    },
    {
      "inputs": [
        {
          "internalType": "address",
          "name": "dataStore",
          "type": "address"
        },
        {
          "internalType": "uint256",
          "name": "start",
          "type": "uint256"
        },
        {
          "internalType": "uint256",
          "name": "end",
          "type": "uint256"
        }
      ],
      "name": "getPools",
      "outputs": [
        {
          "components": [
            {
              "components": [
                {
                  "internalType": "address",
                  "name": "token",
                  "type": "address"
                },
                {
                  "internalType": "string",
                  "name": "symbol",
                  "type": "string"
                },
                {
                  "internalType": "uint256",
                  "name": "decimals",
                  "type": "uint256"
                },
                {
                  "internalType": "uint256",
                  "name": "borrowIndex",
                  "type": "uint256"
                },
                {
                  "internalType": "uint256",
                  "name": "borrowApy",
                  "type": "uint256"
                },
                {
                  "internalType": "uint256",
                  "name": "totalCollateral",
                  "type": "uint256"
                },
                {
                  "internalType": "uint256",
                  "name": "totalCollateralWithDebt",
                  "type": "uint256"
                },
                {
                  "internalType": "uint256",
                  "name": "totalDebtScaled",
                  "type": "uint256"
                },
                {
                  "internalType": "uint256",
                  "name": "poolBalance",
                  "type": "uint256"
                },
                {
                  "internalType": "uint256",
                  "name": "priceLiquidity",
                  "type": "uint256"
                },
                {
                  "internalType": "uint256",
                  "name": "avaiableLiquidity",
                  "type": "uint256"
                },
                {
                  "internalType": "uint256",
                  "name": "loan",
                  "type": "uint256"
                }
              ],
              "internalType": "struct ReaderPoolUtils.Asset[2]",
              "name": "assets",
              "type": "tuple[2]"
            },
            {
              "internalType": "address",
              "name": "bank",
              "type": "address"
            },
            {
              "internalType": "address",
              "name": "interestRateStrategy",
              "type": "address"
            },
            {
              "internalType": "uint256",
              "name": "configuration",
              "type": "uint256"
            },
            {
              "internalType": "uint256",
              "name": "lastUpdateTimestamp",
              "type": "uint256"
            },
            {
              "internalType": "uint256",
              "name": "priceDecimals",
              "type": "uint256"
            },
            {
              "internalType": "uint256",
              "name": "price",
              "type": "uint256"
            },
            {
              "internalType": "address",
              "name": "source",
              "type": "address"
            }
          ],
          "internalType": "struct ReaderPoolUtils.GetPool[]",
          "name": "",
          "type": "tuple[]"
        }
      ],
      "stateMutability": "view",
      "type": "function"
    },
    {
      "inputs": [
        {
          "internalType": "address",
          "name": "dataStore",
          "type": "address"
        }
      ],
      "name": "getPoolsCount",
      "outputs": [
        {
          "internalType": "uint256",
          "name": "",
          "type": "uint256"
        }
      ],
      "stateMutability": "view",
      "type": "function"
    },
    {
      "inputs": [
        {
          "internalType": "address",
          "name": "dataStore",
          "type": "address"
        },
        {
          "internalType": "address",
          "name": "account",
          "type": "address"
        }
      ],
      "name": "getPositions",
      "outputs": [
        {
          "components": [
            {
              "components": [
                {
                  "internalType": "address",
                  "name": "token",
                  "type": "address"
                },
                {
                  "internalType": "string",
                  "name": "symbol",
                  "type": "string"
                },
                {
                  "internalType": "uint256",
                  "name": "decimals",
                  "type": "uint256"
                },
                {
                  "internalType": "uint256",
                  "name": "balance",
                  "type": "uint256"
                },
                {
                  "internalType": "uint256",
                  "name": "debt",
                  "type": "uint256"
                },
                {
                  "internalType": "int256",
                  "name": "netWorth",
                  "type": "int256"
                },
                {
                  "internalType": "uint256",
                  "name": "maxRedeemAmount",
                  "type": "uint256"
                },
                {
                  "internalType": "uint256",
                  "name": "borrowApy",
                  "type": "uint256"
                }
              ],
              "internalType": "struct ReaderPositionUtils.Asset[2]",
              "name": "assets",
              "type": "tuple[2]"
            },
            {
              "internalType": "uint256",
              "name": "id",
              "type": "uint256"
            },
            {
              "internalType": "address",
              "name": "account",
              "type": "address"
            },
            {
              "internalType": "uint256",
              "name": "marginLevel",
              "type": "uint256"
            },
            {
              "internalType": "int256",
              "name": "equity",
              "type": "int256"
            },
            {
              "internalType": "int256",
              "name": "equityValue",
              "type": "int256"
            },
            {
              "internalType": "uint256",
              "name": "entryPrice",
              "type": "uint256"
            },
            {
              "internalType": "uint256",
              "name": "IndexPrice",
              "type": "uint256"
            },
            {
              "internalType": "int256",
              "name": "pnl",
              "type": "int256"
            },
            {
              "internalType": "uint256",
              "name": "liquidationPrice",
              "type": "uint256"
            },
            {
              "internalType": "uint256",
              "name": "toLiquidationPrice",
              "type": "uint256"
            }
          ],
          "internalType": "struct ReaderPositionUtils.GetPosition[]",
          "name": "",
          "type": "tuple[]"
        }
      ],
      "stateMutability": "view",
      "type": "function"
    },
    {
      "inputs": [
        {
          "internalType": "address",
          "name": "dataStore",
          "type": "address"
        }
      ],
      "name": "getTokenBase",
      "outputs": [
        {
          "internalType": "address",
          "name": "",
          "type": "address"
        }
      ],
      "stateMutability": "view",
      "type": "function"
    },
    {
      "inputs": [
        {
          "internalType": "address",
          "name": "dataStore",
          "type": "address"
        }
      ],
      "name": "getTreasury",
      "outputs": [
        {
          "internalType": "address",
          "name": "",
          "type": "address"
        }
      ],
      "stateMutability": "view",
      "type": "function"
    }
  ],
  "bytecode": "0x6080604052348015600f57600080fd5b506151f38061001f6000396000f3fe608060405234801561001057600080fd5b50600436106100935760003560e01c8063739118a411610066578063739118a41461015857806378f212d1146101885780638f6c7a3c146101b8578063d28b0a15146101e8578063e335adb71461021857610093565b806328a0ccf41461009857806350ed592d146100c85780635a6f5710146100f85780635c39f46714610128575b600080fd5b6100b260048036038101906100ad91906136c3565b610248565b6040516100bf91906136ff565b60405180910390f35b6100e260048036038101906100dd91906136c3565b61025a565b6040516100ef9190613733565b60405180910390f35b610112600480360381019061010d91906136c3565b61026c565b60405161011f9190613733565b60405180910390f35b610142600480360381019061013d91906136c3565b61027e565b60405161014f9190613b28565b60405180910390f35b610172600480360381019061016d9190613b4a565b6102a1565b60405161017f9190613eba565b60405180910390f35b6101a2600480360381019061019d91906136c3565b6102c7565b6040516101af91906136ff565b60405180910390f35b6101d260048036038101906101cd9190613f08565b6102d9565b6040516101df9190613b28565b60405180910390f35b61020260048036038101906101fd9190613f94565b6102ef565b60405161020f9190613733565b60405180910390f35b610232600480360381019061022d91906136c3565b610309565b60405161023f91906136ff565b60405180910390f35b60006102538261031b565b9050919050565b6000610265826103c2565b9050919050565b600061027782610469565b9050919050565b6060600061028b83610469565b905061029983600083610510565b915050919050565b606060006102af84846105ee565b90506102be848460008461067a565b91505092915050565b60006102d28261075a565b9050919050565b60606102e6848484610510565b90509392505050565b60006102fe8686868686610801565b905095945050505050565b6000610314826108e8565b9050919050565b60008173ffffffffffffffffffffffffffffffffffffffff166321f8a7216040516020016103489061406c565b604051602081830303815290604052805190602001206040518263ffffffff1660e01b815260040161037a91906140a5565b602060405180830381865afa158015610397573d6000803e3d6000fd5b505050506040513d601f19601f820116820180604052508101906103bb91906140d5565b9050919050565b60008173ffffffffffffffffffffffffffffffffffffffff1663bd02d0f56040516020016103ef9061414e565b604051602081830303815290604052805190602001206040518263ffffffff1660e01b815260040161042191906140a5565b602060405180830381865afa15801561043e573d6000803e3d6000fd5b505050506040513d601f19601f820116820180604052508101906104629190614183565b9050919050565b60008173ffffffffffffffffffffffffffffffffffffffff1663f3903b9f604051602001610496906141fc565b604051602081830303815290604052805190602001206040518263ffffffff1660e01b81526004016104c891906140a5565b602060405180830381865afa1580156104e5573d6000803e3d6000fd5b505050506040513d601f19601f820116820180604052508101906105099190614183565b9050919050565b6060600061051f85858561098f565b90506000815167ffffffffffffffff81111561053e5761053d61421c565b5b60405190808252806020026020018201604052801561057757816020015b610564613096565b81526020019060019003908161055c5790505b50905060005b82518110156105e157600083828151811061059b5761059a61424b565b5b6020026020010151905060006105b18983610a41565b9050808484815181106105c7576105c661424b565b5b60200260200101819052505050808060010191505061057d565b5080925050509392505050565b60008273ffffffffffffffffffffffffffffffffffffffff1663f3903b9f61061584611205565b6040518263ffffffff1660e01b815260040161063191906140a5565b602060405180830381865afa15801561064e573d6000803e3d6000fd5b505050506040513d601f19601f820116820180604052508101906106729190614183565b905092915050565b6060600061068a8686868661125b565b90506000815167ffffffffffffffff8111156106a9576106a861421c565b5b6040519080825280602002602001820160405280156106e257816020015b6106cf613123565b8152602001906001900390816106c75790505b50905060005b825181101561074c5760008382815181106107065761070561424b565b5b60200260200101519050600061071c8a836112f2565b9050808484815181106107325761073161424b565b5b6020026020010181905250505080806001019150506106e8565b508092505050949350505050565b60008173ffffffffffffffffffffffffffffffffffffffff166321f8a721604051602001610787906142c6565b604051602081830303815290604052805190602001206040518263ffffffff1660e01b81526004016107b991906140a5565b602060405180830381865afa1580156107d6573d6000803e3d6000fd5b505050506040513d601f19601f820116820180604052508101906107fa91906140d5565b9050919050565b60008061080e8686611c29565b9050600073__$e0022d6f389ac14ff1ce1dc57a4018d0a3$__637b82d74e89846040518363ffffffff1660e01b815260040161084b929190614304565b61024060405180830381865af4158015610869573d6000803e3d6000fd5b505050506040513d601f19601f8201168201806040525081019061088d919061457e565b905060008060ff168560ff16036108b6576108aa86836000611cc7565b905050809150506108d9565b600160ff168560ff16036108d8576108d086836000611df3565b905050809150505b5b80935050505095945050505050565b60008173ffffffffffffffffffffffffffffffffffffffff166321f8a721604051602001610915906145f8565b604051602081830303815290604052805190602001206040518263ffffffff1660e01b815260040161094791906140a5565b602060405180830381865afa158015610964573d6000803e3d6000fd5b505050506040513d601f19601f8201168201806040525081019061098891906140d5565b9050919050565b60608373ffffffffffffffffffffffffffffffffffffffff1663f069052a6040516020016109bc906141fc565b6040516020818303038152906040528051906020012085856040518463ffffffff1660e01b81526004016109f293929190614618565b600060405180830381865afa158015610a0f573d6000803e3d6000fd5b505050506040513d6000823e3d601f19601f82011682018060405250810190610a38919061473e565b90509392505050565b610a49613096565b610a51613199565b73__$e0022d6f389ac14ff1ce1dc57a4018d0a3$__637b82d74e85856040518363ffffffff1660e01b8152600401610a8a929190614304565b61024060405180830381865af4158015610aa8573d6000803e3d6000fd5b505050506040513d601f19601f82011682018060405250810190610acc919061457e565b8160000181905250610ae381600001516000611f0e565b836020018460400185606001838152508381525083815250505050610b5f816000015160000151600060ff1660028110610b2057610b1f61424b565b5b602002015160200151826000015160000151600060ff1660028110610b4857610b4761424b565b5b602002015160a00151611f9990919063ffffffff16565b816080018181525050610b7781600001516001611f0e565b8360a0018460c0018560e001838152508381525083815250505050610bf3816000015160000151600160ff1660028110610bb457610bb361424b565b5b602002015160200151826000015160000151600160ff1660028110610bdc57610bdb61424b565b5b602002015160a00151611f9990919063ffffffff16565b816101000181815250506040518061010001604052806040518060400160405280604051806101800160405280866000015160000151600060ff1660028110610c3f57610c3e61424b565b5b60200201516000015173ffffffffffffffffffffffffffffffffffffffff168152602001866000015160000151600060ff1660028110610c8257610c8161424b565b5b60200201516000015173ffffffffffffffffffffffffffffffffffffffff166395d89b416040518163ffffffff1660e01b8152600401600060405180830381865afa158015610cd5573d6000803e3d6000fd5b505050506040513d6000823e3d601f19601f82011682018060405250810190610cfe919061482d565b8152602001866000015160000151600060ff1660028110610d2257610d2161424b565b5b60200201516000015173ffffffffffffffffffffffffffffffffffffffff1663313ce5676040518163ffffffff1660e01b8152600401602060405180830381865afa158015610d75573d6000803e3d6000fd5b505050506040513d601f19601f82011682018060405250810190610d99919061488b565b60ff168152602001866000015160000151600060ff1660028110610dc057610dbf61424b565b5b6020020151602001518152602001866000015160000151600060ff1660028110610ded57610dec61424b565b5b6020020151604001518152602001866000015160000151600060ff1660028110610e1a57610e1961424b565b5b6020020151606001518152602001866000015160000151600060ff1660028110610e4757610e4661424b565b5b6020020151608001518152602001866000015160000151600060ff1660028110610e7457610e7361424b565b5b602002015160a00151815260200186602001518152602001866040015181526020018660600151815260200186608001518152508152602001604051806101800160405280866000015160000151600160ff1660028110610ed857610ed761424b565b5b60200201516000015173ffffffffffffffffffffffffffffffffffffffff168152602001866000015160000151600160ff1660028110610f1b57610f1a61424b565b5b60200201516000015173ffffffffffffffffffffffffffffffffffffffff166395d89b416040518163ffffffff1660e01b8152600401600060405180830381865afa158015610f6e573d6000803e3d6000fd5b505050506040513d6000823e3d601f19601f82011682018060405250810190610f97919061482d565b8152602001866000015160000151600160ff1660028110610fbb57610fba61424b565b5b60200201516000015173ffffffffffffffffffffffffffffffffffffffff1663313ce5676040518163ffffffff1660e01b8152600401602060405180830381865afa15801561100e573d6000803e3d6000fd5b505050506040513d601f19601f82011682018060405250810190611032919061488b565b60ff168152602001866000015160000151600160ff16600281106110595761105861424b565b5b6020020151602001518152602001866000015160000151600160ff16600281106110865761108561424b565b5b6020020151604001518152602001866000015160000151600160ff16600281106110b3576110b261424b565b5b6020020151606001518152602001866000015160000151600160ff16600281106110e0576110df61424b565b5b6020020151608001518152602001866000015160000151600160ff166002811061110d5761110c61424b565b5b602002015160a0015181526020018660a0015181526020018660c0015181526020018660e001518152602001866101000151815250815250815260200182600001516020015173ffffffffffffffffffffffffffffffffffffffff16815260200182600001516040015173ffffffffffffffffffffffffffffffffffffffff16815260200182600001516060015181526020018260000151608001518152602001601b60ff1681526020016111c58360000151611fe4565b81526020016111d486866120af565b73ffffffffffffffffffffffffffffffffffffffff1681525081610120018190525080610120015191505092915050565b600060405160200161121690614904565b604051602081830303815290604052805190602001208260405160200161123e929190614924565b604051602081830303815290604052805190602001209050919050565b60608473ffffffffffffffffffffffffffffffffffffffff1663f069052a61128286611205565b85856040518463ffffffff1660e01b81526004016112a293929190614618565b600060405180830381865afa1580156112bf573d6000803e3d6000fd5b505050506040513d6000823e3d601f19601f820116820180604052508101906112e8919061473e565b9050949350505050565b6112fa613123565b6113026131f8565b73__$3d31b232fb363902662fbc281b11ab3357$__637b82d74e85856040518363ffffffff1660e01b815260040161133b929190614304565b61024060405180830381865af4158015611359573d6000803e3d6000fd5b505050506040513d601f19601f8201168201806040525081019061137d9190614b31565b81600001819052506113dd816000015160000151600060ff16600281106113a7576113a661424b565b5b602002015160000151826000015160000151600160ff16600281106113cf576113ce61424b565b5b602002015160000151611c29565b81604001818152505073__$e0022d6f389ac14ff1ce1dc57a4018d0a3$__637b82d74e8583604001516040518363ffffffff1660e01b8152600401611423929190614304565b61024060405180830381865af4158015611441573d6000803e3d6000fd5b505050506040513d601f19601f82011682018060405250810190611465919061457e565b8160200181905250611480848260200151836000015161218d565b90915090505081606001818152505061149c8160200151611fe4565b816102c0018181525050806000015160000151600060ff16600281106114c5576114c461424b565b5b6020020151602001518160e0018181525050611538816020015160000151600060ff16600281106114f9576114f861424b565b5b602002015160200151826000015160000151600060ff16600281106115215761152061424b565b5b602002015160400151611f9990919063ffffffff16565b8160c0018181525050611554816020015160600151600061220e565b8160a001818152505061156f8160e001518260c00151612281565b8161010001818152505061158c8161010001518260a001516122b0565b816101200181815250506115ae8160e001518260c001518361012001516122dd565b816101400181815250506115d38482602001518360000151846102c001516000612300565b816101600181815250506115f0816020015160600151600161220e565b81610180018181525050806000015160000151600160ff16600281106116195761161861424b565b5b602002015160200151816101c001818152505061168d816020015160000151600160ff166002811061164e5761164d61424b565b5b602002015160200151826000015160000151600160ff16600281106116765761167561424b565b5b602002015160400151611f9990919063ffffffff16565b816101a00181815250506116ab816101c00151826101a00151612281565b816101e00181815250506116c9816101e001518261018001516122b0565b816102000181815250506116f0816102c00151826102000151611f9990919063ffffffff16565b81610220018181525050611714816101c00151826101a001518361022001516122dd565b816102400181815250506117398482602001518360000151846102c001516001612300565b8161026001818152505061175d816101c00151826101a00151836101e001516124c1565b81610280018181525050806102400151816102a001818152505061178481600001516124e4565b816080018181525050600260ff16816000015160000151600160ff16600281106117b1576117b061424b565b5b602002015160e00151146118d7576117d2816102c0015182608001516125a2565b816102e00181815250506117f9816102e00151826102000151611f9990919063ffffffff16565b816103000181815250508060800151816102c00151118161034001901515908115158152505061183f816103400151826101c00151836101a001518461030001516125d1565b81610320018181525050806103200151816103600181815250506118ae8461186f8360e001518460a001516125fe565b6118818460c001518560a001516125fe565b611895856101c001518661018001516125fe565b6118a9866101a001518761018001516125fe565b61262b565b816103800181815250506118cc816103800151826102c0015161271b565b816103a00181815250505b6040518061016001604052806040518060400160405280604051806101000160405280866000015160000151600060ff16600281106119195761191861424b565b5b60200201516000015173ffffffffffffffffffffffffffffffffffffffff168152602001866000015160000151600060ff166002811061195c5761195b61424b565b5b60200201516000015173ffffffffffffffffffffffffffffffffffffffff166395d89b416040518163ffffffff1660e01b8152600401600060405180830381865afa1580156119af573d6000803e3d6000fd5b505050506040513d6000823e3d601f19601f820116820180604052508101906119d8919061482d565b81526020018660a0015181526020018660e0015181526020018660c00151815260200186610140015181526020018661016001518152602001866020015160000151600060ff1660028110611a3057611a2f61424b565b5b6020020151604001518152508152602001604051806101000160405280866000015160000151600160ff1660028110611a6c57611a6b61424b565b5b60200201516000015173ffffffffffffffffffffffffffffffffffffffff168152602001866000015160000151600160ff1660028110611aaf57611aae61424b565b5b60200201516000015173ffffffffffffffffffffffffffffffffffffffff166395d89b416040518163ffffffff1660e01b8152600401600060405180830381865afa158015611b02573d6000803e3d6000fd5b505050506040513d6000823e3d601f19601f82011682018060405250810190611b2b919061482d565b81526020018661018001518152602001866101c001518152602001866101a00151815260200186610240015181526020018661026001518152602001866020015160000151600160ff1660028110611b8657611b8561424b565b5b6020020151604001518152508152508152602001826000015160200151815260200182600001516040015173ffffffffffffffffffffffffffffffffffffffff168152602001826060015181526020018261028001518152602001826102a00151815260200182608001518152602001826102c00151815260200182610360015181526020018261038001518152602001826103a0015181525091505092915050565b60008173ffffffffffffffffffffffffffffffffffffffff168373ffffffffffffffffffffffffffffffffffffffff1610611c65578183611c68565b82825b8093508194505050604051602001611c7f90614bab565b604051602081830303815290604052805190602001208383604051602001611ca993929190614bcb565b60405160208183030381529060405280519060200120905092915050565b6000806000611cd46132e8565b611cdf866000611f0e565b9050826000018360400182815250828152505050611cfe866001611f0e565b90508260200183606001828152508281525050508415611d32578681600001818151611d2a9190614c31565b915081815250505b611d3f8660600151612747565b81610120018181525050611d6f87612710611d6a84610120015161271061277890919063ffffffff16565b6127d1565b81610140018181525050611da781600001518260200151611da284610140015185600001516128d890919063ffffffff16565b6127d1565b816080018181525050611dcb8160800151826020015161277890919063ffffffff16565b8160c00181815250508060c00151816040015182606001519350935093505093509350939050565b6000806000611e006132e8565b611e0b866000611f0e565b9050826000018360400182815250828152505050611e2a866001611f0e565b905082602001836060018281525082815250505084611e5d578681602001818151611e559190614c31565b915081815250505b611e8681600001518260200151611e818a85602001516128d890919063ffffffff16565b6127d1565b816080018181525050611eaa8160800151826000015161277890919063ffffffff16565b8160a0018181525050611ec08660600151612747565b81610120018181525050611ef48160a00151612710611eef84610120015161271061277890919063ffffffff16565b6127d1565b816040015182606001519350935093505093509350939050565b60008060008085600001518560ff1660028110611f2e57611f2d61424b565b5b602002015190506000611f418787612931565b905060008103611f5d5760008060009450945094505050611f92565b6000611f6d838960800151612a1e565b90508082611f7b9190614c65565b828284611f889190614c31565b9550955095505050505b9250925092565b6000816b019d971e4fe8401e740000006000190304831115821517611fbd57600080fd5b6b033b2e3c9fd0803ce80000006b019d971e4fe8401e740000008385020104905092915050565b600080611ff2836000611f0e565b505090506000612003846001611f0e565b505090506000810361201a576000925050506120aa565b600061202b8560600151600061220e565b9050600061203e8660600151600161220e565b90506000612065856b033b2e3c9fd0803ce800000085600a6120609190614dcc565b6127d1565b9050600061208c856b033b2e3c9fd0803ce800000085600a6120879190614dcc565b6127d1565b90506120a18183612a6390919063ffffffff16565b96505050505050505b919050565b6000806120bc8484612aaa565b90508073ffffffffffffffffffffffffffffffffffffffff166321f8a721846040516020016120ea90614e63565b60405160208183030381529060405280519060200120604051602001612111929190614e83565b604051602081830303815290604052805190602001206040518263ffffffff1660e01b815260040161214391906140a5565b602060405180830381865afa158015612160573d6000803e3d6000fd5b505050506040513d601f19601f8201168201806040525081019061218491906140d5565b91505092915050565b600080600080600061219e87611fe4565b90506121ad8787836000612b9b565b8093508194505050600082116121e3577fffffffffffffffffffffffffffffffffffffffffffffffffffffffffffffffff6121f7565b6121f68284612a6390919063ffffffff16565b5b945061220288612dcc565b93505093509350935093565b6000807fffffffffffffffffffffffffffffffffffffffff00ffffffffffffffffffffff9050600060589050600160ff168460ff1603612270577fffffffffffffffffffffffffffffffffffffff00ffffffffffffffffffffffff9150606090505b8082198616901c9250505092915050565b600081831161229b5782826122969190614c31565b6122a8565b81836122a79190614c31565b5b905092915050565b60006122d5836b033b2e3c9fd0803ce800000084600a6122d09190614dcc565b6127d1565b905092915050565b60008284116122f557816122f090614eac565b6122f7565b815b90509392505050565b600061230a613342565b6123178686866000612b9b565b82600001836020018281525082815250505060008160000151148061235e5750600085600001518460ff16600281106123535761235261424b565b5b602002015160200151145b1561236d5760009150506124b8565b61237687612e73565b81604001818152505061239a81604001518260200151611f9990919063ffffffff16565b8160800181815250508060800151816000015110156123bd5760009150506124b8565b806080015181600001516123d19190614c31565b8160600181815250506123e886606001518461220e565b8160a001818152505061241c81606001518260a00151600a61240a9190614dcc565b6b033b2e3c9fd0803ce80000006127d1565b8160c0018181525050600160ff168360ff16036124545761244a848260c00151612a6390919063ffffffff16565b8160c00181815250505b84600001518360ff166002811061246e5761246d61424b565b5b6020020151602001518160c0015111156124af5784600001518360ff166002811061249c5761249b61424b565b5b6020020151602001518160c00181815250505b8060c001519150505b95945050505050565b60008284116124d957816124d490614eac565b6124db565b815b90509392505050565b6000600160ff168260000151600160ff16600281106125065761250561424b565b5b602002015160e001510361253f578160000151600160ff166002811061252f5761252e61424b565b5b602002015160600151905061259d565b600060ff168260000151600160ff166002811061255f5761255e61424b565b5b602002015160e0015103612598578160000151600160ff16600281106125885761258761424b565b5b602002015160800151905061259d565b600090505b919050565b60008183116125bc5782826125b79190614c31565b6125c9565b81836125c89190614c31565b5b905092915050565b60008480156125df57508284115b6125f257816125ed90614eac565b6125f4565b815b9050949350505050565b6000612623836b033b2e3c9fd0803ce800000084600a61261e9190614dcc565b6127d1565b905092915050565b60008061263787612dcc565b9050600061264e8683611f9990919063ffffffff16565b905060006126658584611f9990919063ffffffff16565b9050600088836126759190614ef4565b9050600082886126859190614ef4565b9050600061269283612f1a565b9050600061269f83612f1a565b90506000841380156126b15750600083125b806126c857506000841280156126c75750600083135b5b156126dd576000975050505050505050612712565b600081036126f5576000975050505050505050612712565b6127088183612a6390919063ffffffff16565b9750505050505050505b95945050505050565b600080831461273c576127378383612a6390919063ffffffff16565b61273f565b60005b905092915050565b600060387fffffffffffffffffffffffffffffffffffffffffffffff0000ffffffffffffff198316901c9050919050565b60008282846127879190614c31565b91508111156127cb576040517f08c379a00000000000000000000000000000000000000000000000000000000081526004016127c290614f83565b60405180910390fd5b92915050565b600080838502905060008019858709828110838203039150506000810361280c5783828161280257612801614fa3565b5b04925050506128d1565b808411612845576040517f227bc15300000000000000000000000000000000000000000000000000000000815260040160405180910390fd5b600084868809905082811182039150808303925060008560000386169050808604955080840493506001818260000304019050808302841793506000600287600302189050808702600203810290508087026002038102905080870260020381029050808702600203810290508087026002038102905080870260020381029050808502955050505050505b9392505050565b60008282846128e79190614c65565b915081101561292b576040517f08c379a00000000000000000000000000000000000000000000000000000000081526004016129229061501e565b60405180910390fd5b92915050565b60008083600001518360ff166002811061294e5761294d61424b565b5b602002015190506000846020015173ffffffffffffffffffffffffffffffffffffffff1663e42c08f283600001516040518263ffffffff1660e01b815260040161299891906136ff565b602060405180830381865afa1580156129b5573d6000803e3d6000fd5b505050506040513d601f19601f820116820180604052508101906129d99190614183565b9050600081036129ee57600092505050612a18565b6000826060015190508260c001518183612a089190614c31565b612a129190614c31565b93505050505b92915050565b6000808360a0015103612a345760009050612a5d565b6000612a408484612f36565b9050612a59818560a00151611f9990919063ffffffff16565b9150505b92915050565b60006b033b2e3c9fd0803ce80000006002830460001903048311151582151715612a8c57600080fd5b81600283046b033b2e3c9fd0803ce800000085020104905092915050565b6000808390508073ffffffffffffffffffffffffffffffffffffffff166391d4403c604051602001612adb906141fc565b60405160208183030381529060405280519060200120856040518363ffffffff1660e01b8152600401612b0f929190614e83565b602060405180830381865afa158015612b2c573d6000803e3d6000fd5b505050506040513d601f19601f82011682018060405250810190612b509190615076565b612b9157826040517f7357d91f000000000000000000000000000000000000000000000000000000008152600401612b8891906140a5565b60405180910390fd5b8091505092915050565b6000806000808660000151600060ff1660028110612bbc57612bbb61424b565b5b60200201516000015173ffffffffffffffffffffffffffffffffffffffff168573ffffffffffffffffffffffffffffffffffffffff1614612c9657600080612c068a8a6000612f85565b915091506000612c2460008c6060015161220e90919063ffffffff16565b90506000612c4b846b033b2e3c9fd0803ce800000084600a612c469190614dcc565b6127d1565b90506000612c72846b033b2e3c9fd0803ce800000085600a612c6d9190614dcc565b6127d1565b90508187612c809190614c65565b96508086612c8e9190614c65565b955050505050505b8660000151600160ff1660028110612cb157612cb061424b565b5b60200201516000015173ffffffffffffffffffffffffffffffffffffffff168573ffffffffffffffffffffffffffffffffffffffff1614612dbb57600080612cfb8a8a6001612f85565b915091506000612d1960018c6060015161220e90919063ffffffff16565b90506000612d40846b033b2e3c9fd0803ce800000084600a612d3b9190614dcc565b6127d1565b90506000612d67846b033b2e3c9fd0803ce800000085600a612d629190614dcc565b6127d1565b90506000612d7e8c84611f9990919063ffffffff16565b90506000612d958d84611f9990919063ffffffff16565b90508189612da39190614c65565b98508088612db19190614c65565b9750505050505050505b819350809250505094509492505050565b60008173ffffffffffffffffffffffffffffffffffffffff1663bd02d0f5604051602001612df9906150ef565b604051602081830303815290604052805190602001206040518263ffffffff1660e01b8152600401612e2b91906140a5565b602060405180830381865afa158015612e48573d6000803e3d6000fd5b505050506040513d601f19601f82011682018060405250810190612e6c9190614183565b9050919050565b60008173ffffffffffffffffffffffffffffffffffffffff1663bd02d0f5604051602001612ea09061515b565b604051602081830303815290604052805190602001206040518263ffffffff1660e01b8152600401612ed291906140a5565b602060405180830381865afa158015612eef573d6000803e3d6000fd5b505050506040513d601f19601f82011682018060405250810190612f139190614183565b9050919050565b600080821215612f2d5781600003612f2f565b815b9050919050565b6000612f40613033565b8203612f525782602001519050612f7f565b6000612f6284604001518461303b565b9050612f7b846020015182611f9990919063ffffffff16565b9150505b92915050565b600080600084600001518460ff1660028110612fa457612fa361424b565b5b60200201516040015190506000612fdd87600001518660ff1660028110612fce57612fcd61424b565b5b60200201518860800151612f36565b905060008214612fff57612ffa8183611f9990919063ffffffff16565b613002565b60005b925085600001518560ff166002811061301e5761301d61424b565b5b60200201516020015193505050935093915050565b600042905090565b60008082613047613033565b6130519190614c31565b8461305c919061517b565b90506301e13380818161307257613071614fa3565b5b049050806b033b2e3c9fd0803ce800000061308d9190614c65565b91505092915050565b6040518061010001604052806130aa61337f565b8152602001600073ffffffffffffffffffffffffffffffffffffffff168152602001600073ffffffffffffffffffffffffffffffffffffffff16815260200160008152602001600081526020016000815260200160008152602001600073ffffffffffffffffffffffffffffffffffffffff1681525090565b6040518061016001604052806131376133ac565b815260200160008152602001600073ffffffffffffffffffffffffffffffffffffffff16815260200160008152602001600081526020016000815260200160008152602001600081526020016000815260200160008152602001600081525090565b6040518061014001604052806131ad6133d9565b815260200160008152602001600081526020016000815260200160008152602001600081526020016000815260200160008152602001600081526020016131f2613096565b81525090565b604051806103c0016040528061320c61343a565b81526020016132196133d9565b81526020016000801916815260200160008152602001600081526020016000815260200160008152602001600081526020016000815260200160008152602001600081526020016000815260200160008152602001600081526020016000815260200160008152602001600081526020016000815260200160008152602001600081526020016000815260200160008152602001600081526020016000815260200160008152602001600081526020016000151581526020016000815260200160008152602001600081525090565b60405180610160016040528060008152602001600081526020016000815260200160008152602001600081526020016000815260200160008152602001600081526020016000815260200160008152602001600081525090565b6040518060e00160405280600081526020016000815260200160008152602001600081526020016000815260200160008152602001600081525090565b60405180604001604052806002905b613396613477565b81526020019060019003908161338e5790505090565b60405180604001604052806002905b6133c36134ee565b8152602001906001900390816133bb5790505090565b6040518060a001604052806133ec613549565b8152602001600073ffffffffffffffffffffffffffffffffffffffff168152602001600073ffffffffffffffffffffffffffffffffffffffff16815260200160008152602001600081525090565b604051806060016040528061344d613576565b815260200160008152602001600073ffffffffffffffffffffffffffffffffffffffff1681525090565b604051806101800160405280600073ffffffffffffffffffffffffffffffffffffffff16815260200160608152602001600081526020016000815260200160008152602001600081526020016000815260200160008152602001600081526020016000815260200160008152602001600081525090565b604051806101000160405280600073ffffffffffffffffffffffffffffffffffffffff168152602001606081526020016000815260200160008152602001600081526020016000815260200160008152602001600081525090565b60405180604001604052806002905b6135606135a3565b8152602001906001900390816135585790505090565b60405180604001604052806002905b61358d6135f6565b8152602001906001900390816135855790505090565b6040518060e00160405280600073ffffffffffffffffffffffffffffffffffffffff1681526020016000815260200160008152602001600081526020016000815260200160008152602001600081525090565b604051806101000160405280600073ffffffffffffffffffffffffffffffffffffffff168152602001600081526020016000815260200160008152602001600081526020016000815260200160008152602001600081525090565b6000604051905090565b600080fd5b600080fd5b600073ffffffffffffffffffffffffffffffffffffffff82169050919050565b600061369082613665565b9050919050565b6136a081613685565b81146136ab57600080fd5b50565b6000813590506136bd81613697565b92915050565b6000602082840312156136d9576136d861365b565b5b60006136e7848285016136ae565b91505092915050565b6136f981613685565b82525050565b600060208201905061371460008301846136f0565b92915050565b6000819050919050565b61372d8161371a565b82525050565b60006020820190506137486000830184613724565b92915050565b600081519050919050565b600082825260208201905092915050565b6000819050602082019050919050565b600060029050919050565b600081905092915050565b6000819050919050565b6137a381613685565b82525050565b600081519050919050565b600082825260208201905092915050565b60005b838110156137e35780820151818401526020810190506137c8565b60008484015250505050565b6000601f19601f8301169050919050565b600061380b826137a9565b61381581856137b4565b93506138258185602086016137c5565b61382e816137ef565b840191505092915050565b6138428161371a565b82525050565b600061018083016000830151613861600086018261379a565b50602083015184820360208601526138798282613800565b915050604083015161388e6040860182613839565b5060608301516138a16060860182613839565b5060808301516138b46080860182613839565b5060a08301516138c760a0860182613839565b5060c08301516138da60c0860182613839565b5060e08301516138ed60e0860182613839565b50610100830151613902610100860182613839565b50610120830151613917610120860182613839565b5061014083015161392c610140860182613839565b50610160830151613941610160860182613839565b508091505092915050565b60006139588383613848565b905092915050565b6000602082019050919050565b60006139788261377a565b6139828185613785565b93508360208202850161399485613790565b8060005b858110156139d057848403895281516139b1858261394c565b94506139bc83613960565b925060208a01995050600181019050613998565b50829750879550505050505092915050565b6000610100830160008301518482036000860152613a00828261396d565b9150506020830151613a15602086018261379a565b506040830151613a28604086018261379a565b506060830151613a3b6060860182613839565b506080830151613a4e6080860182613839565b5060a0830151613a6160a0860182613839565b5060c0830151613a7460c0860182613839565b5060e0830151613a8760e086018261379a565b508091505092915050565b6000613a9e83836139e2565b905092915050565b6000602082019050919050565b6000613abe8261374e565b613ac88185613759565b935083602082028501613ada8561376a565b8060005b85811015613b165784840389528151613af78582613a92565b9450613b0283613aa6565b925060208a01995050600181019050613ade565b50829750879550505050505092915050565b60006020820190508181036000830152613b428184613ab3565b905092915050565b60008060408385031215613b6157613b6061365b565b5b6000613b6f858286016136ae565b9250506020613b80858286016136ae565b9150509250929050565b600081519050919050565b600082825260208201905092915050565b6000819050602082019050919050565b600060029050919050565b600081905092915050565b6000819050919050565b6000819050919050565b613be981613bd6565b82525050565b600061010083016000830151613c08600086018261379a565b5060208301518482036020860152613c208282613800565b9150506040830151613c356040860182613839565b506060830151613c486060860182613839565b506080830151613c5b6080860182613839565b5060a0830151613c6e60a0860182613be0565b5060c0830151613c8160c0860182613839565b5060e0830151613c9460e0860182613839565b508091505092915050565b6000613cab8383613bef565b905092915050565b6000602082019050919050565b6000613ccb82613bb6565b613cd58185613bc1565b935083602082028501613ce785613bcc565b8060005b85811015613d235784840389528151613d048582613c9f565b9450613d0f83613cb3565b925060208a01995050600181019050613ceb565b50829750879550505050505092915050565b6000610160830160008301518482036000860152613d538282613cc0565b9150506020830151613d686020860182613839565b506040830151613d7b604086018261379a565b506060830151613d8e6060860182613839565b506080830151613da16080860182613be0565b5060a0830151613db460a0860182613be0565b5060c0830151613dc760c0860182613839565b5060e0830151613dda60e0860182613839565b50610100830151613def610100860182613be0565b50610120830151613e04610120860182613839565b50610140830151613e19610140860182613839565b508091505092915050565b6000613e308383613d35565b905092915050565b6000602082019050919050565b6000613e5082613b8a565b613e5a8185613b95565b935083602082028501613e6c85613ba6565b8060005b85811015613ea85784840389528151613e898582613e24565b9450613e9483613e38565b925060208a01995050600181019050613e70565b50829750879550505050505092915050565b60006020820190508181036000830152613ed48184613e45565b905092915050565b613ee58161371a565b8114613ef057600080fd5b50565b600081359050613f0281613edc565b92915050565b600080600060608486031215613f2157613f2061365b565b5b6000613f2f868287016136ae565b9350506020613f4086828701613ef3565b9250506040613f5186828701613ef3565b9150509250925092565b600060ff82169050919050565b613f7181613f5b565b8114613f7c57600080fd5b50565b600081359050613f8e81613f68565b92915050565b600080600080600060a08688031215613fb057613faf61365b565b5b6000613fbe888289016136ae565b9550506020613fcf888289016136ae565b9450506040613fe0888289016136ae565b9350506060613ff188828901613ef3565b925050608061400288828901613f7f565b9150509295509295909350565b600082825260208201905092915050565b7f544f4b454e5f4241534500000000000000000000000000000000000000000000600082015250565b6000614056600a8361400f565b915061406182614020565b602082019050919050565b6000602082019050818103600083015261408581614049565b9050919050565b6000819050919050565b61409f8161408c565b82525050565b60006020820190506140ba6000830184614096565b92915050565b6000815190506140cf81613697565b92915050565b6000602082840312156140eb576140ea61365b565b5b60006140f9848285016140c0565b91505092915050565b7f44454641554c545f504f4f4c5f434f4e46494755524154494f4e000000000000600082015250565b6000614138601a8361400f565b915061414382614102565b602082019050919050565b600060208201905081810360008301526141678161412b565b9050919050565b60008151905061417d81613edc565b92915050565b6000602082840312156141995761419861365b565b5b60006141a78482850161416e565b91505092915050565b7f504f4f4c5f4c4953540000000000000000000000000000000000000000000000600082015250565b60006141e660098361400f565b91506141f1826141b0565b602082019050919050565b60006020820190508181036000830152614215816141d9565b9050919050565b7f4e487b7100000000000000000000000000000000000000000000000000000000600052604160045260246000fd5b7f4e487b7100000000000000000000000000000000000000000000000000000000600052603260045260246000fd5b7f5452454153555259000000000000000000000000000000000000000000000000600082015250565b60006142b060088361400f565b91506142bb8261427a565b602082019050919050565b600060208201905081810360008301526142df816142a3565b9050919050565b6142ef81613685565b82525050565b6142fe8161408c565b82525050565b600060408201905061431960008301856142e6565b61432660208301846142f5565b9392505050565b600080fd5b61433b826137ef565b810181811067ffffffffffffffff8211171561435a5761435961421c565b5b80604052505050565b600061436d613651565b90506143798282614332565b919050565b600080fd5b600067ffffffffffffffff82111561439e5761439d61421c565b5b602082029050919050565b600080fd5b600060e082840312156143c4576143c361432d565b5b6143ce60e0614363565b905060006143de848285016140c0565b60008301525060206143f28482850161416e565b60208301525060406144068482850161416e565b604083015250606061441a8482850161416e565b606083015250608061442e8482850161416e565b60808301525060a06144428482850161416e565b60a08301525060c06144568482850161416e565b60c08301525092915050565b600061447561447084614383565b614363565b90508060e0840283018581111561448f5761448e6143a9565b5b835b818110156144b857806144a488826143ae565b84526020840193505060e081019050614491565b5050509392505050565b600082601f8301126144d7576144d661437e565b5b60026144e4848285614462565b91505092915050565b600061024082840312156145045761450361432d565b5b61450e60a0614363565b9050600061451e848285016144c2565b6000830152506101c0614533848285016140c0565b6020830152506101e0614548848285016140c0565b60408301525061020061455d8482850161416e565b6060830152506102206145728482850161416e565b60808301525092915050565b600061024082840312156145955761459461365b565b5b60006145a3848285016144ed565b91505092915050565b7f44454641554c545f494e5445524553545f524154455f53545241544547590000600082015250565b60006145e2601e8361400f565b91506145ed826145ac565b602082019050919050565b60006020820190508181036000830152614611816145d5565b9050919050565b600060608201905061462d6000830186614096565b61463a6020830185613724565b6146476040830184613724565b949350505050565b600067ffffffffffffffff82111561466a5761466961421c565b5b602082029050602081019050919050565b6146848161408c565b811461468f57600080fd5b50565b6000815190506146a18161467b565b92915050565b60006146ba6146b58461464f565b614363565b905080838252602082019050602084028301858111156146dd576146dc6143a9565b5b835b8181101561470657806146f28882614692565b8452602084019350506020810190506146df565b5050509392505050565b600082601f8301126147255761472461437e565b5b81516147358482602086016146a7565b91505092915050565b6000602082840312156147545761475361365b565b5b600082015167ffffffffffffffff81111561477257614771613660565b5b61477e84828501614710565b91505092915050565b600080fd5b600067ffffffffffffffff8211156147a7576147a661421c565b5b6147b0826137ef565b9050602081019050919050565b60006147d06147cb8461478c565b614363565b9050828152602081018484840111156147ec576147eb614787565b5b6147f78482856137c5565b509392505050565b600082601f8301126148145761481361437e565b5b81516148248482602086016147bd565b91505092915050565b6000602082840312156148435761484261365b565b5b600082015167ffffffffffffffff81111561486157614860613660565b5b61486d848285016147ff565b91505092915050565b60008151905061488581613f68565b92915050565b6000602082840312156148a1576148a061365b565b5b60006148af84828501614876565b91505092915050565b7f4143434f554e545f504f534954494f4e5f4c4953540000000000000000000000600082015250565b60006148ee60158361400f565b91506148f9826148b8565b602082019050919050565b6000602082019050818103600083015261491d816148e1565b9050919050565b60006040820190506149396000830185614096565b61494660208301846136f0565b9392505050565b600067ffffffffffffffff8211156149685761496761421c565b5b602082029050919050565b6000610100828403121561498a5761498961432d565b5b614995610100614363565b905060006149a5848285016140c0565b60008301525060206149b98482850161416e565b60208301525060406149cd8482850161416e565b60408301525060606149e18482850161416e565b60608301525060806149f58482850161416e565b60808301525060a0614a098482850161416e565b60a08301525060c0614a1d8482850161416e565b60c08301525060e0614a318482850161416e565b60e08301525092915050565b6000614a50614a4b8461494d565b614363565b9050806101008402830185811115614a6b57614a6a6143a9565b5b835b81811015614a955780614a808882614973565b84526020840193505061010081019050614a6d565b5050509392505050565b600082601f830112614ab457614ab361437e565b5b6002614ac1848285614a3d565b91505092915050565b60006102408284031215614ae157614ae061432d565b5b614aeb6060614363565b90506000614afb84828501614a9f565b600083015250610200614b108482850161416e565b602083015250610220614b25848285016140c0565b60408301525092915050565b60006102408284031215614b4857614b4761365b565b5b6000614b5684828501614aca565b91505092915050565b7f504f4f4c00000000000000000000000000000000000000000000000000000000600082015250565b6000614b9560048361400f565b9150614ba082614b5f565b602082019050919050565b60006020820190508181036000830152614bc481614b88565b9050919050565b6000606082019050614be06000830186614096565b614bed60208301856136f0565b614bfa60408301846136f0565b949350505050565b7f4e487b7100000000000000000000000000000000000000000000000000000000600052601160045260246000fd5b6000614c3c8261371a565b9150614c478361371a565b9250828203905081811115614c5f57614c5e614c02565b5b92915050565b6000614c708261371a565b9150614c7b8361371a565b9250828201905080821115614c9357614c92614c02565b5b92915050565b60008160011c9050919050565b6000808291508390505b6001851115614cf057808604811115614ccc57614ccb614c02565b5b6001851615614cdb5780820291505b8081029050614ce985614c99565b9450614cb0565b94509492505050565b600082614d095760019050614dc5565b81614d175760009050614dc5565b8160018114614d2d5760028114614d3757614d66565b6001915050614dc5565b60ff841115614d4957614d48614c02565b5b8360020a915084821115614d6057614d5f614c02565b5b50614dc5565b5060208310610133831016604e8410600b8410161715614d9b5782820a905083811115614d9657614d95614c02565b5b614dc5565b614da88484846001614ca6565b92509050818404811115614dbf57614dbe614c02565b5b81810290505b9392505050565b6000614dd78261371a565b9150614de28361371a565b9250614e0f7fffffffffffffffffffffffffffffffffffffffffffffffffffffffffffffffff8484614cf9565b905092915050565b7f504f4f4c5f534f55524345000000000000000000000000000000000000000000600082015250565b6000614e4d600b8361400f565b9150614e5882614e17565b602082019050919050565b60006020820190508181036000830152614e7c81614e40565b9050919050565b6000604082019050614e986000830185614096565b614ea56020830184614096565b9392505050565b6000614eb782613bd6565b91507f80000000000000000000000000000000000000000000000000000000000000008203614ee957614ee8614c02565b5b816000039050919050565b6000614eff82613bd6565b9150614f0a83613bd6565b9250828203905081811260008412168282136000851215161715614f3157614f30614c02565b5b92915050565b7f64732d6d6174682d7375622d756e646572666c6f770000000000000000000000600082015250565b6000614f6d60158361400f565b9150614f7882614f37565b602082019050919050565b60006020820190508181036000830152614f9c81614f60565b9050919050565b7f4e487b7100000000000000000000000000000000000000000000000000000000600052601260045260246000fd5b7f64732d6d6174682d6164642d6f766572666c6f77000000000000000000000000600082015250565b600061500860148361400f565b915061501382614fd2565b602082019050919050565b6000602082019050818103600083015261503781614ffb565b9050919050565b60008115159050919050565b6150538161503e565b811461505e57600080fd5b50565b6000815190506150708161504a565b92915050565b60006020828403121561508c5761508b61365b565b5b600061509a84828501615061565b91505092915050565b7f4d415247494e5f4c4556454c4c5f5448524553484f4c44000000000000000000600082015250565b60006150d960178361400f565b91506150e4826150a3565b602082019050919050565b60006020820190508181036000830152615108816150cc565b9050919050565b7f444542545f5341464554595f464143544f520000000000000000000000000000600082015250565b600061514560128361400f565b91506151508261510f565b602082019050919050565b6000602082019050818103600083015261517481615138565b9050919050565b60006151868261371a565b91506151918361371a565b925082820261519f8161371a565b915082820484148315176151b6576151b5614c02565b5b509291505056fea2646970667358221220b49d160b28a2e31d394950a5507d60f8c89d9b0931d2faf67be33bba0f44537c64736f6c634300081c0033",
  "linkReferences": {
    "contracts/pool/PoolStoreUtils.sol": {
      "PoolStoreUtils": [
        {
          "length": 20,
          "start": 2099
        },
        {
          "length": 20,
          "start": 2674
        },
        {
          "length": 20,
          "start": 5127
        }
      ]
    },
    "contracts/position/PositionStoreUtils.sol": {
      "PositionStoreUtils": [
        {
          "length": 20,
          "start": 4899
        }
      ]
    }
  },
  "deployedLinkReferences": {
    "contracts/pool/PoolStoreUtils.sol": {
      "PoolStoreUtils": [
        {
          "length": 20,
          "start": 2068
        },
        {
          "length": 20,
          "start": 2643
        },
        {
          "length": 20,
          "start": 5096
        }
      ]
    },
    "contracts/position/PositionStoreUtils.sol": {
      "PositionStoreUtils": [
        {
          "length": 20,
          "start": 4868
        }
      ]
    }
  }
}