{
  "_format": "hh-sol-artifact-1",
  "contractName": "Reader",
  "sourceName": "contracts/reader/Reader.sol",
  "abi": [
    {
      "inputs": [],
      "name": "MathOverflowedMulDiv",
      "type": "error"
    },
    {
      "inputs": [
        {
          "internalType": "address",
          "name": "dataStore",
          "type": "address"
        },
        {
          "internalType": "address",
          "name": "token0",
          "type": "address"
        },
        {
          "internalType": "address",
          "name": "token1",
          "type": "address"
        },
        {
          "internalType": "uint256",
          "name": "amountIn",
          "type": "uint256"
        },
        {
          "internalType": "uint8",
          "name": "tokenInIndex",
          "type": "uint8"
        }
      ],
      "name": "calcAmountOut",
      "outputs": [
        {
          "internalType": "uint256",
          "name": "",
          "type": "uint256"
        },
        {
          "internalType": "uint256",
          "name": "",
          "type": "uint256"
        },
        {
          "internalType": "int256",
          "name": "",
          "type": "int256"
        }
      ],
      "stateMutability": "view",
      "type": "function"
    },
    {
      "inputs": [
        {
          "internalType": "address",
          "name": "dataStore",
          "type": "address"
        },
        {
          "internalType": "address",
          "name": "token0",
          "type": "address"
        },
        {
          "internalType": "address",
          "name": "token1",
          "type": "address"
        },
        {
          "internalType": "uint256",
          "name": "amount0",
          "type": "uint256"
        },
        {
          "internalType": "uint256",
          "name": "amount1",
          "type": "uint256"
        }
      ],
      "name": "calcLiquidityOut",
      "outputs": [
        {
          "internalType": "uint256",
          "name": "",
          "type": "uint256"
        }
      ],
      "stateMutability": "view",
      "type": "function"
    },
    {
      "inputs": [
        {
          "internalType": "address",
          "name": "dataStore",
          "type": "address"
        },
        {
          "internalType": "address",
          "name": "token0",
          "type": "address"
        },
        {
          "internalType": "address",
          "name": "token1",
          "type": "address"
        },
        {
          "internalType": "uint256",
          "name": "liquidity",
          "type": "uint256"
        }
      ],
      "name": "calcTokenPairOut",
      "outputs": [
        {
          "internalType": "uint256",
          "name": "",
          "type": "uint256"
        },
        {
          "internalType": "uint256",
          "name": "",
          "type": "uint256"
        }
      ],
      "stateMutability": "view",
      "type": "function"
    },
    {
      "inputs": [
        {
          "internalType": "address",
          "name": "dataStore",
          "type": "address"
        }
      ],
      "name": "getDefaultInterestRateStrategy",
      "outputs": [
        {
          "internalType": "address",
          "name": "",
          "type": "address"
        }
      ],
      "stateMutability": "view",
      "type": "function"
    },
    {
      "inputs": [
        {
          "internalType": "address",
          "name": "dataStore",
          "type": "address"
        }
      ],
      "name": "getDefaultPoolConfiguration",
      "outputs": [
        {
          "internalType": "uint256",
          "name": "",
          "type": "uint256"
        }
      ],
      "stateMutability": "view",
      "type": "function"
    },
    {
      "inputs": [
        {
          "internalType": "address",
          "name": "dataStore",
          "type": "address"
        }
      ],
      "name": "getPools",
      "outputs": [
        {
          "components": [
            {
              "components": [
                {
                  "internalType": "address",
                  "name": "token",
                  "type": "address"
                },
                {
                  "internalType": "string",
                  "name": "symbol",
                  "type": "string"
                },
                {
                  "internalType": "uint256",
                  "name": "decimals",
                  "type": "uint256"
                },
                {
                  "internalType": "uint256",
                  "name": "borrowIndex",
                  "type": "uint256"
                },
                {
                  "internalType": "uint256",
                  "name": "borrowApy",
                  "type": "uint256"
                },
                {
                  "internalType": "uint256",
                  "name": "totalCollateral",
                  "type": "uint256"
                },
                {
                  "internalType": "uint256",
                  "name": "totalCollateralWithDebt",
                  "type": "uint256"
                },
                {
                  "internalType": "uint256",
                  "name": "totalDebtScaled",
                  "type": "uint256"
                },
                {
                  "internalType": "uint256",
                  "name": "poolBalance",
                  "type": "uint256"
                },
                {
                  "internalType": "uint256",
                  "name": "priceLiquidity",
                  "type": "uint256"
                },
                {
                  "internalType": "uint256",
                  "name": "avaiableLiquidity",
                  "type": "uint256"
                },
                {
                  "internalType": "uint256",
                  "name": "loan",
                  "type": "uint256"
                }
              ],
              "internalType": "struct ReaderPoolUtils.Asset[2]",
              "name": "assets",
              "type": "tuple[2]"
            },
            {
              "internalType": "address",
              "name": "bank",
              "type": "address"
            },
            {
              "internalType": "address",
              "name": "interestRateStrategy",
              "type": "address"
            },
            {
              "internalType": "uint256",
              "name": "configuration",
              "type": "uint256"
            },
            {
              "internalType": "uint256",
              "name": "lastUpdateTimestamp",
              "type": "uint256"
            },
            {
              "internalType": "uint256",
              "name": "priceDecimals",
              "type": "uint256"
            },
            {
              "internalType": "uint256",
              "name": "price",
              "type": "uint256"
            },
            {
              "internalType": "address",
              "name": "source",
              "type": "address"
            },
            {
              "internalType": "bool",
              "name": "shortEnabled",
              "type": "bool"
            },
            {
              "internalType": "uint256",
              "name": "createdTimestamp",
              "type": "uint256"
            }
          ],
          "internalType": "struct ReaderPoolUtils.GetPool[]",
          "name": "",
          "type": "tuple[]"
        }
      ],
      "stateMutability": "view",
      "type": "function"
    },
    {
      "inputs": [
        {
          "internalType": "address",
          "name": "dataStore",
          "type": "address"
        },
        {
          "internalType": "uint256",
          "name": "start",
          "type": "uint256"
        },
        {
          "internalType": "uint256",
          "name": "end",
          "type": "uint256"
        }
      ],
      "name": "getPools",
      "outputs": [
        {
          "components": [
            {
              "components": [
                {
                  "internalType": "address",
                  "name": "token",
                  "type": "address"
                },
                {
                  "internalType": "string",
                  "name": "symbol",
                  "type": "string"
                },
                {
                  "internalType": "uint256",
                  "name": "decimals",
                  "type": "uint256"
                },
                {
                  "internalType": "uint256",
                  "name": "borrowIndex",
                  "type": "uint256"
                },
                {
                  "internalType": "uint256",
                  "name": "borrowApy",
                  "type": "uint256"
                },
                {
                  "internalType": "uint256",
                  "name": "totalCollateral",
                  "type": "uint256"
                },
                {
                  "internalType": "uint256",
                  "name": "totalCollateralWithDebt",
                  "type": "uint256"
                },
                {
                  "internalType": "uint256",
                  "name": "totalDebtScaled",
                  "type": "uint256"
                },
                {
                  "internalType": "uint256",
                  "name": "poolBalance",
                  "type": "uint256"
                },
                {
                  "internalType": "uint256",
                  "name": "priceLiquidity",
                  "type": "uint256"
                },
                {
                  "internalType": "uint256",
                  "name": "avaiableLiquidity",
                  "type": "uint256"
                },
                {
                  "internalType": "uint256",
                  "name": "loan",
                  "type": "uint256"
                }
              ],
              "internalType": "struct ReaderPoolUtils.Asset[2]",
              "name": "assets",
              "type": "tuple[2]"
            },
            {
              "internalType": "address",
              "name": "bank",
              "type": "address"
            },
            {
              "internalType": "address",
              "name": "interestRateStrategy",
              "type": "address"
            },
            {
              "internalType": "uint256",
              "name": "configuration",
              "type": "uint256"
            },
            {
              "internalType": "uint256",
              "name": "lastUpdateTimestamp",
              "type": "uint256"
            },
            {
              "internalType": "uint256",
              "name": "priceDecimals",
              "type": "uint256"
            },
            {
              "internalType": "uint256",
              "name": "price",
              "type": "uint256"
            },
            {
              "internalType": "address",
              "name": "source",
              "type": "address"
            },
            {
              "internalType": "bool",
              "name": "shortEnabled",
              "type": "bool"
            },
            {
              "internalType": "uint256",
              "name": "createdTimestamp",
              "type": "uint256"
            }
          ],
          "internalType": "struct ReaderPoolUtils.GetPool[]",
          "name": "",
          "type": "tuple[]"
        }
      ],
      "stateMutability": "view",
      "type": "function"
    },
    {
      "inputs": [
        {
          "internalType": "address",
          "name": "dataStore",
          "type": "address"
        }
      ],
      "name": "getPoolsCount",
      "outputs": [
        {
          "internalType": "uint256",
          "name": "",
          "type": "uint256"
        }
      ],
      "stateMutability": "view",
      "type": "function"
    },
    {
      "inputs": [
        {
          "internalType": "address",
          "name": "dataStore",
          "type": "address"
        },
        {
          "internalType": "address",
          "name": "account",
          "type": "address"
        }
      ],
      "name": "getPositions",
      "outputs": [
        {
          "components": [
            {
              "components": [
                {
                  "internalType": "address",
                  "name": "token",
                  "type": "address"
                },
                {
                  "internalType": "string",
                  "name": "symbol",
                  "type": "string"
                },
                {
                  "internalType": "uint256",
                  "name": "decimals",
                  "type": "uint256"
                },
                {
                  "internalType": "uint256",
                  "name": "balance",
                  "type": "uint256"
                },
                {
                  "internalType": "uint256",
                  "name": "debt",
                  "type": "uint256"
                },
                {
                  "internalType": "int256",
                  "name": "netWorth",
                  "type": "int256"
                },
                {
                  "internalType": "uint256",
                  "name": "maxRedeemAmount",
                  "type": "uint256"
                },
                {
                  "internalType": "uint256",
                  "name": "borrowApy",
                  "type": "uint256"
                },
                {
                  "internalType": "int256",
                  "name": "equity",
                  "type": "int256"
                },
                {
                  "internalType": "int256",
                  "name": "equityValue",
                  "type": "int256"
                }
              ],
              "internalType": "struct ReaderPositionUtils.Asset[2]",
              "name": "assets",
              "type": "tuple[2]"
            },
            {
              "internalType": "uint256",
              "name": "id",
              "type": "uint256"
            },
            {
              "internalType": "address",
              "name": "account",
              "type": "address"
            },
            {
              "internalType": "uint256",
              "name": "marginLevel",
              "type": "uint256"
            },
            {
              "internalType": "uint256",
              "name": "entryPrice",
              "type": "uint256"
            },
            {
              "internalType": "uint256",
              "name": "IndexPrice",
              "type": "uint256"
            },
            {
              "internalType": "int256",
              "name": "pnl",
              "type": "int256"
            },
            {
              "internalType": "uint256",
              "name": "liquidationPrice",
              "type": "uint256"
            },
            {
              "internalType": "uint256",
              "name": "toLiquidationPrice",
              "type": "uint256"
            }
          ],
          "internalType": "struct ReaderPositionUtils.GetPosition[]",
          "name": "",
          "type": "tuple[]"
        }
      ],
      "stateMutability": "view",
      "type": "function"
    },
    {
      "inputs": [
        {
          "internalType": "address",
          "name": "dataStore",
          "type": "address"
        }
      ],
      "name": "getTokenBase",
      "outputs": [
        {
          "internalType": "address",
          "name": "",
          "type": "address"
        }
      ],
      "stateMutability": "view",
      "type": "function"
    },
    {
      "inputs": [
        {
          "internalType": "address",
          "name": "dataStore",
          "type": "address"
        }
      ],
      "name": "getTreasury",
      "outputs": [
        {
          "internalType": "address",
          "name": "",
          "type": "address"
        }
      ],
      "stateMutability": "view",
      "type": "function"
    }
  ],
  "bytecode": "0x6080604052348015600f57600080fd5b50614a9d8061001f6000396000f3fe608060405234801561001057600080fd5b50600436106100a95760003560e01c8063739118a411610071578063739118a41461019f57806378f212d1146101cf5780638f6c7a3c146101ff578063d28b0a151461022f578063e335adb714610261578063f68a713114610291576100a9565b806328a0ccf4146100ae578063317b50ec146100de57806350ed592d1461010f5780635a6f57101461013f5780635c39f4671461016f575b600080fd5b6100c860048036038101906100c391906128f6565b6102c1565b6040516100d59190612932565b60405180910390f35b6100f860048036038101906100f39190612983565b6102d3565b6040516101069291906129f9565b60405180910390f35b610129600480360381019061012491906128f6565b610360565b6040516101369190612a22565b60405180910390f35b610159600480360381019061015491906128f6565b610372565b6040516101669190612a22565b60405180910390f35b610189600480360381019061018491906128f6565b610384565b6040516101969190612e5c565b60405180910390f35b6101b960048036038101906101b49190612e7e565b61041d565b6040516101c691906131ee565b60405180910390f35b6101e960048036038101906101e491906128f6565b610443565b6040516101f69190612932565b60405180910390f35b61021960048036038101906102149190613210565b610455565b6040516102269190612e5c565b60405180910390f35b6102496004803603810190610244919061329c565b6104e1565b60405161025893929190613326565b60405180910390f35b61027b600480360381019061027691906128f6565b610577565b6040516102889190612932565b60405180910390f35b6102ab60048036038101906102a6919061335d565b610589565b6040516102b89190612a22565b60405180910390f35b60006102cc82610616565b9050919050565b60008073__$22ab6dac19e7eec84dc260d26b99b72765$__63317b50ec878787876040518563ffffffff1660e01b815260040161031394939291906133f6565b6040805180830381865af415801561032f573d6000803e3d6000fd5b505050506040513d601f19601f820116820180604052508101906103539190613450565b9150915094509492505050565b600061036b826106bd565b9050919050565b600061037d82610764565b9050919050565b6060600061039183610764565b905073__$22ab6dac19e7eec84dc260d26b99b72765$__638f6c7a3c846000846040518463ffffffff1660e01b81526004016103cf939291906134d5565b600060405180830381865af41580156103ec573d6000803e3d6000fd5b505050506040513d6000823e3d601f19601f820116820180604052508101906104159190613a82565b915050919050565b6060600061042b848461080b565b905061043a8484600084610897565b91505092915050565b600061044e82610977565b9050919050565b606073__$22ab6dac19e7eec84dc260d26b99b72765$__638f6c7a3c8585856040518463ffffffff1660e01b815260040161049293929190613acb565b600060405180830381865af41580156104af573d6000803e3d6000fd5b505050506040513d6000823e3d601f19601f820116820180604052508101906104d89190613a82565b90509392505050565b600080600073__$22ab6dac19e7eec84dc260d26b99b72765$__63d28b0a1589898989896040518663ffffffff1660e01b8152600401610525959493929190613b11565b606060405180830381865af4158015610542573d6000803e3d6000fd5b505050506040513d601f19601f820116820180604052508101906105669190613b90565b925092509250955095509592505050565b600061058282610a1e565b9050919050565b600073__$22ab6dac19e7eec84dc260d26b99b72765$__63f68a713187878787876040518663ffffffff1660e01b81526004016105ca959493929190613be3565b602060405180830381865af41580156105e7573d6000803e3d6000fd5b505050506040513d601f19601f8201168201806040525081019061060b9190613c36565b905095945050505050565b60008173ffffffffffffffffffffffffffffffffffffffff166321f8a72160405160200161064390613cc0565b604051602081830303815290604052805190602001206040518263ffffffff1660e01b81526004016106759190613cf9565b602060405180830381865afa158015610692573d6000803e3d6000fd5b505050506040513d601f19601f820116820180604052508101906106b69190613d14565b9050919050565b60008173ffffffffffffffffffffffffffffffffffffffff1663bd02d0f56040516020016106ea90613d8d565b604051602081830303815290604052805190602001206040518263ffffffff1660e01b815260040161071c9190613cf9565b602060405180830381865afa158015610739573d6000803e3d6000fd5b505050506040513d601f19601f8201168201806040525081019061075d9190613c36565b9050919050565b60008173ffffffffffffffffffffffffffffffffffffffff1663f3903b9f60405160200161079190613df9565b604051602081830303815290604052805190602001206040518263ffffffff1660e01b81526004016107c39190613cf9565b602060405180830381865afa1580156107e0573d6000803e3d6000fd5b505050506040513d601f19601f820116820180604052508101906108049190613c36565b9050919050565b60008273ffffffffffffffffffffffffffffffffffffffff1663f3903b9f61083284610ac5565b6040518263ffffffff1660e01b815260040161084e9190613cf9565b602060405180830381865afa15801561086b573d6000803e3d6000fd5b505050506040513d601f19601f8201168201806040525081019061088f9190613c36565b905092915050565b606060006108a786868686610b1b565b90506000815167ffffffffffffffff8111156108c6576108c5613511565b5b6040519080825280602002602001820160405280156108ff57816020015b6108ec6124a5565b8152602001906001900390816108e45790505b50905060005b825181101561096957600083828151811061092357610922613e19565b5b6020026020010151905060006109398a83610bb2565b90508084848151811061094f5761094e613e19565b5b602002602001018190525050508080600101915050610905565b508092505050949350505050565b60008173ffffffffffffffffffffffffffffffffffffffff166321f8a7216040516020016109a490613e94565b604051602081830303815290604052805190602001206040518263ffffffff1660e01b81526004016109d69190613cf9565b602060405180830381865afa1580156109f3573d6000803e3d6000fd5b505050506040513d601f19601f82011682018060405250810190610a179190613d14565b9050919050565b60008173ffffffffffffffffffffffffffffffffffffffff166321f8a721604051602001610a4b90613f00565b604051602081830303815290604052805190602001206040518263ffffffff1660e01b8152600401610a7d9190613cf9565b602060405180830381865afa158015610a9a573d6000803e3d6000fd5b505050506040513d601f19601f82011682018060405250810190610abe9190613d14565b9050919050565b6000604051602001610ad690613f6c565b6040516020818303038152906040528051906020012082604051602001610afe929190613f8c565b604051602081830303815290604052805190602001209050919050565b60608473ffffffffffffffffffffffffffffffffffffffff1663f069052a610b4286610ac5565b85856040518463ffffffff1660e01b8152600401610b6293929190613fb5565b600060405180830381865afa158015610b7f573d6000803e3d6000fd5b505050506040513d6000823e3d601f19601f82011682018060405250810190610ba891906140db565b9050949350505050565b610bba6124a5565b610bc261250d565b73__$3d31b232fb363902662fbc281b11ab3357$__637b82d74e85856040518363ffffffff1660e01b8152600401610bfb929190614133565b61024060405180830381865af4158015610c19573d6000803e3d6000fd5b505050506040513d601f19601f82011682018060405250810190610c3d9190614340565b8160000181905250610c9d816000015160000151600060ff1660028110610c6757610c66613e19565b5b602002015160000151826000015160000151600160ff1660028110610c8f57610c8e613e19565b5b602002015160000151611531565b81604001818152505073__$e0022d6f389ac14ff1ce1dc57a4018d0a3$__637b82d74e8583604001516040518363ffffffff1660e01b8152600401610ce3929190614133565b61024060405180830381865af4158015610d01573d6000803e3d6000fd5b505050506040513d601f19601f82011682018060405250810190610d259190614564565b8160200181905250610d4084826020015183600001516115cf565b909150905050816060018181525050610d5c8160200151611650565b81610300018181525050806000015160000151600060ff1660028110610d8557610d84613e19565b5b6020020151602001518160e0018181525050610df8816020015160000151600060ff1660028110610db957610db8613e19565b5b602002015160200151826000015160000151600060ff1660028110610de157610de0613e19565b5b60200201516040015161171b90919063ffffffff16565b8160c0018181525050610e148160200151606001516000611766565b8160a0018181525050610e2f8160e001518260c001516117d9565b81610100018181525050610e4c8161010001518260a00151611808565b81610120018181525050610e6e8160e001518260c00151836101200151611835565b81610140018181525050610e9384826020015183600001518461030001516000611858565b81610160018181525050610eb58160e001518260c00151836101000151611a19565b81610180018181525050806101400151816101a0018181525050610ee28160200151606001516001611766565b816101c0018181525050806000015160000151600160ff1660028110610f0b57610f0a613e19565b5b60200201516020015181610200018181525050610f7f816020015160000151600160ff1660028110610f4057610f3f613e19565b5b602002015160200151826000015160000151600160ff1660028110610f6857610f67613e19565b5b60200201516040015161171b90919063ffffffff16565b816101e0018181525050610f9d816102000151826101e001516117d9565b81610220018181525050610fbb816102200151826101c00151611808565b81610240018181525050610fe281610300015182610240015161171b90919063ffffffff16565b81610260018181525050611006816102000151826101e00151836102600151611835565b8161028001818152505061102b84826020015183600001518461030001516001611858565b816102a001818152505061104f816102000151826101e00151836102200151611a19565b816102c0018181525050806102800151816102e00181815250506110768160000151611a3c565b816080018181525050600260ff16816000015160000151600160ff16600281106110a3576110a2613e19565b5b602002015160e00151146111c9576110c48161030001518260800151611afa565b816103200181815250506110eb81610320015182610240015161171b90919063ffffffff16565b8161034001818152505080608001518161030001511181610380019015159081151581525050611131816103800151826102000151836101e00151846103400151611b29565b81610360018181525050806103600151816103a00181815250506111a0846111618360e001518460a00151611b56565b6111738460c001518560a00151611b56565b611187856102000151866101c00151611b56565b61119b866101e00151876101c00151611b56565b611b83565b816103c00181815250506111be816103c00151826103000151611c73565b816103e00181815250505b6040518061012001604052806040518060400160405280604051806101400160405280866000015160000151600060ff166002811061120b5761120a613e19565b5b60200201516000015173ffffffffffffffffffffffffffffffffffffffff168152602001866000015160000151600060ff166002811061124e5761124d613e19565b5b60200201516000015173ffffffffffffffffffffffffffffffffffffffff166395d89b416040518163ffffffff1660e01b8152600401600060405180830381865afa1580156112a1573d6000803e3d6000fd5b505050506040513d6000823e3d601f19601f820116820180604052508101906112ca9190614592565b81526020018660a0015181526020018660e0015181526020018660c00151815260200186610140015181526020018661016001518152602001866020015160000151600060ff166002811061132257611321613e19565b5b60200201516040015181526020018661018001518152602001866101a001518152508152602001604051806101400160405280866000015160000151600160ff166002811061137457611373613e19565b5b60200201516000015173ffffffffffffffffffffffffffffffffffffffff168152602001866000015160000151600160ff16600281106113b7576113b6613e19565b5b60200201516000015173ffffffffffffffffffffffffffffffffffffffff166395d89b416040518163ffffffff1660e01b8152600401600060405180830381865afa15801561140a573d6000803e3d6000fd5b505050506040513d6000823e3d601f19601f820116820180604052508101906114339190614592565b8152602001866101c0015181526020018661020001518152602001866101e0015181526020018661028001518152602001866102a001518152602001866020015160000151600160ff166002811061148e5761148d613e19565b5b6020020151604001518152602001866102c001518152602001866102e001518152508152508152602001826000015160200151815260200182600001516040015173ffffffffffffffffffffffffffffffffffffffff16815260200182606001518152602001826080015181526020018261030001518152602001826103a001518152602001826103c001518152602001826103e0015181525091505092915050565b60008173ffffffffffffffffffffffffffffffffffffffff168373ffffffffffffffffffffffffffffffffffffffff161061156d578183611570565b82825b809350819450505060405160200161158790614627565b6040516020818303038152906040528051906020012083836040516020016115b193929190614647565b60405160208183030381529060405280519060200120905092915050565b60008060008060006115e087611650565b90506115ef8787836000611c9f565b809350819450505060008211611625577fffffffffffffffffffffffffffffffffffffffffffffffffffffffffffffffff611639565b6116388284611ed090919063ffffffff16565b5b945061164488611f17565b93505093509350935093565b60008061165e836000611fbe565b50509050600061166f846001611fbe565b505090506000810361168657600092505050611716565b600061169785606001516000611766565b905060006116aa86606001516001611766565b905060006116d1856b033b2e3c9fd0803ce800000085600a6116cc91906147e0565b612049565b905060006116f8856b033b2e3c9fd0803ce800000085600a6116f391906147e0565b612049565b905061170d8183611ed090919063ffffffff16565b96505050505050505b919050565b6000816b019d971e4fe8401e74000000600019030483111582151761173f57600080fd5b6b033b2e3c9fd0803ce80000006b019d971e4fe8401e740000008385020104905092915050565b6000807fffffffffffffffffffffffffffffffffffffffff00ffffffffffffffffffffff9050600060589050600160ff168460ff16036117c8577fffffffffffffffffffffffffffffffffffffff00ffffffffffffffffffffffff9150606090505b8082198616901c9250505092915050565b60008183116117f35782826117ee919061482b565b611800565b81836117ff919061482b565b5b905092915050565b600061182d836b033b2e3c9fd0803ce800000084600a61182891906147e0565b612049565b905092915050565b600082841161184d57816118489061485f565b61184f565b815b90509392505050565b600061186261260b565b61186f8686866000611c9f565b8260000183602001828152508281525050506000816000015114806118b65750600085600001518460ff16600281106118ab576118aa613e19565b5b602002015160200151145b156118c5576000915050611a10565b6118ce87612150565b8160400181815250506118f28160400151826020015161171b90919063ffffffff16565b816080018181525050806080015181600001511015611915576000915050611a10565b80608001518160000151611929919061482b565b816060018181525050611940866060015184611766565b8160a001818152505061197481606001518260a00151600a61196291906147e0565b6b033b2e3c9fd0803ce8000000612049565b8160c0018181525050600160ff168360ff16036119ac576119a2848260c00151611ed090919063ffffffff16565b8160c00181815250505b84600001518360ff16600281106119c6576119c5613e19565b5b6020020151602001518160c001511115611a075784600001518360ff16600281106119f4576119f3613e19565b5b6020020151602001518160c00181815250505b8060c001519150505b95945050505050565b6000828411611a315781611a2c9061485f565b611a33565b815b90509392505050565b6000600160ff168260000151600160ff1660028110611a5e57611a5d613e19565b5b602002015160e0015103611a97578160000151600160ff1660028110611a8757611a86613e19565b5b6020020151606001519050611af5565b600060ff168260000151600160ff1660028110611ab757611ab6613e19565b5b602002015160e0015103611af0578160000151600160ff1660028110611ae057611adf613e19565b5b6020020151608001519050611af5565b600090505b919050565b6000818311611b14578282611b0f919061482b565b611b21565b8183611b20919061482b565b5b905092915050565b6000848015611b3757508284115b611b4a5781611b459061485f565b611b4c565b815b9050949350505050565b6000611b7b836b033b2e3c9fd0803ce800000084600a611b7691906147e0565b612049565b905092915050565b600080611b8f87611f17565b90506000611ba6868361171b90919063ffffffff16565b90506000611bbd858461171b90919063ffffffff16565b905060008883611bcd91906148a7565b905060008288611bdd91906148a7565b90506000611bea836121f7565b90506000611bf7836121f7565b9050600084138015611c095750600083125b80611c205750600084128015611c1f5750600083135b5b15611c35576000975050505050505050611c6a565b60008103611c4d576000975050505050505050611c6a565b611c608183611ed090919063ffffffff16565b9750505050505050505b95945050505050565b6000808314611c9457611c8f8383611ed090919063ffffffff16565b611c97565b60005b905092915050565b6000806000808660000151600060ff1660028110611cc057611cbf613e19565b5b60200201516000015173ffffffffffffffffffffffffffffffffffffffff168573ffffffffffffffffffffffffffffffffffffffff1614611d9a57600080611d0a8a8a6000612213565b915091506000611d2860008c6060015161176690919063ffffffff16565b90506000611d4f846b033b2e3c9fd0803ce800000084600a611d4a91906147e0565b612049565b90506000611d76846b033b2e3c9fd0803ce800000085600a611d7191906147e0565b612049565b90508187611d8491906148ea565b96508086611d9291906148ea565b955050505050505b8660000151600160ff1660028110611db557611db4613e19565b5b60200201516000015173ffffffffffffffffffffffffffffffffffffffff168573ffffffffffffffffffffffffffffffffffffffff1614611ebf57600080611dff8a8a6001612213565b915091506000611e1d60018c6060015161176690919063ffffffff16565b90506000611e44846b033b2e3c9fd0803ce800000084600a611e3f91906147e0565b612049565b90506000611e6b846b033b2e3c9fd0803ce800000085600a611e6691906147e0565b612049565b90506000611e828c8461171b90919063ffffffff16565b90506000611e998d8461171b90919063ffffffff16565b90508189611ea791906148ea565b98508088611eb591906148ea565b9750505050505050505b819350809250505094509492505050565b60006b033b2e3c9fd0803ce80000006002830460001903048311151582151715611ef957600080fd5b81600283046b033b2e3c9fd0803ce800000085020104905092915050565b60008173ffffffffffffffffffffffffffffffffffffffff1663bd02d0f5604051602001611f449061496a565b604051602081830303815290604052805190602001206040518263ffffffff1660e01b8152600401611f769190613cf9565b602060405180830381865afa158015611f93573d6000803e3d6000fd5b505050506040513d601f19601f82011682018060405250810190611fb79190613c36565b9050919050565b60008060008085600001518560ff1660028110611fde57611fdd613e19565b5b602002015190506000611ff187876122c1565b90506000810361200d5760008060009450945094505050612042565b600061201d8389608001516123ae565b9050808261202b91906148ea565b828284612038919061482b565b9550955095505050505b9250925092565b60008083850290506000801985870982811083820303915050600081036120845783828161207a5761207961498a565b5b0492505050612149565b8084116120bd576040517f227bc15300000000000000000000000000000000000000000000000000000000815260040160405180910390fd5b600084868809905082811182039150808303925060008560000386169050808604955080840493506001818260000304019050808302841793506000600287600302189050808702600203810290508087026002038102905080870260020381029050808702600203810290508087026002038102905080870260020381029050808502955050505050505b9392505050565b60008173ffffffffffffffffffffffffffffffffffffffff1663bd02d0f560405160200161217d90614a05565b604051602081830303815290604052805190602001206040518263ffffffff1660e01b81526004016121af9190613cf9565b602060405180830381865afa1580156121cc573d6000803e3d6000fd5b505050506040513d601f19601f820116820180604052508101906121f09190613c36565b9050919050565b60008082121561220a578160000361220c565b815b9050919050565b600080600084600001518460ff166002811061223257612231613e19565b5b6020020151604001519050600061226b87600001518660ff166002811061225c5761225b613e19565b5b602002015188608001516123f3565b90506000821461228d57612288818361171b90919063ffffffff16565b612290565b60005b925085600001518560ff16600281106122ac576122ab613e19565b5b60200201516020015193505050935093915050565b60008083600001518360ff16600281106122de576122dd613e19565b5b602002015190506000846020015173ffffffffffffffffffffffffffffffffffffffff1663e42c08f283600001516040518263ffffffff1660e01b81526004016123289190612932565b602060405180830381865afa158015612345573d6000803e3d6000fd5b505050506040513d601f19601f820116820180604052508101906123699190613c36565b90506000810361237e576000925050506123a8565b6000826060015190508260c001518183612398919061482b565b6123a2919061482b565b93505050505b92915050565b6000808360a00151036123c457600090506123ed565b60006123d084846123f3565b90506123e9818560a0015161171b90919063ffffffff16565b9150505b92915050565b60006123fd612442565b820361240f578260200151905061243c565b600061241f84604001518461244a565b905061243884602001518261171b90919063ffffffff16565b9150505b92915050565b600042905090565b60008082612456612442565b612460919061482b565b8461246b9190614a25565b90506301e1338081816124815761248061498a565b5b049050806b033b2e3c9fd0803ce800000061249c91906148ea565b91505092915050565b6040518061012001604052806124b9612648565b815260200160008152602001600073ffffffffffffffffffffffffffffffffffffffff1681526020016000815260200160008152602001600081526020016000815260200160008152602001600081525090565b604051806104000160405280612521612675565b815260200161252e6126b2565b815260200160008019168152602001600081526020016000815260200160008152602001600081526020016000815260200160008152602001600081526020016000815260200160008152602001600081526020016000815260200160008152602001600081526020016000815260200160008152602001600081526020016000815260200160008152602001600081526020016000815260200160008152602001600081526020016000815260200160008152602001600081526020016000151581526020016000815260200160008152602001600081525090565b6040518060e00160405280600081526020016000815260200160008152602001600081526020016000815260200160008152602001600081525090565b60405180604001604052806002905b61265f612713565b8152602001906001900390816126575790505090565b604051806060016040528061268861277c565b815260200160008152602001600073ffffffffffffffffffffffffffffffffffffffff1681525090565b6040518060a001604052806126c56127a9565b8152602001600073ffffffffffffffffffffffffffffffffffffffff168152602001600073ffffffffffffffffffffffffffffffffffffffff16815260200160008152602001600081525090565b604051806101400160405280600073ffffffffffffffffffffffffffffffffffffffff1681526020016060815260200160008152602001600081526020016000815260200160008152602001600081526020016000815260200160008152602001600081525090565b60405180604001604052806002905b6127936127d6565b81526020019060019003908161278b5790505090565b60405180604001604052806002905b6127c0612831565b8152602001906001900390816127b85790505090565b604051806101000160405280600073ffffffffffffffffffffffffffffffffffffffff168152602001600081526020016000815260200160008152602001600081526020016000815260200160008152602001600081525090565b6040518060e00160405280600073ffffffffffffffffffffffffffffffffffffffff1681526020016000815260200160008152602001600081526020016000815260200160008152602001600081525090565b6000604051905090565b600080fd5b600080fd5b600073ffffffffffffffffffffffffffffffffffffffff82169050919050565b60006128c382612898565b9050919050565b6128d3816128b8565b81146128de57600080fd5b50565b6000813590506128f0816128ca565b92915050565b60006020828403121561290c5761290b61288e565b5b600061291a848285016128e1565b91505092915050565b61292c816128b8565b82525050565b60006020820190506129476000830184612923565b92915050565b6000819050919050565b6129608161294d565b811461296b57600080fd5b50565b60008135905061297d81612957565b92915050565b6000806000806080858703121561299d5761299c61288e565b5b60006129ab878288016128e1565b94505060206129bc878288016128e1565b93505060406129cd878288016128e1565b92505060606129de8782880161296e565b91505092959194509250565b6129f38161294d565b82525050565b6000604082019050612a0e60008301856129ea565b612a1b60208301846129ea565b9392505050565b6000602082019050612a3760008301846129ea565b92915050565b600081519050919050565b600082825260208201905092915050565b6000819050602082019050919050565b600060029050919050565b600081905092915050565b6000819050919050565b612a92816128b8565b82525050565b600081519050919050565b600082825260208201905092915050565b60005b83811015612ad2578082015181840152602081019050612ab7565b60008484015250505050565b6000601f19601f8301169050919050565b6000612afa82612a98565b612b048185612aa3565b9350612b14818560208601612ab4565b612b1d81612ade565b840191505092915050565b612b318161294d565b82525050565b600061018083016000830151612b506000860182612a89565b5060208301518482036020860152612b688282612aef565b9150506040830151612b7d6040860182612b28565b506060830151612b906060860182612b28565b506080830151612ba36080860182612b28565b5060a0830151612bb660a0860182612b28565b5060c0830151612bc960c0860182612b28565b5060e0830151612bdc60e0860182612b28565b50610100830151612bf1610100860182612b28565b50610120830151612c06610120860182612b28565b50610140830151612c1b610140860182612b28565b50610160830151612c30610160860182612b28565b508091505092915050565b6000612c478383612b37565b905092915050565b6000602082019050919050565b6000612c6782612a69565b612c718185612a74565b935083602082028501612c8385612a7f565b8060005b85811015612cbf5784840389528151612ca08582612c3b565b9450612cab83612c4f565b925060208a01995050600181019050612c87565b50829750879550505050505092915050565b60008115159050919050565b612ce681612cd1565b82525050565b6000610140830160008301518482036000860152612d0a8282612c5c565b9150506020830151612d1f6020860182612a89565b506040830151612d326040860182612a89565b506060830151612d456060860182612b28565b506080830151612d586080860182612b28565b5060a0830151612d6b60a0860182612b28565b5060c0830151612d7e60c0860182612b28565b5060e0830151612d9160e0860182612a89565b50610100830151612da6610100860182612cdd565b50610120830151612dbb610120860182612b28565b508091505092915050565b6000612dd28383612cec565b905092915050565b6000602082019050919050565b6000612df282612a3d565b612dfc8185612a48565b935083602082028501612e0e85612a59565b8060005b85811015612e4a5784840389528151612e2b8582612dc6565b9450612e3683612dda565b925060208a01995050600181019050612e12565b50829750879550505050505092915050565b60006020820190508181036000830152612e768184612de7565b905092915050565b60008060408385031215612e9557612e9461288e565b5b6000612ea3858286016128e1565b9250506020612eb4858286016128e1565b9150509250929050565b600081519050919050565b600082825260208201905092915050565b6000819050602082019050919050565b600060029050919050565b600081905092915050565b6000819050919050565b6000819050919050565b612f1d81612f0a565b82525050565b600061014083016000830151612f3c6000860182612a89565b5060208301518482036020860152612f548282612aef565b9150506040830151612f696040860182612b28565b506060830151612f7c6060860182612b28565b506080830151612f8f6080860182612b28565b5060a0830151612fa260a0860182612f14565b5060c0830151612fb560c0860182612b28565b5060e0830151612fc860e0860182612b28565b50610100830151612fdd610100860182612f14565b50610120830151612ff2610120860182612f14565b508091505092915050565b60006130098383612f23565b905092915050565b6000602082019050919050565b600061302982612eea565b6130338185612ef5565b93508360208202850161304585612f00565b8060005b8581101561308157848403895281516130628582612ffd565b945061306d83613011565b925060208a01995050600181019050613049565b50829750879550505050505092915050565b60006101208301600083015184820360008601526130b1828261301e565b91505060208301516130c66020860182612b28565b5060408301516130d96040860182612a89565b5060608301516130ec6060860182612b28565b5060808301516130ff6080860182612b28565b5060a083015161311260a0860182612b28565b5060c083015161312560c0860182612f14565b5060e083015161313860e0860182612b28565b5061010083015161314d610100860182612b28565b508091505092915050565b60006131648383613093565b905092915050565b6000602082019050919050565b600061318482612ebe565b61318e8185612ec9565b9350836020820285016131a085612eda565b8060005b858110156131dc57848403895281516131bd8582613158565b94506131c88361316c565b925060208a019950506001810190506131a4565b50829750879550505050505092915050565b600060208201905081810360008301526132088184613179565b905092915050565b6000806000606084860312156132295761322861288e565b5b6000613237868287016128e1565b93505060206132488682870161296e565b92505060406132598682870161296e565b9150509250925092565b600060ff82169050919050565b61327981613263565b811461328457600080fd5b50565b60008135905061329681613270565b92915050565b600080600080600060a086880312156132b8576132b761288e565b5b60006132c6888289016128e1565b95505060206132d7888289016128e1565b94505060406132e8888289016128e1565b93505060606132f98882890161296e565b925050608061330a88828901613287565b9150509295509295909350565b61332081612f0a565b82525050565b600060608201905061333b60008301866129ea565b61334860208301856129ea565b6133556040830184613317565b949350505050565b600080600080600060a086880312156133795761337861288e565b5b6000613387888289016128e1565b9550506020613398888289016128e1565b94505060406133a9888289016128e1565b93505060606133ba8882890161296e565b92505060806133cb8882890161296e565b9150509295509295909350565b6133e1816128b8565b82525050565b6133f08161294d565b82525050565b600060808201905061340b60008301876133d8565b61341860208301866133d8565b61342560408301856133d8565b61343260608301846133e7565b95945050505050565b60008151905061344a81612957565b92915050565b600080604083850312156134675761346661288e565b5b60006134758582860161343b565b92505060206134868582860161343b565b9150509250929050565b6000819050919050565b6000819050919050565b60006134bf6134ba6134b584613490565b61349a565b61294d565b9050919050565b6134cf816134a4565b82525050565b60006060820190506134ea60008301866133d8565b6134f760208301856134c6565b61350460408301846133e7565b949350505050565b600080fd5b7f4e487b7100000000000000000000000000000000000000000000000000000000600052604160045260246000fd5b61354982612ade565b810181811067ffffffffffffffff8211171561356857613567613511565b5b80604052505050565b600061357b612884565b90506135878282613540565b919050565b600067ffffffffffffffff8211156135a7576135a6613511565b5b602082029050602081019050919050565b600080fd5b600080fd5b600080fd5b600067ffffffffffffffff8211156135e2576135e1613511565b5b602082029050919050565b6000815190506135fc816128ca565b92915050565b600080fd5b600067ffffffffffffffff82111561362257613621613511565b5b61362b82612ade565b9050602081019050919050565b600061364b61364684613607565b613571565b90508281526020810184848401111561366757613666613602565b5b613672848285612ab4565b509392505050565b600082601f83011261368f5761368e61350c565b5b815161369f848260208601613638565b91505092915050565b600061018082840312156136bf576136be6135bd565b5b6136ca610180613571565b905060006136da848285016135ed565b600083015250602082015167ffffffffffffffff8111156136fe576136fd6135c2565b5b61370a8482850161367a565b602083015250604061371e8482850161343b565b60408301525060606137328482850161343b565b60608301525060806137468482850161343b565b60808301525060a061375a8482850161343b565b60a08301525060c061376e8482850161343b565b60c08301525060e06137828482850161343b565b60e0830152506101006137978482850161343b565b610100830152506101206137ad8482850161343b565b610120830152506101406137c38482850161343b565b610140830152506101606137d98482850161343b565b6101608301525092915050565b60006137f96137f4846135c7565b613571565b90508060208402830185811115613813576138126135b8565b5b835b8181101561385a57805167ffffffffffffffff8111156138385761383761350c565b5b80860161384589826136a8565b85526020850194505050602081019050613815565b5050509392505050565b600082601f8301126138795761387861350c565b5b60026138868482856137e6565b91505092915050565b61389881612cd1565b81146138a357600080fd5b50565b6000815190506138b58161388f565b92915050565b600061014082840312156138d2576138d16135bd565b5b6138dd610140613571565b9050600082015167ffffffffffffffff8111156138fd576138fc6135c2565b5b61390984828501613864565b600083015250602061391d848285016135ed565b6020830152506040613931848285016135ed565b60408301525060606139458482850161343b565b60608301525060806139598482850161343b565b60808301525060a061396d8482850161343b565b60a08301525060c06139818482850161343b565b60c08301525060e0613995848285016135ed565b60e0830152506101006139aa848285016138a6565b610100830152506101206139c08482850161343b565b6101208301525092915050565b60006139e06139db8461358c565b613571565b90508083825260208201905060208402830185811115613a0357613a026135b8565b5b835b81811015613a4a57805167ffffffffffffffff811115613a2857613a2761350c565b5b808601613a3589826138bb565b85526020850194505050602081019050613a05565b5050509392505050565b600082601f830112613a6957613a6861350c565b5b8151613a798482602086016139cd565b91505092915050565b600060208284031215613a9857613a9761288e565b5b600082015167ffffffffffffffff811115613ab657613ab5612893565b5b613ac284828501613a54565b91505092915050565b6000606082019050613ae060008301866133d8565b613aed60208301856133e7565b613afa60408301846133e7565b949350505050565b613b0b81613263565b82525050565b600060a082019050613b2660008301886133d8565b613b3360208301876133d8565b613b4060408301866133d8565b613b4d60608301856133e7565b613b5a6080830184613b02565b9695505050505050565b613b6d81612f0a565b8114613b7857600080fd5b50565b600081519050613b8a81613b64565b92915050565b600080600060608486031215613ba957613ba861288e565b5b6000613bb78682870161343b565b9350506020613bc88682870161343b565b9250506040613bd986828701613b7b565b9150509250925092565b600060a082019050613bf860008301886133d8565b613c0560208301876133d8565b613c1260408301866133d8565b613c1f60608301856133e7565b613c2c60808301846133e7565b9695505050505050565b600060208284031215613c4c57613c4b61288e565b5b6000613c5a8482850161343b565b91505092915050565b600082825260208201905092915050565b7f544f4b454e5f4241534500000000000000000000000000000000000000000000600082015250565b6000613caa600a83613c63565b9150613cb582613c74565b602082019050919050565b60006020820190508181036000830152613cd981613c9d565b9050919050565b6000819050919050565b613cf381613ce0565b82525050565b6000602082019050613d0e6000830184613cea565b92915050565b600060208284031215613d2a57613d2961288e565b5b6000613d38848285016135ed565b91505092915050565b7f44454641554c545f504f4f4c5f434f4e46494755524154494f4e000000000000600082015250565b6000613d77601a83613c63565b9150613d8282613d41565b602082019050919050565b60006020820190508181036000830152613da681613d6a565b9050919050565b7f504f4f4c5f4c4953540000000000000000000000000000000000000000000000600082015250565b6000613de3600983613c63565b9150613dee82613dad565b602082019050919050565b60006020820190508181036000830152613e1281613dd6565b9050919050565b7f4e487b7100000000000000000000000000000000000000000000000000000000600052603260045260246000fd5b7f5452454153555259000000000000000000000000000000000000000000000000600082015250565b6000613e7e600883613c63565b9150613e8982613e48565b602082019050919050565b60006020820190508181036000830152613ead81613e71565b9050919050565b7f44454641554c545f494e5445524553545f524154455f53545241544547590000600082015250565b6000613eea601e83613c63565b9150613ef582613eb4565b602082019050919050565b60006020820190508181036000830152613f1981613edd565b9050919050565b7f4143434f554e545f504f534954494f4e5f4c4953540000000000000000000000600082015250565b6000613f56601583613c63565b9150613f6182613f20565b602082019050919050565b60006020820190508181036000830152613f8581613f49565b9050919050565b6000604082019050613fa16000830185613cea565b613fae6020830184612923565b9392505050565b6000606082019050613fca6000830186613cea565b613fd760208301856129ea565b613fe460408301846129ea565b949350505050565b600067ffffffffffffffff82111561400757614006613511565b5b602082029050602081019050919050565b61402181613ce0565b811461402c57600080fd5b50565b60008151905061403e81614018565b92915050565b600061405761405284613fec565b613571565b9050808382526020820190506020840283018581111561407a576140796135b8565b5b835b818110156140a3578061408f888261402f565b84526020840193505060208101905061407c565b5050509392505050565b600082601f8301126140c2576140c161350c565b5b81516140d2848260208601614044565b91505092915050565b6000602082840312156140f1576140f061288e565b5b600082015167ffffffffffffffff81111561410f5761410e612893565b5b61411b848285016140ad565b91505092915050565b61412d81613ce0565b82525050565b600060408201905061414860008301856133d8565b6141556020830184614124565b9392505050565b600067ffffffffffffffff82111561417757614176613511565b5b602082029050919050565b60006101008284031215614199576141986135bd565b5b6141a4610100613571565b905060006141b4848285016135ed565b60008301525060206141c88482850161343b565b60208301525060406141dc8482850161343b565b60408301525060606141f08482850161343b565b60608301525060806142048482850161343b565b60808301525060a06142188482850161343b565b60a08301525060c061422c8482850161343b565b60c08301525060e06142408482850161343b565b60e08301525092915050565b600061425f61425a8461415c565b613571565b905080610100840283018581111561427a576142796135b8565b5b835b818110156142a4578061428f8882614182565b8452602084019350506101008101905061427c565b5050509392505050565b600082601f8301126142c3576142c261350c565b5b60026142d084828561424c565b91505092915050565b600061024082840312156142f0576142ef6135bd565b5b6142fa6060613571565b9050600061430a848285016142ae565b60008301525061020061431f8482850161343b565b602083015250610220614334848285016135ed565b60408301525092915050565b600061024082840312156143575761435661288e565b5b6000614365848285016142d9565b91505092915050565b600067ffffffffffffffff82111561438957614388613511565b5b602082029050919050565b600060e082840312156143aa576143a96135bd565b5b6143b460e0613571565b905060006143c4848285016135ed565b60008301525060206143d88482850161343b565b60208301525060406143ec8482850161343b565b60408301525060606144008482850161343b565b60608301525060806144148482850161343b565b60808301525060a06144288482850161343b565b60a08301525060c061443c8482850161343b565b60c08301525092915050565b600061445b6144568461436e565b613571565b90508060e08402830185811115614475576144746135b8565b5b835b8181101561449e578061448a8882614394565b84526020840193505060e081019050614477565b5050509392505050565b600082601f8301126144bd576144bc61350c565b5b60026144ca848285614448565b91505092915050565b600061024082840312156144ea576144e96135bd565b5b6144f460a0613571565b90506000614504848285016144a8565b6000830152506101c0614519848285016135ed565b6020830152506101e061452e848285016135ed565b6040830152506102006145438482850161343b565b6060830152506102206145588482850161343b565b60808301525092915050565b6000610240828403121561457b5761457a61288e565b5b6000614589848285016144d3565b91505092915050565b6000602082840312156145a8576145a761288e565b5b600082015167ffffffffffffffff8111156145c6576145c5612893565b5b6145d28482850161367a565b91505092915050565b7f504f4f4c00000000000000000000000000000000000000000000000000000000600082015250565b6000614611600483613c63565b915061461c826145db565b602082019050919050565b6000602082019050818103600083015261464081614604565b9050919050565b600060608201905061465c6000830186613cea565b6146696020830185612923565b6146766040830184612923565b949350505050565b7f4e487b7100000000000000000000000000000000000000000000000000000000600052601160045260246000fd5b60008160011c9050919050565b6000808291508390505b6001851115614704578086048111156146e0576146df61467e565b5b60018516156146ef5780820291505b80810290506146fd856146ad565b94506146c4565b94509492505050565b60008261471d57600190506147d9565b8161472b57600090506147d9565b8160018114614741576002811461474b5761477a565b60019150506147d9565b60ff84111561475d5761475c61467e565b5b8360020a9150848211156147745761477361467e565b5b506147d9565b5060208310610133831016604e8410600b84101617156147af5782820a9050838111156147aa576147a961467e565b5b6147d9565b6147bc84848460016146ba565b925090508184048111156147d3576147d261467e565b5b81810290505b9392505050565b60006147eb8261294d565b91506147f68361294d565b92506148237fffffffffffffffffffffffffffffffffffffffffffffffffffffffffffffffff848461470d565b905092915050565b60006148368261294d565b91506148418361294d565b92508282039050818111156148595761485861467e565b5b92915050565b600061486a82612f0a565b91507f8000000000000000000000000000000000000000000000000000000000000000820361489c5761489b61467e565b5b816000039050919050565b60006148b282612f0a565b91506148bd83612f0a565b92508282039050818112600084121682821360008512151617156148e4576148e361467e565b5b92915050565b60006148f58261294d565b91506149008361294d565b92508282019050808211156149185761491761467e565b5b92915050565b7f4d415247494e5f4c4556454c4c5f5448524553484f4c44000000000000000000600082015250565b6000614954601783613c63565b915061495f8261491e565b602082019050919050565b6000602082019050818103600083015261498381614947565b9050919050565b7f4e487b7100000000000000000000000000000000000000000000000000000000600052601260045260246000fd5b7f444542545f5341464554595f464143544f520000000000000000000000000000600082015250565b60006149ef601283613c63565b91506149fa826149b9565b602082019050919050565b60006020820190508181036000830152614a1e816149e2565b9050919050565b6000614a308261294d565b9150614a3b8361294d565b9250828202614a498161294d565b91508282048414831517614a6057614a5f61467e565b5b509291505056fea2646970667358221220d9e9ab535cf8949bfa6854c20bf8380c95c767285bea6818429a9e85052b31ff64736f6c634300081c0033",
  "linkReferences": {
    "contracts/pool/PoolStoreUtils.sol": {
      "PoolStoreUtils": [
        {
          "length": 20,
          "start": 3271
        }
      ]
    },
    "contracts/position/PositionStoreUtils.sol": {
      "PositionStoreUtils": [
        {
          "length": 20,
          "start": 3043
        }
      ]
    },
    "contracts/reader/ReaderPoolUtils.sol": {
      "ReaderPoolUtils": [
        {
          "length": 20,
          "start": 759
        },
        {
          "length": 20,
          "start": 948
        },
        {
          "length": 20,
          "start": 1144
        },
        {
          "length": 20,
          "start": 1287
        },
        {
          "length": 20,
          "start": 1452
        }
      ]
    }
  },
  "deployedLinkReferences": {
    "contracts/pool/PoolStoreUtils.sol": {
      "PoolStoreUtils": [
        {
          "length": 20,
          "start": 3240
        }
      ]
    },
    "contracts/position/PositionStoreUtils.sol": {
      "PositionStoreUtils": [
        {
          "length": 20,
          "start": 3012
        }
      ]
    },
    "contracts/reader/ReaderPoolUtils.sol": {
      "ReaderPoolUtils": [
        {
          "length": 20,
          "start": 728
        },
        {
          "length": 20,
          "start": 917
        },
        {
          "length": 20,
          "start": 1113
        },
        {
          "length": 20,
          "start": 1256
        },
        {
          "length": 20,
          "start": 1421
        }
      ]
    }
  }
}