{
  "_format": "hh-sol-artifact-1",
  "contractName": "PositionStoreUtils",
  "sourceName": "contracts/position/PositionStoreUtils.sol",
  "abi": [
    {
      "inputs": [],
      "name": "MaxPositionId",
      "type": "error"
    },
    {
      "inputs": [
        {
          "internalType": "bytes32",
          "name": "key",
          "type": "bytes32"
        }
      ],
      "name": "PositionNotFound",
      "type": "error"
    },
    {
      "inputs": [],
      "name": "ACCOUNT_POSITION",
      "outputs": [
        {
          "internalType": "bytes32",
          "name": "",
          "type": "bytes32"
        }
      ],
      "stateMutability": "view",
      "type": "function"
    },
    {
      "inputs": [],
      "name": "POS_ACCOUNT",
      "outputs": [
        {
          "internalType": "bytes32",
          "name": "",
          "type": "bytes32"
        }
      ],
      "stateMutability": "view",
      "type": "function"
    },
    {
      "inputs": [],
      "name": "POS_ACC_LONG_AMOUNT_0",
      "outputs": [
        {
          "internalType": "bytes32",
          "name": "",
          "type": "bytes32"
        }
      ],
      "stateMutability": "view",
      "type": "function"
    },
    {
      "inputs": [],
      "name": "POS_ACC_LONG_AMOUNT_1",
      "outputs": [
        {
          "internalType": "bytes32",
          "name": "",
          "type": "bytes32"
        }
      ],
      "stateMutability": "view",
      "type": "function"
    },
    {
      "inputs": [],
      "name": "POS_ACC_SHORT_AMOUNT_0",
      "outputs": [
        {
          "internalType": "bytes32",
          "name": "",
          "type": "bytes32"
        }
      ],
      "stateMutability": "view",
      "type": "function"
    },
    {
      "inputs": [],
      "name": "POS_ACC_SHORT_AMOUNT_1",
      "outputs": [
        {
          "internalType": "bytes32",
          "name": "",
          "type": "bytes32"
        }
      ],
      "stateMutability": "view",
      "type": "function"
    },
    {
      "inputs": [],
      "name": "POS_BORROWINDEX_0",
      "outputs": [
        {
          "internalType": "bytes32",
          "name": "",
          "type": "bytes32"
        }
      ],
      "stateMutability": "view",
      "type": "function"
    },
    {
      "inputs": [],
      "name": "POS_BORROWINDEX_1",
      "outputs": [
        {
          "internalType": "bytes32",
          "name": "",
          "type": "bytes32"
        }
      ],
      "stateMutability": "view",
      "type": "function"
    },
    {
      "inputs": [],
      "name": "POS_COLLATERAL_0",
      "outputs": [
        {
          "internalType": "bytes32",
          "name": "",
          "type": "bytes32"
        }
      ],
      "stateMutability": "view",
      "type": "function"
    },
    {
      "inputs": [],
      "name": "POS_COLLATERAL_1",
      "outputs": [
        {
          "internalType": "bytes32",
          "name": "",
          "type": "bytes32"
        }
      ],
      "stateMutability": "view",
      "type": "function"
    },
    {
      "inputs": [],
      "name": "POS_DEBTSCALED_0",
      "outputs": [
        {
          "internalType": "bytes32",
          "name": "",
          "type": "bytes32"
        }
      ],
      "stateMutability": "view",
      "type": "function"
    },
    {
      "inputs": [],
      "name": "POS_DEBTSCALED_1",
      "outputs": [
        {
          "internalType": "bytes32",
          "name": "",
          "type": "bytes32"
        }
      ],
      "stateMutability": "view",
      "type": "function"
    },
    {
      "inputs": [],
      "name": "POS_ENTRY_LONG_PRICE_0",
      "outputs": [
        {
          "internalType": "bytes32",
          "name": "",
          "type": "bytes32"
        }
      ],
      "stateMutability": "view",
      "type": "function"
    },
    {
      "inputs": [],
      "name": "POS_ENTRY_LONG_PRICE_1",
      "outputs": [
        {
          "internalType": "bytes32",
          "name": "",
          "type": "bytes32"
        }
      ],
      "stateMutability": "view",
      "type": "function"
    },
    {
      "inputs": [],
      "name": "POS_ENTRY_SHORT_PRICE_0",
      "outputs": [
        {
          "internalType": "bytes32",
          "name": "",
          "type": "bytes32"
        }
      ],
      "stateMutability": "view",
      "type": "function"
    },
    {
      "inputs": [],
      "name": "POS_ENTRY_SHORT_PRICE_1",
      "outputs": [
        {
          "internalType": "bytes32",
          "name": "",
          "type": "bytes32"
        }
      ],
      "stateMutability": "view",
      "type": "function"
    },
    {
      "inputs": [],
      "name": "POS_ID",
      "outputs": [
        {
          "internalType": "bytes32",
          "name": "",
          "type": "bytes32"
        }
      ],
      "stateMutability": "view",
      "type": "function"
    },
    {
      "inputs": [],
      "name": "POS_TOKEN_0",
      "outputs": [
        {
          "internalType": "bytes32",
          "name": "",
          "type": "bytes32"
        }
      ],
      "stateMutability": "view",
      "type": "function"
    },
    {
      "inputs": [],
      "name": "POS_TOKEN_1",
      "outputs": [
        {
          "internalType": "bytes32",
          "name": "",
          "type": "bytes32"
        }
      ],
      "stateMutability": "view",
      "type": "function"
    },
    {
      "inputs": [],
      "name": "POS_TYPE_0",
      "outputs": [
        {
          "internalType": "bytes32",
          "name": "",
          "type": "bytes32"
        }
      ],
      "stateMutability": "view",
      "type": "function"
    },
    {
      "inputs": [],
      "name": "POS_TYPE_1",
      "outputs": [
        {
          "internalType": "bytes32",
          "name": "",
          "type": "bytes32"
        }
      ],
      "stateMutability": "view",
      "type": "function"
    },
    {
      "inputs": [
        {
          "internalType": "address",
          "name": "dataStoreAddress",
          "type": "address"
        },
        {
          "internalType": "bytes32",
          "name": "key",
          "type": "bytes32"
        }
      ],
      "name": "get",
      "outputs": [
        {
          "components": [
            {
              "components": [
                {
                  "internalType": "address",
                  "name": "token",
                  "type": "address"
                },
                {
                  "internalType": "uint256",
                  "name": "collateral",
                  "type": "uint256"
                },
                {
                  "internalType": "uint256",
                  "name": "debtScaled",
                  "type": "uint256"
                },
                {
                  "internalType": "uint256",
                  "name": "entryLongPrice",
                  "type": "uint256"
                },
                {
                  "internalType": "uint256",
                  "name": "entryShortPrice",
                  "type": "uint256"
                },
                {
                  "internalType": "uint256",
                  "name": "accumulatedLongAmount",
                  "type": "uint256"
                },
                {
                  "internalType": "uint256",
                  "name": "accumulatedShortAmount",
                  "type": "uint256"
                },
                {
                  "internalType": "uint256",
                  "name": "positionType",
                  "type": "uint256"
                }
              ],
              "internalType": "struct Position.Asset[2]",
              "name": "assets",
              "type": "tuple[2]"
            },
            {
              "internalType": "uint256",
              "name": "id",
              "type": "uint256"
            },
            {
              "internalType": "address",
              "name": "account",
              "type": "address"
            }
          ],
          "internalType": "struct Position.Props",
          "name": "",
          "type": "tuple"
        }
      ],
      "stateMutability": "view",
      "type": "function"
    },
    {
      "inputs": [
        {
          "internalType": "address",
          "name": "dataStore",
          "type": "address"
        }
      ],
      "name": "getDebtSafetyFactor",
      "outputs": [
        {
          "internalType": "uint256",
          "name": "",
          "type": "uint256"
        }
      ],
      "stateMutability": "view",
      "type": "function"
    },
    {
      "inputs": [
        {
          "internalType": "address",
          "name": "dataStore",
          "type": "address"
        }
      ],
      "name": "getMarginLevelThreshold",
      "outputs": [
        {
          "internalType": "uint256",
          "name": "",
          "type": "uint256"
        }
      ],
      "stateMutability": "view",
      "type": "function"
    }
  ],
  "bytecode": "0x6155c7610052600b82828239805160001a6073146045577f4e487b7100000000000000000000000000000000000000000000000000000000600052600060045260246000fd5b30600052607381538281f3fe73000000000000000000000000000000000000000030146080604052600436106101e45760003560e01c80637b82d74e1161010e578063c2c1af2b116100ac578063ea5efc2d1161007b578063ea5efc2d14610595578063eeea7fac146105b3578063efb59f41146105d1578063f2b48957146105ef576101e4565b8063c2c1af2b1461051d578063d468e9521461053b578063d8978c4914610559578063ea379b7f14610577576101e4565b806390fc1646116100e857806390fc16461461045e5780639820aad61461048e578063a4150d5a146104b7578063b2aa83ec146104f4576101e4565b80637b82d74e146103f257806384afba3914610422578063868caff314610440576101e4565b806357c526ff11610186578063684b784511610155578063684b78451461036f5780636a0804421461038d5780636bd6b5d3146103ab57806370b5270e146103c9576101e4565b806357c526ff146102f757806358b8cb98146103155780635fc8f93214610333578063611e319114610351576101e4565b8063231c82d5116101c2578063231c82d5146102625780632d0bc6fc146102805780634c7281cc146102a957806357b91ca6146102c7576101e4565b80630157489d146101e95780630735437e146102265780630ef264a114610244575b600080fd5b8180156101f557600080fd5b50610210600480360381019061020b91906141f1565b61060d565b60405161021d919061424a565b60405180910390f35b61022e610729565b60405161023b919061427e565b60405180910390f35b61024c610751565b604051610259919061427e565b60405180910390f35b61026a610779565b604051610277919061427e565b60405180910390f35b81801561028c57600080fd5b506102a760048036038101906102a291906142c5565b6107a1565b005b6102b1610848565b6040516102be919061427e565b60405180910390f35b6102e160048036038101906102dc9190614305565b610870565b6040516102ee919061424a565b60405180910390f35b6102ff610917565b60405161030c919061427e565b60405180910390f35b61031d61093f565b60405161032a919061427e565b60405180910390f35b61033b610967565b604051610348919061427e565b60405180910390f35b61035961098f565b604051610366919061427e565b60405180910390f35b6103776109b7565b604051610384919061427e565b60405180910390f35b6103956109df565b6040516103a2919061427e565b60405180910390f35b6103b3610a07565b6040516103c0919061427e565b60405180910390f35b8180156103d557600080fd5b506103f060048036038101906103eb91906145dd565b610a2f565b005b61040c60048036038101906104079190614631565b611bc2565b6040516104199190614813565b60405180910390f35b61042a611bdc565b604051610437919061427e565b60405180910390f35b610448611c04565b604051610455919061427e565b60405180910390f35b61047860048036038101906104739190614305565b611c2c565b604051610485919061424a565b60405180910390f35b81801561049a57600080fd5b506104b560048036038101906104b091906142c5565b611cd3565b005b8180156104c357600080fd5b506104de60048036038101906104d991906141f1565b611d7a565b6040516104eb919061427e565b60405180910390f35b81801561050057600080fd5b5061051b6004803603810190610516919061482f565b611e82565b005b610525612d52565b604051610532919061427e565b60405180910390f35b610543612d7a565b604051610550919061427e565b60405180910390f35b610561612da2565b60405161056e919061427e565b60405180910390f35b61057f612dca565b60405161058c919061427e565b60405180910390f35b61059d612df2565b6040516105aa919061427e565b60405180910390f35b6105bb612e1a565b6040516105c8919061427e565b60405180910390f35b6105d9612e42565b6040516105e6919061427e565b60405180910390f35b6105f7612e6a565b604051610604919061427e565b60405180910390f35b60008083905060008173ffffffffffffffffffffffffffffffffffffffff1663340dbab3604051602001610640906148df565b604051602081830303815290604052805190602001208660405160200161066892919061491d565b6040516020818303038152906040528051906020012060016040518363ffffffff1660e01b815260040161069d92919061498b565b6020604051808303816000875af11580156106bc573d6000803e3d6000fd5b505050506040513d601f19601f820116820180604052508101906106e091906149c9565b9050627a1200811061071e576040517fb611be7400000000000000000000000000000000000000000000000000000000815260040160405180910390fd5b809250505092915050565b60405160200161073890614a42565b6040516020818303038152906040528051906020012081565b60405160200161076090614aae565b6040516020818303038152906040528051906020012081565b60405160200161078890614b1a565b6040516020818303038152906040528051906020012081565b8173ffffffffffffffffffffffffffffffffffffffff1663e2a4853a6040516020016107cc90614b86565b60405160208183030381529060405280519060200120836040518363ffffffff1660e01b8152600401610800929190614bb5565b6020604051808303816000875af115801561081f573d6000803e3d6000fd5b505050506040513d601f19601f8201168201806040525081019061084391906149c9565b505050565b60405160200161085790614c2a565b6040516020818303038152906040528051906020012081565b60008173ffffffffffffffffffffffffffffffffffffffff1663bd02d0f560405160200161089d90614b86565b604051602081830303815290604052805190602001206040518263ffffffff1660e01b81526004016108cf9190614c4a565b602060405180830381865afa1580156108ec573d6000803e3d6000fd5b505050506040513d601f19601f8201168201806040525081019061091091906149c9565b9050919050565b60405160200161092690614cb1565b6040516020818303038152906040528051906020012081565b60405160200161094e90614d1d565b6040516020818303038152906040528051906020012081565b60405160200161097690614d89565b6040516020818303038152906040528051906020012081565b60405160200161099e90614df5565b6040516020818303038152906040528051906020012081565b6040516020016109c690614e61565b6040516020818303038152906040528051906020012081565b6040516020016109ee90614ecd565b6040516020818303038152906040528051906020012081565b604051602001610a1690614f39565b6040516020818303038152906040528051906020012081565b60008390508073ffffffffffffffffffffffffffffffffffffffff1663c80f4c62604051602001610a5f90614fa5565b60405160208183030381529060405280519060200120856040518363ffffffff1660e01b8152600401610a93929190614fc5565b600060405180830381600087803b158015610aad57600080fd5b505af1158015610ac1573d6000803e3d6000fd5b505050508073ffffffffffffffffffffffffffffffffffffffff1663c80f4c62610aee8460400151612e92565b856040518363ffffffff1660e01b8152600401610b0c929190614fc5565b600060405180830381600087803b158015610b2657600080fd5b505af1158015610b3a573d6000803e3d6000fd5b505050508073ffffffffffffffffffffffffffffffffffffffff1663e2a4853a84604051602001610b6a9061503a565b60405160208183030381529060405280519060200120604051602001610b91929190614fc5565b6040516020818303038152906040528051906020012084602001516040518363ffffffff1660e01b8152600401610bc9929190614bb5565b6020604051808303816000875af1158015610be8573d6000803e3d6000fd5b505050506040513d601f19601f82011682018060405250810190610c0c91906149c9565b508073ffffffffffffffffffffffffffffffffffffffff1663ca446dd984604051602001610c3990614d89565b60405160208183030381529060405280519060200120604051602001610c60929190614fc5565b6040516020818303038152906040528051906020012084604001516040518363ffffffff1660e01b8152600401610c9892919061491d565b6020604051808303816000875af1158015610cb7573d6000803e3d6000fd5b505050506040513d601f19601f82011682018060405250810190610cdb919061506f565b508073ffffffffffffffffffffffffffffffffffffffff1663ca446dd984604051602001610d0890614d1d565b60405160208183030381529060405280519060200120604051602001610d2f929190614fc5565b604051602081830303815290604052805190602001208460000151600060ff1660028110610d6057610d5f61509c565b5b6020020151600001516040518363ffffffff1660e01b8152600401610d8692919061491d565b6020604051808303816000875af1158015610da5573d6000803e3d6000fd5b505050506040513d601f19601f82011682018060405250810190610dc9919061506f565b508073ffffffffffffffffffffffffffffffffffffffff1663e2a4853a84604051602001610df690615117565b60405160208183030381529060405280519060200120604051602001610e1d929190614fc5565b604051602081830303815290604052805190602001208460000151600060ff1660028110610e4e57610e4d61509c565b5b6020020151602001516040518363ffffffff1660e01b8152600401610e74929190614bb5565b6020604051808303816000875af1158015610e93573d6000803e3d6000fd5b505050506040513d601f19601f82011682018060405250810190610eb791906149c9565b508073ffffffffffffffffffffffffffffffffffffffff1663e2a4853a84604051602001610ee490615183565b60405160208183030381529060405280519060200120604051602001610f0b929190614fc5565b604051602081830303815290604052805190602001208460000151600060ff1660028110610f3c57610f3b61509c565b5b6020020151604001516040518363ffffffff1660e01b8152600401610f62929190614bb5565b6020604051808303816000875af1158015610f81573d6000803e3d6000fd5b505050506040513d601f19601f82011682018060405250810190610fa591906149c9565b508073ffffffffffffffffffffffffffffffffffffffff1663e2a4853a84604051602001610fd290614ecd565b60405160208183030381529060405280519060200120604051602001610ff9929190614fc5565b604051602081830303815290604052805190602001208460000151600060ff166002811061102a5761102961509c565b5b6020020151606001516040518363ffffffff1660e01b8152600401611050929190614bb5565b6020604051808303816000875af115801561106f573d6000803e3d6000fd5b505050506040513d601f19601f8201168201806040525081019061109391906149c9565b508073ffffffffffffffffffffffffffffffffffffffff1663e2a4853a846040516020016110c090614cb1565b604051602081830303815290604052805190602001206040516020016110e7929190614fc5565b604051602081830303815290604052805190602001208460000151600060ff16600281106111185761111761509c565b5b602002015160a001516040518363ffffffff1660e01b815260040161113e929190614bb5565b6020604051808303816000875af115801561115d573d6000803e3d6000fd5b505050506040513d601f19601f8201168201806040525081019061118191906149c9565b508073ffffffffffffffffffffffffffffffffffffffff1663e2a4853a846040516020016111ae906151ef565b604051602081830303815290604052805190602001206040516020016111d5929190614fc5565b604051602081830303815290604052805190602001208460000151600060ff16600281106112065761120561509c565b5b6020020151608001516040518363ffffffff1660e01b815260040161122c929190614bb5565b6020604051808303816000875af115801561124b573d6000803e3d6000fd5b505050506040513d601f19601f8201168201806040525081019061126f91906149c9565b508073ffffffffffffffffffffffffffffffffffffffff1663e2a4853a8460405160200161129c9061525b565b604051602081830303815290604052805190602001206040516020016112c3929190614fc5565b604051602081830303815290604052805190602001208460000151600060ff16600281106112f4576112f361509c565b5b602002015160c001516040518363ffffffff1660e01b815260040161131a929190614bb5565b6020604051808303816000875af1158015611339573d6000803e3d6000fd5b505050506040513d601f19601f8201168201806040525081019061135d91906149c9565b508073ffffffffffffffffffffffffffffffffffffffff1663e2a4853a8460405160200161138a90614c2a565b604051602081830303815290604052805190602001206040516020016113b1929190614fc5565b604051602081830303815290604052805190602001208460000151600060ff16600281106113e2576113e161509c565b5b602002015160e001516040518363ffffffff1660e01b8152600401611408929190614bb5565b6020604051808303816000875af1158015611427573d6000803e3d6000fd5b505050506040513d601f19601f8201168201806040525081019061144b91906149c9565b508073ffffffffffffffffffffffffffffffffffffffff1663ca446dd98460405160200161147890614df5565b6040516020818303038152906040528051906020012060405160200161149f929190614fc5565b604051602081830303815290604052805190602001208460000151600160ff16600281106114d0576114cf61509c565b5b6020020151600001516040518363ffffffff1660e01b81526004016114f692919061491d565b6020604051808303816000875af1158015611515573d6000803e3d6000fd5b505050506040513d601f19601f82011682018060405250810190611539919061506f565b508073ffffffffffffffffffffffffffffffffffffffff1663e2a4853a84604051602001611566906152c7565b6040516020818303038152906040528051906020012060405160200161158d929190614fc5565b604051602081830303815290604052805190602001208460000151600160ff16600281106115be576115bd61509c565b5b6020020151602001516040518363ffffffff1660e01b81526004016115e4929190614bb5565b6020604051808303816000875af1158015611603573d6000803e3d6000fd5b505050506040513d601f19601f8201168201806040525081019061162791906149c9565b508073ffffffffffffffffffffffffffffffffffffffff1663e2a4853a8460405160200161165490615333565b6040516020818303038152906040528051906020012060405160200161167b929190614fc5565b604051602081830303815290604052805190602001208460000151600160ff16600281106116ac576116ab61509c565b5b6020020151604001516040518363ffffffff1660e01b81526004016116d2929190614bb5565b6020604051808303816000875af11580156116f1573d6000803e3d6000fd5b505050506040513d601f19601f8201168201806040525081019061171591906149c9565b508073ffffffffffffffffffffffffffffffffffffffff1663e2a4853a846040516020016117429061539f565b60405160208183030381529060405280519060200120604051602001611769929190614fc5565b604051602081830303815290604052805190602001208460000151600160ff166002811061179a5761179961509c565b5b6020020151606001516040518363ffffffff1660e01b81526004016117c0929190614bb5565b6020604051808303816000875af11580156117df573d6000803e3d6000fd5b505050506040513d601f19601f8201168201806040525081019061180391906149c9565b508073ffffffffffffffffffffffffffffffffffffffff1663e2a4853a846040516020016118309061540b565b60405160208183030381529060405280519060200120604051602001611857929190614fc5565b604051602081830303815290604052805190602001208460000151600160ff16600281106118885761188761509c565b5b602002015160a001516040518363ffffffff1660e01b81526004016118ae929190614bb5565b6020604051808303816000875af11580156118cd573d6000803e3d6000fd5b505050506040513d601f19601f820116820180604052508101906118f191906149c9565b508073ffffffffffffffffffffffffffffffffffffffff1663e2a4853a8460405160200161191e90614f39565b60405160208183030381529060405280519060200120604051602001611945929190614fc5565b604051602081830303815290604052805190602001208460000151600160ff16600281106119765761197561509c565b5b6020020151608001516040518363ffffffff1660e01b815260040161199c929190614bb5565b6020604051808303816000875af11580156119bb573d6000803e3d6000fd5b505050506040513d601f19601f820116820180604052508101906119df91906149c9565b508073ffffffffffffffffffffffffffffffffffffffff1663e2a4853a84604051602001611a0c90614aae565b60405160208183030381529060405280519060200120604051602001611a33929190614fc5565b604051602081830303815290604052805190602001208460000151600160ff1660028110611a6457611a6361509c565b5b602002015160c001516040518363ffffffff1660e01b8152600401611a8a929190614bb5565b6020604051808303816000875af1158015611aa9573d6000803e3d6000fd5b505050506040513d601f19601f82011682018060405250810190611acd91906149c9565b508073ffffffffffffffffffffffffffffffffffffffff1663e2a4853a84604051602001611afa90614e61565b60405160208183030381529060405280519060200120604051602001611b21929190614fc5565b604051602081830303815290604052805190602001208460000151600160ff1660028110611b5257611b5161509c565b5b602002015160e001516040518363ffffffff1660e01b8152600401611b78929190614bb5565b6020604051808303816000875af1158015611b97573d6000803e3d6000fd5b505050506040513d601f19601f82011682018060405250810190611bbb91906149c9565b5050505050565b611bca6140bf565b611bd48383612ee8565b905092915050565b604051602001611beb906148df565b6040516020818303038152906040528051906020012081565b604051602001611c139061540b565b6040516020818303038152906040528051906020012081565b60008173ffffffffffffffffffffffffffffffffffffffff1663bd02d0f5604051602001611c5990615477565b604051602081830303815290604052805190602001206040518263ffffffff1660e01b8152600401611c8b9190614c4a565b602060405180830381865afa158015611ca8573d6000803e3d6000fd5b505050506040513d601f19601f82011682018060405250810190611ccc91906149c9565b9050919050565b8173ffffffffffffffffffffffffffffffffffffffff1663e2a4853a604051602001611cfe90615477565b60405160208183030381529060405280519060200120836040518363ffffffff1660e01b8152600401611d32929190614bb5565b6020604051808303816000875af1158015611d51573d6000803e3d6000fd5b505050506040513d601f19601f82011682018060405250810190611d7591906149c9565b505050565b60008083905060008173ffffffffffffffffffffffffffffffffffffffff1663340dbab3604051602001611dad906148df565b6040516020818303038152906040528051906020012086604051602001611dd592919061491d565b6040516020818303038152906040528051906020012060016040518363ffffffff1660e01b8152600401611e0a92919061498b565b6020604051808303816000875af1158015611e29573d6000803e3d6000fd5b505050506040513d601f19601f82011682018060405250810190611e4d91906149c9565b90508381604051602001611e62929190615497565b604051602081830303815290604052805190602001209250505092915050565b60008390508073ffffffffffffffffffffffffffffffffffffffff166391d4403c604051602001611eb290614fa5565b60405160208183030381529060405280519060200120856040518363ffffffff1660e01b8152600401611ee6929190614fc5565b602060405180830381865afa158015611f03573d6000803e3d6000fd5b505050506040513d601f19601f82011682018060405250810190611f2791906154f8565b611f6857826040517f426cfff0000000000000000000000000000000000000000000000000000000008152600401611f5f9190614c4a565b60405180910390fd5b8073ffffffffffffffffffffffffffffffffffffffff16639921c3cc604051602001611f9390614fa5565b60405160208183030381529060405280519060200120856040518363ffffffff1660e01b8152600401611fc7929190614fc5565b600060405180830381600087803b158015611fe157600080fd5b505af1158015611ff5573d6000803e3d6000fd5b505050508073ffffffffffffffffffffffffffffffffffffffff16639921c3cc61201e84612e92565b856040518363ffffffff1660e01b815260040161203c929190614fc5565b600060405180830381600087803b15801561205657600080fd5b505af115801561206a573d6000803e3d6000fd5b505050508073ffffffffffffffffffffffffffffffffffffffff166342c3bd968460405160200161209a9061503a565b604051602081830303815290604052805190602001206040516020016120c1929190614fc5565b604051602081830303815290604052805190602001206040518263ffffffff1660e01b81526004016120f39190614c4a565b600060405180830381600087803b15801561210d57600080fd5b505af1158015612121573d6000803e3d6000fd5b505050508073ffffffffffffffffffffffffffffffffffffffff16639faf6fb68460405160200161215190614d89565b60405160208183030381529060405280519060200120604051602001612178929190614fc5565b604051602081830303815290604052805190602001206040518263ffffffff1660e01b81526004016121aa9190614c4a565b600060405180830381600087803b1580156121c457600080fd5b505af11580156121d8573d6000803e3d6000fd5b505050508073ffffffffffffffffffffffffffffffffffffffff16639faf6fb68460405160200161220890614d1d565b6040516020818303038152906040528051906020012060405160200161222f929190614fc5565b604051602081830303815290604052805190602001206040518263ffffffff1660e01b81526004016122619190614c4a565b600060405180830381600087803b15801561227b57600080fd5b505af115801561228f573d6000803e3d6000fd5b505050508073ffffffffffffffffffffffffffffffffffffffff166342c3bd96846040516020016122bf90615117565b604051602081830303815290604052805190602001206040516020016122e6929190614fc5565b604051602081830303815290604052805190602001206040518263ffffffff1660e01b81526004016123189190614c4a565b600060405180830381600087803b15801561233257600080fd5b505af1158015612346573d6000803e3d6000fd5b505050508073ffffffffffffffffffffffffffffffffffffffff166342c3bd968460405160200161237690615183565b6040516020818303038152906040528051906020012060405160200161239d929190614fc5565b604051602081830303815290604052805190602001206040518263ffffffff1660e01b81526004016123cf9190614c4a565b600060405180830381600087803b1580156123e957600080fd5b505af11580156123fd573d6000803e3d6000fd5b505050508073ffffffffffffffffffffffffffffffffffffffff166342c3bd968460405160200161242d90614ecd565b60405160208183030381529060405280519060200120604051602001612454929190614fc5565b604051602081830303815290604052805190602001206040518263ffffffff1660e01b81526004016124869190614c4a565b600060405180830381600087803b1580156124a057600080fd5b505af11580156124b4573d6000803e3d6000fd5b505050508073ffffffffffffffffffffffffffffffffffffffff166342c3bd96846040516020016124e490614cb1565b6040516020818303038152906040528051906020012060405160200161250b929190614fc5565b604051602081830303815290604052805190602001206040518263ffffffff1660e01b815260040161253d9190614c4a565b600060405180830381600087803b15801561255757600080fd5b505af115801561256b573d6000803e3d6000fd5b505050508073ffffffffffffffffffffffffffffffffffffffff166342c3bd968460405160200161259b906151ef565b604051602081830303815290604052805190602001206040516020016125c2929190614fc5565b604051602081830303815290604052805190602001206040518263ffffffff1660e01b81526004016125f49190614c4a565b600060405180830381600087803b15801561260e57600080fd5b505af1158015612622573d6000803e3d6000fd5b505050508073ffffffffffffffffffffffffffffffffffffffff166342c3bd96846040516020016126529061525b565b60405160208183030381529060405280519060200120604051602001612679929190614fc5565b604051602081830303815290604052805190602001206040518263ffffffff1660e01b81526004016126ab9190614c4a565b600060405180830381600087803b1580156126c557600080fd5b505af11580156126d9573d6000803e3d6000fd5b505050508073ffffffffffffffffffffffffffffffffffffffff166342c3bd968460405160200161270990614c2a565b60405160208183030381529060405280519060200120604051602001612730929190614fc5565b604051602081830303815290604052805190602001206040518263ffffffff1660e01b81526004016127629190614c4a565b600060405180830381600087803b15801561277c57600080fd5b505af1158015612790573d6000803e3d6000fd5b505050508073ffffffffffffffffffffffffffffffffffffffff16639faf6fb6846040516020016127c090614df5565b604051602081830303815290604052805190602001206040516020016127e7929190614fc5565b604051602081830303815290604052805190602001206040518263ffffffff1660e01b81526004016128199190614c4a565b600060405180830381600087803b15801561283357600080fd5b505af1158015612847573d6000803e3d6000fd5b505050508073ffffffffffffffffffffffffffffffffffffffff166342c3bd9684604051602001612877906152c7565b6040516020818303038152906040528051906020012060405160200161289e929190614fc5565b604051602081830303815290604052805190602001206040518263ffffffff1660e01b81526004016128d09190614c4a565b600060405180830381600087803b1580156128ea57600080fd5b505af11580156128fe573d6000803e3d6000fd5b505050508073ffffffffffffffffffffffffffffffffffffffff166342c3bd968460405160200161292e90615333565b60405160208183030381529060405280519060200120604051602001612955929190614fc5565b604051602081830303815290604052805190602001206040518263ffffffff1660e01b81526004016129879190614c4a565b600060405180830381600087803b1580156129a157600080fd5b505af11580156129b5573d6000803e3d6000fd5b505050508073ffffffffffffffffffffffffffffffffffffffff166342c3bd96846040516020016129e59061539f565b60405160208183030381529060405280519060200120604051602001612a0c929190614fc5565b604051602081830303815290604052805190602001206040518263ffffffff1660e01b8152600401612a3e9190614c4a565b600060405180830381600087803b158015612a5857600080fd5b505af1158015612a6c573d6000803e3d6000fd5b505050508073ffffffffffffffffffffffffffffffffffffffff166342c3bd9684604051602001612a9c9061540b565b60405160208183030381529060405280519060200120604051602001612ac3929190614fc5565b604051602081830303815290604052805190602001206040518263ffffffff1660e01b8152600401612af59190614c4a565b600060405180830381600087803b158015612b0f57600080fd5b505af1158015612b23573d6000803e3d6000fd5b505050508073ffffffffffffffffffffffffffffffffffffffff166342c3bd9684604051602001612b5390614f39565b60405160208183030381529060405280519060200120604051602001612b7a929190614fc5565b604051602081830303815290604052805190602001206040518263ffffffff1660e01b8152600401612bac9190614c4a565b600060405180830381600087803b158015612bc657600080fd5b505af1158015612bda573d6000803e3d6000fd5b505050508073ffffffffffffffffffffffffffffffffffffffff166342c3bd9684604051602001612c0a90614aae565b60405160208183030381529060405280519060200120604051602001612c31929190614fc5565b604051602081830303815290604052805190602001206040518263ffffffff1660e01b8152600401612c639190614c4a565b600060405180830381600087803b158015612c7d57600080fd5b505af1158015612c91573d6000803e3d6000fd5b505050508073ffffffffffffffffffffffffffffffffffffffff166342c3bd9684604051602001612cc190614e61565b60405160208183030381529060405280519060200120604051602001612ce8929190614fc5565b604051602081830303815290604052805190602001206040518263ffffffff1660e01b8152600401612d1a9190614c4a565b600060405180830381600087803b158015612d3457600080fd5b505af1158015612d48573d6000803e3d6000fd5b5050505050505050565b604051602001612d6190615183565b6040516020818303038152906040528051906020012081565b604051602001612d8990615117565b6040516020818303038152906040528051906020012081565b604051602001612db1906151ef565b6040516020818303038152906040528051906020012081565b604051602001612dd990615333565b6040516020818303038152906040528051906020012081565b604051602001612e019061525b565b6040516020818303038152906040528051906020012081565b604051602001612e299061539f565b6040516020818303038152906040528051906020012081565b604051602001612e519061503a565b6040516020818303038152906040528051906020012081565b604051602001612e79906152c7565b6040516020818303038152906040528051906020012081565b6000604051602001612ea390615571565b6040516020818303038152906040528051906020012082604051602001612ecb92919061491d565b604051602081830303815290604052805190602001209050919050565b612ef06140bf565b6000839050612efd6140bf565b8173ffffffffffffffffffffffffffffffffffffffff166391d4403c604051602001612f2890614fa5565b60405160208183030381529060405280519060200120866040518363ffffffff1660e01b8152600401612f5c929190614fc5565b602060405180830381865afa158015612f79573d6000803e3d6000fd5b505050506040513d601f19601f82011682018060405250810190612f9d91906154f8565b612fab5780925050506140b9565b8173ffffffffffffffffffffffffffffffffffffffff1663bd02d0f585604051602001612fd79061503a565b60405160208183030381529060405280519060200120604051602001612ffe929190614fc5565b604051602081830303815290604052805190602001206040518263ffffffff1660e01b81526004016130309190614c4a565b602060405180830381865afa15801561304d573d6000803e3d6000fd5b505050506040513d601f19601f8201168201806040525081019061307191906149c9565b8160200181815250508173ffffffffffffffffffffffffffffffffffffffff166321f8a721856040516020016130a690614d89565b604051602081830303815290604052805190602001206040516020016130cd929190614fc5565b604051602081830303815290604052805190602001206040518263ffffffff1660e01b81526004016130ff9190614c4a565b602060405180830381865afa15801561311c573d6000803e3d6000fd5b505050506040513d601f19601f82011682018060405250810190613140919061506f565b816040019073ffffffffffffffffffffffffffffffffffffffff16908173ffffffffffffffffffffffffffffffffffffffff16815250508173ffffffffffffffffffffffffffffffffffffffff166321f8a721856040516020016131a390614d1d565b604051602081830303815290604052805190602001206040516020016131ca929190614fc5565b604051602081830303815290604052805190602001206040518263ffffffff1660e01b81526004016131fc9190614c4a565b602060405180830381865afa158015613219573d6000803e3d6000fd5b505050506040513d601f19601f8201168201806040525081019061323d919061506f565b8160000151600060ff16600281106132585761325761509c565b5b60200201516000019073ffffffffffffffffffffffffffffffffffffffff16908173ffffffffffffffffffffffffffffffffffffffff16815250508173ffffffffffffffffffffffffffffffffffffffff1663bd02d0f5856040516020016132bf90615117565b604051602081830303815290604052805190602001206040516020016132e6929190614fc5565b604051602081830303815290604052805190602001206040518263ffffffff1660e01b81526004016133189190614c4a565b602060405180830381865afa158015613335573d6000803e3d6000fd5b505050506040513d601f19601f8201168201806040525081019061335991906149c9565b8160000151600060ff16600281106133745761337361509c565b5b602002015160200181815250508173ffffffffffffffffffffffffffffffffffffffff1663bd02d0f5856040516020016133ad90615183565b604051602081830303815290604052805190602001206040516020016133d4929190614fc5565b604051602081830303815290604052805190602001206040518263ffffffff1660e01b81526004016134069190614c4a565b602060405180830381865afa158015613423573d6000803e3d6000fd5b505050506040513d601f19601f8201168201806040525081019061344791906149c9565b8160000151600060ff16600281106134625761346161509c565b5b602002015160400181815250508173ffffffffffffffffffffffffffffffffffffffff1663bd02d0f58560405160200161349b90614ecd565b604051602081830303815290604052805190602001206040516020016134c2929190614fc5565b604051602081830303815290604052805190602001206040518263ffffffff1660e01b81526004016134f49190614c4a565b602060405180830381865afa158015613511573d6000803e3d6000fd5b505050506040513d601f19601f8201168201806040525081019061353591906149c9565b8160000151600060ff16600281106135505761354f61509c565b5b602002015160600181815250508173ffffffffffffffffffffffffffffffffffffffff1663bd02d0f58560405160200161358990614cb1565b604051602081830303815290604052805190602001206040516020016135b0929190614fc5565b604051602081830303815290604052805190602001206040518263ffffffff1660e01b81526004016135e29190614c4a565b602060405180830381865afa1580156135ff573d6000803e3d6000fd5b505050506040513d601f19601f8201168201806040525081019061362391906149c9565b8160000151600060ff166002811061363e5761363d61509c565b5b602002015160a00181815250508173ffffffffffffffffffffffffffffffffffffffff1663bd02d0f585604051602001613677906151ef565b6040516020818303038152906040528051906020012060405160200161369e929190614fc5565b604051602081830303815290604052805190602001206040518263ffffffff1660e01b81526004016136d09190614c4a565b602060405180830381865afa1580156136ed573d6000803e3d6000fd5b505050506040513d601f19601f8201168201806040525081019061371191906149c9565b8160000151600060ff166002811061372c5761372b61509c565b5b602002015160800181815250508173ffffffffffffffffffffffffffffffffffffffff1663bd02d0f5856040516020016137659061525b565b6040516020818303038152906040528051906020012060405160200161378c929190614fc5565b604051602081830303815290604052805190602001206040518263ffffffff1660e01b81526004016137be9190614c4a565b602060405180830381865afa1580156137db573d6000803e3d6000fd5b505050506040513d601f19601f820116820180604052508101906137ff91906149c9565b8160000151600060ff166002811061381a5761381961509c565b5b602002015160c00181815250508173ffffffffffffffffffffffffffffffffffffffff1663bd02d0f58560405160200161385390614c2a565b6040516020818303038152906040528051906020012060405160200161387a929190614fc5565b604051602081830303815290604052805190602001206040518263ffffffff1660e01b81526004016138ac9190614c4a565b602060405180830381865afa1580156138c9573d6000803e3d6000fd5b505050506040513d601f19601f820116820180604052508101906138ed91906149c9565b8160000151600060ff16600281106139085761390761509c565b5b602002015160e00181815250508173ffffffffffffffffffffffffffffffffffffffff166321f8a7218560405160200161394190614df5565b60405160208183030381529060405280519060200120604051602001613968929190614fc5565b604051602081830303815290604052805190602001206040518263ffffffff1660e01b815260040161399a9190614c4a565b602060405180830381865afa1580156139b7573d6000803e3d6000fd5b505050506040513d601f19601f820116820180604052508101906139db919061506f565b8160000151600160ff16600281106139f6576139f561509c565b5b60200201516000019073ffffffffffffffffffffffffffffffffffffffff16908173ffffffffffffffffffffffffffffffffffffffff16815250508173ffffffffffffffffffffffffffffffffffffffff1663bd02d0f585604051602001613a5d906152c7565b60405160208183030381529060405280519060200120604051602001613a84929190614fc5565b604051602081830303815290604052805190602001206040518263ffffffff1660e01b8152600401613ab69190614c4a565b602060405180830381865afa158015613ad3573d6000803e3d6000fd5b505050506040513d601f19601f82011682018060405250810190613af791906149c9565b8160000151600160ff1660028110613b1257613b1161509c565b5b602002015160200181815250508173ffffffffffffffffffffffffffffffffffffffff1663bd02d0f585604051602001613b4b90615333565b60405160208183030381529060405280519060200120604051602001613b72929190614fc5565b604051602081830303815290604052805190602001206040518263ffffffff1660e01b8152600401613ba49190614c4a565b602060405180830381865afa158015613bc1573d6000803e3d6000fd5b505050506040513d601f19601f82011682018060405250810190613be591906149c9565b8160000151600160ff1660028110613c0057613bff61509c565b5b602002015160400181815250508173ffffffffffffffffffffffffffffffffffffffff1663bd02d0f585604051602001613c399061539f565b60405160208183030381529060405280519060200120604051602001613c60929190614fc5565b604051602081830303815290604052805190602001206040518263ffffffff1660e01b8152600401613c929190614c4a565b602060405180830381865afa158015613caf573d6000803e3d6000fd5b505050506040513d601f19601f82011682018060405250810190613cd391906149c9565b8160000151600160ff1660028110613cee57613ced61509c565b5b602002015160600181815250508173ffffffffffffffffffffffffffffffffffffffff1663bd02d0f585604051602001613d279061540b565b60405160208183030381529060405280519060200120604051602001613d4e929190614fc5565b604051602081830303815290604052805190602001206040518263ffffffff1660e01b8152600401613d809190614c4a565b602060405180830381865afa158015613d9d573d6000803e3d6000fd5b505050506040513d601f19601f82011682018060405250810190613dc191906149c9565b8160000151600160ff1660028110613ddc57613ddb61509c565b5b602002015160a00181815250508173ffffffffffffffffffffffffffffffffffffffff1663bd02d0f585604051602001613e1590614f39565b60405160208183030381529060405280519060200120604051602001613e3c929190614fc5565b604051602081830303815290604052805190602001206040518263ffffffff1660e01b8152600401613e6e9190614c4a565b602060405180830381865afa158015613e8b573d6000803e3d6000fd5b505050506040513d601f19601f82011682018060405250810190613eaf91906149c9565b8160000151600160ff1660028110613eca57613ec961509c565b5b602002015160800181815250508173ffffffffffffffffffffffffffffffffffffffff1663bd02d0f585604051602001613f0390614aae565b60405160208183030381529060405280519060200120604051602001613f2a929190614fc5565b604051602081830303815290604052805190602001206040518263ffffffff1660e01b8152600401613f5c9190614c4a565b602060405180830381865afa158015613f79573d6000803e3d6000fd5b505050506040513d601f19601f82011682018060405250810190613f9d91906149c9565b8160000151600160ff1660028110613fb857613fb761509c565b5b602002015160c00181815250508173ffffffffffffffffffffffffffffffffffffffff1663bd02d0f585604051602001613ff190614e61565b60405160208183030381529060405280519060200120604051602001614018929190614fc5565b604051602081830303815290604052805190602001206040518263ffffffff1660e01b815260040161404a9190614c4a565b602060405180830381865afa158015614067573d6000803e3d6000fd5b505050506040513d601f19601f8201168201806040525081019061408b91906149c9565b8160000151600160ff16600281106140a6576140a561509c565b5b602002015160e001818152505080925050505b92915050565b60405180606001604052806140d26140fc565b815260200160008152602001600073ffffffffffffffffffffffffffffffffffffffff1681525090565b60405180604001604052806002905b614113614129565b81526020019060019003908161410b5790505090565b604051806101000160405280600073ffffffffffffffffffffffffffffffffffffffff168152602001600081526020016000815260200160008152602001600081526020016000815260200160008152602001600081525090565b6000604051905090565b600080fd5b600073ffffffffffffffffffffffffffffffffffffffff82169050919050565b60006141be82614193565b9050919050565b6141ce816141b3565b81146141d957600080fd5b50565b6000813590506141eb816141c5565b92915050565b600080604083850312156142085761420761418e565b5b6000614216858286016141dc565b9250506020614227858286016141dc565b9150509250929050565b6000819050919050565b61424481614231565b82525050565b600060208201905061425f600083018461423b565b92915050565b6000819050919050565b61427881614265565b82525050565b6000602082019050614293600083018461426f565b92915050565b6142a281614231565b81146142ad57600080fd5b50565b6000813590506142bf81614299565b92915050565b600080604083850312156142dc576142db61418e565b5b60006142ea858286016141dc565b92505060206142fb858286016142b0565b9150509250929050565b60006020828403121561431b5761431a61418e565b5b6000614329848285016141dc565b91505092915050565b61433b81614265565b811461434657600080fd5b50565b60008135905061435881614332565b92915050565b600080fd5b6000601f19601f8301169050919050565b7f4e487b7100000000000000000000000000000000000000000000000000000000600052604160045260246000fd5b6143ac82614363565b810181811067ffffffffffffffff821117156143cb576143ca614374565b5b80604052505050565b60006143de614184565b90506143ea82826143a3565b919050565b600080fd5b600067ffffffffffffffff82111561440f5761440e614374565b5b602082029050919050565b600080fd5b600061010082840312156144365761443561435e565b5b6144416101006143d4565b90506000614451848285016141dc565b6000830152506020614465848285016142b0565b6020830152506040614479848285016142b0565b604083015250606061448d848285016142b0565b60608301525060806144a1848285016142b0565b60808301525060a06144b5848285016142b0565b60a08301525060c06144c9848285016142b0565b60c08301525060e06144dd848285016142b0565b60e08301525092915050565b60006144fc6144f7846143f4565b6143d4565b90508061010084028301858111156145175761451661441a565b5b835b81811015614541578061452c888261441f565b84526020840193505061010081019050614519565b5050509392505050565b600082601f8301126145605761455f6143ef565b5b600261456d8482856144e9565b91505092915050565b6000610240828403121561458d5761458c61435e565b5b61459760606143d4565b905060006145a78482850161454b565b6000830152506102006145bc848285016142b0565b6020830152506102206145d1848285016141dc565b60408301525092915050565b600080600061028084860312156145f7576145f661418e565b5b6000614605868287016141dc565b935050602061461686828701614349565b925050604061462786828701614576565b9150509250925092565b600080604083850312156146485761464761418e565b5b6000614656858286016141dc565b925050602061466785828601614349565b9150509250929050565b600060029050919050565b600081905092915050565b6000819050919050565b61469a816141b3565b82525050565b6146a981614231565b82525050565b610100820160008201516146c66000850182614691565b5060208201516146d960208501826146a0565b5060408201516146ec60408501826146a0565b5060608201516146ff60608501826146a0565b50608082015161471260808501826146a0565b5060a082015161472560a08501826146a0565b5060c082015161473860c08501826146a0565b5060e082015161474b60e08501826146a0565b50505050565b600061475d83836146af565b6101008301905092915050565b6000602082019050919050565b61478081614671565b61478a818461467c565b925061479582614687565b8060005b838110156147c65781516147ad8782614751565b96506147b88361476a565b925050600181019050614799565b505050505050565b610240820160008201516147e56000850182614777565b5060208201516147f96102008501826146a0565b50604082015161480d610220850182614691565b50505050565b60006102408201905061482960008301846147ce565b92915050565b6000806000606084860312156148485761484761418e565b5b6000614856868287016141dc565b935050602061486786828701614349565b9250506040614878868287016141dc565b9150509250925092565b600082825260208201905092915050565b7f4143434f554e545f504f534954494f4e00000000000000000000000000000000600082015250565b60006148c9601083614882565b91506148d482614893565b602082019050919050565b600060208201905081810360008301526148f8816148bc565b9050919050565b61490881614265565b82525050565b614917816141b3565b82525050565b600060408201905061493260008301856148ff565b61493f602083018461490e565b9392505050565b6000819050919050565b6000819050919050565b600061497561497061496b84614946565b614950565b614231565b9050919050565b6149858161495a565b82525050565b60006040820190506149a060008301856148ff565b6149ad602083018461497c565b9392505050565b6000815190506149c381614299565b92915050565b6000602082840312156149df576149de61418e565b5b60006149ed848285016149b4565b91505092915050565b7f504f535f424f52524f57494e4445585f31000000000000000000000000000000600082015250565b6000614a2c601183614882565b9150614a37826149f6565b602082019050919050565b60006020820190508181036000830152614a5b81614a1f565b9050919050565b7f504f535f4143435f53484f52545f414d4f554e545f3100000000000000000000600082015250565b6000614a98601683614882565b9150614aa382614a62565b602082019050919050565b60006020820190508181036000830152614ac781614a8b565b9050919050565b7f504f535f424f52524f57494e4445585f30000000000000000000000000000000600082015250565b6000614b04601183614882565b9150614b0f82614ace565b602082019050919050565b60006020820190508181036000830152614b3381614af7565b9050919050565b7f4d415247494e5f4c4556454c4c5f5448524553484f4c44000000000000000000600082015250565b6000614b70601783614882565b9150614b7b82614b3a565b602082019050919050565b60006020820190508181036000830152614b9f81614b63565b9050919050565b614baf81614231565b82525050565b6000604082019050614bca60008301856148ff565b614bd76020830184614ba6565b9392505050565b7f504f535f545950455f3000000000000000000000000000000000000000000000600082015250565b6000614c14600a83614882565b9150614c1f82614bde565b602082019050919050565b60006020820190508181036000830152614c4381614c07565b9050919050565b6000602082019050614c5f60008301846148ff565b92915050565b7f504f535f4143435f4c4f4e475f414d4f554e545f300000000000000000000000600082015250565b6000614c9b601583614882565b9150614ca682614c65565b602082019050919050565b60006020820190508181036000830152614cca81614c8e565b9050919050565b7f504f535f544f4b454e5f30000000000000000000000000000000000000000000600082015250565b6000614d07600b83614882565b9150614d1282614cd1565b602082019050919050565b60006020820190508181036000830152614d3681614cfa565b9050919050565b7f504f535f4143434f554e54000000000000000000000000000000000000000000600082015250565b6000614d73600b83614882565b9150614d7e82614d3d565b602082019050919050565b60006020820190508181036000830152614da281614d66565b9050919050565b7f504f535f544f4b454e5f31000000000000000000000000000000000000000000600082015250565b6000614ddf600b83614882565b9150614dea82614da9565b602082019050919050565b60006020820190508181036000830152614e0e81614dd2565b9050919050565b7f504f535f545950455f3100000000000000000000000000000000000000000000600082015250565b6000614e4b600a83614882565b9150614e5682614e15565b602082019050919050565b60006020820190508181036000830152614e7a81614e3e565b9050919050565b7f504f535f454e5452595f4c4f4e475f50524943455f3000000000000000000000600082015250565b6000614eb7601683614882565b9150614ec282614e81565b602082019050919050565b60006020820190508181036000830152614ee681614eaa565b9050919050565b7f504f535f454e5452595f53484f52545f50524943455f31000000000000000000600082015250565b6000614f23601783614882565b9150614f2e82614eed565b602082019050919050565b60006020820190508181036000830152614f5281614f16565b9050919050565b7f504f534954494f4e5f4c49535400000000000000000000000000000000000000600082015250565b6000614f8f600d83614882565b9150614f9a82614f59565b602082019050919050565b60006020820190508181036000830152614fbe81614f82565b9050919050565b6000604082019050614fda60008301856148ff565b614fe760208301846148ff565b9392505050565b7f504f535f49440000000000000000000000000000000000000000000000000000600082015250565b6000615024600683614882565b915061502f82614fee565b602082019050919050565b6000602082019050818103600083015261505381615017565b9050919050565b600081519050615069816141c5565b92915050565b6000602082840312156150855761508461418e565b5b60006150938482850161505a565b91505092915050565b7f4e487b7100000000000000000000000000000000000000000000000000000000600052603260045260246000fd5b7f504f535f434f4c4c41544552414c5f3000000000000000000000000000000000600082015250565b6000615101601083614882565b915061510c826150cb565b602082019050919050565b60006020820190508181036000830152615130816150f4565b9050919050565b7f504f535f444542545343414c45445f3000000000000000000000000000000000600082015250565b600061516d601083614882565b915061517882615137565b602082019050919050565b6000602082019050818103600083015261519c81615160565b9050919050565b7f504f535f454e5452595f53484f52545f50524943455f30000000000000000000600082015250565b60006151d9601783614882565b91506151e4826151a3565b602082019050919050565b60006020820190508181036000830152615208816151cc565b9050919050565b7f504f535f4143435f53484f52545f414d4f554e545f3000000000000000000000600082015250565b6000615245601683614882565b91506152508261520f565b602082019050919050565b6000602082019050818103600083015261527481615238565b9050919050565b7f504f535f434f4c4c41544552414c5f3100000000000000000000000000000000600082015250565b60006152b1601083614882565b91506152bc8261527b565b602082019050919050565b600060208201905081810360008301526152e0816152a4565b9050919050565b7f504f535f444542545343414c45445f3100000000000000000000000000000000600082015250565b600061531d601083614882565b9150615328826152e7565b602082019050919050565b6000602082019050818103600083015261534c81615310565b9050919050565b7f504f535f454e5452595f4c4f4e475f50524943455f3100000000000000000000600082015250565b6000615389601683614882565b915061539482615353565b602082019050919050565b600060208201905081810360008301526153b88161537c565b9050919050565b7f504f535f4143435f4c4f4e475f414d4f554e545f310000000000000000000000600082015250565b60006153f5601583614882565b9150615400826153bf565b602082019050919050565b60006020820190508181036000830152615424816153e8565b9050919050565b7f444542545f5341464554595f464143544f520000000000000000000000000000600082015250565b6000615461601283614882565b915061546c8261542b565b602082019050919050565b6000602082019050818103600083015261549081615454565b9050919050565b60006040820190506154ac600083018561490e565b6154b96020830184614ba6565b9392505050565b60008115159050919050565b6154d5816154c0565b81146154e057600080fd5b50565b6000815190506154f2816154cc565b92915050565b60006020828403121561550e5761550d61418e565b5b600061551c848285016154e3565b91505092915050565b7f4143434f554e545f504f534954494f4e5f4c4953540000000000000000000000600082015250565b600061555b601583614882565b915061556682615525565b602082019050919050565b6000602082019050818103600083015261558a8161554e565b905091905056fea2646970667358221220c6ebfe3fe9405e6c1feaa03dbdaa29cfe1aad5889d7b3999231cbce758a969b864736f6c634300081b0033",
  "linkReferences": {},
  "deployedLinkReferences": {}
}