{
  "_format": "hh-sol-artifact-1",
  "contractName": "EventUtils",
  "sourceName": "contracts/event/EventUtils.sol",
  "abi": [
    {
      "inputs": [],
      "name": "BORROW",
      "outputs": [
        {
          "internalType": "uint8",
          "name": "",
          "type": "uint8"
        }
      ],
      "stateMutability": "view",
      "type": "function"
    },
    {
      "inputs": [],
      "name": "CLOSE",
      "outputs": [
        {
          "internalType": "uint8",
          "name": "",
          "type": "uint8"
        }
      ],
      "stateMutability": "view",
      "type": "function"
    },
    {
      "inputs": [],
      "name": "DEPOSIT",
      "outputs": [
        {
          "internalType": "uint8",
          "name": "",
          "type": "uint8"
        }
      ],
      "stateMutability": "view",
      "type": "function"
    },
    {
      "inputs": [],
      "name": "LIQUIDATION",
      "outputs": [
        {
          "internalType": "uint8",
          "name": "",
          "type": "uint8"
        }
      ],
      "stateMutability": "view",
      "type": "function"
    },
    {
      "inputs": [],
      "name": "REPAY",
      "outputs": [
        {
          "internalType": "uint8",
          "name": "",
          "type": "uint8"
        }
      ],
      "stateMutability": "view",
      "type": "function"
    },
    {
      "inputs": [],
      "name": "SWAP",
      "outputs": [
        {
          "internalType": "uint8",
          "name": "",
          "type": "uint8"
        }
      ],
      "stateMutability": "view",
      "type": "function"
    },
    {
      "inputs": [],
      "name": "WITHDRAW",
      "outputs": [
        {
          "internalType": "uint8",
          "name": "",
          "type": "uint8"
        }
      ],
      "stateMutability": "view",
      "type": "function"
    }
  ],
  "bytecode": "0x6101ee610052600b82828239805160001a6073146045577f4e487b7100000000000000000000000000000000000000000000000000000000600052600060045260246000fd5b30600052607381538281f3fe73000000000000000000000000000000000000000030146080604052600436106100875760003560e01c8063721672b211610065578063721672b2146100e65780637610edd4146101045780638500aca914610122578063d81c8e521461014057610087565b806304d841081461008c57806316ba7197146100aa57806350a55fe6146100c8575b600080fd5b61009461015e565b6040516100a1919061019d565b60405180910390f35b6100b2610163565b6040516100bf919061019d565b60405180910390f35b6100d0610168565b6040516100dd919061019d565b60405180910390f35b6100ee61016d565b6040516100fb919061019d565b60405180910390f35b61010c610172565b604051610119919061019d565b60405180910390f35b61012a610177565b604051610137919061019d565b60405180910390f35b61014861017c565b604051610155919061019d565b60405180910390f35b600481565b600381565b600581565b600281565b600681565b600181565b600081565b600060ff82169050919050565b61019781610181565b82525050565b60006020820190506101b2600083018461018e565b9291505056fea264697066735822122044663668119da9c7165e4669f811a084ae4cb81b3d0954a896af21a16195dcfe64736f6c634300081c0033",
  "linkReferences": {},
  "deployedLinkReferences": {}
}