{
  "_format": "hh-sol-artifact-1",
  "contractName": "TwapUtils",
  "sourceName": "contracts/twap/TwapUtils.sol",
  "abi": [
    {
      "inputs": [
        {
          "internalType": "address",
          "name": "dataStore",
          "type": "address"
        },
        {
          "components": [
            {
              "components": [
                {
                  "internalType": "address",
                  "name": "token",
                  "type": "address"
                },
                {
                  "internalType": "uint256",
                  "name": "borrowIndex",
                  "type": "uint256"
                },
                {
                  "internalType": "uint256",
                  "name": "borrowRate",
                  "type": "uint256"
                },
                {
                  "internalType": "uint256",
                  "name": "totalCollateral",
                  "type": "uint256"
                },
                {
                  "internalType": "uint256",
                  "name": "totalCollateralWithDebt",
                  "type": "uint256"
                },
                {
                  "internalType": "uint256",
                  "name": "totalDebtScaled",
                  "type": "uint256"
                },
                {
                  "internalType": "uint256",
                  "name": "unclaimedFee",
                  "type": "uint256"
                }
              ],
              "internalType": "struct Pool.Asset[2]",
              "name": "assets",
              "type": "tuple[2]"
            },
            {
              "internalType": "address",
              "name": "bank",
              "type": "address"
            },
            {
              "internalType": "address",
              "name": "interestRateStrategy",
              "type": "address"
            },
            {
              "internalType": "uint256",
              "name": "configuration",
              "type": "uint256"
            },
            {
              "internalType": "uint256",
              "name": "lastUpdateTimestamp",
              "type": "uint256"
            }
          ],
          "internalType": "struct Pool.Props",
          "name": "pool",
          "type": "tuple"
        }
      ],
      "name": "getTwapPrice",
      "outputs": [
        {
          "internalType": "uint256",
          "name": "",
          "type": "uint256"
        }
      ],
      "stateMutability": "view",
      "type": "function"
    }
  ],
  "bytecode": "0x611f69610052600b82828239805160001a6073146045577f4e487b7100000000000000000000000000000000000000000000000000000000600052600060045260246000fd5b30600052607381538281f3fe73000000000000000000000000000000000000000030146080604052600436106100405760003560e01c8063d46cdf3214610045578063e34cbbc814610075575b600080fd5b61005f600480360381019061005a91906116a7565b61009e565b60405161006c91906116f7565b60405180910390f35b81801561008157600080fd5b5061009c60048036038101906100979190611712565b6100b2565b005b60006100aa83836106c6565b905092915050565b6100f06040518060400160405280600f81526020017f7570646174655477617050726963650000000000000000000000000000000000815250610752565b6100f86112f2565b610102848461079b565b816000019063ffffffff16908163ffffffff1681525050640100000000610127610827565b6101319190611796565b816020019063ffffffff16908163ffffffff16815250506000816000015163ffffffff1603610229576101698484836020015161082f565b610175848460006108bb565b61018484848360200151610947565b610190848460006109d3565b61019b848484610a5f565b6101e46040518060400160405280600e81526020017f626c6f636b54696d655374616d70000000000000000000000000000000000000815250826020015163ffffffff16610aeb565b6102236040518060400160405280600581526020017f707269636500000000000000000000000000000000000000000000000000000081525083610aeb565b506106c1565b8060000151816020015161023d9190611806565b816040019063ffffffff16908163ffffffff168152505061029d6040518060400160405280600b81526020017f74696d65456c6170736564000000000000000000000000000000000000000000815250826040015163ffffffff16610aeb565b6000816040015163ffffffff16111561041e576102ba8484610b36565b816060018181525050806040015163ffffffff16826102d9919061183e565b81606001516102e89190611880565b8160800181815250506103306040518060400160405280600581526020017f707269636500000000000000000000000000000000000000000000000000000081525083610aeb565b6103796040518060400160405280600b81526020017f74696d65456c6170736564000000000000000000000000000000000000000000815250826040015163ffffffff16610aeb565b6103bc6040518060400160405280601381526020017f707269636543756d756c61746976654c617374000000000000000000000000008152508260600151610aeb565b6103ff6040518060400160405280600f81526020017f707269636543756d756c617469766500000000000000000000000000000000008152508260800151610aeb565b61040e848483608001516108bb565b61041d8484836000015161082f565b5b6104288484610bc2565b8160a0019063ffffffff16908163ffffffff16815250508060a0015181602001516104539190611806565b8160c0019063ffffffff16908163ffffffff168152505061047384610c4e565b8160e0019063ffffffff16908163ffffffff16815250506104d36040518060400160405280600681526020017f504552494f4400000000000000000000000000000000000000000000000000008152508260e0015163ffffffff16610aeb565b61051c6040518060400160405280601b81526020017f6c61737455706461746554696d657374616d704279506572696f6400000000008152508260a0015163ffffffff16610aeb565b6105656040518060400160405280601381526020017f74696d65456c61707365644279506572696f64000000000000000000000000008152508260c0015163ffffffff16610aeb565b8060e0015163ffffffff168160c0015163ffffffff1611156106bf5761058b8484610b36565b81608001818152505061059e8484610cf5565b816101000181815250508060c0015163ffffffff1681610100015182608001516105c891906118b4565b6105d291906118e8565b8161012001818152505080602001518160a0019063ffffffff16908163ffffffff168152505080608001518161010001818152505061064b6040518060400160405280601b81526020017f707269636543756d756c61746976654c6173744279506572696f640000000000815250826101000151610aeb565b61068f6040518060400160405280600c81526020017f7072696365417665726167650000000000000000000000000000000000000000815250826101200151610aeb565b61069e84848360a00151610947565b6106ae84848361010001516109d3565b6106be8484836101200151610a5f565b5b505b505050565b60008273ffffffffffffffffffffffffffffffffffffffff1663bd02d0f56106ed84610d81565b6040518263ffffffff1660e01b81526004016107099190611932565b602060405180830381865afa158015610726573d6000803e3d6000fd5b505050506040513d601f19601f8201168201806040525081019061074a9190611962565b905092915050565b6000610798576107976040518060400160405280600281526020017f257300000000000000000000000000000000000000000000000000000000000081525082610e2b565b5b50565b60008273ffffffffffffffffffffffffffffffffffffffff1663bd02d0f56107c284610ec7565b6040518263ffffffff1660e01b81526004016107de9190611932565b602060405180830381865afa1580156107fb573d6000803e3d6000fd5b505050506040513d601f19601f8201168201806040525081019061081f9190611962565b905092915050565b600042905090565b8273ffffffffffffffffffffffffffffffffffffffff1663e2a4853a61085484610ec7565b836040518363ffffffff1660e01b81526004016108729291906119ca565b6020604051808303816000875af1158015610891573d6000803e3d6000fd5b505050506040513d601f19601f820116820180604052508101906108b59190611962565b50505050565b8273ffffffffffffffffffffffffffffffffffffffff1663e2a4853a6108e084610f71565b836040518363ffffffff1660e01b81526004016108fe929190611a02565b6020604051808303816000875af115801561091d573d6000803e3d6000fd5b505050506040513d601f19601f820116820180604052508101906109419190611962565b50505050565b8273ffffffffffffffffffffffffffffffffffffffff1663e2a4853a61096c8461101b565b836040518363ffffffff1660e01b815260040161098a9291906119ca565b6020604051808303816000875af11580156109a9573d6000803e3d6000fd5b505050506040513d601f19601f820116820180604052508101906109cd9190611962565b50505050565b8273ffffffffffffffffffffffffffffffffffffffff1663e2a4853a6109f8846110c5565b836040518363ffffffff1660e01b8152600401610a16929190611a02565b6020604051808303816000875af1158015610a35573d6000803e3d6000fd5b505050506040513d601f19601f82011682018060405250810190610a599190611962565b50505050565b8273ffffffffffffffffffffffffffffffffffffffff1663e2a4853a610a8484610d81565b836040518363ffffffff1660e01b8152600401610aa2929190611a02565b6020604051808303816000875af1158015610ac1573d6000803e3d6000fd5b505050506040513d601f19601f82011682018060405250810190610ae59190611962565b50505050565b6000610b3257610b316040518060400160405280600681526020017f2573202d25730000000000000000000000000000000000000000000000000000815250838361116f565b5b5050565b60008273ffffffffffffffffffffffffffffffffffffffff1663bd02d0f5610b5d84610f71565b6040518263ffffffff1660e01b8152600401610b799190611932565b602060405180830381865afa158015610b96573d6000803e3d6000fd5b505050506040513d601f19601f82011682018060405250810190610bba9190611962565b905092915050565b60008273ffffffffffffffffffffffffffffffffffffffff1663bd02d0f5610be98461101b565b6040518263ffffffff1660e01b8152600401610c059190611932565b602060405180830381865afa158015610c22573d6000803e3d6000fd5b505050506040513d601f19601f82011682018060405250810190610c469190611962565b905092915050565b60008173ffffffffffffffffffffffffffffffffffffffff1663bd02d0f5604051602001610c7b90611a88565b604051602081830303815290604052805190602001206040518263ffffffff1660e01b8152600401610cad9190611932565b602060405180830381865afa158015610cca573d6000803e3d6000fd5b505050506040513d601f19601f82011682018060405250810190610cee9190611962565b9050919050565b60008273ffffffffffffffffffffffffffffffffffffffff1663bd02d0f5610d1c846110c5565b6040518263ffffffff1660e01b8152600401610d389190611932565b602060405180830381865afa158015610d55573d6000803e3d6000fd5b505050506040513d601f19601f82011682018060405250810190610d799190611962565b905092915050565b600080610dd48360000151600060ff1660028110610da257610da1611aa8565b5b6020020151600001518460000151600160ff1660028110610dc657610dc5611aa8565b5b60200201516000015161120e565b905080604051602001610de690611b23565b60405160208183030381529060405280519060200120604051602001610e0d929190611b43565b60405160208183030381529060405280519060200120915050919050565b610ec38282604051602401610e41929190611bda565b6040516020818303038152906040527f4b5c4277000000000000000000000000000000000000000000000000000000007bffffffffffffffffffffffffffffffffffffffffffffffffffffffff19166020820180517bffffffffffffffffffffffffffffffffffffffffffffffffffffffff83818316178352505050506112ac565b5050565b600080610f1a8360000151600060ff1660028110610ee857610ee7611aa8565b5b6020020151600001518460000151600160ff1660028110610f0c57610f0b611aa8565b5b60200201516000015161120e565b905080604051602001610f2c90611c5d565b60405160208183030381529060405280519060200120604051602001610f53929190611b43565b60405160208183030381529060405280519060200120915050919050565b600080610fc48360000151600060ff1660028110610f9257610f91611aa8565b5b6020020151600001518460000151600160ff1660028110610fb657610fb5611aa8565b5b60200201516000015161120e565b905080604051602001610fd690611cc9565b60405160208183030381529060405280519060200120604051602001610ffd929190611b43565b60405160208183030381529060405280519060200120915050919050565b60008061106e8360000151600060ff166002811061103c5761103b611aa8565b5b6020020151600001518460000151600160ff16600281106110605761105f611aa8565b5b60200201516000015161120e565b90508060405160200161108090611d5b565b604051602081830303815290604052805190602001206040516020016110a7929190611b43565b60405160208183030381529060405280519060200120915050919050565b6000806111188360000151600060ff16600281106110e6576110e5611aa8565b5b6020020151600001518460000151600160ff166002811061110a57611109611aa8565b5b60200201516000015161120e565b90508060405160200161112a90611ded565b60405160208183030381529060405280519060200120604051602001611151929190611b43565b60405160208183030381529060405280519060200120915050919050565b61120983838360405160240161118793929190611e0d565b6040516020818303038152906040527f5821efa1000000000000000000000000000000000000000000000000000000007bffffffffffffffffffffffffffffffffffffffffffffffffffffffff19166020820180517bffffffffffffffffffffffffffffffffffffffffffffffffffffffff83818316178352505050506112ac565b505050565b60008173ffffffffffffffffffffffffffffffffffffffff168373ffffffffffffffffffffffffffffffffffffffff161061124a57818361124d565b82825b809350819450505060405160200161126490611e9e565b60405160208183030381529060405280519060200120838360405160200161128e93929190611ecd565b60405160208183030381529060405280519060200120905092915050565b6112c3816112bb6112c66112e7565b63ffffffff16565b50565b60006a636f6e736f6c652e6c6f679050600080835160208501845afa505050565b611369819050919050565b604051806101400160405280600063ffffffff168152602001600063ffffffff168152602001600063ffffffff1681526020016000815260200160008152602001600063ffffffff168152602001600063ffffffff168152602001600063ffffffff16815260200160008152602001600081525090565b611371611f04565b565b6000604051905090565b600080fd5b600073ffffffffffffffffffffffffffffffffffffffff82169050919050565b60006113ad82611382565b9050919050565b6113bd816113a2565b81146113c857600080fd5b50565b6000813590506113da816113b4565b92915050565b600080fd5b6000601f19601f8301169050919050565b7f4e487b7100000000000000000000000000000000000000000000000000000000600052604160045260246000fd5b61142e826113e5565b810181811067ffffffffffffffff8211171561144d5761144c6113f6565b5b80604052505050565b6000611460611373565b905061146c8282611425565b919050565b600080fd5b600067ffffffffffffffff821115611491576114906113f6565b5b602082029050919050565b600080fd5b6000819050919050565b6114b4816114a1565b81146114bf57600080fd5b50565b6000813590506114d1816114ab565b92915050565b600060e082840312156114ed576114ec6113e0565b5b6114f760e0611456565b90506000611507848285016113cb565b600083015250602061151b848285016114c2565b602083015250604061152f848285016114c2565b6040830152506060611543848285016114c2565b6060830152506080611557848285016114c2565b60808301525060a061156b848285016114c2565b60a08301525060c061157f848285016114c2565b60c08301525092915050565b600061159e61159984611476565b611456565b90508060e084028301858111156115b8576115b761149c565b5b835b818110156115e157806115cd88826114d7565b84526020840193505060e0810190506115ba565b5050509392505050565b600082601f830112611600576115ff611471565b5b600261160d84828561158b565b91505092915050565b6000610240828403121561162d5761162c6113e0565b5b61163760a0611456565b90506000611647848285016115eb565b6000830152506101c061165c848285016113cb565b6020830152506101e0611671848285016113cb565b604083015250610200611686848285016114c2565b60608301525061022061169b848285016114c2565b60808301525092915050565b60008061026083850312156116bf576116be61137d565b5b60006116cd858286016113cb565b92505060206116de85828601611616565b9150509250929050565b6116f1816114a1565b82525050565b600060208201905061170c60008301846116e8565b92915050565b6000806000610280848603121561172c5761172b61137d565b5b600061173a868287016113cb565b935050602061174b86828701611616565b92505061026061175d868287016114c2565b9150509250925092565b7f4e487b7100000000000000000000000000000000000000000000000000000000600052601260045260246000fd5b60006117a1826114a1565b91506117ac836114a1565b9250826117bc576117bb611767565b5b828206905092915050565b600063ffffffff82169050919050565b7f4e487b7100000000000000000000000000000000000000000000000000000000600052601160045260246000fd5b6000611811826117c7565b915061181c836117c7565b9250828203905063ffffffff811115611838576118376117d7565b5b92915050565b6000611849826114a1565b9150611854836114a1565b9250828202611862816114a1565b91508282048414831517611879576118786117d7565b5b5092915050565b600061188b826114a1565b9150611896836114a1565b92508282019050808211156118ae576118ad6117d7565b5b92915050565b60006118bf826114a1565b91506118ca836114a1565b92508282039050818111156118e2576118e16117d7565b5b92915050565b60006118f3826114a1565b91506118fe836114a1565b92508261190e5761190d611767565b5b828204905092915050565b6000819050919050565b61192c81611919565b82525050565b60006020820190506119476000830184611923565b92915050565b60008151905061195c816114ab565b92915050565b6000602082840312156119785761197761137d565b5b60006119868482850161194d565b91505092915050565b6000819050919050565b60006119b46119af6119aa846117c7565b61198f565b6114a1565b9050919050565b6119c481611999565b82525050565b60006040820190506119df6000830185611923565b6119ec60208301846119bb565b9392505050565b6119fc816114a1565b82525050565b6000604082019050611a176000830185611923565b611a2460208301846119f3565b9392505050565b600082825260208201905092915050565b7f545741505f504552494f44000000000000000000000000000000000000000000600082015250565b6000611a72600b83611a2b565b9150611a7d82611a3c565b602082019050919050565b60006020820190508181036000830152611aa181611a65565b9050919050565b7f4e487b7100000000000000000000000000000000000000000000000000000000600052603260045260246000fd5b7f545741505f415645524147455f50524943450000000000000000000000000000600082015250565b6000611b0d601283611a2b565b9150611b1882611ad7565b602082019050919050565b60006020820190508181036000830152611b3c81611b00565b9050919050565b6000604082019050611b586000830185611923565b611b656020830184611923565b9392505050565b600081519050919050565b60005b83811015611b95578082015181840152602081019050611b7a565b60008484015250505050565b6000611bac82611b6c565b611bb68185611a2b565b9350611bc6818560208601611b77565b611bcf816113e5565b840191505092915050565b60006040820190508181036000830152611bf48185611ba1565b90508181036020830152611c088184611ba1565b90509392505050565b7f545741505f4c4153545f424c4f434b5f54494d455f5354414d50000000000000600082015250565b6000611c47601a83611a2b565b9150611c5282611c11565b602082019050919050565b60006020820190508181036000830152611c7681611c3a565b9050919050565b7f545741505f4c4153545f50524943455f43554d4d554c41544956455f4b455900600082015250565b6000611cb3601f83611a2b565b9150611cbe82611c7d565b602082019050919050565b60006020820190508181036000830152611ce281611ca6565b9050919050565b7f545741505f4c4153545f424c4f434b5f54494d455f5354414d505f42595f504560008201527f52494f4400000000000000000000000000000000000000000000000000000000602082015250565b6000611d45602483611a2b565b9150611d5082611ce9565b604082019050919050565b60006020820190508181036000830152611d7481611d38565b9050919050565b7f545741505f4c4153545f50524943455f43554d4d554c41544956455f4b45595f60008201527f42595f504552494f440000000000000000000000000000000000000000000000602082015250565b6000611dd7602983611a2b565b9150611de282611d7b565b604082019050919050565b60006020820190508181036000830152611e0681611dca565b9050919050565b60006060820190508181036000830152611e278186611ba1565b90508181036020830152611e3b8185611ba1565b9050611e4a60408301846119f3565b949350505050565b7f504f4f4c00000000000000000000000000000000000000000000000000000000600082015250565b6000611e88600483611a2b565b9150611e9382611e52565b602082019050919050565b60006020820190508181036000830152611eb781611e7b565b9050919050565b611ec7816113a2565b82525050565b6000606082019050611ee26000830186611923565b611eef6020830185611ebe565b611efc6040830184611ebe565b949350505050565b7f4e487b7100000000000000000000000000000000000000000000000000000000600052605160045260246000fdfea2646970667358221220736ff691906bdf7865f7216c72ac5a3bd723eab6982436dfc89a3ecb28b8a30564736f6c634300081c0033",
  "linkReferences": {},
  "deployedLinkReferences": {}
}