{
  "_format": "hh-sol-artifact-1",
  "contractName": "LiquidationHandler",
  "sourceName": "contracts/exchange/LiquidationHandler.sol",
  "abi": [
    {
      "inputs": [
        {
          "internalType": "contract RoleStore",
          "name": "_roleStore",
          "type": "address"
        },
        {
          "internalType": "contract DataStore",
          "name": "_dataStore",
          "type": "address"
        },
        {
          "internalType": "contract EventEmitter",
          "name": "_eventEmitter",
          "type": "address"
        }
      ],
      "stateMutability": "nonpayable",
      "type": "constructor"
    },
    {
      "inputs": [
        {
          "internalType": "address",
          "name": "accountInPosition",
          "type": "address"
        },
        {
          "internalType": "address",
          "name": "account",
          "type": "address"
        }
      ],
      "name": "AccountNotMatch",
      "type": "error"
    },
    {
      "inputs": [
        {
          "internalType": "bytes32",
          "name": "key",
          "type": "bytes32"
        }
      ],
      "name": "EmptyPool",
      "type": "error"
    },
    {
      "inputs": [],
      "name": "EmptyPosition",
      "type": "error"
    },
    {
      "inputs": [
        {
          "internalType": "uint256",
          "name": "marginLevel",
          "type": "uint256"
        },
        {
          "internalType": "uint256",
          "name": "marginLevelThreshold",
          "type": "uint256"
        }
      ],
      "name": "MarginAboveThreshold",
      "type": "error"
    },
    {
      "inputs": [],
      "name": "MathOverflowedMulDiv",
      "type": "error"
    },
    {
      "inputs": [
        {
          "internalType": "address",
          "name": "msgSender",
          "type": "address"
        },
        {
          "internalType": "string",
          "name": "role",
          "type": "string"
        }
      ],
      "name": "Unauthorized",
      "type": "error"
    },
    {
      "inputs": [],
      "name": "dataStore",
      "outputs": [
        {
          "internalType": "contract DataStore",
          "name": "",
          "type": "address"
        }
      ],
      "stateMutability": "view",
      "type": "function"
    },
    {
      "inputs": [],
      "name": "eventEmitter",
      "outputs": [
        {
          "internalType": "contract EventEmitter",
          "name": "",
          "type": "address"
        }
      ],
      "stateMutability": "view",
      "type": "function"
    },
    {
      "inputs": [
        {
          "internalType": "address",
          "name": "liquidator",
          "type": "address"
        },
        {
          "components": [
            {
              "internalType": "address",
              "name": "account",
              "type": "address"
            },
            {
              "internalType": "uint256",
              "name": "positionId",
              "type": "uint256"
            }
          ],
          "internalType": "struct LiquidationUtils.LiquidationParams",
          "name": "liquidationParams",
          "type": "tuple"
        }
      ],
      "name": "executeLiquidation",
      "outputs": [],
      "stateMutability": "nonpayable",
      "type": "function"
    },
    {
      "inputs": [],
      "name": "roleStore",
      "outputs": [
        {
          "internalType": "contract RoleStore",
          "name": "",
          "type": "address"
        }
      ],
      "stateMutability": "view",
      "type": "function"
    }
  ],
  "bytecode": "0x60e060405234801561001057600080fd5b506040516136c73803806136c7833981810160405281019061003291906101cb565b82828073ffffffffffffffffffffffffffffffffffffffff1660808173ffffffffffffffffffffffffffffffffffffffff1681525050508073ffffffffffffffffffffffffffffffffffffffff1660a08173ffffffffffffffffffffffffffffffffffffffff1681525050508073ffffffffffffffffffffffffffffffffffffffff1660c08173ffffffffffffffffffffffffffffffffffffffff168152505050505061021e565b600080fd5b600073ffffffffffffffffffffffffffffffffffffffff82169050919050565b600061010a826100df565b9050919050565b600061011c826100ff565b9050919050565b61012c81610111565b811461013757600080fd5b50565b60008151905061014981610123565b92915050565b600061015a826100ff565b9050919050565b61016a8161014f565b811461017557600080fd5b50565b60008151905061018781610161565b92915050565b6000610198826100ff565b9050919050565b6101a88161018d565b81146101b357600080fd5b50565b6000815190506101c58161019f565b92915050565b6000806000606084860312156101e4576101e36100da565b5b60006101f28682870161013a565b935050602061020386828701610178565b9250506040610214868287016101b6565b9150509250925092565b60805160a05160c051613452610275600039600081816101c5015261025001526000818160c9015261044001526000818160ed01528181610189015281816102760152818161037901526107da01526134526000f3fe608060405234801561001057600080fd5b506004361061004c5760003560e01c80634a4a7b0414610051578063660d0d671461006f57806383f3d2eb1461008d5780639ff78c30146100a9575b600080fd5b6100596100c7565b604051610066919061212e565b60405180910390f35b6100776100eb565b604051610084919061216a565b60405180910390f35b6100a760048036038101906100a291906121f6565b61010f565b005b6100b161024e565b6040516100be9190612257565b60405180910390f35b7f000000000000000000000000000000000000000000000000000000000000000081565b7f000000000000000000000000000000000000000000000000000000000000000081565b610117610272565b61017a604051602001610129906122cf565b604051602081830303815290604052805190602001206040518060400160405280600a81526020017f434f4e54524f4c4c45520000000000000000000000000000000000000000000081525061043e565b600060405180608001604052807f000000000000000000000000000000000000000000000000000000000000000073ffffffffffffffffffffffffffffffffffffffff1681526020017f000000000000000000000000000000000000000000000000000000000000000073ffffffffffffffffffffffffffffffffffffffff16815260200183600001602081019061021291906122ef565b73ffffffffffffffffffffffffffffffffffffffff168152602001836020013581525090506102418382610521565b5061024a6107d8565b5050565b7f000000000000000000000000000000000000000000000000000000000000000081565b60007f000000000000000000000000000000000000000000000000000000000000000073ffffffffffffffffffffffffffffffffffffffff1663bd02d0f56040516020016102bf90612368565b604051602081830303815290604052805190602001206040518263ffffffff1660e01b81526004016102f191906123a1565b602060405180830381865afa15801561030e573d6000803e3d6000fd5b505050506040513d601f19601f8201168201806040525081019061033291906123f2565b905060008114610377576040517f08c379a000000000000000000000000000000000000000000000000000000000815260040161036e9061246b565b60405180910390fd5b7f000000000000000000000000000000000000000000000000000000000000000073ffffffffffffffffffffffffffffffffffffffff1663e2a4853a6040516020016103c290612368565b6040516020818303038152906040528051906020012060016040518363ffffffff1660e01b81526004016103f792919061249a565b6020604051808303816000875af1158015610416573d6000803e3d6000fd5b505050506040513d601f19601f8201168201806040525081019061043a91906123f2565b5050565b7f000000000000000000000000000000000000000000000000000000000000000073ffffffffffffffffffffffffffffffffffffffff1663ac4ab3fb33846040518363ffffffff1660e01b81526004016104999291906124d2565b602060405180830381865afa1580156104b6573d6000803e3d6000fd5b505050506040513d601f19601f820116820180604052508101906104da9190612533565b61051d5733816040517fa35b150b0000000000000000000000000000000000000000000000000000000081526004016105149291906125df565b60405180910390fd5b5050565b610529611e37565b61054082604001518360000151846060015161089e565b82604001836060018281525082905250506105ae8260000151826040015160000151600060ff16600281106105785761057761260f565b5b602002015160000151836040015160000151600160ff16600281106105a05761059f61260f565b5b6020020151600001516108bf565b82600001836020018281525082905250506105d6826000015182600001518360400151610978565b856080018660a0018760c0018860e0018961010001858152508581525085815250858152508581525050505050506106368260200151848460400151856060015185608001518660a001518760c001518860e00151896101000151610a45565b80600001516020015181610140019073ffffffffffffffffffffffffffffffffffffffff16908173ffffffffffffffffffffffffffffffffffffffff16815250506106848260000151610ac9565b8161012001818152505080610140015173ffffffffffffffffffffffffffffffffffffffff1663078d3b79826000015160000151600060ff16600281106106ce576106cd61260f565b5b602002015160000151858461012001516040518463ffffffff1660e01b81526004016106fc9392919061263e565b600060405180830381600087803b15801561071657600080fd5b505af115801561072a573d6000803e3d6000fd5b5050505061074a8260000151826000015183604001518460600151610b70565b61075c82602001518260000151610d51565b73__$e0022d6f389ac14ff1ce1dc57a4018d0a3$__63be6afc398360000151836020015184600001516040518463ffffffff1660e01b81526004016107a393929190612848565b60006040518083038186803b1580156107bb57600080fd5b505af41580156107cf573d6000803e3d6000fd5b50505050505050565b7f000000000000000000000000000000000000000000000000000000000000000073ffffffffffffffffffffffffffffffffffffffff1663e2a4853a60405160200161082390612368565b6040516020818303038152906040528051906020012060006040518363ffffffff1660e01b815260040161085892919061249a565b6020604051808303816000875af1158015610877573d6000803e3d6000fd5b505050506040513d601f19601f8201168201806040525081019061089b91906123f2565b50565b6108a6611eb9565b60006108b3858585610f3e565b91509150935093915050565b6108c7611ef6565b6000806108d48585610fee565b9050600073__$e0022d6f389ac14ff1ce1dc57a4018d0a3$__637b82d74e88846040518363ffffffff1660e01b8152600401610911929190612880565b61024060405180830381865af415801561092f573d6000803e3d6000fd5b505050506040513d601f19601f820116820180604052508101906109539190612b3e565b905061095f818361108c565b61096881611105565b8082935093505050935093915050565b6000806000806000610988611f57565b6109938989896112b1565b8560000186602001876040018860600189608001858152508581525085815250858152508581525050505050508060200151816000015110610a1657806000015181602001516040517fe9d064f4000000000000000000000000000000000000000000000000000000008152600401610a0d929190612b6c565b60405180910390fd5b806000015181602001518260400151836060015184608001519550955095509550955050939792965093509350565b8873ffffffffffffffffffffffffffffffffffffffff166342ff64a589898989898989896040518963ffffffff1660e01b8152600401610a8c989796959493929190612b95565b600060405180830381600087803b158015610aa657600080fd5b505af1158015610aba573d6000803e3d6000fd5b50505050505050505050505050565b60008173ffffffffffffffffffffffffffffffffffffffff1663bd02d0f5604051602001610af690612c5f565b604051602081830303815290604052805190602001206040518263ffffffff1660e01b8152600401610b2891906123a1565b602060405180830381865afa158015610b45573d6000803e3d6000fd5b505050506040513d601f19601f82011682018060405250810190610b6991906123f2565b9050919050565b8160000151600060ff1660028110610b8b57610b8a61260f565b5b6020020151602001518360000151600060ff1660028110610baf57610bae61260f565b5b6020020151606001818151610bc49190612cae565b915081815250508160000151600060ff1660028110610be657610be561260f565b5b6020020151604001518360000151600060ff1660028110610c0a57610c0961260f565b5b602002015160a001818151610c1f9190612cae565b915081815250508160000151600160ff1660028110610c4157610c4061260f565b5b6020020151602001518360000151600160ff1660028110610c6557610c6461260f565b5b6020020151606001818151610c7a9190612cae565b915081815250508160000151600160ff1660028110610c9c57610c9b61260f565b5b6020020151604001518360000151600160ff1660028110610cc057610cbf61260f565b5b602002015160a001818151610cd59190612cae565b9150818152505073__$3d31b232fb363902662fbc281b11ab3357$__63b2aa83ec858385604001516040518463ffffffff1660e01b8152600401610d1b93929190612ce2565b60006040518083038186803b158015610d3357600080fd5b505af4158015610d47573d6000803e3d6000fd5b5050505050505050565b610d59611f86565b610d64826000611333565b8260000183602001828152508281525050508060000151816040018181525050816040015173ffffffffffffffffffffffffffffffffffffffff1663fdd63ecf6040518060600160405280846000015181526020018460200151815260200184604001518152506040518263ffffffff1660e01b8152600401610de79190612d6a565b602060405180830381865afa158015610e04573d6000803e3d6000fd5b505050506040513d601f19601f82011682018060405250810190610e2891906123f2565b8260000151600060ff1660028110610e4357610e4261260f565b5b60200201516040018181525050610e5b826001611333565b826000018360200182815250828152505050816040015173ffffffffffffffffffffffffffffffffffffffff1663fdd63ecf6040518060600160405280846000015181526020018460200151815260200184604001518152506040518263ffffffff1660e01b8152600401610ed09190612d6a565b602060405180830381865afa158015610eed573d6000803e3d6000fd5b505050506040513d601f19601f82011682018060405250810190610f1191906123f2565b8260000151600160ff1660028110610f2c57610f2b61260f565b5b60200201516040018181525050505050565b610f46611eb9565b600080610f538685611383565b9050600073__$3d31b232fb363902662fbc281b11ab3357$__637b82d74e87846040518363ffffffff1660e01b8152600401610f90929190612880565b61024060405180830381865af4158015610fae573d6000803e3d6000fd5b505050506040513d601f19601f82011682018060405250810190610fd29190612f69565b9050610fde87826113dc565b8082935093505050935093915050565b60008173ffffffffffffffffffffffffffffffffffffffff168373ffffffffffffffffffffffffffffffffffffffff161061102a57818361102d565b82825b809350819450505060405160200161104490612fe3565b60405160208183030381529060405280519060200120838360405160200161106e93929190613003565b60405160208183030381529060405280519060200120905092915050565b600073ffffffffffffffffffffffffffffffffffffffff16826020015173ffffffffffffffffffffffffffffffffffffffff160361110157806040517f7357d91f0000000000000000000000000000000000000000000000000000000081526004016110f891906123a1565b60405180910390fd5b5050565b600061110f6114c4565b90508082608001510361112257506112ae565b60008260000151600060ff166002811061113f5761113e61260f565b5b602002015160a00151146111e25760006111808360000151600060ff166002811061116d5761116c61260f565b5b60200201516040015184608001516114cc565b90506111b8818460000151600060ff16600281106111a1576111a061260f565b5b60200201516020015161152790919063ffffffff16565b8360000151600060ff16600281106111d3576111d261260f565b5b60200201516020018181525050505b60008260000151600160ff16600281106111ff576111fe61260f565b5b602002015160a00151146112a25760006112408360000151600160ff166002811061122d5761122c61260f565b5b60200201516040015184608001516114cc565b9050611278818460000151600160ff16600281106112615761126061260f565b5b60200201516020015161152790919063ffffffff16565b8360000151600160ff16600281106112935761129261260f565b5b60200201516020018181525050505b80826080018181525050505b50565b60008060008060006112c287611572565b90506112d18787836000611642565b809350819450505060008211611307577fffffffffffffffffffffffffffffffffffffffffffffffffffffffffffffffff61131b565b61131a828461187390919063ffffffff16565b5b9450611326886118ba565b9350939792965093509350565b600080600061136485600001518560ff16600281106113555761135461260f565b5b60200201518660800151611961565b9050600061137286866119a6565b905080829350935050509250929050565b600060405160200161139490613086565b6040516020818303038152906040528051906020012083836040516020016113be939291906130a6565b60405160208183030381529060405280519060200120905092915050565b600073ffffffffffffffffffffffffffffffffffffffff16816040015173ffffffffffffffffffffffffffffffffffffffff1603611446576040517f4dfbbff300000000000000000000000000000000000000000000000000000000815260040160405180910390fd5b806040015173ffffffffffffffffffffffffffffffffffffffff168273ffffffffffffffffffffffffffffffffffffffff16146114c0578060400151826040517f25c7157e0000000000000000000000000000000000000000000000000000000081526004016114b79291906130dd565b60405180910390fd5b5050565b600042905090565b600080826114d86114c4565b6114e29190612cae565b846114ed9190613106565b90506301e13380818161150357611502613148565b5b049050806b033b2e3c9fd0803ce800000061151e9190613177565b91505092915050565b6000816b019d971e4fe8401e74000000600019030483111582151761154b57600080fd5b6b033b2e3c9fd0803ce80000006b019d971e4fe8401e740000008385020104905092915050565b60008061158183600080611a93565b505050905060006115958460016000611a93565b5050509050600081036115ad5760009250505061163d565b60006115be85606001516000611b67565b905060006115d186606001516001611b67565b905060006115f8856b033b2e3c9fd0803ce800000085600a6115f391906132de565b611bda565b9050600061161f856b033b2e3c9fd0803ce800000085600a61161a91906132de565b611bda565b9050611634818361187390919063ffffffff16565b96505050505050505b919050565b6000806000808660000151600060ff16600281106116635761166261260f565b5b60200201516000015173ffffffffffffffffffffffffffffffffffffffff168573ffffffffffffffffffffffffffffffffffffffff161461173d576000806116ad8a8a6000611ce1565b9150915060006116cb60008c60600151611b6790919063ffffffff16565b905060006116f2846b033b2e3c9fd0803ce800000084600a6116ed91906132de565b611bda565b90506000611719846b033b2e3c9fd0803ce800000085600a61171491906132de565b611bda565b905081876117279190613177565b965080866117359190613177565b955050505050505b8660000151600160ff16600281106117585761175761260f565b5b60200201516000015173ffffffffffffffffffffffffffffffffffffffff168573ffffffffffffffffffffffffffffffffffffffff1614611862576000806117a28a8a6001611ce1565b9150915060006117c060018c60600151611b6790919063ffffffff16565b905060006117e7846b033b2e3c9fd0803ce800000084600a6117e291906132de565b611bda565b9050600061180e846b033b2e3c9fd0803ce800000085600a61180991906132de565b611bda565b905060006118258c8461152790919063ffffffff16565b9050600061183c8d8461152790919063ffffffff16565b9050818961184a9190613177565b985080886118589190613177565b9750505050505050505b819350809250505094509492505050565b60006b033b2e3c9fd0803ce8000000600283046000190304831115158215171561189c57600080fd5b81600283046b033b2e3c9fd0803ce800000085020104905092915050565b60008173ffffffffffffffffffffffffffffffffffffffff1663bd02d0f56040516020016118e790613375565b604051602081830303815290604052805190602001206040518263ffffffff1660e01b815260040161191991906123a1565b602060405180830381865afa158015611936573d6000803e3d6000fd5b505050506040513d601f19601f8201168201806040525081019061195a91906123f2565b9050919050565b6000808360a001510361197757600090506119a0565b60006119838484611d8f565b905061199c818560a0015161152790919063ffffffff16565b9150505b92915050565b60008083600001518360ff16600281106119c3576119c261260f565b5b602002015190506000846020015173ffffffffffffffffffffffffffffffffffffffff1663e42c08f283600001516040518263ffffffff1660e01b8152600401611a0d9190613395565b602060405180830381865afa158015611a2a573d6000803e3d6000fd5b505050506040513d601f19601f82011682018060405250810190611a4e91906123f2565b905060008103611a6357600092505050611a8d565b6000826060015190508260c001518183611a7d9190612cae565b611a879190612cae565b93505050505b92915050565b600080600080600087600001518760ff1660028110611ab557611ab461260f565b5b602002015190506000611ac889896119a6565b905060008103611ae75760008060008095509550955095505050611b5e565b6000611af7838b60800151611961565b90506000611b0e898461152790919063ffffffff16565b90506000808a14611b3157611b2c8383611dde90919063ffffffff16565b611b34565b60005b90508284611b429190613177565b848486611b4f9190612cae565b83985098509850985050505050505b93509350935093565b6000807fffffffffffffffffffffffffffffffffffffffff00ffffffffffffffffffffff9050600060589050600160ff168460ff1603611bc9577fffffffffffffffffffffffffffffffffffffff00ffffffffffffffffffffffff9150606090505b8082198616901c9250505092915050565b6000808385029050600080198587098281108382030391505060008103611c1557838281611c0b57611c0a613148565b5b0492505050611cda565b808411611c4e576040517f227bc15300000000000000000000000000000000000000000000000000000000815260040160405180910390fd5b600084868809905082811182039150808303925060008560000386169050808604955080840493506001818260000304019050808302841793506000600287600302189050808702600203810290508087026002038102905080870260020381029050808702600203810290508087026002038102905080870260020381029050808502955050505050505b9392505050565b600080600084600001518460ff1660028110611d0057611cff61260f565b5b60200201516040015190506000611d3987600001518660ff1660028110611d2a57611d2961260f565b5b60200201518860800151611d8f565b905060008214611d5b57611d56818361152790919063ffffffff16565b611d5e565b60005b925085600001518560ff1660028110611d7a57611d7961260f565b5b60200201516020015193505050935093915050565b6000611d996114c4565b8203611dab5782602001519050611dd8565b6000611dbb8460400151846114cc565b9050611dd484602001518261152790919063ffffffff16565b9150505b92915050565b6000828284611ded9190612cae565b9150811115611e31576040517f08c379a0000000000000000000000000000000000000000000000000000000008152600401611e28906133fc565b60405180910390fd5b92915050565b604051806101600160405280611e4b611ef6565b815260200160008019168152602001611e62611eb9565b815260200160008019168152602001600081526020016000815260200160008152602001600081526020016000815260200160008152602001600073ffffffffffffffffffffffffffffffffffffffff1681525090565b6040518060600160405280611ecc611fa7565b815260200160008152602001600073ffffffffffffffffffffffffffffffffffffffff1681525090565b6040518060a00160405280611f09611fd4565b8152602001600073ffffffffffffffffffffffffffffffffffffffff168152602001600073ffffffffffffffffffffffffffffffffffffffff16815260200160008152602001600081525090565b6040518060a0016040528060008152602001600081526020016000815260200160008152602001600081525090565b60405180606001604052806000815260200160008152602001600081525090565b60405180604001604052806002905b611fbe612001565b815260200190600190039081611fb65790505090565b60405180604001604052806002905b611feb61205c565b815260200190600190039081611fe35790505090565b604051806101000160405280600073ffffffffffffffffffffffffffffffffffffffff168152602001600081526020016000815260200160008152602001600081526020016000815260200160008152602001600081525090565b6040518060e00160405280600073ffffffffffffffffffffffffffffffffffffffff1681526020016000815260200160008152602001600081526020016000815260200160008152602001600081525090565b600073ffffffffffffffffffffffffffffffffffffffff82169050919050565b6000819050919050565b60006120f46120ef6120ea846120af565b6120cf565b6120af565b9050919050565b6000612106826120d9565b9050919050565b6000612118826120fb565b9050919050565b6121288161210d565b82525050565b6000602082019050612143600083018461211f565b92915050565b6000612154826120fb565b9050919050565b61216481612149565b82525050565b600060208201905061217f600083018461215b565b92915050565b6000604051905090565b600080fd5b600061219f826120af565b9050919050565b6121af81612194565b81146121ba57600080fd5b50565b6000813590506121cc816121a6565b92915050565b600080fd5b6000604082840312156121ed576121ec6121d2565b5b81905092915050565b6000806060838503121561220d5761220c61218f565b5b600061221b858286016121bd565b925050602061222c858286016121d7565b9150509250929050565b6000612241826120fb565b9050919050565b61225181612236565b82525050565b600060208201905061226c6000830184612248565b92915050565b600082825260208201905092915050565b7f434f4e54524f4c4c455200000000000000000000000000000000000000000000600082015250565b60006122b9600a83612272565b91506122c482612283565b602082019050919050565b600060208201905081810360008301526122e8816122ac565b9050919050565b6000602082840312156123055761230461218f565b5b6000612313848285016121bd565b91505092915050565b7f5245454e5452414e43595f47554152445f535441545553000000000000000000600082015250565b6000612352601783612272565b915061235d8261231c565b602082019050919050565b6000602082019050818103600083015261238181612345565b9050919050565b6000819050919050565b61239b81612388565b82525050565b60006020820190506123b66000830184612392565b92915050565b6000819050919050565b6123cf816123bc565b81146123da57600080fd5b50565b6000815190506123ec816123c6565b92915050565b6000602082840312156124085761240761218f565b5b6000612416848285016123dd565b91505092915050565b7f5265656e7472616e637947756172643a207265656e7472616e742063616c6c00600082015250565b6000612455601f83612272565b91506124608261241f565b602082019050919050565b6000602082019050818103600083015261248481612448565b9050919050565b612494816123bc565b82525050565b60006040820190506124af6000830185612392565b6124bc602083018461248b565b9392505050565b6124cc81612194565b82525050565b60006040820190506124e760008301856124c3565b6124f46020830184612392565b9392505050565b60008115159050919050565b612510816124fb565b811461251b57600080fd5b50565b60008151905061252d81612507565b92915050565b6000602082840312156125495761254861218f565b5b60006125578482850161251e565b91505092915050565b600081519050919050565b60005b8381101561258957808201518184015260208101905061256e565b60008484015250505050565b6000601f19601f8301169050919050565b60006125b182612560565b6125bb8185612272565b93506125cb81856020860161256b565b6125d481612595565b840191505092915050565b60006040820190506125f460008301856124c3565b818103602083015261260681846125a6565b90509392505050565b7f4e487b7100000000000000000000000000000000000000000000000000000000600052603260045260246000fd5b600060608201905061265360008301866124c3565b61266060208301856124c3565b61266d604083018461248b565b949350505050565b61267e81612194565b82525050565b61268d81612388565b82525050565b600060029050919050565b600081905092915050565b6000819050919050565b6126bc81612194565b82525050565b6126cb816123bc565b82525050565b60e0820160008201516126e760008501826126b3565b5060208201516126fa60208501826126c2565b50604082015161270d60408501826126c2565b50606082015161272060608501826126c2565b50608082015161273360808501826126c2565b5060a082015161274660a08501826126c2565b5060c082015161275960c08501826126c2565b50505050565b600061276b83836126d1565b60e08301905092915050565b6000602082019050919050565b61278d81612693565b612797818461269e565b92506127a2826126a9565b8060005b838110156127d35781516127ba878261275f565b96506127c583612777565b9250506001810190506127a6565b505050505050565b610240820160008201516127f26000850182612784565b5060208201516128066101c08501826126b3565b50604082015161281a6101e08501826126b3565b50606082015161282e6102008501826126c2565b5060808201516128426102208501826126c2565b50505050565b60006102808201905061285e6000830186612675565b61286b6020830185612684565b61287860408301846127db565b949350505050565b60006040820190506128956000830185612675565b6128a26020830184612684565b9392505050565b600080fd5b7f4e487b7100000000000000000000000000000000000000000000000000000000600052604160045260246000fd5b6128e682612595565b810181811067ffffffffffffffff82111715612905576129046128ae565b5b80604052505050565b6000612918612185565b905061292482826128dd565b919050565b600080fd5b600067ffffffffffffffff821115612949576129486128ae565b5b602082029050919050565b600080fd5b600081519050612968816121a6565b92915050565b600060e08284031215612984576129836128a9565b5b61298e60e061290e565b9050600061299e84828501612959565b60008301525060206129b2848285016123dd565b60208301525060406129c6848285016123dd565b60408301525060606129da848285016123dd565b60608301525060806129ee848285016123dd565b60808301525060a0612a02848285016123dd565b60a08301525060c0612a16848285016123dd565b60c08301525092915050565b6000612a35612a308461292e565b61290e565b90508060e08402830185811115612a4f57612a4e612954565b5b835b81811015612a785780612a64888261296e565b84526020840193505060e081019050612a51565b5050509392505050565b600082601f830112612a9757612a96612929565b5b6002612aa4848285612a22565b91505092915050565b60006102408284031215612ac457612ac36128a9565b5b612ace60a061290e565b90506000612ade84828501612a82565b6000830152506101c0612af384828501612959565b6020830152506101e0612b0884828501612959565b604083015250610200612b1d848285016123dd565b606083015250610220612b32848285016123dd565b60808301525092915050565b60006102408284031215612b5557612b5461218f565b5b6000612b6384828501612aad565b91505092915050565b6000604082019050612b81600083018561248b565b612b8e602083018461248b565b9392505050565b600061010082019050612bab600083018b6124c3565b612bb8602083018a6124c3565b612bc5604083018961248b565b612bd2606083018861248b565b612bdf608083018761248b565b612bec60a083018661248b565b612bf960c083018561248b565b612c0660e083018461248b565b9998505050505050505050565b7f4c49515549444154494f4e5f4645450000000000000000000000000000000000600082015250565b6000612c49600f83612272565b9150612c5482612c13565b602082019050919050565b60006020820190508181036000830152612c7881612c3c565b9050919050565b7f4e487b7100000000000000000000000000000000000000000000000000000000600052601160045260246000fd5b6000612cb9826123bc565b9150612cc4836123bc565b9250828203905081811115612cdc57612cdb612c7f565b5b92915050565b6000606082019050612cf76000830186612675565b612d046020830185612684565b612d116040830184612675565b949350505050565b612d22816123bc565b82525050565b606082016000820151612d3e6000850182612d19565b506020820151612d516020850182612d19565b506040820151612d646040850182612d19565b50505050565b6000606082019050612d7f6000830184612d28565b92915050565b600067ffffffffffffffff821115612da057612d9f6128ae565b5b602082029050919050565b60006101008284031215612dc257612dc16128a9565b5b612dcd61010061290e565b90506000612ddd84828501612959565b6000830152506020612df1848285016123dd565b6020830152506040612e05848285016123dd565b6040830152506060612e19848285016123dd565b6060830152506080612e2d848285016123dd565b60808301525060a0612e41848285016123dd565b60a08301525060c0612e55848285016123dd565b60c08301525060e0612e69848285016123dd565b60e08301525092915050565b6000612e88612e8384612d85565b61290e565b9050806101008402830185811115612ea357612ea2612954565b5b835b81811015612ecd5780612eb88882612dab565b84526020840193505061010081019050612ea5565b5050509392505050565b600082601f830112612eec57612eeb612929565b5b6002612ef9848285612e75565b91505092915050565b60006102408284031215612f1957612f186128a9565b5b612f23606061290e565b90506000612f3384828501612ed7565b600083015250610200612f48848285016123dd565b602083015250610220612f5d84828501612959565b60408301525092915050565b60006102408284031215612f8057612f7f61218f565b5b6000612f8e84828501612f02565b91505092915050565b7f504f4f4c00000000000000000000000000000000000000000000000000000000600082015250565b6000612fcd600483612272565b9150612fd882612f97565b602082019050919050565b60006020820190508181036000830152612ffc81612fc0565b9050919050565b60006060820190506130186000830186612392565b61302560208301856124c3565b61303260408301846124c3565b949350505050565b7f504f534954494f4e000000000000000000000000000000000000000000000000600082015250565b6000613070600883612272565b915061307b8261303a565b602082019050919050565b6000602082019050818103600083015261309f81613063565b9050919050565b60006060820190506130bb6000830186612392565b6130c860208301856124c3565b6130d5604083018461248b565b949350505050565b60006040820190506130f260008301856124c3565b6130ff60208301846124c3565b9392505050565b6000613111826123bc565b915061311c836123bc565b925082820261312a816123bc565b9150828204841483151761314157613140612c7f565b5b5092915050565b7f4e487b7100000000000000000000000000000000000000000000000000000000600052601260045260246000fd5b6000613182826123bc565b915061318d836123bc565b92508282019050808211156131a5576131a4612c7f565b5b92915050565b60008160011c9050919050565b6000808291508390505b6001851115613202578086048111156131de576131dd612c7f565b5b60018516156131ed5780820291505b80810290506131fb856131ab565b94506131c2565b94509492505050565b60008261321b57600190506132d7565b8161322957600090506132d7565b816001811461323f576002811461324957613278565b60019150506132d7565b60ff84111561325b5761325a612c7f565b5b8360020a91508482111561327257613271612c7f565b5b506132d7565b5060208310610133831016604e8410600b84101617156132ad5782820a9050838111156132a8576132a7612c7f565b5b6132d7565b6132ba84848460016131b8565b925090508184048111156132d1576132d0612c7f565b5b81810290505b9392505050565b60006132e9826123bc565b91506132f4836123bc565b92506133217fffffffffffffffffffffffffffffffffffffffffffffffffffffffffffffffff848461320b565b905092915050565b7f4d415247494e5f4c4556454c4c5f5448524553484f4c44000000000000000000600082015250565b600061335f601783612272565b915061336a82613329565b602082019050919050565b6000602082019050818103600083015261338e81613352565b9050919050565b60006020820190506133aa60008301846124c3565b92915050565b7f64732d6d6174682d7375622d756e646572666c6f770000000000000000000000600082015250565b60006133e6601583612272565b91506133f1826133b0565b602082019050919050565b60006020820190508181036000830152613415816133d9565b905091905056fea2646970667358221220a0d6f46798c558615a8dc2fd8cba9c6a031f15f483656b23433960bc496ca60964736f6c634300081c0033",
  "linkReferences": {
    "contracts/pool/PoolStoreUtils.sol": {
      "PoolStoreUtils": [
        {
          "length": 20,
          "start": 2515
        },
        {
          "length": 20,
          "start": 2895
        }
      ]
    },
    "contracts/position/PositionStoreUtils.sol": {
      "PositionStoreUtils": [
        {
          "length": 20,
          "start": 3923
        },
        {
          "length": 20,
          "start": 4558
        }
      ]
    }
  },
  "deployedLinkReferences": {
    "contracts/pool/PoolStoreUtils.sol": {
      "PoolStoreUtils": [
        {
          "length": 20,
          "start": 1886
        },
        {
          "length": 20,
          "start": 2266
        }
      ]
    },
    "contracts/position/PositionStoreUtils.sol": {
      "PositionStoreUtils": [
        {
          "length": 20,
          "start": 3294
        },
        {
          "length": 20,
          "start": 3929
        }
      ]
    }
  }
}