{
  "_format": "hh-sol-artifact-1",
  "contractName": "LiquidationHandler",
  "sourceName": "contracts/exchange/LiquidationHandler.sol",
  "abi": [
    {
      "inputs": [
        {
          "internalType": "contract RoleStore",
          "name": "_roleStore",
          "type": "address"
        },
        {
          "internalType": "contract DataStore",
          "name": "_dataStore",
          "type": "address"
        },
        {
          "internalType": "contract EventEmitter",
          "name": "_eventEmitter",
          "type": "address"
        }
      ],
      "stateMutability": "nonpayable",
      "type": "constructor"
    },
    {
      "inputs": [
        {
          "internalType": "address",
          "name": "accountInPosition",
          "type": "address"
        },
        {
          "internalType": "address",
          "name": "account",
          "type": "address"
        }
      ],
      "name": "AccountNotMatch",
      "type": "error"
    },
    {
      "inputs": [
        {
          "internalType": "bytes32",
          "name": "key",
          "type": "bytes32"
        }
      ],
      "name": "EmptyPool",
      "type": "error"
    },
    {
      "inputs": [],
      "name": "EmptyPosition",
      "type": "error"
    },
    {
      "inputs": [
        {
          "internalType": "uint256",
          "name": "marginLevel",
          "type": "uint256"
        },
        {
          "internalType": "uint256",
          "name": "marginLevelThreshold",
          "type": "uint256"
        }
      ],
      "name": "MarginAboveThreshold",
      "type": "error"
    },
    {
      "inputs": [],
      "name": "MathOverflowedMulDiv",
      "type": "error"
    },
    {
      "inputs": [
        {
          "internalType": "address",
          "name": "msgSender",
          "type": "address"
        },
        {
          "internalType": "string",
          "name": "role",
          "type": "string"
        }
      ],
      "name": "Unauthorized",
      "type": "error"
    },
    {
      "inputs": [],
      "name": "dataStore",
      "outputs": [
        {
          "internalType": "contract DataStore",
          "name": "",
          "type": "address"
        }
      ],
      "stateMutability": "view",
      "type": "function"
    },
    {
      "inputs": [],
      "name": "eventEmitter",
      "outputs": [
        {
          "internalType": "contract EventEmitter",
          "name": "",
          "type": "address"
        }
      ],
      "stateMutability": "view",
      "type": "function"
    },
    {
      "inputs": [
        {
          "internalType": "address",
          "name": "liquidator",
          "type": "address"
        },
        {
          "components": [
            {
              "internalType": "address",
              "name": "account",
              "type": "address"
            },
            {
              "internalType": "uint256",
              "name": "positionId",
              "type": "uint256"
            }
          ],
          "internalType": "struct LiquidationUtils.LiquidationParams",
          "name": "liquidationParams",
          "type": "tuple"
        }
      ],
      "name": "executeLiquidation",
      "outputs": [],
      "stateMutability": "nonpayable",
      "type": "function"
    },
    {
      "inputs": [],
      "name": "roleStore",
      "outputs": [
        {
          "internalType": "contract RoleStore",
          "name": "",
          "type": "address"
        }
      ],
      "stateMutability": "view",
      "type": "function"
    }
  ],
  "bytecode": "0x60e060405234801561001057600080fd5b50604051613425380380613425833981810160405281019061003291906101cb565b82828073ffffffffffffffffffffffffffffffffffffffff1660808173ffffffffffffffffffffffffffffffffffffffff1681525050508073ffffffffffffffffffffffffffffffffffffffff1660a08173ffffffffffffffffffffffffffffffffffffffff1681525050508073ffffffffffffffffffffffffffffffffffffffff1660c08173ffffffffffffffffffffffffffffffffffffffff168152505050505061021e565b600080fd5b600073ffffffffffffffffffffffffffffffffffffffff82169050919050565b600061010a826100df565b9050919050565b600061011c826100ff565b9050919050565b61012c81610111565b811461013757600080fd5b50565b60008151905061014981610123565b92915050565b600061015a826100ff565b9050919050565b61016a8161014f565b811461017557600080fd5b50565b60008151905061018781610161565b92915050565b6000610198826100ff565b9050919050565b6101a88161018d565b81146101b357600080fd5b50565b6000815190506101c58161019f565b92915050565b6000806000606084860312156101e4576101e36100da565b5b60006101f28682870161013a565b935050602061020386828701610178565b9250506040610214868287016101b6565b9150509250925092565b60805160a05160c0516131b0610275600039600081816101c5015261025001526000818160c9015261044001526000818160ed01528181610189015281816102760152818161037901526106e201526131b06000f3fe608060405234801561001057600080fd5b506004361061004c5760003560e01c80634a4a7b0414610051578063660d0d671461006f57806383f3d2eb1461008d5780639ff78c30146100a9575b600080fd5b6100596100c7565b6040516100669190611f42565b60405180910390f35b6100776100eb565b6040516100849190611f7e565b60405180910390f35b6100a760048036038101906100a2919061200a565b61010f565b005b6100b161024e565b6040516100be919061206b565b60405180910390f35b7f000000000000000000000000000000000000000000000000000000000000000081565b7f000000000000000000000000000000000000000000000000000000000000000081565b610117610272565b61017a604051602001610129906120e3565b604051602081830303815290604052805190602001206040518060400160405280600a81526020017f434f4e54524f4c4c45520000000000000000000000000000000000000000000081525061043e565b600060405180608001604052807f000000000000000000000000000000000000000000000000000000000000000073ffffffffffffffffffffffffffffffffffffffff1681526020017f000000000000000000000000000000000000000000000000000000000000000073ffffffffffffffffffffffffffffffffffffffff1681526020018360000160208101906102129190612103565b73ffffffffffffffffffffffffffffffffffffffff168152602001836020013581525090506102418382610521565b5061024a6106e0565b5050565b7f000000000000000000000000000000000000000000000000000000000000000081565b60007f000000000000000000000000000000000000000000000000000000000000000073ffffffffffffffffffffffffffffffffffffffff1663bd02d0f56040516020016102bf9061217c565b604051602081830303815290604052805190602001206040518263ffffffff1660e01b81526004016102f191906121b5565b602060405180830381865afa15801561030e573d6000803e3d6000fd5b505050506040513d601f19601f820116820180604052508101906103329190612206565b905060008114610377576040517f08c379a000000000000000000000000000000000000000000000000000000000815260040161036e9061227f565b60405180910390fd5b7f000000000000000000000000000000000000000000000000000000000000000073ffffffffffffffffffffffffffffffffffffffff1663e2a4853a6040516020016103c29061217c565b6040516020818303038152906040528051906020012060016040518363ffffffff1660e01b81526004016103f79291906122ae565b6020604051808303816000875af1158015610416573d6000803e3d6000fd5b505050506040513d601f19601f8201168201806040525081019061043a9190612206565b5050565b7f000000000000000000000000000000000000000000000000000000000000000073ffffffffffffffffffffffffffffffffffffffff1663ac4ab3fb33846040518363ffffffff1660e01b81526004016104999291906122e6565b602060405180830381865afa1580156104b6573d6000803e3d6000fd5b505050506040513d601f19601f820116820180604052508101906104da9190612347565b61051d5733816040517fa35b150b0000000000000000000000000000000000000000000000000000000081526004016105149291906123f3565b60405180910390fd5b5050565b610529611c76565b6105408260400151836000015184606001516107a6565b82604001836060018281525082905250506105ae8260000151826040015160000151600060ff166002811061057857610577612423565b5b602002015160000151836040015160000151600160ff16600281106105a05761059f612423565b5b6020020151600001516107c7565b82600001836020018281525082905250506105d6826000015182600001518360400151610880565b856080018660a0018760c0018860e0018961010001858152508581525085815250858152508581525050505050506106368260200151848460400151856060015185608001518660a001518760c001518860e0015189610100015161094d565b61065282600001518260000151836040015184606001516109d1565b61066482602001518260000151610bb2565b73__$e0022d6f389ac14ff1ce1dc57a4018d0a3$__63be6afc398360000151836020015184600001516040518463ffffffff1660e01b81526004016106ab93929190612625565b60006040518083038186803b1580156106c357600080fd5b505af41580156106d7573d6000803e3d6000fd5b50505050505050565b7f000000000000000000000000000000000000000000000000000000000000000073ffffffffffffffffffffffffffffffffffffffff1663e2a4853a60405160200161072b9061217c565b6040516020818303038152906040528051906020012060006040518363ffffffff1660e01b81526004016107609291906122ae565b6020604051808303816000875af115801561077f573d6000803e3d6000fd5b505050506040513d601f19601f820116820180604052508101906107a39190612206565b50565b6107ae611cd4565b60006107bb858585610d7d565b91509150935093915050565b6107cf611d11565b6000806107dc8585610e2d565b9050600073__$e0022d6f389ac14ff1ce1dc57a4018d0a3$__637b82d74e88846040518363ffffffff1660e01b815260040161081992919061265d565b61024060405180830381865af4158015610837573d6000803e3d6000fd5b505050506040513d601f19601f8201168201806040525081019061085b919061291b565b90506108678183610ecb565b61087081610f44565b8082935093505050935093915050565b6000806000806000610890611d72565b61089b8989896110f0565b856000018660200187604001886060018960800185815250858152508581525085815250858152505050505050806020015181600001511061091e57806000015181602001516040517fe9d064f4000000000000000000000000000000000000000000000000000000008152600401610915929190612949565b60405180910390fd5b806000015181602001518260400151836060015184608001519550955095509550955050939792965093509350565b8873ffffffffffffffffffffffffffffffffffffffff166342ff64a589898989898989896040518963ffffffff1660e01b8152600401610994989796959493929190612972565b600060405180830381600087803b1580156109ae57600080fd5b505af11580156109c2573d6000803e3d6000fd5b50505050505050505050505050565b8160000151600060ff16600281106109ec576109eb612423565b5b6020020151602001518360000151600060ff1660028110610a1057610a0f612423565b5b6020020151606001818151610a259190612a1f565b915081815250508160000151600060ff1660028110610a4757610a46612423565b5b6020020151604001518360000151600060ff1660028110610a6b57610a6a612423565b5b602002015160a001818151610a809190612a1f565b915081815250508160000151600160ff1660028110610aa257610aa1612423565b5b6020020151602001518360000151600160ff1660028110610ac657610ac5612423565b5b6020020151606001818151610adb9190612a1f565b915081815250508160000151600160ff1660028110610afd57610afc612423565b5b6020020151604001518360000151600160ff1660028110610b2157610b20612423565b5b602002015160a001818151610b369190612a1f565b9150818152505073__$3d31b232fb363902662fbc281b11ab3357$__63b2aa83ec858385604001516040518463ffffffff1660e01b8152600401610b7c93929190612a53565b60006040518083038186803b158015610b9457600080fd5b505af4158015610ba8573d6000803e3d6000fd5b5050505050505050565b610bba611da1565b610bc5826000611172565b826000018360200182815250828152505050816040015173ffffffffffffffffffffffffffffffffffffffff16634329759a60405180604001604052808460000151815260200184602001518152506040518263ffffffff1660e01b8152600401610c309190612ac8565b602060405180830381865afa158015610c4d573d6000803e3d6000fd5b505050506040513d601f19601f82011682018060405250810190610c719190612206565b8260000151600060ff1660028110610c8c57610c8b612423565b5b60200201516040018181525050610ca4826001611172565b826000018360200182815250828152505050816040015173ffffffffffffffffffffffffffffffffffffffff16634329759a60405180604001604052808460000151815260200184602001518152506040518263ffffffff1660e01b8152600401610d0f9190612ac8565b602060405180830381865afa158015610d2c573d6000803e3d6000fd5b505050506040513d601f19601f82011682018060405250810190610d509190612206565b8260000151600160ff1660028110610d6b57610d6a612423565b5b60200201516040018181525050505050565b610d85611cd4565b600080610d9286856111c2565b9050600073__$3d31b232fb363902662fbc281b11ab3357$__637b82d74e87846040518363ffffffff1660e01b8152600401610dcf92919061265d565b61024060405180830381865af4158015610ded573d6000803e3d6000fd5b505050506040513d601f19601f82011682018060405250810190610e119190612cc7565b9050610e1d878261121b565b8082935093505050935093915050565b60008173ffffffffffffffffffffffffffffffffffffffff168373ffffffffffffffffffffffffffffffffffffffff1610610e69578183610e6c565b82825b8093508194505050604051602001610e8390612d41565b604051602081830303815290604052805190602001208383604051602001610ead93929190612d61565b60405160208183030381529060405280519060200120905092915050565b600073ffffffffffffffffffffffffffffffffffffffff16826020015173ffffffffffffffffffffffffffffffffffffffff1603610f4057806040517f7357d91f000000000000000000000000000000000000000000000000000000008152600401610f3791906121b5565b60405180910390fd5b5050565b6000610f4e611303565b905080826080015103610f6157506110ed565b60008260000151600060ff1660028110610f7e57610f7d612423565b5b602002015160a0015114611021576000610fbf8360000151600060ff1660028110610fac57610fab612423565b5b602002015160400151846080015161130b565b9050610ff7818460000151600060ff1660028110610fe057610fdf612423565b5b60200201516020015161136690919063ffffffff16565b8360000151600060ff166002811061101257611011612423565b5b60200201516020018181525050505b60008260000151600160ff166002811061103e5761103d612423565b5b602002015160a00151146110e157600061107f8360000151600160ff166002811061106c5761106b612423565b5b602002015160400151846080015161130b565b90506110b7818460000151600160ff16600281106110a05761109f612423565b5b60200201516020015161136690919063ffffffff16565b8360000151600160ff16600281106110d2576110d1612423565b5b60200201516020018181525050505b80826080018181525050505b50565b6000806000806000611101876113b1565b90506111108787836000611481565b809350819450505060008211611146577fffffffffffffffffffffffffffffffffffffffffffffffffffffffffffffffff61115a565b61115982846116b290919063ffffffff16565b5b9450611165886116f9565b9350939792965093509350565b60008060006111a385600001518560ff166002811061119457611193612423565b5b602002015186608001516117a0565b905060006111b186866117e5565b905080829350935050509250929050565b60006040516020016111d390612de4565b6040516020818303038152906040528051906020012083836040516020016111fd93929190612e04565b60405160208183030381529060405280519060200120905092915050565b600073ffffffffffffffffffffffffffffffffffffffff16816040015173ffffffffffffffffffffffffffffffffffffffff1603611285576040517f4dfbbff300000000000000000000000000000000000000000000000000000000815260040160405180910390fd5b806040015173ffffffffffffffffffffffffffffffffffffffff168273ffffffffffffffffffffffffffffffffffffffff16146112ff578060400151826040517f25c7157e0000000000000000000000000000000000000000000000000000000081526004016112f6929190612e3b565b60405180910390fd5b5050565b600042905090565b60008082611317611303565b6113219190612a1f565b8461132c9190612e64565b90506301e13380818161134257611341612ea6565b5b049050806b033b2e3c9fd0803ce800000061135d9190612ed5565b91505092915050565b6000816b019d971e4fe8401e74000000600019030483111582151761138a57600080fd5b6b033b2e3c9fd0803ce80000006b019d971e4fe8401e740000008385020104905092915050565b6000806113c0836000806118d2565b505050905060006113d484600160006118d2565b5050509050600081036113ec5760009250505061147c565b60006113fd856060015160006119a6565b90506000611410866060015160016119a6565b90506000611437856b033b2e3c9fd0803ce800000085600a611432919061303c565b611a19565b9050600061145e856b033b2e3c9fd0803ce800000085600a611459919061303c565b611a19565b905061147381836116b290919063ffffffff16565b96505050505050505b919050565b6000806000808660000151600060ff16600281106114a2576114a1612423565b5b60200201516000015173ffffffffffffffffffffffffffffffffffffffff168573ffffffffffffffffffffffffffffffffffffffff161461157c576000806114ec8a8a6000611b20565b91509150600061150a60008c606001516119a690919063ffffffff16565b90506000611531846b033b2e3c9fd0803ce800000084600a61152c919061303c565b611a19565b90506000611558846b033b2e3c9fd0803ce800000085600a611553919061303c565b611a19565b905081876115669190612ed5565b965080866115749190612ed5565b955050505050505b8660000151600160ff166002811061159757611596612423565b5b60200201516000015173ffffffffffffffffffffffffffffffffffffffff168573ffffffffffffffffffffffffffffffffffffffff16146116a1576000806115e18a8a6001611b20565b9150915060006115ff60018c606001516119a690919063ffffffff16565b90506000611626846b033b2e3c9fd0803ce800000084600a611621919061303c565b611a19565b9050600061164d846b033b2e3c9fd0803ce800000085600a611648919061303c565b611a19565b905060006116648c8461136690919063ffffffff16565b9050600061167b8d8461136690919063ffffffff16565b905081896116899190612ed5565b985080886116979190612ed5565b9750505050505050505b819350809250505094509492505050565b60006b033b2e3c9fd0803ce800000060028304600019030483111515821517156116db57600080fd5b81600283046b033b2e3c9fd0803ce800000085020104905092915050565b60008173ffffffffffffffffffffffffffffffffffffffff1663bd02d0f5604051602001611726906130d3565b604051602081830303815290604052805190602001206040518263ffffffff1660e01b815260040161175891906121b5565b602060405180830381865afa158015611775573d6000803e3d6000fd5b505050506040513d601f19601f820116820180604052508101906117999190612206565b9050919050565b6000808360a00151036117b657600090506117df565b60006117c28484611bce565b90506117db818560a0015161136690919063ffffffff16565b9150505b92915050565b60008083600001518360ff166002811061180257611801612423565b5b602002015190506000846020015173ffffffffffffffffffffffffffffffffffffffff1663e42c08f283600001516040518263ffffffff1660e01b815260040161184c91906130f3565b602060405180830381865afa158015611869573d6000803e3d6000fd5b505050506040513d601f19601f8201168201806040525081019061188d9190612206565b9050600081036118a2576000925050506118cc565b6000826060015190508260c0015181836118bc9190612a1f565b6118c69190612a1f565b93505050505b92915050565b600080600080600087600001518760ff16600281106118f4576118f3612423565b5b60200201519050600061190789896117e5565b905060008103611926576000806000809550955095509550505061199d565b6000611936838b608001516117a0565b9050600061194d898461136690919063ffffffff16565b90506000808a146119705761196b8383611c1d90919063ffffffff16565b611973565b60005b905082846119819190612ed5565b84848661198e9190612a1f565b83985098509850985050505050505b93509350935093565b6000807fffffffffffffffffffffffffffffffffffffffff00ffffffffffffffffffffff9050600060589050600160ff168460ff1603611a08577fffffffffffffffffffffffffffffffffffffff00ffffffffffffffffffffffff9150606090505b8082198616901c9250505092915050565b6000808385029050600080198587098281108382030391505060008103611a5457838281611a4a57611a49612ea6565b5b0492505050611b19565b808411611a8d576040517f227bc15300000000000000000000000000000000000000000000000000000000815260040160405180910390fd5b600084868809905082811182039150808303925060008560000386169050808604955080840493506001818260000304019050808302841793506000600287600302189050808702600203810290508087026002038102905080870260020381029050808702600203810290508087026002038102905080870260020381029050808502955050505050505b9392505050565b600080600084600001518460ff1660028110611b3f57611b3e612423565b5b60200201516040015190506000611b7887600001518660ff1660028110611b6957611b68612423565b5b60200201518860800151611bce565b905060008214611b9a57611b95818361136690919063ffffffff16565b611b9d565b60005b925085600001518560ff1660028110611bb957611bb8612423565b5b60200201516020015193505050935093915050565b6000611bd8611303565b8203611bea5782602001519050611c17565b6000611bfa84604001518461130b565b9050611c1384602001518261136690919063ffffffff16565b9150505b92915050565b6000828284611c2c9190612a1f565b9150811115611c70576040517f08c379a0000000000000000000000000000000000000000000000000000000008152600401611c679061315a565b60405180910390fd5b92915050565b604051806101200160405280611c8a611d11565b815260200160008019168152602001611ca1611cd4565b81526020016000801916815260200160008152602001600081526020016000815260200160008152602001600081525090565b6040518060600160405280611ce7611dbb565b815260200160008152602001600073ffffffffffffffffffffffffffffffffffffffff1681525090565b6040518060a00160405280611d24611de8565b8152602001600073ffffffffffffffffffffffffffffffffffffffff168152602001600073ffffffffffffffffffffffffffffffffffffffff16815260200160008152602001600081525090565b6040518060a0016040528060008152602001600081526020016000815260200160008152602001600081525090565b604051806040016040528060008152602001600081525090565b60405180604001604052806002905b611dd2611e15565b815260200190600190039081611dca5790505090565b60405180604001604052806002905b611dff611e70565b815260200190600190039081611df75790505090565b604051806101000160405280600073ffffffffffffffffffffffffffffffffffffffff168152602001600081526020016000815260200160008152602001600081526020016000815260200160008152602001600081525090565b6040518060e00160405280600073ffffffffffffffffffffffffffffffffffffffff1681526020016000815260200160008152602001600081526020016000815260200160008152602001600081525090565b600073ffffffffffffffffffffffffffffffffffffffff82169050919050565b6000819050919050565b6000611f08611f03611efe84611ec3565b611ee3565b611ec3565b9050919050565b6000611f1a82611eed565b9050919050565b6000611f2c82611f0f565b9050919050565b611f3c81611f21565b82525050565b6000602082019050611f576000830184611f33565b92915050565b6000611f6882611f0f565b9050919050565b611f7881611f5d565b82525050565b6000602082019050611f936000830184611f6f565b92915050565b6000604051905090565b600080fd5b6000611fb382611ec3565b9050919050565b611fc381611fa8565b8114611fce57600080fd5b50565b600081359050611fe081611fba565b92915050565b600080fd5b60006040828403121561200157612000611fe6565b5b81905092915050565b6000806060838503121561202157612020611fa3565b5b600061202f85828601611fd1565b925050602061204085828601611feb565b9150509250929050565b600061205582611f0f565b9050919050565b6120658161204a565b82525050565b6000602082019050612080600083018461205c565b92915050565b600082825260208201905092915050565b7f434f4e54524f4c4c455200000000000000000000000000000000000000000000600082015250565b60006120cd600a83612086565b91506120d882612097565b602082019050919050565b600060208201905081810360008301526120fc816120c0565b9050919050565b60006020828403121561211957612118611fa3565b5b600061212784828501611fd1565b91505092915050565b7f5245454e5452414e43595f47554152445f535441545553000000000000000000600082015250565b6000612166601783612086565b915061217182612130565b602082019050919050565b6000602082019050818103600083015261219581612159565b9050919050565b6000819050919050565b6121af8161219c565b82525050565b60006020820190506121ca60008301846121a6565b92915050565b6000819050919050565b6121e3816121d0565b81146121ee57600080fd5b50565b600081519050612200816121da565b92915050565b60006020828403121561221c5761221b611fa3565b5b600061222a848285016121f1565b91505092915050565b7f5265656e7472616e637947756172643a207265656e7472616e742063616c6c00600082015250565b6000612269601f83612086565b915061227482612233565b602082019050919050565b600060208201905081810360008301526122988161225c565b9050919050565b6122a8816121d0565b82525050565b60006040820190506122c360008301856121a6565b6122d0602083018461229f565b9392505050565b6122e081611fa8565b82525050565b60006040820190506122fb60008301856122d7565b61230860208301846121a6565b9392505050565b60008115159050919050565b6123248161230f565b811461232f57600080fd5b50565b6000815190506123418161231b565b92915050565b60006020828403121561235d5761235c611fa3565b5b600061236b84828501612332565b91505092915050565b600081519050919050565b60005b8381101561239d578082015181840152602081019050612382565b60008484015250505050565b6000601f19601f8301169050919050565b60006123c582612374565b6123cf8185612086565b93506123df81856020860161237f565b6123e8816123a9565b840191505092915050565b600060408201905061240860008301856122d7565b818103602083015261241a81846123ba565b90509392505050565b7f4e487b7100000000000000000000000000000000000000000000000000000000600052603260045260246000fd5b61245b81611fa8565b82525050565b61246a8161219c565b82525050565b600060029050919050565b600081905092915050565b6000819050919050565b61249981611fa8565b82525050565b6124a8816121d0565b82525050565b60e0820160008201516124c46000850182612490565b5060208201516124d7602085018261249f565b5060408201516124ea604085018261249f565b5060608201516124fd606085018261249f565b506080820151612510608085018261249f565b5060a082015161252360a085018261249f565b5060c082015161253660c085018261249f565b50505050565b600061254883836124ae565b60e08301905092915050565b6000602082019050919050565b61256a81612470565b612574818461247b565b925061257f82612486565b8060005b838110156125b0578151612597878261253c565b96506125a283612554565b925050600181019050612583565b505050505050565b610240820160008201516125cf6000850182612561565b5060208201516125e36101c0850182612490565b5060408201516125f76101e0850182612490565b50606082015161260b61020085018261249f565b50608082015161261f61022085018261249f565b50505050565b60006102808201905061263b6000830186612452565b6126486020830185612461565b61265560408301846125b8565b949350505050565b60006040820190506126726000830185612452565b61267f6020830184612461565b9392505050565b600080fd5b7f4e487b7100000000000000000000000000000000000000000000000000000000600052604160045260246000fd5b6126c3826123a9565b810181811067ffffffffffffffff821117156126e2576126e161268b565b5b80604052505050565b60006126f5611f99565b905061270182826126ba565b919050565b600080fd5b600067ffffffffffffffff8211156127265761272561268b565b5b602082029050919050565b600080fd5b60008151905061274581611fba565b92915050565b600060e0828403121561276157612760612686565b5b61276b60e06126eb565b9050600061277b84828501612736565b600083015250602061278f848285016121f1565b60208301525060406127a3848285016121f1565b60408301525060606127b7848285016121f1565b60608301525060806127cb848285016121f1565b60808301525060a06127df848285016121f1565b60a08301525060c06127f3848285016121f1565b60c08301525092915050565b600061281261280d8461270b565b6126eb565b90508060e0840283018581111561282c5761282b612731565b5b835b818110156128555780612841888261274b565b84526020840193505060e08101905061282e565b5050509392505050565b600082601f83011261287457612873612706565b5b60026128818482856127ff565b91505092915050565b600061024082840312156128a1576128a0612686565b5b6128ab60a06126eb565b905060006128bb8482850161285f565b6000830152506101c06128d084828501612736565b6020830152506101e06128e584828501612736565b6040830152506102006128fa848285016121f1565b60608301525061022061290f848285016121f1565b60808301525092915050565b6000610240828403121561293257612931611fa3565b5b60006129408482850161288a565b91505092915050565b600060408201905061295e600083018561229f565b61296b602083018461229f565b9392505050565b600061010082019050612988600083018b6122d7565b612995602083018a6122d7565b6129a2604083018961229f565b6129af606083018861229f565b6129bc608083018761229f565b6129c960a083018661229f565b6129d660c083018561229f565b6129e360e083018461229f565b9998505050505050505050565b7f4e487b7100000000000000000000000000000000000000000000000000000000600052601160045260246000fd5b6000612a2a826121d0565b9150612a35836121d0565b9250828203905081811115612a4d57612a4c6129f0565b5b92915050565b6000606082019050612a686000830186612452565b612a756020830185612461565b612a826040830184612452565b949350505050565b612a93816121d0565b82525050565b604082016000820151612aaf6000850182612a8a565b506020820151612ac26020850182612a8a565b50505050565b6000604082019050612add6000830184612a99565b92915050565b600067ffffffffffffffff821115612afe57612afd61268b565b5b602082029050919050565b60006101008284031215612b2057612b1f612686565b5b612b2b6101006126eb565b90506000612b3b84828501612736565b6000830152506020612b4f848285016121f1565b6020830152506040612b63848285016121f1565b6040830152506060612b77848285016121f1565b6060830152506080612b8b848285016121f1565b60808301525060a0612b9f848285016121f1565b60a08301525060c0612bb3848285016121f1565b60c08301525060e0612bc7848285016121f1565b60e08301525092915050565b6000612be6612be184612ae3565b6126eb565b9050806101008402830185811115612c0157612c00612731565b5b835b81811015612c2b5780612c168882612b09565b84526020840193505061010081019050612c03565b5050509392505050565b600082601f830112612c4a57612c49612706565b5b6002612c57848285612bd3565b91505092915050565b60006102408284031215612c7757612c76612686565b5b612c8160606126eb565b90506000612c9184828501612c35565b600083015250610200612ca6848285016121f1565b602083015250610220612cbb84828501612736565b60408301525092915050565b60006102408284031215612cde57612cdd611fa3565b5b6000612cec84828501612c60565b91505092915050565b7f504f4f4c00000000000000000000000000000000000000000000000000000000600082015250565b6000612d2b600483612086565b9150612d3682612cf5565b602082019050919050565b60006020820190508181036000830152612d5a81612d1e565b9050919050565b6000606082019050612d7660008301866121a6565b612d8360208301856122d7565b612d9060408301846122d7565b949350505050565b7f504f534954494f4e000000000000000000000000000000000000000000000000600082015250565b6000612dce600883612086565b9150612dd982612d98565b602082019050919050565b60006020820190508181036000830152612dfd81612dc1565b9050919050565b6000606082019050612e1960008301866121a6565b612e2660208301856122d7565b612e33604083018461229f565b949350505050565b6000604082019050612e5060008301856122d7565b612e5d60208301846122d7565b9392505050565b6000612e6f826121d0565b9150612e7a836121d0565b9250828202612e88816121d0565b91508282048414831517612e9f57612e9e6129f0565b5b5092915050565b7f4e487b7100000000000000000000000000000000000000000000000000000000600052601260045260246000fd5b6000612ee0826121d0565b9150612eeb836121d0565b9250828201905080821115612f0357612f026129f0565b5b92915050565b60008160011c9050919050565b6000808291508390505b6001851115612f6057808604811115612f3c57612f3b6129f0565b5b6001851615612f4b5780820291505b8081029050612f5985612f09565b9450612f20565b94509492505050565b600082612f795760019050613035565b81612f875760009050613035565b8160018114612f9d5760028114612fa757612fd6565b6001915050613035565b60ff841115612fb957612fb86129f0565b5b8360020a915084821115612fd057612fcf6129f0565b5b50613035565b5060208310610133831016604e8410600b841016171561300b5782820a905083811115613006576130056129f0565b5b613035565b6130188484846001612f16565b9250905081840481111561302f5761302e6129f0565b5b81810290505b9392505050565b6000613047826121d0565b9150613052836121d0565b925061307f7fffffffffffffffffffffffffffffffffffffffffffffffffffffffffffffffff8484612f69565b905092915050565b7f4d415247494e5f4c4556454c4c5f5448524553484f4c44000000000000000000600082015250565b60006130bd601783612086565b91506130c882613087565b602082019050919050565b600060208201905081810360008301526130ec816130b0565b9050919050565b600060208201905061310860008301846122d7565b92915050565b7f64732d6d6174682d7375622d756e646572666c6f770000000000000000000000600082015250565b6000613144601583612086565b915061314f8261310e565b602082019050919050565b6000602082019050818103600083015261317381613137565b905091905056fea2646970667358221220cd4e29846296eb5ab35f41b36659eedda28acdfcc62663416d2eb44e746b522964736f6c634300081c0033",
  "linkReferences": {
    "contracts/pool/PoolStoreUtils.sol": {
      "PoolStoreUtils": [
        {
          "length": 20,
          "start": 2267
        },
        {
          "length": 20,
          "start": 2647
        }
      ]
    },
    "contracts/position/PositionStoreUtils.sol": {
      "PositionStoreUtils": [
        {
          "length": 20,
          "start": 3508
        },
        {
          "length": 20,
          "start": 4109
        }
      ]
    }
  },
  "deployedLinkReferences": {
    "contracts/pool/PoolStoreUtils.sol": {
      "PoolStoreUtils": [
        {
          "length": 20,
          "start": 1638
        },
        {
          "length": 20,
          "start": 2018
        }
      ]
    },
    "contracts/position/PositionStoreUtils.sol": {
      "PositionStoreUtils": [
        {
          "length": 20,
          "start": 2879
        },
        {
          "length": 20,
          "start": 3480
        }
      ]
    }
  }
}