{
  "_format": "hh-sol-artifact-1",
  "contractName": "Pool",
  "sourceName": "contracts/pool/Pool.sol",
  "abi": [
    {
      "inputs": [],
      "name": "BASE",
      "outputs": [
        {
          "internalType": "uint8",
          "name": "",
          "type": "uint8"
        }
      ],
      "stateMutability": "view",
      "type": "function"
    },
    {
      "inputs": [],
      "name": "MEME",
      "outputs": [
        {
          "internalType": "uint8",
          "name": "",
          "type": "uint8"
        }
      ],
      "stateMutability": "view",
      "type": "function"
    },
    {
      "inputs": [],
      "name": "PRICE_DECIMALS",
      "outputs": [
        {
          "internalType": "uint8",
          "name": "",
          "type": "uint8"
        }
      ],
      "stateMutability": "view",
      "type": "function"
    }
  ],
  "bytecode": "0x610112610052600b82828239805160001a6073146045577f4e487b7100000000000000000000000000000000000000000000000000000000600052600060045260246000fd5b30600052607381538281f3fe730000000000000000000000000000000000000000301460806040526004361060475760003560e01c80632e7b094814604c578063ec342ad0146066578063f1a640f8146080575b600080fd5b6052609a565b604051605d919060c3565b60405180910390f35b606c609f565b6040516077919060c3565b60405180910390f35b608660a4565b6040516091919060c3565b60405180910390f35b600181565b600081565b601b81565b600060ff82169050919050565b60bd8160a9565b82525050565b600060208201905060d6600083018460b6565b9291505056fea26469706673582212206a26e86de196c3328a7bb31b8d949bf137ce5b01e4be6f90b38bd254b94f520b64736f6c634300081b0033",
  "linkReferences": {},
  "deployedLinkReferences": {}
}