{
  "_format": "hh-sol-artifact-1",
  "contractName": "PoolFactory",
  "sourceName": "contracts/pool/PoolFactory.sol",
  "abi": [
    {
      "inputs": [
        {
          "internalType": "contract RoleStore",
          "name": "_roleStore",
          "type": "address"
        },
        {
          "internalType": "contract DataStore",
          "name": "_dataStore",
          "type": "address"
        }
      ],
      "stateMutability": "nonpayable",
      "type": "constructor"
    },
    {
      "inputs": [],
      "name": "EmptyBase",
      "type": "error"
    },
    {
      "inputs": [],
      "name": "EmptyConfiguration",
      "type": "error"
    },
    {
      "inputs": [],
      "name": "EmptyInterestRateStrategy",
      "type": "error"
    },
    {
      "inputs": [
        {
          "internalType": "bytes32",
          "name": "key",
          "type": "bytes32"
        }
      ],
      "name": "EmptyPool",
      "type": "error"
    },
    {
      "inputs": [
        {
          "internalType": "uint256",
          "name": "decimals",
          "type": "uint256"
        },
        {
          "internalType": "uint256",
          "name": "MaxValidDecimals",
          "type": "uint256"
        }
      ],
      "name": "InvalidDecimals",
      "type": "error"
    },
    {
      "inputs": [
        {
          "internalType": "bytes32",
          "name": "key",
          "type": "bytes32"
        },
        {
          "internalType": "address",
          "name": "poolBank",
          "type": "address"
        }
      ],
      "name": "PoolAlreadyExists",
      "type": "error"
    },
    {
      "inputs": [
        {
          "components": [
            {
              "internalType": "address",
              "name": "token",
              "type": "address"
            },
            {
              "internalType": "address",
              "name": "source",
              "type": "address"
            }
          ],
          "internalType": "struct CreatePoolParams",
          "name": "params",
          "type": "tuple"
        }
      ],
      "name": "createPool",
      "outputs": [
        {
          "components": [
            {
              "components": [
                {
                  "internalType": "address",
                  "name": "token",
                  "type": "address"
                },
                {
                  "internalType": "uint256",
                  "name": "borrowIndex",
                  "type": "uint256"
                },
                {
                  "internalType": "uint256",
                  "name": "borrowRate",
                  "type": "uint256"
                },
                {
                  "internalType": "uint256",
                  "name": "totalCollateral",
                  "type": "uint256"
                },
                {
                  "internalType": "uint256",
                  "name": "totalCollateralWithDebt",
                  "type": "uint256"
                },
                {
                  "internalType": "uint256",
                  "name": "totalDebtScaled",
                  "type": "uint256"
                },
                {
                  "internalType": "uint256",
                  "name": "unclaimedFee",
                  "type": "uint256"
                }
              ],
              "internalType": "struct Pool.Asset[2]",
              "name": "assets",
              "type": "tuple[2]"
            },
            {
              "internalType": "address",
              "name": "bank",
              "type": "address"
            },
            {
              "internalType": "address",
              "name": "interestRateStrategy",
              "type": "address"
            },
            {
              "internalType": "uint256",
              "name": "configuration",
              "type": "uint256"
            },
            {
              "internalType": "uint256",
              "name": "lastUpdateTimestamp",
              "type": "uint256"
            }
          ],
          "internalType": "struct Pool.Props",
          "name": "",
          "type": "tuple"
        }
      ],
      "stateMutability": "nonpayable",
      "type": "function"
    },
    {
      "inputs": [],
      "name": "dataStore",
      "outputs": [
        {
          "internalType": "contract DataStore",
          "name": "",
          "type": "address"
        }
      ],
      "stateMutability": "view",
      "type": "function"
    },
    {
      "inputs": [],
      "name": "roleStore",
      "outputs": [
        {
          "internalType": "contract RoleStore",
          "name": "",
          "type": "address"
        }
      ],
      "stateMutability": "view",
      "type": "function"
    }
  ],
  "bytecode": "0x60c060405234801561001057600080fd5b50604051614cde380380614cde83398181016040528101906100329190610156565b818073ffffffffffffffffffffffffffffffffffffffff1660808173ffffffffffffffffffffffffffffffffffffffff1681525050508073ffffffffffffffffffffffffffffffffffffffff1660a08173ffffffffffffffffffffffffffffffffffffffff16815250505050610196565b600080fd5b600073ffffffffffffffffffffffffffffffffffffffff82169050919050565b60006100d3826100a8565b9050919050565b60006100e5826100c8565b9050919050565b6100f5816100da565b811461010057600080fd5b50565b600081519050610112816100ec565b92915050565b6000610123826100c8565b9050919050565b61013381610118565b811461013e57600080fd5b50565b6000815190506101508161012a565b92915050565b6000806040838503121561016d5761016c6100a3565b5b600061017b85828601610103565b925050602061018c85828601610141565b9150509250929050565b60805160a051614aed6101f16000396000818160d80152818161010f0152818161017f0152818161024901528181610353015281816105c6015281816107b7015261083401526000818160b401526105a50152614aed6000f3fe608060405234801561001057600080fd5b50600436106100415760003560e01c80634a4a7b0414610046578063660d0d67146100645780638251a68714610082575b600080fd5b61004e6100b2565b60405161005b9190610fb2565b60405180910390f35b61006c6100d6565b6040516100799190610fee565b60405180910390f35b61009c6004803603810190610097919061103c565b6100fa565b6040516100a9919061123a565b60405180910390f35b7f000000000000000000000000000000000000000000000000000000000000000081565b7f000000000000000000000000000000000000000000000000000000000000000081565b610102610da8565b61010a610e09565b6101337f000000000000000000000000000000000000000000000000000000000000000061087e565b816000018181525050600081600001510361017a576040517f1854993400000000000000000000000000000000000000000000000000000000815260040160405180910390fd5b6101a37f0000000000000000000000000000000000000000000000000000000000000000610925565b816020019073ffffffffffffffffffffffffffffffffffffffff16908173ffffffffffffffffffffffffffffffffffffffff1681525050600073ffffffffffffffffffffffffffffffffffffffff16816020015173ffffffffffffffffffffffffffffffffffffffff1603610244576040517ffa84aace00000000000000000000000000000000000000000000000000000000815260040160405180910390fd5b61026d7f00000000000000000000000000000000000000000000000000000000000000006109cc565b816040019073ffffffffffffffffffffffffffffffffffffffff16908173ffffffffffffffffffffffffffffffffffffffff1681525050600073ffffffffffffffffffffffffffffffffffffffff16816040015173ffffffffffffffffffffffffffffffffffffffff160361030e576040517f23449c2c00000000000000000000000000000000000000000000000000000000815260040160405180910390fd5b61032e81604001518460000160208101906103299190611282565b610a73565b81606001818152505073__$e0022d6f389ac14ff1ce1dc57a4018d0a3$__637b82d74e7f000000000000000000000000000000000000000000000000000000000000000083606001516040518363ffffffff1660e01b81526004016103949291906112d7565b61024060405180830381865af41580156103b2573d6000803e3d6000fd5b505050506040513d601f19601f820116820180604052508101906103d691906115d2565b8160800181905250600073ffffffffffffffffffffffffffffffffffffffff1681608001516020015173ffffffffffffffffffffffffffffffffffffffff16146104655780606001518160800151602001516040517f0b8422c300000000000000000000000000000000000000000000000000000000815260040161045c92919061161e565b60405180910390fd5b6104f4816040015173ffffffffffffffffffffffffffffffffffffffff1663313ce5676040518163ffffffff1660e01b8152600401602060405180830381865afa1580156104b7573d6000803e3d6000fd5b505050506040513d601f19601f820116820180604052508101906104db9190611680565b60ff1660008360000151610b119092919063ffffffff16565b81600001818152505061059a8360000160208101906105139190611282565b73ffffffffffffffffffffffffffffffffffffffff1663313ce5676040518163ffffffff1660e01b8152600401602060405180830381865afa15801561055d573d6000803e3d6000fd5b505050506040513d601f19601f820116820180604052508101906105819190611680565b60ff1660018360000151610b119092919063ffffffff16565b8160000181815250507f00000000000000000000000000000000000000000000000000000000000000007f00000000000000000000000000000000000000000000000000000000000000006040516105f190610ea6565b6105fc9291906116ad565b604051809103906000f080158015610618573d6000803e3d6000fd5b508160a0019073ffffffffffffffffffffffffffffffffffffffff16908173ffffffffffffffffffffffffffffffffffffffff16815250506040518060a0016040528060405180604001604052806040518060e00160405280866040015173ffffffffffffffffffffffffffffffffffffffff1681526020016b033b2e3c9fd0803ce8000000815260200160008152602001600081526020016000815260200160008152602001600081525081526020016040518060e001604052808860000160208101906106e79190611282565b73ffffffffffffffffffffffffffffffffffffffff1681526020016b033b2e3c9fd0803ce8000000815260200160008152602001600081526020016000815260200160008152602001600081525081525081526020018260a0015173ffffffffffffffffffffffffffffffffffffffff168152602001826020015173ffffffffffffffffffffffffffffffffffffffff1681526020018260000151815260200161078f610bd0565b81525081610100018190525073__$e0022d6f389ac14ff1ce1dc57a4018d0a3$__63be6afc397f000000000000000000000000000000000000000000000000000000000000000083606001518461010001516040518463ffffffff1660e01b81526004016107ff93929190611869565b60006040518083038186803b15801561081757600080fd5b505af415801561082b573d6000803e3d6000fd5b505050506108707f0000000000000000000000000000000000000000000000000000000000000000826060015185602001602081019061086b9190611282565b610bd8565b806101000151915050919050565b60008173ffffffffffffffffffffffffffffffffffffffff1663bd02d0f56040516020016108ab906118fe565b604051602081830303815290604052805190602001206040518263ffffffff1660e01b81526004016108dd919061191e565b602060405180830381865afa1580156108fa573d6000803e3d6000fd5b505050506040513d601f19601f8201168201806040525081019061091e9190611939565b9050919050565b60008173ffffffffffffffffffffffffffffffffffffffff166321f8a721604051602001610952906119b2565b604051602081830303815290604052805190602001206040518263ffffffff1660e01b8152600401610984919061191e565b602060405180830381865afa1580156109a1573d6000803e3d6000fd5b505050506040513d601f19601f820116820180604052508101906109c591906119d2565b9050919050565b60008173ffffffffffffffffffffffffffffffffffffffff166321f8a7216040516020016109f990611a4b565b604051602081830303815290604052805190602001206040518263ffffffff1660e01b8152600401610a2b919061191e565b602060405180830381865afa158015610a48573d6000803e3d6000fd5b505050506040513d601f19601f82011682018060405250810190610a6c91906119d2565b9050919050565b60008173ffffffffffffffffffffffffffffffffffffffff168373ffffffffffffffffffffffffffffffffffffffff1610610aaf578183610ab2565b82825b8093508194505050604051602001610ac990611ab7565b604051602081830303815290604052805190602001208383604051602001610af393929190611ad7565b60405160208183030381529060405280519060200120905092915050565b600060ff831115610b5c578260ff6040517fc3ca0e37000000000000000000000000000000000000000000000000000000008152600401610b53929190611b1d565b60405180910390fd5b60007fffffffffffffffffffffffffffffffffffffffff00ffffffffffffffffffffff9050600060589050600160ff168460ff1603610bbd577fffffffffffffffffffffffffffffffffffffff00ffffffffffffffffffffffff9150606090505b8085901b82871617925050509392505050565b600042905090565b6000610be48484610cb7565b90508073ffffffffffffffffffffffffffffffffffffffff1663ca446dd984604051602001610c1290611b92565b60405160208183030381529060405280519060200120604051602001610c39929190611bb2565b60405160208183030381529060405280519060200120846040518363ffffffff1660e01b8152600401610c6d92919061161e565b6020604051808303816000875af1158015610c8c573d6000803e3d6000fd5b505050506040513d601f19601f82011682018060405250810190610cb091906119d2565b5050505050565b6000808390508073ffffffffffffffffffffffffffffffffffffffff166391d4403c604051602001610ce890611c27565b60405160208183030381529060405280519060200120856040518363ffffffff1660e01b8152600401610d1c929190611bb2565b602060405180830381865afa158015610d39573d6000803e3d6000fd5b505050506040513d601f19601f82011682018060405250810190610d5d9190611c7f565b610d9e57826040517f7357d91f000000000000000000000000000000000000000000000000000000008152600401610d95919061191e565b60405180910390fd5b8091505092915050565b6040518060a00160405280610dbb610eb3565b8152602001600073ffffffffffffffffffffffffffffffffffffffff168152602001600073ffffffffffffffffffffffffffffffffffffffff16815260200160008152602001600081525090565b60405180610120016040528060008152602001600073ffffffffffffffffffffffffffffffffffffffff168152602001600073ffffffffffffffffffffffffffffffffffffffff16815260200160008019168152602001610e68610da8565b8152602001600073ffffffffffffffffffffffffffffffffffffffff1681526020016000815260200160008152602001610ea0610da8565b81525090565b612e0b80611cad83390190565b60405180604001604052806002905b610eca610ee0565b815260200190600190039081610ec25790505090565b6040518060e00160405280600073ffffffffffffffffffffffffffffffffffffffff1681526020016000815260200160008152602001600081526020016000815260200160008152602001600081525090565b600073ffffffffffffffffffffffffffffffffffffffff82169050919050565b6000819050919050565b6000610f78610f73610f6e84610f33565b610f53565b610f33565b9050919050565b6000610f8a82610f5d565b9050919050565b6000610f9c82610f7f565b9050919050565b610fac81610f91565b82525050565b6000602082019050610fc76000830184610fa3565b92915050565b6000610fd882610f7f565b9050919050565b610fe881610fcd565b82525050565b60006020820190506110036000830184610fdf565b92915050565b6000604051905090565b600080fd5b600080fd5b60006040828403121561103357611032611018565b5b81905092915050565b60006040828403121561105257611051611013565b5b60006110608482850161101d565b91505092915050565b600060029050919050565b600081905092915050565b6000819050919050565b600061109482610f33565b9050919050565b6110a481611089565b82525050565b6000819050919050565b6110bd816110aa565b82525050565b60e0820160008201516110d9600085018261109b565b5060208201516110ec60208501826110b4565b5060408201516110ff60408501826110b4565b50606082015161111260608501826110b4565b50608082015161112560808501826110b4565b5060a082015161113860a08501826110b4565b5060c082015161114b60c08501826110b4565b50505050565b600061115d83836110c3565b60e08301905092915050565b6000602082019050919050565b61117f81611069565b6111898184611074565b92506111948261107f565b8060005b838110156111c55781516111ac8782611151565b96506111b783611169565b925050600181019050611198565b505050505050565b610240820160008201516111e46000850182611176565b5060208201516111f86101c085018261109b565b50604082015161120c6101e085018261109b565b5060608201516112206102008501826110b4565b5060808201516112346102208501826110b4565b50505050565b60006102408201905061125060008301846111cd565b92915050565b61125f81611089565b811461126a57600080fd5b50565b60008135905061127c81611256565b92915050565b60006020828403121561129857611297611013565b5b60006112a68482850161126d565b91505092915050565b6112b881611089565b82525050565b6000819050919050565b6112d1816112be565b82525050565b60006040820190506112ec60008301856112af565b6112f960208301846112c8565b9392505050565b600080fd5b6000601f19601f8301169050919050565b7f4e487b7100000000000000000000000000000000000000000000000000000000600052604160045260246000fd5b61134e82611305565b810181811067ffffffffffffffff8211171561136d5761136c611316565b5b80604052505050565b6000611380611009565b905061138c8282611345565b919050565b600080fd5b600067ffffffffffffffff8211156113b1576113b0611316565b5b602082029050919050565b600080fd5b6000815190506113d081611256565b92915050565b6113df816110aa565b81146113ea57600080fd5b50565b6000815190506113fc816113d6565b92915050565b600060e0828403121561141857611417611300565b5b61142260e0611376565b90506000611432848285016113c1565b6000830152506020611446848285016113ed565b602083015250604061145a848285016113ed565b604083015250606061146e848285016113ed565b6060830152506080611482848285016113ed565b60808301525060a0611496848285016113ed565b60a08301525060c06114aa848285016113ed565b60c08301525092915050565b60006114c96114c484611396565b611376565b90508060e084028301858111156114e3576114e26113bc565b5b835b8181101561150c57806114f88882611402565b84526020840193505060e0810190506114e5565b5050509392505050565b600082601f83011261152b5761152a611391565b5b60026115388482856114b6565b91505092915050565b6000610240828403121561155857611557611300565b5b61156260a0611376565b9050600061157284828501611516565b6000830152506101c0611587848285016113c1565b6020830152506101e061159c848285016113c1565b6040830152506102006115b1848285016113ed565b6060830152506102206115c6848285016113ed565b60808301525092915050565b600061024082840312156115e9576115e8611013565b5b60006115f784828501611541565b91505092915050565b611609816112be565b82525050565b61161881611089565b82525050565b60006040820190506116336000830185611600565b611640602083018461160f565b9392505050565b600060ff82169050919050565b61165d81611647565b811461166857600080fd5b50565b60008151905061167a81611654565b92915050565b60006020828403121561169657611695611013565b5b60006116a48482850161166b565b91505092915050565b60006040820190506116c26000830185610fa3565b6116cf6020830184610fdf565b9392505050565b600081905092915050565b6116ea81611089565b82525050565b6116f9816110aa565b82525050565b60e08201600082015161171560008501826116e1565b50602082015161172860208501826116f0565b50604082015161173b60408501826116f0565b50606082015161174e60608501826116f0565b50608082015161176160808501826116f0565b5060a082015161177460a08501826116f0565b5060c082015161178760c08501826116f0565b50505050565b600061179983836116ff565b60e08301905092915050565b6117ae81611069565b6117b881846116d6565b92506117c38261107f565b8060005b838110156117f45781516117db878261178d565b96506117e683611169565b9250506001810190506117c7565b505050505050565b6102408201600082015161181360008501826117a5565b5060208201516118276101c08501826116e1565b50604082015161183b6101e08501826116e1565b50606082015161184f6102008501826116f0565b5060808201516118636102208501826116f0565b50505050565b60006102808201905061187f60008301866112af565b61188c60208301856112c8565b61189960408301846117fc565b949350505050565b600082825260208201905092915050565b7f44454641554c545f504f4f4c5f434f4e46494755524154494f4e000000000000600082015250565b60006118e8601a836118a1565b91506118f3826118b2565b602082019050919050565b60006020820190508181036000830152611917816118db565b9050919050565b60006020820190506119336000830184611600565b92915050565b60006020828403121561194f5761194e611013565b5b600061195d848285016113ed565b91505092915050565b7f44454641554c545f494e5445524553545f524154455f53545241544547590000600082015250565b600061199c601e836118a1565b91506119a782611966565b602082019050919050565b600060208201905081810360008301526119cb8161198f565b9050919050565b6000602082840312156119e8576119e7611013565b5b60006119f6848285016113c1565b91505092915050565b7f544f4b454e5f4241534500000000000000000000000000000000000000000000600082015250565b6000611a35600a836118a1565b9150611a40826119ff565b602082019050919050565b60006020820190508181036000830152611a6481611a28565b9050919050565b7f504f4f4c00000000000000000000000000000000000000000000000000000000600082015250565b6000611aa16004836118a1565b9150611aac82611a6b565b602082019050919050565b60006020820190508181036000830152611ad081611a94565b9050919050565b6000606082019050611aec6000830186611600565b611af9602083018561160f565b611b06604083018461160f565b949350505050565b611b17816110aa565b82525050565b6000604082019050611b326000830185611b0e565b611b3f6020830184611b0e565b9392505050565b7f504f4f4c5f534f55524345000000000000000000000000000000000000000000600082015250565b6000611b7c600b836118a1565b9150611b8782611b46565b602082019050919050565b60006020820190508181036000830152611bab81611b6f565b9050919050565b6000604082019050611bc76000830185611600565b611bd46020830184611600565b9392505050565b7f504f4f4c5f4c4953540000000000000000000000000000000000000000000000600082015250565b6000611c116009836118a1565b9150611c1c82611bdb565b602082019050919050565b60006020820190508181036000830152611c4081611c04565b9050919050565b60008115159050919050565b611c5c81611c47565b8114611c6757600080fd5b50565b600081519050611c7981611c53565b92915050565b600060208284031215611c9557611c94611013565b5b6000611ca384828501611c6a565b9150509291505056fe60c060405234801561001057600080fd5b50604051612e0b380380612e0b83398181016040528101906100329190610231565b81818181818073ffffffffffffffffffffffffffffffffffffffff1660808173ffffffffffffffffffffffffffffffffffffffff1681525050508073ffffffffffffffffffffffffffffffffffffffff1660a08173ffffffffffffffffffffffffffffffffffffffff16815250505050505060004690507f8b73c3c69bb8fe3d512ecc4cf759cc79239f7b179b0ffacaa9a75d522b39400f6040518060400160405280600281526020017f5546000000000000000000000000000000000000000000000000000000000000815250805190602001206040518060400160405280600181526020017f310000000000000000000000000000000000000000000000000000000000000081525080519060200120833060405160200161015a9594939291906102b2565b60405160208183030381529060405280519060200120600481905550505050610305565b600080fd5b600073ffffffffffffffffffffffffffffffffffffffff82169050919050565b60006101ae82610183565b9050919050565b60006101c0826101a3565b9050919050565b6101d0816101b5565b81146101db57600080fd5b50565b6000815190506101ed816101c7565b92915050565b60006101fe826101a3565b9050919050565b61020e816101f3565b811461021957600080fd5b50565b60008151905061022b81610205565b92915050565b600080604083850312156102485761024761017e565b5b6000610256858286016101de565b92505060206102678582860161021c565b9150509250929050565b6000819050919050565b61028481610271565b82525050565b6000819050919050565b61029d8161028a565b82525050565b6102ac816101a3565b82525050565b600060a0820190506102c7600083018861027b565b6102d4602083018761027b565b6102e1604083018661027b565b6102ee6060830185610294565b6102fb60808301846102a3565b9695505050505050565b60805160a051612ad36103386000396000818161015001526109f80152600081816109bc0152610f810152612ad36000f3fe6080604052600436106101445760003560e01c8063523fba7f116100b65780639dc29fac1161006f5780639dc29fac14610542578063a9059cbb1461056b578063d505accf146105a8578063dd62ed3e146105d1578063e42c08f21461060e578063eb40133f1461064b576101e8565b8063523fba7f146103f8578063660d0d671461043557806370a08231146104605780637ecebe001461049d5780638c1b5fde146104da57806395d89b4114610517576101e8565b806330adf81f1161010857806330adf81f146102e6578063313ce56714610311578063352f9aed1461033c5780633644e5151461037957806340c10f19146103a45780634a4a7b04146103cd576101e8565b806306fdde03146101ed578063078d3b7914610218578063095ea7b31461024157806318160ddd1461027e57806323b872dd146102a9576101e8565b366101e85760006101747f0000000000000000000000000000000000000000000000000000000000000000610688565b90508073ffffffffffffffffffffffffffffffffffffffff163373ffffffffffffffffffffffffffffffffffffffff16146101e657336040517fe71a51be0000000000000000000000000000000000000000000000000000000081526004016101dd9190611d3f565b60405180910390fd5b005b600080fd5b3480156101f957600080fd5b5061020261072f565b60405161020f9190611dea565b60405180910390f35b34801561022457600080fd5b5061023f600480360381019061023a9190611e82565b610768565b005b34801561024d57600080fd5b5061026860048036038101906102639190611ed5565b6107db565b6040516102759190611f30565b60405180910390f35b34801561028a57600080fd5b506102936107f2565b6040516102a09190611f5a565b60405180910390f35b3480156102b557600080fd5b506102d060048036038101906102cb9190611e82565b6107f8565b6040516102dd9190611f30565b60405180910390f35b3480156102f257600080fd5b506102fb6108a2565b6040516103089190611f8e565b60405180910390f35b34801561031d57600080fd5b506103266108c9565b6040516103339190611fc5565b60405180910390f35b34801561034857600080fd5b50610363600480360381019061035e9190611fe0565b6108ce565b6040516103709190611f5a565b60405180910390f35b34801561038557600080fd5b5061038e610943565b60405161039b9190611f8e565b60405180910390f35b3480156103b057600080fd5b506103cb60048036038101906103c69190611ed5565b610949565b005b3480156103d957600080fd5b506103e26109ba565b6040516103ef919061206c565b60405180910390f35b34801561040457600080fd5b5061041f600480360381019061041a9190611fe0565b6109de565b60405161042c9190611f5a565b60405180910390f35b34801561044157600080fd5b5061044a6109f6565b60405161045791906120a8565b60405180910390f35b34801561046c57600080fd5b5061048760048036038101906104829190611fe0565b610a1a565b6040516104949190611f5a565b60405180910390f35b3480156104a957600080fd5b506104c460048036038101906104bf9190611fe0565b610a32565b6040516104d19190611f5a565b60405180910390f35b3480156104e657600080fd5b5061050160048036038101906104fc9190611fe0565b610a4a565b60405161050e9190611f5a565b60405180910390f35b34801561052357600080fd5b5061052c610abf565b6040516105399190611dea565b60405180910390f35b34801561054e57600080fd5b5061056960048036038101906105649190611ed5565b610af8565b005b34801561057757600080fd5b50610592600480360381019061058d9190611ed5565b610b69565b60405161059f9190611f30565b60405180910390f35b3480156105b457600080fd5b506105cf60048036038101906105ca919061211b565b610b80565b005b3480156105dd57600080fd5b506105f860048036038101906105f391906121bd565b610da8565b6040516106059190611f5a565b60405180910390f35b34801561061a57600080fd5b5061063560048036038101906106309190611fe0565b610dcd565b6040516106429190611f5a565b60405180910390f35b34801561065757600080fd5b50610672600480360381019061066d9190611fe0565b610e50565b60405161067f9190611f5a565b60405180910390f35b60008173ffffffffffffffffffffffffffffffffffffffff166321f8a7216040516020016106b590612249565b604051602081830303815290604052805190602001206040518263ffffffff1660e01b81526004016106e79190611f8e565b602060405180830381865afa158015610704573d6000803e3d6000fd5b505050506040513d601f19601f82011682018060405250810190610728919061227e565b9050919050565b6040518060400160405280600281526020017f554600000000000000000000000000000000000000000000000000000000000081525081565b6107cb60405160200161077a906122f7565b604051602081830303815290604052805190602001206040518060400160405280600a81526020017f434f4e54524f4c4c455200000000000000000000000000000000000000000000815250610f7f565b6107d6838383611062565b505050565b60006107e83384846110eb565b6001905092915050565b60015481565b600061088c843384600360008973ffffffffffffffffffffffffffffffffffffffff1673ffffffffffffffffffffffffffffffffffffffff16815260200190815260200160002060003373ffffffffffffffffffffffffffffffffffffffff1673ffffffffffffffffffffffffffffffffffffffff168152602001908152602001600020546108879190612346565b6110eb565b6108978484846111d6565b600190509392505050565b7f6e71edae12b1b97f4d1f60370fef10105fa2faae0126114a169c64845d6126c960001b81565b601281565b60006109336040516020016108e2906122f7565b604051602081830303815290604052805190602001206040518060400160405280600a81526020017f434f4e54524f4c4c455200000000000000000000000000000000000000000000815250610f7f565b61093c8261136a565b9050919050565b60045481565b6109ac60405160200161095b906122f7565b604051602081830303815290604052805190602001206040518060400160405280600a81526020017f434f4e54524f4c4c455200000000000000000000000000000000000000000000815250610f7f565b6109b68282611484565b5050565b7f000000000000000000000000000000000000000000000000000000000000000081565b60006020528060005260406000206000915090505481565b7f000000000000000000000000000000000000000000000000000000000000000081565b60026020528060005260406000206000915090505481565b60056020528060005260406000206000915090505481565b6000610aaf604051602001610a5e906122f7565b604051602081830303815290604052805190602001206040518060400160405280600a81526020017f434f4e54524f4c4c455200000000000000000000000000000000000000000000815250610f7f565b610ab88261159e565b9050919050565b6040518060400160405280600281526020017f554600000000000000000000000000000000000000000000000000000000000081525081565b610b5b604051602001610b0a906122f7565b604051602081830303815290604052805190602001206040518060400160405280600a81526020017f434f4e54524f4c4c455200000000000000000000000000000000000000000000815250610f7f565b610b6582826116b8565b5050565b6000610b763384846111d6565b6001905092915050565b42841015610bc3576040517f08c379a0000000000000000000000000000000000000000000000000000000008152600401610bba906123c6565b60405180910390fd5b60006004547f6e71edae12b1b97f4d1f60370fef10105fa2faae0126114a169c64845d6126c960001b898989600560008e73ffffffffffffffffffffffffffffffffffffffff1673ffffffffffffffffffffffffffffffffffffffff1681526020019081526020016000206000815480929190610c3f906123e6565b919050558a604051602001610c599695949392919061242e565b60405160208183030381529060405280519060200120604051602001610c80929190612507565b604051602081830303815290604052805190602001209050600060018286868660405160008152602001604052604051610cbd949392919061253e565b6020604051602081039080840390855afa158015610cdf573d6000803e3d6000fd5b505050602060405103519050600073ffffffffffffffffffffffffffffffffffffffff168173ffffffffffffffffffffffffffffffffffffffff1614158015610d5357508873ffffffffffffffffffffffffffffffffffffffff168173ffffffffffffffffffffffffffffffffffffffff16145b610d92576040517f08c379a0000000000000000000000000000000000000000000000000000000008152600401610d89906125cf565b60405180910390fd5b610d9d8989896110eb565b505050505050505050565b6003602052816000526040600020602052806000526040600020600091509150505481565b60008173ffffffffffffffffffffffffffffffffffffffff166370a08231306040518263ffffffff1660e01b8152600401610e089190611d3f565b602060405180830381865afa158015610e25573d6000803e3d6000fd5b505050506040513d601f19601f82011682018060405250810190610e499190612604565b9050919050565b6000610eb5604051602001610e64906122f7565b604051602081830303815290604052805190602001206040518060400160405280600a81526020017f434f4e54524f4c4c455200000000000000000000000000000000000000000000815250610f7f565b60008273ffffffffffffffffffffffffffffffffffffffff166370a08231306040518263ffffffff1660e01b8152600401610ef09190611d3f565b602060405180830381865afa158015610f0d573d6000803e3d6000fd5b505050506040513d601f19601f82011682018060405250810190610f319190612604565b9050806000808573ffffffffffffffffffffffffffffffffffffffff1673ffffffffffffffffffffffffffffffffffffffff1681526020019081526020016000208190555080915050919050565b7f000000000000000000000000000000000000000000000000000000000000000073ffffffffffffffffffffffffffffffffffffffff1663ac4ab3fb33846040518363ffffffff1660e01b8152600401610fda929190612631565b602060405180830381865afa158015610ff7573d6000803e3d6000fd5b505050506040513d601f19601f8201168201806040525081019061101b9190612686565b61105e5733816040517fa35b150b0000000000000000000000000000000000000000000000000000000081526004016110559291906126b3565b60405180910390fd5b5050565b3073ffffffffffffffffffffffffffffffffffffffff168273ffffffffffffffffffffffffffffffffffffffff16036110d257816040517fe70f91520000000000000000000000000000000000000000000000000000000081526004016110c99190611d3f565b60405180910390fd5b6110dd8383836117d2565b6110e683611890565b505050565b80600360008573ffffffffffffffffffffffffffffffffffffffff1673ffffffffffffffffffffffffffffffffffffffff16815260200190815260200160002060008473ffffffffffffffffffffffffffffffffffffffff1673ffffffffffffffffffffffffffffffffffffffff168152602001908152602001600020819055508173ffffffffffffffffffffffffffffffffffffffff168373ffffffffffffffffffffffffffffffffffffffff167f8c5be1e5ebec7d5bd14f71427d1e84f3dd0314c0f7b2291e5b200ac8c7c3b925836040516111c99190611f5a565b60405180910390a3505050565b61122881600260008673ffffffffffffffffffffffffffffffffffffffff1673ffffffffffffffffffffffffffffffffffffffff1681526020019081526020016000205461194f90919063ffffffff16565b600260008573ffffffffffffffffffffffffffffffffffffffff1673ffffffffffffffffffffffffffffffffffffffff168152602001908152602001600020819055506112bd81600260008573ffffffffffffffffffffffffffffffffffffffff1673ffffffffffffffffffffffffffffffffffffffff168152602001908152602001600020546119a890919063ffffffff16565b600260008473ffffffffffffffffffffffffffffffffffffffff1673ffffffffffffffffffffffffffffffffffffffff168152602001908152602001600020819055508173ffffffffffffffffffffffffffffffffffffffff168373ffffffffffffffffffffffffffffffffffffffff167fddf252ad1be2c89b69c2b068fc378daa952ba7f163c4a11628f55a4df523b3ef8360405161135d9190611f5a565b60405180910390a3505050565b6000806000808473ffffffffffffffffffffffffffffffffffffffff1673ffffffffffffffffffffffffffffffffffffffff16815260200190815260200160002054905060008373ffffffffffffffffffffffffffffffffffffffff166370a08231306040518263ffffffff1660e01b81526004016113e99190611d3f565b602060405180830381865afa158015611406573d6000803e3d6000fd5b505050506040513d601f19601f8201168201806040525081019061142a9190612604565b9050806000808673ffffffffffffffffffffffffffffffffffffffff1673ffffffffffffffffffffffffffffffffffffffff16815260200190815260200160002081905550818161147b9190612346565b92505050919050565b611499816001546119a890919063ffffffff16565b6001819055506114f181600260008573ffffffffffffffffffffffffffffffffffffffff1673ffffffffffffffffffffffffffffffffffffffff168152602001908152602001600020546119a890919063ffffffff16565b600260008473ffffffffffffffffffffffffffffffffffffffff1673ffffffffffffffffffffffffffffffffffffffff168152602001908152602001600020819055508173ffffffffffffffffffffffffffffffffffffffff16600073ffffffffffffffffffffffffffffffffffffffff167fddf252ad1be2c89b69c2b068fc378daa952ba7f163c4a11628f55a4df523b3ef836040516115929190611f5a565b60405180910390a35050565b6000806000808473ffffffffffffffffffffffffffffffffffffffff1673ffffffffffffffffffffffffffffffffffffffff16815260200190815260200160002054905060008373ffffffffffffffffffffffffffffffffffffffff166370a08231306040518263ffffffff1660e01b815260040161161d9190611d3f565b602060405180830381865afa15801561163a573d6000803e3d6000fd5b505050506040513d601f19601f8201168201806040525081019061165e9190612604565b9050806000808673ffffffffffffffffffffffffffffffffffffffff1673ffffffffffffffffffffffffffffffffffffffff1681526020019081526020016000208190555080826116af9190612346565b92505050919050565b61170a81600260008573ffffffffffffffffffffffffffffffffffffffff1673ffffffffffffffffffffffffffffffffffffffff1681526020019081526020016000205461194f90919063ffffffff16565b600260008473ffffffffffffffffffffffffffffffffffffffff1673ffffffffffffffffffffffffffffffffffffffff168152602001908152602001600020819055506117628160015461194f90919063ffffffff16565b600181905550600073ffffffffffffffffffffffffffffffffffffffff168273ffffffffffffffffffffffffffffffffffffffff167fddf252ad1be2c89b69c2b068fc378daa952ba7f163c4a11628f55a4df523b3ef836040516117c69190611f5a565b60405180910390a35050565b600081031561188b576117e482611a01565b6000806117f2858585611a6a565b91509150811561180357505061188b565b600061180e82611c24565b5090507fc9f14d9a0a9b46470c7c0b6c508f8283abaab7f795f153953c58cd4250824dae8183604051611842929190612738565b60405180910390a18585856040517f979dc7800000000000000000000000000000000000000000000000000000000081526004016118829392919061276f565b60405180910390fd5b505050565b8073ffffffffffffffffffffffffffffffffffffffff166370a08231306040518263ffffffff1660e01b81526004016118c99190611d3f565b602060405180830381865afa1580156118e6573d6000803e3d6000fd5b505050506040513d601f19601f8201168201806040525081019061190a9190612604565b6000808373ffffffffffffffffffffffffffffffffffffffff1673ffffffffffffffffffffffffffffffffffffffff1681526020019081526020016000208190555050565b600082828461195e9190612346565b91508111156119a2576040517f08c379a0000000000000000000000000000000000000000000000000000000008152600401611999906127f2565b60405180910390fd5b92915050565b60008282846119b79190612812565b91508110156119fb576040517f08c379a00000000000000000000000000000000000000000000000000000000081526004016119f290612892565b60405180910390fd5b92915050565b600073ffffffffffffffffffffffffffffffffffffffff168173ffffffffffffffffffffffffffffffffffffffff1603611a67576040517fd551823d00000000000000000000000000000000000000000000000000000000815260040160405180910390fd5b50565b60006060600063a9059cbb60e01b8585604051602401611a8b9291906128b2565b604051602081830303815290604052907bffffffffffffffffffffffffffffffffffffffffffffffffffffffff19166020820180517bffffffffffffffffffffffffffffffffffffffffffffffffffffffff838183161783525050505090506000808773ffffffffffffffffffffffffffffffffffffffff1683604051611b129190612917565b6000604051808303816000865af19150503d8060008114611b4f576040519150601f19603f3d011682016040523d82523d6000602084013e611b54565b606091505b50915091508115611c11576000815103611bcc5760008873ffffffffffffffffffffffffffffffffffffffff163b11611bcb5760006040518060400160405280601481526020017f43616c6c20746f206e6f6e2d636f6e747261637400000000000000000000000081525094509450505050611c1c565b5b60008151118015611bee575080806020019051810190611bec9190612686565b155b15611c025760008194509450505050611c1c565b60018194509450505050611c1c565b600081945094505050505b935093915050565b60606000604483511015611c4e576000604051806020016040528060008152509091509150611ce6565b6000611c5984611ceb565b90506308c379a060e01b7bffffffffffffffffffffffffffffffffffffffffffffffffffffffff1916817bffffffffffffffffffffffffffffffffffffffffffffffffffffffff191603611ccd5760048401935083806020019051810190611cc19190612a54565b60019250925050611ce6565b6000604051806020016040528060008152509092509250505b915091565b6000806020830151905080915050919050565b600073ffffffffffffffffffffffffffffffffffffffff82169050919050565b6000611d2982611cfe565b9050919050565b611d3981611d1e565b82525050565b6000602082019050611d546000830184611d30565b92915050565b600081519050919050565b600082825260208201905092915050565b60005b83811015611d94578082015181840152602081019050611d79565b60008484015250505050565b6000601f19601f8301169050919050565b6000611dbc82611d5a565b611dc68185611d65565b9350611dd6818560208601611d76565b611ddf81611da0565b840191505092915050565b60006020820190508181036000830152611e048184611db1565b905092915050565b6000604051905090565b600080fd5b600080fd5b611e2981611d1e565b8114611e3457600080fd5b50565b600081359050611e4681611e20565b92915050565b6000819050919050565b611e5f81611e4c565b8114611e6a57600080fd5b50565b600081359050611e7c81611e56565b92915050565b600080600060608486031215611e9b57611e9a611e16565b5b6000611ea986828701611e37565b9350506020611eba86828701611e37565b9250506040611ecb86828701611e6d565b9150509250925092565b60008060408385031215611eec57611eeb611e16565b5b6000611efa85828601611e37565b9250506020611f0b85828601611e6d565b9150509250929050565b60008115159050919050565b611f2a81611f15565b82525050565b6000602082019050611f456000830184611f21565b92915050565b611f5481611e4c565b82525050565b6000602082019050611f6f6000830184611f4b565b92915050565b6000819050919050565b611f8881611f75565b82525050565b6000602082019050611fa36000830184611f7f565b92915050565b600060ff82169050919050565b611fbf81611fa9565b82525050565b6000602082019050611fda6000830184611fb6565b92915050565b600060208284031215611ff657611ff5611e16565b5b600061200484828501611e37565b91505092915050565b6000819050919050565b600061203261202d61202884611cfe565b61200d565b611cfe565b9050919050565b600061204482612017565b9050919050565b600061205682612039565b9050919050565b6120668161204b565b82525050565b6000602082019050612081600083018461205d565b92915050565b600061209282612039565b9050919050565b6120a281612087565b82525050565b60006020820190506120bd6000830184612099565b92915050565b6120cc81611fa9565b81146120d757600080fd5b50565b6000813590506120e9816120c3565b92915050565b6120f881611f75565b811461210357600080fd5b50565b600081359050612115816120ef565b92915050565b600080600080600080600060e0888a03121561213a57612139611e16565b5b60006121488a828b01611e37565b97505060206121598a828b01611e37565b965050604061216a8a828b01611e6d565b955050606061217b8a828b01611e6d565b945050608061218c8a828b016120da565b93505060a061219d8a828b01612106565b92505060c06121ae8a828b01612106565b91505092959891949750929550565b600080604083850312156121d4576121d3611e16565b5b60006121e285828601611e37565b92505060206121f385828601611e37565b9150509250929050565b7f574e540000000000000000000000000000000000000000000000000000000000600082015250565b6000612233600383611d65565b915061223e826121fd565b602082019050919050565b6000602082019050818103600083015261226281612226565b9050919050565b60008151905061227881611e20565b92915050565b60006020828403121561229457612293611e16565b5b60006122a284828501612269565b91505092915050565b7f434f4e54524f4c4c455200000000000000000000000000000000000000000000600082015250565b60006122e1600a83611d65565b91506122ec826122ab565b602082019050919050565b60006020820190508181036000830152612310816122d4565b9050919050565b7f4e487b7100000000000000000000000000000000000000000000000000000000600052601160045260246000fd5b600061235182611e4c565b915061235c83611e4c565b925082820390508181111561237457612373612317565b5b92915050565b7f55463a2045585049524544000000000000000000000000000000000000000000600082015250565b60006123b0600b83611d65565b91506123bb8261237a565b602082019050919050565b600060208201905081810360008301526123df816123a3565b9050919050565b60006123f182611e4c565b91507fffffffffffffffffffffffffffffffffffffffffffffffffffffffffffffffff820361242357612422612317565b5b600182019050919050565b600060c0820190506124436000830189611f7f565b6124506020830188611d30565b61245d6040830187611d30565b61246a6060830186611f4b565b6124776080830185611f4b565b61248460a0830184611f4b565b979650505050505050565b600081905092915050565b7f1901000000000000000000000000000000000000000000000000000000000000600082015250565b60006124d060028361248f565b91506124db8261249a565b600282019050919050565b6000819050919050565b6125016124fc82611f75565b6124e6565b82525050565b6000612512826124c3565b915061251e82856124f0565b60208201915061252e82846124f0565b6020820191508190509392505050565b60006080820190506125536000830187611f7f565b6125606020830186611fb6565b61256d6040830185611f7f565b61257a6060830184611f7f565b95945050505050565b7f55463a20494e56414c49445f5349474e41545552450000000000000000000000600082015250565b60006125b9601583611d65565b91506125c482612583565b602082019050919050565b600060208201905081810360008301526125e8816125ac565b9050919050565b6000815190506125fe81611e56565b92915050565b60006020828403121561261a57612619611e16565b5b6000612628848285016125ef565b91505092915050565b60006040820190506126466000830185611d30565b6126536020830184611f7f565b9392505050565b61266381611f15565b811461266e57600080fd5b50565b6000815190506126808161265a565b92915050565b60006020828403121561269c5761269b611e16565b5b60006126aa84828501612671565b91505092915050565b60006040820190506126c86000830185611d30565b81810360208301526126da8184611db1565b90509392505050565b600081519050919050565b600082825260208201905092915050565b600061270a826126e3565b61271481856126ee565b9350612724818560208601611d76565b61272d81611da0565b840191505092915050565b600060408201905081810360008301526127528185611db1565b9050818103602083015261276681846126ff565b90509392505050565b60006060820190506127846000830186611d30565b6127916020830185611d30565b61279e6040830184611f4b565b949350505050565b7f64732d6d6174682d7375622d756e646572666c6f770000000000000000000000600082015250565b60006127dc601583611d65565b91506127e7826127a6565b602082019050919050565b6000602082019050818103600083015261280b816127cf565b9050919050565b600061281d82611e4c565b915061282883611e4c565b92508282019050808211156128405761283f612317565b5b92915050565b7f64732d6d6174682d6164642d6f766572666c6f77000000000000000000000000600082015250565b600061287c601483611d65565b915061288782612846565b602082019050919050565b600060208201905081810360008301526128ab8161286f565b9050919050565b60006040820190506128c76000830185611d30565b6128d46020830184611f4b565b9392505050565b600081905092915050565b60006128f1826126e3565b6128fb81856128db565b935061290b818560208601611d76565b80840191505092915050565b600061292382846128e6565b915081905092915050565b600080fd5b600080fd5b7f4e487b7100000000000000000000000000000000000000000000000000000000600052604160045260246000fd5b61297082611da0565b810181811067ffffffffffffffff8211171561298f5761298e612938565b5b80604052505050565b60006129a2611e0c565b90506129ae8282612967565b919050565b600067ffffffffffffffff8211156129ce576129cd612938565b5b6129d782611da0565b9050602081019050919050565b60006129f76129f2846129b3565b612998565b905082815260208101848484011115612a1357612a12612933565b5b612a1e848285611d76565b509392505050565b600082601f830112612a3b57612a3a61292e565b5b8151612a4b8482602086016129e4565b91505092915050565b600060208284031215612a6a57612a69611e16565b5b600082015167ffffffffffffffff811115612a8857612a87611e1b565b5b612a9484828501612a26565b9150509291505056fea2646970667358221220fa31195d890bd138a58d5fbc84048e24044fa69c66d48c7d627d3a6c4742032664736f6c634300081c0033a264697066735822122072a9f466743e9e5d7b7b143e1c9ec65b3c2d6e101b13251d00ec3cc6949963f664736f6c634300081c0033",
  "linkReferences": {
    "contracts/pool/PoolStoreUtils.sol": {
      "PoolStoreUtils": [
        {
          "length": 20,
          "start": 1322
        },
        {
          "length": 20,
          "start": 2446
        }
      ]
    }
  },
  "deployedLinkReferences": {
    "contracts/pool/PoolStoreUtils.sol": {
      "PoolStoreUtils": [
        {
          "length": 20,
          "start": 825
        },
        {
          "length": 20,
          "start": 1949
        }
      ]
    }
  }
}