{
  "_format": "hh-sol-artifact-1",
  "contractName": "EventEmitter",
  "sourceName": "contracts/event/EventEmitter.sol",
  "abi": [
    {
      "inputs": [
        {
          "internalType": "contract RoleStore",
          "name": "_roleStore",
          "type": "address"
        }
      ],
      "stateMutability": "nonpayable",
      "type": "constructor"
    },
    {
      "inputs": [
        {
          "internalType": "address",
          "name": "msgSender",
          "type": "address"
        },
        {
          "internalType": "string",
          "name": "role",
          "type": "string"
        }
      ],
      "name": "Unauthorized",
      "type": "error"
    },
    {
      "anonymous": false,
      "inputs": [
        {
          "indexed": true,
          "internalType": "address",
          "name": "adder",
          "type": "address"
        },
        {
          "indexed": false,
          "internalType": "address",
          "name": "baseToken",
          "type": "address"
        },
        {
          "indexed": false,
          "internalType": "address",
          "name": "memeToken",
          "type": "address"
        },
        {
          "indexed": false,
          "internalType": "address",
          "name": "to",
          "type": "address"
        },
        {
          "indexed": false,
          "internalType": "uint256",
          "name": "baseAmount",
          "type": "uint256"
        },
        {
          "indexed": false,
          "internalType": "uint256",
          "name": "memeAmount",
          "type": "uint256"
        }
      ],
      "name": "Add",
      "type": "event"
    },
    {
      "anonymous": false,
      "inputs": [
        {
          "indexed": true,
          "internalType": "address",
          "name": "borrower",
          "type": "address"
        },
        {
          "indexed": false,
          "internalType": "address",
          "name": "baseToken",
          "type": "address"
        },
        {
          "indexed": false,
          "internalType": "address",
          "name": "memeToken",
          "type": "address"
        },
        {
          "indexed": false,
          "internalType": "uint256",
          "name": "positionId",
          "type": "uint256"
        },
        {
          "indexed": false,
          "internalType": "uint8",
          "name": "tokenIndex",
          "type": "uint8"
        },
        {
          "indexed": false,
          "internalType": "uint256",
          "name": "borrowAmount",
          "type": "uint256"
        },
        {
          "indexed": false,
          "internalType": "uint256",
          "name": "borrowRate",
          "type": "uint256"
        },
        {
          "indexed": false,
          "internalType": "uint256",
          "name": "collateralIn",
          "type": "uint256"
        },
        {
          "indexed": false,
          "internalType": "uint256",
          "name": "debtScaledIn",
          "type": "uint256"
        },
        {
          "indexed": false,
          "internalType": "uint256",
          "name": "collateralOut",
          "type": "uint256"
        },
        {
          "indexed": false,
          "internalType": "uint256",
          "name": "debtScaledOut",
          "type": "uint256"
        }
      ],
      "name": "Borrow",
      "type": "event"
    },
    {
      "anonymous": false,
      "inputs": [
        {
          "indexed": true,
          "internalType": "address",
          "name": "pool",
          "type": "address"
        },
        {
          "indexed": false,
          "internalType": "uint256",
          "name": "scaledUnclaimedFee",
          "type": "uint256"
        },
        {
          "indexed": false,
          "internalType": "uint256",
          "name": "liquidityIndex",
          "type": "uint256"
        },
        {
          "indexed": false,
          "internalType": "uint256",
          "name": "unclaimedFee",
          "type": "uint256"
        }
      ],
      "name": "ClaimFees",
      "type": "event"
    },
    {
      "anonymous": false,
      "inputs": [
        {
          "indexed": true,
          "internalType": "address",
          "name": "poolUsd",
          "type": "address"
        },
        {
          "indexed": true,
          "internalType": "address",
          "name": "account",
          "type": "address"
        },
        {
          "indexed": false,
          "internalType": "uint256",
          "name": "amountUsdStartClose",
          "type": "uint256"
        },
        {
          "indexed": false,
          "internalType": "uint256",
          "name": "amountUsdAfterRepayAndSellCollateral",
          "type": "uint256"
        },
        {
          "indexed": false,
          "internalType": "uint256",
          "name": "amountUsdAfterBuyCollateralAndRepay",
          "type": "uint256"
        }
      ],
      "name": "Close",
      "type": "event"
    },
    {
      "anonymous": false,
      "inputs": [
        {
          "indexed": true,
          "internalType": "address",
          "name": "depositor",
          "type": "address"
        },
        {
          "indexed": false,
          "internalType": "address",
          "name": "baseToken",
          "type": "address"
        },
        {
          "indexed": false,
          "internalType": "address",
          "name": "memeToken",
          "type": "address"
        },
        {
          "indexed": false,
          "internalType": "uint256",
          "name": "depositAmount",
          "type": "uint256"
        },
        {
          "indexed": false,
          "internalType": "uint256",
          "name": "baseCollateral",
          "type": "uint256"
        },
        {
          "indexed": false,
          "internalType": "uint256",
          "name": "baseDebtScaled",
          "type": "uint256"
        },
        {
          "indexed": false,
          "internalType": "uint256",
          "name": "memeCollateral",
          "type": "uint256"
        },
        {
          "indexed": false,
          "internalType": "uint256",
          "name": "memeDebtScaled",
          "type": "uint256"
        }
      ],
      "name": "Deposit",
      "type": "event"
    },
    {
      "anonymous": false,
      "inputs": [
        {
          "indexed": true,
          "internalType": "address",
          "name": "liquidator",
          "type": "address"
        },
        {
          "indexed": true,
          "internalType": "address",
          "name": "account",
          "type": "address"
        },
        {
          "indexed": false,
          "internalType": "uint256",
          "name": "marginLevel",
          "type": "uint256"
        },
        {
          "indexed": false,
          "internalType": "uint256",
          "name": "marginLevelLiquidationThreshold",
          "type": "uint256"
        },
        {
          "indexed": false,
          "internalType": "uint256",
          "name": "totalCollateralUsd",
          "type": "uint256"
        },
        {
          "indexed": false,
          "internalType": "uint256",
          "name": "totalDebtUsd",
          "type": "uint256"
        }
      ],
      "name": "Liquidation",
      "type": "event"
    },
    {
      "anonymous": false,
      "inputs": [
        {
          "indexed": true,
          "internalType": "address",
          "name": "pool",
          "type": "address"
        },
        {
          "indexed": false,
          "internalType": "uint256",
          "name": "liquidityRate",
          "type": "uint256"
        },
        {
          "indexed": false,
          "internalType": "uint256",
          "name": "borrowRate",
          "type": "uint256"
        },
        {
          "indexed": false,
          "internalType": "uint256",
          "name": "liquidityIndex",
          "type": "uint256"
        },
        {
          "indexed": false,
          "internalType": "uint256",
          "name": "borrowIndex",
          "type": "uint256"
        }
      ],
      "name": "PoolUpdated",
      "type": "event"
    },
    {
      "anonymous": false,
      "inputs": [
        {
          "indexed": true,
          "internalType": "address",
          "name": "remover",
          "type": "address"
        },
        {
          "indexed": false,
          "internalType": "address",
          "name": "baseToken",
          "type": "address"
        },
        {
          "indexed": false,
          "internalType": "address",
          "name": "memeToken",
          "type": "address"
        },
        {
          "indexed": false,
          "internalType": "uint256",
          "name": "liquidity",
          "type": "uint256"
        },
        {
          "indexed": false,
          "internalType": "address",
          "name": "to",
          "type": "address"
        },
        {
          "indexed": false,
          "internalType": "uint256",
          "name": "baseAmount",
          "type": "uint256"
        },
        {
          "indexed": false,
          "internalType": "uint256",
          "name": "memeAmount",
          "type": "uint256"
        }
      ],
      "name": "Remove",
      "type": "event"
    },
    {
      "anonymous": false,
      "inputs": [
        {
          "indexed": true,
          "internalType": "address",
          "name": "repayer",
          "type": "address"
        },
        {
          "indexed": false,
          "internalType": "address",
          "name": "baseToken",
          "type": "address"
        },
        {
          "indexed": false,
          "internalType": "address",
          "name": "memeToken",
          "type": "address"
        },
        {
          "indexed": false,
          "internalType": "uint256",
          "name": "positionId",
          "type": "uint256"
        },
        {
          "indexed": false,
          "internalType": "uint8",
          "name": "tokenIndex",
          "type": "uint8"
        },
        {
          "indexed": false,
          "internalType": "uint256",
          "name": "repayAmount",
          "type": "uint256"
        },
        {
          "indexed": false,
          "internalType": "uint256",
          "name": "collateralIn",
          "type": "uint256"
        },
        {
          "indexed": false,
          "internalType": "uint256",
          "name": "debtScaledIn",
          "type": "uint256"
        },
        {
          "indexed": false,
          "internalType": "uint256",
          "name": "collateralOut",
          "type": "uint256"
        },
        {
          "indexed": false,
          "internalType": "uint256",
          "name": "debtScaledOut",
          "type": "uint256"
        }
      ],
      "name": "Repay",
      "type": "event"
    },
    {
      "anonymous": false,
      "inputs": [
        {
          "indexed": true,
          "internalType": "address",
          "name": "account",
          "type": "address"
        },
        {
          "indexed": false,
          "internalType": "address",
          "name": "tokenIn",
          "type": "address"
        },
        {
          "indexed": false,
          "internalType": "address",
          "name": "tokenOut",
          "type": "address"
        },
        {
          "indexed": false,
          "internalType": "uint256",
          "name": "amountIn",
          "type": "uint256"
        },
        {
          "indexed": false,
          "internalType": "uint256",
          "name": "amountOut",
          "type": "uint256"
        },
        {
          "indexed": false,
          "internalType": "uint256",
          "name": "fee",
          "type": "uint256"
        },
        {
          "indexed": false,
          "internalType": "uint256",
          "name": "collateralIn",
          "type": "uint256"
        },
        {
          "indexed": false,
          "internalType": "uint256",
          "name": "debtScaledIn",
          "type": "uint256"
        },
        {
          "indexed": false,
          "internalType": "uint256",
          "name": "collateralOut",
          "type": "uint256"
        },
        {
          "indexed": false,
          "internalType": "uint256",
          "name": "debtScaledOut",
          "type": "uint256"
        }
      ],
      "name": "Swap",
      "type": "event"
    },
    {
      "anonymous": false,
      "inputs": [
        {
          "indexed": true,
          "internalType": "address",
          "name": "withdrawer",
          "type": "address"
        },
        {
          "indexed": false,
          "internalType": "address",
          "name": "baseToken",
          "type": "address"
        },
        {
          "indexed": false,
          "internalType": "address",
          "name": "memeToken",
          "type": "address"
        },
        {
          "indexed": false,
          "internalType": "uint256",
          "name": "withdrawAmount",
          "type": "uint256"
        },
        {
          "indexed": false,
          "internalType": "address",
          "name": "to",
          "type": "address"
        },
        {
          "indexed": false,
          "internalType": "uint256",
          "name": "baseCollateral",
          "type": "uint256"
        },
        {
          "indexed": false,
          "internalType": "uint256",
          "name": "baseDebtScaled",
          "type": "uint256"
        },
        {
          "indexed": false,
          "internalType": "uint256",
          "name": "memeCollateral",
          "type": "uint256"
        },
        {
          "indexed": false,
          "internalType": "uint256",
          "name": "memeDebtScaled",
          "type": "uint256"
        }
      ],
      "name": "Withdraw",
      "type": "event"
    },
    {
      "inputs": [
        {
          "internalType": "address",
          "name": "supplier",
          "type": "address"
        },
        {
          "internalType": "address",
          "name": "baseToken",
          "type": "address"
        },
        {
          "internalType": "address",
          "name": "memeToken",
          "type": "address"
        },
        {
          "internalType": "address",
          "name": "to",
          "type": "address"
        },
        {
          "internalType": "uint256",
          "name": "baseAmount",
          "type": "uint256"
        },
        {
          "internalType": "uint256",
          "name": "memeAmount",
          "type": "uint256"
        }
      ],
      "name": "emitAdd",
      "outputs": [],
      "stateMutability": "nonpayable",
      "type": "function"
    },
    {
      "inputs": [
        {
          "internalType": "address",
          "name": "borrower",
          "type": "address"
        },
        {
          "internalType": "address",
          "name": "baseToken",
          "type": "address"
        },
        {
          "internalType": "address",
          "name": "memeToken",
          "type": "address"
        },
        {
          "internalType": "uint256",
          "name": "positionId",
          "type": "uint256"
        },
        {
          "internalType": "uint8",
          "name": "tokenIndex",
          "type": "uint8"
        },
        {
          "internalType": "uint256",
          "name": "borrowAmount",
          "type": "uint256"
        },
        {
          "internalType": "uint256",
          "name": "borrowRate",
          "type": "uint256"
        },
        {
          "components": [
            {
              "internalType": "uint256",
              "name": "baseCollateral",
              "type": "uint256"
            },
            {
              "internalType": "uint256",
              "name": "baseDebtScaled",
              "type": "uint256"
            },
            {
              "internalType": "uint256",
              "name": "memeCollateral",
              "type": "uint256"
            },
            {
              "internalType": "uint256",
              "name": "memeDebtScaled",
              "type": "uint256"
            }
          ],
          "internalType": "struct Event.Liquidation",
          "name": "liquidation",
          "type": "tuple"
        }
      ],
      "name": "emitBorrow",
      "outputs": [],
      "stateMutability": "nonpayable",
      "type": "function"
    },
    {
      "inputs": [
        {
          "internalType": "address",
          "name": "underlyingAsset",
          "type": "address"
        },
        {
          "internalType": "uint256",
          "name": "scaledUnclaimedFee",
          "type": "uint256"
        },
        {
          "internalType": "uint256",
          "name": "liquidityIndex",
          "type": "uint256"
        },
        {
          "internalType": "uint256",
          "name": "unclaimedFee",
          "type": "uint256"
        }
      ],
      "name": "emitClaimFees",
      "outputs": [],
      "stateMutability": "nonpayable",
      "type": "function"
    },
    {
      "inputs": [
        {
          "internalType": "address",
          "name": "underlyingAssetUsd",
          "type": "address"
        },
        {
          "internalType": "address",
          "name": "account",
          "type": "address"
        },
        {
          "internalType": "uint256",
          "name": "amountUsdStartClose",
          "type": "uint256"
        },
        {
          "internalType": "uint256",
          "name": "amountUsdAfterRepayAndSellCollateral",
          "type": "uint256"
        },
        {
          "internalType": "uint256",
          "name": "amountUsdAfterBuyCollateralAndRepay",
          "type": "uint256"
        }
      ],
      "name": "emitClose",
      "outputs": [],
      "stateMutability": "nonpayable",
      "type": "function"
    },
    {
      "inputs": [
        {
          "internalType": "address",
          "name": "depositor",
          "type": "address"
        },
        {
          "internalType": "address",
          "name": "baseToken",
          "type": "address"
        },
        {
          "internalType": "address",
          "name": "memeToken",
          "type": "address"
        },
        {
          "internalType": "uint256",
          "name": "depositAmount",
          "type": "uint256"
        },
        {
          "internalType": "uint256",
          "name": "baseCollateral",
          "type": "uint256"
        },
        {
          "internalType": "uint256",
          "name": "baseDebtScaled",
          "type": "uint256"
        },
        {
          "internalType": "uint256",
          "name": "memeCollateral",
          "type": "uint256"
        },
        {
          "internalType": "uint256",
          "name": "memeDebtScaled",
          "type": "uint256"
        }
      ],
      "name": "emitDeposit",
      "outputs": [],
      "stateMutability": "nonpayable",
      "type": "function"
    },
    {
      "inputs": [
        {
          "internalType": "address",
          "name": "liquidator",
          "type": "address"
        },
        {
          "internalType": "address",
          "name": "account",
          "type": "address"
        },
        {
          "internalType": "uint256",
          "name": "marginLevel",
          "type": "uint256"
        },
        {
          "internalType": "uint256",
          "name": "marginLevelLiquidationThreshold",
          "type": "uint256"
        },
        {
          "internalType": "uint256",
          "name": "totalCollateralUsd",
          "type": "uint256"
        },
        {
          "internalType": "uint256",
          "name": "totalDebtUsd",
          "type": "uint256"
        }
      ],
      "name": "emitLiquidation",
      "outputs": [],
      "stateMutability": "nonpayable",
      "type": "function"
    },
    {
      "inputs": [
        {
          "internalType": "address",
          "name": "underlyingAsset",
          "type": "address"
        },
        {
          "internalType": "uint256",
          "name": "liquidityRate",
          "type": "uint256"
        },
        {
          "internalType": "uint256",
          "name": "borrowRate",
          "type": "uint256"
        },
        {
          "internalType": "uint256",
          "name": "liquidityIndex",
          "type": "uint256"
        },
        {
          "internalType": "uint256",
          "name": "borrowIndex",
          "type": "uint256"
        }
      ],
      "name": "emitPoolUpdated",
      "outputs": [],
      "stateMutability": "nonpayable",
      "type": "function"
    },
    {
      "inputs": [
        {
          "internalType": "address",
          "name": "remover",
          "type": "address"
        },
        {
          "internalType": "address",
          "name": "baseToken",
          "type": "address"
        },
        {
          "internalType": "address",
          "name": "memeToken",
          "type": "address"
        },
        {
          "internalType": "uint256",
          "name": "liquidity",
          "type": "uint256"
        },
        {
          "internalType": "address",
          "name": "to",
          "type": "address"
        },
        {
          "internalType": "uint256",
          "name": "baseAmount",
          "type": "uint256"
        },
        {
          "internalType": "uint256",
          "name": "memeAmount",
          "type": "uint256"
        }
      ],
      "name": "emitRemove",
      "outputs": [],
      "stateMutability": "nonpayable",
      "type": "function"
    },
    {
      "inputs": [
        {
          "internalType": "address",
          "name": "eventEmitter",
          "type": "address"
        },
        {
          "internalType": "address",
          "name": "repayer",
          "type": "address"
        },
        {
          "internalType": "address",
          "name": "baseToken",
          "type": "address"
        },
        {
          "internalType": "address",
          "name": "memeToken",
          "type": "address"
        },
        {
          "internalType": "uint256",
          "name": "positionId",
          "type": "uint256"
        },
        {
          "internalType": "uint8",
          "name": "tokenIndex",
          "type": "uint8"
        },
        {
          "internalType": "uint256",
          "name": "repayAmount",
          "type": "uint256"
        },
        {
          "components": [
            {
              "internalType": "uint256",
              "name": "baseCollateral",
              "type": "uint256"
            },
            {
              "internalType": "uint256",
              "name": "baseDebtScaled",
              "type": "uint256"
            },
            {
              "internalType": "uint256",
              "name": "memeCollateral",
              "type": "uint256"
            },
            {
              "internalType": "uint256",
              "name": "memeDebtScaled",
              "type": "uint256"
            }
          ],
          "internalType": "struct Event.Liquidation",
          "name": "liquidation",
          "type": "tuple"
        }
      ],
      "name": "emitRepay",
      "outputs": [],
      "stateMutability": "nonpayable",
      "type": "function"
    },
    {
      "inputs": [
        {
          "internalType": "address",
          "name": "account",
          "type": "address"
        },
        {
          "internalType": "address",
          "name": "tokenIn",
          "type": "address"
        },
        {
          "internalType": "address",
          "name": "tokenOut",
          "type": "address"
        },
        {
          "internalType": "uint256",
          "name": "amountIn",
          "type": "uint256"
        },
        {
          "internalType": "uint256",
          "name": "amountOut",
          "type": "uint256"
        },
        {
          "internalType": "uint256",
          "name": "fee",
          "type": "uint256"
        },
        {
          "components": [
            {
              "internalType": "uint256",
              "name": "baseCollateral",
              "type": "uint256"
            },
            {
              "internalType": "uint256",
              "name": "baseDebtScaled",
              "type": "uint256"
            },
            {
              "internalType": "uint256",
              "name": "memeCollateral",
              "type": "uint256"
            },
            {
              "internalType": "uint256",
              "name": "memeDebtScaled",
              "type": "uint256"
            }
          ],
          "internalType": "struct Event.Liquidation",
          "name": "liquidation",
          "type": "tuple"
        }
      ],
      "name": "emitSwap",
      "outputs": [],
      "stateMutability": "nonpayable",
      "type": "function"
    },
    {
      "inputs": [
        {
          "internalType": "address",
          "name": "withdrawer",
          "type": "address"
        },
        {
          "internalType": "address",
          "name": "baseToken",
          "type": "address"
        },
        {
          "internalType": "address",
          "name": "memeToken",
          "type": "address"
        },
        {
          "internalType": "uint256",
          "name": "withdrawAmount",
          "type": "uint256"
        },
        {
          "internalType": "address",
          "name": "to",
          "type": "address"
        },
        {
          "internalType": "uint256",
          "name": "baseCollateral",
          "type": "uint256"
        },
        {
          "internalType": "uint256",
          "name": "baseDebtScaled",
          "type": "uint256"
        },
        {
          "internalType": "uint256",
          "name": "memeCollateral",
          "type": "uint256"
        },
        {
          "internalType": "uint256",
          "name": "memeDebtScaled",
          "type": "uint256"
        }
      ],
      "name": "emitWithdraw",
      "outputs": [],
      "stateMutability": "nonpayable",
      "type": "function"
    },
    {
      "inputs": [],
      "name": "roleStore",
      "outputs": [
        {
          "internalType": "contract RoleStore",
          "name": "",
          "type": "address"
        }
      ],
      "stateMutability": "view",
      "type": "function"
    }
  ],
  "bytecode": "0x60a060405234801561001057600080fd5b50604051611c0d380380611c0d833981810160405281019061003291906100e3565b808073ffffffffffffffffffffffffffffffffffffffff1660808173ffffffffffffffffffffffffffffffffffffffff16815250505050610110565b600080fd5b600073ffffffffffffffffffffffffffffffffffffffff82169050919050565b600061009e82610073565b9050919050565b60006100b082610093565b9050919050565b6100c0816100a5565b81146100cb57600080fd5b50565b6000815190506100dd816100b7565b92915050565b6000602082840312156100f9576100f861006e565b5b6000610107848285016100ce565b91505092915050565b608051611adb6101326000396000818161046e0152610afb0152611adb6000f3fe608060405234801561001057600080fd5b50600436106100b45760003560e01c806389cad4d91161007157806389cad4d91461016357806394e0dd1d1461017f57806396de247f1461019b5780639c845792146101b75780639ed486eb146101d3578063ea34a577146101ef576100b4565b806315f762d5146100b9578063292ae722146100d5578063324ac765146100f15780634a4a7b041461010d5780636a6d992f1461012b5780637c24dab714610147575b600080fd5b6100d360048036038101906100ce9190610c7f565b61020b565b005b6100ef60048036038101906100ea9190610d49565b6102d5565b005b61010b60048036038101906101069190610deb565b610399565b005b61011561046c565b6040516101229190610ec5565b60405180910390f35b61014560048036038101906101409190611022565b610490565b005b610161600480360381019061015c91906110d8565b61056b565b005b61017d60048036038101906101789190611153565b610629565b005b61019960048036038101906101949190611209565b6106f0565b005b6101b560048036038101906101b09190611296565b6107c6565b005b6101d160048036038101906101cc9190611339565b6108a0565b005b6101ed60048036038101906101e891906113a0565b61095b565b005b6102096004803603810190610204919061142d565b610a1c565b005b61026e60405160200161021d90611540565b604051602081830303815290604052805190602001206040518060400160405280600a81526020017f434f4e54524f4c4c455200000000000000000000000000000000000000000000815250610af9565b8873ffffffffffffffffffffffffffffffffffffffff167fb50b96cf5652f7259ba33891436a3874ecce39e522a18fb973cb021949f573df89898989898989896040516102c298979695949392919061157e565b60405180910390a2505050505050505050565b6103386040516020016102e790611540565b604051602081830303815290604052805190602001206040518060400160405280600a81526020017f434f4e54524f4c4c455200000000000000000000000000000000000000000000815250610af9565b8673ffffffffffffffffffffffffffffffffffffffff167fe10a339dd5329df14a8ec13eb4115b75ab032fd40e2ff2594a4a5bf80e497a41878787878787604051610388969594939291906115fc565b60405180910390a250505050505050565b6103fc6040516020016103ab90611540565b604051602081830303815290604052805190602001206040518060400160405280600a81526020017f434f4e54524f4c4c455200000000000000000000000000000000000000000000815250610af9565b8373ffffffffffffffffffffffffffffffffffffffff168573ffffffffffffffffffffffffffffffffffffffff167fb149470201600d81e1698a9d001d20f8d2a036d2c0f425436b65a154e95eb53a85858560405161045d9392919061165d565b60405180910390a35050505050565b7f000000000000000000000000000000000000000000000000000000000000000081565b6104f36040516020016104a290611540565b604051602081830303815290604052805190602001206040518060400160405280600a81526020017f434f4e54524f4c4c455200000000000000000000000000000000000000000000815250610af9565b8673ffffffffffffffffffffffffffffffffffffffff167f4fc3cf57f1c587a9f0808812dd72668a2b82f54411b0737d06c4043ff044cf9a87878787878760000151886020015189604001518a60600151604051610559999897969594939291906116a3565b60405180910390a25050505050505050565b6105ce60405160200161057d90611540565b604051602081830303815290604052805190602001206040518060400160405280600a81526020017f434f4e54524f4c4c455200000000000000000000000000000000000000000000815250610af9565b8473ffffffffffffffffffffffffffffffffffffffff167fc320a8529b15b851aaa68519919ac344e1caceaf4f47d15df6e58181dfec63198585858560405161061a9493929190611730565b60405180910390a25050505050565b61068c60405160200161063b90611540565b604051602081830303815290604052805190602001206040518060400160405280600a81526020017f434f4e54524f4c4c455200000000000000000000000000000000000000000000815250610af9565b8773ffffffffffffffffffffffffffffffffffffffff167f259af91af89c9a6b13d53607d57f43b151235f69d54d2339133e57cfb62bf4c5888888888888886040516106de9796959493929190611775565b60405180910390a25050505050505050565b61075360405160200161070290611540565b604051602081830303815290604052805190602001206040518060400160405280600a81526020017f434f4e54524f4c4c455200000000000000000000000000000000000000000000815250610af9565b8473ffffffffffffffffffffffffffffffffffffffff168673ffffffffffffffffffffffffffffffffffffffff167fc70fd1eb40d7ae44a5425c09dece5a023b47277356e005b6caef1600cfc7334e868686866040516107b69493929190611730565b60405180910390a3505050505050565b6108296040516020016107d890611540565b604051602081830303815290604052805190602001206040518060400160405280600a81526020017f434f4e54524f4c4c455200000000000000000000000000000000000000000000815250610af9565b8673ffffffffffffffffffffffffffffffffffffffff167f533855cb8a87f0995f6c3390665eb37da822f5550b13a973a77906d018a2a89c87878787878760000151886020015189604001518a6060015160405161088f999897969594939291906117e4565b60405180910390a250505050505050565b6109036040516020016108b290611540565b604051602081830303815290604052805190602001206040518060400160405280600a81526020017f434f4e54524f4c4c455200000000000000000000000000000000000000000000815250610af9565b8373ffffffffffffffffffffffffffffffffffffffff167fd2e6085315c6e1c1c7406a47c7d006a8c1f931396d868c16046dea71365ff03184848460405161094d9392919061165d565b60405180910390a250505050565b6109be60405160200161096d90611540565b604051602081830303815290604052805190602001206040518060400160405280600a81526020017f434f4e54524f4c4c455200000000000000000000000000000000000000000000815250610af9565b8573ffffffffffffffffffffffffffffffffffffffff167fcbdb4dd8f84983be7c158013b8d74dacf114333078949f99dfb5b66e6621964a8686868686604051610a0c959493929190611871565b60405180910390a2505050505050565b610a7f604051602001610a2e90611540565b604051602081830303815290604052805190602001206040518060400160405280600a81526020017f434f4e54524f4c4c455200000000000000000000000000000000000000000000815250610af9565b8773ffffffffffffffffffffffffffffffffffffffff167f2ef1e8737d096826c9abef1201bb205ea380555780a54bd904cf67ca7dba8c5f888888888888886000015189602001518a604001518b60600151604051610ae79a999897969594939291906118c4565b60405180910390a25050505050505050565b7f000000000000000000000000000000000000000000000000000000000000000073ffffffffffffffffffffffffffffffffffffffff1663ac4ab3fb33846040518363ffffffff1660e01b8152600401610b54929190611979565b602060405180830381865afa158015610b71573d6000803e3d6000fd5b505050506040513d601f19601f82011682018060405250810190610b9591906119da565b610bd85733816040517fa35b150b000000000000000000000000000000000000000000000000000000008152600401610bcf929190611a75565b60405180910390fd5b5050565b6000604051905090565b600080fd5b600073ffffffffffffffffffffffffffffffffffffffff82169050919050565b6000610c1682610beb565b9050919050565b610c2681610c0b565b8114610c3157600080fd5b50565b600081359050610c4381610c1d565b92915050565b6000819050919050565b610c5c81610c49565b8114610c6757600080fd5b50565b600081359050610c7981610c53565b92915050565b60008060008060008060008060006101208a8c031215610ca257610ca1610be6565b5b6000610cb08c828d01610c34565b9950506020610cc18c828d01610c34565b9850506040610cd28c828d01610c34565b9750506060610ce38c828d01610c6a565b9650506080610cf48c828d01610c34565b95505060a0610d058c828d01610c6a565b94505060c0610d168c828d01610c6a565b93505060e0610d278c828d01610c6a565b925050610100610d398c828d01610c6a565b9150509295985092959850929598565b600080600080600080600060e0888a031215610d6857610d67610be6565b5b6000610d768a828b01610c34565b9750506020610d878a828b01610c34565b9650506040610d988a828b01610c34565b9550506060610da98a828b01610c6a565b9450506080610dba8a828b01610c34565b93505060a0610dcb8a828b01610c6a565b92505060c0610ddc8a828b01610c6a565b91505092959891949750929550565b600080600080600060a08688031215610e0757610e06610be6565b5b6000610e1588828901610c34565b9550506020610e2688828901610c34565b9450506040610e3788828901610c6a565b9350506060610e4888828901610c6a565b9250506080610e5988828901610c6a565b9150509295509295909350565b6000819050919050565b6000610e8b610e86610e8184610beb565b610e66565b610beb565b9050919050565b6000610e9d82610e70565b9050919050565b6000610eaf82610e92565b9050919050565b610ebf81610ea4565b82525050565b6000602082019050610eda6000830184610eb6565b92915050565b600060ff82169050919050565b610ef681610ee0565b8114610f0157600080fd5b50565b600081359050610f1381610eed565b92915050565b600080fd5b6000601f19601f8301169050919050565b7f4e487b7100000000000000000000000000000000000000000000000000000000600052604160045260246000fd5b610f6782610f1e565b810181811067ffffffffffffffff82111715610f8657610f85610f2f565b5b80604052505050565b6000610f99610bdc565b9050610fa58282610f5e565b919050565b600060808284031215610fc057610fbf610f19565b5b610fca6080610f8f565b90506000610fda84828501610c6a565b6000830152506020610fee84828501610c6a565b602083015250604061100284828501610c6a565b604083015250606061101684828501610c6a565b60608301525092915050565b600080600080600080600080610160898b03121561104357611042610be6565b5b60006110518b828c01610c34565b98505060206110628b828c01610c34565b97505060406110738b828c01610c34565b96505060606110848b828c01610c34565b95505060806110958b828c01610c6a565b94505060a06110a68b828c01610f04565b93505060c06110b78b828c01610c6a565b92505060e06110c88b828c01610faa565b9150509295985092959890939650565b600080600080600060a086880312156110f4576110f3610be6565b5b600061110288828901610c34565b955050602061111388828901610c6a565b945050604061112488828901610c6a565b935050606061113588828901610c6a565b925050608061114688828901610c6a565b9150509295509295909350565b600080600080600080600080610100898b03121561117457611173610be6565b5b60006111828b828c01610c34565b98505060206111938b828c01610c34565b97505060406111a48b828c01610c34565b96505060606111b58b828c01610c6a565b95505060806111c68b828c01610c6a565b94505060a06111d78b828c01610c6a565b93505060c06111e88b828c01610c6a565b92505060e06111f98b828c01610c6a565b9150509295985092959890939650565b60008060008060008060c0878903121561122657611225610be6565b5b600061123489828a01610c34565b965050602061124589828a01610c34565b955050604061125689828a01610c6a565b945050606061126789828a01610c6a565b935050608061127889828a01610c6a565b92505060a061128989828a01610c6a565b9150509295509295509295565b6000806000806000806000610140888a0312156112b6576112b5610be6565b5b60006112c48a828b01610c34565b97505060206112d58a828b01610c34565b96505060406112e68a828b01610c34565b95505060606112f78a828b01610c6a565b94505060806113088a828b01610c6a565b93505060a06113198a828b01610c6a565b92505060c061132a8a828b01610faa565b91505092959891949750929550565b6000806000806080858703121561135357611352610be6565b5b600061136187828801610c34565b945050602061137287828801610c6a565b935050604061138387828801610c6a565b925050606061139487828801610c6a565b91505092959194509250565b60008060008060008060c087890312156113bd576113bc610be6565b5b60006113cb89828a01610c34565b96505060206113dc89828a01610c34565b95505060406113ed89828a01610c34565b94505060606113fe89828a01610c34565b935050608061140f89828a01610c6a565b92505060a061142089828a01610c6a565b9150509295509295509295565b600080600080600080600080610160898b03121561144e5761144d610be6565b5b600061145c8b828c01610c34565b985050602061146d8b828c01610c34565b975050604061147e8b828c01610c34565b965050606061148f8b828c01610c6a565b95505060806114a08b828c01610f04565b94505060a06114b18b828c01610c6a565b93505060c06114c28b828c01610c6a565b92505060e06114d38b828c01610faa565b9150509295985092959890939650565b600082825260208201905092915050565b7f434f4e54524f4c4c455200000000000000000000000000000000000000000000600082015250565b600061152a600a836114e3565b9150611535826114f4565b602082019050919050565b600060208201905081810360008301526115598161151d565b9050919050565b61156981610c0b565b82525050565b61157881610c49565b82525050565b600061010082019050611594600083018b611560565b6115a1602083018a611560565b6115ae604083018961156f565b6115bb6060830188611560565b6115c8608083018761156f565b6115d560a083018661156f565b6115e260c083018561156f565b6115ef60e083018461156f565b9998505050505050505050565b600060c0820190506116116000830189611560565b61161e6020830188611560565b61162b604083018761156f565b6116386060830186611560565b611645608083018561156f565b61165260a083018461156f565b979650505050505050565b6000606082019050611672600083018661156f565b61167f602083018561156f565b61168c604083018461156f565b949350505050565b61169d81610ee0565b82525050565b6000610120820190506116b9600083018c611560565b6116c6602083018b611560565b6116d3604083018a61156f565b6116e06060830189611694565b6116ed608083018861156f565b6116fa60a083018761156f565b61170760c083018661156f565b61171460e083018561156f565b61172261010083018461156f565b9a9950505050505050505050565b6000608082019050611745600083018761156f565b611752602083018661156f565b61175f604083018561156f565b61176c606083018461156f565b95945050505050565b600060e08201905061178a600083018a611560565b6117976020830189611560565b6117a4604083018861156f565b6117b1606083018761156f565b6117be608083018661156f565b6117cb60a083018561156f565b6117d860c083018461156f565b98975050505050505050565b6000610120820190506117fa600083018c611560565b611807602083018b611560565b611814604083018a61156f565b611821606083018961156f565b61182e608083018861156f565b61183b60a083018761156f565b61184860c083018661156f565b61185560e083018561156f565b61186361010083018461156f565b9a9950505050505050505050565b600060a0820190506118866000830188611560565b6118936020830187611560565b6118a06040830186611560565b6118ad606083018561156f565b6118ba608083018461156f565b9695505050505050565b6000610140820190506118da600083018d611560565b6118e7602083018c611560565b6118f4604083018b61156f565b611901606083018a611694565b61190e608083018961156f565b61191b60a083018861156f565b61192860c083018761156f565b61193560e083018661156f565b61194361010083018561156f565b61195161012083018461156f565b9b9a5050505050505050505050565b6000819050919050565b61197381611960565b82525050565b600060408201905061198e6000830185611560565b61199b602083018461196a565b9392505050565b60008115159050919050565b6119b7816119a2565b81146119c257600080fd5b50565b6000815190506119d4816119ae565b92915050565b6000602082840312156119f0576119ef610be6565b5b60006119fe848285016119c5565b91505092915050565b600081519050919050565b60005b83811015611a30578082015181840152602081019050611a15565b60008484015250505050565b6000611a4782611a07565b611a5181856114e3565b9350611a61818560208601611a12565b611a6a81610f1e565b840191505092915050565b6000604082019050611a8a6000830185611560565b8181036020830152611a9c8184611a3c565b9050939250505056fea2646970667358221220a3c7ceefc2255ff534d9061be69a0d7e04523d7262add3607618e34425e88ba664736f6c634300081c0033",
  "linkReferences": {},
  "deployedLinkReferences": {}
}