{
  "_format": "hh-sol-artifact-1",
  "contractName": "EventEmitter",
  "sourceName": "contracts/event/EventEmitter.sol",
  "abi": [
    {
      "inputs": [
        {
          "internalType": "contract RoleStore",
          "name": "_roleStore",
          "type": "address"
        }
      ],
      "stateMutability": "nonpayable",
      "type": "constructor"
    },
    {
      "inputs": [
        {
          "internalType": "address",
          "name": "msgSender",
          "type": "address"
        },
        {
          "internalType": "string",
          "name": "role",
          "type": "string"
        }
      ],
      "name": "Unauthorized",
      "type": "error"
    },
    {
      "anonymous": false,
      "inputs": [
        {
          "indexed": true,
          "internalType": "address",
          "name": "pool",
          "type": "address"
        },
        {
          "indexed": true,
          "internalType": "address",
          "name": "borrower",
          "type": "address"
        },
        {
          "indexed": false,
          "internalType": "uint256",
          "name": "amount",
          "type": "uint256"
        },
        {
          "indexed": false,
          "internalType": "uint256",
          "name": "borrowRate",
          "type": "uint256"
        },
        {
          "indexed": false,
          "internalType": "uint256",
          "name": "collateral",
          "type": "uint256"
        },
        {
          "indexed": false,
          "internalType": "uint256",
          "name": "debtScaled",
          "type": "uint256"
        }
      ],
      "name": "Borrow",
      "type": "event"
    },
    {
      "anonymous": false,
      "inputs": [
        {
          "indexed": true,
          "internalType": "address",
          "name": "pool",
          "type": "address"
        },
        {
          "indexed": false,
          "internalType": "uint256",
          "name": "scaledUnclaimedFee",
          "type": "uint256"
        },
        {
          "indexed": false,
          "internalType": "uint256",
          "name": "liquidityIndex",
          "type": "uint256"
        },
        {
          "indexed": false,
          "internalType": "uint256",
          "name": "unclaimedFee",
          "type": "uint256"
        }
      ],
      "name": "ClaimFees",
      "type": "event"
    },
    {
      "anonymous": false,
      "inputs": [
        {
          "indexed": true,
          "internalType": "address",
          "name": "poolUsd",
          "type": "address"
        },
        {
          "indexed": true,
          "internalType": "address",
          "name": "account",
          "type": "address"
        },
        {
          "indexed": false,
          "internalType": "uint256",
          "name": "amountUsdStartClose",
          "type": "uint256"
        },
        {
          "indexed": false,
          "internalType": "uint256",
          "name": "amountUsdAfterRepayAndSellCollateral",
          "type": "uint256"
        },
        {
          "indexed": false,
          "internalType": "uint256",
          "name": "amountUsdAfterBuyCollateralAndRepay",
          "type": "uint256"
        }
      ],
      "name": "Close",
      "type": "event"
    },
    {
      "anonymous": false,
      "inputs": [
        {
          "indexed": true,
          "internalType": "address",
          "name": "pool",
          "type": "address"
        },
        {
          "indexed": true,
          "internalType": "address",
          "name": "poolUsd",
          "type": "address"
        },
        {
          "indexed": true,
          "internalType": "address",
          "name": "account",
          "type": "address"
        },
        {
          "indexed": false,
          "internalType": "uint256",
          "name": "collateralSold",
          "type": "uint256"
        },
        {
          "indexed": false,
          "internalType": "uint256",
          "name": "debtClosed",
          "type": "uint256"
        },
        {
          "indexed": false,
          "internalType": "uint256",
          "name": "remainCollateral",
          "type": "uint256"
        },
        {
          "indexed": false,
          "internalType": "uint256",
          "name": "remainUsd",
          "type": "uint256"
        },
        {
          "indexed": false,
          "internalType": "uint256",
          "name": "collateralUsd",
          "type": "uint256"
        },
        {
          "indexed": false,
          "internalType": "uint256",
          "name": "debtScaledUsd",
          "type": "uint256"
        }
      ],
      "name": "ClosePosition",
      "type": "event"
    },
    {
      "anonymous": false,
      "inputs": [
        {
          "indexed": true,
          "internalType": "address",
          "name": "pool",
          "type": "address"
        },
        {
          "indexed": true,
          "internalType": "address",
          "name": "depositer",
          "type": "address"
        },
        {
          "indexed": false,
          "internalType": "uint256",
          "name": "amount",
          "type": "uint256"
        },
        {
          "indexed": false,
          "internalType": "uint256",
          "name": "collateral",
          "type": "uint256"
        },
        {
          "indexed": false,
          "internalType": "uint256",
          "name": "debtScaled",
          "type": "uint256"
        }
      ],
      "name": "Deposit",
      "type": "event"
    },
    {
      "anonymous": false,
      "inputs": [
        {
          "indexed": true,
          "internalType": "address",
          "name": "liquidator",
          "type": "address"
        },
        {
          "indexed": true,
          "internalType": "address",
          "name": "account",
          "type": "address"
        },
        {
          "indexed": false,
          "internalType": "uint256",
          "name": "marginLevel",
          "type": "uint256"
        },
        {
          "indexed": false,
          "internalType": "uint256",
          "name": "marginLevelLiquidationThreshold",
          "type": "uint256"
        },
        {
          "indexed": false,
          "internalType": "uint256",
          "name": "totalCollateralUsd",
          "type": "uint256"
        },
        {
          "indexed": false,
          "internalType": "uint256",
          "name": "totalDebtUsd",
          "type": "uint256"
        }
      ],
      "name": "Liquidation",
      "type": "event"
    },
    {
      "anonymous": false,
      "inputs": [
        {
          "indexed": true,
          "internalType": "address",
          "name": "pool",
          "type": "address"
        },
        {
          "indexed": false,
          "internalType": "uint256",
          "name": "liquidityRate",
          "type": "uint256"
        },
        {
          "indexed": false,
          "internalType": "uint256",
          "name": "borrowRate",
          "type": "uint256"
        },
        {
          "indexed": false,
          "internalType": "uint256",
          "name": "liquidityIndex",
          "type": "uint256"
        },
        {
          "indexed": false,
          "internalType": "uint256",
          "name": "borrowIndex",
          "type": "uint256"
        }
      ],
      "name": "PoolUpdated",
      "type": "event"
    },
    {
      "anonymous": false,
      "inputs": [
        {
          "indexed": true,
          "internalType": "address",
          "name": "liquidator",
          "type": "address"
        },
        {
          "indexed": true,
          "internalType": "address",
          "name": "pool",
          "type": "address"
        },
        {
          "indexed": true,
          "internalType": "address",
          "name": "account",
          "type": "address"
        },
        {
          "indexed": false,
          "internalType": "uint256",
          "name": "collateral",
          "type": "uint256"
        },
        {
          "indexed": false,
          "internalType": "uint256",
          "name": "debt",
          "type": "uint256"
        },
        {
          "indexed": false,
          "internalType": "uint256",
          "name": "price",
          "type": "uint256"
        }
      ],
      "name": "PositionLiquidation",
      "type": "event"
    },
    {
      "anonymous": false,
      "inputs": [
        {
          "indexed": true,
          "internalType": "address",
          "name": "pool",
          "type": "address"
        },
        {
          "indexed": true,
          "internalType": "address",
          "name": "repayer",
          "type": "address"
        },
        {
          "indexed": false,
          "internalType": "uint256",
          "name": "amount",
          "type": "uint256"
        },
        {
          "indexed": false,
          "internalType": "bool",
          "name": "useCollateral",
          "type": "bool"
        },
        {
          "indexed": false,
          "internalType": "uint256",
          "name": "collateral",
          "type": "uint256"
        },
        {
          "indexed": false,
          "internalType": "uint256",
          "name": "debtScaled",
          "type": "uint256"
        }
      ],
      "name": "Repay",
      "type": "event"
    },
    {
      "anonymous": false,
      "inputs": [
        {
          "indexed": true,
          "internalType": "address",
          "name": "pool",
          "type": "address"
        },
        {
          "indexed": true,
          "internalType": "address",
          "name": "supplier",
          "type": "address"
        },
        {
          "indexed": true,
          "internalType": "address",
          "name": "to",
          "type": "address"
        },
        {
          "indexed": false,
          "internalType": "uint256",
          "name": "amount",
          "type": "uint256"
        }
      ],
      "name": "Supply",
      "type": "event"
    },
    {
      "anonymous": false,
      "inputs": [
        {
          "indexed": true,
          "internalType": "address",
          "name": "poolIn",
          "type": "address"
        },
        {
          "indexed": true,
          "internalType": "address",
          "name": "poolOut",
          "type": "address"
        },
        {
          "indexed": true,
          "internalType": "address",
          "name": "account",
          "type": "address"
        },
        {
          "indexed": false,
          "internalType": "uint256",
          "name": "amountIn",
          "type": "uint256"
        },
        {
          "indexed": false,
          "internalType": "uint256",
          "name": "amountOut",
          "type": "uint256"
        },
        {
          "indexed": false,
          "internalType": "uint256",
          "name": "fee",
          "type": "uint256"
        },
        {
          "indexed": false,
          "internalType": "uint256",
          "name": "collateralIn",
          "type": "uint256"
        },
        {
          "indexed": false,
          "internalType": "uint256",
          "name": "debtScaledIn",
          "type": "uint256"
        },
        {
          "indexed": false,
          "internalType": "uint256",
          "name": "collateralOut",
          "type": "uint256"
        },
        {
          "indexed": false,
          "internalType": "uint256",
          "name": "debtScaledOut",
          "type": "uint256"
        }
      ],
      "name": "Swap",
      "type": "event"
    },
    {
      "anonymous": false,
      "inputs": [
        {
          "indexed": true,
          "internalType": "address",
          "name": "pool",
          "type": "address"
        },
        {
          "indexed": true,
          "internalType": "address",
          "name": "withdrawer",
          "type": "address"
        },
        {
          "indexed": true,
          "internalType": "address",
          "name": "to",
          "type": "address"
        },
        {
          "indexed": false,
          "internalType": "uint256",
          "name": "amount",
          "type": "uint256"
        }
      ],
      "name": "Withdraw",
      "type": "event"
    },
    {
      "anonymous": false,
      "inputs": [
        {
          "indexed": true,
          "internalType": "address",
          "name": "pool",
          "type": "address"
        },
        {
          "indexed": true,
          "internalType": "address",
          "name": "withdrawer",
          "type": "address"
        },
        {
          "indexed": true,
          "internalType": "address",
          "name": "to",
          "type": "address"
        },
        {
          "indexed": false,
          "internalType": "uint256",
          "name": "amount",
          "type": "uint256"
        },
        {
          "indexed": false,
          "internalType": "uint256",
          "name": "collateral",
          "type": "uint256"
        },
        {
          "indexed": false,
          "internalType": "uint256",
          "name": "debtScaled",
          "type": "uint256"
        }
      ],
      "name": "Withdraw",
      "type": "event"
    },
    {
      "inputs": [
        {
          "internalType": "address",
          "name": "underlyingAsset",
          "type": "address"
        },
        {
          "internalType": "address",
          "name": "account",
          "type": "address"
        },
        {
          "internalType": "uint256",
          "name": "borrowAmount",
          "type": "uint256"
        },
        {
          "internalType": "uint256",
          "name": "borrowRate",
          "type": "uint256"
        },
        {
          "internalType": "uint256",
          "name": "collateral",
          "type": "uint256"
        },
        {
          "internalType": "uint256",
          "name": "debtScaled",
          "type": "uint256"
        }
      ],
      "name": "emitBorrow",
      "outputs": [],
      "stateMutability": "nonpayable",
      "type": "function"
    },
    {
      "inputs": [
        {
          "internalType": "address",
          "name": "underlyingAsset",
          "type": "address"
        },
        {
          "internalType": "uint256",
          "name": "scaledUnclaimedFee",
          "type": "uint256"
        },
        {
          "internalType": "uint256",
          "name": "liquidityIndex",
          "type": "uint256"
        },
        {
          "internalType": "uint256",
          "name": "unclaimedFee",
          "type": "uint256"
        }
      ],
      "name": "emitClaimFees",
      "outputs": [],
      "stateMutability": "nonpayable",
      "type": "function"
    },
    {
      "inputs": [
        {
          "internalType": "address",
          "name": "underlyingAssetUsd",
          "type": "address"
        },
        {
          "internalType": "address",
          "name": "account",
          "type": "address"
        },
        {
          "internalType": "uint256",
          "name": "amountUsdStartClose",
          "type": "uint256"
        },
        {
          "internalType": "uint256",
          "name": "amountUsdAfterRepayAndSellCollateral",
          "type": "uint256"
        },
        {
          "internalType": "uint256",
          "name": "amountUsdAfterBuyCollateralAndRepay",
          "type": "uint256"
        }
      ],
      "name": "emitClose",
      "outputs": [],
      "stateMutability": "nonpayable",
      "type": "function"
    },
    {
      "inputs": [
        {
          "internalType": "address",
          "name": "underlyingAsset",
          "type": "address"
        },
        {
          "internalType": "address",
          "name": "underlyingAssetUsd",
          "type": "address"
        },
        {
          "internalType": "address",
          "name": "account",
          "type": "address"
        },
        {
          "internalType": "uint256",
          "name": "collateralAmountToSell",
          "type": "uint256"
        },
        {
          "internalType": "uint256",
          "name": "debtAmountClosed",
          "type": "uint256"
        },
        {
          "internalType": "uint256",
          "name": "remainAmount",
          "type": "uint256"
        },
        {
          "internalType": "uint256",
          "name": "remainAmountUsd",
          "type": "uint256"
        },
        {
          "internalType": "uint256",
          "name": "collateralUsd",
          "type": "uint256"
        },
        {
          "internalType": "uint256",
          "name": "debtScaledUsd",
          "type": "uint256"
        }
      ],
      "name": "emitClosePosition",
      "outputs": [],
      "stateMutability": "nonpayable",
      "type": "function"
    },
    {
      "inputs": [
        {
          "internalType": "address",
          "name": "underlyingAsset",
          "type": "address"
        },
        {
          "internalType": "address",
          "name": "account",
          "type": "address"
        },
        {
          "internalType": "uint256",
          "name": "depositAmount",
          "type": "uint256"
        },
        {
          "internalType": "uint256",
          "name": "collateral",
          "type": "uint256"
        },
        {
          "internalType": "uint256",
          "name": "debtScaled",
          "type": "uint256"
        }
      ],
      "name": "emitDeposit",
      "outputs": [],
      "stateMutability": "nonpayable",
      "type": "function"
    },
    {
      "inputs": [
        {
          "internalType": "address",
          "name": "liquidator",
          "type": "address"
        },
        {
          "internalType": "address",
          "name": "account",
          "type": "address"
        },
        {
          "internalType": "uint256",
          "name": "marginLevel",
          "type": "uint256"
        },
        {
          "internalType": "uint256",
          "name": "marginLevelLiquidationThreshold",
          "type": "uint256"
        },
        {
          "internalType": "uint256",
          "name": "totalCollateralUsd",
          "type": "uint256"
        },
        {
          "internalType": "uint256",
          "name": "totalDebtUsd",
          "type": "uint256"
        }
      ],
      "name": "emitLiquidation",
      "outputs": [],
      "stateMutability": "nonpayable",
      "type": "function"
    },
    {
      "inputs": [
        {
          "internalType": "address",
          "name": "underlyingAsset",
          "type": "address"
        },
        {
          "internalType": "uint256",
          "name": "liquidityRate",
          "type": "uint256"
        },
        {
          "internalType": "uint256",
          "name": "borrowRate",
          "type": "uint256"
        },
        {
          "internalType": "uint256",
          "name": "liquidityIndex",
          "type": "uint256"
        },
        {
          "internalType": "uint256",
          "name": "borrowIndex",
          "type": "uint256"
        }
      ],
      "name": "emitPoolUpdated",
      "outputs": [],
      "stateMutability": "nonpayable",
      "type": "function"
    },
    {
      "inputs": [
        {
          "internalType": "address",
          "name": "liquidator",
          "type": "address"
        },
        {
          "internalType": "address",
          "name": "underlyingAsset",
          "type": "address"
        },
        {
          "internalType": "address",
          "name": "account",
          "type": "address"
        },
        {
          "internalType": "uint256",
          "name": "collateral",
          "type": "uint256"
        },
        {
          "internalType": "uint256",
          "name": "debt",
          "type": "uint256"
        },
        {
          "internalType": "uint256",
          "name": "price",
          "type": "uint256"
        }
      ],
      "name": "emitPositionLiquidation",
      "outputs": [],
      "stateMutability": "nonpayable",
      "type": "function"
    },
    {
      "inputs": [
        {
          "internalType": "address",
          "name": "underlyingAsset",
          "type": "address"
        },
        {
          "internalType": "address",
          "name": "repayer",
          "type": "address"
        },
        {
          "internalType": "uint256",
          "name": "repayAmount",
          "type": "uint256"
        },
        {
          "internalType": "bool",
          "name": "useCollateral",
          "type": "bool"
        },
        {
          "internalType": "uint256",
          "name": "collateral",
          "type": "uint256"
        },
        {
          "internalType": "uint256",
          "name": "debtScaled",
          "type": "uint256"
        }
      ],
      "name": "emitRepay",
      "outputs": [],
      "stateMutability": "nonpayable",
      "type": "function"
    },
    {
      "inputs": [
        {
          "internalType": "address",
          "name": "underlyingAsset",
          "type": "address"
        },
        {
          "internalType": "address",
          "name": "account",
          "type": "address"
        },
        {
          "internalType": "address",
          "name": "to",
          "type": "address"
        },
        {
          "internalType": "uint256",
          "name": "supplyAmount",
          "type": "uint256"
        }
      ],
      "name": "emitSupply",
      "outputs": [],
      "stateMutability": "nonpayable",
      "type": "function"
    },
    {
      "inputs": [
        {
          "internalType": "address",
          "name": "underlyingAssetIn",
          "type": "address"
        },
        {
          "internalType": "address",
          "name": "underlyingAssetOut",
          "type": "address"
        },
        {
          "internalType": "address",
          "name": "account",
          "type": "address"
        },
        {
          "internalType": "uint256",
          "name": "amountIn",
          "type": "uint256"
        },
        {
          "internalType": "uint256",
          "name": "amountOut",
          "type": "uint256"
        },
        {
          "internalType": "uint256",
          "name": "fee",
          "type": "uint256"
        },
        {
          "internalType": "uint256",
          "name": "collateralIn",
          "type": "uint256"
        },
        {
          "internalType": "uint256",
          "name": "debtScaledIn",
          "type": "uint256"
        },
        {
          "internalType": "uint256",
          "name": "collateralOut",
          "type": "uint256"
        },
        {
          "internalType": "uint256",
          "name": "debtScaledOut",
          "type": "uint256"
        }
      ],
      "name": "emitSwap",
      "outputs": [],
      "stateMutability": "nonpayable",
      "type": "function"
    },
    {
      "inputs": [
        {
          "internalType": "address",
          "name": "underlyingAsset",
          "type": "address"
        },
        {
          "internalType": "address",
          "name": "account",
          "type": "address"
        },
        {
          "internalType": "address",
          "name": "to",
          "type": "address"
        },
        {
          "internalType": "uint256",
          "name": "withdrawAmount",
          "type": "uint256"
        },
        {
          "internalType": "uint256",
          "name": "collateral",
          "type": "uint256"
        },
        {
          "internalType": "uint256",
          "name": "debtScaled",
          "type": "uint256"
        }
      ],
      "name": "emitWithdraw",
      "outputs": [],
      "stateMutability": "nonpayable",
      "type": "function"
    },
    {
      "inputs": [
        {
          "internalType": "address",
          "name": "underlyingAsset",
          "type": "address"
        },
        {
          "internalType": "address",
          "name": "account",
          "type": "address"
        },
        {
          "internalType": "address",
          "name": "to",
          "type": "address"
        },
        {
          "internalType": "uint256",
          "name": "withdrawAmount",
          "type": "uint256"
        }
      ],
      "name": "emitWithdraw",
      "outputs": [],
      "stateMutability": "nonpayable",
      "type": "function"
    },
    {
      "inputs": [],
      "name": "roleStore",
      "outputs": [
        {
          "internalType": "contract RoleStore",
          "name": "",
          "type": "address"
        }
      ],
      "stateMutability": "view",
      "type": "function"
    }
  ],
  "bytecode": "0x60a060405234801561001057600080fd5b506040516119fc3803806119fc833981810160405281019061003291906100e3565b808073ffffffffffffffffffffffffffffffffffffffff1660808173ffffffffffffffffffffffffffffffffffffffff16815250505050610110565b600080fd5b600073ffffffffffffffffffffffffffffffffffffffff82169050919050565b600061009e82610073565b9050919050565b60006100b082610093565b9050919050565b6100c0816100a5565b81146100cb57600080fd5b50565b6000815190506100dd816100b7565b92915050565b6000602082840312156100f9576100f861006e565b5b6000610107848285016100ce565b91505092915050565b6080516118ca610132600039600081816104390152610dcb01526118ca6000f3fe608060405234801561001057600080fd5b50600436106100ea5760003560e01c80638705dcb31161008c57806394e0dd1d1161006657806394e0dd1d146102095780639c84579214610225578063a250ab9a14610241578063f002e0bd1461025d576100ea565b80638705dcb3146101b55780638bc71da8146101d15780639324595b146101ed576100ea565b80635b63816e116100c85780635b63816e1461014557806366e4d17a146101615780637ba59a8b1461017d5780637c24dab714610199576100ea565b8063054a90c5146100ef578063324ac7651461010b5780634a4a7b0414610127575b600080fd5b61010960048036038101906101049190610f45565b610279565b005b61012560048036038101906101209190610fd2565b610364565b005b61012f610437565b60405161013c91906110ac565b60405180910390f35b61015f600480360381019061015a91906110ff565b61045b565b005b61017b6004803603810190610176919061118c565b610531565b005b61019760048036038101906101929190610fd2565b610628565b005b6101b360048036038101906101ae919061126b565b6106fb565b005b6101cf60048036038101906101ca91906112e6565b6107b9565b005b6101eb60048036038101906101e69190610f45565b6108ad565b005b610207600480360381019061020291906113b0565b610998565b005b610223600480360381019061021e9190611417565b610a7d565b005b61023f600480360381019061023a91906114a4565b610b53565b005b61025b600480360381019061025691906113b0565b610c0e565b005b61027760048036038101906102729190611417565b610cf3565b005b6102dc60405160200161028b90611568565b604051602081830303815290604052805190602001206040518060400160405280600a81526020017f434f4e54524f4c4c455200000000000000000000000000000000000000000000815250610dc9565b8373ffffffffffffffffffffffffffffffffffffffff168573ffffffffffffffffffffffffffffffffffffffff168773ffffffffffffffffffffffffffffffffffffffff167fde74dcb4b9894d99afee49abaa5b8eeece8399422c403c5128b2958f0dd6180586868660405161035493929190611597565b60405180910390a4505050505050565b6103c760405160200161037690611568565b604051602081830303815290604052805190602001206040518060400160405280600a81526020017f434f4e54524f4c4c455200000000000000000000000000000000000000000000815250610dc9565b8373ffffffffffffffffffffffffffffffffffffffff168573ffffffffffffffffffffffffffffffffffffffff167fb149470201600d81e1698a9d001d20f8d2a036d2c0f425436b65a154e95eb53a85858560405161042893929190611597565b60405180910390a35050505050565b7f000000000000000000000000000000000000000000000000000000000000000081565b6104be60405160200161046d90611568565b604051602081830303815290604052805190602001206040518060400160405280600a81526020017f434f4e54524f4c4c455200000000000000000000000000000000000000000000815250610dc9565b8473ffffffffffffffffffffffffffffffffffffffff168673ffffffffffffffffffffffffffffffffffffffff167f5ca7f1e42fbae6c27024a8364d7f80e1ece702fcca05b40de69e2e8cbca2fac98686868660405161052194939291906115dd565b60405180910390a3505050505050565b61059460405160200161054390611568565b604051602081830303815290604052805190602001206040518060400160405280600a81526020017f434f4e54524f4c4c455200000000000000000000000000000000000000000000815250610dc9565b8773ffffffffffffffffffffffffffffffffffffffff168973ffffffffffffffffffffffffffffffffffffffff168b73ffffffffffffffffffffffffffffffffffffffff167f533855cb8a87f0995f6c3390665eb37da822f5550b13a973a77906d018a2a89c8a8a8a8a8a8a8a6040516106149796959493929190611622565b60405180910390a450505050505050505050565b61068b60405160200161063a90611568565b604051602081830303815290604052805190602001206040518060400160405280600a81526020017f434f4e54524f4c4c455200000000000000000000000000000000000000000000815250610dc9565b8373ffffffffffffffffffffffffffffffffffffffff168573ffffffffffffffffffffffffffffffffffffffff167f4e2ca0515ed1aef1395f66b5303bb5d6f1bf9d61a353fa53f73f8ac9973fa9f68585856040516106ec93929190611597565b60405180910390a35050505050565b61075e60405160200161070d90611568565b604051602081830303815290604052805190602001206040518060400160405280600a81526020017f434f4e54524f4c4c455200000000000000000000000000000000000000000000815250610dc9565b8473ffffffffffffffffffffffffffffffffffffffff167fc320a8529b15b851aaa68519919ac344e1caceaf4f47d15df6e58181dfec6319858585856040516107aa9493929190611691565b60405180910390a25050505050565b61081c6040516020016107cb90611568565b604051602081830303815290604052805190602001206040518060400160405280600a81526020017f434f4e54524f4c4c455200000000000000000000000000000000000000000000815250610dc9565b8673ffffffffffffffffffffffffffffffffffffffff168873ffffffffffffffffffffffffffffffffffffffff168a73ffffffffffffffffffffffffffffffffffffffff167f9adf4662bb40ef8797479e9d5cc65b922e0c2c11b765e73cc6cd89edd54b8a8b89898989898960405161089a969594939291906116d6565b60405180910390a4505050505050505050565b6109106040516020016108bf90611568565b604051602081830303815290604052805190602001206040518060400160405280600a81526020017f434f4e54524f4c4c455200000000000000000000000000000000000000000000815250610dc9565b8373ffffffffffffffffffffffffffffffffffffffff168573ffffffffffffffffffffffffffffffffffffffff168773ffffffffffffffffffffffffffffffffffffffff167fbbbdee62287b5bf3bee13cab60a29ad729cf38109bccbd2a986a11c99b8ca70486868660405161098893929190611597565b60405180910390a4505050505050565b6109fb6040516020016109aa90611568565b604051602081830303815290604052805190602001206040518060400160405280600a81526020017f434f4e54524f4c4c455200000000000000000000000000000000000000000000815250610dc9565b8173ffffffffffffffffffffffffffffffffffffffff168373ffffffffffffffffffffffffffffffffffffffff168573ffffffffffffffffffffffffffffffffffffffff167f4f7857497e115bb4e8acd8d9f7382eb4c159d874838d6368099523ab6ef9f63184604051610a6f9190611737565b60405180910390a450505050565b610ae0604051602001610a8f90611568565b604051602081830303815290604052805190602001206040518060400160405280600a81526020017f434f4e54524f4c4c455200000000000000000000000000000000000000000000815250610dc9565b8473ffffffffffffffffffffffffffffffffffffffff168673ffffffffffffffffffffffffffffffffffffffff167fc70fd1eb40d7ae44a5425c09dece5a023b47277356e005b6caef1600cfc7334e86868686604051610b439493929190611691565b60405180910390a3505050505050565b610bb6604051602001610b6590611568565b604051602081830303815290604052805190602001206040518060400160405280600a81526020017f434f4e54524f4c4c455200000000000000000000000000000000000000000000815250610dc9565b8373ffffffffffffffffffffffffffffffffffffffff167fd2e6085315c6e1c1c7406a47c7d006a8c1f931396d868c16046dea71365ff031848484604051610c0093929190611597565b60405180910390a250505050565b610c71604051602001610c2090611568565b604051602081830303815290604052805190602001206040518060400160405280600a81526020017f434f4e54524f4c4c455200000000000000000000000000000000000000000000815250610dc9565b8173ffffffffffffffffffffffffffffffffffffffff168373ffffffffffffffffffffffffffffffffffffffff168573ffffffffffffffffffffffffffffffffffffffff167f3115d1449a7b732c986cba18244e897a450f61e1bb8d589cd2e69e6c8924f9f784604051610ce59190611737565b60405180910390a450505050565b610d56604051602001610d0590611568565b604051602081830303815290604052805190602001206040518060400160405280600a81526020017f434f4e54524f4c4c455200000000000000000000000000000000000000000000815250610dc9565b8473ffffffffffffffffffffffffffffffffffffffff168673ffffffffffffffffffffffffffffffffffffffff167f9b079d2f87f543b9b06c6732ea4d73fd08f69c2f2a51dde314ad9150302af75486868686604051610db99493929190611691565b60405180910390a3505050505050565b7f000000000000000000000000000000000000000000000000000000000000000073ffffffffffffffffffffffffffffffffffffffff1663ac4ab3fb33846040518363ffffffff1660e01b8152600401610e2492919061177a565b602060405180830381865afa158015610e41573d6000803e3d6000fd5b505050506040513d601f19601f82011682018060405250810190610e6591906117b8565b610ea85733816040517fa35b150b000000000000000000000000000000000000000000000000000000008152600401610e9f929190611864565b60405180910390fd5b5050565b600080fd5b600073ffffffffffffffffffffffffffffffffffffffff82169050919050565b6000610edc82610eb1565b9050919050565b610eec81610ed1565b8114610ef757600080fd5b50565b600081359050610f0981610ee3565b92915050565b6000819050919050565b610f2281610f0f565b8114610f2d57600080fd5b50565b600081359050610f3f81610f19565b92915050565b60008060008060008060c08789031215610f6257610f61610eac565b5b6000610f7089828a01610efa565b9650506020610f8189828a01610efa565b9550506040610f9289828a01610efa565b9450506060610fa389828a01610f30565b9350506080610fb489828a01610f30565b92505060a0610fc589828a01610f30565b9150509295509295509295565b600080600080600060a08688031215610fee57610fed610eac565b5b6000610ffc88828901610efa565b955050602061100d88828901610efa565b945050604061101e88828901610f30565b935050606061102f88828901610f30565b925050608061104088828901610f30565b9150509295509295909350565b6000819050919050565b600061107261106d61106884610eb1565b61104d565b610eb1565b9050919050565b600061108482611057565b9050919050565b600061109682611079565b9050919050565b6110a68161108b565b82525050565b60006020820190506110c1600083018461109d565b92915050565b60008115159050919050565b6110dc816110c7565b81146110e757600080fd5b50565b6000813590506110f9816110d3565b92915050565b60008060008060008060c0878903121561111c5761111b610eac565b5b600061112a89828a01610efa565b965050602061113b89828a01610efa565b955050604061114c89828a01610f30565b945050606061115d89828a016110ea565b935050608061116e89828a01610f30565b92505060a061117f89828a01610f30565b9150509295509295509295565b6000806000806000806000806000806101408b8d0312156111b0576111af610eac565b5b60006111be8d828e01610efa565b9a505060206111cf8d828e01610efa565b99505060406111e08d828e01610efa565b98505060606111f18d828e01610f30565b97505060806112028d828e01610f30565b96505060a06112138d828e01610f30565b95505060c06112248d828e01610f30565b94505060e06112358d828e01610f30565b9350506101006112478d828e01610f30565b9250506101206112598d828e01610f30565b9150509295989b9194979a5092959850565b600080600080600060a0868803121561128757611286610eac565b5b600061129588828901610efa565b95505060206112a688828901610f30565b94505060406112b788828901610f30565b93505060606112c888828901610f30565b92505060806112d988828901610f30565b9150509295509295909350565b60008060008060008060008060006101208a8c03121561130957611308610eac565b5b60006113178c828d01610efa565b99505060206113288c828d01610efa565b98505060406113398c828d01610efa565b975050606061134a8c828d01610f30565b965050608061135b8c828d01610f30565b95505060a061136c8c828d01610f30565b94505060c061137d8c828d01610f30565b93505060e061138e8c828d01610f30565b9250506101006113a08c828d01610f30565b9150509295985092959850929598565b600080600080608085870312156113ca576113c9610eac565b5b60006113d887828801610efa565b94505060206113e987828801610efa565b93505060406113fa87828801610efa565b925050606061140b87828801610f30565b91505092959194509250565b60008060008060008060c0878903121561143457611433610eac565b5b600061144289828a01610efa565b965050602061145389828a01610efa565b955050604061146489828a01610f30565b945050606061147589828a01610f30565b935050608061148689828a01610f30565b92505060a061149789828a01610f30565b9150509295509295509295565b600080600080608085870312156114be576114bd610eac565b5b60006114cc87828801610efa565b94505060206114dd87828801610f30565b93505060406114ee87828801610f30565b92505060606114ff87828801610f30565b91505092959194509250565b600082825260208201905092915050565b7f434f4e54524f4c4c455200000000000000000000000000000000000000000000600082015250565b6000611552600a8361150b565b915061155d8261151c565b602082019050919050565b6000602082019050818103600083015261158181611545565b9050919050565b61159181610f0f565b82525050565b60006060820190506115ac6000830186611588565b6115b96020830185611588565b6115c66040830184611588565b949350505050565b6115d7816110c7565b82525050565b60006080820190506115f26000830187611588565b6115ff60208301866115ce565b61160c6040830185611588565b6116196060830184611588565b95945050505050565b600060e082019050611637600083018a611588565b6116446020830189611588565b6116516040830188611588565b61165e6060830187611588565b61166b6080830186611588565b61167860a0830185611588565b61168560c0830184611588565b98975050505050505050565b60006080820190506116a66000830187611588565b6116b36020830186611588565b6116c06040830185611588565b6116cd6060830184611588565b95945050505050565b600060c0820190506116eb6000830189611588565b6116f86020830188611588565b6117056040830187611588565b6117126060830186611588565b61171f6080830185611588565b61172c60a0830184611588565b979650505050505050565b600060208201905061174c6000830184611588565b92915050565b61175b81610ed1565b82525050565b6000819050919050565b61177481611761565b82525050565b600060408201905061178f6000830185611752565b61179c602083018461176b565b9392505050565b6000815190506117b2816110d3565b92915050565b6000602082840312156117ce576117cd610eac565b5b60006117dc848285016117a3565b91505092915050565b600081519050919050565b60005b8381101561180e5780820151818401526020810190506117f3565b60008484015250505050565b6000601f19601f8301169050919050565b6000611836826117e5565b611840818561150b565b93506118508185602086016117f0565b6118598161181a565b840191505092915050565b60006040820190506118796000830185611752565b818103602083015261188b818461182b565b9050939250505056fea2646970667358221220c0bd3cb9382fa36fae171c14581fb9a70d60dbd2a89c0ff828a99f7b5342289e64736f6c634300081b0033",
  "linkReferences": {},
  "deployedLinkReferences": {}
}