{
  "_format": "hh-sol-artifact-1",
  "contractName": "EventEmitter",
  "sourceName": "contracts/event/EventEmitter.sol",
  "abi": [
    {
      "inputs": [
        {
          "internalType": "contract RoleStore",
          "name": "_roleStore",
          "type": "address"
        }
      ],
      "stateMutability": "nonpayable",
      "type": "constructor"
    },
    {
      "inputs": [
        {
          "internalType": "address",
          "name": "msgSender",
          "type": "address"
        },
        {
          "internalType": "string",
          "name": "role",
          "type": "string"
        }
      ],
      "name": "Unauthorized",
      "type": "error"
    },
    {
      "anonymous": false,
      "inputs": [
        {
          "indexed": true,
          "internalType": "address",
          "name": "adder",
          "type": "address"
        },
        {
          "indexed": false,
          "internalType": "address",
          "name": "baseToken",
          "type": "address"
        },
        {
          "indexed": false,
          "internalType": "address",
          "name": "memeToken",
          "type": "address"
        },
        {
          "indexed": false,
          "internalType": "address",
          "name": "to",
          "type": "address"
        },
        {
          "indexed": false,
          "internalType": "uint256",
          "name": "baseAmount",
          "type": "uint256"
        },
        {
          "indexed": false,
          "internalType": "uint256",
          "name": "memeAmount",
          "type": "uint256"
        }
      ],
      "name": "Add",
      "type": "event"
    },
    {
      "anonymous": false,
      "inputs": [
        {
          "indexed": true,
          "internalType": "address",
          "name": "borrower",
          "type": "address"
        },
        {
          "indexed": false,
          "internalType": "address",
          "name": "baseToken",
          "type": "address"
        },
        {
          "indexed": false,
          "internalType": "address",
          "name": "memeToken",
          "type": "address"
        },
        {
          "indexed": false,
          "internalType": "uint256",
          "name": "positionId",
          "type": "uint256"
        },
        {
          "indexed": false,
          "internalType": "uint8",
          "name": "tokenIndex",
          "type": "uint8"
        },
        {
          "indexed": false,
          "internalType": "uint256",
          "name": "borrowAmount",
          "type": "uint256"
        },
        {
          "indexed": false,
          "internalType": "uint256",
          "name": "borrowRate",
          "type": "uint256"
        },
        {
          "indexed": false,
          "internalType": "uint256",
          "name": "baseCollateral",
          "type": "uint256"
        },
        {
          "indexed": false,
          "internalType": "uint256",
          "name": "baseDebtScaled",
          "type": "uint256"
        },
        {
          "indexed": false,
          "internalType": "uint256",
          "name": "memeCollateral",
          "type": "uint256"
        },
        {
          "indexed": false,
          "internalType": "uint256",
          "name": "memeDebtScaled",
          "type": "uint256"
        }
      ],
      "name": "Borrow",
      "type": "event"
    },
    {
      "anonymous": false,
      "inputs": [
        {
          "indexed": true,
          "internalType": "address",
          "name": "pool",
          "type": "address"
        },
        {
          "indexed": false,
          "internalType": "uint256",
          "name": "scaledUnclaimedFee",
          "type": "uint256"
        },
        {
          "indexed": false,
          "internalType": "uint256",
          "name": "liquidityIndex",
          "type": "uint256"
        },
        {
          "indexed": false,
          "internalType": "uint256",
          "name": "unclaimedFee",
          "type": "uint256"
        }
      ],
      "name": "ClaimFees",
      "type": "event"
    },
    {
      "anonymous": false,
      "inputs": [
        {
          "indexed": true,
          "internalType": "address",
          "name": "poolUsd",
          "type": "address"
        },
        {
          "indexed": true,
          "internalType": "address",
          "name": "account",
          "type": "address"
        },
        {
          "indexed": false,
          "internalType": "uint256",
          "name": "amountUsdStartClose",
          "type": "uint256"
        },
        {
          "indexed": false,
          "internalType": "uint256",
          "name": "amountUsdAfterRepayAndSellCollateral",
          "type": "uint256"
        },
        {
          "indexed": false,
          "internalType": "uint256",
          "name": "amountUsdAfterBuyCollateralAndRepay",
          "type": "uint256"
        }
      ],
      "name": "Close",
      "type": "event"
    },
    {
      "anonymous": false,
      "inputs": [
        {
          "indexed": true,
          "internalType": "address",
          "name": "depositor",
          "type": "address"
        },
        {
          "indexed": false,
          "internalType": "address",
          "name": "baseToken",
          "type": "address"
        },
        {
          "indexed": false,
          "internalType": "address",
          "name": "memeToken",
          "type": "address"
        },
        {
          "indexed": false,
          "internalType": "uint256",
          "name": "depositAmount",
          "type": "uint256"
        },
        {
          "indexed": false,
          "internalType": "uint256",
          "name": "baseCollateral",
          "type": "uint256"
        },
        {
          "indexed": false,
          "internalType": "uint256",
          "name": "baseDebtScaled",
          "type": "uint256"
        },
        {
          "indexed": false,
          "internalType": "uint256",
          "name": "memeCollateral",
          "type": "uint256"
        },
        {
          "indexed": false,
          "internalType": "uint256",
          "name": "memeDebtScaled",
          "type": "uint256"
        }
      ],
      "name": "Deposit",
      "type": "event"
    },
    {
      "anonymous": false,
      "inputs": [
        {
          "indexed": true,
          "internalType": "address",
          "name": "liquidator",
          "type": "address"
        },
        {
          "indexed": true,
          "internalType": "address",
          "name": "account",
          "type": "address"
        },
        {
          "indexed": false,
          "internalType": "uint256",
          "name": "marginLevel",
          "type": "uint256"
        },
        {
          "indexed": false,
          "internalType": "uint256",
          "name": "marginLevelLiquidationThreshold",
          "type": "uint256"
        },
        {
          "indexed": false,
          "internalType": "uint256",
          "name": "totalCollateralUsd",
          "type": "uint256"
        },
        {
          "indexed": false,
          "internalType": "uint256",
          "name": "totalDebtUsd",
          "type": "uint256"
        }
      ],
      "name": "Liquidation",
      "type": "event"
    },
    {
      "anonymous": false,
      "inputs": [
        {
          "indexed": false,
          "internalType": "address",
          "name": "baseToken",
          "type": "address"
        },
        {
          "indexed": false,
          "internalType": "address",
          "name": "memeToken",
          "type": "address"
        },
        {
          "indexed": false,
          "internalType": "address",
          "name": "source",
          "type": "address"
        },
        {
          "indexed": false,
          "internalType": "uint256",
          "name": "createdTimestamp",
          "type": "uint256"
        }
      ],
      "name": "PoolCreated",
      "type": "event"
    },
    {
      "anonymous": false,
      "inputs": [
        {
          "indexed": true,
          "internalType": "address",
          "name": "pool",
          "type": "address"
        },
        {
          "indexed": false,
          "internalType": "uint256",
          "name": "liquidityRate",
          "type": "uint256"
        },
        {
          "indexed": false,
          "internalType": "uint256",
          "name": "borrowRate",
          "type": "uint256"
        },
        {
          "indexed": false,
          "internalType": "uint256",
          "name": "liquidityIndex",
          "type": "uint256"
        },
        {
          "indexed": false,
          "internalType": "uint256",
          "name": "borrowIndex",
          "type": "uint256"
        }
      ],
      "name": "PoolUpdated",
      "type": "event"
    },
    {
      "anonymous": false,
      "inputs": [
        {
          "indexed": true,
          "internalType": "address",
          "name": "remover",
          "type": "address"
        },
        {
          "indexed": false,
          "internalType": "address",
          "name": "baseToken",
          "type": "address"
        },
        {
          "indexed": false,
          "internalType": "address",
          "name": "memeToken",
          "type": "address"
        },
        {
          "indexed": false,
          "internalType": "uint256",
          "name": "liquidity",
          "type": "uint256"
        },
        {
          "indexed": false,
          "internalType": "address",
          "name": "to",
          "type": "address"
        },
        {
          "indexed": false,
          "internalType": "uint256",
          "name": "baseAmount",
          "type": "uint256"
        },
        {
          "indexed": false,
          "internalType": "uint256",
          "name": "memeAmount",
          "type": "uint256"
        }
      ],
      "name": "Remove",
      "type": "event"
    },
    {
      "anonymous": false,
      "inputs": [
        {
          "indexed": true,
          "internalType": "address",
          "name": "repayer",
          "type": "address"
        },
        {
          "indexed": false,
          "internalType": "address",
          "name": "baseToken",
          "type": "address"
        },
        {
          "indexed": false,
          "internalType": "address",
          "name": "memeToken",
          "type": "address"
        },
        {
          "indexed": false,
          "internalType": "uint256",
          "name": "positionId",
          "type": "uint256"
        },
        {
          "indexed": false,
          "internalType": "uint8",
          "name": "tokenIndex",
          "type": "uint8"
        },
        {
          "indexed": false,
          "internalType": "uint256",
          "name": "repayAmount",
          "type": "uint256"
        },
        {
          "indexed": false,
          "internalType": "uint256",
          "name": "baseCollateral",
          "type": "uint256"
        },
        {
          "indexed": false,
          "internalType": "uint256",
          "name": "baseDebtScaled",
          "type": "uint256"
        },
        {
          "indexed": false,
          "internalType": "uint256",
          "name": "memeCollateral",
          "type": "uint256"
        },
        {
          "indexed": false,
          "internalType": "uint256",
          "name": "memeDebtScaled",
          "type": "uint256"
        }
      ],
      "name": "Repay",
      "type": "event"
    },
    {
      "anonymous": false,
      "inputs": [
        {
          "indexed": true,
          "internalType": "address",
          "name": "account",
          "type": "address"
        },
        {
          "indexed": false,
          "internalType": "address",
          "name": "tokenIn",
          "type": "address"
        },
        {
          "indexed": false,
          "internalType": "address",
          "name": "tokenOut",
          "type": "address"
        },
        {
          "indexed": false,
          "internalType": "uint256",
          "name": "amountIn",
          "type": "uint256"
        },
        {
          "indexed": false,
          "internalType": "uint256",
          "name": "amountOut",
          "type": "uint256"
        },
        {
          "indexed": false,
          "internalType": "uint256",
          "name": "fee",
          "type": "uint256"
        },
        {
          "indexed": false,
          "internalType": "uint256",
          "name": "baseCollateral",
          "type": "uint256"
        },
        {
          "indexed": false,
          "internalType": "uint256",
          "name": "baseDebtScaled",
          "type": "uint256"
        },
        {
          "indexed": false,
          "internalType": "uint256",
          "name": "memeCollateral",
          "type": "uint256"
        },
        {
          "indexed": false,
          "internalType": "uint256",
          "name": "memeDebtScaled",
          "type": "uint256"
        }
      ],
      "name": "Swap",
      "type": "event"
    },
    {
      "anonymous": false,
      "inputs": [
        {
          "indexed": true,
          "internalType": "address",
          "name": "withdrawer",
          "type": "address"
        },
        {
          "indexed": false,
          "internalType": "address",
          "name": "baseToken",
          "type": "address"
        },
        {
          "indexed": false,
          "internalType": "address",
          "name": "memeToken",
          "type": "address"
        },
        {
          "indexed": false,
          "internalType": "uint256",
          "name": "withdrawAmount",
          "type": "uint256"
        },
        {
          "indexed": false,
          "internalType": "address",
          "name": "to",
          "type": "address"
        },
        {
          "indexed": false,
          "internalType": "uint256",
          "name": "baseCollateral",
          "type": "uint256"
        },
        {
          "indexed": false,
          "internalType": "uint256",
          "name": "baseDebtScaled",
          "type": "uint256"
        },
        {
          "indexed": false,
          "internalType": "uint256",
          "name": "memeCollateral",
          "type": "uint256"
        },
        {
          "indexed": false,
          "internalType": "uint256",
          "name": "memeDebtScaled",
          "type": "uint256"
        }
      ],
      "name": "Withdraw",
      "type": "event"
    },
    {
      "inputs": [
        {
          "internalType": "address",
          "name": "supplier",
          "type": "address"
        },
        {
          "internalType": "address",
          "name": "baseToken",
          "type": "address"
        },
        {
          "internalType": "address",
          "name": "memeToken",
          "type": "address"
        },
        {
          "internalType": "address",
          "name": "to",
          "type": "address"
        },
        {
          "internalType": "uint256",
          "name": "baseAmount",
          "type": "uint256"
        },
        {
          "internalType": "uint256",
          "name": "memeAmount",
          "type": "uint256"
        }
      ],
      "name": "emitAdd",
      "outputs": [],
      "stateMutability": "nonpayable",
      "type": "function"
    },
    {
      "inputs": [
        {
          "internalType": "address",
          "name": "borrower",
          "type": "address"
        },
        {
          "internalType": "address",
          "name": "baseToken",
          "type": "address"
        },
        {
          "internalType": "address",
          "name": "memeToken",
          "type": "address"
        },
        {
          "internalType": "uint256",
          "name": "positionId",
          "type": "uint256"
        },
        {
          "internalType": "uint8",
          "name": "tokenIndex",
          "type": "uint8"
        },
        {
          "internalType": "uint256",
          "name": "borrowAmount",
          "type": "uint256"
        },
        {
          "internalType": "uint256",
          "name": "borrowRate",
          "type": "uint256"
        },
        {
          "components": [
            {
              "internalType": "uint256",
              "name": "baseCollateral",
              "type": "uint256"
            },
            {
              "internalType": "uint256",
              "name": "baseDebtScaled",
              "type": "uint256"
            },
            {
              "internalType": "uint256",
              "name": "memeCollateral",
              "type": "uint256"
            },
            {
              "internalType": "uint256",
              "name": "memeDebtScaled",
              "type": "uint256"
            }
          ],
          "internalType": "struct Event.Liquidation",
          "name": "liquidation",
          "type": "tuple"
        }
      ],
      "name": "emitBorrow",
      "outputs": [],
      "stateMutability": "nonpayable",
      "type": "function"
    },
    {
      "inputs": [
        {
          "internalType": "address",
          "name": "underlyingAsset",
          "type": "address"
        },
        {
          "internalType": "uint256",
          "name": "scaledUnclaimedFee",
          "type": "uint256"
        },
        {
          "internalType": "uint256",
          "name": "liquidityIndex",
          "type": "uint256"
        },
        {
          "internalType": "uint256",
          "name": "unclaimedFee",
          "type": "uint256"
        }
      ],
      "name": "emitClaimFees",
      "outputs": [],
      "stateMutability": "nonpayable",
      "type": "function"
    },
    {
      "inputs": [
        {
          "internalType": "address",
          "name": "underlyingAssetUsd",
          "type": "address"
        },
        {
          "internalType": "address",
          "name": "account",
          "type": "address"
        },
        {
          "internalType": "uint256",
          "name": "amountUsdStartClose",
          "type": "uint256"
        },
        {
          "internalType": "uint256",
          "name": "amountUsdAfterRepayAndSellCollateral",
          "type": "uint256"
        },
        {
          "internalType": "uint256",
          "name": "amountUsdAfterBuyCollateralAndRepay",
          "type": "uint256"
        }
      ],
      "name": "emitClose",
      "outputs": [],
      "stateMutability": "nonpayable",
      "type": "function"
    },
    {
      "inputs": [
        {
          "internalType": "address",
          "name": "depositor",
          "type": "address"
        },
        {
          "internalType": "address",
          "name": "baseToken",
          "type": "address"
        },
        {
          "internalType": "address",
          "name": "memeToken",
          "type": "address"
        },
        {
          "internalType": "uint256",
          "name": "depositAmount",
          "type": "uint256"
        },
        {
          "internalType": "uint256",
          "name": "baseCollateral",
          "type": "uint256"
        },
        {
          "internalType": "uint256",
          "name": "baseDebtScaled",
          "type": "uint256"
        },
        {
          "internalType": "uint256",
          "name": "memeCollateral",
          "type": "uint256"
        },
        {
          "internalType": "uint256",
          "name": "memeDebtScaled",
          "type": "uint256"
        }
      ],
      "name": "emitDeposit",
      "outputs": [],
      "stateMutability": "nonpayable",
      "type": "function"
    },
    {
      "inputs": [
        {
          "internalType": "address",
          "name": "liquidator",
          "type": "address"
        },
        {
          "internalType": "address",
          "name": "account",
          "type": "address"
        },
        {
          "internalType": "uint256",
          "name": "marginLevel",
          "type": "uint256"
        },
        {
          "internalType": "uint256",
          "name": "marginLevelLiquidationThreshold",
          "type": "uint256"
        },
        {
          "internalType": "uint256",
          "name": "totalCollateralUsd",
          "type": "uint256"
        },
        {
          "internalType": "uint256",
          "name": "totalDebtUsd",
          "type": "uint256"
        }
      ],
      "name": "emitLiquidation",
      "outputs": [],
      "stateMutability": "nonpayable",
      "type": "function"
    },
    {
      "inputs": [
        {
          "internalType": "address",
          "name": "baseToken",
          "type": "address"
        },
        {
          "internalType": "address",
          "name": "memeToken",
          "type": "address"
        },
        {
          "internalType": "address",
          "name": "source",
          "type": "address"
        },
        {
          "internalType": "uint256",
          "name": "createdTimestamp",
          "type": "uint256"
        }
      ],
      "name": "emitPoolCreated",
      "outputs": [],
      "stateMutability": "nonpayable",
      "type": "function"
    },
    {
      "inputs": [
        {
          "internalType": "address",
          "name": "underlyingAsset",
          "type": "address"
        },
        {
          "internalType": "uint256",
          "name": "liquidityRate",
          "type": "uint256"
        },
        {
          "internalType": "uint256",
          "name": "borrowRate",
          "type": "uint256"
        },
        {
          "internalType": "uint256",
          "name": "liquidityIndex",
          "type": "uint256"
        },
        {
          "internalType": "uint256",
          "name": "borrowIndex",
          "type": "uint256"
        }
      ],
      "name": "emitPoolUpdated",
      "outputs": [],
      "stateMutability": "nonpayable",
      "type": "function"
    },
    {
      "inputs": [
        {
          "internalType": "address",
          "name": "remover",
          "type": "address"
        },
        {
          "internalType": "address",
          "name": "baseToken",
          "type": "address"
        },
        {
          "internalType": "address",
          "name": "memeToken",
          "type": "address"
        },
        {
          "internalType": "uint256",
          "name": "liquidity",
          "type": "uint256"
        },
        {
          "internalType": "address",
          "name": "to",
          "type": "address"
        },
        {
          "internalType": "uint256",
          "name": "baseAmount",
          "type": "uint256"
        },
        {
          "internalType": "uint256",
          "name": "memeAmount",
          "type": "uint256"
        }
      ],
      "name": "emitRemove",
      "outputs": [],
      "stateMutability": "nonpayable",
      "type": "function"
    },
    {
      "inputs": [
        {
          "internalType": "address",
          "name": "repayer",
          "type": "address"
        },
        {
          "internalType": "address",
          "name": "baseToken",
          "type": "address"
        },
        {
          "internalType": "address",
          "name": "memeToken",
          "type": "address"
        },
        {
          "internalType": "uint256",
          "name": "positionId",
          "type": "uint256"
        },
        {
          "internalType": "uint8",
          "name": "tokenIndex",
          "type": "uint8"
        },
        {
          "internalType": "uint256",
          "name": "repayAmount",
          "type": "uint256"
        },
        {
          "components": [
            {
              "internalType": "uint256",
              "name": "baseCollateral",
              "type": "uint256"
            },
            {
              "internalType": "uint256",
              "name": "baseDebtScaled",
              "type": "uint256"
            },
            {
              "internalType": "uint256",
              "name": "memeCollateral",
              "type": "uint256"
            },
            {
              "internalType": "uint256",
              "name": "memeDebtScaled",
              "type": "uint256"
            }
          ],
          "internalType": "struct Event.Liquidation",
          "name": "liquidation",
          "type": "tuple"
        }
      ],
      "name": "emitRepay",
      "outputs": [],
      "stateMutability": "nonpayable",
      "type": "function"
    },
    {
      "inputs": [
        {
          "internalType": "address",
          "name": "account",
          "type": "address"
        },
        {
          "internalType": "address",
          "name": "tokenIn",
          "type": "address"
        },
        {
          "internalType": "address",
          "name": "tokenOut",
          "type": "address"
        },
        {
          "internalType": "uint256",
          "name": "amountIn",
          "type": "uint256"
        },
        {
          "internalType": "uint256",
          "name": "amountOut",
          "type": "uint256"
        },
        {
          "internalType": "uint256",
          "name": "fee",
          "type": "uint256"
        },
        {
          "components": [
            {
              "internalType": "uint256",
              "name": "baseCollateral",
              "type": "uint256"
            },
            {
              "internalType": "uint256",
              "name": "baseDebtScaled",
              "type": "uint256"
            },
            {
              "internalType": "uint256",
              "name": "memeCollateral",
              "type": "uint256"
            },
            {
              "internalType": "uint256",
              "name": "memeDebtScaled",
              "type": "uint256"
            }
          ],
          "internalType": "struct Event.Liquidation",
          "name": "liquidation",
          "type": "tuple"
        }
      ],
      "name": "emitSwap",
      "outputs": [],
      "stateMutability": "nonpayable",
      "type": "function"
    },
    {
      "inputs": [
        {
          "internalType": "address",
          "name": "withdrawer",
          "type": "address"
        },
        {
          "internalType": "address",
          "name": "baseToken",
          "type": "address"
        },
        {
          "internalType": "address",
          "name": "memeToken",
          "type": "address"
        },
        {
          "internalType": "uint256",
          "name": "withdrawAmount",
          "type": "uint256"
        },
        {
          "internalType": "address",
          "name": "to",
          "type": "address"
        },
        {
          "internalType": "uint256",
          "name": "baseCollateral",
          "type": "uint256"
        },
        {
          "internalType": "uint256",
          "name": "baseDebtScaled",
          "type": "uint256"
        },
        {
          "internalType": "uint256",
          "name": "memeCollateral",
          "type": "uint256"
        },
        {
          "internalType": "uint256",
          "name": "memeDebtScaled",
          "type": "uint256"
        }
      ],
      "name": "emitWithdraw",
      "outputs": [],
      "stateMutability": "nonpayable",
      "type": "function"
    },
    {
      "inputs": [],
      "name": "roleStore",
      "outputs": [
        {
          "internalType": "contract RoleStore",
          "name": "",
          "type": "address"
        }
      ],
      "stateMutability": "view",
      "type": "function"
    }
  ],
  "bytecode": "0x60a060405234801561001057600080fd5b50604051611d82380380611d82833981810160405281019061003291906100e3565b808073ffffffffffffffffffffffffffffffffffffffff1660808173ffffffffffffffffffffffffffffffffffffffff16815250505050610110565b600080fd5b600073ffffffffffffffffffffffffffffffffffffffff82169050919050565b600061009e82610073565b9050919050565b60006100b082610093565b9050919050565b6100c0816100a5565b81146100cb57600080fd5b50565b6000815190506100dd816100b7565b92915050565b6000602082840312156100f9576100f861006e565b5b6000610107848285016100ce565b91505092915050565b608051611c506101326000396000818161054b0152610bd70152611c506000f3fe608060405234801561001057600080fd5b50600436106100cf5760003560e01c80638262009e1161008c57806396de247f1161006657806396de247f146101d25780639c845792146101ee5780639ed486eb1461020a578063ea34a57714610226576100cf565b80638262009e1461017e57806389cad4d91461019a57806394e0dd1d146101b6576100cf565b806315f762d5146100d45780631d31a986146100f0578063292ae7221461010c578063324ac765146101285780634a4a7b04146101445780637c24dab714610162575b600080fd5b6100ee60048036038101906100e99190610d5b565b610242565b005b61010a60048036038101906101059190610e25565b61030c565b005b61012660048036038101906101219190610e8c565b6103b2565b005b610142600480360381019061013d9190610f2e565b610476565b005b61014c610549565b6040516101599190611008565b60405180910390f35b61017c60048036038101906101779190611023565b61056d565b005b610198600480360381019061019391906111e0565b61062b565b005b6101b460048036038101906101af9190611283565b610705565b005b6101d060048036038101906101cb9190611339565b6107cc565b005b6101ec60048036038101906101e791906113c6565b6108a2565b005b61020860048036038101906102039190611469565b61097c565b005b610224600480360381019061021f91906114d0565b610a37565b005b610240600480360381019061023b919061155d565b610af8565b005b6102a560405160200161025490611670565b604051602081830303815290604052805190602001206040518060400160405280600a81526020017f434f4e54524f4c4c455200000000000000000000000000000000000000000000815250610bd5565b8873ffffffffffffffffffffffffffffffffffffffff167fb50b96cf5652f7259ba33891436a3874ecce39e522a18fb973cb021949f573df89898989898989896040516102f99897969594939291906116ae565b60405180910390a2505050505050505050565b61036f60405160200161031e90611670565b604051602081830303815290604052805190602001206040518060400160405280600a81526020017f434f4e54524f4c4c455200000000000000000000000000000000000000000000815250610bd5565b7febbbe9dc3a19d2f959ac76ac0372b4983cdfb945f5d6aef4873c36fabb2ba8aa848484846040516103a4949392919061172c565b60405180910390a150505050565b6104156040516020016103c490611670565b604051602081830303815290604052805190602001206040518060400160405280600a81526020017f434f4e54524f4c4c455200000000000000000000000000000000000000000000815250610bd5565b8673ffffffffffffffffffffffffffffffffffffffff167fe10a339dd5329df14a8ec13eb4115b75ab032fd40e2ff2594a4a5bf80e497a4187878787878760405161046596959493929190611771565b60405180910390a250505050505050565b6104d960405160200161048890611670565b604051602081830303815290604052805190602001206040518060400160405280600a81526020017f434f4e54524f4c4c455200000000000000000000000000000000000000000000815250610bd5565b8373ffffffffffffffffffffffffffffffffffffffff168573ffffffffffffffffffffffffffffffffffffffff167fb149470201600d81e1698a9d001d20f8d2a036d2c0f425436b65a154e95eb53a85858560405161053a939291906117d2565b60405180910390a35050505050565b7f000000000000000000000000000000000000000000000000000000000000000081565b6105d060405160200161057f90611670565b604051602081830303815290604052805190602001206040518060400160405280600a81526020017f434f4e54524f4c4c455200000000000000000000000000000000000000000000815250610bd5565b8473ffffffffffffffffffffffffffffffffffffffff167fc320a8529b15b851aaa68519919ac344e1caceaf4f47d15df6e58181dfec63198585858560405161061c9493929190611809565b60405180910390a25050505050565b61068e60405160200161063d90611670565b604051602081830303815290604052805190602001206040518060400160405280600a81526020017f434f4e54524f4c4c455200000000000000000000000000000000000000000000815250610bd5565b8673ffffffffffffffffffffffffffffffffffffffff167f4fc3cf57f1c587a9f0808812dd72668a2b82f54411b0737d06c4043ff044cf9a87878787878760000151886020015189604001518a606001516040516106f49998979695949392919061185d565b60405180910390a250505050505050565b61076860405160200161071790611670565b604051602081830303815290604052805190602001206040518060400160405280600a81526020017f434f4e54524f4c4c455200000000000000000000000000000000000000000000815250610bd5565b8773ffffffffffffffffffffffffffffffffffffffff167f259af91af89c9a6b13d53607d57f43b151235f69d54d2339133e57cfb62bf4c5888888888888886040516107ba97969594939291906118ea565b60405180910390a25050505050505050565b61082f6040516020016107de90611670565b604051602081830303815290604052805190602001206040518060400160405280600a81526020017f434f4e54524f4c4c455200000000000000000000000000000000000000000000815250610bd5565b8473ffffffffffffffffffffffffffffffffffffffff168673ffffffffffffffffffffffffffffffffffffffff167fc70fd1eb40d7ae44a5425c09dece5a023b47277356e005b6caef1600cfc7334e868686866040516108929493929190611809565b60405180910390a3505050505050565b6109056040516020016108b490611670565b604051602081830303815290604052805190602001206040518060400160405280600a81526020017f434f4e54524f4c4c455200000000000000000000000000000000000000000000815250610bd5565b8673ffffffffffffffffffffffffffffffffffffffff167f533855cb8a87f0995f6c3390665eb37da822f5550b13a973a77906d018a2a89c87878787878760000151886020015189604001518a6060015160405161096b99989796959493929190611959565b60405180910390a250505050505050565b6109df60405160200161098e90611670565b604051602081830303815290604052805190602001206040518060400160405280600a81526020017f434f4e54524f4c4c455200000000000000000000000000000000000000000000815250610bd5565b8373ffffffffffffffffffffffffffffffffffffffff167fd2e6085315c6e1c1c7406a47c7d006a8c1f931396d868c16046dea71365ff031848484604051610a29939291906117d2565b60405180910390a250505050565b610a9a604051602001610a4990611670565b604051602081830303815290604052805190602001206040518060400160405280600a81526020017f434f4e54524f4c4c455200000000000000000000000000000000000000000000815250610bd5565b8573ffffffffffffffffffffffffffffffffffffffff167fcbdb4dd8f84983be7c158013b8d74dacf114333078949f99dfb5b66e6621964a8686868686604051610ae89594939291906119e6565b60405180910390a2505050505050565b610b5b604051602001610b0a90611670565b604051602081830303815290604052805190602001206040518060400160405280600a81526020017f434f4e54524f4c4c455200000000000000000000000000000000000000000000815250610bd5565b8773ffffffffffffffffffffffffffffffffffffffff167f2ef1e8737d096826c9abef1201bb205ea380555780a54bd904cf67ca7dba8c5f888888888888886000015189602001518a604001518b60600151604051610bc39a99989796959493929190611a39565b60405180910390a25050505050505050565b7f000000000000000000000000000000000000000000000000000000000000000073ffffffffffffffffffffffffffffffffffffffff1663ac4ab3fb33846040518363ffffffff1660e01b8152600401610c30929190611aee565b602060405180830381865afa158015610c4d573d6000803e3d6000fd5b505050506040513d601f19601f82011682018060405250810190610c719190611b4f565b610cb45733816040517fa35b150b000000000000000000000000000000000000000000000000000000008152600401610cab929190611bea565b60405180910390fd5b5050565b6000604051905090565b600080fd5b600073ffffffffffffffffffffffffffffffffffffffff82169050919050565b6000610cf282610cc7565b9050919050565b610d0281610ce7565b8114610d0d57600080fd5b50565b600081359050610d1f81610cf9565b92915050565b6000819050919050565b610d3881610d25565b8114610d4357600080fd5b50565b600081359050610d5581610d2f565b92915050565b60008060008060008060008060006101208a8c031215610d7e57610d7d610cc2565b5b6000610d8c8c828d01610d10565b9950506020610d9d8c828d01610d10565b9850506040610dae8c828d01610d10565b9750506060610dbf8c828d01610d46565b9650506080610dd08c828d01610d10565b95505060a0610de18c828d01610d46565b94505060c0610df28c828d01610d46565b93505060e0610e038c828d01610d46565b925050610100610e158c828d01610d46565b9150509295985092959850929598565b60008060008060808587031215610e3f57610e3e610cc2565b5b6000610e4d87828801610d10565b9450506020610e5e87828801610d10565b9350506040610e6f87828801610d10565b9250506060610e8087828801610d46565b91505092959194509250565b600080600080600080600060e0888a031215610eab57610eaa610cc2565b5b6000610eb98a828b01610d10565b9750506020610eca8a828b01610d10565b9650506040610edb8a828b01610d10565b9550506060610eec8a828b01610d46565b9450506080610efd8a828b01610d10565b93505060a0610f0e8a828b01610d46565b92505060c0610f1f8a828b01610d46565b91505092959891949750929550565b600080600080600060a08688031215610f4a57610f49610cc2565b5b6000610f5888828901610d10565b9550506020610f6988828901610d10565b9450506040610f7a88828901610d46565b9350506060610f8b88828901610d46565b9250506080610f9c88828901610d46565b9150509295509295909350565b6000819050919050565b6000610fce610fc9610fc484610cc7565b610fa9565b610cc7565b9050919050565b6000610fe082610fb3565b9050919050565b6000610ff282610fd5565b9050919050565b61100281610fe7565b82525050565b600060208201905061101d6000830184610ff9565b92915050565b600080600080600060a0868803121561103f5761103e610cc2565b5b600061104d88828901610d10565b955050602061105e88828901610d46565b945050604061106f88828901610d46565b935050606061108088828901610d46565b925050608061109188828901610d46565b9150509295509295909350565b600060ff82169050919050565b6110b48161109e565b81146110bf57600080fd5b50565b6000813590506110d1816110ab565b92915050565b600080fd5b6000601f19601f8301169050919050565b7f4e487b7100000000000000000000000000000000000000000000000000000000600052604160045260246000fd5b611125826110dc565b810181811067ffffffffffffffff82111715611144576111436110ed565b5b80604052505050565b6000611157610cb8565b9050611163828261111c565b919050565b60006080828403121561117e5761117d6110d7565b5b611188608061114d565b9050600061119884828501610d46565b60008301525060206111ac84828501610d46565b60208301525060406111c084828501610d46565b60408301525060606111d484828501610d46565b60608301525092915050565b6000806000806000806000610140888a031215611200576111ff610cc2565b5b600061120e8a828b01610d10565b975050602061121f8a828b01610d10565b96505060406112308a828b01610d10565b95505060606112418a828b01610d46565b94505060806112528a828b016110c2565b93505060a06112638a828b01610d46565b92505060c06112748a828b01611168565b91505092959891949750929550565b600080600080600080600080610100898b0312156112a4576112a3610cc2565b5b60006112b28b828c01610d10565b98505060206112c38b828c01610d10565b97505060406112d48b828c01610d10565b96505060606112e58b828c01610d46565b95505060806112f68b828c01610d46565b94505060a06113078b828c01610d46565b93505060c06113188b828c01610d46565b92505060e06113298b828c01610d46565b9150509295985092959890939650565b60008060008060008060c0878903121561135657611355610cc2565b5b600061136489828a01610d10565b965050602061137589828a01610d10565b955050604061138689828a01610d46565b945050606061139789828a01610d46565b93505060806113a889828a01610d46565b92505060a06113b989828a01610d46565b9150509295509295509295565b6000806000806000806000610140888a0312156113e6576113e5610cc2565b5b60006113f48a828b01610d10565b97505060206114058a828b01610d10565b96505060406114168a828b01610d10565b95505060606114278a828b01610d46565b94505060806114388a828b01610d46565b93505060a06114498a828b01610d46565b92505060c061145a8a828b01611168565b91505092959891949750929550565b6000806000806080858703121561148357611482610cc2565b5b600061149187828801610d10565b94505060206114a287828801610d46565b93505060406114b387828801610d46565b92505060606114c487828801610d46565b91505092959194509250565b60008060008060008060c087890312156114ed576114ec610cc2565b5b60006114fb89828a01610d10565b965050602061150c89828a01610d10565b955050604061151d89828a01610d10565b945050606061152e89828a01610d10565b935050608061153f89828a01610d46565b92505060a061155089828a01610d46565b9150509295509295509295565b600080600080600080600080610160898b03121561157e5761157d610cc2565b5b600061158c8b828c01610d10565b985050602061159d8b828c01610d10565b97505060406115ae8b828c01610d10565b96505060606115bf8b828c01610d46565b95505060806115d08b828c016110c2565b94505060a06115e18b828c01610d46565b93505060c06115f28b828c01610d46565b92505060e06116038b828c01611168565b9150509295985092959890939650565b600082825260208201905092915050565b7f434f4e54524f4c4c455200000000000000000000000000000000000000000000600082015250565b600061165a600a83611613565b915061166582611624565b602082019050919050565b600060208201905081810360008301526116898161164d565b9050919050565b61169981610ce7565b82525050565b6116a881610d25565b82525050565b6000610100820190506116c4600083018b611690565b6116d1602083018a611690565b6116de604083018961169f565b6116eb6060830188611690565b6116f8608083018761169f565b61170560a083018661169f565b61171260c083018561169f565b61171f60e083018461169f565b9998505050505050505050565b60006080820190506117416000830187611690565b61174e6020830186611690565b61175b6040830185611690565b611768606083018461169f565b95945050505050565b600060c0820190506117866000830189611690565b6117936020830188611690565b6117a0604083018761169f565b6117ad6060830186611690565b6117ba608083018561169f565b6117c760a083018461169f565b979650505050505050565b60006060820190506117e7600083018661169f565b6117f4602083018561169f565b611801604083018461169f565b949350505050565b600060808201905061181e600083018761169f565b61182b602083018661169f565b611838604083018561169f565b611845606083018461169f565b95945050505050565b6118578161109e565b82525050565b600061012082019050611873600083018c611690565b611880602083018b611690565b61188d604083018a61169f565b61189a606083018961184e565b6118a7608083018861169f565b6118b460a083018761169f565b6118c160c083018661169f565b6118ce60e083018561169f565b6118dc61010083018461169f565b9a9950505050505050505050565b600060e0820190506118ff600083018a611690565b61190c6020830189611690565b611919604083018861169f565b611926606083018761169f565b611933608083018661169f565b61194060a083018561169f565b61194d60c083018461169f565b98975050505050505050565b60006101208201905061196f600083018c611690565b61197c602083018b611690565b611989604083018a61169f565b611996606083018961169f565b6119a3608083018861169f565b6119b060a083018761169f565b6119bd60c083018661169f565b6119ca60e083018561169f565b6119d861010083018461169f565b9a9950505050505050505050565b600060a0820190506119fb6000830188611690565b611a086020830187611690565b611a156040830186611690565b611a22606083018561169f565b611a2f608083018461169f565b9695505050505050565b600061014082019050611a4f600083018d611690565b611a5c602083018c611690565b611a69604083018b61169f565b611a76606083018a61184e565b611a83608083018961169f565b611a9060a083018861169f565b611a9d60c083018761169f565b611aaa60e083018661169f565b611ab861010083018561169f565b611ac661012083018461169f565b9b9a5050505050505050505050565b6000819050919050565b611ae881611ad5565b82525050565b6000604082019050611b036000830185611690565b611b106020830184611adf565b9392505050565b60008115159050919050565b611b2c81611b17565b8114611b3757600080fd5b50565b600081519050611b4981611b23565b92915050565b600060208284031215611b6557611b64610cc2565b5b6000611b7384828501611b3a565b91505092915050565b600081519050919050565b60005b83811015611ba5578082015181840152602081019050611b8a565b60008484015250505050565b6000611bbc82611b7c565b611bc68185611613565b9350611bd6818560208601611b87565b611bdf816110dc565b840191505092915050565b6000604082019050611bff6000830185611690565b8181036020830152611c118184611bb1565b9050939250505056fea2646970667358221220cd93f8f7975c0562c588e751eb1b9ef14aac33b10db6622456f95655c49841bf64736f6c634300081c0033",
  "linkReferences": {},
  "deployedLinkReferences": {}
}