{
  "_format": "hh-sol-artifact-1",
  "contractName": "EventEmitter",
  "sourceName": "contracts/event/EventEmitter.sol",
  "abi": [
    {
      "inputs": [
        {
          "internalType": "contract RoleStore",
          "name": "_roleStore",
          "type": "address"
        }
      ],
      "stateMutability": "nonpayable",
      "type": "constructor"
    },
    {
      "inputs": [
        {
          "internalType": "address",
          "name": "msgSender",
          "type": "address"
        },
        {
          "internalType": "string",
          "name": "role",
          "type": "string"
        }
      ],
      "name": "Unauthorized",
      "type": "error"
    },
    {
      "anonymous": false,
      "inputs": [
        {
          "indexed": true,
          "internalType": "address",
          "name": "adder",
          "type": "address"
        },
        {
          "indexed": false,
          "internalType": "address",
          "name": "baseToken",
          "type": "address"
        },
        {
          "indexed": false,
          "internalType": "address",
          "name": "memeToken",
          "type": "address"
        },
        {
          "indexed": false,
          "internalType": "address",
          "name": "to",
          "type": "address"
        },
        {
          "indexed": false,
          "internalType": "uint256",
          "name": "baseAmount",
          "type": "uint256"
        },
        {
          "indexed": false,
          "internalType": "uint256",
          "name": "memeAmount",
          "type": "uint256"
        }
      ],
      "name": "Add",
      "type": "event"
    },
    {
      "anonymous": false,
      "inputs": [
        {
          "indexed": true,
          "internalType": "address",
          "name": "borrower",
          "type": "address"
        },
        {
          "indexed": false,
          "internalType": "address",
          "name": "baseToken",
          "type": "address"
        },
        {
          "indexed": false,
          "internalType": "address",
          "name": "memeToken",
          "type": "address"
        },
        {
          "indexed": false,
          "internalType": "uint256",
          "name": "positionId",
          "type": "uint256"
        },
        {
          "indexed": false,
          "internalType": "uint8",
          "name": "tokenIndex",
          "type": "uint8"
        },
        {
          "indexed": false,
          "internalType": "uint256",
          "name": "borrowAmount",
          "type": "uint256"
        },
        {
          "indexed": false,
          "internalType": "uint256",
          "name": "borrowRate",
          "type": "uint256"
        },
        {
          "indexed": false,
          "internalType": "uint256",
          "name": "baseCollateral",
          "type": "uint256"
        },
        {
          "indexed": false,
          "internalType": "uint256",
          "name": "baseDebtScaled",
          "type": "uint256"
        },
        {
          "indexed": false,
          "internalType": "uint256",
          "name": "memeCollateral",
          "type": "uint256"
        },
        {
          "indexed": false,
          "internalType": "uint256",
          "name": "memeDebtScaled",
          "type": "uint256"
        }
      ],
      "name": "Borrow",
      "type": "event"
    },
    {
      "anonymous": false,
      "inputs": [
        {
          "indexed": true,
          "internalType": "address",
          "name": "pool",
          "type": "address"
        },
        {
          "indexed": false,
          "internalType": "uint256",
          "name": "scaledUnclaimedFee",
          "type": "uint256"
        },
        {
          "indexed": false,
          "internalType": "uint256",
          "name": "liquidityIndex",
          "type": "uint256"
        },
        {
          "indexed": false,
          "internalType": "uint256",
          "name": "unclaimedFee",
          "type": "uint256"
        }
      ],
      "name": "ClaimFees",
      "type": "event"
    },
    {
      "anonymous": false,
      "inputs": [
        {
          "indexed": true,
          "internalType": "address",
          "name": "account",
          "type": "address"
        },
        {
          "indexed": false,
          "internalType": "uint256",
          "name": "positionId",
          "type": "uint256"
        }
      ],
      "name": "Close",
      "type": "event"
    },
    {
      "anonymous": false,
      "inputs": [
        {
          "indexed": true,
          "internalType": "address",
          "name": "depositor",
          "type": "address"
        },
        {
          "indexed": false,
          "internalType": "address",
          "name": "baseToken",
          "type": "address"
        },
        {
          "indexed": false,
          "internalType": "address",
          "name": "memeToken",
          "type": "address"
        },
        {
          "indexed": false,
          "internalType": "uint256",
          "name": "positionId",
          "type": "uint256"
        },
        {
          "indexed": false,
          "internalType": "uint256",
          "name": "depositAmount",
          "type": "uint256"
        },
        {
          "indexed": false,
          "internalType": "uint256",
          "name": "baseCollateral",
          "type": "uint256"
        },
        {
          "indexed": false,
          "internalType": "uint256",
          "name": "baseDebtScaled",
          "type": "uint256"
        },
        {
          "indexed": false,
          "internalType": "uint256",
          "name": "memeCollateral",
          "type": "uint256"
        },
        {
          "indexed": false,
          "internalType": "uint256",
          "name": "memeDebtScaled",
          "type": "uint256"
        }
      ],
      "name": "Deposit",
      "type": "event"
    },
    {
      "anonymous": false,
      "inputs": [
        {
          "indexed": true,
          "internalType": "address",
          "name": "liquidator",
          "type": "address"
        },
        {
          "indexed": true,
          "internalType": "address",
          "name": "account",
          "type": "address"
        },
        {
          "indexed": false,
          "internalType": "uint256",
          "name": "marginLevel",
          "type": "uint256"
        },
        {
          "indexed": false,
          "internalType": "uint256",
          "name": "marginLevelLiquidationThreshold",
          "type": "uint256"
        },
        {
          "indexed": false,
          "internalType": "uint256",
          "name": "totalCollateralUsd",
          "type": "uint256"
        },
        {
          "indexed": false,
          "internalType": "uint256",
          "name": "totalDebtUsd",
          "type": "uint256"
        },
        {
          "indexed": false,
          "internalType": "uint256",
          "name": "memePrice",
          "type": "uint256"
        }
      ],
      "name": "Liquidation",
      "type": "event"
    },
    {
      "anonymous": false,
      "inputs": [
        {
          "indexed": false,
          "internalType": "address",
          "name": "baseToken",
          "type": "address"
        },
        {
          "indexed": false,
          "internalType": "address",
          "name": "memeToken",
          "type": "address"
        },
        {
          "indexed": false,
          "internalType": "address",
          "name": "source",
          "type": "address"
        },
        {
          "indexed": false,
          "internalType": "uint256",
          "name": "createdTimestamp",
          "type": "uint256"
        },
        {
          "indexed": false,
          "internalType": "uint256",
          "name": "baseDecimals",
          "type": "uint256"
        },
        {
          "indexed": false,
          "internalType": "uint256",
          "name": "memeDecimals",
          "type": "uint256"
        }
      ],
      "name": "PoolCreated",
      "type": "event"
    },
    {
      "anonymous": false,
      "inputs": [
        {
          "indexed": true,
          "internalType": "address",
          "name": "pool",
          "type": "address"
        },
        {
          "indexed": false,
          "internalType": "uint256",
          "name": "liquidityRate",
          "type": "uint256"
        },
        {
          "indexed": false,
          "internalType": "uint256",
          "name": "borrowRate",
          "type": "uint256"
        },
        {
          "indexed": false,
          "internalType": "uint256",
          "name": "liquidityIndex",
          "type": "uint256"
        },
        {
          "indexed": false,
          "internalType": "uint256",
          "name": "borrowIndex",
          "type": "uint256"
        }
      ],
      "name": "PoolUpdated",
      "type": "event"
    },
    {
      "anonymous": false,
      "inputs": [
        {
          "indexed": true,
          "internalType": "address",
          "name": "remover",
          "type": "address"
        },
        {
          "indexed": false,
          "internalType": "address",
          "name": "baseToken",
          "type": "address"
        },
        {
          "indexed": false,
          "internalType": "address",
          "name": "memeToken",
          "type": "address"
        },
        {
          "indexed": false,
          "internalType": "uint256",
          "name": "liquidity",
          "type": "uint256"
        },
        {
          "indexed": false,
          "internalType": "address",
          "name": "to",
          "type": "address"
        },
        {
          "indexed": false,
          "internalType": "uint256",
          "name": "baseAmount",
          "type": "uint256"
        },
        {
          "indexed": false,
          "internalType": "uint256",
          "name": "memeAmount",
          "type": "uint256"
        }
      ],
      "name": "Remove",
      "type": "event"
    },
    {
      "anonymous": false,
      "inputs": [
        {
          "indexed": true,
          "internalType": "address",
          "name": "repayer",
          "type": "address"
        },
        {
          "indexed": false,
          "internalType": "address",
          "name": "baseToken",
          "type": "address"
        },
        {
          "indexed": false,
          "internalType": "address",
          "name": "memeToken",
          "type": "address"
        },
        {
          "indexed": false,
          "internalType": "uint256",
          "name": "positionId",
          "type": "uint256"
        },
        {
          "indexed": false,
          "internalType": "uint8",
          "name": "tokenIndex",
          "type": "uint8"
        },
        {
          "indexed": false,
          "internalType": "uint256",
          "name": "repayAmount",
          "type": "uint256"
        },
        {
          "indexed": false,
          "internalType": "uint256",
          "name": "baseCollateral",
          "type": "uint256"
        },
        {
          "indexed": false,
          "internalType": "uint256",
          "name": "baseDebtScaled",
          "type": "uint256"
        },
        {
          "indexed": false,
          "internalType": "uint256",
          "name": "memeCollateral",
          "type": "uint256"
        },
        {
          "indexed": false,
          "internalType": "uint256",
          "name": "memeDebtScaled",
          "type": "uint256"
        }
      ],
      "name": "Repay",
      "type": "event"
    },
    {
      "anonymous": false,
      "inputs": [
        {
          "indexed": true,
          "internalType": "address",
          "name": "account",
          "type": "address"
        },
        {
          "indexed": false,
          "internalType": "address",
          "name": "tokenIn",
          "type": "address"
        },
        {
          "indexed": false,
          "internalType": "address",
          "name": "tokenOut",
          "type": "address"
        },
        {
          "indexed": false,
          "internalType": "uint256",
          "name": "amountIn",
          "type": "uint256"
        },
        {
          "indexed": false,
          "internalType": "uint256",
          "name": "amountOut",
          "type": "uint256"
        },
        {
          "indexed": false,
          "internalType": "uint256",
          "name": "fee",
          "type": "uint256"
        },
        {
          "indexed": false,
          "internalType": "uint256",
          "name": "baseCollateral",
          "type": "uint256"
        },
        {
          "indexed": false,
          "internalType": "uint256",
          "name": "baseDebtScaled",
          "type": "uint256"
        },
        {
          "indexed": false,
          "internalType": "uint256",
          "name": "memeCollateral",
          "type": "uint256"
        },
        {
          "indexed": false,
          "internalType": "uint256",
          "name": "memeDebtScaled",
          "type": "uint256"
        }
      ],
      "name": "Swap",
      "type": "event"
    },
    {
      "anonymous": false,
      "inputs": [
        {
          "indexed": true,
          "internalType": "address",
          "name": "withdrawer",
          "type": "address"
        },
        {
          "indexed": false,
          "internalType": "address",
          "name": "baseToken",
          "type": "address"
        },
        {
          "indexed": false,
          "internalType": "address",
          "name": "memeToken",
          "type": "address"
        },
        {
          "indexed": false,
          "internalType": "uint256",
          "name": "withdrawAmount",
          "type": "uint256"
        },
        {
          "indexed": false,
          "internalType": "address",
          "name": "to",
          "type": "address"
        },
        {
          "indexed": false,
          "internalType": "uint256",
          "name": "baseCollateral",
          "type": "uint256"
        },
        {
          "indexed": false,
          "internalType": "uint256",
          "name": "baseDebtScaled",
          "type": "uint256"
        },
        {
          "indexed": false,
          "internalType": "uint256",
          "name": "memeCollateral",
          "type": "uint256"
        },
        {
          "indexed": false,
          "internalType": "uint256",
          "name": "memeDebtScaled",
          "type": "uint256"
        }
      ],
      "name": "Withdraw",
      "type": "event"
    },
    {
      "inputs": [
        {
          "internalType": "address",
          "name": "supplier",
          "type": "address"
        },
        {
          "internalType": "address",
          "name": "baseToken",
          "type": "address"
        },
        {
          "internalType": "address",
          "name": "memeToken",
          "type": "address"
        },
        {
          "internalType": "address",
          "name": "to",
          "type": "address"
        },
        {
          "internalType": "uint256",
          "name": "baseAmount",
          "type": "uint256"
        },
        {
          "internalType": "uint256",
          "name": "memeAmount",
          "type": "uint256"
        }
      ],
      "name": "emitAdd",
      "outputs": [],
      "stateMutability": "nonpayable",
      "type": "function"
    },
    {
      "inputs": [
        {
          "internalType": "address",
          "name": "borrower",
          "type": "address"
        },
        {
          "internalType": "address",
          "name": "baseToken",
          "type": "address"
        },
        {
          "internalType": "address",
          "name": "memeToken",
          "type": "address"
        },
        {
          "internalType": "uint256",
          "name": "positionId",
          "type": "uint256"
        },
        {
          "internalType": "uint8",
          "name": "tokenIndex",
          "type": "uint8"
        },
        {
          "internalType": "uint256",
          "name": "borrowAmount",
          "type": "uint256"
        },
        {
          "internalType": "uint256",
          "name": "borrowRate",
          "type": "uint256"
        },
        {
          "components": [
            {
              "internalType": "uint256",
              "name": "baseCollateral",
              "type": "uint256"
            },
            {
              "internalType": "uint256",
              "name": "baseDebtScaled",
              "type": "uint256"
            },
            {
              "internalType": "uint256",
              "name": "memeCollateral",
              "type": "uint256"
            },
            {
              "internalType": "uint256",
              "name": "memeDebtScaled",
              "type": "uint256"
            }
          ],
          "internalType": "struct Event.Liquidation",
          "name": "liquidation",
          "type": "tuple"
        }
      ],
      "name": "emitBorrow",
      "outputs": [],
      "stateMutability": "nonpayable",
      "type": "function"
    },
    {
      "inputs": [
        {
          "internalType": "address",
          "name": "underlyingAsset",
          "type": "address"
        },
        {
          "internalType": "uint256",
          "name": "scaledUnclaimedFee",
          "type": "uint256"
        },
        {
          "internalType": "uint256",
          "name": "liquidityIndex",
          "type": "uint256"
        },
        {
          "internalType": "uint256",
          "name": "unclaimedFee",
          "type": "uint256"
        }
      ],
      "name": "emitClaimFees",
      "outputs": [],
      "stateMutability": "nonpayable",
      "type": "function"
    },
    {
      "inputs": [
        {
          "internalType": "address",
          "name": "account",
          "type": "address"
        },
        {
          "internalType": "uint256",
          "name": "positionId",
          "type": "uint256"
        }
      ],
      "name": "emitClose",
      "outputs": [],
      "stateMutability": "nonpayable",
      "type": "function"
    },
    {
      "inputs": [
        {
          "internalType": "address",
          "name": "depositor",
          "type": "address"
        },
        {
          "internalType": "address",
          "name": "baseToken",
          "type": "address"
        },
        {
          "internalType": "address",
          "name": "memeToken",
          "type": "address"
        },
        {
          "internalType": "uint256",
          "name": "positionId",
          "type": "uint256"
        },
        {
          "internalType": "uint256",
          "name": "depositAmount",
          "type": "uint256"
        },
        {
          "internalType": "uint256",
          "name": "baseCollateral",
          "type": "uint256"
        },
        {
          "internalType": "uint256",
          "name": "baseDebtScaled",
          "type": "uint256"
        },
        {
          "internalType": "uint256",
          "name": "memeCollateral",
          "type": "uint256"
        },
        {
          "internalType": "uint256",
          "name": "memeDebtScaled",
          "type": "uint256"
        }
      ],
      "name": "emitDeposit",
      "outputs": [],
      "stateMutability": "nonpayable",
      "type": "function"
    },
    {
      "inputs": [
        {
          "internalType": "address",
          "name": "liquidator",
          "type": "address"
        },
        {
          "internalType": "address",
          "name": "account",
          "type": "address"
        },
        {
          "internalType": "uint256",
          "name": "marginLevel",
          "type": "uint256"
        },
        {
          "internalType": "uint256",
          "name": "marginLevelLiquidationThreshold",
          "type": "uint256"
        },
        {
          "internalType": "uint256",
          "name": "totalCollateralUsd",
          "type": "uint256"
        },
        {
          "internalType": "uint256",
          "name": "totalDebtUsd",
          "type": "uint256"
        },
        {
          "internalType": "uint256",
          "name": "memePrice",
          "type": "uint256"
        }
      ],
      "name": "emitLiquidation",
      "outputs": [],
      "stateMutability": "nonpayable",
      "type": "function"
    },
    {
      "inputs": [
        {
          "internalType": "address",
          "name": "baseToken",
          "type": "address"
        },
        {
          "internalType": "address",
          "name": "memeToken",
          "type": "address"
        },
        {
          "internalType": "address",
          "name": "source",
          "type": "address"
        },
        {
          "internalType": "uint256",
          "name": "createdTimestamp",
          "type": "uint256"
        },
        {
          "internalType": "uint256",
          "name": "baseDecimals",
          "type": "uint256"
        },
        {
          "internalType": "uint256",
          "name": "memeDecimals",
          "type": "uint256"
        }
      ],
      "name": "emitPoolCreated",
      "outputs": [],
      "stateMutability": "nonpayable",
      "type": "function"
    },
    {
      "inputs": [
        {
          "internalType": "address",
          "name": "underlyingAsset",
          "type": "address"
        },
        {
          "internalType": "uint256",
          "name": "liquidityRate",
          "type": "uint256"
        },
        {
          "internalType": "uint256",
          "name": "borrowRate",
          "type": "uint256"
        },
        {
          "internalType": "uint256",
          "name": "liquidityIndex",
          "type": "uint256"
        },
        {
          "internalType": "uint256",
          "name": "borrowIndex",
          "type": "uint256"
        }
      ],
      "name": "emitPoolUpdated",
      "outputs": [],
      "stateMutability": "nonpayable",
      "type": "function"
    },
    {
      "inputs": [
        {
          "internalType": "address",
          "name": "remover",
          "type": "address"
        },
        {
          "internalType": "address",
          "name": "baseToken",
          "type": "address"
        },
        {
          "internalType": "address",
          "name": "memeToken",
          "type": "address"
        },
        {
          "internalType": "uint256",
          "name": "liquidity",
          "type": "uint256"
        },
        {
          "internalType": "address",
          "name": "to",
          "type": "address"
        },
        {
          "internalType": "uint256",
          "name": "baseAmount",
          "type": "uint256"
        },
        {
          "internalType": "uint256",
          "name": "memeAmount",
          "type": "uint256"
        }
      ],
      "name": "emitRemove",
      "outputs": [],
      "stateMutability": "nonpayable",
      "type": "function"
    },
    {
      "inputs": [
        {
          "internalType": "address",
          "name": "repayer",
          "type": "address"
        },
        {
          "internalType": "address",
          "name": "baseToken",
          "type": "address"
        },
        {
          "internalType": "address",
          "name": "memeToken",
          "type": "address"
        },
        {
          "internalType": "uint256",
          "name": "positionId",
          "type": "uint256"
        },
        {
          "internalType": "uint8",
          "name": "tokenIndex",
          "type": "uint8"
        },
        {
          "internalType": "uint256",
          "name": "repayAmount",
          "type": "uint256"
        },
        {
          "components": [
            {
              "internalType": "uint256",
              "name": "baseCollateral",
              "type": "uint256"
            },
            {
              "internalType": "uint256",
              "name": "baseDebtScaled",
              "type": "uint256"
            },
            {
              "internalType": "uint256",
              "name": "memeCollateral",
              "type": "uint256"
            },
            {
              "internalType": "uint256",
              "name": "memeDebtScaled",
              "type": "uint256"
            }
          ],
          "internalType": "struct Event.Liquidation",
          "name": "liquidation",
          "type": "tuple"
        }
      ],
      "name": "emitRepay",
      "outputs": [],
      "stateMutability": "nonpayable",
      "type": "function"
    },
    {
      "inputs": [
        {
          "internalType": "address",
          "name": "account",
          "type": "address"
        },
        {
          "internalType": "address",
          "name": "tokenIn",
          "type": "address"
        },
        {
          "internalType": "address",
          "name": "tokenOut",
          "type": "address"
        },
        {
          "internalType": "uint256",
          "name": "amountIn",
          "type": "uint256"
        },
        {
          "internalType": "uint256",
          "name": "amountOut",
          "type": "uint256"
        },
        {
          "internalType": "uint256",
          "name": "fee",
          "type": "uint256"
        },
        {
          "components": [
            {
              "internalType": "uint256",
              "name": "baseCollateral",
              "type": "uint256"
            },
            {
              "internalType": "uint256",
              "name": "baseDebtScaled",
              "type": "uint256"
            },
            {
              "internalType": "uint256",
              "name": "memeCollateral",
              "type": "uint256"
            },
            {
              "internalType": "uint256",
              "name": "memeDebtScaled",
              "type": "uint256"
            }
          ],
          "internalType": "struct Event.Liquidation",
          "name": "liquidation",
          "type": "tuple"
        }
      ],
      "name": "emitSwap",
      "outputs": [],
      "stateMutability": "nonpayable",
      "type": "function"
    },
    {
      "inputs": [
        {
          "internalType": "address",
          "name": "withdrawer",
          "type": "address"
        },
        {
          "internalType": "address",
          "name": "baseToken",
          "type": "address"
        },
        {
          "internalType": "address",
          "name": "memeToken",
          "type": "address"
        },
        {
          "internalType": "uint256",
          "name": "withdrawAmount",
          "type": "uint256"
        },
        {
          "internalType": "address",
          "name": "to",
          "type": "address"
        },
        {
          "internalType": "uint256",
          "name": "baseCollateral",
          "type": "uint256"
        },
        {
          "internalType": "uint256",
          "name": "baseDebtScaled",
          "type": "uint256"
        },
        {
          "internalType": "uint256",
          "name": "memeCollateral",
          "type": "uint256"
        },
        {
          "internalType": "uint256",
          "name": "memeDebtScaled",
          "type": "uint256"
        }
      ],
      "name": "emitWithdraw",
      "outputs": [],
      "stateMutability": "nonpayable",
      "type": "function"
    },
    {
      "inputs": [],
      "name": "roleStore",
      "outputs": [
        {
          "internalType": "contract RoleStore",
          "name": "",
          "type": "address"
        }
      ],
      "stateMutability": "view",
      "type": "function"
    }
  ],
  "bytecode": "0x60a060405234801561001057600080fd5b50604051611e1d380380611e1d833981810160405281019061003291906100e3565b808073ffffffffffffffffffffffffffffffffffffffff1660808173ffffffffffffffffffffffffffffffffffffffff16815250505050610110565b600080fd5b600073ffffffffffffffffffffffffffffffffffffffff82169050919050565b600061009e82610073565b9050919050565b60006100b082610093565b9050919050565b6100c0816100a5565b81146100cb57600080fd5b50565b6000815190506100dd816100b7565b92915050565b6000602082840312156100f9576100f861006e565b5b6000610107848285016100ce565b91505092915050565b608051611ceb6101326000396000818161049c0152610bc50152611ceb6000f3fe608060405234801561001057600080fd5b50600436106100cf5760003560e01c80637c24dab71161008c57806399dc05981161006657806399dc0598146101d25780639c845792146101ee5780639ed486eb1461020a578063ea34a57714610226576100cf565b80637c24dab71461017e5780638262009e1461019a57806396de247f146101b6576100cf565b8063119c6c83146100d457806315f762d5146100f0578063292ae7221461010c5780634a4a7b041461012857806355ac84ba146101465780635a7a377614610162575b600080fd5b6100ee60048036038101906100e99190610d49565b610242565b005b61010a60048036038101906101059190610e13565b61030c565b005b61012660048036038101906101219190610edd565b6103d6565b005b61013061049a565b60405161013d9190610fde565b60405180910390f35b610160600480360381019061015b9190610ff9565b6104be565b005b61017c60048036038101906101779190611086565b61056a565b005b610198600480360381019061019391906110c6565b61061f565b005b6101b460048036038101906101af9190611283565b6106dd565b005b6101d060048036038101906101cb9190611326565b6107b7565b005b6101ec60048036038101906101e791906113c9565b610891565b005b6102086004803603810190610203919061146b565b61096a565b005b610224600480360381019061021f91906114d2565b610a25565b005b610240600480360381019061023b919061155f565b610ae6565b005b6102a560405160200161025490611672565b604051602081830303815290604052805190602001206040518060400160405280600a81526020017f434f4e54524f4c4c455200000000000000000000000000000000000000000000815250610bc3565b8873ffffffffffffffffffffffffffffffffffffffff167f8a28c8f95aa6ea7a5133fc0d3b124f64fecc7c3c53414fca4db4c02cc53e2ad689898989898989896040516102f99897969594939291906116b0565b60405180910390a2505050505050505050565b61036f60405160200161031e90611672565b604051602081830303815290604052805190602001206040518060400160405280600a81526020017f434f4e54524f4c4c455200000000000000000000000000000000000000000000815250610bc3565b8873ffffffffffffffffffffffffffffffffffffffff167fb50b96cf5652f7259ba33891436a3874ecce39e522a18fb973cb021949f573df89898989898989896040516103c398979695949392919061172e565b60405180910390a2505050505050505050565b6104396040516020016103e890611672565b604051602081830303815290604052805190602001206040518060400160405280600a81526020017f434f4e54524f4c4c455200000000000000000000000000000000000000000000815250610bc3565b8673ffffffffffffffffffffffffffffffffffffffff167fe10a339dd5329df14a8ec13eb4115b75ab032fd40e2ff2594a4a5bf80e497a41878787878787604051610489969594939291906117ac565b60405180910390a250505050505050565b7f000000000000000000000000000000000000000000000000000000000000000081565b6105216040516020016104d090611672565b604051602081830303815290604052805190602001206040518060400160405280600a81526020017f434f4e54524f4c4c455200000000000000000000000000000000000000000000815250610bc3565b7fa8c38247fd3f092e3bc806fb7dff597b939f4ec6ffad1514a35eb2776e2a61b886868686868660405161055a9695949392919061180d565b60405180910390a1505050505050565b6105cd60405160200161057c90611672565b604051602081830303815290604052805190602001206040518060400160405280600a81526020017f434f4e54524f4c4c455200000000000000000000000000000000000000000000815250610bc3565b8173ffffffffffffffffffffffffffffffffffffffff167f684222b0069d4a2e5e0d986611cc5182d543904c4e4264bf770d4e51faefc82282604051610613919061186e565b60405180910390a25050565b61068260405160200161063190611672565b604051602081830303815290604052805190602001206040518060400160405280600a81526020017f434f4e54524f4c4c455200000000000000000000000000000000000000000000815250610bc3565b8473ffffffffffffffffffffffffffffffffffffffff167fc320a8529b15b851aaa68519919ac344e1caceaf4f47d15df6e58181dfec6319858585856040516106ce9493929190611889565b60405180910390a25050505050565b6107406040516020016106ef90611672565b604051602081830303815290604052805190602001206040518060400160405280600a81526020017f434f4e54524f4c4c455200000000000000000000000000000000000000000000815250610bc3565b8673ffffffffffffffffffffffffffffffffffffffff167f4fc3cf57f1c587a9f0808812dd72668a2b82f54411b0737d06c4043ff044cf9a87878787878760000151886020015189604001518a606001516040516107a6999897969594939291906118dd565b60405180910390a250505050505050565b61081a6040516020016107c990611672565b604051602081830303815290604052805190602001206040518060400160405280600a81526020017f434f4e54524f4c4c455200000000000000000000000000000000000000000000815250610bc3565b8673ffffffffffffffffffffffffffffffffffffffff167f533855cb8a87f0995f6c3390665eb37da822f5550b13a973a77906d018a2a89c87878787878760000151886020015189604001518a606001516040516108809998979695949392919061196a565b60405180910390a250505050505050565b6108f46040516020016108a390611672565b604051602081830303815290604052805190602001206040518060400160405280600a81526020017f434f4e54524f4c4c455200000000000000000000000000000000000000000000815250610bc3565b8573ffffffffffffffffffffffffffffffffffffffff168773ffffffffffffffffffffffffffffffffffffffff167f13413ce5f6fc6a1fb97fc5c545b77512d28ddf20e56d34bebd6e1098f07bb69587878787876040516109599594939291906119f7565b60405180910390a350505050505050565b6109cd60405160200161097c90611672565b604051602081830303815290604052805190602001206040518060400160405280600a81526020017f434f4e54524f4c4c455200000000000000000000000000000000000000000000815250610bc3565b8373ffffffffffffffffffffffffffffffffffffffff167fd2e6085315c6e1c1c7406a47c7d006a8c1f931396d868c16046dea71365ff031848484604051610a1793929190611a4a565b60405180910390a250505050565b610a88604051602001610a3790611672565b604051602081830303815290604052805190602001206040518060400160405280600a81526020017f434f4e54524f4c4c455200000000000000000000000000000000000000000000815250610bc3565b8573ffffffffffffffffffffffffffffffffffffffff167fcbdb4dd8f84983be7c158013b8d74dacf114333078949f99dfb5b66e6621964a8686868686604051610ad6959493929190611a81565b60405180910390a2505050505050565b610b49604051602001610af890611672565b604051602081830303815290604052805190602001206040518060400160405280600a81526020017f434f4e54524f4c4c455200000000000000000000000000000000000000000000815250610bc3565b8773ffffffffffffffffffffffffffffffffffffffff167f2ef1e8737d096826c9abef1201bb205ea380555780a54bd904cf67ca7dba8c5f888888888888886000015189602001518a604001518b60600151604051610bb19a99989796959493929190611ad4565b60405180910390a25050505050505050565b7f000000000000000000000000000000000000000000000000000000000000000073ffffffffffffffffffffffffffffffffffffffff1663ac4ab3fb33846040518363ffffffff1660e01b8152600401610c1e929190611b89565b602060405180830381865afa158015610c3b573d6000803e3d6000fd5b505050506040513d601f19601f82011682018060405250810190610c5f9190611bea565b610ca25733816040517fa35b150b000000000000000000000000000000000000000000000000000000008152600401610c99929190611c85565b60405180910390fd5b5050565b6000604051905090565b600080fd5b600073ffffffffffffffffffffffffffffffffffffffff82169050919050565b6000610ce082610cb5565b9050919050565b610cf081610cd5565b8114610cfb57600080fd5b50565b600081359050610d0d81610ce7565b92915050565b6000819050919050565b610d2681610d13565b8114610d3157600080fd5b50565b600081359050610d4381610d1d565b92915050565b60008060008060008060008060006101208a8c031215610d6c57610d6b610cb0565b5b6000610d7a8c828d01610cfe565b9950506020610d8b8c828d01610cfe565b9850506040610d9c8c828d01610cfe565b9750506060610dad8c828d01610d34565b9650506080610dbe8c828d01610d34565b95505060a0610dcf8c828d01610d34565b94505060c0610de08c828d01610d34565b93505060e0610df18c828d01610d34565b925050610100610e038c828d01610d34565b9150509295985092959850929598565b60008060008060008060008060006101208a8c031215610e3657610e35610cb0565b5b6000610e448c828d01610cfe565b9950506020610e558c828d01610cfe565b9850506040610e668c828d01610cfe565b9750506060610e778c828d01610d34565b9650506080610e888c828d01610cfe565b95505060a0610e998c828d01610d34565b94505060c0610eaa8c828d01610d34565b93505060e0610ebb8c828d01610d34565b925050610100610ecd8c828d01610d34565b9150509295985092959850929598565b600080600080600080600060e0888a031215610efc57610efb610cb0565b5b6000610f0a8a828b01610cfe565b9750506020610f1b8a828b01610cfe565b9650506040610f2c8a828b01610cfe565b9550506060610f3d8a828b01610d34565b9450506080610f4e8a828b01610cfe565b93505060a0610f5f8a828b01610d34565b92505060c0610f708a828b01610d34565b91505092959891949750929550565b6000819050919050565b6000610fa4610f9f610f9a84610cb5565b610f7f565b610cb5565b9050919050565b6000610fb682610f89565b9050919050565b6000610fc882610fab565b9050919050565b610fd881610fbd565b82525050565b6000602082019050610ff36000830184610fcf565b92915050565b60008060008060008060c0878903121561101657611015610cb0565b5b600061102489828a01610cfe565b965050602061103589828a01610cfe565b955050604061104689828a01610cfe565b945050606061105789828a01610d34565b935050608061106889828a01610d34565b92505060a061107989828a01610d34565b9150509295509295509295565b6000806040838503121561109d5761109c610cb0565b5b60006110ab85828601610cfe565b92505060206110bc85828601610d34565b9150509250929050565b600080600080600060a086880312156110e2576110e1610cb0565b5b60006110f088828901610cfe565b955050602061110188828901610d34565b945050604061111288828901610d34565b935050606061112388828901610d34565b925050608061113488828901610d34565b9150509295509295909350565b600060ff82169050919050565b61115781611141565b811461116257600080fd5b50565b6000813590506111748161114e565b92915050565b600080fd5b6000601f19601f8301169050919050565b7f4e487b7100000000000000000000000000000000000000000000000000000000600052604160045260246000fd5b6111c88261117f565b810181811067ffffffffffffffff821117156111e7576111e6611190565b5b80604052505050565b60006111fa610ca6565b905061120682826111bf565b919050565b6000608082840312156112215761122061117a565b5b61122b60806111f0565b9050600061123b84828501610d34565b600083015250602061124f84828501610d34565b602083015250604061126384828501610d34565b604083015250606061127784828501610d34565b60608301525092915050565b6000806000806000806000610140888a0312156112a3576112a2610cb0565b5b60006112b18a828b01610cfe565b97505060206112c28a828b01610cfe565b96505060406112d38a828b01610cfe565b95505060606112e48a828b01610d34565b94505060806112f58a828b01611165565b93505060a06113068a828b01610d34565b92505060c06113178a828b0161120b565b91505092959891949750929550565b6000806000806000806000610140888a03121561134657611345610cb0565b5b60006113548a828b01610cfe565b97505060206113658a828b01610cfe565b96505060406113768a828b01610cfe565b95505060606113878a828b01610d34565b94505060806113988a828b01610d34565b93505060a06113a98a828b01610d34565b92505060c06113ba8a828b0161120b565b91505092959891949750929550565b600080600080600080600060e0888a0312156113e8576113e7610cb0565b5b60006113f68a828b01610cfe565b97505060206114078a828b01610cfe565b96505060406114188a828b01610d34565b95505060606114298a828b01610d34565b945050608061143a8a828b01610d34565b93505060a061144b8a828b01610d34565b92505060c061145c8a828b01610d34565b91505092959891949750929550565b6000806000806080858703121561148557611484610cb0565b5b600061149387828801610cfe565b94505060206114a487828801610d34565b93505060406114b587828801610d34565b92505060606114c687828801610d34565b91505092959194509250565b60008060008060008060c087890312156114ef576114ee610cb0565b5b60006114fd89828a01610cfe565b965050602061150e89828a01610cfe565b955050604061151f89828a01610cfe565b945050606061153089828a01610cfe565b935050608061154189828a01610d34565b92505060a061155289828a01610d34565b9150509295509295509295565b600080600080600080600080610160898b0312156115805761157f610cb0565b5b600061158e8b828c01610cfe565b985050602061159f8b828c01610cfe565b97505060406115b08b828c01610cfe565b96505060606115c18b828c01610d34565b95505060806115d28b828c01611165565b94505060a06115e38b828c01610d34565b93505060c06115f48b828c01610d34565b92505060e06116058b828c0161120b565b9150509295985092959890939650565b600082825260208201905092915050565b7f434f4e54524f4c4c455200000000000000000000000000000000000000000000600082015250565b600061165c600a83611615565b915061166782611626565b602082019050919050565b6000602082019050818103600083015261168b8161164f565b9050919050565b61169b81610cd5565b82525050565b6116aa81610d13565b82525050565b6000610100820190506116c6600083018b611692565b6116d3602083018a611692565b6116e060408301896116a1565b6116ed60608301886116a1565b6116fa60808301876116a1565b61170760a08301866116a1565b61171460c08301856116a1565b61172160e08301846116a1565b9998505050505050505050565b600061010082019050611744600083018b611692565b611751602083018a611692565b61175e60408301896116a1565b61176b6060830188611692565b61177860808301876116a1565b61178560a08301866116a1565b61179260c08301856116a1565b61179f60e08301846116a1565b9998505050505050505050565b600060c0820190506117c16000830189611692565b6117ce6020830188611692565b6117db60408301876116a1565b6117e86060830186611692565b6117f560808301856116a1565b61180260a08301846116a1565b979650505050505050565b600060c0820190506118226000830189611692565b61182f6020830188611692565b61183c6040830187611692565b61184960608301866116a1565b61185660808301856116a1565b61186360a08301846116a1565b979650505050505050565b600060208201905061188360008301846116a1565b92915050565b600060808201905061189e60008301876116a1565b6118ab60208301866116a1565b6118b860408301856116a1565b6118c560608301846116a1565b95945050505050565b6118d781611141565b82525050565b6000610120820190506118f3600083018c611692565b611900602083018b611692565b61190d604083018a6116a1565b61191a60608301896118ce565b61192760808301886116a1565b61193460a08301876116a1565b61194160c08301866116a1565b61194e60e08301856116a1565b61195c6101008301846116a1565b9a9950505050505050505050565b600061012082019050611980600083018c611692565b61198d602083018b611692565b61199a604083018a6116a1565b6119a760608301896116a1565b6119b460808301886116a1565b6119c160a08301876116a1565b6119ce60c08301866116a1565b6119db60e08301856116a1565b6119e96101008301846116a1565b9a9950505050505050505050565b600060a082019050611a0c60008301886116a1565b611a1960208301876116a1565b611a2660408301866116a1565b611a3360608301856116a1565b611a4060808301846116a1565b9695505050505050565b6000606082019050611a5f60008301866116a1565b611a6c60208301856116a1565b611a7960408301846116a1565b949350505050565b600060a082019050611a966000830188611692565b611aa36020830187611692565b611ab06040830186611692565b611abd60608301856116a1565b611aca60808301846116a1565b9695505050505050565b600061014082019050611aea600083018d611692565b611af7602083018c611692565b611b04604083018b6116a1565b611b11606083018a6118ce565b611b1e60808301896116a1565b611b2b60a08301886116a1565b611b3860c08301876116a1565b611b4560e08301866116a1565b611b536101008301856116a1565b611b616101208301846116a1565b9b9a5050505050505050505050565b6000819050919050565b611b8381611b70565b82525050565b6000604082019050611b9e6000830185611692565b611bab6020830184611b7a565b9392505050565b60008115159050919050565b611bc781611bb2565b8114611bd257600080fd5b50565b600081519050611be481611bbe565b92915050565b600060208284031215611c0057611bff610cb0565b5b6000611c0e84828501611bd5565b91505092915050565b600081519050919050565b60005b83811015611c40578082015181840152602081019050611c25565b60008484015250505050565b6000611c5782611c17565b611c618185611615565b9350611c71818560208601611c22565b611c7a8161117f565b840191505092915050565b6000604082019050611c9a6000830185611692565b8181036020830152611cac8184611c4c565b9050939250505056fea2646970667358221220b78455836456f7bfddfdef0006d8311124534f207b56750c91c52f27064fc34f64736f6c634300081c0033",
  "linkReferences": {},
  "deployedLinkReferences": {}
}