{
  "_format": "hh-sol-artifact-1",
  "contractName": "EventEmitter",
  "sourceName": "contracts/event/EventEmitter.sol",
  "abi": [
    {
      "inputs": [
        {
          "internalType": "contract RoleStore",
          "name": "_roleStore",
          "type": "address"
        }
      ],
      "stateMutability": "nonpayable",
      "type": "constructor"
    },
    {
      "inputs": [
        {
          "internalType": "address",
          "name": "msgSender",
          "type": "address"
        },
        {
          "internalType": "string",
          "name": "role",
          "type": "string"
        }
      ],
      "name": "Unauthorized",
      "type": "error"
    },
    {
      "anonymous": false,
      "inputs": [
        {
          "indexed": true,
          "internalType": "address",
          "name": "adder",
          "type": "address"
        },
        {
          "indexed": false,
          "internalType": "address",
          "name": "baseToken",
          "type": "address"
        },
        {
          "indexed": false,
          "internalType": "address",
          "name": "memeToken",
          "type": "address"
        },
        {
          "indexed": false,
          "internalType": "address",
          "name": "to",
          "type": "address"
        },
        {
          "indexed": false,
          "internalType": "uint256",
          "name": "baseAmount",
          "type": "uint256"
        },
        {
          "indexed": false,
          "internalType": "uint256",
          "name": "memeAmount",
          "type": "uint256"
        }
      ],
      "name": "Add",
      "type": "event"
    },
    {
      "anonymous": false,
      "inputs": [
        {
          "indexed": true,
          "internalType": "address",
          "name": "borrower",
          "type": "address"
        },
        {
          "indexed": false,
          "internalType": "address",
          "name": "baseToken",
          "type": "address"
        },
        {
          "indexed": false,
          "internalType": "address",
          "name": "memeToken",
          "type": "address"
        },
        {
          "indexed": false,
          "internalType": "uint256",
          "name": "positionId",
          "type": "uint256"
        },
        {
          "indexed": false,
          "internalType": "uint8",
          "name": "tokenIndex",
          "type": "uint8"
        },
        {
          "indexed": false,
          "internalType": "uint256",
          "name": "borrowAmount",
          "type": "uint256"
        },
        {
          "indexed": false,
          "internalType": "uint256",
          "name": "borrowRate",
          "type": "uint256"
        },
        {
          "indexed": false,
          "internalType": "uint256",
          "name": "baseCollateral",
          "type": "uint256"
        },
        {
          "indexed": false,
          "internalType": "uint256",
          "name": "baseDebtScaled",
          "type": "uint256"
        },
        {
          "indexed": false,
          "internalType": "uint256",
          "name": "memeCollateral",
          "type": "uint256"
        },
        {
          "indexed": false,
          "internalType": "uint256",
          "name": "memeDebtScaled",
          "type": "uint256"
        }
      ],
      "name": "Borrow",
      "type": "event"
    },
    {
      "anonymous": false,
      "inputs": [
        {
          "indexed": true,
          "internalType": "address",
          "name": "pool",
          "type": "address"
        },
        {
          "indexed": false,
          "internalType": "uint256",
          "name": "scaledUnclaimedFee",
          "type": "uint256"
        },
        {
          "indexed": false,
          "internalType": "uint256",
          "name": "liquidityIndex",
          "type": "uint256"
        },
        {
          "indexed": false,
          "internalType": "uint256",
          "name": "unclaimedFee",
          "type": "uint256"
        }
      ],
      "name": "ClaimFees",
      "type": "event"
    },
    {
      "anonymous": false,
      "inputs": [
        {
          "indexed": true,
          "internalType": "address",
          "name": "poolUsd",
          "type": "address"
        },
        {
          "indexed": true,
          "internalType": "address",
          "name": "account",
          "type": "address"
        },
        {
          "indexed": false,
          "internalType": "uint256",
          "name": "amountUsdStartClose",
          "type": "uint256"
        },
        {
          "indexed": false,
          "internalType": "uint256",
          "name": "amountUsdAfterRepayAndSellCollateral",
          "type": "uint256"
        },
        {
          "indexed": false,
          "internalType": "uint256",
          "name": "amountUsdAfterBuyCollateralAndRepay",
          "type": "uint256"
        }
      ],
      "name": "Close",
      "type": "event"
    },
    {
      "anonymous": false,
      "inputs": [
        {
          "indexed": true,
          "internalType": "address",
          "name": "depositor",
          "type": "address"
        },
        {
          "indexed": false,
          "internalType": "address",
          "name": "baseToken",
          "type": "address"
        },
        {
          "indexed": false,
          "internalType": "address",
          "name": "memeToken",
          "type": "address"
        },
        {
          "indexed": false,
          "internalType": "uint256",
          "name": "depositAmount",
          "type": "uint256"
        },
        {
          "indexed": false,
          "internalType": "uint256",
          "name": "baseCollateral",
          "type": "uint256"
        },
        {
          "indexed": false,
          "internalType": "uint256",
          "name": "baseDebtScaled",
          "type": "uint256"
        },
        {
          "indexed": false,
          "internalType": "uint256",
          "name": "memeCollateral",
          "type": "uint256"
        },
        {
          "indexed": false,
          "internalType": "uint256",
          "name": "memeDebtScaled",
          "type": "uint256"
        }
      ],
      "name": "Deposit",
      "type": "event"
    },
    {
      "anonymous": false,
      "inputs": [
        {
          "indexed": true,
          "internalType": "address",
          "name": "liquidator",
          "type": "address"
        },
        {
          "indexed": true,
          "internalType": "address",
          "name": "account",
          "type": "address"
        },
        {
          "indexed": false,
          "internalType": "uint256",
          "name": "marginLevel",
          "type": "uint256"
        },
        {
          "indexed": false,
          "internalType": "uint256",
          "name": "marginLevelLiquidationThreshold",
          "type": "uint256"
        },
        {
          "indexed": false,
          "internalType": "uint256",
          "name": "totalCollateralUsd",
          "type": "uint256"
        },
        {
          "indexed": false,
          "internalType": "uint256",
          "name": "totalDebtUsd",
          "type": "uint256"
        }
      ],
      "name": "Liquidation",
      "type": "event"
    },
    {
      "anonymous": false,
      "inputs": [
        {
          "indexed": false,
          "internalType": "address",
          "name": "baseToken",
          "type": "address"
        },
        {
          "indexed": false,
          "internalType": "address",
          "name": "memeToken",
          "type": "address"
        },
        {
          "indexed": false,
          "internalType": "address",
          "name": "source",
          "type": "address"
        },
        {
          "indexed": false,
          "internalType": "uint256",
          "name": "createdTimestamp",
          "type": "uint256"
        },
        {
          "indexed": false,
          "internalType": "uint256",
          "name": "baseDecimals",
          "type": "uint256"
        },
        {
          "indexed": false,
          "internalType": "uint256",
          "name": "memeDecimals",
          "type": "uint256"
        }
      ],
      "name": "PoolCreated",
      "type": "event"
    },
    {
      "anonymous": false,
      "inputs": [
        {
          "indexed": true,
          "internalType": "address",
          "name": "pool",
          "type": "address"
        },
        {
          "indexed": false,
          "internalType": "uint256",
          "name": "liquidityRate",
          "type": "uint256"
        },
        {
          "indexed": false,
          "internalType": "uint256",
          "name": "borrowRate",
          "type": "uint256"
        },
        {
          "indexed": false,
          "internalType": "uint256",
          "name": "liquidityIndex",
          "type": "uint256"
        },
        {
          "indexed": false,
          "internalType": "uint256",
          "name": "borrowIndex",
          "type": "uint256"
        }
      ],
      "name": "PoolUpdated",
      "type": "event"
    },
    {
      "anonymous": false,
      "inputs": [
        {
          "indexed": true,
          "internalType": "address",
          "name": "remover",
          "type": "address"
        },
        {
          "indexed": false,
          "internalType": "address",
          "name": "baseToken",
          "type": "address"
        },
        {
          "indexed": false,
          "internalType": "address",
          "name": "memeToken",
          "type": "address"
        },
        {
          "indexed": false,
          "internalType": "uint256",
          "name": "liquidity",
          "type": "uint256"
        },
        {
          "indexed": false,
          "internalType": "address",
          "name": "to",
          "type": "address"
        },
        {
          "indexed": false,
          "internalType": "uint256",
          "name": "baseAmount",
          "type": "uint256"
        },
        {
          "indexed": false,
          "internalType": "uint256",
          "name": "memeAmount",
          "type": "uint256"
        }
      ],
      "name": "Remove",
      "type": "event"
    },
    {
      "anonymous": false,
      "inputs": [
        {
          "indexed": true,
          "internalType": "address",
          "name": "repayer",
          "type": "address"
        },
        {
          "indexed": false,
          "internalType": "address",
          "name": "baseToken",
          "type": "address"
        },
        {
          "indexed": false,
          "internalType": "address",
          "name": "memeToken",
          "type": "address"
        },
        {
          "indexed": false,
          "internalType": "uint256",
          "name": "positionId",
          "type": "uint256"
        },
        {
          "indexed": false,
          "internalType": "uint8",
          "name": "tokenIndex",
          "type": "uint8"
        },
        {
          "indexed": false,
          "internalType": "uint256",
          "name": "repayAmount",
          "type": "uint256"
        },
        {
          "indexed": false,
          "internalType": "uint256",
          "name": "baseCollateral",
          "type": "uint256"
        },
        {
          "indexed": false,
          "internalType": "uint256",
          "name": "baseDebtScaled",
          "type": "uint256"
        },
        {
          "indexed": false,
          "internalType": "uint256",
          "name": "memeCollateral",
          "type": "uint256"
        },
        {
          "indexed": false,
          "internalType": "uint256",
          "name": "memeDebtScaled",
          "type": "uint256"
        }
      ],
      "name": "Repay",
      "type": "event"
    },
    {
      "anonymous": false,
      "inputs": [
        {
          "indexed": true,
          "internalType": "address",
          "name": "account",
          "type": "address"
        },
        {
          "indexed": false,
          "internalType": "address",
          "name": "tokenIn",
          "type": "address"
        },
        {
          "indexed": false,
          "internalType": "address",
          "name": "tokenOut",
          "type": "address"
        },
        {
          "indexed": false,
          "internalType": "uint256",
          "name": "amountIn",
          "type": "uint256"
        },
        {
          "indexed": false,
          "internalType": "uint256",
          "name": "amountOut",
          "type": "uint256"
        },
        {
          "indexed": false,
          "internalType": "uint256",
          "name": "fee",
          "type": "uint256"
        },
        {
          "indexed": false,
          "internalType": "uint256",
          "name": "baseCollateral",
          "type": "uint256"
        },
        {
          "indexed": false,
          "internalType": "uint256",
          "name": "baseDebtScaled",
          "type": "uint256"
        },
        {
          "indexed": false,
          "internalType": "uint256",
          "name": "memeCollateral",
          "type": "uint256"
        },
        {
          "indexed": false,
          "internalType": "uint256",
          "name": "memeDebtScaled",
          "type": "uint256"
        }
      ],
      "name": "Swap",
      "type": "event"
    },
    {
      "anonymous": false,
      "inputs": [
        {
          "indexed": true,
          "internalType": "address",
          "name": "withdrawer",
          "type": "address"
        },
        {
          "indexed": false,
          "internalType": "address",
          "name": "baseToken",
          "type": "address"
        },
        {
          "indexed": false,
          "internalType": "address",
          "name": "memeToken",
          "type": "address"
        },
        {
          "indexed": false,
          "internalType": "uint256",
          "name": "withdrawAmount",
          "type": "uint256"
        },
        {
          "indexed": false,
          "internalType": "address",
          "name": "to",
          "type": "address"
        },
        {
          "indexed": false,
          "internalType": "uint256",
          "name": "baseCollateral",
          "type": "uint256"
        },
        {
          "indexed": false,
          "internalType": "uint256",
          "name": "baseDebtScaled",
          "type": "uint256"
        },
        {
          "indexed": false,
          "internalType": "uint256",
          "name": "memeCollateral",
          "type": "uint256"
        },
        {
          "indexed": false,
          "internalType": "uint256",
          "name": "memeDebtScaled",
          "type": "uint256"
        }
      ],
      "name": "Withdraw",
      "type": "event"
    },
    {
      "inputs": [
        {
          "internalType": "address",
          "name": "supplier",
          "type": "address"
        },
        {
          "internalType": "address",
          "name": "baseToken",
          "type": "address"
        },
        {
          "internalType": "address",
          "name": "memeToken",
          "type": "address"
        },
        {
          "internalType": "address",
          "name": "to",
          "type": "address"
        },
        {
          "internalType": "uint256",
          "name": "baseAmount",
          "type": "uint256"
        },
        {
          "internalType": "uint256",
          "name": "memeAmount",
          "type": "uint256"
        }
      ],
      "name": "emitAdd",
      "outputs": [],
      "stateMutability": "nonpayable",
      "type": "function"
    },
    {
      "inputs": [
        {
          "internalType": "address",
          "name": "borrower",
          "type": "address"
        },
        {
          "internalType": "address",
          "name": "baseToken",
          "type": "address"
        },
        {
          "internalType": "address",
          "name": "memeToken",
          "type": "address"
        },
        {
          "internalType": "uint256",
          "name": "positionId",
          "type": "uint256"
        },
        {
          "internalType": "uint8",
          "name": "tokenIndex",
          "type": "uint8"
        },
        {
          "internalType": "uint256",
          "name": "borrowAmount",
          "type": "uint256"
        },
        {
          "internalType": "uint256",
          "name": "borrowRate",
          "type": "uint256"
        },
        {
          "components": [
            {
              "internalType": "uint256",
              "name": "baseCollateral",
              "type": "uint256"
            },
            {
              "internalType": "uint256",
              "name": "baseDebtScaled",
              "type": "uint256"
            },
            {
              "internalType": "uint256",
              "name": "memeCollateral",
              "type": "uint256"
            },
            {
              "internalType": "uint256",
              "name": "memeDebtScaled",
              "type": "uint256"
            }
          ],
          "internalType": "struct Event.Liquidation",
          "name": "liquidation",
          "type": "tuple"
        }
      ],
      "name": "emitBorrow",
      "outputs": [],
      "stateMutability": "nonpayable",
      "type": "function"
    },
    {
      "inputs": [
        {
          "internalType": "address",
          "name": "underlyingAsset",
          "type": "address"
        },
        {
          "internalType": "uint256",
          "name": "scaledUnclaimedFee",
          "type": "uint256"
        },
        {
          "internalType": "uint256",
          "name": "liquidityIndex",
          "type": "uint256"
        },
        {
          "internalType": "uint256",
          "name": "unclaimedFee",
          "type": "uint256"
        }
      ],
      "name": "emitClaimFees",
      "outputs": [],
      "stateMutability": "nonpayable",
      "type": "function"
    },
    {
      "inputs": [
        {
          "internalType": "address",
          "name": "underlyingAssetUsd",
          "type": "address"
        },
        {
          "internalType": "address",
          "name": "account",
          "type": "address"
        },
        {
          "internalType": "uint256",
          "name": "amountUsdStartClose",
          "type": "uint256"
        },
        {
          "internalType": "uint256",
          "name": "amountUsdAfterRepayAndSellCollateral",
          "type": "uint256"
        },
        {
          "internalType": "uint256",
          "name": "amountUsdAfterBuyCollateralAndRepay",
          "type": "uint256"
        }
      ],
      "name": "emitClose",
      "outputs": [],
      "stateMutability": "nonpayable",
      "type": "function"
    },
    {
      "inputs": [
        {
          "internalType": "address",
          "name": "depositor",
          "type": "address"
        },
        {
          "internalType": "address",
          "name": "baseToken",
          "type": "address"
        },
        {
          "internalType": "address",
          "name": "memeToken",
          "type": "address"
        },
        {
          "internalType": "uint256",
          "name": "depositAmount",
          "type": "uint256"
        },
        {
          "internalType": "uint256",
          "name": "baseCollateral",
          "type": "uint256"
        },
        {
          "internalType": "uint256",
          "name": "baseDebtScaled",
          "type": "uint256"
        },
        {
          "internalType": "uint256",
          "name": "memeCollateral",
          "type": "uint256"
        },
        {
          "internalType": "uint256",
          "name": "memeDebtScaled",
          "type": "uint256"
        }
      ],
      "name": "emitDeposit",
      "outputs": [],
      "stateMutability": "nonpayable",
      "type": "function"
    },
    {
      "inputs": [
        {
          "internalType": "address",
          "name": "liquidator",
          "type": "address"
        },
        {
          "internalType": "address",
          "name": "account",
          "type": "address"
        },
        {
          "internalType": "uint256",
          "name": "marginLevel",
          "type": "uint256"
        },
        {
          "internalType": "uint256",
          "name": "marginLevelLiquidationThreshold",
          "type": "uint256"
        },
        {
          "internalType": "uint256",
          "name": "totalCollateralUsd",
          "type": "uint256"
        },
        {
          "internalType": "uint256",
          "name": "totalDebtUsd",
          "type": "uint256"
        }
      ],
      "name": "emitLiquidation",
      "outputs": [],
      "stateMutability": "nonpayable",
      "type": "function"
    },
    {
      "inputs": [
        {
          "internalType": "address",
          "name": "baseToken",
          "type": "address"
        },
        {
          "internalType": "address",
          "name": "memeToken",
          "type": "address"
        },
        {
          "internalType": "address",
          "name": "source",
          "type": "address"
        },
        {
          "internalType": "uint256",
          "name": "createdTimestamp",
          "type": "uint256"
        },
        {
          "internalType": "uint256",
          "name": "baseDecimals",
          "type": "uint256"
        },
        {
          "internalType": "uint256",
          "name": "memeDecimals",
          "type": "uint256"
        }
      ],
      "name": "emitPoolCreated",
      "outputs": [],
      "stateMutability": "nonpayable",
      "type": "function"
    },
    {
      "inputs": [
        {
          "internalType": "address",
          "name": "underlyingAsset",
          "type": "address"
        },
        {
          "internalType": "uint256",
          "name": "liquidityRate",
          "type": "uint256"
        },
        {
          "internalType": "uint256",
          "name": "borrowRate",
          "type": "uint256"
        },
        {
          "internalType": "uint256",
          "name": "liquidityIndex",
          "type": "uint256"
        },
        {
          "internalType": "uint256",
          "name": "borrowIndex",
          "type": "uint256"
        }
      ],
      "name": "emitPoolUpdated",
      "outputs": [],
      "stateMutability": "nonpayable",
      "type": "function"
    },
    {
      "inputs": [
        {
          "internalType": "address",
          "name": "remover",
          "type": "address"
        },
        {
          "internalType": "address",
          "name": "baseToken",
          "type": "address"
        },
        {
          "internalType": "address",
          "name": "memeToken",
          "type": "address"
        },
        {
          "internalType": "uint256",
          "name": "liquidity",
          "type": "uint256"
        },
        {
          "internalType": "address",
          "name": "to",
          "type": "address"
        },
        {
          "internalType": "uint256",
          "name": "baseAmount",
          "type": "uint256"
        },
        {
          "internalType": "uint256",
          "name": "memeAmount",
          "type": "uint256"
        }
      ],
      "name": "emitRemove",
      "outputs": [],
      "stateMutability": "nonpayable",
      "type": "function"
    },
    {
      "inputs": [
        {
          "internalType": "address",
          "name": "repayer",
          "type": "address"
        },
        {
          "internalType": "address",
          "name": "baseToken",
          "type": "address"
        },
        {
          "internalType": "address",
          "name": "memeToken",
          "type": "address"
        },
        {
          "internalType": "uint256",
          "name": "positionId",
          "type": "uint256"
        },
        {
          "internalType": "uint8",
          "name": "tokenIndex",
          "type": "uint8"
        },
        {
          "internalType": "uint256",
          "name": "repayAmount",
          "type": "uint256"
        },
        {
          "components": [
            {
              "internalType": "uint256",
              "name": "baseCollateral",
              "type": "uint256"
            },
            {
              "internalType": "uint256",
              "name": "baseDebtScaled",
              "type": "uint256"
            },
            {
              "internalType": "uint256",
              "name": "memeCollateral",
              "type": "uint256"
            },
            {
              "internalType": "uint256",
              "name": "memeDebtScaled",
              "type": "uint256"
            }
          ],
          "internalType": "struct Event.Liquidation",
          "name": "liquidation",
          "type": "tuple"
        }
      ],
      "name": "emitRepay",
      "outputs": [],
      "stateMutability": "nonpayable",
      "type": "function"
    },
    {
      "inputs": [
        {
          "internalType": "address",
          "name": "account",
          "type": "address"
        },
        {
          "internalType": "address",
          "name": "tokenIn",
          "type": "address"
        },
        {
          "internalType": "address",
          "name": "tokenOut",
          "type": "address"
        },
        {
          "internalType": "uint256",
          "name": "amountIn",
          "type": "uint256"
        },
        {
          "internalType": "uint256",
          "name": "amountOut",
          "type": "uint256"
        },
        {
          "internalType": "uint256",
          "name": "fee",
          "type": "uint256"
        },
        {
          "components": [
            {
              "internalType": "uint256",
              "name": "baseCollateral",
              "type": "uint256"
            },
            {
              "internalType": "uint256",
              "name": "baseDebtScaled",
              "type": "uint256"
            },
            {
              "internalType": "uint256",
              "name": "memeCollateral",
              "type": "uint256"
            },
            {
              "internalType": "uint256",
              "name": "memeDebtScaled",
              "type": "uint256"
            }
          ],
          "internalType": "struct Event.Liquidation",
          "name": "liquidation",
          "type": "tuple"
        }
      ],
      "name": "emitSwap",
      "outputs": [],
      "stateMutability": "nonpayable",
      "type": "function"
    },
    {
      "inputs": [
        {
          "internalType": "address",
          "name": "withdrawer",
          "type": "address"
        },
        {
          "internalType": "address",
          "name": "baseToken",
          "type": "address"
        },
        {
          "internalType": "address",
          "name": "memeToken",
          "type": "address"
        },
        {
          "internalType": "uint256",
          "name": "withdrawAmount",
          "type": "uint256"
        },
        {
          "internalType": "address",
          "name": "to",
          "type": "address"
        },
        {
          "internalType": "uint256",
          "name": "baseCollateral",
          "type": "uint256"
        },
        {
          "internalType": "uint256",
          "name": "baseDebtScaled",
          "type": "uint256"
        },
        {
          "internalType": "uint256",
          "name": "memeCollateral",
          "type": "uint256"
        },
        {
          "internalType": "uint256",
          "name": "memeDebtScaled",
          "type": "uint256"
        }
      ],
      "name": "emitWithdraw",
      "outputs": [],
      "stateMutability": "nonpayable",
      "type": "function"
    },
    {
      "inputs": [],
      "name": "roleStore",
      "outputs": [
        {
          "internalType": "contract RoleStore",
          "name": "",
          "type": "address"
        }
      ],
      "stateMutability": "view",
      "type": "function"
    }
  ],
  "bytecode": "0x60a060405234801561001057600080fd5b50604051611dca380380611dca833981810160405281019061003291906100e3565b808073ffffffffffffffffffffffffffffffffffffffff1660808173ffffffffffffffffffffffffffffffffffffffff16815250505050610110565b600080fd5b600073ffffffffffffffffffffffffffffffffffffffff82169050919050565b600061009e82610073565b9050919050565b60006100b082610093565b9050919050565b6100c0816100a5565b81146100cb57600080fd5b50565b6000815190506100dd816100b7565b92915050565b6000602082840312156100f9576100f861006e565b5b6000610107848285016100ce565b91505092915050565b608051611c98610132600039600081816104a50152610bdd0152611c986000f3fe608060405234801561001057600080fd5b50600436106100cf5760003560e01c80638262009e1161008c57806396de247f1161006657806396de247f146101d25780639c845792146101ee5780639ed486eb1461020a578063ea34a57714610226576100cf565b80638262009e1461017e57806389cad4d91461019a57806394e0dd1d146101b6576100cf565b806315f762d5146100d4578063292ae722146100f0578063324ac7651461010c5780634a4a7b041461012857806355ac84ba146101465780637c24dab714610162575b600080fd5b6100ee60048036038101906100e99190610d61565b610242565b005b61010a60048036038101906101059190610e2b565b61030c565b005b61012660048036038101906101219190610ecd565b6103d0565b005b6101306104a3565b60405161013d9190610fa7565b60405180910390f35b610160600480360381019061015b9190610fc2565b6104c7565b005b61017c6004803603810190610177919061104f565b610573565b005b6101986004803603810190610193919061120c565b610631565b005b6101b460048036038101906101af91906112af565b61070b565b005b6101d060048036038101906101cb9190611365565b6107d2565b005b6101ec60048036038101906101e791906113f2565b6108a8565b005b61020860048036038101906102039190611495565b610982565b005b610224600480360381019061021f91906114fc565b610a3d565b005b610240600480360381019061023b9190611589565b610afe565b005b6102a56040516020016102549061169c565b604051602081830303815290604052805190602001206040518060400160405280600a81526020017f434f4e54524f4c4c455200000000000000000000000000000000000000000000815250610bdb565b8873ffffffffffffffffffffffffffffffffffffffff167fb50b96cf5652f7259ba33891436a3874ecce39e522a18fb973cb021949f573df89898989898989896040516102f99897969594939291906116da565b60405180910390a2505050505050505050565b61036f60405160200161031e9061169c565b604051602081830303815290604052805190602001206040518060400160405280600a81526020017f434f4e54524f4c4c455200000000000000000000000000000000000000000000815250610bdb565b8673ffffffffffffffffffffffffffffffffffffffff167fe10a339dd5329df14a8ec13eb4115b75ab032fd40e2ff2594a4a5bf80e497a418787878787876040516103bf96959493929190611758565b60405180910390a250505050505050565b6104336040516020016103e29061169c565b604051602081830303815290604052805190602001206040518060400160405280600a81526020017f434f4e54524f4c4c455200000000000000000000000000000000000000000000815250610bdb565b8373ffffffffffffffffffffffffffffffffffffffff168573ffffffffffffffffffffffffffffffffffffffff167fb149470201600d81e1698a9d001d20f8d2a036d2c0f425436b65a154e95eb53a858585604051610494939291906117b9565b60405180910390a35050505050565b7f000000000000000000000000000000000000000000000000000000000000000081565b61052a6040516020016104d99061169c565b604051602081830303815290604052805190602001206040518060400160405280600a81526020017f434f4e54524f4c4c455200000000000000000000000000000000000000000000815250610bdb565b7fa8c38247fd3f092e3bc806fb7dff597b939f4ec6ffad1514a35eb2776e2a61b8868686868686604051610563969594939291906117f0565b60405180910390a1505050505050565b6105d66040516020016105859061169c565b604051602081830303815290604052805190602001206040518060400160405280600a81526020017f434f4e54524f4c4c455200000000000000000000000000000000000000000000815250610bdb565b8473ffffffffffffffffffffffffffffffffffffffff167fc320a8529b15b851aaa68519919ac344e1caceaf4f47d15df6e58181dfec6319858585856040516106229493929190611851565b60405180910390a25050505050565b6106946040516020016106439061169c565b604051602081830303815290604052805190602001206040518060400160405280600a81526020017f434f4e54524f4c4c455200000000000000000000000000000000000000000000815250610bdb565b8673ffffffffffffffffffffffffffffffffffffffff167f4fc3cf57f1c587a9f0808812dd72668a2b82f54411b0737d06c4043ff044cf9a87878787878760000151886020015189604001518a606001516040516106fa999897969594939291906118a5565b60405180910390a250505050505050565b61076e60405160200161071d9061169c565b604051602081830303815290604052805190602001206040518060400160405280600a81526020017f434f4e54524f4c4c455200000000000000000000000000000000000000000000815250610bdb565b8773ffffffffffffffffffffffffffffffffffffffff167f259af91af89c9a6b13d53607d57f43b151235f69d54d2339133e57cfb62bf4c5888888888888886040516107c09796959493929190611932565b60405180910390a25050505050505050565b6108356040516020016107e49061169c565b604051602081830303815290604052805190602001206040518060400160405280600a81526020017f434f4e54524f4c4c455200000000000000000000000000000000000000000000815250610bdb565b8473ffffffffffffffffffffffffffffffffffffffff168673ffffffffffffffffffffffffffffffffffffffff167fc70fd1eb40d7ae44a5425c09dece5a023b47277356e005b6caef1600cfc7334e868686866040516108989493929190611851565b60405180910390a3505050505050565b61090b6040516020016108ba9061169c565b604051602081830303815290604052805190602001206040518060400160405280600a81526020017f434f4e54524f4c4c455200000000000000000000000000000000000000000000815250610bdb565b8673ffffffffffffffffffffffffffffffffffffffff167f533855cb8a87f0995f6c3390665eb37da822f5550b13a973a77906d018a2a89c87878787878760000151886020015189604001518a60600151604051610971999897969594939291906119a1565b60405180910390a250505050505050565b6109e56040516020016109949061169c565b604051602081830303815290604052805190602001206040518060400160405280600a81526020017f434f4e54524f4c4c455200000000000000000000000000000000000000000000815250610bdb565b8373ffffffffffffffffffffffffffffffffffffffff167fd2e6085315c6e1c1c7406a47c7d006a8c1f931396d868c16046dea71365ff031848484604051610a2f939291906117b9565b60405180910390a250505050565b610aa0604051602001610a4f9061169c565b604051602081830303815290604052805190602001206040518060400160405280600a81526020017f434f4e54524f4c4c455200000000000000000000000000000000000000000000815250610bdb565b8573ffffffffffffffffffffffffffffffffffffffff167fcbdb4dd8f84983be7c158013b8d74dacf114333078949f99dfb5b66e6621964a8686868686604051610aee959493929190611a2e565b60405180910390a2505050505050565b610b61604051602001610b109061169c565b604051602081830303815290604052805190602001206040518060400160405280600a81526020017f434f4e54524f4c4c455200000000000000000000000000000000000000000000815250610bdb565b8773ffffffffffffffffffffffffffffffffffffffff167f2ef1e8737d096826c9abef1201bb205ea380555780a54bd904cf67ca7dba8c5f888888888888886000015189602001518a604001518b60600151604051610bc99a99989796959493929190611a81565b60405180910390a25050505050505050565b7f000000000000000000000000000000000000000000000000000000000000000073ffffffffffffffffffffffffffffffffffffffff1663ac4ab3fb33846040518363ffffffff1660e01b8152600401610c36929190611b36565b602060405180830381865afa158015610c53573d6000803e3d6000fd5b505050506040513d601f19601f82011682018060405250810190610c779190611b97565b610cba5733816040517fa35b150b000000000000000000000000000000000000000000000000000000008152600401610cb1929190611c32565b60405180910390fd5b5050565b6000604051905090565b600080fd5b600073ffffffffffffffffffffffffffffffffffffffff82169050919050565b6000610cf882610ccd565b9050919050565b610d0881610ced565b8114610d1357600080fd5b50565b600081359050610d2581610cff565b92915050565b6000819050919050565b610d3e81610d2b565b8114610d4957600080fd5b50565b600081359050610d5b81610d35565b92915050565b60008060008060008060008060006101208a8c031215610d8457610d83610cc8565b5b6000610d928c828d01610d16565b9950506020610da38c828d01610d16565b9850506040610db48c828d01610d16565b9750506060610dc58c828d01610d4c565b9650506080610dd68c828d01610d16565b95505060a0610de78c828d01610d4c565b94505060c0610df88c828d01610d4c565b93505060e0610e098c828d01610d4c565b925050610100610e1b8c828d01610d4c565b9150509295985092959850929598565b600080600080600080600060e0888a031215610e4a57610e49610cc8565b5b6000610e588a828b01610d16565b9750506020610e698a828b01610d16565b9650506040610e7a8a828b01610d16565b9550506060610e8b8a828b01610d4c565b9450506080610e9c8a828b01610d16565b93505060a0610ead8a828b01610d4c565b92505060c0610ebe8a828b01610d4c565b91505092959891949750929550565b600080600080600060a08688031215610ee957610ee8610cc8565b5b6000610ef788828901610d16565b9550506020610f0888828901610d16565b9450506040610f1988828901610d4c565b9350506060610f2a88828901610d4c565b9250506080610f3b88828901610d4c565b9150509295509295909350565b6000819050919050565b6000610f6d610f68610f6384610ccd565b610f48565b610ccd565b9050919050565b6000610f7f82610f52565b9050919050565b6000610f9182610f74565b9050919050565b610fa181610f86565b82525050565b6000602082019050610fbc6000830184610f98565b92915050565b60008060008060008060c08789031215610fdf57610fde610cc8565b5b6000610fed89828a01610d16565b9650506020610ffe89828a01610d16565b955050604061100f89828a01610d16565b945050606061102089828a01610d4c565b935050608061103189828a01610d4c565b92505060a061104289828a01610d4c565b9150509295509295509295565b600080600080600060a0868803121561106b5761106a610cc8565b5b600061107988828901610d16565b955050602061108a88828901610d4c565b945050604061109b88828901610d4c565b93505060606110ac88828901610d4c565b92505060806110bd88828901610d4c565b9150509295509295909350565b600060ff82169050919050565b6110e0816110ca565b81146110eb57600080fd5b50565b6000813590506110fd816110d7565b92915050565b600080fd5b6000601f19601f8301169050919050565b7f4e487b7100000000000000000000000000000000000000000000000000000000600052604160045260246000fd5b61115182611108565b810181811067ffffffffffffffff821117156111705761116f611119565b5b80604052505050565b6000611183610cbe565b905061118f8282611148565b919050565b6000608082840312156111aa576111a9611103565b5b6111b46080611179565b905060006111c484828501610d4c565b60008301525060206111d884828501610d4c565b60208301525060406111ec84828501610d4c565b604083015250606061120084828501610d4c565b60608301525092915050565b6000806000806000806000610140888a03121561122c5761122b610cc8565b5b600061123a8a828b01610d16565b975050602061124b8a828b01610d16565b965050604061125c8a828b01610d16565b955050606061126d8a828b01610d4c565b945050608061127e8a828b016110ee565b93505060a061128f8a828b01610d4c565b92505060c06112a08a828b01611194565b91505092959891949750929550565b600080600080600080600080610100898b0312156112d0576112cf610cc8565b5b60006112de8b828c01610d16565b98505060206112ef8b828c01610d16565b97505060406113008b828c01610d16565b96505060606113118b828c01610d4c565b95505060806113228b828c01610d4c565b94505060a06113338b828c01610d4c565b93505060c06113448b828c01610d4c565b92505060e06113558b828c01610d4c565b9150509295985092959890939650565b60008060008060008060c0878903121561138257611381610cc8565b5b600061139089828a01610d16565b96505060206113a189828a01610d16565b95505060406113b289828a01610d4c565b94505060606113c389828a01610d4c565b93505060806113d489828a01610d4c565b92505060a06113e589828a01610d4c565b9150509295509295509295565b6000806000806000806000610140888a03121561141257611411610cc8565b5b60006114208a828b01610d16565b97505060206114318a828b01610d16565b96505060406114428a828b01610d16565b95505060606114538a828b01610d4c565b94505060806114648a828b01610d4c565b93505060a06114758a828b01610d4c565b92505060c06114868a828b01611194565b91505092959891949750929550565b600080600080608085870312156114af576114ae610cc8565b5b60006114bd87828801610d16565b94505060206114ce87828801610d4c565b93505060406114df87828801610d4c565b92505060606114f087828801610d4c565b91505092959194509250565b60008060008060008060c0878903121561151957611518610cc8565b5b600061152789828a01610d16565b965050602061153889828a01610d16565b955050604061154989828a01610d16565b945050606061155a89828a01610d16565b935050608061156b89828a01610d4c565b92505060a061157c89828a01610d4c565b9150509295509295509295565b600080600080600080600080610160898b0312156115aa576115a9610cc8565b5b60006115b88b828c01610d16565b98505060206115c98b828c01610d16565b97505060406115da8b828c01610d16565b96505060606115eb8b828c01610d4c565b95505060806115fc8b828c016110ee565b94505060a061160d8b828c01610d4c565b93505060c061161e8b828c01610d4c565b92505060e061162f8b828c01611194565b9150509295985092959890939650565b600082825260208201905092915050565b7f434f4e54524f4c4c455200000000000000000000000000000000000000000000600082015250565b6000611686600a8361163f565b915061169182611650565b602082019050919050565b600060208201905081810360008301526116b581611679565b9050919050565b6116c581610ced565b82525050565b6116d481610d2b565b82525050565b6000610100820190506116f0600083018b6116bc565b6116fd602083018a6116bc565b61170a60408301896116cb565b61171760608301886116bc565b61172460808301876116cb565b61173160a08301866116cb565b61173e60c08301856116cb565b61174b60e08301846116cb565b9998505050505050505050565b600060c08201905061176d60008301896116bc565b61177a60208301886116bc565b61178760408301876116cb565b61179460608301866116bc565b6117a160808301856116cb565b6117ae60a08301846116cb565b979650505050505050565b60006060820190506117ce60008301866116cb565b6117db60208301856116cb565b6117e860408301846116cb565b949350505050565b600060c08201905061180560008301896116bc565b61181260208301886116bc565b61181f60408301876116bc565b61182c60608301866116cb565b61183960808301856116cb565b61184660a08301846116cb565b979650505050505050565b600060808201905061186660008301876116cb565b61187360208301866116cb565b61188060408301856116cb565b61188d60608301846116cb565b95945050505050565b61189f816110ca565b82525050565b6000610120820190506118bb600083018c6116bc565b6118c8602083018b6116bc565b6118d5604083018a6116cb565b6118e26060830189611896565b6118ef60808301886116cb565b6118fc60a08301876116cb565b61190960c08301866116cb565b61191660e08301856116cb565b6119246101008301846116cb565b9a9950505050505050505050565b600060e082019050611947600083018a6116bc565b61195460208301896116bc565b61196160408301886116cb565b61196e60608301876116cb565b61197b60808301866116cb565b61198860a08301856116cb565b61199560c08301846116cb565b98975050505050505050565b6000610120820190506119b7600083018c6116bc565b6119c4602083018b6116bc565b6119d1604083018a6116cb565b6119de60608301896116cb565b6119eb60808301886116cb565b6119f860a08301876116cb565b611a0560c08301866116cb565b611a1260e08301856116cb565b611a206101008301846116cb565b9a9950505050505050505050565b600060a082019050611a4360008301886116bc565b611a5060208301876116bc565b611a5d60408301866116bc565b611a6a60608301856116cb565b611a7760808301846116cb565b9695505050505050565b600061014082019050611a97600083018d6116bc565b611aa4602083018c6116bc565b611ab1604083018b6116cb565b611abe606083018a611896565b611acb60808301896116cb565b611ad860a08301886116cb565b611ae560c08301876116cb565b611af260e08301866116cb565b611b006101008301856116cb565b611b0e6101208301846116cb565b9b9a5050505050505050505050565b6000819050919050565b611b3081611b1d565b82525050565b6000604082019050611b4b60008301856116bc565b611b586020830184611b27565b9392505050565b60008115159050919050565b611b7481611b5f565b8114611b7f57600080fd5b50565b600081519050611b9181611b6b565b92915050565b600060208284031215611bad57611bac610cc8565b5b6000611bbb84828501611b82565b91505092915050565b600081519050919050565b60005b83811015611bed578082015181840152602081019050611bd2565b60008484015250505050565b6000611c0482611bc4565b611c0e818561163f565b9350611c1e818560208601611bcf565b611c2781611108565b840191505092915050565b6000604082019050611c4760008301856116bc565b8181036020830152611c598184611bf9565b9050939250505056fea26469706673582212205481de332ae0aa9840aacbe6a4b23a795a421c4d2513c3a9f03819ca2aa25c4664736f6c634300081c0033",
  "linkReferences": {},
  "deployedLinkReferences": {}
}