{
  "_format": "hh-sol-artifact-1",
  "contractName": "StrictBank",
  "sourceName": "contracts/bank/StrictBank.sol",
  "abi": [
    {
      "inputs": [
        {
          "internalType": "contract RoleStore",
          "name": "_roleStore",
          "type": "address"
        },
        {
          "internalType": "contract DataStore",
          "name": "_dataStore",
          "type": "address"
        }
      ],
      "stateMutability": "nonpayable",
      "type": "constructor"
    },
    {
      "inputs": [],
      "name": "EmptyReceiver",
      "type": "error"
    },
    {
      "inputs": [
        {
          "internalType": "address",
          "name": "msgSender",
          "type": "address"
        }
      ],
      "name": "InvalidNativeTokenSender",
      "type": "error"
    },
    {
      "inputs": [
        {
          "internalType": "address",
          "name": "receiver",
          "type": "address"
        }
      ],
      "name": "SelfTransferNotSupported",
      "type": "error"
    },
    {
      "inputs": [
        {
          "internalType": "address",
          "name": "token",
          "type": "address"
        },
        {
          "internalType": "address",
          "name": "receiver",
          "type": "address"
        },
        {
          "internalType": "uint256",
          "name": "amount",
          "type": "uint256"
        }
      ],
      "name": "TokenTransferError",
      "type": "error"
    },
    {
      "inputs": [
        {
          "internalType": "address",
          "name": "msgSender",
          "type": "address"
        },
        {
          "internalType": "string",
          "name": "role",
          "type": "string"
        }
      ],
      "name": "Unauthorized",
      "type": "error"
    },
    {
      "anonymous": false,
      "inputs": [
        {
          "indexed": false,
          "internalType": "string",
          "name": "reason",
          "type": "string"
        },
        {
          "indexed": false,
          "internalType": "bytes",
          "name": "returndata",
          "type": "bytes"
        }
      ],
      "name": "TokenTransferReverted",
      "type": "event"
    },
    {
      "inputs": [],
      "name": "dataStore",
      "outputs": [
        {
          "internalType": "contract DataStore",
          "name": "",
          "type": "address"
        }
      ],
      "stateMutability": "view",
      "type": "function"
    },
    {
      "inputs": [
        {
          "internalType": "address",
          "name": "token",
          "type": "address"
        }
      ],
      "name": "recordTransferIn",
      "outputs": [
        {
          "internalType": "uint256",
          "name": "",
          "type": "uint256"
        }
      ],
      "stateMutability": "nonpayable",
      "type": "function"
    },
    {
      "inputs": [
        {
          "internalType": "address",
          "name": "token",
          "type": "address"
        }
      ],
      "name": "recordTransferOut",
      "outputs": [
        {
          "internalType": "uint256",
          "name": "",
          "type": "uint256"
        }
      ],
      "stateMutability": "nonpayable",
      "type": "function"
    },
    {
      "inputs": [],
      "name": "roleStore",
      "outputs": [
        {
          "internalType": "contract RoleStore",
          "name": "",
          "type": "address"
        }
      ],
      "stateMutability": "view",
      "type": "function"
    },
    {
      "inputs": [
        {
          "internalType": "address",
          "name": "token",
          "type": "address"
        }
      ],
      "name": "syncTokenBalance",
      "outputs": [
        {
          "internalType": "uint256",
          "name": "",
          "type": "uint256"
        }
      ],
      "stateMutability": "nonpayable",
      "type": "function"
    },
    {
      "inputs": [
        {
          "internalType": "address",
          "name": "",
          "type": "address"
        }
      ],
      "name": "tokenBalances",
      "outputs": [
        {
          "internalType": "uint256",
          "name": "",
          "type": "uint256"
        }
      ],
      "stateMutability": "view",
      "type": "function"
    },
    {
      "inputs": [
        {
          "internalType": "address",
          "name": "token",
          "type": "address"
        },
        {
          "internalType": "address",
          "name": "receiver",
          "type": "address"
        },
        {
          "internalType": "uint256",
          "name": "amount",
          "type": "uint256"
        }
      ],
      "name": "transferOut",
      "outputs": [],
      "stateMutability": "nonpayable",
      "type": "function"
    },
    {
      "stateMutability": "payable",
      "type": "receive"
    }
  ],
  "bytecode": "0x60c060405234801561001057600080fd5b506040516118603803806118608339818101604052810190610032919061015a565b8181818073ffffffffffffffffffffffffffffffffffffffff1660808173ffffffffffffffffffffffffffffffffffffffff1681525050508073ffffffffffffffffffffffffffffffffffffffff1660a08173ffffffffffffffffffffffffffffffffffffffff16815250505050505061019a565b600080fd5b600073ffffffffffffffffffffffffffffffffffffffff82169050919050565b60006100d7826100ac565b9050919050565b60006100e9826100cc565b9050919050565b6100f9816100de565b811461010457600080fd5b50565b600081519050610116816100f0565b92915050565b6000610127826100cc565b9050919050565b6101378161011c565b811461014257600080fd5b50565b6000815190506101548161012e565b92915050565b60008060408385031215610171576101706100a7565b5b600061017f85828601610107565b925050602061019085828601610145565b9150509250929050565b60805160a0516116946101cc600039600081816080015261045d015260008181610421015261062501526116946000f3fe6080604052600436106100745760003560e01c8063523fba7f1161004e578063523fba7f146101ae578063660d0d67146101eb5780638c1b5fde14610216578063eb40133f1461025357610118565b8063078d3b791461011d578063352f9aed146101465780634a4a7b041461018357610118565b366101185760006100a47f0000000000000000000000000000000000000000000000000000000000000000610290565b90508073ffffffffffffffffffffffffffffffffffffffff163373ffffffffffffffffffffffffffffffffffffffff161461011657336040517fe71a51be00000000000000000000000000000000000000000000000000000000815260040161010d9190610e7e565b60405180910390fd5b005b600080fd5b34801561012957600080fd5b50610144600480360381019061013f9190610f0f565b610337565b005b34801561015257600080fd5b5061016d60048036038101906101689190610f62565b6103aa565b60405161017a9190610f9e565b60405180910390f35b34801561018f57600080fd5b5061019861041f565b6040516101a59190611018565b60405180910390f35b3480156101ba57600080fd5b506101d560048036038101906101d09190610f62565b610443565b6040516101e29190610f9e565b60405180910390f35b3480156101f757600080fd5b5061020061045b565b60405161020d9190611054565b60405180910390f35b34801561022257600080fd5b5061023d60048036038101906102389190610f62565b61047f565b60405161024a9190610f9e565b60405180910390f35b34801561025f57600080fd5b5061027a60048036038101906102759190610f62565b6104f4565b6040516102879190610f9e565b60405180910390f35b60008173ffffffffffffffffffffffffffffffffffffffff166321f8a7216040516020016102bd906110cc565b604051602081830303815290604052805190602001206040518263ffffffff1660e01b81526004016102ef9190611105565b602060405180830381865afa15801561030c573d6000803e3d6000fd5b505050506040513d601f19601f820116820180604052508101906103309190611135565b9050919050565b61039a604051602001610349906111ae565b604051602081830303815290604052805190602001206040518060400160405280600a81526020017f434f4e54524f4c4c455200000000000000000000000000000000000000000000815250610623565b6103a5838383610706565b505050565b600061040f6040516020016103be906111ae565b604051602081830303815290604052805190602001206040518060400160405280600a81526020017f434f4e54524f4c4c455200000000000000000000000000000000000000000000815250610623565b6104188261078f565b9050919050565b7f000000000000000000000000000000000000000000000000000000000000000081565b60006020528060005260406000206000915090505481565b7f000000000000000000000000000000000000000000000000000000000000000081565b60006104e4604051602001610493906111ae565b604051602081830303815290604052805190602001206040518060400160405280600a81526020017f434f4e54524f4c4c455200000000000000000000000000000000000000000000815250610623565b6104ed826108a9565b9050919050565b6000610559604051602001610508906111ae565b604051602081830303815290604052805190602001206040518060400160405280600a81526020017f434f4e54524f4c4c455200000000000000000000000000000000000000000000815250610623565b60008273ffffffffffffffffffffffffffffffffffffffff166370a08231306040518263ffffffff1660e01b81526004016105949190610e7e565b602060405180830381865afa1580156105b1573d6000803e3d6000fd5b505050506040513d601f19601f820116820180604052508101906105d591906111e3565b9050806000808573ffffffffffffffffffffffffffffffffffffffff1673ffffffffffffffffffffffffffffffffffffffff1681526020019081526020016000208190555080915050919050565b7f000000000000000000000000000000000000000000000000000000000000000073ffffffffffffffffffffffffffffffffffffffff1663ac4ab3fb33846040518363ffffffff1660e01b815260040161067e929190611210565b602060405180830381865afa15801561069b573d6000803e3d6000fd5b505050506040513d601f19601f820116820180604052508101906106bf9190611271565b6107025733816040517fa35b150b0000000000000000000000000000000000000000000000000000000081526004016106f992919061131d565b60405180910390fd5b5050565b3073ffffffffffffffffffffffffffffffffffffffff168273ffffffffffffffffffffffffffffffffffffffff160361077657816040517fe70f915200000000000000000000000000000000000000000000000000000000815260040161076d9190610e7e565b60405180910390fd5b6107818383836109c3565b61078a83610a81565b505050565b6000806000808473ffffffffffffffffffffffffffffffffffffffff1673ffffffffffffffffffffffffffffffffffffffff16815260200190815260200160002054905060008373ffffffffffffffffffffffffffffffffffffffff166370a08231306040518263ffffffff1660e01b815260040161080e9190610e7e565b602060405180830381865afa15801561082b573d6000803e3d6000fd5b505050506040513d601f19601f8201168201806040525081019061084f91906111e3565b9050806000808673ffffffffffffffffffffffffffffffffffffffff1673ffffffffffffffffffffffffffffffffffffffff1681526020019081526020016000208190555081816108a0919061137c565b92505050919050565b6000806000808473ffffffffffffffffffffffffffffffffffffffff1673ffffffffffffffffffffffffffffffffffffffff16815260200190815260200160002054905060008373ffffffffffffffffffffffffffffffffffffffff166370a08231306040518263ffffffff1660e01b81526004016109289190610e7e565b602060405180830381865afa158015610945573d6000803e3d6000fd5b505050506040513d601f19601f8201168201806040525081019061096991906111e3565b9050806000808673ffffffffffffffffffffffffffffffffffffffff1673ffffffffffffffffffffffffffffffffffffffff1681526020019081526020016000208190555080826109ba919061137c565b92505050919050565b6000810315610a7c576109d582610b40565b6000806109e3858585610ba9565b9150915081156109f4575050610a7c565b60006109ff82610d63565b5090507fc9f14d9a0a9b46470c7c0b6c508f8283abaab7f795f153953c58cd4250824dae8183604051610a33929190611405565b60405180910390a18585856040517f979dc780000000000000000000000000000000000000000000000000000000008152600401610a739392919061143c565b60405180910390fd5b505050565b8073ffffffffffffffffffffffffffffffffffffffff166370a08231306040518263ffffffff1660e01b8152600401610aba9190610e7e565b602060405180830381865afa158015610ad7573d6000803e3d6000fd5b505050506040513d601f19601f82011682018060405250810190610afb91906111e3565b6000808373ffffffffffffffffffffffffffffffffffffffff1673ffffffffffffffffffffffffffffffffffffffff1681526020019081526020016000208190555050565b600073ffffffffffffffffffffffffffffffffffffffff168173ffffffffffffffffffffffffffffffffffffffff1603610ba6576040517fd551823d00000000000000000000000000000000000000000000000000000000815260040160405180910390fd5b50565b60006060600063a9059cbb60e01b8585604051602401610bca929190611473565b604051602081830303815290604052907bffffffffffffffffffffffffffffffffffffffffffffffffffffffff19166020820180517bffffffffffffffffffffffffffffffffffffffffffffffffffffffff838183161783525050505090506000808773ffffffffffffffffffffffffffffffffffffffff1683604051610c5191906114d8565b6000604051808303816000865af19150503d8060008114610c8e576040519150601f19603f3d011682016040523d82523d6000602084013e610c93565b606091505b50915091508115610d50576000815103610d0b5760008873ffffffffffffffffffffffffffffffffffffffff163b11610d0a5760006040518060400160405280601481526020017f43616c6c20746f206e6f6e2d636f6e747261637400000000000000000000000081525094509450505050610d5b565b5b60008151118015610d2d575080806020019051810190610d2b9190611271565b155b15610d415760008194509450505050610d5b565b60018194509450505050610d5b565b600081945094505050505b935093915050565b60606000604483511015610d8d576000604051806020016040528060008152509091509150610e25565b6000610d9884610e2a565b90506308c379a060e01b7bffffffffffffffffffffffffffffffffffffffffffffffffffffffff1916817bffffffffffffffffffffffffffffffffffffffffffffffffffffffff191603610e0c5760048401935083806020019051810190610e009190611615565b60019250925050610e25565b6000604051806020016040528060008152509092509250505b915091565b6000806020830151905080915050919050565b600073ffffffffffffffffffffffffffffffffffffffff82169050919050565b6000610e6882610e3d565b9050919050565b610e7881610e5d565b82525050565b6000602082019050610e936000830184610e6f565b92915050565b6000604051905090565b600080fd5b600080fd5b610eb681610e5d565b8114610ec157600080fd5b50565b600081359050610ed381610ead565b92915050565b6000819050919050565b610eec81610ed9565b8114610ef757600080fd5b50565b600081359050610f0981610ee3565b92915050565b600080600060608486031215610f2857610f27610ea3565b5b6000610f3686828701610ec4565b9350506020610f4786828701610ec4565b9250506040610f5886828701610efa565b9150509250925092565b600060208284031215610f7857610f77610ea3565b5b6000610f8684828501610ec4565b91505092915050565b610f9881610ed9565b82525050565b6000602082019050610fb36000830184610f8f565b92915050565b6000819050919050565b6000610fde610fd9610fd484610e3d565b610fb9565b610e3d565b9050919050565b6000610ff082610fc3565b9050919050565b600061100282610fe5565b9050919050565b61101281610ff7565b82525050565b600060208201905061102d6000830184611009565b92915050565b600061103e82610fe5565b9050919050565b61104e81611033565b82525050565b60006020820190506110696000830184611045565b92915050565b600082825260208201905092915050565b7f574e540000000000000000000000000000000000000000000000000000000000600082015250565b60006110b660038361106f565b91506110c182611080565b602082019050919050565b600060208201905081810360008301526110e5816110a9565b9050919050565b6000819050919050565b6110ff816110ec565b82525050565b600060208201905061111a60008301846110f6565b92915050565b60008151905061112f81610ead565b92915050565b60006020828403121561114b5761114a610ea3565b5b600061115984828501611120565b91505092915050565b7f434f4e54524f4c4c455200000000000000000000000000000000000000000000600082015250565b6000611198600a8361106f565b91506111a382611162565b602082019050919050565b600060208201905081810360008301526111c78161118b565b9050919050565b6000815190506111dd81610ee3565b92915050565b6000602082840312156111f9576111f8610ea3565b5b6000611207848285016111ce565b91505092915050565b60006040820190506112256000830185610e6f565b61123260208301846110f6565b9392505050565b60008115159050919050565b61124e81611239565b811461125957600080fd5b50565b60008151905061126b81611245565b92915050565b60006020828403121561128757611286610ea3565b5b60006112958482850161125c565b91505092915050565b600081519050919050565b60005b838110156112c75780820151818401526020810190506112ac565b60008484015250505050565b6000601f19601f8301169050919050565b60006112ef8261129e565b6112f9818561106f565b93506113098185602086016112a9565b611312816112d3565b840191505092915050565b60006040820190506113326000830185610e6f565b818103602083015261134481846112e4565b90509392505050565b7f4e487b7100000000000000000000000000000000000000000000000000000000600052601160045260246000fd5b600061138782610ed9565b915061139283610ed9565b92508282039050818111156113aa576113a961134d565b5b92915050565b600081519050919050565b600082825260208201905092915050565b60006113d7826113b0565b6113e181856113bb565b93506113f18185602086016112a9565b6113fa816112d3565b840191505092915050565b6000604082019050818103600083015261141f81856112e4565b9050818103602083015261143381846113cc565b90509392505050565b60006060820190506114516000830186610e6f565b61145e6020830185610e6f565b61146b6040830184610f8f565b949350505050565b60006040820190506114886000830185610e6f565b6114956020830184610f8f565b9392505050565b600081905092915050565b60006114b2826113b0565b6114bc818561149c565b93506114cc8185602086016112a9565b80840191505092915050565b60006114e482846114a7565b915081905092915050565b600080fd5b600080fd5b7f4e487b7100000000000000000000000000000000000000000000000000000000600052604160045260246000fd5b611531826112d3565b810181811067ffffffffffffffff821117156115505761154f6114f9565b5b80604052505050565b6000611563610e99565b905061156f8282611528565b919050565b600067ffffffffffffffff82111561158f5761158e6114f9565b5b611598826112d3565b9050602081019050919050565b60006115b86115b384611574565b611559565b9050828152602081018484840111156115d4576115d36114f4565b5b6115df8482856112a9565b509392505050565b600082601f8301126115fc576115fb6114ef565b5b815161160c8482602086016115a5565b91505092915050565b60006020828403121561162b5761162a610ea3565b5b600082015167ffffffffffffffff81111561164957611648610ea8565b5b611655848285016115e7565b9150509291505056fea26469706673582212204df4ad161ee1a9ffd969509d4bf717132efe9b8921236cf47bf94f652da429b664736f6c634300081c0033",
  "linkReferences": {},
  "deployedLinkReferences": {}
}