{
  "_format": "hh-sol-artifact-1",
  "contractName": "WithdrawHandler",
  "sourceName": "contracts/exchange/WithdrawHandler.sol",
  "abi": [
    {
      "inputs": [
        {
          "internalType": "contract RoleStore",
          "name": "_roleStore",
          "type": "address"
        },
        {
          "internalType": "contract DataStore",
          "name": "_dataStore",
          "type": "address"
        },
        {
          "internalType": "contract EventEmitter",
          "name": "_eventEmitter",
          "type": "address"
        }
      ],
      "stateMutability": "nonpayable",
      "type": "constructor"
    },
    {
      "inputs": [
        {
          "internalType": "address",
          "name": "accountInPosition",
          "type": "address"
        },
        {
          "internalType": "address",
          "name": "account",
          "type": "address"
        }
      ],
      "name": "AccountNotMatch",
      "type": "error"
    },
    {
      "inputs": [],
      "name": "EmptyCollateral",
      "type": "error"
    },
    {
      "inputs": [
        {
          "internalType": "bytes32",
          "name": "key",
          "type": "bytes32"
        }
      ],
      "name": "EmptyPool",
      "type": "error"
    },
    {
      "inputs": [],
      "name": "EmptyPosition",
      "type": "error"
    },
    {
      "inputs": [],
      "name": "EmptyWithdrawAmounts",
      "type": "error"
    },
    {
      "inputs": [
        {
          "internalType": "uint256",
          "name": "amountToWithdraw",
          "type": "uint256"
        },
        {
          "internalType": "uint256",
          "name": "availableReserve",
          "type": "uint256"
        }
      ],
      "name": "InsufficientReverveForWithdraw",
      "type": "error"
    },
    {
      "inputs": [
        {
          "internalType": "uint256",
          "name": "marginLevel",
          "type": "uint256"
        },
        {
          "internalType": "uint256",
          "name": "marginLevelThreshold",
          "type": "uint256"
        }
      ],
      "name": "MarginBelowThreshold",
      "type": "error"
    },
    {
      "inputs": [],
      "name": "MathOverflowedMulDiv",
      "type": "error"
    },
    {
      "inputs": [],
      "name": "TokenIndexNotSupport",
      "type": "error"
    },
    {
      "inputs": [
        {
          "internalType": "address",
          "name": "msgSender",
          "type": "address"
        },
        {
          "internalType": "string",
          "name": "role",
          "type": "string"
        }
      ],
      "name": "Unauthorized",
      "type": "error"
    },
    {
      "inputs": [],
      "name": "dataStore",
      "outputs": [
        {
          "internalType": "contract DataStore",
          "name": "",
          "type": "address"
        }
      ],
      "stateMutability": "view",
      "type": "function"
    },
    {
      "inputs": [],
      "name": "eventEmitter",
      "outputs": [
        {
          "internalType": "contract EventEmitter",
          "name": "",
          "type": "address"
        }
      ],
      "stateMutability": "view",
      "type": "function"
    },
    {
      "inputs": [
        {
          "internalType": "address",
          "name": "account",
          "type": "address"
        },
        {
          "components": [
            {
              "internalType": "uint256",
              "name": "positionId",
              "type": "uint256"
            },
            {
              "internalType": "uint8",
              "name": "tokenIndex",
              "type": "uint8"
            },
            {
              "internalType": "uint256",
              "name": "withdrawAmount",
              "type": "uint256"
            },
            {
              "internalType": "address",
              "name": "to",
              "type": "address"
            }
          ],
          "internalType": "struct WithdrawUtils.WithdrawParams",
          "name": "withdrawParams",
          "type": "tuple"
        }
      ],
      "name": "executeWithdraw",
      "outputs": [],
      "stateMutability": "nonpayable",
      "type": "function"
    },
    {
      "inputs": [],
      "name": "roleStore",
      "outputs": [
        {
          "internalType": "contract RoleStore",
          "name": "",
          "type": "address"
        }
      ],
      "stateMutability": "view",
      "type": "function"
    }
  ],
  "bytecode": "0x60e060405234801561001057600080fd5b50604051613d1c380380613d1c833981810160405281019061003291906101cb565b82828073ffffffffffffffffffffffffffffffffffffffff1660808173ffffffffffffffffffffffffffffffffffffffff1681525050508073ffffffffffffffffffffffffffffffffffffffff1660a08173ffffffffffffffffffffffffffffffffffffffff1681525050508073ffffffffffffffffffffffffffffffffffffffff1660c08173ffffffffffffffffffffffffffffffffffffffff168152505050505061021e565b600080fd5b600073ffffffffffffffffffffffffffffffffffffffff82169050919050565b600061010a826100df565b9050919050565b600061011c826100ff565b9050919050565b61012c81610111565b811461013757600080fd5b50565b60008151905061014981610123565b92915050565b600061015a826100ff565b9050919050565b61016a8161014f565b811461017557600080fd5b50565b60008151905061018781610161565b92915050565b6000610198826100ff565b9050919050565b6101a88161018d565b81146101b357600080fd5b50565b6000815190506101c58161019f565b92915050565b6000806000606084860312156101e4576101e36100da565b5b60006101f28682870161013a565b935050602061020386828701610178565b9250506040610214868287016101b6565b9150509250925092565b60805160a05160c051613aa56102776000396000818161017d015261027501526000818161022d0152610465015260008181610141015281816102510152818161029b0152818161039e01526109bc0152613aa56000f3fe608060405234801561001057600080fd5b506004361061004c5760003560e01c8063267badea146100515780634a4a7b041461006d578063660d0d671461008b5780639ff78c30146100a9575b600080fd5b61006b60048036038101906100669190612610565b6100c7565b005b61007561022b565b60405161008291906126af565b60405180910390f35b61009361024f565b6040516100a091906126eb565b60405180910390f35b6100b1610273565b6040516100be9190612727565b60405180910390f35b6100cf610297565b6101326040516020016100e19061279f565b604051602081830303815290604052805190602001206040518060400160405280600a81526020017f434f4e54524f4c4c455200000000000000000000000000000000000000000000815250610463565b60006040518060c001604052807f000000000000000000000000000000000000000000000000000000000000000073ffffffffffffffffffffffffffffffffffffffff1681526020017f000000000000000000000000000000000000000000000000000000000000000073ffffffffffffffffffffffffffffffffffffffff168152602001836000013581526020018360200160208101906101d491906127f8565b60ff168152602001836040013581526020018360600160208101906101f99190612825565b73ffffffffffffffffffffffffffffffffffffffff16815250905061021e8382610546565b506102276109ba565b5050565b7f000000000000000000000000000000000000000000000000000000000000000081565b7f000000000000000000000000000000000000000000000000000000000000000081565b7f000000000000000000000000000000000000000000000000000000000000000081565b60007f000000000000000000000000000000000000000000000000000000000000000073ffffffffffffffffffffffffffffffffffffffff1663bd02d0f56040516020016102e49061289e565b604051602081830303815290604052805190602001206040518263ffffffff1660e01b815260040161031691906128d7565b602060405180830381865afa158015610333573d6000803e3d6000fd5b505050506040513d601f19601f820116820180604052508101906103579190612928565b90506000811461039c576040517f08c379a0000000000000000000000000000000000000000000000000000000008152600401610393906129a1565b60405180910390fd5b7f000000000000000000000000000000000000000000000000000000000000000073ffffffffffffffffffffffffffffffffffffffff1663e2a4853a6040516020016103e79061289e565b6040516020818303038152906040528051906020012060016040518363ffffffff1660e01b815260040161041c9291906129d0565b6020604051808303816000875af115801561043b573d6000803e3d6000fd5b505050506040513d601f19601f8201168201806040525081019061045f9190612928565b5050565b7f000000000000000000000000000000000000000000000000000000000000000073ffffffffffffffffffffffffffffffffffffffff1663ac4ab3fb33846040518363ffffffff1660e01b81526004016104be929190612a08565b602060405180830381865afa1580156104db573d6000803e3d6000fd5b505050506040513d601f19601f820116820180604052508101906104ff9190612a69565b6105425733816040517fa35b150b000000000000000000000000000000000000000000000000000000008152600401610539929190612b15565b60405180910390fd5b5050565b61054e6122d2565b6105618383600001518460400151610a80565b82604001836060018281525082905250506105cf8260000151826040015160000151600060ff166002811061059957610598612b45565b5b602002015160000151836040015160000151600160ff16600281106105c1576105c0612b45565b5b602002015160000151610aa1565b82600001836020018281525082905250506106028383600001518360000151846040015186606001518760800151610b5a565b816080018181525050806000015160000151826060015160ff166002811061062d5761062c612b45565b5b6020020151600001518160c0019073ffffffffffffffffffffffffffffffffffffffff16908173ffffffffffffffffffffffffffffffffffffffff16815250508060000151602001518160a0019073ffffffffffffffffffffffffffffffffffffffff16908173ffffffffffffffffffffffffffffffffffffffff16815250508060a0015173ffffffffffffffffffffffffffffffffffffffff1663078d3b798260c001518460a0015185608001516040518463ffffffff1660e01b81526004016106fa93929190612b74565b600060405180830381600087803b15801561071457600080fd5b505af1158015610728573d6000803e3d6000fd5b50505050600160ff16826060015160ff16036107925761074b8160000151610c1e565b81610140018181525050610791816040015160000151836060015160ff166002811061077a57610779612b45565b5b602002015182610140015183608001516000610cee565b5b6107ba81600001518260400151846060015184608001516107b290612be4565b600080610e7a565b73__$3d31b232fb363902662fbc281b11ab3357$__6370b5270e8360000151836060015184604001516040518463ffffffff1660e01b815260040161080193929190612dec565b60006040518083038186803b15801561081957600080fd5b505af415801561082d573d6000803e3d6000fd5b5050505073__$e0022d6f389ac14ff1ce1dc57a4018d0a3$__63be6afc398360000151836020015184600001516040518463ffffffff1660e01b815260040161087893929190612fbb565b60006040518083038186803b15801561089057600080fd5b505af41580156108a4573d6000803e3d6000fd5b505050506109b5826020015184836040015160000151600060ff16600281106108d0576108cf612b45565b5b602002015160000151846040015160000151600160ff16600281106108f8576108f7612b45565b5b602002015160000151866040015186608001518860a00151886040015160000151600060ff166002811061092f5761092e612b45565b5b602002015160200151896040015160000151600060ff166002811061095757610956612b45565b5b6020020151604001518a6040015160000151600160ff166002811061097f5761097e612b45565b5b6020020151602001518b6040015160000151600160ff16600281106109a7576109a6612b45565b5b60200201516040015161114f565b505050565b7f000000000000000000000000000000000000000000000000000000000000000073ffffffffffffffffffffffffffffffffffffffff1663e2a4853a604051602001610a059061289e565b6040516020818303038152906040528051906020012060006040518363ffffffff1660e01b8152600401610a3a9291906129d0565b6020604051808303816000875af1158015610a59573d6000803e3d6000fd5b505050506040513d601f19601f82011682018060405250810190610a7d9190612928565b50565b610a8861236a565b6000610a958585856111d9565b91509150935093915050565b610aa96123a7565b600080610ab68585611289565b9050600073__$e0022d6f389ac14ff1ce1dc57a4018d0a3$__637b82d74e88846040518363ffffffff1660e01b8152600401610af3929190612ff3565b61024060405180830381865af4158015610b11573d6000803e3d6000fd5b505050506040513d601f19601f82011682018060405250810190610b3591906132b1565b9050610b418183611327565b610b4a816113a0565b8082935093505050935093915050565b6000808203610b95576040517ffd9e68c400000000000000000000000000000000000000000000000000000000815260040160405180910390fd5b610b9e8361154c565b6000610bac86856000611558565b509250505080831115610bf85782816040517fe3f5a43f000000000000000000000000000000000000000000000000000000008152600401610bef9291906132df565b60405180910390fd5b610c108787878787610c0990612be4565b6000611657565b829150509695505050505050565b600080610c2d83600080611558565b50505090506000610c418460016000611558565b505050905060008103610c5957600092505050610ce9565b6000610c6a85606001516000611930565b90506000610c7d86606001516001611930565b90506000610ca4856b033b2e3c9fd0803ce800000085600a610c9f919061343b565b6119a3565b90506000610ccb856b033b2e3c9fd0803ce800000085600a610cc6919061343b565b6119a3565b9050610ce08183611aaa90919063ffffffff16565b96505050505050505b919050565b600260ff168460e0015103610d2457600060ff168460e0018181525050818460c001818152505082846080018181525050610e74565b600060ff168460e0015103610dbb5760008460c001519050828560c001818151610d4e9190613486565b915081815250508115610db5576000610d708486611af190919063ffffffff16565b610d87838860800151611af190919063ffffffff16565b610d919190613486565b9050610daa8660c0015182611aaa90919063ffffffff16565b866080018181525050505b50610e73565b600160ff168460e0015103610e7257818460a001511115610df457818460a001818151610de891906134ba565b91508181525050610e71565b818460a0015103610e2857600260ff168460e001818152505060008460a00181815250506000846060018181525050610e70565b600060ff168460e00181815250508360a0015182610e4691906134ba565b8460c00181815250508284608001818152505060008460a001818152505060008460600181815250505b5b5b5b5b50505050565b6000610e8584611b3c565b905060008412610f02578086600001518660ff1660028110610eaa57610ea9612b45565b5b6020020151602001818151610ebf9190613486565b915081815250508087600001518660ff1660028110610ee157610ee0612b45565b5b6020020151606001818151610ef69190613486565b91508181525050610f71565b8086600001518660ff1660028110610f1d57610f1c612b45565b5b6020020151602001818151610f3291906134ba565b915081815250508087600001518660ff1660028110610f5457610f53612b45565b5b6020020151606001818151610f6991906134ba565b915081815250505b811561100557600086600001518660ff1660028110610f9357610f92612b45565b5b60200201516040015190508088600001518760ff1660028110610fb957610fb8612b45565b5b602002015160a001818151610fce91906134ba565b91508181525050600087600001518760ff1660028110610ff157610ff0612b45565b5b602002015160400181815250505050611147565b600083036110135750611147565b600061101e84611b3c565b9050600061105789600001518860ff166002811061103f5761103e612b45565b5b60200201516020015183611aaa90919063ffffffff16565b9050600085126110d4578088600001518860ff166002811061107c5761107b612b45565b5b60200201516040018181516110919190613486565b915081815250508089600001518860ff16600281106110b3576110b2612b45565b5b602002015160a0018181516110c89190613486565b91508181525050611143565b8088600001518860ff16600281106110ef576110ee612b45565b5b602002015160400181815161110491906134ba565b915081815250508089600001518860ff166002811061112657611125612b45565b5b602002015160a00181815161113b91906134ba565b915081815250505b5050505b505050505050565b8a73ffffffffffffffffffffffffffffffffffffffff166382fcd8ca8b8b8b8b8b8b8b8b8b8b6040518b63ffffffff1660e01b815260040161119a9a999897969594939291906134ee565b600060405180830381600087803b1580156111b457600080fd5b505af11580156111c8573d6000803e3d6000fd5b505050505050505050505050505050565b6111e161236a565b6000806111ee8685611b58565b9050600073__$3d31b232fb363902662fbc281b11ab3357$__637b82d74e87846040518363ffffffff1660e01b815260040161122b929190612ff3565b61024060405180830381865af4158015611249573d6000803e3d6000fd5b505050506040513d601f19601f8201168201806040525081019061126d919061376e565b90506112798782611bb1565b8082935093505050935093915050565b60008173ffffffffffffffffffffffffffffffffffffffff168373ffffffffffffffffffffffffffffffffffffffff16106112c55781836112c8565b82825b80935081945050506040516020016112df906137e8565b60405160208183030381529060405280519060200120838360405160200161130993929190613808565b60405160208183030381529060405280519060200120905092915050565b600073ffffffffffffffffffffffffffffffffffffffff16826020015173ffffffffffffffffffffffffffffffffffffffff160361139c57806040517f7357d91f00000000000000000000000000000000000000000000000000000000815260040161139391906128d7565b60405180910390fd5b5050565b60006113aa611c99565b9050808260800151036113bd5750611549565b60008260000151600060ff16600281106113da576113d9612b45565b5b602002015160a001511461147d57600061141b8360000151600060ff166002811061140857611407612b45565b5b6020020151604001518460800151611ca1565b9050611453818460000151600060ff166002811061143c5761143b612b45565b5b602002015160200151611af190919063ffffffff16565b8360000151600060ff166002811061146e5761146d612b45565b5b60200201516020018181525050505b60008260000151600160ff166002811061149a57611499612b45565b5b602002015160a001511461153d5760006114db8360000151600160ff16600281106114c8576114c7612b45565b5b6020020151604001518460800151611ca1565b9050611513818460000151600160ff16600281106114fc576114fb612b45565b5b602002015160200151611af190919063ffffffff16565b8360000151600160ff166002811061152e5761152d612b45565b5b60200201516020018181525050505b80826080018181525050505b50565b61155581611cfc565b50565b600080600080600087600001518760ff166002811061157a57611579612b45565b5b60200201519050600061158d8989611d54565b9050600081036115ac576000806000809550955095509550505061164e565b60006115bc838b60800151611e5f565b905060008183106115df576115da8284611ea490919063ffffffff16565b6115e2565b60005b905060006115f98a85611af190919063ffffffff16565b90506000808b1461162b578382106116235761161e8483611ea490919063ffffffff16565b611626565b60005b61162e565b60005b9050838561163c9190613486565b85848399509950995099505050505050505b93509350935093565b61165f612408565b61166886610c1e565b816000018181525050611682868683600001516000611efd565b82602001836040018281525082815250505060008160200151036116d2576040517f6c53056d00000000000000000000000000000000000000000000000000000000815260040160405180910390fd5b6116e984876060015161193090919063ffffffff16565b8160600181815250506116fb83611b3c565b81608001818152505061172f81608001516b033b2e3c9fd0803ce80000008360600151600a61172a919061343b565b6119a3565b8160a0018181525050600160ff168460ff1614611750578060a0015161176c565b61176b81600001518260a00151611af190919063ffffffff16565b5b8160c001818152505061177e82611b3c565b8160e00181815250506117b28160e001516b033b2e3c9fd0803ce80000008360600151600a6117ad919061343b565b6119a3565b81610100018181525050600160ff168460ff16146117d5578061010001516117f2565b6117f18160000151826101000151611af190919063ffffffff16565b5b816101200181815250506000831361181d578060c00151816020015161181891906134ba565b611832565b8060c0015181602001516118319190613486565b5b816101400181815250506000821361185e57806101200151816040015161185991906134ba565b611874565b80610120015181604001516118739190613486565b5b816101600181815250506000816101600151036118915750611928565b6118ae816101600151826101400151611aaa90919063ffffffff16565b816101800181815250506118c18761212e565b816101a0018181525050806101a00151816101800151101561192657806101800151816101a001516040517f82d6353f00000000000000000000000000000000000000000000000000000000815260040161191d9291906132df565b60405180910390fd5b505b505050505050565b6000807fffffffffffffffffffffffffffffffffffffffff00ffffffffffffffffffffff9050600060589050600160ff168460ff1603611992577fffffffffffffffffffffffffffffffffffffff00ffffffffffffffffffffffff9150606090505b8082198616901c9250505092915050565b60008083850290506000801985870982811083820303915050600081036119de578382816119d4576119d361383f565b5b0492505050611aa3565b808411611a17576040517f227bc15300000000000000000000000000000000000000000000000000000000815260040160405180910390fd5b600084868809905082811182039150808303925060008560000386169050808604955080840493506001818260000304019050808302841793506000600287600302189050808702600203810290508087026002038102905080870260020381029050808702600203810290508087026002038102905080870260020381029050808502955050505050505b9392505050565b60006b033b2e3c9fd0803ce80000006002830460001903048311151582151715611ad357600080fd5b81600283046b033b2e3c9fd0803ce800000085020104905092915050565b6000816b019d971e4fe8401e740000006000190304831115821517611b1557600080fd5b6b033b2e3c9fd0803ce80000006b019d971e4fe8401e740000008385020104905092915050565b600080821215611b4f5781600003611b51565b815b9050919050565b6000604051602001611b69906138ba565b604051602081830303815290604052805190602001208383604051602001611b93939291906138da565b60405160208183030381529060405280519060200120905092915050565b600073ffffffffffffffffffffffffffffffffffffffff16816040015173ffffffffffffffffffffffffffffffffffffffff1603611c1b576040517f4dfbbff300000000000000000000000000000000000000000000000000000000815260040160405180910390fd5b806040015173ffffffffffffffffffffffffffffffffffffffff168273ffffffffffffffffffffffffffffffffffffffff1614611c95578060400151826040517f25c7157e000000000000000000000000000000000000000000000000000000008152600401611c8c929190613911565b60405180910390fd5b5050565b600042905090565b60008082611cad611c99565b611cb791906134ba565b84611cc2919061393a565b90506301e133808181611cd857611cd761383f565b5b049050806b033b2e3c9fd0803ce8000000611cf39190613486565b91505092915050565b600060ff168160ff1614158015611d1a5750600160ff168160ff1614155b15611d51576040517fa04d606c00000000000000000000000000000000000000000000000000000000815260040160405180910390fd5b50565b60008083600001518360ff1660028110611d7157611d70612b45565b5b602002015190506000846020015173ffffffffffffffffffffffffffffffffffffffff1663e42c08f283600001516040518263ffffffff1660e01b8152600401611dbb919061397c565b602060405180830381865afa158015611dd8573d6000803e3d6000fd5b505050506040513d601f19601f82011682018060405250810190611dfc9190612928565b905060008103611e1157600092505050611e59565b6000826060015190508260c0015181611e2a9190613486565b8210611e50578260c001518183611e4191906134ba565b611e4b91906134ba565b611e53565b60005b93505050505b92915050565b6000808360a0015103611e755760009050611e9e565b6000611e8184846121d5565b9050611e9a818560a00151611af190919063ffffffff16565b9150505b92915050565b6000828284611eb391906134ba565b9150811115611ef7576040517f08c379a0000000000000000000000000000000000000000000000000000000008152600401611eee906139e3565b60405180910390fd5b92915050565b6000806000808660000151600060ff1660028110611f1e57611f1d612b45565b5b60200201516000015173ffffffffffffffffffffffffffffffffffffffff168573ffffffffffffffffffffffffffffffffffffffff1614611ff857600080611f688a8a6000612224565b915091506000611f8660008c6060015161193090919063ffffffff16565b90506000611fad846b033b2e3c9fd0803ce800000084600a611fa8919061343b565b6119a3565b90506000611fd4846b033b2e3c9fd0803ce800000085600a611fcf919061343b565b6119a3565b90508187611fe29190613486565b96508086611ff09190613486565b955050505050505b8660000151600160ff166002811061201357612012612b45565b5b60200201516000015173ffffffffffffffffffffffffffffffffffffffff168573ffffffffffffffffffffffffffffffffffffffff161461211d5760008061205d8a8a6001612224565b91509150600061207b60018c6060015161193090919063ffffffff16565b905060006120a2846b033b2e3c9fd0803ce800000084600a61209d919061343b565b6119a3565b905060006120c9846b033b2e3c9fd0803ce800000085600a6120c4919061343b565b6119a3565b905060006120e08c84611af190919063ffffffff16565b905060006120f78d84611af190919063ffffffff16565b905081896121059190613486565b985080886121139190613486565b9750505050505050505b819350809250505094509492505050565b60008173ffffffffffffffffffffffffffffffffffffffff1663bd02d0f560405160200161215b90613a4f565b604051602081830303815290604052805190602001206040518263ffffffff1660e01b815260040161218d91906128d7565b602060405180830381865afa1580156121aa573d6000803e3d6000fd5b505050506040513d601f19601f820116820180604052508101906121ce9190612928565b9050919050565b60006121df611c99565b82036121f1578260200151905061221e565b6000612201846040015184611ca1565b905061221a846020015182611af190919063ffffffff16565b9150505b92915050565b600080600084600001518460ff166002811061224357612242612b45565b5b6020020151604001519050600061227c87600001518660ff166002811061226d5761226c612b45565b5b602002015188608001516121d5565b90506000821461229e576122998183611af190919063ffffffff16565b6122a1565b60005b925085600001518560ff16600281106122bd576122bc612b45565b5b60200201516020015193505050935093915050565b6040518061016001604052806122e66123a7565b8152602001600080191681526020016122fd61236a565b81526020016000801916815260200160008152602001600073ffffffffffffffffffffffffffffffffffffffff168152602001600073ffffffffffffffffffffffffffffffffffffffff168152602001600081526020016000815260200160008152602001600081525090565b604051806060016040528061237d612477565b815260200160008152602001600073ffffffffffffffffffffffffffffffffffffffff1681525090565b6040518060a001604052806123ba6124a4565b8152602001600073ffffffffffffffffffffffffffffffffffffffff168152602001600073ffffffffffffffffffffffffffffffffffffffff16815260200160008152602001600081525090565b604051806101c0016040528060008152602001600081526020016000815260200160008152602001600081526020016000815260200160008152602001600081526020016000815260200160008152602001600081526020016000815260200160008152602001600081525090565b60405180604001604052806002905b61248e6124d1565b8152602001906001900390816124865790505090565b60405180604001604052806002905b6124bb61252c565b8152602001906001900390816124b35790505090565b604051806101000160405280600073ffffffffffffffffffffffffffffffffffffffff168152602001600081526020016000815260200160008152602001600081526020016000815260200160008152602001600081525090565b6040518060e00160405280600073ffffffffffffffffffffffffffffffffffffffff1681526020016000815260200160008152602001600081526020016000815260200160008152602001600081525090565b6000604051905090565b600080fd5b600073ffffffffffffffffffffffffffffffffffffffff82169050919050565b60006125b98261258e565b9050919050565b6125c9816125ae565b81146125d457600080fd5b50565b6000813590506125e6816125c0565b92915050565b600080fd5b600060808284031215612607576126066125ec565b5b81905092915050565b60008060a0838503121561262757612626612589565b5b6000612635858286016125d7565b9250506020612646858286016125f1565b9150509250929050565b6000819050919050565b600061267561267061266b8461258e565b612650565b61258e565b9050919050565b60006126878261265a565b9050919050565b60006126998261267c565b9050919050565b6126a98161268e565b82525050565b60006020820190506126c460008301846126a0565b92915050565b60006126d58261267c565b9050919050565b6126e5816126ca565b82525050565b600060208201905061270060008301846126dc565b92915050565b60006127118261267c565b9050919050565b61272181612706565b82525050565b600060208201905061273c6000830184612718565b92915050565b600082825260208201905092915050565b7f434f4e54524f4c4c455200000000000000000000000000000000000000000000600082015250565b6000612789600a83612742565b915061279482612753565b602082019050919050565b600060208201905081810360008301526127b88161277c565b9050919050565b600060ff82169050919050565b6127d5816127bf565b81146127e057600080fd5b50565b6000813590506127f2816127cc565b92915050565b60006020828403121561280e5761280d612589565b5b600061281c848285016127e3565b91505092915050565b60006020828403121561283b5761283a612589565b5b6000612849848285016125d7565b91505092915050565b7f5245454e5452414e43595f47554152445f535441545553000000000000000000600082015250565b6000612888601783612742565b915061289382612852565b602082019050919050565b600060208201905081810360008301526128b78161287b565b9050919050565b6000819050919050565b6128d1816128be565b82525050565b60006020820190506128ec60008301846128c8565b92915050565b6000819050919050565b612905816128f2565b811461291057600080fd5b50565b600081519050612922816128fc565b92915050565b60006020828403121561293e5761293d612589565b5b600061294c84828501612913565b91505092915050565b7f5265656e7472616e637947756172643a207265656e7472616e742063616c6c00600082015250565b600061298b601f83612742565b915061299682612955565b602082019050919050565b600060208201905081810360008301526129ba8161297e565b9050919050565b6129ca816128f2565b82525050565b60006040820190506129e560008301856128c8565b6129f260208301846129c1565b9392505050565b612a02816125ae565b82525050565b6000604082019050612a1d60008301856129f9565b612a2a60208301846128c8565b9392505050565b60008115159050919050565b612a4681612a31565b8114612a5157600080fd5b50565b600081519050612a6381612a3d565b92915050565b600060208284031215612a7f57612a7e612589565b5b6000612a8d84828501612a54565b91505092915050565b600081519050919050565b60005b83811015612abf578082015181840152602081019050612aa4565b60008484015250505050565b6000601f19601f8301169050919050565b6000612ae782612a96565b612af18185612742565b9350612b01818560208601612aa1565b612b0a81612acb565b840191505092915050565b6000604082019050612b2a60008301856129f9565b8181036020830152612b3c8184612adc565b90509392505050565b7f4e487b7100000000000000000000000000000000000000000000000000000000600052603260045260246000fd5b6000606082019050612b8960008301866129f9565b612b9660208301856129f9565b612ba360408301846129c1565b949350505050565b6000819050919050565b7f4e487b7100000000000000000000000000000000000000000000000000000000600052601160045260246000fd5b6000612bef82612bab565b91507f80000000000000000000000000000000000000000000000000000000000000008203612c2157612c20612bb5565b5b816000039050919050565b612c35816125ae565b82525050565b612c44816128be565b82525050565b600060029050919050565b600081905092915050565b6000819050919050565b612c73816125ae565b82525050565b612c82816128f2565b82525050565b61010082016000820151612c9f6000850182612c6a565b506020820151612cb26020850182612c79565b506040820151612cc56040850182612c79565b506060820151612cd86060850182612c79565b506080820151612ceb6080850182612c79565b5060a0820151612cfe60a0850182612c79565b5060c0820151612d1160c0850182612c79565b5060e0820151612d2460e0850182612c79565b50505050565b6000612d368383612c88565b6101008301905092915050565b6000602082019050919050565b612d5981612c4a565b612d638184612c55565b9250612d6e82612c60565b8060005b83811015612d9f578151612d868782612d2a565b9650612d9183612d43565b925050600181019050612d72565b505050505050565b61024082016000820151612dbe6000850182612d50565b506020820151612dd2610200850182612c79565b506040820151612de6610220850182612c6a565b50505050565b600061028082019050612e026000830186612c2c565b612e0f6020830185612c3b565b612e1c6040830184612da7565b949350505050565b600060029050919050565b600081905092915050565b6000819050919050565b60e082016000820151612e5a6000850182612c6a565b506020820151612e6d6020850182612c79565b506040820151612e806040850182612c79565b506060820151612e936060850182612c79565b506080820151612ea66080850182612c79565b5060a0820151612eb960a0850182612c79565b5060c0820151612ecc60c0850182612c79565b50505050565b6000612ede8383612e44565b60e08301905092915050565b6000602082019050919050565b612f0081612e24565b612f0a8184612e2f565b9250612f1582612e3a565b8060005b83811015612f46578151612f2d8782612ed2565b9650612f3883612eea565b925050600181019050612f19565b505050505050565b61024082016000820151612f656000850182612ef7565b506020820151612f796101c0850182612c6a565b506040820151612f8d6101e0850182612c6a565b506060820151612fa1610200850182612c79565b506080820151612fb5610220850182612c79565b50505050565b600061028082019050612fd16000830186612c2c565b612fde6020830185612c3b565b612feb6040830184612f4e565b949350505050565b60006040820190506130086000830185612c2c565b6130156020830184612c3b565b9392505050565b600080fd5b7f4e487b7100000000000000000000000000000000000000000000000000000000600052604160045260246000fd5b61305982612acb565b810181811067ffffffffffffffff8211171561307857613077613021565b5b80604052505050565b600061308b61257f565b90506130978282613050565b919050565b600080fd5b600067ffffffffffffffff8211156130bc576130bb613021565b5b602082029050919050565b600080fd5b6000815190506130db816125c0565b92915050565b600060e082840312156130f7576130f661301c565b5b61310160e0613081565b90506000613111848285016130cc565b600083015250602061312584828501612913565b602083015250604061313984828501612913565b604083015250606061314d84828501612913565b606083015250608061316184828501612913565b60808301525060a061317584828501612913565b60a08301525060c061318984828501612913565b60c08301525092915050565b60006131a86131a3846130a1565b613081565b90508060e084028301858111156131c2576131c16130c7565b5b835b818110156131eb57806131d788826130e1565b84526020840193505060e0810190506131c4565b5050509392505050565b600082601f83011261320a5761320961309c565b5b6002613217848285613195565b91505092915050565b600061024082840312156132375761323661301c565b5b61324160a0613081565b90506000613251848285016131f5565b6000830152506101c0613266848285016130cc565b6020830152506101e061327b848285016130cc565b60408301525061020061329084828501612913565b6060830152506102206132a584828501612913565b60808301525092915050565b600061024082840312156132c8576132c7612589565b5b60006132d684828501613220565b91505092915050565b60006040820190506132f460008301856129c1565b61330160208301846129c1565b9392505050565b60008160011c9050919050565b6000808291508390505b600185111561335f5780860481111561333b5761333a612bb5565b5b600185161561334a5780820291505b808102905061335885613308565b945061331f565b94509492505050565b6000826133785760019050613434565b816133865760009050613434565b816001811461339c57600281146133a6576133d5565b6001915050613434565b60ff8411156133b8576133b7612bb5565b5b8360020a9150848211156133cf576133ce612bb5565b5b50613434565b5060208310610133831016604e8410600b841016171561340a5782820a90508381111561340557613404612bb5565b5b613434565b6134178484846001613315565b9250905081840481111561342e5761342d612bb5565b5b81810290505b9392505050565b6000613446826128f2565b9150613451836128f2565b925061347e7fffffffffffffffffffffffffffffffffffffffffffffffffffffffffffffffff8484613368565b905092915050565b6000613491826128f2565b915061349c836128f2565b92508282019050808211156134b4576134b3612bb5565b5b92915050565b60006134c5826128f2565b91506134d0836128f2565b92508282039050818111156134e8576134e7612bb5565b5b92915050565b600061014082019050613504600083018d6129f9565b613511602083018c6129f9565b61351e604083018b6129f9565b61352b606083018a6129c1565b61353860808301896129c1565b61354560a08301886129f9565b61355260c08301876129c1565b61355f60e08301866129c1565b61356d6101008301856129c1565b61357b6101208301846129c1565b9b9a5050505050505050505050565b600067ffffffffffffffff8211156135a5576135a4613021565b5b602082029050919050565b600061010082840312156135c7576135c661301c565b5b6135d2610100613081565b905060006135e2848285016130cc565b60008301525060206135f684828501612913565b602083015250604061360a84828501612913565b604083015250606061361e84828501612913565b606083015250608061363284828501612913565b60808301525060a061364684828501612913565b60a08301525060c061365a84828501612913565b60c08301525060e061366e84828501612913565b60e08301525092915050565b600061368d6136888461358a565b613081565b90508061010084028301858111156136a8576136a76130c7565b5b835b818110156136d257806136bd88826135b0565b845260208401935050610100810190506136aa565b5050509392505050565b600082601f8301126136f1576136f061309c565b5b60026136fe84828561367a565b91505092915050565b6000610240828403121561371e5761371d61301c565b5b6137286060613081565b90506000613738848285016136dc565b60008301525061020061374d84828501612913565b602083015250610220613762848285016130cc565b60408301525092915050565b6000610240828403121561378557613784612589565b5b600061379384828501613707565b91505092915050565b7f504f4f4c00000000000000000000000000000000000000000000000000000000600082015250565b60006137d2600483612742565b91506137dd8261379c565b602082019050919050565b60006020820190508181036000830152613801816137c5565b9050919050565b600060608201905061381d60008301866128c8565b61382a60208301856129f9565b61383760408301846129f9565b949350505050565b7f4e487b7100000000000000000000000000000000000000000000000000000000600052601260045260246000fd5b7f504f534954494f4e000000000000000000000000000000000000000000000000600082015250565b60006138a4600883612742565b91506138af8261386e565b602082019050919050565b600060208201905081810360008301526138d381613897565b9050919050565b60006060820190506138ef60008301866128c8565b6138fc60208301856129f9565b61390960408301846129c1565b949350505050565b600060408201905061392660008301856129f9565b61393360208301846129f9565b9392505050565b6000613945826128f2565b9150613950836128f2565b925082820261395e816128f2565b9150828204841483151761397557613974612bb5565b5b5092915050565b600060208201905061399160008301846129f9565b92915050565b7f64732d6d6174682d7375622d756e646572666c6f770000000000000000000000600082015250565b60006139cd601583612742565b91506139d882613997565b602082019050919050565b600060208201905081810360008301526139fc816139c0565b9050919050565b7f4d415247494e5f4c4556454c4c5f5448524553484f4c44000000000000000000600082015250565b6000613a39601783612742565b9150613a4482613a03565b602082019050919050565b60006020820190508181036000830152613a6881613a2c565b905091905056fea264697066735822122080f8879d629ada7734d6f385e43e4e6d834c2f9c4e91f44ad369a7ae4583524464736f6c634300081c0033",
  "linkReferences": {
    "contracts/pool/PoolStoreUtils.sol": {
      "PoolStoreUtils": [
        {
          "length": 20,
          "start": 2730
        },
        {
          "length": 20,
          "start": 3379
        }
      ]
    },
    "contracts/position/PositionStoreUtils.sol": {
      "PositionStoreUtils": [
        {
          "length": 20,
          "start": 2611
        },
        {
          "length": 20,
          "start": 5227
        }
      ]
    }
  },
  "deployedLinkReferences": {
    "contracts/pool/PoolStoreUtils.sol": {
      "PoolStoreUtils": [
        {
          "length": 20,
          "start": 2099
        },
        {
          "length": 20,
          "start": 2748
        }
      ]
    },
    "contracts/position/PositionStoreUtils.sol": {
      "PositionStoreUtils": [
        {
          "length": 20,
          "start": 1980
        },
        {
          "length": 20,
          "start": 4596
        }
      ]
    }
  }
}