{
  "_format": "hh-sol-artifact-1",
  "contractName": "WithdrawHandler",
  "sourceName": "contracts/exchange/WithdrawHandler.sol",
  "abi": [
    {
      "inputs": [
        {
          "internalType": "contract RoleStore",
          "name": "_roleStore",
          "type": "address"
        },
        {
          "internalType": "contract DataStore",
          "name": "_dataStore",
          "type": "address"
        },
        {
          "internalType": "contract EventEmitter",
          "name": "_eventEmitter",
          "type": "address"
        }
      ],
      "stateMutability": "nonpayable",
      "type": "constructor"
    },
    {
      "inputs": [
        {
          "internalType": "address",
          "name": "accountInPosition",
          "type": "address"
        },
        {
          "internalType": "address",
          "name": "account",
          "type": "address"
        }
      ],
      "name": "AccountNotMatch",
      "type": "error"
    },
    {
      "inputs": [],
      "name": "EmptyCollateral",
      "type": "error"
    },
    {
      "inputs": [
        {
          "internalType": "bytes32",
          "name": "key",
          "type": "bytes32"
        }
      ],
      "name": "EmptyPool",
      "type": "error"
    },
    {
      "inputs": [],
      "name": "EmptyPosition",
      "type": "error"
    },
    {
      "inputs": [],
      "name": "EmptyWithdrawAmounts",
      "type": "error"
    },
    {
      "inputs": [
        {
          "internalType": "uint256",
          "name": "amountToWithdraw",
          "type": "uint256"
        },
        {
          "internalType": "uint256",
          "name": "availableReserve",
          "type": "uint256"
        }
      ],
      "name": "InsufficientReverveForWithdraw",
      "type": "error"
    },
    {
      "inputs": [
        {
          "internalType": "uint256",
          "name": "marginLevel",
          "type": "uint256"
        },
        {
          "internalType": "uint256",
          "name": "marginLevelThreshold",
          "type": "uint256"
        }
      ],
      "name": "MarginBelowThreshold",
      "type": "error"
    },
    {
      "inputs": [],
      "name": "MathOverflowedMulDiv",
      "type": "error"
    },
    {
      "inputs": [],
      "name": "TokenIndexNotSupport",
      "type": "error"
    },
    {
      "inputs": [
        {
          "internalType": "address",
          "name": "msgSender",
          "type": "address"
        },
        {
          "internalType": "string",
          "name": "role",
          "type": "string"
        }
      ],
      "name": "Unauthorized",
      "type": "error"
    },
    {
      "inputs": [],
      "name": "dataStore",
      "outputs": [
        {
          "internalType": "contract DataStore",
          "name": "",
          "type": "address"
        }
      ],
      "stateMutability": "view",
      "type": "function"
    },
    {
      "inputs": [],
      "name": "eventEmitter",
      "outputs": [
        {
          "internalType": "contract EventEmitter",
          "name": "",
          "type": "address"
        }
      ],
      "stateMutability": "view",
      "type": "function"
    },
    {
      "inputs": [
        {
          "internalType": "address",
          "name": "account",
          "type": "address"
        },
        {
          "components": [
            {
              "internalType": "uint256",
              "name": "positionId",
              "type": "uint256"
            },
            {
              "internalType": "uint8",
              "name": "tokenIndex",
              "type": "uint8"
            },
            {
              "internalType": "uint256",
              "name": "withdrawAmount",
              "type": "uint256"
            },
            {
              "internalType": "address",
              "name": "to",
              "type": "address"
            }
          ],
          "internalType": "struct WithdrawUtils.WithdrawParams",
          "name": "withdrawParams",
          "type": "tuple"
        }
      ],
      "name": "executeWithdraw",
      "outputs": [],
      "stateMutability": "nonpayable",
      "type": "function"
    },
    {
      "inputs": [],
      "name": "roleStore",
      "outputs": [
        {
          "internalType": "contract RoleStore",
          "name": "",
          "type": "address"
        }
      ],
      "stateMutability": "view",
      "type": "function"
    }
  ],
  "bytecode": "0x60e060405234801561001057600080fd5b50604051613cd3380380613cd3833981810160405281019061003291906101cb565b82828073ffffffffffffffffffffffffffffffffffffffff1660808173ffffffffffffffffffffffffffffffffffffffff1681525050508073ffffffffffffffffffffffffffffffffffffffff1660a08173ffffffffffffffffffffffffffffffffffffffff1681525050508073ffffffffffffffffffffffffffffffffffffffff1660c08173ffffffffffffffffffffffffffffffffffffffff168152505050505061021e565b600080fd5b600073ffffffffffffffffffffffffffffffffffffffff82169050919050565b600061010a826100df565b9050919050565b600061011c826100ff565b9050919050565b61012c81610111565b811461013757600080fd5b50565b60008151905061014981610123565b92915050565b600061015a826100ff565b9050919050565b61016a8161014f565b811461017557600080fd5b50565b60008151905061018781610161565b92915050565b6000610198826100ff565b9050919050565b6101a88161018d565b81146101b357600080fd5b50565b6000815190506101c58161019f565b92915050565b6000806000606084860312156101e4576101e36100da565b5b60006101f28682870161013a565b935050602061020386828701610178565b9250506040610214868287016101b6565b9150509250925092565b60805160a05160c051613a5c6102776000396000818161017d015261027501526000818161022d0152610465015260008181610141015281816102510152818161029b0152818161039e01526109bc0152613a5c6000f3fe608060405234801561001057600080fd5b506004361061004c5760003560e01c8063267badea146100515780634a4a7b041461006d578063660d0d671461008b5780639ff78c30146100a9575b600080fd5b61006b600480360381019061006691906125c7565b6100c7565b005b61007561022b565b6040516100829190612666565b60405180910390f35b61009361024f565b6040516100a091906126a2565b60405180910390f35b6100b1610273565b6040516100be91906126de565b60405180910390f35b6100cf610297565b6101326040516020016100e190612756565b604051602081830303815290604052805190602001206040518060400160405280600a81526020017f434f4e54524f4c4c455200000000000000000000000000000000000000000000815250610463565b60006040518060c001604052807f000000000000000000000000000000000000000000000000000000000000000073ffffffffffffffffffffffffffffffffffffffff1681526020017f000000000000000000000000000000000000000000000000000000000000000073ffffffffffffffffffffffffffffffffffffffff168152602001836000013581526020018360200160208101906101d491906127af565b60ff168152602001836040013581526020018360600160208101906101f991906127dc565b73ffffffffffffffffffffffffffffffffffffffff16815250905061021e8382610546565b506102276109ba565b5050565b7f000000000000000000000000000000000000000000000000000000000000000081565b7f000000000000000000000000000000000000000000000000000000000000000081565b7f000000000000000000000000000000000000000000000000000000000000000081565b60007f000000000000000000000000000000000000000000000000000000000000000073ffffffffffffffffffffffffffffffffffffffff1663bd02d0f56040516020016102e490612855565b604051602081830303815290604052805190602001206040518263ffffffff1660e01b8152600401610316919061288e565b602060405180830381865afa158015610333573d6000803e3d6000fd5b505050506040513d601f19601f8201168201806040525081019061035791906128df565b90506000811461039c576040517f08c379a000000000000000000000000000000000000000000000000000000000815260040161039390612958565b60405180910390fd5b7f000000000000000000000000000000000000000000000000000000000000000073ffffffffffffffffffffffffffffffffffffffff1663e2a4853a6040516020016103e790612855565b6040516020818303038152906040528051906020012060016040518363ffffffff1660e01b815260040161041c929190612987565b6020604051808303816000875af115801561043b573d6000803e3d6000fd5b505050506040513d601f19601f8201168201806040525081019061045f91906128df565b5050565b7f000000000000000000000000000000000000000000000000000000000000000073ffffffffffffffffffffffffffffffffffffffff1663ac4ab3fb33846040518363ffffffff1660e01b81526004016104be9291906129bf565b602060405180830381865afa1580156104db573d6000803e3d6000fd5b505050506040513d601f19601f820116820180604052508101906104ff9190612a20565b6105425733816040517fa35b150b000000000000000000000000000000000000000000000000000000008152600401610539929190612acc565b60405180910390fd5b5050565b61054e612289565b6105618383600001518460400151610a80565b82604001836060018281525082905250506105cf8260000151826040015160000151600060ff166002811061059957610598612afc565b5b602002015160000151836040015160000151600160ff16600281106105c1576105c0612afc565b5b602002015160000151610aa1565b82600001836020018281525082905250506106028383600001518360000151846040015186606001518760800151610b5a565b816080018181525050806000015160000151826060015160ff166002811061062d5761062c612afc565b5b6020020151600001518160c0019073ffffffffffffffffffffffffffffffffffffffff16908173ffffffffffffffffffffffffffffffffffffffff16815250508060000151602001518160a0019073ffffffffffffffffffffffffffffffffffffffff16908173ffffffffffffffffffffffffffffffffffffffff16815250508060a0015173ffffffffffffffffffffffffffffffffffffffff1663078d3b798260c001518460a0015185608001516040518463ffffffff1660e01b81526004016106fa93929190612b2b565b600060405180830381600087803b15801561071457600080fd5b505af1158015610728573d6000803e3d6000fd5b50505050600160ff16826060015160ff16036107925761074b8160000151610c1e565b81610140018181525050610791816040015160000151836060015160ff166002811061077a57610779612afc565b5b602002015182610140015183608001516000610cee565b5b6107ba81600001518260400151846060015184608001516107b290612b9b565b600080610e7a565b73__$3d31b232fb363902662fbc281b11ab3357$__6370b5270e8360000151836060015184604001516040518463ffffffff1660e01b815260040161080193929190612da3565b60006040518083038186803b15801561081957600080fd5b505af415801561082d573d6000803e3d6000fd5b5050505073__$e0022d6f389ac14ff1ce1dc57a4018d0a3$__63be6afc398360000151836020015184600001516040518463ffffffff1660e01b815260040161087893929190612f72565b60006040518083038186803b15801561089057600080fd5b505af41580156108a4573d6000803e3d6000fd5b505050506109b5826020015184836040015160000151600060ff16600281106108d0576108cf612afc565b5b602002015160000151846040015160000151600160ff16600281106108f8576108f7612afc565b5b602002015160000151866040015186608001518860a00151886040015160000151600060ff166002811061092f5761092e612afc565b5b602002015160200151896040015160000151600060ff166002811061095757610956612afc565b5b6020020151604001518a6040015160000151600160ff166002811061097f5761097e612afc565b5b6020020151602001518b6040015160000151600160ff16600281106109a7576109a6612afc565b5b60200201516040015161114f565b505050565b7f000000000000000000000000000000000000000000000000000000000000000073ffffffffffffffffffffffffffffffffffffffff1663e2a4853a604051602001610a0590612855565b6040516020818303038152906040528051906020012060006040518363ffffffff1660e01b8152600401610a3a929190612987565b6020604051808303816000875af1158015610a59573d6000803e3d6000fd5b505050506040513d601f19601f82011682018060405250810190610a7d91906128df565b50565b610a88612321565b6000610a958585856111d9565b91509150935093915050565b610aa961235e565b600080610ab68585611289565b9050600073__$e0022d6f389ac14ff1ce1dc57a4018d0a3$__637b82d74e88846040518363ffffffff1660e01b8152600401610af3929190612faa565b61024060405180830381865af4158015610b11573d6000803e3d6000fd5b505050506040513d601f19601f82011682018060405250810190610b359190613268565b9050610b418183611327565b610b4a816113a0565b8082935093505050935093915050565b6000808203610b95576040517ffd9e68c400000000000000000000000000000000000000000000000000000000815260040160405180910390fd5b610b9e8361154c565b6000610bac86856000611558565b509250505080831115610bf85782816040517fe3f5a43f000000000000000000000000000000000000000000000000000000008152600401610bef929190613296565b60405180910390fd5b610c108787878787610c0990612b9b565b600061162c565b829150509695505050505050565b600080610c2d83600080611558565b50505090506000610c418460016000611558565b505050905060008103610c5957600092505050610ce9565b6000610c6a85606001516000611905565b90506000610c7d86606001516001611905565b90506000610ca4856b033b2e3c9fd0803ce800000085600a610c9f91906133f2565b611978565b90506000610ccb856b033b2e3c9fd0803ce800000085600a610cc691906133f2565b611978565b9050610ce08183611a7f90919063ffffffff16565b96505050505050505b919050565b600260ff168460e0015103610d2457600060ff168460e0018181525050818460c001818152505082846080018181525050610e74565b600060ff168460e0015103610dbb5760008460c001519050828560c001818151610d4e919061343d565b915081815250508115610db5576000610d708486611ac690919063ffffffff16565b610d87838860800151611ac690919063ffffffff16565b610d91919061343d565b9050610daa8660c0015182611a7f90919063ffffffff16565b866080018181525050505b50610e73565b600160ff168460e0015103610e7257818460a001511115610df457818460a001818151610de89190613471565b91508181525050610e71565b818460a0015103610e2857600260ff168460e001818152505060008460a00181815250506000846060018181525050610e70565b600060ff168460e00181815250508360a0015182610e469190613471565b8460c00181815250508284608001818152505060008460a001818152505060008460600181815250505b5b5b5b5b50505050565b6000610e8584611b11565b905060008412610f02578086600001518660ff1660028110610eaa57610ea9612afc565b5b6020020151602001818151610ebf919061343d565b915081815250508087600001518660ff1660028110610ee157610ee0612afc565b5b6020020151606001818151610ef6919061343d565b91508181525050610f71565b8086600001518660ff1660028110610f1d57610f1c612afc565b5b6020020151602001818151610f329190613471565b915081815250508087600001518660ff1660028110610f5457610f53612afc565b5b6020020151606001818151610f699190613471565b915081815250505b811561100557600086600001518660ff1660028110610f9357610f92612afc565b5b60200201516040015190508088600001518760ff1660028110610fb957610fb8612afc565b5b602002015160a001818151610fce9190613471565b91508181525050600087600001518760ff1660028110610ff157610ff0612afc565b5b602002015160400181815250505050611147565b600083036110135750611147565b600061101e84611b11565b9050600061105789600001518860ff166002811061103f5761103e612afc565b5b60200201516020015183611a7f90919063ffffffff16565b9050600085126110d4578088600001518860ff166002811061107c5761107b612afc565b5b6020020151604001818151611091919061343d565b915081815250508089600001518860ff16600281106110b3576110b2612afc565b5b602002015160a0018181516110c8919061343d565b91508181525050611143565b8088600001518860ff16600281106110ef576110ee612afc565b5b60200201516040018181516111049190613471565b915081815250508089600001518860ff166002811061112657611125612afc565b5b602002015160a00181815161113b9190613471565b915081815250505b5050505b505050505050565b8a73ffffffffffffffffffffffffffffffffffffffff166382fcd8ca8b8b8b8b8b8b8b8b8b8b6040518b63ffffffff1660e01b815260040161119a9a999897969594939291906134a5565b600060405180830381600087803b1580156111b457600080fd5b505af11580156111c8573d6000803e3d6000fd5b505050505050505050505050505050565b6111e1612321565b6000806111ee8685611b2d565b9050600073__$3d31b232fb363902662fbc281b11ab3357$__637b82d74e87846040518363ffffffff1660e01b815260040161122b929190612faa565b61024060405180830381865af4158015611249573d6000803e3d6000fd5b505050506040513d601f19601f8201168201806040525081019061126d9190613725565b90506112798782611b86565b8082935093505050935093915050565b60008173ffffffffffffffffffffffffffffffffffffffff168373ffffffffffffffffffffffffffffffffffffffff16106112c55781836112c8565b82825b80935081945050506040516020016112df9061379f565b604051602081830303815290604052805190602001208383604051602001611309939291906137bf565b60405160208183030381529060405280519060200120905092915050565b600073ffffffffffffffffffffffffffffffffffffffff16826020015173ffffffffffffffffffffffffffffffffffffffff160361139c57806040517f7357d91f000000000000000000000000000000000000000000000000000000008152600401611393919061288e565b60405180910390fd5b5050565b60006113aa611c6e565b9050808260800151036113bd5750611549565b60008260000151600060ff16600281106113da576113d9612afc565b5b602002015160a001511461147d57600061141b8360000151600060ff166002811061140857611407612afc565b5b6020020151604001518460800151611c76565b9050611453818460000151600060ff166002811061143c5761143b612afc565b5b602002015160200151611ac690919063ffffffff16565b8360000151600060ff166002811061146e5761146d612afc565b5b60200201516020018181525050505b60008260000151600160ff166002811061149a57611499612afc565b5b602002015160a001511461153d5760006114db8360000151600160ff16600281106114c8576114c7612afc565b5b6020020151604001518460800151611c76565b9050611513818460000151600160ff16600281106114fc576114fb612afc565b5b602002015160200151611ac690919063ffffffff16565b8360000151600160ff166002811061152e5761152d612afc565b5b60200201516020018181525050505b80826080018181525050505b50565b61155581611cd1565b50565b600080600080600087600001518760ff166002811061157a57611579612afc565b5b60200201519050600061158d8989611d29565b9050600081036115ac5760008060008095509550955095505050611623565b60006115bc838b60800151611e16565b905060006115d38984611ac690919063ffffffff16565b90506000808a146115f6576115f18383611e5b90919063ffffffff16565b6115f9565b60005b90508284611607919061343d565b8484866116149190613471565b83985098509850985050505050505b93509350935093565b6116346123bf565b61163d86610c1e565b816000018181525050611657868683600001516000611eb4565b82602001836040018281525082815250505060008160200151036116a7576040517f6c53056d00000000000000000000000000000000000000000000000000000000815260040160405180910390fd5b6116be84876060015161190590919063ffffffff16565b8160600181815250506116d083611b11565b81608001818152505061170481608001516b033b2e3c9fd0803ce80000008360600151600a6116ff91906133f2565b611978565b8160a0018181525050600160ff168460ff1614611725578060a00151611741565b61174081600001518260a00151611ac690919063ffffffff16565b5b8160c001818152505061175382611b11565b8160e00181815250506117878160e001516b033b2e3c9fd0803ce80000008360600151600a61178291906133f2565b611978565b81610100018181525050600160ff168460ff16146117aa578061010001516117c7565b6117c68160000151826101000151611ac690919063ffffffff16565b5b81610120018181525050600083136117f2578060c0015181602001516117ed9190613471565b611807565b8060c001518160200151611806919061343d565b5b816101400181815250506000821361183357806101200151816040015161182e9190613471565b611849565b8061012001518160400151611848919061343d565b5b8161016001818152505060008161016001510361186657506118fd565b611883816101600151826101400151611a7f90919063ffffffff16565b81610180018181525050611896876120e5565b816101a0018181525050806101a0015181610180015110156118fb57806101800151816101a001516040517f82d6353f0000000000000000000000000000000000000000000000000000000081526004016118f2929190613296565b60405180910390fd5b505b505050505050565b6000807fffffffffffffffffffffffffffffffffffffffff00ffffffffffffffffffffff9050600060589050600160ff168460ff1603611967577fffffffffffffffffffffffffffffffffffffff00ffffffffffffffffffffffff9150606090505b8082198616901c9250505092915050565b60008083850290506000801985870982811083820303915050600081036119b3578382816119a9576119a86137f6565b5b0492505050611a78565b8084116119ec576040517f227bc15300000000000000000000000000000000000000000000000000000000815260040160405180910390fd5b600084868809905082811182039150808303925060008560000386169050808604955080840493506001818260000304019050808302841793506000600287600302189050808702600203810290508087026002038102905080870260020381029050808702600203810290508087026002038102905080870260020381029050808502955050505050505b9392505050565b60006b033b2e3c9fd0803ce80000006002830460001903048311151582151715611aa857600080fd5b81600283046b033b2e3c9fd0803ce800000085020104905092915050565b6000816b019d971e4fe8401e740000006000190304831115821517611aea57600080fd5b6b033b2e3c9fd0803ce80000006b019d971e4fe8401e740000008385020104905092915050565b600080821215611b245781600003611b26565b815b9050919050565b6000604051602001611b3e90613871565b604051602081830303815290604052805190602001208383604051602001611b6893929190613891565b60405160208183030381529060405280519060200120905092915050565b600073ffffffffffffffffffffffffffffffffffffffff16816040015173ffffffffffffffffffffffffffffffffffffffff1603611bf0576040517f4dfbbff300000000000000000000000000000000000000000000000000000000815260040160405180910390fd5b806040015173ffffffffffffffffffffffffffffffffffffffff168273ffffffffffffffffffffffffffffffffffffffff1614611c6a578060400151826040517f25c7157e000000000000000000000000000000000000000000000000000000008152600401611c619291906138c8565b60405180910390fd5b5050565b600042905090565b60008082611c82611c6e565b611c8c9190613471565b84611c9791906138f1565b90506301e133808181611cad57611cac6137f6565b5b049050806b033b2e3c9fd0803ce8000000611cc8919061343d565b91505092915050565b600060ff168160ff1614158015611cef5750600160ff168160ff1614155b15611d26576040517fa04d606c00000000000000000000000000000000000000000000000000000000815260040160405180910390fd5b50565b60008083600001518360ff1660028110611d4657611d45612afc565b5b602002015190506000846020015173ffffffffffffffffffffffffffffffffffffffff1663e42c08f283600001516040518263ffffffff1660e01b8152600401611d909190613933565b602060405180830381865afa158015611dad573d6000803e3d6000fd5b505050506040513d601f19601f82011682018060405250810190611dd191906128df565b905060008103611de657600092505050611e10565b6000826060015190508260c001518183611e009190613471565b611e0a9190613471565b93505050505b92915050565b6000808360a0015103611e2c5760009050611e55565b6000611e38848461218c565b9050611e51818560a00151611ac690919063ffffffff16565b9150505b92915050565b6000828284611e6a9190613471565b9150811115611eae576040517f08c379a0000000000000000000000000000000000000000000000000000000008152600401611ea59061399a565b60405180910390fd5b92915050565b6000806000808660000151600060ff1660028110611ed557611ed4612afc565b5b60200201516000015173ffffffffffffffffffffffffffffffffffffffff168573ffffffffffffffffffffffffffffffffffffffff1614611faf57600080611f1f8a8a60006121db565b915091506000611f3d60008c6060015161190590919063ffffffff16565b90506000611f64846b033b2e3c9fd0803ce800000084600a611f5f91906133f2565b611978565b90506000611f8b846b033b2e3c9fd0803ce800000085600a611f8691906133f2565b611978565b90508187611f99919061343d565b96508086611fa7919061343d565b955050505050505b8660000151600160ff1660028110611fca57611fc9612afc565b5b60200201516000015173ffffffffffffffffffffffffffffffffffffffff168573ffffffffffffffffffffffffffffffffffffffff16146120d4576000806120148a8a60016121db565b91509150600061203260018c6060015161190590919063ffffffff16565b90506000612059846b033b2e3c9fd0803ce800000084600a61205491906133f2565b611978565b90506000612080846b033b2e3c9fd0803ce800000085600a61207b91906133f2565b611978565b905060006120978c84611ac690919063ffffffff16565b905060006120ae8d84611ac690919063ffffffff16565b905081896120bc919061343d565b985080886120ca919061343d565b9750505050505050505b819350809250505094509492505050565b60008173ffffffffffffffffffffffffffffffffffffffff1663bd02d0f560405160200161211290613a06565b604051602081830303815290604052805190602001206040518263ffffffff1660e01b8152600401612144919061288e565b602060405180830381865afa158015612161573d6000803e3d6000fd5b505050506040513d601f19601f8201168201806040525081019061218591906128df565b9050919050565b6000612196611c6e565b82036121a857826020015190506121d5565b60006121b8846040015184611c76565b90506121d1846020015182611ac690919063ffffffff16565b9150505b92915050565b600080600084600001518460ff16600281106121fa576121f9612afc565b5b6020020151604001519050600061223387600001518660ff166002811061222457612223612afc565b5b6020020151886080015161218c565b905060008214612255576122508183611ac690919063ffffffff16565b612258565b60005b925085600001518560ff166002811061227457612273612afc565b5b60200201516020015193505050935093915050565b60405180610160016040528061229d61235e565b8152602001600080191681526020016122b4612321565b81526020016000801916815260200160008152602001600073ffffffffffffffffffffffffffffffffffffffff168152602001600073ffffffffffffffffffffffffffffffffffffffff168152602001600081526020016000815260200160008152602001600081525090565b604051806060016040528061233461242e565b815260200160008152602001600073ffffffffffffffffffffffffffffffffffffffff1681525090565b6040518060a0016040528061237161245b565b8152602001600073ffffffffffffffffffffffffffffffffffffffff168152602001600073ffffffffffffffffffffffffffffffffffffffff16815260200160008152602001600081525090565b604051806101c0016040528060008152602001600081526020016000815260200160008152602001600081526020016000815260200160008152602001600081526020016000815260200160008152602001600081526020016000815260200160008152602001600081525090565b60405180604001604052806002905b612445612488565b81526020019060019003908161243d5790505090565b60405180604001604052806002905b6124726124e3565b81526020019060019003908161246a5790505090565b604051806101000160405280600073ffffffffffffffffffffffffffffffffffffffff168152602001600081526020016000815260200160008152602001600081526020016000815260200160008152602001600081525090565b6040518060e00160405280600073ffffffffffffffffffffffffffffffffffffffff1681526020016000815260200160008152602001600081526020016000815260200160008152602001600081525090565b6000604051905090565b600080fd5b600073ffffffffffffffffffffffffffffffffffffffff82169050919050565b600061257082612545565b9050919050565b61258081612565565b811461258b57600080fd5b50565b60008135905061259d81612577565b92915050565b600080fd5b6000608082840312156125be576125bd6125a3565b5b81905092915050565b60008060a083850312156125de576125dd612540565b5b60006125ec8582860161258e565b92505060206125fd858286016125a8565b9150509250929050565b6000819050919050565b600061262c61262761262284612545565b612607565b612545565b9050919050565b600061263e82612611565b9050919050565b600061265082612633565b9050919050565b61266081612645565b82525050565b600060208201905061267b6000830184612657565b92915050565b600061268c82612633565b9050919050565b61269c81612681565b82525050565b60006020820190506126b76000830184612693565b92915050565b60006126c882612633565b9050919050565b6126d8816126bd565b82525050565b60006020820190506126f360008301846126cf565b92915050565b600082825260208201905092915050565b7f434f4e54524f4c4c455200000000000000000000000000000000000000000000600082015250565b6000612740600a836126f9565b915061274b8261270a565b602082019050919050565b6000602082019050818103600083015261276f81612733565b9050919050565b600060ff82169050919050565b61278c81612776565b811461279757600080fd5b50565b6000813590506127a981612783565b92915050565b6000602082840312156127c5576127c4612540565b5b60006127d38482850161279a565b91505092915050565b6000602082840312156127f2576127f1612540565b5b60006128008482850161258e565b91505092915050565b7f5245454e5452414e43595f47554152445f535441545553000000000000000000600082015250565b600061283f6017836126f9565b915061284a82612809565b602082019050919050565b6000602082019050818103600083015261286e81612832565b9050919050565b6000819050919050565b61288881612875565b82525050565b60006020820190506128a3600083018461287f565b92915050565b6000819050919050565b6128bc816128a9565b81146128c757600080fd5b50565b6000815190506128d9816128b3565b92915050565b6000602082840312156128f5576128f4612540565b5b6000612903848285016128ca565b91505092915050565b7f5265656e7472616e637947756172643a207265656e7472616e742063616c6c00600082015250565b6000612942601f836126f9565b915061294d8261290c565b602082019050919050565b6000602082019050818103600083015261297181612935565b9050919050565b612981816128a9565b82525050565b600060408201905061299c600083018561287f565b6129a96020830184612978565b9392505050565b6129b981612565565b82525050565b60006040820190506129d460008301856129b0565b6129e1602083018461287f565b9392505050565b60008115159050919050565b6129fd816129e8565b8114612a0857600080fd5b50565b600081519050612a1a816129f4565b92915050565b600060208284031215612a3657612a35612540565b5b6000612a4484828501612a0b565b91505092915050565b600081519050919050565b60005b83811015612a76578082015181840152602081019050612a5b565b60008484015250505050565b6000601f19601f8301169050919050565b6000612a9e82612a4d565b612aa881856126f9565b9350612ab8818560208601612a58565b612ac181612a82565b840191505092915050565b6000604082019050612ae160008301856129b0565b8181036020830152612af38184612a93565b90509392505050565b7f4e487b7100000000000000000000000000000000000000000000000000000000600052603260045260246000fd5b6000606082019050612b4060008301866129b0565b612b4d60208301856129b0565b612b5a6040830184612978565b949350505050565b6000819050919050565b7f4e487b7100000000000000000000000000000000000000000000000000000000600052601160045260246000fd5b6000612ba682612b62565b91507f80000000000000000000000000000000000000000000000000000000000000008203612bd857612bd7612b6c565b5b816000039050919050565b612bec81612565565b82525050565b612bfb81612875565b82525050565b600060029050919050565b600081905092915050565b6000819050919050565b612c2a81612565565b82525050565b612c39816128a9565b82525050565b61010082016000820151612c566000850182612c21565b506020820151612c696020850182612c30565b506040820151612c7c6040850182612c30565b506060820151612c8f6060850182612c30565b506080820151612ca26080850182612c30565b5060a0820151612cb560a0850182612c30565b5060c0820151612cc860c0850182612c30565b5060e0820151612cdb60e0850182612c30565b50505050565b6000612ced8383612c3f565b6101008301905092915050565b6000602082019050919050565b612d1081612c01565b612d1a8184612c0c565b9250612d2582612c17565b8060005b83811015612d56578151612d3d8782612ce1565b9650612d4883612cfa565b925050600181019050612d29565b505050505050565b61024082016000820151612d756000850182612d07565b506020820151612d89610200850182612c30565b506040820151612d9d610220850182612c21565b50505050565b600061028082019050612db96000830186612be3565b612dc66020830185612bf2565b612dd36040830184612d5e565b949350505050565b600060029050919050565b600081905092915050565b6000819050919050565b60e082016000820151612e116000850182612c21565b506020820151612e246020850182612c30565b506040820151612e376040850182612c30565b506060820151612e4a6060850182612c30565b506080820151612e5d6080850182612c30565b5060a0820151612e7060a0850182612c30565b5060c0820151612e8360c0850182612c30565b50505050565b6000612e958383612dfb565b60e08301905092915050565b6000602082019050919050565b612eb781612ddb565b612ec18184612de6565b9250612ecc82612df1565b8060005b83811015612efd578151612ee48782612e89565b9650612eef83612ea1565b925050600181019050612ed0565b505050505050565b61024082016000820151612f1c6000850182612eae565b506020820151612f306101c0850182612c21565b506040820151612f446101e0850182612c21565b506060820151612f58610200850182612c30565b506080820151612f6c610220850182612c30565b50505050565b600061028082019050612f886000830186612be3565b612f956020830185612bf2565b612fa26040830184612f05565b949350505050565b6000604082019050612fbf6000830185612be3565b612fcc6020830184612bf2565b9392505050565b600080fd5b7f4e487b7100000000000000000000000000000000000000000000000000000000600052604160045260246000fd5b61301082612a82565b810181811067ffffffffffffffff8211171561302f5761302e612fd8565b5b80604052505050565b6000613042612536565b905061304e8282613007565b919050565b600080fd5b600067ffffffffffffffff82111561307357613072612fd8565b5b602082029050919050565b600080fd5b60008151905061309281612577565b92915050565b600060e082840312156130ae576130ad612fd3565b5b6130b860e0613038565b905060006130c884828501613083565b60008301525060206130dc848285016128ca565b60208301525060406130f0848285016128ca565b6040830152506060613104848285016128ca565b6060830152506080613118848285016128ca565b60808301525060a061312c848285016128ca565b60a08301525060c0613140848285016128ca565b60c08301525092915050565b600061315f61315a84613058565b613038565b90508060e084028301858111156131795761317861307e565b5b835b818110156131a2578061318e8882613098565b84526020840193505060e08101905061317b565b5050509392505050565b600082601f8301126131c1576131c0613053565b5b60026131ce84828561314c565b91505092915050565b600061024082840312156131ee576131ed612fd3565b5b6131f860a0613038565b90506000613208848285016131ac565b6000830152506101c061321d84828501613083565b6020830152506101e061323284828501613083565b604083015250610200613247848285016128ca565b60608301525061022061325c848285016128ca565b60808301525092915050565b6000610240828403121561327f5761327e612540565b5b600061328d848285016131d7565b91505092915050565b60006040820190506132ab6000830185612978565b6132b86020830184612978565b9392505050565b60008160011c9050919050565b6000808291508390505b6001851115613316578086048111156132f2576132f1612b6c565b5b60018516156133015780820291505b808102905061330f856132bf565b94506132d6565b94509492505050565b60008261332f57600190506133eb565b8161333d57600090506133eb565b8160018114613353576002811461335d5761338c565b60019150506133eb565b60ff84111561336f5761336e612b6c565b5b8360020a91508482111561338657613385612b6c565b5b506133eb565b5060208310610133831016604e8410600b84101617156133c15782820a9050838111156133bc576133bb612b6c565b5b6133eb565b6133ce84848460016132cc565b925090508184048111156133e5576133e4612b6c565b5b81810290505b9392505050565b60006133fd826128a9565b9150613408836128a9565b92506134357fffffffffffffffffffffffffffffffffffffffffffffffffffffffffffffffff848461331f565b905092915050565b6000613448826128a9565b9150613453836128a9565b925082820190508082111561346b5761346a612b6c565b5b92915050565b600061347c826128a9565b9150613487836128a9565b925082820390508181111561349f5761349e612b6c565b5b92915050565b6000610140820190506134bb600083018d6129b0565b6134c8602083018c6129b0565b6134d5604083018b6129b0565b6134e2606083018a612978565b6134ef6080830189612978565b6134fc60a08301886129b0565b61350960c0830187612978565b61351660e0830186612978565b613524610100830185612978565b613532610120830184612978565b9b9a5050505050505050505050565b600067ffffffffffffffff82111561355c5761355b612fd8565b5b602082029050919050565b6000610100828403121561357e5761357d612fd3565b5b613589610100613038565b9050600061359984828501613083565b60008301525060206135ad848285016128ca565b60208301525060406135c1848285016128ca565b60408301525060606135d5848285016128ca565b60608301525060806135e9848285016128ca565b60808301525060a06135fd848285016128ca565b60a08301525060c0613611848285016128ca565b60c08301525060e0613625848285016128ca565b60e08301525092915050565b600061364461363f84613541565b613038565b905080610100840283018581111561365f5761365e61307e565b5b835b8181101561368957806136748882613567565b84526020840193505061010081019050613661565b5050509392505050565b600082601f8301126136a8576136a7613053565b5b60026136b5848285613631565b91505092915050565b600061024082840312156136d5576136d4612fd3565b5b6136df6060613038565b905060006136ef84828501613693565b600083015250610200613704848285016128ca565b60208301525061022061371984828501613083565b60408301525092915050565b6000610240828403121561373c5761373b612540565b5b600061374a848285016136be565b91505092915050565b7f504f4f4c00000000000000000000000000000000000000000000000000000000600082015250565b60006137896004836126f9565b915061379482613753565b602082019050919050565b600060208201905081810360008301526137b88161377c565b9050919050565b60006060820190506137d4600083018661287f565b6137e160208301856129b0565b6137ee60408301846129b0565b949350505050565b7f4e487b7100000000000000000000000000000000000000000000000000000000600052601260045260246000fd5b7f504f534954494f4e000000000000000000000000000000000000000000000000600082015250565b600061385b6008836126f9565b915061386682613825565b602082019050919050565b6000602082019050818103600083015261388a8161384e565b9050919050565b60006060820190506138a6600083018661287f565b6138b360208301856129b0565b6138c06040830184612978565b949350505050565b60006040820190506138dd60008301856129b0565b6138ea60208301846129b0565b9392505050565b60006138fc826128a9565b9150613907836128a9565b9250828202613915816128a9565b9150828204841483151761392c5761392b612b6c565b5b5092915050565b600060208201905061394860008301846129b0565b92915050565b7f64732d6d6174682d7375622d756e646572666c6f770000000000000000000000600082015250565b60006139846015836126f9565b915061398f8261394e565b602082019050919050565b600060208201905081810360008301526139b381613977565b9050919050565b7f4d415247494e5f4c4556454c4c5f5448524553484f4c44000000000000000000600082015250565b60006139f06017836126f9565b91506139fb826139ba565b602082019050919050565b60006020820190508181036000830152613a1f816139e3565b905091905056fea2646970667358221220dcdcdbab8af0fa1e303c5ef71cfffe76077c91eaa232320230a2d7e8a7e305b964736f6c634300081c0033",
  "linkReferences": {
    "contracts/pool/PoolStoreUtils.sol": {
      "PoolStoreUtils": [
        {
          "length": 20,
          "start": 2730
        },
        {
          "length": 20,
          "start": 3379
        }
      ]
    },
    "contracts/position/PositionStoreUtils.sol": {
      "PositionStoreUtils": [
        {
          "length": 20,
          "start": 2611
        },
        {
          "length": 20,
          "start": 5227
        }
      ]
    }
  },
  "deployedLinkReferences": {
    "contracts/pool/PoolStoreUtils.sol": {
      "PoolStoreUtils": [
        {
          "length": 20,
          "start": 2099
        },
        {
          "length": 20,
          "start": 2748
        }
      ]
    },
    "contracts/position/PositionStoreUtils.sol": {
      "PositionStoreUtils": [
        {
          "length": 20,
          "start": 1980
        },
        {
          "length": 20,
          "start": 4596
        }
      ]
    }
  }
}