{
  "_format": "hh-sol-artifact-1",
  "contractName": "PoolUtils",
  "sourceName": "contracts/pool/PoolUtils.sol",
  "abi": [
    {
      "inputs": [],
      "name": "IGNORE_CALC_AVAILABLE",
      "outputs": [
        {
          "internalType": "uint256",
          "name": "",
          "type": "uint256"
        }
      ],
      "stateMutability": "view",
      "type": "function"
    },
    {
      "inputs": [],
      "name": "IGNORE_CALC_LOAN",
      "outputs": [
        {
          "internalType": "uint256",
          "name": "",
          "type": "uint256"
        }
      ],
      "stateMutability": "view",
      "type": "function"
    },
    {
      "inputs": [],
      "name": "MINIMUM_LIQUIDITY",
      "outputs": [
        {
          "internalType": "uint256",
          "name": "",
          "type": "uint256"
        }
      ],
      "stateMutability": "view",
      "type": "function"
    }
  ],
  "bytecode": "0x610110610052600b82828239805160001a6073146045577f4e487b7100000000000000000000000000000000000000000000000000000000600052600060045260246000fd5b30600052607381538281f3fe730000000000000000000000000000000000000000301460806040526004361060475760003560e01c8063783d097114604c578063ba9a7a56146066578063dd2e0a60146080575b600080fd5b6052609a565b604051605d919060c1565b60405180910390f35b606c609f565b6040516077919060c1565b60405180910390f35b608660a5565b6040516091919060c1565b60405180910390f35b600081565b6103e881565b600081565b6000819050919050565b60bb8160aa565b82525050565b600060208201905060d4600083018460b4565b9291505056fea26469706673582212201b0cf614eb333e0abdb18a477b563112c07ef6e7743955057fcdd4741091265e64736f6c634300081c0033",
  "linkReferences": {},
  "deployedLinkReferences": {}
}