{
  "_format": "hh-sol-artifact-1",
  "contractName": "PoolUtils",
  "sourceName": "contracts/pool/PoolUtils.sol",
  "abi": [
    {
      "inputs": [],
      "name": "IGNORE_CALC_LOAN",
      "outputs": [
        {
          "internalType": "uint256",
          "name": "",
          "type": "uint256"
        }
      ],
      "stateMutability": "view",
      "type": "function"
    },
    {
      "inputs": [],
      "name": "MINIMUM_LIQUIDITY",
      "outputs": [
        {
          "internalType": "uint256",
          "name": "",
          "type": "uint256"
        }
      ],
      "stateMutability": "view",
      "type": "function"
    }
  ],
  "bytecode": "0x60e7610051600b82828239805160001a6073146044577f4e487b7100000000000000000000000000000000000000000000000000000000600052600060045260246000fd5b30600052607381538281f3fe7300000000000000000000000000000000000000003014608060405260043610603d5760003560e01c8063783d0971146042578063ba9a7a5614605c575b600080fd5b60486076565b604051605391906098565b60405180910390f35b6062607b565b604051606d91906098565b60405180910390f35b600081565b6103e881565b6000819050919050565b6092816081565b82525050565b600060208201905060ab6000830184608b565b9291505056fea264697066735822122012cb2fedf582fcb1771d20281e57b325078c7b14917028092c5387c626a7501864736f6c634300081c0033",
  "linkReferences": {},
  "deployedLinkReferences": {}
}