{
  "_format": "hh-sol-artifact-1",
  "contractName": "DepositHandler",
  "sourceName": "contracts/exchange/DepositHandler.sol",
  "abi": [
    {
      "inputs": [
        {
          "internalType": "contract RoleStore",
          "name": "_roleStore",
          "type": "address"
        },
        {
          "internalType": "contract DataStore",
          "name": "_dataStore",
          "type": "address"
        },
        {
          "internalType": "contract EventEmitter",
          "name": "_eventEmitter",
          "type": "address"
        }
      ],
      "stateMutability": "nonpayable",
      "type": "constructor"
    },
    {
      "inputs": [
        {
          "internalType": "address",
          "name": "accountInPosition",
          "type": "address"
        },
        {
          "internalType": "address",
          "name": "account",
          "type": "address"
        }
      ],
      "name": "AccountNotMatch",
      "type": "error"
    },
    {
      "inputs": [],
      "name": "EmptyDepositAmounts",
      "type": "error"
    },
    {
      "inputs": [
        {
          "internalType": "bytes32",
          "name": "key",
          "type": "bytes32"
        }
      ],
      "name": "EmptyPool",
      "type": "error"
    },
    {
      "inputs": [],
      "name": "EmptyPosition",
      "type": "error"
    },
    {
      "inputs": [],
      "name": "MathOverflowedMulDiv",
      "type": "error"
    },
    {
      "inputs": [
        {
          "internalType": "uint256",
          "name": "maxDepositAmount",
          "type": "uint256"
        },
        {
          "internalType": "uint256",
          "name": "amountToDeposit",
          "type": "uint256"
        }
      ],
      "name": "MaxDepositExceeds",
      "type": "error"
    },
    {
      "inputs": [],
      "name": "MaxPositionId",
      "type": "error"
    },
    {
      "inputs": [],
      "name": "TokenIndexNotSupport",
      "type": "error"
    },
    {
      "inputs": [
        {
          "internalType": "address",
          "name": "msgSender",
          "type": "address"
        },
        {
          "internalType": "string",
          "name": "role",
          "type": "string"
        }
      ],
      "name": "Unauthorized",
      "type": "error"
    },
    {
      "inputs": [],
      "name": "dataStore",
      "outputs": [
        {
          "internalType": "contract DataStore",
          "name": "",
          "type": "address"
        }
      ],
      "stateMutability": "view",
      "type": "function"
    },
    {
      "inputs": [],
      "name": "eventEmitter",
      "outputs": [
        {
          "internalType": "contract EventEmitter",
          "name": "",
          "type": "address"
        }
      ],
      "stateMutability": "view",
      "type": "function"
    },
    {
      "inputs": [
        {
          "internalType": "address",
          "name": "account",
          "type": "address"
        },
        {
          "components": [
            {
              "internalType": "uint256",
              "name": "positionId",
              "type": "uint256"
            },
            {
              "internalType": "address",
              "name": "token0",
              "type": "address"
            },
            {
              "internalType": "address",
              "name": "token1",
              "type": "address"
            },
            {
              "internalType": "uint8",
              "name": "tokenIndex",
              "type": "uint8"
            }
          ],
          "internalType": "struct DepositUtils.DepositParams",
          "name": "depositParams",
          "type": "tuple"
        }
      ],
      "name": "executeDeposit",
      "outputs": [],
      "stateMutability": "nonpayable",
      "type": "function"
    },
    {
      "inputs": [],
      "name": "roleStore",
      "outputs": [
        {
          "internalType": "contract RoleStore",
          "name": "",
          "type": "address"
        }
      ],
      "stateMutability": "view",
      "type": "function"
    }
  ],
  "bytecode": "0x60e060405234801561001057600080fd5b506040516144fb3803806144fb833981810160405281019061003291906101cb565b82828073ffffffffffffffffffffffffffffffffffffffff1660808173ffffffffffffffffffffffffffffffffffffffff1681525050508073ffffffffffffffffffffffffffffffffffffffff1660a08173ffffffffffffffffffffffffffffffffffffffff1681525050508073ffffffffffffffffffffffffffffffffffffffff1660c08173ffffffffffffffffffffffffffffffffffffffff168152505050505061021e565b600080fd5b600073ffffffffffffffffffffffffffffffffffffffff82169050919050565b600061010a826100df565b9050919050565b600061011c826100ff565b9050919050565b61012c81610111565b811461013757600080fd5b50565b60008151905061014981610123565b92915050565b600061015a826100ff565b9050919050565b61016a8161014f565b811461017557600080fd5b50565b60008151905061018781610161565b92915050565b6000610198826100ff565b9050919050565b6101a88161018d565b81146101b357600080fd5b50565b6000815190506101c58161019f565b92915050565b6000806000606084860312156101e4576101e36100da565b5b60006101f28682870161013a565b935050602061020386828701610178565b9250506040610214868287016101b6565b9150509250925092565b60805160a05160c0516142846102776000396000818161017d0152610299015260008181610251015261048901526000818161014101528181610275015281816102bf015281816103c20152610a3f01526142846000f3fe608060405234801561001057600080fd5b506004361061004c5760003560e01c80630f4e5ba1146100515780634a4a7b041461006d578063660d0d671461008b5780639ff78c30146100a9575b600080fd5b61006b60048036038101906100669190612c77565b6100c7565b005b61007561024f565b6040516100829190612d16565b60405180910390f35b610093610273565b6040516100a09190612d52565b60405180910390f35b6100b1610297565b6040516100be9190612d8e565b60405180910390f35b6100cf6102bb565b6101326040516020016100e190612e06565b604051602081830303815290604052805190602001206040518060400160405280600a81526020017f434f4e54524f4c4c455200000000000000000000000000000000000000000000815250610487565b60006040518060c001604052807f000000000000000000000000000000000000000000000000000000000000000073ffffffffffffffffffffffffffffffffffffffff1681526020017f000000000000000000000000000000000000000000000000000000000000000073ffffffffffffffffffffffffffffffffffffffff168152602001836000013581526020018360200160208101906101d49190612e26565b73ffffffffffffffffffffffffffffffffffffffff1681526020018360400160208101906102029190612e26565b73ffffffffffffffffffffffffffffffffffffffff1681526020018360600160208101906102309190612e8c565b60ff168152509050610242838261056a565b5061024b610a3d565b5050565b7f000000000000000000000000000000000000000000000000000000000000000081565b7f000000000000000000000000000000000000000000000000000000000000000081565b7f000000000000000000000000000000000000000000000000000000000000000081565b60007f000000000000000000000000000000000000000000000000000000000000000073ffffffffffffffffffffffffffffffffffffffff1663bd02d0f560405160200161030890612f05565b604051602081830303815290604052805190602001206040518263ffffffff1660e01b815260040161033a9190612f3e565b602060405180830381865afa158015610357573d6000803e3d6000fd5b505050506040513d601f19601f8201168201806040525081019061037b9190612f8f565b9050600081146103c0576040517f08c379a00000000000000000000000000000000000000000000000000000000081526004016103b790613008565b60405180910390fd5b7f000000000000000000000000000000000000000000000000000000000000000073ffffffffffffffffffffffffffffffffffffffff1663e2a4853a60405160200161040b90612f05565b6040516020818303038152906040528051906020012060016040518363ffffffff1660e01b8152600401610440929190613037565b6020604051808303816000875af115801561045f573d6000803e3d6000fd5b505050506040513d601f19601f820116820180604052508101906104839190612f8f565b5050565b7f000000000000000000000000000000000000000000000000000000000000000073ffffffffffffffffffffffffffffffffffffffff1663ac4ab3fb33846040518363ffffffff1660e01b81526004016104e292919061306f565b602060405180830381865afa1580156104ff573d6000803e3d6000fd5b505050506040513d601f19601f8201168201806040525081019061052391906130d0565b6105665733816040517fa35b150b00000000000000000000000000000000000000000000000000000000815260040161055d92919061317c565b60405180910390fd5b5050565b6105a86040518060400160405280600e81526020017f657865637574654465706f736974000000000000000000000000000000000000815250610b03565b6105b0612976565b6105d2838360000151846040015185606001518660800151600160ff16610b4c565b83604001846080018560600183815250838152508390525050506106498260000151826040015160000151600060ff1660028110610613576106126131ac565b5b602002015160000151836040015160000151600160ff166002811061063b5761063a6131ac565b5b602002015160000151610c13565b82600001836020018281525082905250508060000151600001518260a0015160ff166002811061067c5761067b6131ac565b5b6020020151600001518160c0019073ffffffffffffffffffffffffffffffffffffffff16908173ffffffffffffffffffffffffffffffffffffffff16815250508060000151602001518160a0019073ffffffffffffffffffffffffffffffffffffffff16908173ffffffffffffffffffffffffffffffffffffffff16815250508060a0015173ffffffffffffffffffffffffffffffffffffffff1663352f9aed8260c001516040518263ffffffff1660e01b815260040161073d91906131db565b6020604051808303816000875af115801561075c573d6000803e3d6000fd5b505050506040513d601f19601f820116820180604052508101906107809190612f8f565b8160e00181815250506107ab826000015184836000015184604001518560e001518760a00151610ccc565b6107ca816000015182604001518460a001518460e00151600080610e07565b600160ff168260a0015160ff1603610830576107e981600001516110dc565b8161010001818152505061082f8160400151600001518360a0015160ff1660028110610818576108176131ac565b5b60200201518261010001518360e0015160016111af565b5b73__$3d31b232fb363902662fbc281b11ab3357$__6370b5270e8360000151836080015184604001516040518463ffffffff1660e01b8152600401610877939291906133b6565b60006040518083038186803b15801561088f57600080fd5b505af41580156108a3573d6000803e3d6000fd5b505050506108b98260200151826000015161133b565b73__$e0022d6f389ac14ff1ce1dc57a4018d0a3$__63be6afc398360000151836020015184600001516040518463ffffffff1660e01b815260040161090093929190613585565b60006040518083038186803b15801561091857600080fd5b505af415801561092c573d6000803e3d6000fd5b50505050610a38826020015184836040015160000151600060ff1660028110610958576109576131ac565b5b602002015160000151846040015160000151600160ff16600281106109805761097f6131ac565b5b60200201516000015185606001518660e00151876040015160000151600060ff16600281106109b2576109b16131ac565b5b602002015160200151886040015160000151600060ff16600281106109da576109d96131ac565b5b602002015160400151896040015160000151600160ff1660028110610a0257610a016131ac565b5b6020020151602001518a6040015160000151600160ff1660028110610a2a57610a296131ac565b5b602002015160400151611398565b505050565b7f000000000000000000000000000000000000000000000000000000000000000073ffffffffffffffffffffffffffffffffffffffff1663e2a4853a604051602001610a8890612f05565b6040516020818303038152906040528051906020012060006040518363ffffffff1660e01b8152600401610abd929190613037565b6020604051808303816000875af1158015610adc573d6000803e3d6000fd5b505050506040513d601f19601f82011682018060405250810190610b009190612f8f565b50565b6000610b4957610b486040518060400160405280600281526020017f25730000000000000000000000000000000000000000000000000000000000008152508261141f565b5b50565b610b54612a00565b600080610b5f612a00565b6000627a12008914610b8e57610b768b8b8b6114bb565b809250819350505081818a9450945094505050610c07565b6000610b9a8b8d61156b565b9050610ba68c82611687565b9150808360200181815250508b836040019073ffffffffffffffffffffffffffffffffffffffff16908173ffffffffffffffffffffffffffffffffffffffff1681525050610bf6838a8a8a6116e0565b828284602001519550955095505050505b96509650969350505050565b610c1b612a3d565b600080610c2885856119e2565b9050600073__$e0022d6f389ac14ff1ce1dc57a4018d0a3$__637b82d74e88846040518363ffffffff1660e01b8152600401610c659291906135bd565b61024060405180830381865af4158015610c83573d6000803e3d6000fd5b505050506040513d601f19601f82011682018060405250810190610ca7919061387b565b9050610cb38183611a80565b610cbc81611af9565b8082935093505050935093915050565b610cd68584611ca5565b60008203610d10576040517f01af8c2400000000000000000000000000000000000000000000000000000000815260040160405180910390fd5b610d1981611d8d565b600160ff168160ff1603610dff576000610d368786856001611d99565b9050610d776040518060400160405280600681526020017f616d6f756e74000000000000000000000000000000000000000000000000000081525084611f13565b610db66040518060400160405280601081526020017f6d61784465706f736974416d6f756e740000000000000000000000000000000081525082611f13565b80831115610dfd5780836040517f1df2e035000000000000000000000000000000000000000000000000000000008152600401610df49291906138a9565b60405180910390fd5b505b505050505050565b6000610e1284611f5e565b905060008412610e8f578086600001518660ff1660028110610e3757610e366131ac565b5b6020020151602001818151610e4c9190613901565b915081815250508087600001518660ff1660028110610e6e57610e6d6131ac565b5b6020020151606001818151610e839190613901565b91508181525050610efe565b8086600001518660ff1660028110610eaa57610ea96131ac565b5b6020020151602001818151610ebf9190613935565b915081815250508087600001518660ff1660028110610ee157610ee06131ac565b5b6020020151606001818151610ef69190613935565b915081815250505b8115610f9257600086600001518660ff1660028110610f2057610f1f6131ac565b5b60200201516040015190508088600001518760ff1660028110610f4657610f456131ac565b5b602002015160a001818151610f5b9190613935565b91508181525050600087600001518760ff1660028110610f7e57610f7d6131ac565b5b6020020151604001818152505050506110d4565b60008303610fa057506110d4565b6000610fab84611f5e565b90506000610fe489600001518860ff1660028110610fcc57610fcb6131ac565b5b60200201516020015183611f7a90919063ffffffff16565b905060008512611061578088600001518860ff1660028110611009576110086131ac565b5b602002015160400181815161101e9190613901565b915081815250508089600001518860ff16600281106110405761103f6131ac565b5b602002015160a0018181516110559190613901565b915081815250506110d0565b8088600001518860ff166002811061107c5761107b6131ac565b5b60200201516040018181516110919190613935565b915081815250508089600001518860ff16600281106110b3576110b26131ac565b5b602002015160a0018181516110c89190613935565b915081815250505b5050505b505050505050565b6000806110ed836000806000611fc1565b50505090506000611102846001600080611fc1565b50505090506000810361111a576000925050506111aa565b600061112b856060015160006120e9565b9050600061113e866060015160016120e9565b90506000611165856b033b2e3c9fd0803ce800000085600a6111609190613a9c565b61215c565b9050600061118c856b033b2e3c9fd0803ce800000085600a6111879190613a9c565b61215c565b90506111a18183611f7a90919063ffffffff16565b96505050505050505b919050565b600260ff168460e00151036111e557600160ff168460e0018181525050818460a001818152505082846060018181525050611335565b600160ff168460e001510361127c5760008460a001519050828560a00181815161120f9190613901565b915081815250508115611276576000611231848661226390919063ffffffff16565b61124883886060015161226390919063ffffffff16565b6112529190613901565b905061126b8660a0015182611f7a90919063ffffffff16565b866060018181525050505b50611334565b600060ff168460e001510361133357818460c0015111156112b557818460c0018181516112a99190613935565b91508181525050611332565b818460c00151036112e957600260ff168460e001818152505060008460c00181815250506000846080018181525050611331565b600160ff168460e00181815250508360c00151826113079190613935565b8460a00181815250508284606001818152505060008460c001818152505060008460800181815250505b5b5b5b5b50505050565b611344816122ae565b8260000151600060ff166002811061135f5761135e6131ac565b5b60200201516040018360000151600160ff1660028110611382576113816131ac565b5b6020020151604001828152508281525050505050565b8973ffffffffffffffffffffffffffffffffffffffff1663119c6c838a8a8a8a8a8a8a8a8a6040518a63ffffffff1660e01b81526004016113e199989796959493929190613ae7565b600060405180830381600087803b1580156113fb57600080fd5b505af115801561140f573d6000803e3d6000fd5b5050505050505050505050505050565b6114b78282604051602401611435929190613b74565b6040516020818303038152906040527f4b5c4277000000000000000000000000000000000000000000000000000000007bffffffffffffffffffffffffffffffffffffffffffffffffffffffff19166020820180517bffffffffffffffffffffffffffffffffffffffffffffffffffffffff83818316178352505050506124e7565b5050565b6114c3612a00565b6000806114d08685611687565b9050600073__$3d31b232fb363902662fbc281b11ab3357$__637b82d74e87846040518363ffffffff1660e01b815260040161150d9291906135bd565b61024060405180830381865af415801561152b573d6000803e3d6000fd5b505050506040513d601f19601f8201168201806040525081019061154f9190613d8f565b905061155b8782611ca5565b8082935093505050935093915050565b60008083905060008173ffffffffffffffffffffffffffffffffffffffff1663340dbab360405160200161159e90613e09565b60405160208183030381529060405280519060200120866040516020016115c6929190613e29565b6040516020818303038152906040528051906020012060016040518363ffffffff1660e01b81526004016115fb929190613e8d565b6020604051808303816000875af115801561161a573d6000803e3d6000fd5b505050506040513d601f19601f8201168201806040525081019061163e9190612f8f565b9050627a1200811061167c576040517fb611be7400000000000000000000000000000000000000000000000000000000815260040160405180910390fd5b809250505092915050565b600060405160200161169890613f02565b6040516020818303038152906040528051906020012083836040516020016116c293929190613f22565b60405160208183030381529060405280519060200120905092915050565b828460000151600060ff16600281106116fc576116fb6131ac565b5b60200201516000019073ffffffffffffffffffffffffffffffffffffffff16908173ffffffffffffffffffffffffffffffffffffffff168152505060008460000151600060ff1660028110611754576117536131ac565b5b6020020151602001818152505060008460000151600060ff166002811061177e5761177d6131ac565b5b6020020151604001818152505060008460000151600060ff16600281106117a8576117a76131ac565b5b6020020151606001818152505060008460000151600060ff16600281106117d2576117d16131ac565b5b602002015160a001818152505060008460000151600060ff16600281106117fc576117fb6131ac565b5b6020020151608001818152505060008460000151600060ff1660028110611826576118256131ac565b5b602002015160c0018181525050600260ff168460000151600060ff1660028110611853576118526131ac565b5b602002015160e0018181525050818460000151600160ff166002811061187c5761187b6131ac565b5b60200201516000019073ffffffffffffffffffffffffffffffffffffffff16908173ffffffffffffffffffffffffffffffffffffffff168152505060008460000151600160ff16600281106118d4576118d36131ac565b5b6020020151602001818152505060008460000151600160ff16600281106118fe576118fd6131ac565b5b6020020151604001818152505060008460000151600160ff1660028110611928576119276131ac565b5b6020020151606001818152505060008460000151600160ff1660028110611952576119516131ac565b5b602002015160a001818152505060008460000151600160ff166002811061197c5761197b6131ac565b5b6020020151608001818152505060008460000151600160ff16600281106119a6576119a56131ac565b5b602002015160c0018181525050808460000151600160ff16600281106119cf576119ce6131ac565b5b602002015160e001818152505050505050565b60008173ffffffffffffffffffffffffffffffffffffffff168373ffffffffffffffffffffffffffffffffffffffff1610611a1e578183611a21565b82825b8093508194505050604051602001611a3890613fa5565b604051602081830303815290604052805190602001208383604051602001611a6293929190613fc5565b60405160208183030381529060405280519060200120905092915050565b600073ffffffffffffffffffffffffffffffffffffffff16826020015173ffffffffffffffffffffffffffffffffffffffff1603611af557806040517f7357d91f000000000000000000000000000000000000000000000000000000008152600401611aec9190612f3e565b60405180910390fd5b5050565b6000611b03612501565b905080826080015103611b165750611ca2565b60008260000151600060ff1660028110611b3357611b326131ac565b5b602002015160a0015114611bd6576000611b748360000151600060ff1660028110611b6157611b606131ac565b5b6020020151604001518460800151612509565b9050611bac818460000151600060ff1660028110611b9557611b946131ac565b5b60200201516020015161226390919063ffffffff16565b8360000151600060ff1660028110611bc757611bc66131ac565b5b60200201516020018181525050505b60008260000151600160ff1660028110611bf357611bf26131ac565b5b602002015160a0015114611c96576000611c348360000151600160ff1660028110611c2157611c206131ac565b5b6020020151604001518460800151612509565b9050611c6c818460000151600160ff1660028110611c5557611c546131ac565b5b60200201516020015161226390919063ffffffff16565b8360000151600160ff1660028110611c8757611c866131ac565b5b60200201516020018181525050505b80826080018181525050505b50565b600073ffffffffffffffffffffffffffffffffffffffff16816040015173ffffffffffffffffffffffffffffffffffffffff1603611d0f576040517f4dfbbff300000000000000000000000000000000000000000000000000000000815260040160405180910390fd5b806040015173ffffffffffffffffffffffffffffffffffffffff168273ffffffffffffffffffffffffffffffffffffffff1614611d89578060400151826040517f25c7157e000000000000000000000000000000000000000000000000000000008152600401611d80929190613ffc565b60405180910390fd5b5050565b611d9681612564565b50565b600080611da78560016125bc565b90508215611dbe578381611dbb9190613935565b90505b6000611dc9876126c7565b90506000611de0828461226390919063ffffffff16565b905060008760000151600160ff1660028110611dff57611dfe6131ac565b5b6020020151606001518210611e42578760000151600160ff1660028110611e2957611e286131ac565b5b60200201516060015182611e3d9190613935565b611e45565b60005b9050611e866040518060400160405280600b81526020017f706f6f6c42616c616e636500000000000000000000000000000000000000000081525085611f13565b611ec56040518060400160405280600e81526020017f6d61784465706f7369745261746500000000000000000000000000000000000081525084611f13565b611f046040518060400160405280601181526020017f706f6f6c42616c616e636541646a75737400000000000000000000000000000081525083611f13565b80945050505050949350505050565b6000611f5a57611f596040518060400160405280600681526020017f2573202d25730000000000000000000000000000000000000000000000000000815250838361276e565b5b5050565b600080821215611f715781600003611f73565b815b9050919050565b60006b033b2e3c9fd0803ce80000006002830460001903048311151582151715611fa357600080fd5b81600283046b033b2e3c9fd0803ce800000085020104905092915050565b600080600080600088600001518860ff1660028110611fe357611fe26131ac565b5b602002015190506000611ff68a8a6125bc565b90506000810361201557600080600080955095509550955050506120de565b6000612025838c6080015161280d565b9050600061203c898361226390919063ffffffff16565b90506000808a1461206e5781841061206657612061828561285290919063ffffffff16565b612069565b60005b612071565b60005b905060006120888c8661226390919063ffffffff16565b90506000808d146120ba578482106120b2576120ad858361285290919063ffffffff16565b6120b5565b60005b6120bd565b60005b905084866120cb9190613901565b8684839a509a509a509a50505050505050505b945094509450949050565b6000807fffffffffffffffffffffffffffffffffffffffff00ffffffffffffffffffffff9050600060589050600160ff168460ff160361214b577fffffffffffffffffffffffffffffffffffffff00ffffffffffffffffffffffff9150606090505b8082198616901c9250505092915050565b60008083850290506000801985870982811083820303915050600081036121975783828161218d5761218c614025565b5b049250505061225c565b8084116121d0576040517f227bc15300000000000000000000000000000000000000000000000000000000815260040160405180910390fd5b600084868809905082811182039150808303925060008560000386169050808604955080840493506001818260000304019050808302841793506000600287600302189050808702600203810290508087026002038102905080870260020381029050808702600203810290508087026002038102905080870260020381029050808502955050505050505b9392505050565b6000816b019d971e4fe8401e74000000600019030483111582151761228757600080fd5b6b033b2e3c9fd0803ce80000006b019d971e4fe8401e740000008385020104905092915050565b6000806122b9612a9e565b6122c48460006128ab565b8260000183602001828152508281525050506122e5846060015160006120e9565b81606001818152505061231981600001516b033b2e3c9fd0803ce80000008360600151600a6123149190613a9c565b61215c565b816040018181525050600081602001510361233e5760008160800181815250506123ec565b836040015173ffffffffffffffffffffffffffffffffffffffff1663fdd63ecf6040518060600160405280846000015181526020018460200151815260200184604001518152506040518263ffffffff1660e01b81526004016123a191906140a5565b602060405180830381865afa1580156123be573d6000803e3d6000fd5b505050506040513d601f19601f820116820180604052508101906123e29190612f8f565b8160800181815250505b6123f78460016128ab565b82600001836020018281525082815250505060008160200151036124255760008160a00181815250506124d3565b836040015173ffffffffffffffffffffffffffffffffffffffff1663fdd63ecf6040518060600160405280846000015181526020018460200151815260200184604001518152506040518263ffffffff1660e01b815260040161248891906140a5565b602060405180830381865afa1580156124a5573d6000803e3d6000fd5b505050506040513d601f19601f820116820180604052508101906124c99190612f8f565b8160a00181815250505b80608001518160a001519250925050915091565b6124fe816124f66128fb61291c565b63ffffffff16565b50565b600042905090565b60008082612515612501565b61251f9190613935565b8461252a91906140c0565b90506301e1338081816125405761253f614025565b5b049050806b033b2e3c9fd0803ce800000061255b9190613901565b91505092915050565b600060ff168160ff16141580156125825750600160ff168160ff1614155b156125b9576040517fa04d606c00000000000000000000000000000000000000000000000000000000815260040160405180910390fd5b50565b60008083600001518360ff16600281106125d9576125d86131ac565b5b602002015190506000846020015173ffffffffffffffffffffffffffffffffffffffff1663e42c08f283600001516040518263ffffffff1660e01b815260040161262391906131db565b602060405180830381865afa158015612640573d6000803e3d6000fd5b505050506040513d601f19601f820116820180604052508101906126649190612f8f565b905060008103612679576000925050506126c1565b6000826060015190508260c00151816126929190613901565b82106126b8578260c0015181836126a99190613935565b6126b39190613935565b6126bb565b60005b93505050505b92915050565b60008173ffffffffffffffffffffffffffffffffffffffff1663bd02d0f56040516020016126f49061414e565b604051602081830303815290604052805190602001206040518263ffffffff1660e01b81526004016127269190612f3e565b602060405180830381865afa158015612743573d6000803e3d6000fd5b505050506040513d601f19601f820116820180604052508101906127679190612f8f565b9050919050565b6128088383836040516024016127869392919061416e565b6040516020818303038152906040527f5821efa1000000000000000000000000000000000000000000000000000000007bffffffffffffffffffffffffffffffffffffffffffffffffffffffff19166020820180517bffffffffffffffffffffffffffffffffffffffffffffffffffffffff83818316178352505050506124e7565b505050565b6000808360a0015103612823576000905061284c565b600061282f8484612927565b9050612848818560a0015161226390919063ffffffff16565b9150505b92915050565b60008282846128619190613935565b91508111156128a5576040517f08c379a000000000000000000000000000000000000000000000000000000000815260040161289c906141ff565b60405180910390fd5b92915050565b60008060006128dc85600001518560ff16600281106128cd576128cc6131ac565b5b6020020151866080015161280d565b905060006128ea86866125bc565b905080829350935050509250929050565b60006a636f6e736f6c652e6c6f679050600080835160208501845afa505050565b612ad4819050919050565b6000612931612501565b82036129435782602001519050612970565b6000612953846040015184612509565b905061296c84602001518261226390919063ffffffff16565b9150505b92915050565b60405180610120016040528061298a612a3d565b8152602001600080191681526020016129a1612a00565b81526020016000815260200160008019168152602001600073ffffffffffffffffffffffffffffffffffffffff168152602001600073ffffffffffffffffffffffffffffffffffffffff16815260200160008152602001600081525090565b6040518060600160405280612a13612ade565b815260200160008152602001600073ffffffffffffffffffffffffffffffffffffffff1681525090565b6040518060a00160405280612a50612b0b565b8152602001600073ffffffffffffffffffffffffffffffffffffffff168152602001600073ffffffffffffffffffffffffffffffffffffffff16815260200160008152602001600081525090565b6040518060c001604052806000815260200160008152602001600081526020016000815260200160008152602001600081525090565b612adc61421f565b565b60405180604001604052806002905b612af5612b38565b815260200190600190039081612aed5790505090565b60405180604001604052806002905b612b22612b93565b815260200190600190039081612b1a5790505090565b604051806101000160405280600073ffffffffffffffffffffffffffffffffffffffff168152602001600081526020016000815260200160008152602001600081526020016000815260200160008152602001600081525090565b6040518060e00160405280600073ffffffffffffffffffffffffffffffffffffffff1681526020016000815260200160008152602001600081526020016000815260200160008152602001600081525090565b6000604051905090565b600080fd5b600073ffffffffffffffffffffffffffffffffffffffff82169050919050565b6000612c2082612bf5565b9050919050565b612c3081612c15565b8114612c3b57600080fd5b50565b600081359050612c4d81612c27565b92915050565b600080fd5b600060808284031215612c6e57612c6d612c53565b5b81905092915050565b60008060a08385031215612c8e57612c8d612bf0565b5b6000612c9c85828601612c3e565b9250506020612cad85828601612c58565b9150509250929050565b6000819050919050565b6000612cdc612cd7612cd284612bf5565b612cb7565b612bf5565b9050919050565b6000612cee82612cc1565b9050919050565b6000612d0082612ce3565b9050919050565b612d1081612cf5565b82525050565b6000602082019050612d2b6000830184612d07565b92915050565b6000612d3c82612ce3565b9050919050565b612d4c81612d31565b82525050565b6000602082019050612d676000830184612d43565b92915050565b6000612d7882612ce3565b9050919050565b612d8881612d6d565b82525050565b6000602082019050612da36000830184612d7f565b92915050565b600082825260208201905092915050565b7f434f4e54524f4c4c455200000000000000000000000000000000000000000000600082015250565b6000612df0600a83612da9565b9150612dfb82612dba565b602082019050919050565b60006020820190508181036000830152612e1f81612de3565b9050919050565b600060208284031215612e3c57612e3b612bf0565b5b6000612e4a84828501612c3e565b91505092915050565b600060ff82169050919050565b612e6981612e53565b8114612e7457600080fd5b50565b600081359050612e8681612e60565b92915050565b600060208284031215612ea257612ea1612bf0565b5b6000612eb084828501612e77565b91505092915050565b7f5245454e5452414e43595f47554152445f535441545553000000000000000000600082015250565b6000612eef601783612da9565b9150612efa82612eb9565b602082019050919050565b60006020820190508181036000830152612f1e81612ee2565b9050919050565b6000819050919050565b612f3881612f25565b82525050565b6000602082019050612f536000830184612f2f565b92915050565b6000819050919050565b612f6c81612f59565b8114612f7757600080fd5b50565b600081519050612f8981612f63565b92915050565b600060208284031215612fa557612fa4612bf0565b5b6000612fb384828501612f7a565b91505092915050565b7f5265656e7472616e637947756172643a207265656e7472616e742063616c6c00600082015250565b6000612ff2601f83612da9565b9150612ffd82612fbc565b602082019050919050565b6000602082019050818103600083015261302181612fe5565b9050919050565b61303181612f59565b82525050565b600060408201905061304c6000830185612f2f565b6130596020830184613028565b9392505050565b61306981612c15565b82525050565b60006040820190506130846000830185613060565b6130916020830184612f2f565b9392505050565b60008115159050919050565b6130ad81613098565b81146130b857600080fd5b50565b6000815190506130ca816130a4565b92915050565b6000602082840312156130e6576130e5612bf0565b5b60006130f4848285016130bb565b91505092915050565b600081519050919050565b60005b8381101561312657808201518184015260208101905061310b565b60008484015250505050565b6000601f19601f8301169050919050565b600061314e826130fd565b6131588185612da9565b9350613168818560208601613108565b61317181613132565b840191505092915050565b60006040820190506131916000830185613060565b81810360208301526131a38184613143565b90509392505050565b7f4e487b7100000000000000000000000000000000000000000000000000000000600052603260045260246000fd5b60006020820190506131f06000830184613060565b92915050565b6131ff81612c15565b82525050565b61320e81612f25565b82525050565b600060029050919050565b600081905092915050565b6000819050919050565b61323d81612c15565b82525050565b61324c81612f59565b82525050565b610100820160008201516132696000850182613234565b50602082015161327c6020850182613243565b50604082015161328f6040850182613243565b5060608201516132a26060850182613243565b5060808201516132b56080850182613243565b5060a08201516132c860a0850182613243565b5060c08201516132db60c0850182613243565b5060e08201516132ee60e0850182613243565b50505050565b60006133008383613252565b6101008301905092915050565b6000602082019050919050565b61332381613214565b61332d818461321f565b92506133388261322a565b8060005b8381101561336957815161335087826132f4565b965061335b8361330d565b92505060018101905061333c565b505050505050565b61024082016000820151613388600085018261331a565b50602082015161339c610200850182613243565b5060408201516133b0610220850182613234565b50505050565b6000610280820190506133cc60008301866131f6565b6133d96020830185613205565b6133e66040830184613371565b949350505050565b600060029050919050565b600081905092915050565b6000819050919050565b60e0820160008201516134246000850182613234565b5060208201516134376020850182613243565b50604082015161344a6040850182613243565b50606082015161345d6060850182613243565b5060808201516134706080850182613243565b5060a082015161348360a0850182613243565b5060c082015161349660c0850182613243565b50505050565b60006134a8838361340e565b60e08301905092915050565b6000602082019050919050565b6134ca816133ee565b6134d481846133f9565b92506134df82613404565b8060005b838110156135105781516134f7878261349c565b9650613502836134b4565b9250506001810190506134e3565b505050505050565b6102408201600082015161352f60008501826134c1565b5060208201516135436101c0850182613234565b5060408201516135576101e0850182613234565b50606082015161356b610200850182613243565b50608082015161357f610220850182613243565b50505050565b60006102808201905061359b60008301866131f6565b6135a86020830185613205565b6135b56040830184613518565b949350505050565b60006040820190506135d260008301856131f6565b6135df6020830184613205565b9392505050565b600080fd5b7f4e487b7100000000000000000000000000000000000000000000000000000000600052604160045260246000fd5b61362382613132565b810181811067ffffffffffffffff82111715613642576136416135eb565b5b80604052505050565b6000613655612be6565b9050613661828261361a565b919050565b600080fd5b600067ffffffffffffffff821115613686576136856135eb565b5b602082029050919050565b600080fd5b6000815190506136a581612c27565b92915050565b600060e082840312156136c1576136c06135e6565b5b6136cb60e061364b565b905060006136db84828501613696565b60008301525060206136ef84828501612f7a565b602083015250604061370384828501612f7a565b604083015250606061371784828501612f7a565b606083015250608061372b84828501612f7a565b60808301525060a061373f84828501612f7a565b60a08301525060c061375384828501612f7a565b60c08301525092915050565b600061377261376d8461366b565b61364b565b90508060e0840283018581111561378c5761378b613691565b5b835b818110156137b557806137a188826136ab565b84526020840193505060e08101905061378e565b5050509392505050565b600082601f8301126137d4576137d3613666565b5b60026137e184828561375f565b91505092915050565b60006102408284031215613801576138006135e6565b5b61380b60a061364b565b9050600061381b848285016137bf565b6000830152506101c061383084828501613696565b6020830152506101e061384584828501613696565b60408301525061020061385a84828501612f7a565b60608301525061022061386f84828501612f7a565b60808301525092915050565b6000610240828403121561389257613891612bf0565b5b60006138a0848285016137ea565b91505092915050565b60006040820190506138be6000830185613028565b6138cb6020830184613028565b9392505050565b7f4e487b7100000000000000000000000000000000000000000000000000000000600052601160045260246000fd5b600061390c82612f59565b915061391783612f59565b925082820190508082111561392f5761392e6138d2565b5b92915050565b600061394082612f59565b915061394b83612f59565b9250828203905081811115613963576139626138d2565b5b92915050565b60008160011c9050919050565b6000808291508390505b60018511156139c05780860481111561399c5761399b6138d2565b5b60018516156139ab5780820291505b80810290506139b985613969565b9450613980565b94509492505050565b6000826139d95760019050613a95565b816139e75760009050613a95565b81600181146139fd5760028114613a0757613a36565b6001915050613a95565b60ff841115613a1957613a186138d2565b5b8360020a915084821115613a3057613a2f6138d2565b5b50613a95565b5060208310610133831016604e8410600b8410161715613a6b5782820a905083811115613a6657613a656138d2565b5b613a95565b613a788484846001613976565b92509050818404811115613a8f57613a8e6138d2565b5b81810290505b9392505050565b6000613aa782612f59565b9150613ab283612f59565b9250613adf7fffffffffffffffffffffffffffffffffffffffffffffffffffffffffffffffff84846139c9565b905092915050565b600061012082019050613afd600083018c613060565b613b0a602083018b613060565b613b17604083018a613060565b613b246060830189613028565b613b316080830188613028565b613b3e60a0830187613028565b613b4b60c0830186613028565b613b5860e0830185613028565b613b66610100830184613028565b9a9950505050505050505050565b60006040820190508181036000830152613b8e8185613143565b90508181036020830152613ba28184613143565b90509392505050565b600067ffffffffffffffff821115613bc657613bc56135eb565b5b602082029050919050565b60006101008284031215613be857613be76135e6565b5b613bf361010061364b565b90506000613c0384828501613696565b6000830152506020613c1784828501612f7a565b6020830152506040613c2b84828501612f7a565b6040830152506060613c3f84828501612f7a565b6060830152506080613c5384828501612f7a565b60808301525060a0613c6784828501612f7a565b60a08301525060c0613c7b84828501612f7a565b60c08301525060e0613c8f84828501612f7a565b60e08301525092915050565b6000613cae613ca984613bab565b61364b565b9050806101008402830185811115613cc957613cc8613691565b5b835b81811015613cf35780613cde8882613bd1565b84526020840193505061010081019050613ccb565b5050509392505050565b600082601f830112613d1257613d11613666565b5b6002613d1f848285613c9b565b91505092915050565b60006102408284031215613d3f57613d3e6135e6565b5b613d49606061364b565b90506000613d5984828501613cfd565b600083015250610200613d6e84828501612f7a565b602083015250610220613d8384828501613696565b60408301525092915050565b60006102408284031215613da657613da5612bf0565b5b6000613db484828501613d28565b91505092915050565b7f4143434f554e545f504f534954494f4e00000000000000000000000000000000600082015250565b6000613df3601083612da9565b9150613dfe82613dbd565b602082019050919050565b60006020820190508181036000830152613e2281613de6565b9050919050565b6000604082019050613e3e6000830185612f2f565b613e4b6020830184613060565b9392505050565b6000819050919050565b6000613e77613e72613e6d84613e52565b612cb7565b612f59565b9050919050565b613e8781613e5c565b82525050565b6000604082019050613ea26000830185612f2f565b613eaf6020830184613e7e565b9392505050565b7f504f534954494f4e000000000000000000000000000000000000000000000000600082015250565b6000613eec600883612da9565b9150613ef782613eb6565b602082019050919050565b60006020820190508181036000830152613f1b81613edf565b9050919050565b6000606082019050613f376000830186612f2f565b613f446020830185613060565b613f516040830184613028565b949350505050565b7f504f4f4c00000000000000000000000000000000000000000000000000000000600082015250565b6000613f8f600483612da9565b9150613f9a82613f59565b602082019050919050565b60006020820190508181036000830152613fbe81613f82565b9050919050565b6000606082019050613fda6000830186612f2f565b613fe76020830185613060565b613ff46040830184613060565b949350505050565b60006040820190506140116000830185613060565b61401e6020830184613060565b9392505050565b7f4e487b7100000000000000000000000000000000000000000000000000000000600052601260045260246000fd5b61405d81612f59565b82525050565b6060820160008201516140796000850182614054565b50602082015161408c6020850182614054565b50604082015161409f6040850182614054565b50505050565b60006060820190506140ba6000830184614063565b92915050565b60006140cb82612f59565b91506140d683612f59565b92508282026140e481612f59565b915082820484148315176140fb576140fa6138d2565b5b5092915050565b7f4d41585f4445504f5349545f5241544500000000000000000000000000000000600082015250565b6000614138601083612da9565b915061414382614102565b602082019050919050565b600060208201905081810360008301526141678161412b565b9050919050565b600060608201905081810360008301526141888186613143565b9050818103602083015261419c8185613143565b90506141ab6040830184613028565b949350505050565b7f64732d6d6174682d7375622d756e646572666c6f770000000000000000000000600082015250565b60006141e9601583612da9565b91506141f4826141b3565b602082019050919050565b60006020820190508181036000830152614218816141dc565b9050919050565b7f4e487b7100000000000000000000000000000000000000000000000000000000600052605160045260246000fdfea26469706673582212203c397c46f5c4dbe0e0509e4ed3bbce15630a123897705a5fe67721a6330fa97864736f6c634300081c0033",
  "linkReferences": {
    "contracts/pool/PoolStoreUtils.sol": {
      "PoolStoreUtils": [
        {
          "length": 20,
          "start": 2866
        },
        {
          "length": 20,
          "start": 3749
        }
      ]
    },
    "contracts/position/PositionStoreUtils.sol": {
      "PositionStoreUtils": [
        {
          "length": 20,
          "start": 2729
        },
        {
          "length": 20,
          "start": 5965
        }
      ]
    }
  },
  "deployedLinkReferences": {
    "contracts/pool/PoolStoreUtils.sol": {
      "PoolStoreUtils": [
        {
          "length": 20,
          "start": 2235
        },
        {
          "length": 20,
          "start": 3118
        }
      ]
    },
    "contracts/position/PositionStoreUtils.sol": {
      "PositionStoreUtils": [
        {
          "length": 20,
          "start": 2098
        },
        {
          "length": 20,
          "start": 5334
        }
      ]
    }
  }
}