{
  "_format": "hh-sol-artifact-1",
  "contractName": "DepositHandler",
  "sourceName": "contracts/exchange/DepositHandler.sol",
  "abi": [
    {
      "inputs": [
        {
          "internalType": "contract RoleStore",
          "name": "_roleStore",
          "type": "address"
        },
        {
          "internalType": "contract DataStore",
          "name": "_dataStore",
          "type": "address"
        },
        {
          "internalType": "contract EventEmitter",
          "name": "_eventEmitter",
          "type": "address"
        }
      ],
      "stateMutability": "nonpayable",
      "type": "constructor"
    },
    {
      "inputs": [
        {
          "internalType": "address",
          "name": "accountInPosition",
          "type": "address"
        },
        {
          "internalType": "address",
          "name": "account",
          "type": "address"
        }
      ],
      "name": "AccountNotMatch",
      "type": "error"
    },
    {
      "inputs": [],
      "name": "EmptyDepositAmounts",
      "type": "error"
    },
    {
      "inputs": [
        {
          "internalType": "bytes32",
          "name": "key",
          "type": "bytes32"
        }
      ],
      "name": "EmptyPool",
      "type": "error"
    },
    {
      "inputs": [],
      "name": "EmptyPosition",
      "type": "error"
    },
    {
      "inputs": [],
      "name": "MathOverflowedMulDiv",
      "type": "error"
    },
    {
      "inputs": [],
      "name": "MaxPositionId",
      "type": "error"
    },
    {
      "inputs": [],
      "name": "TokenIndexNotSupport",
      "type": "error"
    },
    {
      "inputs": [
        {
          "internalType": "address",
          "name": "msgSender",
          "type": "address"
        },
        {
          "internalType": "string",
          "name": "role",
          "type": "string"
        }
      ],
      "name": "Unauthorized",
      "type": "error"
    },
    {
      "inputs": [],
      "name": "dataStore",
      "outputs": [
        {
          "internalType": "contract DataStore",
          "name": "",
          "type": "address"
        }
      ],
      "stateMutability": "view",
      "type": "function"
    },
    {
      "inputs": [],
      "name": "eventEmitter",
      "outputs": [
        {
          "internalType": "contract EventEmitter",
          "name": "",
          "type": "address"
        }
      ],
      "stateMutability": "view",
      "type": "function"
    },
    {
      "inputs": [
        {
          "internalType": "address",
          "name": "account",
          "type": "address"
        },
        {
          "components": [
            {
              "internalType": "uint256",
              "name": "positionId",
              "type": "uint256"
            },
            {
              "internalType": "address",
              "name": "token0",
              "type": "address"
            },
            {
              "internalType": "address",
              "name": "token1",
              "type": "address"
            },
            {
              "internalType": "uint8",
              "name": "tokenIndex",
              "type": "uint8"
            }
          ],
          "internalType": "struct DepositUtils.DepositParams",
          "name": "depositParams",
          "type": "tuple"
        }
      ],
      "name": "executeDeposit",
      "outputs": [],
      "stateMutability": "nonpayable",
      "type": "function"
    },
    {
      "inputs": [],
      "name": "roleStore",
      "outputs": [
        {
          "internalType": "contract RoleStore",
          "name": "",
          "type": "address"
        }
      ],
      "stateMutability": "view",
      "type": "function"
    }
  ],
  "bytecode": "0x60e060405234801561001057600080fd5b50604051613ffe380380613ffe833981810160405281019061003291906101cb565b82828073ffffffffffffffffffffffffffffffffffffffff1660808173ffffffffffffffffffffffffffffffffffffffff1681525050508073ffffffffffffffffffffffffffffffffffffffff1660a08173ffffffffffffffffffffffffffffffffffffffff1681525050508073ffffffffffffffffffffffffffffffffffffffff1660c08173ffffffffffffffffffffffffffffffffffffffff168152505050505061021e565b600080fd5b600073ffffffffffffffffffffffffffffffffffffffff82169050919050565b600061010a826100df565b9050919050565b600061011c826100ff565b9050919050565b61012c81610111565b811461013757600080fd5b50565b60008151905061014981610123565b92915050565b600061015a826100ff565b9050919050565b61016a8161014f565b811461017557600080fd5b50565b60008151905061018781610161565b92915050565b6000610198826100ff565b9050919050565b6101a88161018d565b81146101b357600080fd5b50565b6000815190506101c58161019f565b92915050565b6000806000606084860312156101e4576101e36100da565b5b60006101f28682870161013a565b935050602061020386828701610178565b9250506040610214868287016101b6565b9150509250925092565b60805160a05160c051613d876102776000396000818161017d0152610299015260008181610251015261048901526000818161014101528181610275015281816102bf015281816103c20152610a3a0152613d876000f3fe608060405234801561001057600080fd5b506004361061004c5760003560e01c80630f4e5ba1146100515780634a4a7b041461006d578063660d0d671461008b5780639ff78c30146100a9575b600080fd5b61006b60048036038101906100669190612854565b6100c7565b005b61007561024f565b60405161008291906128f3565b60405180910390f35b610093610273565b6040516100a0919061292f565b60405180910390f35b6100b1610297565b6040516100be919061296b565b60405180910390f35b6100cf6102bb565b6101326040516020016100e1906129e3565b604051602081830303815290604052805190602001206040518060400160405280600a81526020017f434f4e54524f4c4c455200000000000000000000000000000000000000000000815250610487565b60006040518060c001604052807f000000000000000000000000000000000000000000000000000000000000000073ffffffffffffffffffffffffffffffffffffffff1681526020017f000000000000000000000000000000000000000000000000000000000000000073ffffffffffffffffffffffffffffffffffffffff168152602001836000013581526020018360200160208101906101d49190612a03565b73ffffffffffffffffffffffffffffffffffffffff1681526020018360400160208101906102029190612a03565b73ffffffffffffffffffffffffffffffffffffffff1681526020018360600160208101906102309190612a69565b60ff168152509050610242838261056a565b5061024b610a38565b5050565b7f000000000000000000000000000000000000000000000000000000000000000081565b7f000000000000000000000000000000000000000000000000000000000000000081565b7f000000000000000000000000000000000000000000000000000000000000000081565b60007f000000000000000000000000000000000000000000000000000000000000000073ffffffffffffffffffffffffffffffffffffffff1663bd02d0f560405160200161030890612ae2565b604051602081830303815290604052805190602001206040518263ffffffff1660e01b815260040161033a9190612b1b565b602060405180830381865afa158015610357573d6000803e3d6000fd5b505050506040513d601f19601f8201168201806040525081019061037b9190612b6c565b9050600081146103c0576040517f08c379a00000000000000000000000000000000000000000000000000000000081526004016103b790612be5565b60405180910390fd5b7f000000000000000000000000000000000000000000000000000000000000000073ffffffffffffffffffffffffffffffffffffffff1663e2a4853a60405160200161040b90612ae2565b6040516020818303038152906040528051906020012060016040518363ffffffff1660e01b8152600401610440929190612c14565b6020604051808303816000875af115801561045f573d6000803e3d6000fd5b505050506040513d601f19601f820116820180604052508101906104839190612b6c565b5050565b7f000000000000000000000000000000000000000000000000000000000000000073ffffffffffffffffffffffffffffffffffffffff1663ac4ab3fb33846040518363ffffffff1660e01b81526004016104e2929190612c4c565b602060405180830381865afa1580156104ff573d6000803e3d6000fd5b505050506040513d601f19601f820116820180604052508101906105239190612cad565b6105665733816040517fa35b150b00000000000000000000000000000000000000000000000000000000815260040161055d929190612d59565b60405180910390fd5b5050565b6105a86040518060400160405280600e81526020017f657865637574654465706f736974000000000000000000000000000000000000815250610afe565b6105b0612553565b6105d2838360000151846040015185606001518660800151600160ff16610b47565b83604001846080018560600183815250838152508390525050506106498260000151826040015160000151600060ff166002811061061357610612612d89565b5b602002015160000151836040015160000151600160ff166002811061063b5761063a612d89565b5b602002015160000151610c0e565b82600001836020018281525082905250508060000151600001518260a0015160ff166002811061067c5761067b612d89565b5b6020020151600001518160c0019073ffffffffffffffffffffffffffffffffffffffff16908173ffffffffffffffffffffffffffffffffffffffff16815250508060000151602001518160a0019073ffffffffffffffffffffffffffffffffffffffff16908173ffffffffffffffffffffffffffffffffffffffff16815250508060a0015173ffffffffffffffffffffffffffffffffffffffff1663352f9aed8260c001516040518263ffffffff1660e01b815260040161073d9190612db8565b6020604051808303816000875af115801561075c573d6000803e3d6000fd5b505050506040513d601f19601f820116820180604052508101906107809190612b6c565b8160e00181815250506107a683826000015183604001518460e001518660a00151610cc7565b6107c5816000015182604001518460a001518460e00151600080610d1b565b600160ff168260a0015160ff160361082b576107e48160000151610ff0565b8161010001818152505061082a8160400151600001518360a0015160ff166002811061081357610812612d89565b5b60200201518261010001518360e0015160016110c0565b5b73__$3d31b232fb363902662fbc281b11ab3357$__6370b5270e8360000151836080015184604001516040518463ffffffff1660e01b815260040161087293929190612f93565b60006040518083038186803b15801561088a57600080fd5b505af415801561089e573d6000803e3d6000fd5b505050506108b48260200151826000015161124c565b73__$e0022d6f389ac14ff1ce1dc57a4018d0a3$__63be6afc398360000151836020015184600001516040518463ffffffff1660e01b81526004016108fb93929190613162565b60006040518083038186803b15801561091357600080fd5b505af4158015610927573d6000803e3d6000fd5b50505050610a33826020015184836040015160000151600060ff166002811061095357610952612d89565b5b602002015160000151846040015160000151600160ff166002811061097b5761097a612d89565b5b60200201516000015185606001518660e00151876040015160000151600060ff16600281106109ad576109ac612d89565b5b602002015160200151886040015160000151600060ff16600281106109d5576109d4612d89565b5b602002015160400151896040015160000151600160ff16600281106109fd576109fc612d89565b5b6020020151602001518a6040015160000151600160ff1660028110610a2557610a24612d89565b5b6020020151604001516112a9565b505050565b7f000000000000000000000000000000000000000000000000000000000000000073ffffffffffffffffffffffffffffffffffffffff1663e2a4853a604051602001610a8390612ae2565b6040516020818303038152906040528051906020012060006040518363ffffffff1660e01b8152600401610ab8929190612c14565b6020604051808303816000875af1158015610ad7573d6000803e3d6000fd5b505050506040513d601f19601f82011682018060405250810190610afb9190612b6c565b50565b6000610b4457610b436040518060400160405280600281526020017f257300000000000000000000000000000000000000000000000000000000000081525082611330565b5b50565b610b4f6125dd565b600080610b5a6125dd565b6000627a12008914610b8957610b718b8b8b6113cc565b809250819350505081818a9450945094505050610c02565b6000610b958b8d61147c565b9050610ba18c82611598565b9150808360200181815250508b836040019073ffffffffffffffffffffffffffffffffffffffff16908173ffffffffffffffffffffffffffffffffffffffff1681525050610bf1838a8a8a6115f1565b828284602001519550955095505050505b96509650969350505050565b610c1661261a565b600080610c2385856118f3565b9050600073__$e0022d6f389ac14ff1ce1dc57a4018d0a3$__637b82d74e88846040518363ffffffff1660e01b8152600401610c6092919061319a565b61024060405180830381865af4158015610c7e573d6000803e3d6000fd5b505050506040513d601f19601f82011682018060405250810190610ca29190613458565b9050610cae8183611991565b610cb781611a0a565b8082935093505050935093915050565b610cd18584611bb6565b60008203610d0b576040517f01af8c2400000000000000000000000000000000000000000000000000000000815260040160405180910390fd5b610d1481611c9e565b5050505050565b6000610d2684611caa565b905060008412610da3578086600001518660ff1660028110610d4b57610d4a612d89565b5b6020020151602001818151610d6091906134b5565b915081815250508087600001518660ff1660028110610d8257610d81612d89565b5b6020020151606001818151610d9791906134b5565b91508181525050610e12565b8086600001518660ff1660028110610dbe57610dbd612d89565b5b6020020151602001818151610dd391906134e9565b915081815250508087600001518660ff1660028110610df557610df4612d89565b5b6020020151606001818151610e0a91906134e9565b915081815250505b8115610ea657600086600001518660ff1660028110610e3457610e33612d89565b5b60200201516040015190508088600001518760ff1660028110610e5a57610e59612d89565b5b602002015160a001818151610e6f91906134e9565b91508181525050600087600001518760ff1660028110610e9257610e91612d89565b5b602002015160400181815250505050610fe8565b60008303610eb45750610fe8565b6000610ebf84611caa565b90506000610ef889600001518860ff1660028110610ee057610edf612d89565b5b60200201516020015183611cc690919063ffffffff16565b905060008512610f75578088600001518860ff1660028110610f1d57610f1c612d89565b5b6020020151604001818151610f3291906134b5565b915081815250508089600001518860ff1660028110610f5457610f53612d89565b5b602002015160a001818151610f6991906134b5565b91508181525050610fe4565b8088600001518860ff1660028110610f9057610f8f612d89565b5b6020020151604001818151610fa591906134e9565b915081815250508089600001518860ff1660028110610fc757610fc6612d89565b5b602002015160a001818151610fdc91906134e9565b915081815250505b5050505b505050505050565b600080610fff83600080611d0d565b505050905060006110138460016000611d0d565b50505090506000810361102b576000925050506110bb565b600061103c85606001516000611e0c565b9050600061104f86606001516001611e0c565b90506000611076856b033b2e3c9fd0803ce800000085600a6110719190613650565b611e7f565b9050600061109d856b033b2e3c9fd0803ce800000085600a6110989190613650565b611e7f565b90506110b28183611cc690919063ffffffff16565b96505050505050505b919050565b600260ff168460e00151036110f657600160ff168460e0018181525050818460a001818152505082846060018181525050611246565b600160ff168460e001510361118d5760008460a001519050828560a00181815161112091906134b5565b9150818152505081156111875760006111428486611f8690919063ffffffff16565b611159838860600151611f8690919063ffffffff16565b61116391906134b5565b905061117c8660a0015182611cc690919063ffffffff16565b866060018181525050505b50611245565b600060ff168460e001510361124457818460c0015111156111c657818460c0018181516111ba91906134e9565b91508181525050611243565b818460c00151036111fa57600260ff168460e001818152505060008460c00181815250506000846080018181525050611242565b600160ff168460e00181815250508360c001518261121891906134e9565b8460a00181815250508284606001818152505060008460c001818152505060008460800181815250505b5b5b5b5b50505050565b61125581611fd1565b8260000151600060ff16600281106112705761126f612d89565b5b60200201516040018360000151600160ff166002811061129357611292612d89565b5b6020020151604001828152508281525050505050565b8973ffffffffffffffffffffffffffffffffffffffff1663119c6c838a8a8a8a8a8a8a8a8a6040518a63ffffffff1660e01b81526004016112f29998979695949392919061369b565b600060405180830381600087803b15801561130c57600080fd5b505af1158015611320573d6000803e3d6000fd5b5050505050505050505050505050565b6113c88282604051602401611346929190613728565b6040516020818303038152906040527f4b5c4277000000000000000000000000000000000000000000000000000000007bffffffffffffffffffffffffffffffffffffffffffffffffffffffff19166020820180517bffffffffffffffffffffffffffffffffffffffffffffffffffffffff838183161783525050505061220a565b5050565b6113d46125dd565b6000806113e18685611598565b9050600073__$3d31b232fb363902662fbc281b11ab3357$__637b82d74e87846040518363ffffffff1660e01b815260040161141e92919061319a565b61024060405180830381865af415801561143c573d6000803e3d6000fd5b505050506040513d601f19601f820116820180604052508101906114609190613943565b905061146c8782611bb6565b8082935093505050935093915050565b60008083905060008173ffffffffffffffffffffffffffffffffffffffff1663340dbab36040516020016114af906139bd565b60405160208183030381529060405280519060200120866040516020016114d79291906139dd565b6040516020818303038152906040528051906020012060016040518363ffffffff1660e01b815260040161150c929190613a41565b6020604051808303816000875af115801561152b573d6000803e3d6000fd5b505050506040513d601f19601f8201168201806040525081019061154f9190612b6c565b9050627a1200811061158d576040517fb611be7400000000000000000000000000000000000000000000000000000000815260040160405180910390fd5b809250505092915050565b60006040516020016115a990613ab6565b6040516020818303038152906040528051906020012083836040516020016115d393929190613ad6565b60405160208183030381529060405280519060200120905092915050565b828460000151600060ff166002811061160d5761160c612d89565b5b60200201516000019073ffffffffffffffffffffffffffffffffffffffff16908173ffffffffffffffffffffffffffffffffffffffff168152505060008460000151600060ff166002811061166557611664612d89565b5b6020020151602001818152505060008460000151600060ff166002811061168f5761168e612d89565b5b6020020151604001818152505060008460000151600060ff16600281106116b9576116b8612d89565b5b6020020151606001818152505060008460000151600060ff16600281106116e3576116e2612d89565b5b602002015160a001818152505060008460000151600060ff166002811061170d5761170c612d89565b5b6020020151608001818152505060008460000151600060ff166002811061173757611736612d89565b5b602002015160c0018181525050600260ff168460000151600060ff166002811061176457611763612d89565b5b602002015160e0018181525050818460000151600160ff166002811061178d5761178c612d89565b5b60200201516000019073ffffffffffffffffffffffffffffffffffffffff16908173ffffffffffffffffffffffffffffffffffffffff168152505060008460000151600160ff16600281106117e5576117e4612d89565b5b6020020151602001818152505060008460000151600160ff166002811061180f5761180e612d89565b5b6020020151604001818152505060008460000151600160ff166002811061183957611838612d89565b5b6020020151606001818152505060008460000151600160ff166002811061186357611862612d89565b5b602002015160a001818152505060008460000151600160ff166002811061188d5761188c612d89565b5b6020020151608001818152505060008460000151600160ff16600281106118b7576118b6612d89565b5b602002015160c0018181525050808460000151600160ff16600281106118e0576118df612d89565b5b602002015160e001818152505050505050565b60008173ffffffffffffffffffffffffffffffffffffffff168373ffffffffffffffffffffffffffffffffffffffff161061192f578183611932565b82825b809350819450505060405160200161194990613b59565b60405160208183030381529060405280519060200120838360405160200161197393929190613b79565b60405160208183030381529060405280519060200120905092915050565b600073ffffffffffffffffffffffffffffffffffffffff16826020015173ffffffffffffffffffffffffffffffffffffffff1603611a0657806040517f7357d91f0000000000000000000000000000000000000000000000000000000081526004016119fd9190612b1b565b60405180910390fd5b5050565b6000611a14612224565b905080826080015103611a275750611bb3565b60008260000151600060ff1660028110611a4457611a43612d89565b5b602002015160a0015114611ae7576000611a858360000151600060ff1660028110611a7257611a71612d89565b5b602002015160400151846080015161222c565b9050611abd818460000151600060ff1660028110611aa657611aa5612d89565b5b602002015160200151611f8690919063ffffffff16565b8360000151600060ff1660028110611ad857611ad7612d89565b5b60200201516020018181525050505b60008260000151600160ff1660028110611b0457611b03612d89565b5b602002015160a0015114611ba7576000611b458360000151600160ff1660028110611b3257611b31612d89565b5b602002015160400151846080015161222c565b9050611b7d818460000151600160ff1660028110611b6657611b65612d89565b5b602002015160200151611f8690919063ffffffff16565b8360000151600160ff1660028110611b9857611b97612d89565b5b60200201516020018181525050505b80826080018181525050505b50565b600073ffffffffffffffffffffffffffffffffffffffff16816040015173ffffffffffffffffffffffffffffffffffffffff1603611c20576040517f4dfbbff300000000000000000000000000000000000000000000000000000000815260040160405180910390fd5b806040015173ffffffffffffffffffffffffffffffffffffffff168273ffffffffffffffffffffffffffffffffffffffff1614611c9a578060400151826040517f25c7157e000000000000000000000000000000000000000000000000000000008152600401611c91929190613bb0565b60405180910390fd5b5050565b611ca781612287565b50565b600080821215611cbd5781600003611cbf565b815b9050919050565b60006b033b2e3c9fd0803ce80000006002830460001903048311151582151715611cef57600080fd5b81600283046b033b2e3c9fd0803ce800000085020104905092915050565b600080600080600087600001518760ff1660028110611d2f57611d2e612d89565b5b602002015190506000611d4289896122df565b905060008103611d615760008060008095509550955095505050611e03565b6000611d71838b608001516123ea565b90506000818310611d9457611d8f828461242f90919063ffffffff16565b611d97565b60005b90506000611dae8a85611f8690919063ffffffff16565b90506000808b14611de057838210611dd857611dd3848361242f90919063ffffffff16565b611ddb565b60005b611de3565b60005b90508385611df191906134b5565b85848399509950995099505050505050505b93509350935093565b6000807fffffffffffffffffffffffffffffffffffffffff00ffffffffffffffffffffff9050600060589050600160ff168460ff1603611e6e577fffffffffffffffffffffffffffffffffffffff00ffffffffffffffffffffffff9150606090505b8082198616901c9250505092915050565b6000808385029050600080198587098281108382030391505060008103611eba57838281611eb057611eaf613bd9565b5b0492505050611f7f565b808411611ef3576040517f227bc15300000000000000000000000000000000000000000000000000000000815260040160405180910390fd5b600084868809905082811182039150808303925060008560000386169050808604955080840493506001818260000304019050808302841793506000600287600302189050808702600203810290508087026002038102905080870260020381029050808702600203810290508087026002038102905080870260020381029050808502955050505050505b9392505050565b6000816b019d971e4fe8401e740000006000190304831115821517611faa57600080fd5b6b033b2e3c9fd0803ce80000006b019d971e4fe8401e740000008385020104905092915050565b600080611fdc61267b565b611fe7846000612488565b82600001836020018281525082815250505061200884606001516000611e0c565b81606001818152505061203c81600001516b033b2e3c9fd0803ce80000008360600151600a6120379190613650565b611e7f565b816040018181525050600081602001510361206157600081608001818152505061210f565b836040015173ffffffffffffffffffffffffffffffffffffffff1663fdd63ecf6040518060600160405280846000015181526020018460200151815260200184604001518152506040518263ffffffff1660e01b81526004016120c49190613c59565b602060405180830381865afa1580156120e1573d6000803e3d6000fd5b505050506040513d601f19601f820116820180604052508101906121059190612b6c565b8160800181815250505b61211a846001612488565b82600001836020018281525082815250505060008160200151036121485760008160a00181815250506121f6565b836040015173ffffffffffffffffffffffffffffffffffffffff1663fdd63ecf6040518060600160405280846000015181526020018460200151815260200184604001518152506040518263ffffffff1660e01b81526004016121ab9190613c59565b602060405180830381865afa1580156121c8573d6000803e3d6000fd5b505050506040513d601f19601f820116820180604052508101906121ec9190612b6c565b8160a00181815250505b80608001518160a001519250925050915091565b612221816122196124d86124f9565b63ffffffff16565b50565b600042905090565b60008082612238612224565b61224291906134e9565b8461224d9190613c74565b90506301e13380818161226357612262613bd9565b5b049050806b033b2e3c9fd0803ce800000061227e91906134b5565b91505092915050565b600060ff168160ff16141580156122a55750600160ff168160ff1614155b156122dc576040517fa04d606c00000000000000000000000000000000000000000000000000000000815260040160405180910390fd5b50565b60008083600001518360ff16600281106122fc576122fb612d89565b5b602002015190506000846020015173ffffffffffffffffffffffffffffffffffffffff1663e42c08f283600001516040518263ffffffff1660e01b81526004016123469190612db8565b602060405180830381865afa158015612363573d6000803e3d6000fd5b505050506040513d601f19601f820116820180604052508101906123879190612b6c565b90506000810361239c576000925050506123e4565b6000826060015190508260c00151816123b591906134b5565b82106123db578260c0015181836123cc91906134e9565b6123d691906134e9565b6123de565b60005b93505050505b92915050565b6000808360a00151036124005760009050612429565b600061240c8484612504565b9050612425818560a00151611f8690919063ffffffff16565b9150505b92915050565b600082828461243e91906134e9565b9150811115612482576040517f08c379a000000000000000000000000000000000000000000000000000000000815260040161247990613d02565b60405180910390fd5b92915050565b60008060006124b985600001518560ff16600281106124aa576124a9612d89565b5b602002015186608001516123ea565b905060006124c786866122df565b905080829350935050509250929050565b60006a636f6e736f6c652e6c6f679050600080835160208501845afa505050565b6126b1819050919050565b600061250e612224565b8203612520578260200151905061254d565b600061253084604001518461222c565b9050612549846020015182611f8690919063ffffffff16565b9150505b92915050565b60405180610120016040528061256761261a565b81526020016000801916815260200161257e6125dd565b81526020016000815260200160008019168152602001600073ffffffffffffffffffffffffffffffffffffffff168152602001600073ffffffffffffffffffffffffffffffffffffffff16815260200160008152602001600081525090565b60405180606001604052806125f06126bb565b815260200160008152602001600073ffffffffffffffffffffffffffffffffffffffff1681525090565b6040518060a0016040528061262d6126e8565b8152602001600073ffffffffffffffffffffffffffffffffffffffff168152602001600073ffffffffffffffffffffffffffffffffffffffff16815260200160008152602001600081525090565b6040518060c001604052806000815260200160008152602001600081526020016000815260200160008152602001600081525090565b6126b9613d22565b565b60405180604001604052806002905b6126d2612715565b8152602001906001900390816126ca5790505090565b60405180604001604052806002905b6126ff612770565b8152602001906001900390816126f75790505090565b604051806101000160405280600073ffffffffffffffffffffffffffffffffffffffff168152602001600081526020016000815260200160008152602001600081526020016000815260200160008152602001600081525090565b6040518060e00160405280600073ffffffffffffffffffffffffffffffffffffffff1681526020016000815260200160008152602001600081526020016000815260200160008152602001600081525090565b6000604051905090565b600080fd5b600073ffffffffffffffffffffffffffffffffffffffff82169050919050565b60006127fd826127d2565b9050919050565b61280d816127f2565b811461281857600080fd5b50565b60008135905061282a81612804565b92915050565b600080fd5b60006080828403121561284b5761284a612830565b5b81905092915050565b60008060a0838503121561286b5761286a6127cd565b5b60006128798582860161281b565b925050602061288a85828601612835565b9150509250929050565b6000819050919050565b60006128b96128b46128af846127d2565b612894565b6127d2565b9050919050565b60006128cb8261289e565b9050919050565b60006128dd826128c0565b9050919050565b6128ed816128d2565b82525050565b600060208201905061290860008301846128e4565b92915050565b6000612919826128c0565b9050919050565b6129298161290e565b82525050565b60006020820190506129446000830184612920565b92915050565b6000612955826128c0565b9050919050565b6129658161294a565b82525050565b6000602082019050612980600083018461295c565b92915050565b600082825260208201905092915050565b7f434f4e54524f4c4c455200000000000000000000000000000000000000000000600082015250565b60006129cd600a83612986565b91506129d882612997565b602082019050919050565b600060208201905081810360008301526129fc816129c0565b9050919050565b600060208284031215612a1957612a186127cd565b5b6000612a278482850161281b565b91505092915050565b600060ff82169050919050565b612a4681612a30565b8114612a5157600080fd5b50565b600081359050612a6381612a3d565b92915050565b600060208284031215612a7f57612a7e6127cd565b5b6000612a8d84828501612a54565b91505092915050565b7f5245454e5452414e43595f47554152445f535441545553000000000000000000600082015250565b6000612acc601783612986565b9150612ad782612a96565b602082019050919050565b60006020820190508181036000830152612afb81612abf565b9050919050565b6000819050919050565b612b1581612b02565b82525050565b6000602082019050612b306000830184612b0c565b92915050565b6000819050919050565b612b4981612b36565b8114612b5457600080fd5b50565b600081519050612b6681612b40565b92915050565b600060208284031215612b8257612b816127cd565b5b6000612b9084828501612b57565b91505092915050565b7f5265656e7472616e637947756172643a207265656e7472616e742063616c6c00600082015250565b6000612bcf601f83612986565b9150612bda82612b99565b602082019050919050565b60006020820190508181036000830152612bfe81612bc2565b9050919050565b612c0e81612b36565b82525050565b6000604082019050612c296000830185612b0c565b612c366020830184612c05565b9392505050565b612c46816127f2565b82525050565b6000604082019050612c616000830185612c3d565b612c6e6020830184612b0c565b9392505050565b60008115159050919050565b612c8a81612c75565b8114612c9557600080fd5b50565b600081519050612ca781612c81565b92915050565b600060208284031215612cc357612cc26127cd565b5b6000612cd184828501612c98565b91505092915050565b600081519050919050565b60005b83811015612d03578082015181840152602081019050612ce8565b60008484015250505050565b6000601f19601f8301169050919050565b6000612d2b82612cda565b612d358185612986565b9350612d45818560208601612ce5565b612d4e81612d0f565b840191505092915050565b6000604082019050612d6e6000830185612c3d565b8181036020830152612d808184612d20565b90509392505050565b7f4e487b7100000000000000000000000000000000000000000000000000000000600052603260045260246000fd5b6000602082019050612dcd6000830184612c3d565b92915050565b612ddc816127f2565b82525050565b612deb81612b02565b82525050565b600060029050919050565b600081905092915050565b6000819050919050565b612e1a816127f2565b82525050565b612e2981612b36565b82525050565b61010082016000820151612e466000850182612e11565b506020820151612e596020850182612e20565b506040820151612e6c6040850182612e20565b506060820151612e7f6060850182612e20565b506080820151612e926080850182612e20565b5060a0820151612ea560a0850182612e20565b5060c0820151612eb860c0850182612e20565b5060e0820151612ecb60e0850182612e20565b50505050565b6000612edd8383612e2f565b6101008301905092915050565b6000602082019050919050565b612f0081612df1565b612f0a8184612dfc565b9250612f1582612e07565b8060005b83811015612f46578151612f2d8782612ed1565b9650612f3883612eea565b925050600181019050612f19565b505050505050565b61024082016000820151612f656000850182612ef7565b506020820151612f79610200850182612e20565b506040820151612f8d610220850182612e11565b50505050565b600061028082019050612fa96000830186612dd3565b612fb66020830185612de2565b612fc36040830184612f4e565b949350505050565b600060029050919050565b600081905092915050565b6000819050919050565b60e0820160008201516130016000850182612e11565b5060208201516130146020850182612e20565b5060408201516130276040850182612e20565b50606082015161303a6060850182612e20565b50608082015161304d6080850182612e20565b5060a082015161306060a0850182612e20565b5060c082015161307360c0850182612e20565b50505050565b60006130858383612feb565b60e08301905092915050565b6000602082019050919050565b6130a781612fcb565b6130b18184612fd6565b92506130bc82612fe1565b8060005b838110156130ed5781516130d48782613079565b96506130df83613091565b9250506001810190506130c0565b505050505050565b6102408201600082015161310c600085018261309e565b5060208201516131206101c0850182612e11565b5060408201516131346101e0850182612e11565b506060820151613148610200850182612e20565b50608082015161315c610220850182612e20565b50505050565b6000610280820190506131786000830186612dd3565b6131856020830185612de2565b61319260408301846130f5565b949350505050565b60006040820190506131af6000830185612dd3565b6131bc6020830184612de2565b9392505050565b600080fd5b7f4e487b7100000000000000000000000000000000000000000000000000000000600052604160045260246000fd5b61320082612d0f565b810181811067ffffffffffffffff8211171561321f5761321e6131c8565b5b80604052505050565b60006132326127c3565b905061323e82826131f7565b919050565b600080fd5b600067ffffffffffffffff821115613263576132626131c8565b5b602082029050919050565b600080fd5b60008151905061328281612804565b92915050565b600060e0828403121561329e5761329d6131c3565b5b6132a860e0613228565b905060006132b884828501613273565b60008301525060206132cc84828501612b57565b60208301525060406132e084828501612b57565b60408301525060606132f484828501612b57565b606083015250608061330884828501612b57565b60808301525060a061331c84828501612b57565b60a08301525060c061333084828501612b57565b60c08301525092915050565b600061334f61334a84613248565b613228565b90508060e084028301858111156133695761336861326e565b5b835b81811015613392578061337e8882613288565b84526020840193505060e08101905061336b565b5050509392505050565b600082601f8301126133b1576133b0613243565b5b60026133be84828561333c565b91505092915050565b600061024082840312156133de576133dd6131c3565b5b6133e860a0613228565b905060006133f88482850161339c565b6000830152506101c061340d84828501613273565b6020830152506101e061342284828501613273565b60408301525061020061343784828501612b57565b60608301525061022061344c84828501612b57565b60808301525092915050565b6000610240828403121561346f5761346e6127cd565b5b600061347d848285016133c7565b91505092915050565b7f4e487b7100000000000000000000000000000000000000000000000000000000600052601160045260246000fd5b60006134c082612b36565b91506134cb83612b36565b92508282019050808211156134e3576134e2613486565b5b92915050565b60006134f482612b36565b91506134ff83612b36565b925082820390508181111561351757613516613486565b5b92915050565b60008160011c9050919050565b6000808291508390505b6001851115613574578086048111156135505761354f613486565b5b600185161561355f5780820291505b808102905061356d8561351d565b9450613534565b94509492505050565b60008261358d5760019050613649565b8161359b5760009050613649565b81600181146135b157600281146135bb576135ea565b6001915050613649565b60ff8411156135cd576135cc613486565b5b8360020a9150848211156135e4576135e3613486565b5b50613649565b5060208310610133831016604e8410600b841016171561361f5782820a90508381111561361a57613619613486565b5b613649565b61362c848484600161352a565b9250905081840481111561364357613642613486565b5b81810290505b9392505050565b600061365b82612b36565b915061366683612b36565b92506136937fffffffffffffffffffffffffffffffffffffffffffffffffffffffffffffffff848461357d565b905092915050565b6000610120820190506136b1600083018c612c3d565b6136be602083018b612c3d565b6136cb604083018a612c3d565b6136d86060830189612c05565b6136e56080830188612c05565b6136f260a0830187612c05565b6136ff60c0830186612c05565b61370c60e0830185612c05565b61371a610100830184612c05565b9a9950505050505050505050565b600060408201905081810360008301526137428185612d20565b905081810360208301526137568184612d20565b90509392505050565b600067ffffffffffffffff82111561377a576137796131c8565b5b602082029050919050565b6000610100828403121561379c5761379b6131c3565b5b6137a7610100613228565b905060006137b784828501613273565b60008301525060206137cb84828501612b57565b60208301525060406137df84828501612b57565b60408301525060606137f384828501612b57565b606083015250608061380784828501612b57565b60808301525060a061381b84828501612b57565b60a08301525060c061382f84828501612b57565b60c08301525060e061384384828501612b57565b60e08301525092915050565b600061386261385d8461375f565b613228565b905080610100840283018581111561387d5761387c61326e565b5b835b818110156138a757806138928882613785565b8452602084019350506101008101905061387f565b5050509392505050565b600082601f8301126138c6576138c5613243565b5b60026138d384828561384f565b91505092915050565b600061024082840312156138f3576138f26131c3565b5b6138fd6060613228565b9050600061390d848285016138b1565b60008301525061020061392284828501612b57565b60208301525061022061393784828501613273565b60408301525092915050565b6000610240828403121561395a576139596127cd565b5b6000613968848285016138dc565b91505092915050565b7f4143434f554e545f504f534954494f4e00000000000000000000000000000000600082015250565b60006139a7601083612986565b91506139b282613971565b602082019050919050565b600060208201905081810360008301526139d68161399a565b9050919050565b60006040820190506139f26000830185612b0c565b6139ff6020830184612c3d565b9392505050565b6000819050919050565b6000613a2b613a26613a2184613a06565b612894565b612b36565b9050919050565b613a3b81613a10565b82525050565b6000604082019050613a566000830185612b0c565b613a636020830184613a32565b9392505050565b7f504f534954494f4e000000000000000000000000000000000000000000000000600082015250565b6000613aa0600883612986565b9150613aab82613a6a565b602082019050919050565b60006020820190508181036000830152613acf81613a93565b9050919050565b6000606082019050613aeb6000830186612b0c565b613af86020830185612c3d565b613b056040830184612c05565b949350505050565b7f504f4f4c00000000000000000000000000000000000000000000000000000000600082015250565b6000613b43600483612986565b9150613b4e82613b0d565b602082019050919050565b60006020820190508181036000830152613b7281613b36565b9050919050565b6000606082019050613b8e6000830186612b0c565b613b9b6020830185612c3d565b613ba86040830184612c3d565b949350505050565b6000604082019050613bc56000830185612c3d565b613bd26020830184612c3d565b9392505050565b7f4e487b7100000000000000000000000000000000000000000000000000000000600052601260045260246000fd5b613c1181612b36565b82525050565b606082016000820151613c2d6000850182613c08565b506020820151613c406020850182613c08565b506040820151613c536040850182613c08565b50505050565b6000606082019050613c6e6000830184613c17565b92915050565b6000613c7f82612b36565b9150613c8a83612b36565b9250828202613c9881612b36565b91508282048414831517613caf57613cae613486565b5b5092915050565b7f64732d6d6174682d7375622d756e646572666c6f770000000000000000000000600082015250565b6000613cec601583612986565b9150613cf782613cb6565b602082019050919050565b60006020820190508181036000830152613d1b81613cdf565b9050919050565b7f4e487b7100000000000000000000000000000000000000000000000000000000600052605160045260246000fdfea26469706673582212200a8b31a5f60199cb1fdd347b58cb76a54d2af101af9aad86ccaafdf939bbea0264736f6c634300081c0033",
  "linkReferences": {
    "contracts/pool/PoolStoreUtils.sol": {
      "PoolStoreUtils": [
        {
          "length": 20,
          "start": 2861
        },
        {
          "length": 20,
          "start": 3744
        }
      ]
    },
    "contracts/position/PositionStoreUtils.sol": {
      "PositionStoreUtils": [
        {
          "length": 20,
          "start": 2724
        },
        {
          "length": 20,
          "start": 5726
        }
      ]
    }
  },
  "deployedLinkReferences": {
    "contracts/pool/PoolStoreUtils.sol": {
      "PoolStoreUtils": [
        {
          "length": 20,
          "start": 2230
        },
        {
          "length": 20,
          "start": 3113
        }
      ]
    },
    "contracts/position/PositionStoreUtils.sol": {
      "PositionStoreUtils": [
        {
          "length": 20,
          "start": 2093
        },
        {
          "length": 20,
          "start": 5095
        }
      ]
    }
  }
}