{
  "_format": "hh-sol-artifact-1",
  "contractName": "BorrowHandler",
  "sourceName": "contracts/exchange/BorrowHandler.sol",
  "abi": [
    {
      "inputs": [
        {
          "internalType": "contract RoleStore",
          "name": "_roleStore",
          "type": "address"
        },
        {
          "internalType": "contract DataStore",
          "name": "_dataStore",
          "type": "address"
        },
        {
          "internalType": "contract EventEmitter",
          "name": "_eventEmitter",
          "type": "address"
        }
      ],
      "stateMutability": "nonpayable",
      "type": "constructor"
    },
    {
      "inputs": [
        {
          "internalType": "address",
          "name": "accountInPosition",
          "type": "address"
        },
        {
          "internalType": "address",
          "name": "account",
          "type": "address"
        }
      ],
      "name": "AccountNotMatch",
      "type": "error"
    },
    {
      "inputs": [],
      "name": "EmptyBorrowAmounts",
      "type": "error"
    },
    {
      "inputs": [],
      "name": "EmptyCollateral",
      "type": "error"
    },
    {
      "inputs": [
        {
          "internalType": "bytes32",
          "name": "key",
          "type": "bytes32"
        }
      ],
      "name": "EmptyPool",
      "type": "error"
    },
    {
      "inputs": [],
      "name": "EmptyPosition",
      "type": "error"
    },
    {
      "inputs": [
        {
          "internalType": "uint256",
          "name": "amountToBorrow",
          "type": "uint256"
        },
        {
          "internalType": "uint256",
          "name": "availableReserve",
          "type": "uint256"
        }
      ],
      "name": "InsufficientReverveForBorrow",
      "type": "error"
    },
    {
      "inputs": [
        {
          "internalType": "uint256",
          "name": "marginLevel",
          "type": "uint256"
        },
        {
          "internalType": "uint256",
          "name": "marginLevelThreshold",
          "type": "uint256"
        }
      ],
      "name": "MarginBelowThreshold",
      "type": "error"
    },
    {
      "inputs": [],
      "name": "MathOverflowedMulDiv",
      "type": "error"
    },
    {
      "inputs": [],
      "name": "TokenIndexNotSupport",
      "type": "error"
    },
    {
      "inputs": [
        {
          "internalType": "address",
          "name": "msgSender",
          "type": "address"
        },
        {
          "internalType": "string",
          "name": "role",
          "type": "string"
        }
      ],
      "name": "Unauthorized",
      "type": "error"
    },
    {
      "inputs": [],
      "name": "dataStore",
      "outputs": [
        {
          "internalType": "contract DataStore",
          "name": "",
          "type": "address"
        }
      ],
      "stateMutability": "view",
      "type": "function"
    },
    {
      "inputs": [],
      "name": "eventEmitter",
      "outputs": [
        {
          "internalType": "contract EventEmitter",
          "name": "",
          "type": "address"
        }
      ],
      "stateMutability": "view",
      "type": "function"
    },
    {
      "inputs": [
        {
          "internalType": "address",
          "name": "account",
          "type": "address"
        },
        {
          "components": [
            {
              "internalType": "uint256",
              "name": "positionId",
              "type": "uint256"
            },
            {
              "internalType": "uint8",
              "name": "tokenIndex",
              "type": "uint8"
            },
            {
              "internalType": "uint256",
              "name": "borrowAmount",
              "type": "uint256"
            }
          ],
          "internalType": "struct BorrowUtils.BorrowParams",
          "name": "BorrowParams",
          "type": "tuple"
        }
      ],
      "name": "executeBorrow",
      "outputs": [],
      "stateMutability": "nonpayable",
      "type": "function"
    },
    {
      "inputs": [],
      "name": "roleStore",
      "outputs": [
        {
          "internalType": "contract RoleStore",
          "name": "",
          "type": "address"
        }
      ],
      "stateMutability": "view",
      "type": "function"
    }
  ],
  "bytecode": "0x60e060405234801561001057600080fd5b50604051613aea380380613aea833981810160405281019061003291906101cb565b82828073ffffffffffffffffffffffffffffffffffffffff1660808173ffffffffffffffffffffffffffffffffffffffff1681525050508073ffffffffffffffffffffffffffffffffffffffff1660a08173ffffffffffffffffffffffffffffffffffffffff1681525050508073ffffffffffffffffffffffffffffffffffffffff1660c08173ffffffffffffffffffffffffffffffffffffffff168152505050505061021e565b600080fd5b600073ffffffffffffffffffffffffffffffffffffffff82169050919050565b600061010a826100df565b9050919050565b600061011c826100ff565b9050919050565b61012c81610111565b811461013757600080fd5b50565b60008151905061014981610123565b92915050565b600061015a826100ff565b9050919050565b61016a8161014f565b811461017557600080fd5b50565b60008151905061018781610161565b92915050565b6000610198826100ff565b9050919050565b6101a88161018d565b81146101b357600080fd5b50565b6000815190506101c58161019f565b92915050565b6000806000606084860312156101e4576101e36100da565b5b60006101f28682870161013a565b935050602061020386828701610178565b9250506040610214868287016101b6565b9150509250925092565b60805160a05160c051613875610275600039600081816101c5015261024701526000818160c9015261043701526000818160ed015281816101890152818161026d01528181610370015261085301526138756000f3fe608060405234801561001057600080fd5b506004361061004c5760003560e01c80634a4a7b0414610051578063660d0d671461006f5780639a24a6681461008d5780639ff78c30146100a9575b600080fd5b6100596100c7565b6040516100669190612451565b60405180910390f35b6100776100eb565b604051610084919061248d565b60405180910390f35b6100a760048036038101906100a29190612519565b61010f565b005b6100b1610245565b6040516100be919061257a565b60405180910390f35b7f000000000000000000000000000000000000000000000000000000000000000081565b7f000000000000000000000000000000000000000000000000000000000000000081565b610117610269565b61017a604051602001610129906125f2565b604051602081830303815290604052805190602001206040518060400160405280600a81526020017f434f4e54524f4c4c455200000000000000000000000000000000000000000000815250610435565b60006040518060a001604052807f000000000000000000000000000000000000000000000000000000000000000073ffffffffffffffffffffffffffffffffffffffff1681526020017f000000000000000000000000000000000000000000000000000000000000000073ffffffffffffffffffffffffffffffffffffffff1681526020018360000135815260200183602001602081019061021c919061264b565b60ff168152602001836040013581525090506102388382610518565b50610241610851565b5050565b7f000000000000000000000000000000000000000000000000000000000000000081565b60007f000000000000000000000000000000000000000000000000000000000000000073ffffffffffffffffffffffffffffffffffffffff1663bd02d0f56040516020016102b6906126c4565b604051602081830303815290604052805190602001206040518263ffffffff1660e01b81526004016102e891906126fd565b602060405180830381865afa158015610305573d6000803e3d6000fd5b505050506040513d601f19601f82011682018060405250810190610329919061274e565b90506000811461036e576040517f08c379a0000000000000000000000000000000000000000000000000000000008152600401610365906127c7565b60405180910390fd5b7f000000000000000000000000000000000000000000000000000000000000000073ffffffffffffffffffffffffffffffffffffffff1663e2a4853a6040516020016103b9906126c4565b6040516020818303038152906040528051906020012060016040518363ffffffff1660e01b81526004016103ee9291906127f6565b6020604051808303816000875af115801561040d573d6000803e3d6000fd5b505050506040513d601f19601f82011682018060405250810190610431919061274e565b5050565b7f000000000000000000000000000000000000000000000000000000000000000073ffffffffffffffffffffffffffffffffffffffff1663ac4ab3fb33846040518363ffffffff1660e01b815260040161049092919061282e565b602060405180830381865afa1580156104ad573d6000803e3d6000fd5b505050506040513d601f19601f820116820180604052508101906104d1919061288f565b6105145733816040517fa35b150b00000000000000000000000000000000000000000000000000000000815260040161050b92919061293b565b60405180910390fd5b5050565b610520612169565b6105338383600001518460400151610917565b82604001836060018281525082905250506105a18260000151826040015160000151600060ff166002811061056b5761056a61296b565b5b602002015160000151836040015160000151600160ff16600281106105935761059261296b565b5b602002015160000151610938565b82600001836020018281525082905250506105d483836000015183600001518460400151866060015187608001516109f1565b6105f7816000015182604001518460600151856080015186608001516000610b1c565b73__$3d31b232fb363902662fbc281b11ab3357$__6370b5270e8360000151836060015184604001516040518463ffffffff1660e01b815260040161063e93929190612b5a565b60006040518083038186803b15801561065657600080fd5b505af415801561066a573d6000803e3d6000fd5b5050505061068082602001518260000151610df1565b73__$e0022d6f389ac14ff1ce1dc57a4018d0a3$__63be6afc398360000151836020015184600001516040518463ffffffff1660e01b81526004016106c793929190612d29565b60006040518083038186803b1580156106df57600080fd5b505af41580156106f3573d6000803e3d6000fd5b5050505061084c826020015184836040015160000151600060ff166002811061071f5761071e61296b565b5b602002015160000151846040015160000151600160ff16600281106107475761074661296b565b5b6020020151600001518660400151876060015188608001518860000151600001518a6060015160ff16600281106107815761078061296b565b5b60200201516040015160405180608001604052808b6040015160000151600060ff16600281106107b4576107b361296b565b5b60200201516020015181526020018b6040015160000151600060ff16600281106107e1576107e061296b565b5b60200201516040015181526020018b6040015160000151600160ff166002811061080e5761080d61296b565b5b60200201516020015181526020018b6040015160000151600160ff166002811061083b5761083a61296b565b5b602002015160400151815250610fbc565b505050565b7f000000000000000000000000000000000000000000000000000000000000000073ffffffffffffffffffffffffffffffffffffffff1663e2a4853a60405160200161089c906126c4565b6040516020818303038152906040528051906020012060006040518363ffffffff1660e01b81526004016108d19291906127f6565b6020604051808303816000875af11580156108f0573d6000803e3d6000fd5b505050506040513d601f19601f82011682018060405250810190610914919061274e565b50565b61091f6121a3565b600061092c858585611040565b91509150935093915050565b6109406121e0565b60008061094d85856110f0565b9050600073__$e0022d6f389ac14ff1ce1dc57a4018d0a3$__637b82d74e88846040518363ffffffff1660e01b815260040161098a929190612d61565b61024060405180830381865af41580156109a8573d6000803e3d6000fd5b505050506040513d601f19601f820116820180604052508101906109cc919061301f565b90506109d8818361118e565b6109e181611207565b8082935093505050935093915050565b826040015173ffffffffffffffffffffffffffffffffffffffff168673ffffffffffffffffffffffffffffffffffffffff1614610a6b578260400151866040517f25c7157e000000000000000000000000000000000000000000000000000000008152600401610a6292919061304d565b60405180910390fd5b60008103610aa5576040517f79646aaf00000000000000000000000000000000000000000000000000000000815260040160405180910390fd5b610aae826113b3565b6000610aba85846113bf565b9250505080821115610b055781816040517f47959502000000000000000000000000000000000000000000000000000000008152600401610afc929190613076565b60405180910390fd5b610b1386868686868761144a565b50505050505050565b6000610b2784611723565b905060008412610ba4578086600001518660ff1660028110610b4c57610b4b61296b565b5b6020020151602001818151610b6191906130ce565b915081815250508087600001518660ff1660028110610b8357610b8261296b565b5b6020020151606001818151610b9891906130ce565b91508181525050610c13565b8086600001518660ff1660028110610bbf57610bbe61296b565b5b6020020151602001818151610bd49190613102565b915081815250508087600001518660ff1660028110610bf657610bf561296b565b5b6020020151606001818151610c0b9190613102565b915081815250505b8115610ca757600086600001518660ff1660028110610c3557610c3461296b565b5b60200201516040015190508088600001518760ff1660028110610c5b57610c5a61296b565b5b602002015160a001818151610c709190613102565b91508181525050600087600001518760ff1660028110610c9357610c9261296b565b5b602002015160400181815250505050610de9565b60008303610cb55750610de9565b6000610cc084611723565b90506000610cf989600001518860ff1660028110610ce157610ce061296b565b5b6020020151602001518361173f90919063ffffffff16565b905060008512610d76578088600001518860ff1660028110610d1e57610d1d61296b565b5b6020020151604001818151610d3391906130ce565b915081815250508089600001518860ff1660028110610d5557610d5461296b565b5b602002015160a001818151610d6a91906130ce565b91508181525050610de5565b8088600001518860ff1660028110610d9157610d9061296b565b5b6020020151604001818151610da69190613102565b915081815250508089600001518860ff1660028110610dc857610dc761296b565b5b602002015160a001818151610ddd9190613102565b915081815250505b5050505b505050505050565b610df9612241565b610e04826000611786565b826000018360200182815250828152505050816040015173ffffffffffffffffffffffffffffffffffffffff16634329759a60405180604001604052808460000151815260200184602001518152506040518263ffffffff1660e01b8152600401610e6f9190613174565b602060405180830381865afa158015610e8c573d6000803e3d6000fd5b505050506040513d601f19601f82011682018060405250810190610eb0919061274e565b8260000151600060ff1660028110610ecb57610eca61296b565b5b60200201516040018181525050610ee3826001611786565b826000018360200182815250828152505050816040015173ffffffffffffffffffffffffffffffffffffffff16634329759a60405180604001604052808460000151815260200184602001518152506040518263ffffffff1660e01b8152600401610f4e9190613174565b602060405180830381865afa158015610f6b573d6000803e3d6000fd5b505050506040513d601f19601f82011682018060405250810190610f8f919061274e565b8260000151600160ff1660028110610faa57610fa961296b565b5b60200201516040018181525050505050565b8873ffffffffffffffffffffffffffffffffffffffff1663ea34a57789898989898989896040518963ffffffff1660e01b81526004016110039897969594939291906131f3565b600060405180830381600087803b15801561101d57600080fd5b505af1158015611031573d6000803e3d6000fd5b50505050505050505050505050565b6110486121a3565b60008061105586856117d6565b9050600073__$3d31b232fb363902662fbc281b11ab3357$__637b82d74e87846040518363ffffffff1660e01b8152600401611092929190612d61565b61024060405180830381865af41580156110b0573d6000803e3d6000fd5b505050506040513d601f19601f820116820180604052508101906110d49190613455565b90506110e0878261182f565b8082935093505050935093915050565b60008173ffffffffffffffffffffffffffffffffffffffff168373ffffffffffffffffffffffffffffffffffffffff161061112c57818361112f565b82825b8093508194505050604051602001611146906134cf565b604051602081830303815290604052805190602001208383604051602001611170939291906134ef565b60405160208183030381529060405280519060200120905092915050565b600073ffffffffffffffffffffffffffffffffffffffff16826020015173ffffffffffffffffffffffffffffffffffffffff160361120357806040517f7357d91f0000000000000000000000000000000000000000000000000000000081526004016111fa91906126fd565b60405180910390fd5b5050565b6000611211611917565b90508082608001510361122457506113b0565b60008260000151600060ff16600281106112415761124061296b565b5b602002015160a00151146112e45760006112828360000151600060ff166002811061126f5761126e61296b565b5b602002015160400151846080015161191f565b90506112ba818460000151600060ff16600281106112a3576112a261296b565b5b60200201516020015161197a90919063ffffffff16565b8360000151600060ff16600281106112d5576112d461296b565b5b60200201516020018181525050505b60008260000151600160ff16600281106113015761130061296b565b5b602002015160a00151146113a45760006113428360000151600160ff166002811061132f5761132e61296b565b5b602002015160400151846080015161191f565b905061137a818460000151600160ff16600281106113635761136261296b565b5b60200201516020015161197a90919063ffffffff16565b8360000151600160ff16600281106113955761139461296b565b5b60200201516020018181525050505b80826080018181525050505b50565b6113bc816119c5565b50565b60008060008085600001518560ff16600281106113df576113de61296b565b5b6020020151905060006113f28787611a1d565b90506000810361140e5760008060009450945094505050611443565b600061141e838960800151611b0a565b9050808261142c91906130ce565b8282846114399190613102565b9550955095505050505b9250925092565b61145261225b565b61145b86611b4f565b816000018181525050611475868683600001516000611c1a565b82602001836040018281525082815250505060008160200151036114c5576040517f6c53056d00000000000000000000000000000000000000000000000000000000815260040160405180910390fd5b6114dc848760600151611e4b90919063ffffffff16565b8160600181815250506114ee83611723565b81608001818152505061152281608001516b033b2e3c9fd0803ce80000008360600151600a61151d9190613659565b611ebe565b8160a0018181525050600160ff168460ff1614611543578060a0015161155f565b61155e81600001518260a0015161197a90919063ffffffff16565b5b8160c001818152505061157182611723565b8160e00181815250506115a58160e001516b033b2e3c9fd0803ce80000008360600151600a6115a09190613659565b611ebe565b81610100018181525050600160ff168460ff16146115c8578061010001516115e5565b6115e4816000015182610100015161197a90919063ffffffff16565b5b8161012001818152505060008313611610578060c00151816020015161160b9190613102565b611625565b8060c00151816020015161162491906130ce565b5b816101400181815250506000821361165157806101200151816040015161164c9190613102565b611667565b806101200151816040015161166691906130ce565b5b81610160018181525050600081610160015103611684575061171b565b6116a181610160015182610140015161173f90919063ffffffff16565b816101800181815250506116b487611fc5565b816101a0018181525050806101a00151816101800151101561171957806101800151816101a001516040517f82d6353f000000000000000000000000000000000000000000000000000000008152600401611710929190613076565b60405180910390fd5b505b505050505050565b6000808212156117365781600003611738565b815b9050919050565b60006b033b2e3c9fd0803ce8000000600283046000190304831115158215171561176857600080fd5b81600283046b033b2e3c9fd0803ce800000085020104905092915050565b60008060006117b785600001518560ff16600281106117a8576117a761296b565b5b60200201518660800151611b0a565b905060006117c58686611a1d565b905080829350935050509250929050565b60006040516020016117e7906136f0565b60405160208183030381529060405280519060200120838360405160200161181193929190613710565b60405160208183030381529060405280519060200120905092915050565b600073ffffffffffffffffffffffffffffffffffffffff16816040015173ffffffffffffffffffffffffffffffffffffffff1603611899576040517f4dfbbff300000000000000000000000000000000000000000000000000000000815260040160405180910390fd5b806040015173ffffffffffffffffffffffffffffffffffffffff168273ffffffffffffffffffffffffffffffffffffffff1614611913578060400151826040517f25c7157e00000000000000000000000000000000000000000000000000000000815260040161190a92919061304d565b60405180910390fd5b5050565b600042905090565b6000808261192b611917565b6119359190613102565b846119409190613747565b90506301e13380818161195657611955613789565b5b049050806b033b2e3c9fd0803ce800000061197191906130ce565b91505092915050565b6000816b019d971e4fe8401e74000000600019030483111582151761199e57600080fd5b6b033b2e3c9fd0803ce80000006b019d971e4fe8401e740000008385020104905092915050565b600060ff168160ff16141580156119e35750600160ff168160ff1614155b15611a1a576040517fa04d606c00000000000000000000000000000000000000000000000000000000815260040160405180910390fd5b50565b60008083600001518360ff1660028110611a3a57611a3961296b565b5b602002015190506000846020015173ffffffffffffffffffffffffffffffffffffffff1663e42c08f283600001516040518263ffffffff1660e01b8152600401611a8491906137b8565b602060405180830381865afa158015611aa1573d6000803e3d6000fd5b505050506040513d601f19601f82011682018060405250810190611ac5919061274e565b905060008103611ada57600092505050611b04565b6000826060015190508260c001518183611af49190613102565b611afe9190613102565b93505050505b92915050565b6000808360a0015103611b205760009050611b49565b6000611b2c848461206c565b9050611b45818560a0015161197a90919063ffffffff16565b9150505b92915050565b600080611b5d8360006113bf565b505090506000611b6e8460016113bf565b5050905060008103611b8557600092505050611c15565b6000611b9685606001516000611e4b565b90506000611ba986606001516001611e4b565b90506000611bd0856b033b2e3c9fd0803ce800000085600a611bcb9190613659565b611ebe565b90506000611bf7856b033b2e3c9fd0803ce800000085600a611bf29190613659565b611ebe565b9050611c0c818361173f90919063ffffffff16565b96505050505050505b919050565b6000806000808660000151600060ff1660028110611c3b57611c3a61296b565b5b60200201516000015173ffffffffffffffffffffffffffffffffffffffff168573ffffffffffffffffffffffffffffffffffffffff1614611d1557600080611c858a8a60006120bb565b915091506000611ca360008c60600151611e4b90919063ffffffff16565b90506000611cca846b033b2e3c9fd0803ce800000084600a611cc59190613659565b611ebe565b90506000611cf1846b033b2e3c9fd0803ce800000085600a611cec9190613659565b611ebe565b90508187611cff91906130ce565b96508086611d0d91906130ce565b955050505050505b8660000151600160ff1660028110611d3057611d2f61296b565b5b60200201516000015173ffffffffffffffffffffffffffffffffffffffff168573ffffffffffffffffffffffffffffffffffffffff1614611e3a57600080611d7a8a8a60016120bb565b915091506000611d9860018c60600151611e4b90919063ffffffff16565b90506000611dbf846b033b2e3c9fd0803ce800000084600a611dba9190613659565b611ebe565b90506000611de6846b033b2e3c9fd0803ce800000085600a611de19190613659565b611ebe565b90506000611dfd8c8461197a90919063ffffffff16565b90506000611e148d8461197a90919063ffffffff16565b90508189611e2291906130ce565b98508088611e3091906130ce565b9750505050505050505b819350809250505094509492505050565b6000807fffffffffffffffffffffffffffffffffffffffff00ffffffffffffffffffffff9050600060589050600160ff168460ff1603611ead577fffffffffffffffffffffffffffffffffffffff00ffffffffffffffffffffffff9150606090505b8082198616901c9250505092915050565b6000808385029050600080198587098281108382030391505060008103611ef957838281611eef57611eee613789565b5b0492505050611fbe565b808411611f32576040517f227bc15300000000000000000000000000000000000000000000000000000000815260040160405180910390fd5b600084868809905082811182039150808303925060008560000386169050808604955080840493506001818260000304019050808302841793506000600287600302189050808702600203810290508087026002038102905080870260020381029050808702600203810290508087026002038102905080870260020381029050808502955050505050505b9392505050565b60008173ffffffffffffffffffffffffffffffffffffffff1663bd02d0f5604051602001611ff29061381f565b604051602081830303815290604052805190602001206040518263ffffffff1660e01b815260040161202491906126fd565b602060405180830381865afa158015612041573d6000803e3d6000fd5b505050506040513d601f19601f82011682018060405250810190612065919061274e565b9050919050565b6000612076611917565b820361208857826020015190506120b5565b600061209884604001518461191f565b90506120b184602001518261197a90919063ffffffff16565b9150505b92915050565b600080600084600001518460ff16600281106120da576120d961296b565b5b6020020151604001519050600061211387600001518660ff16600281106121045761210361296b565b5b6020020151886080015161206c565b90506000821461213557612130818361197a90919063ffffffff16565b612138565b60005b925085600001518560ff16600281106121545761215361296b565b5b60200201516020015193505050935093915050565b604051806080016040528061217c6121e0565b8152602001600080191681526020016121936121a3565b8152602001600080191681525090565b60405180606001604052806121b66122ca565b815260200160008152602001600073ffffffffffffffffffffffffffffffffffffffff1681525090565b6040518060a001604052806121f36122f7565b8152602001600073ffffffffffffffffffffffffffffffffffffffff168152602001600073ffffffffffffffffffffffffffffffffffffffff16815260200160008152602001600081525090565b604051806040016040528060008152602001600081525090565b604051806101c0016040528060008152602001600081526020016000815260200160008152602001600081526020016000815260200160008152602001600081526020016000815260200160008152602001600081526020016000815260200160008152602001600081525090565b60405180604001604052806002905b6122e1612324565b8152602001906001900390816122d95790505090565b60405180604001604052806002905b61230e61237f565b8152602001906001900390816123065790505090565b604051806101000160405280600073ffffffffffffffffffffffffffffffffffffffff168152602001600081526020016000815260200160008152602001600081526020016000815260200160008152602001600081525090565b6040518060e00160405280600073ffffffffffffffffffffffffffffffffffffffff1681526020016000815260200160008152602001600081526020016000815260200160008152602001600081525090565b600073ffffffffffffffffffffffffffffffffffffffff82169050919050565b6000819050919050565b600061241761241261240d846123d2565b6123f2565b6123d2565b9050919050565b6000612429826123fc565b9050919050565b600061243b8261241e565b9050919050565b61244b81612430565b82525050565b60006020820190506124666000830184612442565b92915050565b60006124778261241e565b9050919050565b6124878161246c565b82525050565b60006020820190506124a2600083018461247e565b92915050565b6000604051905090565b600080fd5b60006124c2826123d2565b9050919050565b6124d2816124b7565b81146124dd57600080fd5b50565b6000813590506124ef816124c9565b92915050565b600080fd5b6000606082840312156125105761250f6124f5565b5b81905092915050565b600080608083850312156125305761252f6124b2565b5b600061253e858286016124e0565b925050602061254f858286016124fa565b9150509250929050565b60006125648261241e565b9050919050565b61257481612559565b82525050565b600060208201905061258f600083018461256b565b92915050565b600082825260208201905092915050565b7f434f4e54524f4c4c455200000000000000000000000000000000000000000000600082015250565b60006125dc600a83612595565b91506125e7826125a6565b602082019050919050565b6000602082019050818103600083015261260b816125cf565b9050919050565b600060ff82169050919050565b61262881612612565b811461263357600080fd5b50565b6000813590506126458161261f565b92915050565b600060208284031215612661576126606124b2565b5b600061266f84828501612636565b91505092915050565b7f5245454e5452414e43595f47554152445f535441545553000000000000000000600082015250565b60006126ae601783612595565b91506126b982612678565b602082019050919050565b600060208201905081810360008301526126dd816126a1565b9050919050565b6000819050919050565b6126f7816126e4565b82525050565b600060208201905061271260008301846126ee565b92915050565b6000819050919050565b61272b81612718565b811461273657600080fd5b50565b60008151905061274881612722565b92915050565b600060208284031215612764576127636124b2565b5b600061277284828501612739565b91505092915050565b7f5265656e7472616e637947756172643a207265656e7472616e742063616c6c00600082015250565b60006127b1601f83612595565b91506127bc8261277b565b602082019050919050565b600060208201905081810360008301526127e0816127a4565b9050919050565b6127f081612718565b82525050565b600060408201905061280b60008301856126ee565b61281860208301846127e7565b9392505050565b612828816124b7565b82525050565b6000604082019050612843600083018561281f565b61285060208301846126ee565b9392505050565b60008115159050919050565b61286c81612857565b811461287757600080fd5b50565b60008151905061288981612863565b92915050565b6000602082840312156128a5576128a46124b2565b5b60006128b38482850161287a565b91505092915050565b600081519050919050565b60005b838110156128e55780820151818401526020810190506128ca565b60008484015250505050565b6000601f19601f8301169050919050565b600061290d826128bc565b6129178185612595565b93506129278185602086016128c7565b612930816128f1565b840191505092915050565b6000604082019050612950600083018561281f565b81810360208301526129628184612902565b90509392505050565b7f4e487b7100000000000000000000000000000000000000000000000000000000600052603260045260246000fd5b6129a3816124b7565b82525050565b6129b2816126e4565b82525050565b600060029050919050565b600081905092915050565b6000819050919050565b6129e1816124b7565b82525050565b6129f081612718565b82525050565b61010082016000820151612a0d60008501826129d8565b506020820151612a2060208501826129e7565b506040820151612a3360408501826129e7565b506060820151612a4660608501826129e7565b506080820151612a5960808501826129e7565b5060a0820151612a6c60a08501826129e7565b5060c0820151612a7f60c08501826129e7565b5060e0820151612a9260e08501826129e7565b50505050565b6000612aa483836129f6565b6101008301905092915050565b6000602082019050919050565b612ac7816129b8565b612ad181846129c3565b9250612adc826129ce565b8060005b83811015612b0d578151612af48782612a98565b9650612aff83612ab1565b925050600181019050612ae0565b505050505050565b61024082016000820151612b2c6000850182612abe565b506020820151612b406102008501826129e7565b506040820151612b546102208501826129d8565b50505050565b600061028082019050612b70600083018661299a565b612b7d60208301856129a9565b612b8a6040830184612b15565b949350505050565b600060029050919050565b600081905092915050565b6000819050919050565b60e082016000820151612bc860008501826129d8565b506020820151612bdb60208501826129e7565b506040820151612bee60408501826129e7565b506060820151612c0160608501826129e7565b506080820151612c1460808501826129e7565b5060a0820151612c2760a08501826129e7565b5060c0820151612c3a60c08501826129e7565b50505050565b6000612c4c8383612bb2565b60e08301905092915050565b6000602082019050919050565b612c6e81612b92565b612c788184612b9d565b9250612c8382612ba8565b8060005b83811015612cb4578151612c9b8782612c40565b9650612ca683612c58565b925050600181019050612c87565b505050505050565b61024082016000820151612cd36000850182612c65565b506020820151612ce76101c08501826129d8565b506040820151612cfb6101e08501826129d8565b506060820151612d0f6102008501826129e7565b506080820151612d236102208501826129e7565b50505050565b600061028082019050612d3f600083018661299a565b612d4c60208301856129a9565b612d596040830184612cbc565b949350505050565b6000604082019050612d76600083018561299a565b612d8360208301846129a9565b9392505050565b600080fd5b7f4e487b7100000000000000000000000000000000000000000000000000000000600052604160045260246000fd5b612dc7826128f1565b810181811067ffffffffffffffff82111715612de657612de5612d8f565b5b80604052505050565b6000612df96124a8565b9050612e058282612dbe565b919050565b600080fd5b600067ffffffffffffffff821115612e2a57612e29612d8f565b5b602082029050919050565b600080fd5b600081519050612e49816124c9565b92915050565b600060e08284031215612e6557612e64612d8a565b5b612e6f60e0612def565b90506000612e7f84828501612e3a565b6000830152506020612e9384828501612739565b6020830152506040612ea784828501612739565b6040830152506060612ebb84828501612739565b6060830152506080612ecf84828501612739565b60808301525060a0612ee384828501612739565b60a08301525060c0612ef784828501612739565b60c08301525092915050565b6000612f16612f1184612e0f565b612def565b90508060e08402830185811115612f3057612f2f612e35565b5b835b81811015612f595780612f458882612e4f565b84526020840193505060e081019050612f32565b5050509392505050565b600082601f830112612f7857612f77612e0a565b5b6002612f85848285612f03565b91505092915050565b60006102408284031215612fa557612fa4612d8a565b5b612faf60a0612def565b90506000612fbf84828501612f63565b6000830152506101c0612fd484828501612e3a565b6020830152506101e0612fe984828501612e3a565b604083015250610200612ffe84828501612739565b60608301525061022061301384828501612739565b60808301525092915050565b60006102408284031215613036576130356124b2565b5b600061304484828501612f8e565b91505092915050565b6000604082019050613062600083018561281f565b61306f602083018461281f565b9392505050565b600060408201905061308b60008301856127e7565b61309860208301846127e7565b9392505050565b7f4e487b7100000000000000000000000000000000000000000000000000000000600052601160045260246000fd5b60006130d982612718565b91506130e483612718565b92508282019050808211156130fc576130fb61309f565b5b92915050565b600061310d82612718565b915061311883612718565b92508282039050818111156131305761312f61309f565b5b92915050565b61313f81612718565b82525050565b60408201600082015161315b6000850182613136565b50602082015161316e6020850182613136565b50505050565b60006040820190506131896000830184613145565b92915050565b61319881612612565b82525050565b6080820160008201516131b46000850182613136565b5060208201516131c76020850182613136565b5060408201516131da6040850182613136565b5060608201516131ed6060850182613136565b50505050565b600061016082019050613209600083018b61281f565b613216602083018a61281f565b613223604083018961281f565b61323060608301886127e7565b61323d608083018761318f565b61324a60a08301866127e7565b61325760c08301856127e7565b61326460e083018461319e565b9998505050505050505050565b600067ffffffffffffffff82111561328c5761328b612d8f565b5b602082029050919050565b600061010082840312156132ae576132ad612d8a565b5b6132b9610100612def565b905060006132c984828501612e3a565b60008301525060206132dd84828501612739565b60208301525060406132f184828501612739565b604083015250606061330584828501612739565b606083015250608061331984828501612739565b60808301525060a061332d84828501612739565b60a08301525060c061334184828501612739565b60c08301525060e061335584828501612739565b60e08301525092915050565b600061337461336f84613271565b612def565b905080610100840283018581111561338f5761338e612e35565b5b835b818110156133b957806133a48882613297565b84526020840193505061010081019050613391565b5050509392505050565b600082601f8301126133d8576133d7612e0a565b5b60026133e5848285613361565b91505092915050565b6000610240828403121561340557613404612d8a565b5b61340f6060612def565b9050600061341f848285016133c3565b60008301525061020061343484828501612739565b60208301525061022061344984828501612e3a565b60408301525092915050565b6000610240828403121561346c5761346b6124b2565b5b600061347a848285016133ee565b91505092915050565b7f504f4f4c00000000000000000000000000000000000000000000000000000000600082015250565b60006134b9600483612595565b91506134c482613483565b602082019050919050565b600060208201905081810360008301526134e8816134ac565b9050919050565b600060608201905061350460008301866126ee565b613511602083018561281f565b61351e604083018461281f565b949350505050565b60008160011c9050919050565b6000808291508390505b600185111561357d578086048111156135595761355861309f565b5b60018516156135685780820291505b808102905061357685613526565b945061353d565b94509492505050565b6000826135965760019050613652565b816135a45760009050613652565b81600181146135ba57600281146135c4576135f3565b6001915050613652565b60ff8411156135d6576135d561309f565b5b8360020a9150848211156135ed576135ec61309f565b5b50613652565b5060208310610133831016604e8410600b84101617156136285782820a9050838111156136235761362261309f565b5b613652565b6136358484846001613533565b9250905081840481111561364c5761364b61309f565b5b81810290505b9392505050565b600061366482612718565b915061366f83612718565b925061369c7fffffffffffffffffffffffffffffffffffffffffffffffffffffffffffffffff8484613586565b905092915050565b7f504f534954494f4e000000000000000000000000000000000000000000000000600082015250565b60006136da600883612595565b91506136e5826136a4565b602082019050919050565b60006020820190508181036000830152613709816136cd565b9050919050565b600060608201905061372560008301866126ee565b613732602083018561281f565b61373f60408301846127e7565b949350505050565b600061375282612718565b915061375d83612718565b925082820261376b81612718565b915082820484148315176137825761378161309f565b5b5092915050565b7f4e487b7100000000000000000000000000000000000000000000000000000000600052601260045260246000fd5b60006020820190506137cd600083018461281f565b92915050565b7f4d415247494e5f4c4556454c4c5f5448524553484f4c44000000000000000000600082015250565b6000613809601783612595565b9150613814826137d3565b602082019050919050565b60006020820190508181036000830152613838816137fc565b905091905056fea26469706673582212208908c95dd8b3008a852f95f1362d74f82e7ba30005430c8b51c83f0eb601ee9c64736f6c634300081c0033",
  "linkReferences": {
    "contracts/pool/PoolStoreUtils.sol": {
      "PoolStoreUtils": [
        {
          "length": 20,
          "start": 2295
        },
        {
          "length": 20,
          "start": 3016
        }
      ]
    },
    "contracts/position/PositionStoreUtils.sol": {
      "PositionStoreUtils": [
        {
          "length": 20,
          "start": 2158
        },
        {
          "length": 20,
          "start": 4816
        }
      ]
    }
  },
  "deployedLinkReferences": {
    "contracts/pool/PoolStoreUtils.sol": {
      "PoolStoreUtils": [
        {
          "length": 20,
          "start": 1666
        },
        {
          "length": 20,
          "start": 2387
        }
      ]
    },
    "contracts/position/PositionStoreUtils.sol": {
      "PositionStoreUtils": [
        {
          "length": 20,
          "start": 1529
        },
        {
          "length": 20,
          "start": 4187
        }
      ]
    }
  }
}