{
  "_format": "hh-sol-artifact-1",
  "contractName": "BorrowHandler",
  "sourceName": "contracts/exchange/BorrowHandler.sol",
  "abi": [
    {
      "inputs": [
        {
          "internalType": "contract RoleStore",
          "name": "_roleStore",
          "type": "address"
        },
        {
          "internalType": "contract DataStore",
          "name": "_dataStore",
          "type": "address"
        },
        {
          "internalType": "contract EventEmitter",
          "name": "_eventEmitter",
          "type": "address"
        }
      ],
      "stateMutability": "nonpayable",
      "type": "constructor"
    },
    {
      "inputs": [
        {
          "internalType": "address",
          "name": "accountInPosition",
          "type": "address"
        },
        {
          "internalType": "address",
          "name": "account",
          "type": "address"
        }
      ],
      "name": "AccountNotMatch",
      "type": "error"
    },
    {
      "inputs": [],
      "name": "EmptyBorrowAmounts",
      "type": "error"
    },
    {
      "inputs": [],
      "name": "EmptyCollateral",
      "type": "error"
    },
    {
      "inputs": [
        {
          "internalType": "bytes32",
          "name": "key",
          "type": "bytes32"
        }
      ],
      "name": "EmptyPool",
      "type": "error"
    },
    {
      "inputs": [],
      "name": "EmptyPosition",
      "type": "error"
    },
    {
      "inputs": [
        {
          "internalType": "uint256",
          "name": "amountToBorrow",
          "type": "uint256"
        },
        {
          "internalType": "uint256",
          "name": "availableReserve",
          "type": "uint256"
        }
      ],
      "name": "InsufficientReverveForBorrow",
      "type": "error"
    },
    {
      "inputs": [
        {
          "internalType": "uint256",
          "name": "marginLevel",
          "type": "uint256"
        },
        {
          "internalType": "uint256",
          "name": "marginLevelThreshold",
          "type": "uint256"
        }
      ],
      "name": "MarginBelowThreshold",
      "type": "error"
    },
    {
      "inputs": [],
      "name": "MathOverflowedMulDiv",
      "type": "error"
    },
    {
      "inputs": [],
      "name": "TokenIndexNotSupport",
      "type": "error"
    },
    {
      "inputs": [
        {
          "internalType": "address",
          "name": "msgSender",
          "type": "address"
        },
        {
          "internalType": "string",
          "name": "role",
          "type": "string"
        }
      ],
      "name": "Unauthorized",
      "type": "error"
    },
    {
      "inputs": [
        {
          "internalType": "uint256",
          "name": "threshold",
          "type": "uint256"
        },
        {
          "internalType": "uint256",
          "name": "basePriceReserve",
          "type": "uint256"
        }
      ],
      "name": "liquidityDidNotReachShortThreshord",
      "type": "error"
    },
    {
      "inputs": [],
      "name": "dataStore",
      "outputs": [
        {
          "internalType": "contract DataStore",
          "name": "",
          "type": "address"
        }
      ],
      "stateMutability": "view",
      "type": "function"
    },
    {
      "inputs": [],
      "name": "eventEmitter",
      "outputs": [
        {
          "internalType": "contract EventEmitter",
          "name": "",
          "type": "address"
        }
      ],
      "stateMutability": "view",
      "type": "function"
    },
    {
      "inputs": [
        {
          "internalType": "address",
          "name": "account",
          "type": "address"
        },
        {
          "components": [
            {
              "internalType": "uint256",
              "name": "positionId",
              "type": "uint256"
            },
            {
              "internalType": "uint8",
              "name": "tokenIndex",
              "type": "uint8"
            },
            {
              "internalType": "uint256",
              "name": "borrowAmount",
              "type": "uint256"
            }
          ],
          "internalType": "struct BorrowUtils.BorrowParams",
          "name": "BorrowParams",
          "type": "tuple"
        }
      ],
      "name": "executeBorrow",
      "outputs": [],
      "stateMutability": "nonpayable",
      "type": "function"
    },
    {
      "inputs": [],
      "name": "roleStore",
      "outputs": [
        {
          "internalType": "contract RoleStore",
          "name": "",
          "type": "address"
        }
      ],
      "stateMutability": "view",
      "type": "function"
    }
  ],
  "bytecode": "0x60e060405234801561001057600080fd5b50604051614128380380614128833981810160405281019061003291906101cb565b82828073ffffffffffffffffffffffffffffffffffffffff1660808173ffffffffffffffffffffffffffffffffffffffff1681525050508073ffffffffffffffffffffffffffffffffffffffff1660a08173ffffffffffffffffffffffffffffffffffffffff1681525050508073ffffffffffffffffffffffffffffffffffffffff1660c08173ffffffffffffffffffffffffffffffffffffffff168152505050505061021e565b600080fd5b600073ffffffffffffffffffffffffffffffffffffffff82169050919050565b600061010a826100df565b9050919050565b600061011c826100ff565b9050919050565b61012c81610111565b811461013757600080fd5b50565b60008151905061014981610123565b92915050565b600061015a826100ff565b9050919050565b61016a8161014f565b811461017557600080fd5b50565b60008151905061018781610161565b92915050565b6000610198826100ff565b9050919050565b6101a88161018d565b81146101b357600080fd5b50565b6000815190506101c58161019f565b92915050565b6000806000606084860312156101e4576101e36100da565b5b60006101f28682870161013a565b935050602061020386828701610178565b9250506040610214868287016101b6565b9150509250925092565b60805160a05160c051613eb3610275600039600081816101c5015261024701526000818160c9015261043701526000818160ed015281816101890152818161026d0152818161037001526108910152613eb36000f3fe608060405234801561001057600080fd5b506004361061004c5760003560e01c80634a4a7b0414610051578063660d0d671461006f5780639a24a6681461008d5780639ff78c30146100a9575b600080fd5b6100596100c7565b60405161006691906128e5565b60405180910390f35b6100776100eb565b6040516100849190612921565b60405180910390f35b6100a760048036038101906100a291906129ad565b61010f565b005b6100b1610245565b6040516100be9190612a0e565b60405180910390f35b7f000000000000000000000000000000000000000000000000000000000000000081565b7f000000000000000000000000000000000000000000000000000000000000000081565b610117610269565b61017a60405160200161012990612a86565b604051602081830303815290604052805190602001206040518060400160405280600a81526020017f434f4e54524f4c4c455200000000000000000000000000000000000000000000815250610435565b60006040518060a001604052807f000000000000000000000000000000000000000000000000000000000000000073ffffffffffffffffffffffffffffffffffffffff1681526020017f000000000000000000000000000000000000000000000000000000000000000073ffffffffffffffffffffffffffffffffffffffff1681526020018360000135815260200183602001602081019061021c9190612adf565b60ff168152602001836040013581525090506102388382610518565b5061024161088f565b5050565b7f000000000000000000000000000000000000000000000000000000000000000081565b60007f000000000000000000000000000000000000000000000000000000000000000073ffffffffffffffffffffffffffffffffffffffff1663bd02d0f56040516020016102b690612b58565b604051602081830303815290604052805190602001206040518263ffffffff1660e01b81526004016102e89190612b91565b602060405180830381865afa158015610305573d6000803e3d6000fd5b505050506040513d601f19601f820116820180604052508101906103299190612be2565b90506000811461036e576040517f08c379a000000000000000000000000000000000000000000000000000000000815260040161036590612c5b565b60405180910390fd5b7f000000000000000000000000000000000000000000000000000000000000000073ffffffffffffffffffffffffffffffffffffffff1663e2a4853a6040516020016103b990612b58565b6040516020818303038152906040528051906020012060016040518363ffffffff1660e01b81526004016103ee929190612c8a565b6020604051808303816000875af115801561040d573d6000803e3d6000fd5b505050506040513d601f19601f820116820180604052508101906104319190612be2565b5050565b7f000000000000000000000000000000000000000000000000000000000000000073ffffffffffffffffffffffffffffffffffffffff1663ac4ab3fb33846040518363ffffffff1660e01b8152600401610490929190612cc2565b602060405180830381865afa1580156104ad573d6000803e3d6000fd5b505050506040513d601f19601f820116820180604052508101906104d19190612d23565b6105145733816040517fa35b150b00000000000000000000000000000000000000000000000000000000815260040161050b929190612dcf565b60405180910390fd5b5050565b6105566040518060400160405280600d81526020017f65786563757465426f72726f7700000000000000000000000000000000000000815250610955565b61055e6125f3565b610571838360000151846040015161099e565b82604001836060018281525082905250506105df8260000151826040015160000151600060ff16600281106105a9576105a8612dff565b5b602002015160000151836040015160000151600160ff16600281106105d1576105d0612dff565b5b6020020151600001516109bf565b82600001836020018281525082905250506106128383600001518360000151846040015186606001518760800151610a78565b610635816000015182604001518460600151856080015186608001516000610bcc565b73__$3d31b232fb363902662fbc281b11ab3357$__6370b5270e8360000151836060015184604001516040518463ffffffff1660e01b815260040161067c93929190612fee565b60006040518083038186803b15801561069457600080fd5b505af41580156106a8573d6000803e3d6000fd5b505050506106be82602001518260000151610ea1565b73__$e0022d6f389ac14ff1ce1dc57a4018d0a3$__63be6afc398360000151836020015184600001516040518463ffffffff1660e01b8152600401610705939291906131bd565b60006040518083038186803b15801561071d57600080fd5b505af4158015610731573d6000803e3d6000fd5b5050505061088a826020015184836040015160000151600060ff166002811061075d5761075c612dff565b5b602002015160000151846040015160000151600160ff166002811061078557610784612dff565b5b6020020151600001518660400151876060015188608001518860000151600001518a6060015160ff16600281106107bf576107be612dff565b5b60200201516040015160405180608001604052808b6040015160000151600060ff16600281106107f2576107f1612dff565b5b60200201516020015181526020018b6040015160000151600060ff166002811061081f5761081e612dff565b5b60200201516040015181526020018b6040015160000151600160ff166002811061084c5761084b612dff565b5b60200201516020015181526020018b6040015160000151600160ff166002811061087957610878612dff565b5b60200201516040015181525061106c565b505050565b7f000000000000000000000000000000000000000000000000000000000000000073ffffffffffffffffffffffffffffffffffffffff1663e2a4853a6040516020016108da90612b58565b6040516020818303038152906040528051906020012060006040518363ffffffff1660e01b815260040161090f929190612c8a565b6020604051808303816000875af115801561092e573d6000803e3d6000fd5b505050506040513d601f19601f820116820180604052508101906109529190612be2565b50565b600061099b5761099a6040518060400160405280600281526020017f2573000000000000000000000000000000000000000000000000000000000000815250826110f0565b5b50565b6109a661262d565b60006109b385858561118c565b91509150935093915050565b6109c761266a565b6000806109d4858561123c565b9050600073__$e0022d6f389ac14ff1ce1dc57a4018d0a3$__637b82d74e88846040518363ffffffff1660e01b8152600401610a119291906131f5565b61024060405180830381865af4158015610a2f573d6000803e3d6000fd5b505050506040513d601f19601f82011682018060405250810190610a5391906134b3565b9050610a5f81836112da565b610a6881611353565b8082935093505050935093915050565b600160ff168260ff1603610a9157610a9085856114ff565b5b826040015173ffffffffffffffffffffffffffffffffffffffff168673ffffffffffffffffffffffffffffffffffffffff1614610b0b578260400151866040517f25c7157e000000000000000000000000000000000000000000000000000000008152600401610b029291906134e1565b60405180910390fd5b60008103610b45576040517f79646aaf00000000000000000000000000000000000000000000000000000000815260040160405180910390fd5b610b4e82611564565b6000610b5986611570565b90506000610b68868584611617565b935050505080831115610bb45782816040517f47959502000000000000000000000000000000000000000000000000000000008152600401610bab92919061350a565b60405180910390fd5b610bc28787878787886116eb565b5050505050505050565b6000610bd7846119c4565b905060008412610c54578086600001518660ff1660028110610bfc57610bfb612dff565b5b6020020151602001818151610c119190613562565b915081815250508087600001518660ff1660028110610c3357610c32612dff565b5b6020020151606001818151610c489190613562565b91508181525050610cc3565b8086600001518660ff1660028110610c6f57610c6e612dff565b5b6020020151602001818151610c849190613596565b915081815250508087600001518660ff1660028110610ca657610ca5612dff565b5b6020020151606001818151610cbb9190613596565b915081815250505b8115610d5757600086600001518660ff1660028110610ce557610ce4612dff565b5b60200201516040015190508088600001518760ff1660028110610d0b57610d0a612dff565b5b602002015160a001818151610d209190613596565b91508181525050600087600001518760ff1660028110610d4357610d42612dff565b5b602002015160400181815250505050610e99565b60008303610d655750610e99565b6000610d70846119c4565b90506000610da989600001518860ff1660028110610d9157610d90612dff565b5b602002015160200151836119e090919063ffffffff16565b905060008512610e26578088600001518860ff1660028110610dce57610dcd612dff565b5b6020020151604001818151610de39190613562565b915081815250508089600001518860ff1660028110610e0557610e04612dff565b5b602002015160a001818151610e1a9190613562565b91508181525050610e95565b8088600001518860ff1660028110610e4157610e40612dff565b5b6020020151604001818151610e569190613596565b915081815250508089600001518860ff1660028110610e7857610e77612dff565b5b602002015160a001818151610e8d9190613596565b915081815250505b5050505b505050505050565b610ea96126cb565b610eb4826000611a27565b826000018360200182815250828152505050816040015173ffffffffffffffffffffffffffffffffffffffff16634329759a60405180604001604052808460000151815260200184602001518152506040518263ffffffff1660e01b8152600401610f1f9190613608565b602060405180830381865afa158015610f3c573d6000803e3d6000fd5b505050506040513d601f19601f82011682018060405250810190610f609190612be2565b8260000151600060ff1660028110610f7b57610f7a612dff565b5b60200201516040018181525050610f93826001611a27565b826000018360200182815250828152505050816040015173ffffffffffffffffffffffffffffffffffffffff16634329759a60405180604001604052808460000151815260200184602001518152506040518263ffffffff1660e01b8152600401610ffe9190613608565b602060405180830381865afa15801561101b573d6000803e3d6000fd5b505050506040513d601f19601f8201168201806040525081019061103f9190612be2565b8260000151600160ff166002811061105a57611059612dff565b5b60200201516040018181525050505050565b8873ffffffffffffffffffffffffffffffffffffffff1663ea34a57789898989898989896040518963ffffffff1660e01b81526004016110b3989796959493929190613687565b600060405180830381600087803b1580156110cd57600080fd5b505af11580156110e1573d6000803e3d6000fd5b50505050505050505050505050565b6111888282604051602401611106929190613705565b6040516020818303038152906040527f4b5c4277000000000000000000000000000000000000000000000000000000007bffffffffffffffffffffffffffffffffffffffffffffffffffffffff19166020820180517bffffffffffffffffffffffffffffffffffffffffffffffffffffffff8381831617835250505050611a77565b5050565b61119461262d565b6000806111a18685611a91565b9050600073__$3d31b232fb363902662fbc281b11ab3357$__637b82d74e87846040518363ffffffff1660e01b81526004016111de9291906131f5565b61024060405180830381865af41580156111fc573d6000803e3d6000fd5b505050506040513d601f19601f820116820180604052508101906112209190613920565b905061122c8782611aea565b8082935093505050935093915050565b60008173ffffffffffffffffffffffffffffffffffffffff168373ffffffffffffffffffffffffffffffffffffffff161061127857818361127b565b82825b80935081945050506040516020016112929061399a565b6040516020818303038152906040528051906020012083836040516020016112bc939291906139ba565b60405160208183030381529060405280519060200120905092915050565b600073ffffffffffffffffffffffffffffffffffffffff16826020015173ffffffffffffffffffffffffffffffffffffffff160361134f57806040517f7357d91f0000000000000000000000000000000000000000000000000000000081526004016113469190612b91565b60405180910390fd5b5050565b600061135d611bd2565b90508082608001510361137057506114fc565b60008260000151600060ff166002811061138d5761138c612dff565b5b602002015160a00151146114305760006113ce8360000151600060ff16600281106113bb576113ba612dff565b5b6020020151604001518460800151611bda565b9050611406818460000151600060ff16600281106113ef576113ee612dff565b5b602002015160200151611c3590919063ffffffff16565b8360000151600060ff166002811061142157611420612dff565b5b60200201516020018181525050505b60008260000151600160ff166002811061144d5761144c612dff565b5b602002015160a00151146114f057600061148e8360000151600160ff166002811061147b5761147a612dff565b5b6020020151604001518460800151611bda565b90506114c6818460000151600160ff16600281106114af576114ae612dff565b5b602002015160200151611c3590919063ffffffff16565b8360000151600160ff16600281106114e1576114e0612dff565b5b60200201516020018181525050505b80826080018181525050505b50565b61150c8160600151611c80565b6115605760008061151d8484611cb0565b9150915081816040517ffe0081af00000000000000000000000000000000000000000000000000000000815260040161155792919061350a565b60405180910390fd5b5050565b61156d81611d1e565b50565b60008173ffffffffffffffffffffffffffffffffffffffff1663bd02d0f560405160200161159d90613a3d565b604051602081830303815290604052805190602001206040518263ffffffff1660e01b81526004016115cf9190612b91565b602060405180830381865afa1580156115ec573d6000803e3d6000fd5b505050506040513d601f19601f820116820180604052508101906116109190612be2565b9050919050565b600080600080600087600001518760ff166002811061163957611638612dff565b5b60200201519050600061164c8989611d76565b90506000810361166b57600080600080955095509550955050506116e2565b600061167b838b60800151611e63565b905060006116928984611c3590919063ffffffff16565b90506000808a146116b5576116b08383611ea890919063ffffffff16565b6116b8565b60005b905082846116c69190613562565b8484866116d39190613596565b83985098509850985050505050505b93509350935093565b6116f36126e5565b6116fc86611f01565b816000018181525050611716868683600001516000611fd1565b8260200183604001828152508281525050506000816020015103611766576040517f6c53056d00000000000000000000000000000000000000000000000000000000815260040160405180910390fd5b61177d84876060015161220290919063ffffffff16565b81606001818152505061178f836119c4565b8160800181815250506117c381608001516b033b2e3c9fd0803ce80000008360600151600a6117be9190613b90565b612275565b8160a0018181525050600160ff168460ff16146117e4578060a00151611800565b6117ff81600001518260a00151611c3590919063ffffffff16565b5b8160c0018181525050611812826119c4565b8160e00181815250506118468160e001516b033b2e3c9fd0803ce80000008360600151600a6118419190613b90565b612275565b81610100018181525050600160ff168460ff161461186957806101000151611886565b6118858160000151826101000151611c3590919063ffffffff16565b5b81610120018181525050600083136118b1578060c0015181602001516118ac9190613596565b6118c6565b8060c0015181602001516118c59190613562565b5b81610140018181525050600082136118f25780610120015181604001516118ed9190613596565b611908565b80610120015181604001516119079190613562565b5b8161016001818152505060008161016001510361192557506119bc565b6119428161016001518261014001516119e090919063ffffffff16565b816101800181815250506119558761237c565b816101a0018181525050806101a0015181610180015110156119ba57806101800151816101a001516040517f82d6353f0000000000000000000000000000000000000000000000000000000081526004016119b192919061350a565b60405180910390fd5b505b505050505050565b6000808212156119d757816000036119d9565b815b9050919050565b60006b033b2e3c9fd0803ce80000006002830460001903048311151582151715611a0957600080fd5b81600283046b033b2e3c9fd0803ce800000085020104905092915050565b6000806000611a5885600001518560ff1660028110611a4957611a48612dff565b5b60200201518660800151611e63565b90506000611a668686611d76565b905080829350935050509250929050565b611a8e81611a86612423612444565b63ffffffff16565b50565b6000604051602001611aa290613c27565b604051602081830303815290604052805190602001208383604051602001611acc93929190613c47565b60405160208183030381529060405280519060200120905092915050565b600073ffffffffffffffffffffffffffffffffffffffff16816040015173ffffffffffffffffffffffffffffffffffffffff1603611b54576040517f4dfbbff300000000000000000000000000000000000000000000000000000000815260040160405180910390fd5b806040015173ffffffffffffffffffffffffffffffffffffffff168273ffffffffffffffffffffffffffffffffffffffff1614611bce578060400151826040517f25c7157e000000000000000000000000000000000000000000000000000000008152600401611bc59291906134e1565b60405180910390fd5b5050565b600042905090565b60008082611be6611bd2565b611bf09190613596565b84611bfb9190613c7e565b90506301e133808181611c1157611c10613cc0565b5b049050806b033b2e3c9fd0803ce8000000611c2c9190613562565b91505092915050565b6000816b019d971e4fe8401e740000006000190304831115821517611c5957600080fd5b6b033b2e3c9fd0803ce80000006b019d971e4fe8401e740000008385020104905092915050565b6000807ffffffffffffffffffffffffffffffffffffffffffffffffffff7ffffffffffff19831614159050919050565b6000806000611cc484606001516000612202565b90506000611cd18661244f565b90506000611cf88284600a611ce69190613b90565b6b033b2e3c9fd0803ce8000000612275565b90506000611d0887600080611617565b5050509050818195509550505050509250929050565b600060ff168160ff1614158015611d3c5750600160ff168160ff1614155b15611d73576040517fa04d606c00000000000000000000000000000000000000000000000000000000815260040160405180910390fd5b50565b60008083600001518360ff1660028110611d9357611d92612dff565b5b602002015190506000846020015173ffffffffffffffffffffffffffffffffffffffff1663e42c08f283600001516040518263ffffffff1660e01b8152600401611ddd9190613cef565b602060405180830381865afa158015611dfa573d6000803e3d6000fd5b505050506040513d601f19601f82011682018060405250810190611e1e9190612be2565b905060008103611e3357600092505050611e5d565b6000826060015190508260c001518183611e4d9190613596565b611e579190613596565b93505050505b92915050565b6000808360a0015103611e795760009050611ea2565b6000611e8584846124f6565b9050611e9e818560a00151611c3590919063ffffffff16565b9150505b92915050565b6000828284611eb79190613596565b9150811115611efb576040517f08c379a0000000000000000000000000000000000000000000000000000000008152600401611ef290613d56565b60405180910390fd5b92915050565b600080611f1083600080611617565b50505090506000611f248460016000611617565b505050905060008103611f3c57600092505050611fcc565b6000611f4d85606001516000612202565b90506000611f6086606001516001612202565b90506000611f87856b033b2e3c9fd0803ce800000085600a611f829190613b90565b612275565b90506000611fae856b033b2e3c9fd0803ce800000085600a611fa99190613b90565b612275565b9050611fc381836119e090919063ffffffff16565b96505050505050505b919050565b6000806000808660000151600060ff1660028110611ff257611ff1612dff565b5b60200201516000015173ffffffffffffffffffffffffffffffffffffffff168573ffffffffffffffffffffffffffffffffffffffff16146120cc5760008061203c8a8a6000612545565b91509150600061205a60008c6060015161220290919063ffffffff16565b90506000612081846b033b2e3c9fd0803ce800000084600a61207c9190613b90565b612275565b905060006120a8846b033b2e3c9fd0803ce800000085600a6120a39190613b90565b612275565b905081876120b69190613562565b965080866120c49190613562565b955050505050505b8660000151600160ff16600281106120e7576120e6612dff565b5b60200201516000015173ffffffffffffffffffffffffffffffffffffffff168573ffffffffffffffffffffffffffffffffffffffff16146121f1576000806121318a8a6001612545565b91509150600061214f60018c6060015161220290919063ffffffff16565b90506000612176846b033b2e3c9fd0803ce800000084600a6121719190613b90565b612275565b9050600061219d846b033b2e3c9fd0803ce800000085600a6121989190613b90565b612275565b905060006121b48c84611c3590919063ffffffff16565b905060006121cb8d84611c3590919063ffffffff16565b905081896121d99190613562565b985080886121e79190613562565b9750505050505050505b819350809250505094509492505050565b6000807fffffffffffffffffffffffffffffffffffffffff00ffffffffffffffffffffff9050600060589050600160ff168460ff1603612264577fffffffffffffffffffffffffffffffffffffff00ffffffffffffffffffffffff9150606090505b8082198616901c9250505092915050565b60008083850290506000801985870982811083820303915050600081036122b0578382816122a6576122a5613cc0565b5b0492505050612375565b8084116122e9576040517f227bc15300000000000000000000000000000000000000000000000000000000815260040160405180910390fd5b600084868809905082811182039150808303925060008560000386169050808604955080840493506001818260000304019050808302841793506000600287600302189050808702600203810290508087026002038102905080870260020381029050808702600203810290508087026002038102905080870260020381029050808502955050505050505b9392505050565b60008173ffffffffffffffffffffffffffffffffffffffff1663bd02d0f56040516020016123a990613dc2565b604051602081830303815290604052805190602001206040518263ffffffff1660e01b81526004016123db9190612b91565b602060405180830381865afa1580156123f8573d6000803e3d6000fd5b505050506040513d601f19601f8201168201806040525081019061241c9190612be2565b9050919050565b60006a636f6e736f6c652e6c6f679050600080835160208501845afa505050565b612754819050919050565b60008173ffffffffffffffffffffffffffffffffffffffff1663bd02d0f560405160200161247c90613e2e565b604051602081830303815290604052805190602001206040518263ffffffff1660e01b81526004016124ae9190612b91565b602060405180830381865afa1580156124cb573d6000803e3d6000fd5b505050506040513d601f19601f820116820180604052508101906124ef9190612be2565b9050919050565b6000612500611bd2565b8203612512578260200151905061253f565b6000612522846040015184611bda565b905061253b846020015182611c3590919063ffffffff16565b9150505b92915050565b600080600084600001518460ff166002811061256457612563612dff565b5b6020020151604001519050600061259d87600001518660ff166002811061258e5761258d612dff565b5b602002015188608001516124f6565b9050600082146125bf576125ba8183611c3590919063ffffffff16565b6125c2565b60005b925085600001518560ff16600281106125de576125dd612dff565b5b60200201516020015193505050935093915050565b604051806080016040528061260661266a565b81526020016000801916815260200161261d61262d565b8152602001600080191681525090565b604051806060016040528061264061275e565b815260200160008152602001600073ffffffffffffffffffffffffffffffffffffffff1681525090565b6040518060a0016040528061267d61278b565b8152602001600073ffffffffffffffffffffffffffffffffffffffff168152602001600073ffffffffffffffffffffffffffffffffffffffff16815260200160008152602001600081525090565b604051806040016040528060008152602001600081525090565b604051806101c0016040528060008152602001600081526020016000815260200160008152602001600081526020016000815260200160008152602001600081526020016000815260200160008152602001600081526020016000815260200160008152602001600081525090565b61275c613e4e565b565b60405180604001604052806002905b6127756127b8565b81526020019060019003908161276d5790505090565b60405180604001604052806002905b6127a2612813565b81526020019060019003908161279a5790505090565b604051806101000160405280600073ffffffffffffffffffffffffffffffffffffffff168152602001600081526020016000815260200160008152602001600081526020016000815260200160008152602001600081525090565b6040518060e00160405280600073ffffffffffffffffffffffffffffffffffffffff1681526020016000815260200160008152602001600081526020016000815260200160008152602001600081525090565b600073ffffffffffffffffffffffffffffffffffffffff82169050919050565b6000819050919050565b60006128ab6128a66128a184612866565b612886565b612866565b9050919050565b60006128bd82612890565b9050919050565b60006128cf826128b2565b9050919050565b6128df816128c4565b82525050565b60006020820190506128fa60008301846128d6565b92915050565b600061290b826128b2565b9050919050565b61291b81612900565b82525050565b60006020820190506129366000830184612912565b92915050565b6000604051905090565b600080fd5b600061295682612866565b9050919050565b6129668161294b565b811461297157600080fd5b50565b6000813590506129838161295d565b92915050565b600080fd5b6000606082840312156129a4576129a3612989565b5b81905092915050565b600080608083850312156129c4576129c3612946565b5b60006129d285828601612974565b92505060206129e38582860161298e565b9150509250929050565b60006129f8826128b2565b9050919050565b612a08816129ed565b82525050565b6000602082019050612a2360008301846129ff565b92915050565b600082825260208201905092915050565b7f434f4e54524f4c4c455200000000000000000000000000000000000000000000600082015250565b6000612a70600a83612a29565b9150612a7b82612a3a565b602082019050919050565b60006020820190508181036000830152612a9f81612a63565b9050919050565b600060ff82169050919050565b612abc81612aa6565b8114612ac757600080fd5b50565b600081359050612ad981612ab3565b92915050565b600060208284031215612af557612af4612946565b5b6000612b0384828501612aca565b91505092915050565b7f5245454e5452414e43595f47554152445f535441545553000000000000000000600082015250565b6000612b42601783612a29565b9150612b4d82612b0c565b602082019050919050565b60006020820190508181036000830152612b7181612b35565b9050919050565b6000819050919050565b612b8b81612b78565b82525050565b6000602082019050612ba66000830184612b82565b92915050565b6000819050919050565b612bbf81612bac565b8114612bca57600080fd5b50565b600081519050612bdc81612bb6565b92915050565b600060208284031215612bf857612bf7612946565b5b6000612c0684828501612bcd565b91505092915050565b7f5265656e7472616e637947756172643a207265656e7472616e742063616c6c00600082015250565b6000612c45601f83612a29565b9150612c5082612c0f565b602082019050919050565b60006020820190508181036000830152612c7481612c38565b9050919050565b612c8481612bac565b82525050565b6000604082019050612c9f6000830185612b82565b612cac6020830184612c7b565b9392505050565b612cbc8161294b565b82525050565b6000604082019050612cd76000830185612cb3565b612ce46020830184612b82565b9392505050565b60008115159050919050565b612d0081612ceb565b8114612d0b57600080fd5b50565b600081519050612d1d81612cf7565b92915050565b600060208284031215612d3957612d38612946565b5b6000612d4784828501612d0e565b91505092915050565b600081519050919050565b60005b83811015612d79578082015181840152602081019050612d5e565b60008484015250505050565b6000601f19601f8301169050919050565b6000612da182612d50565b612dab8185612a29565b9350612dbb818560208601612d5b565b612dc481612d85565b840191505092915050565b6000604082019050612de46000830185612cb3565b8181036020830152612df68184612d96565b90509392505050565b7f4e487b7100000000000000000000000000000000000000000000000000000000600052603260045260246000fd5b612e378161294b565b82525050565b612e4681612b78565b82525050565b600060029050919050565b600081905092915050565b6000819050919050565b612e758161294b565b82525050565b612e8481612bac565b82525050565b61010082016000820151612ea16000850182612e6c565b506020820151612eb46020850182612e7b565b506040820151612ec76040850182612e7b565b506060820151612eda6060850182612e7b565b506080820151612eed6080850182612e7b565b5060a0820151612f0060a0850182612e7b565b5060c0820151612f1360c0850182612e7b565b5060e0820151612f2660e0850182612e7b565b50505050565b6000612f388383612e8a565b6101008301905092915050565b6000602082019050919050565b612f5b81612e4c565b612f658184612e57565b9250612f7082612e62565b8060005b83811015612fa1578151612f888782612f2c565b9650612f9383612f45565b925050600181019050612f74565b505050505050565b61024082016000820151612fc06000850182612f52565b506020820151612fd4610200850182612e7b565b506040820151612fe8610220850182612e6c565b50505050565b6000610280820190506130046000830186612e2e565b6130116020830185612e3d565b61301e6040830184612fa9565b949350505050565b600060029050919050565b600081905092915050565b6000819050919050565b60e08201600082015161305c6000850182612e6c565b50602082015161306f6020850182612e7b565b5060408201516130826040850182612e7b565b5060608201516130956060850182612e7b565b5060808201516130a86080850182612e7b565b5060a08201516130bb60a0850182612e7b565b5060c08201516130ce60c0850182612e7b565b50505050565b60006130e08383613046565b60e08301905092915050565b6000602082019050919050565b61310281613026565b61310c8184613031565b92506131178261303c565b8060005b8381101561314857815161312f87826130d4565b965061313a836130ec565b92505060018101905061311b565b505050505050565b6102408201600082015161316760008501826130f9565b50602082015161317b6101c0850182612e6c565b50604082015161318f6101e0850182612e6c565b5060608201516131a3610200850182612e7b565b5060808201516131b7610220850182612e7b565b50505050565b6000610280820190506131d36000830186612e2e565b6131e06020830185612e3d565b6131ed6040830184613150565b949350505050565b600060408201905061320a6000830185612e2e565b6132176020830184612e3d565b9392505050565b600080fd5b7f4e487b7100000000000000000000000000000000000000000000000000000000600052604160045260246000fd5b61325b82612d85565b810181811067ffffffffffffffff8211171561327a57613279613223565b5b80604052505050565b600061328d61293c565b90506132998282613252565b919050565b600080fd5b600067ffffffffffffffff8211156132be576132bd613223565b5b602082029050919050565b600080fd5b6000815190506132dd8161295d565b92915050565b600060e082840312156132f9576132f861321e565b5b61330360e0613283565b90506000613313848285016132ce565b600083015250602061332784828501612bcd565b602083015250604061333b84828501612bcd565b604083015250606061334f84828501612bcd565b606083015250608061336384828501612bcd565b60808301525060a061337784828501612bcd565b60a08301525060c061338b84828501612bcd565b60c08301525092915050565b60006133aa6133a5846132a3565b613283565b90508060e084028301858111156133c4576133c36132c9565b5b835b818110156133ed57806133d988826132e3565b84526020840193505060e0810190506133c6565b5050509392505050565b600082601f83011261340c5761340b61329e565b5b6002613419848285613397565b91505092915050565b600061024082840312156134395761343861321e565b5b61344360a0613283565b90506000613453848285016133f7565b6000830152506101c0613468848285016132ce565b6020830152506101e061347d848285016132ce565b60408301525061020061349284828501612bcd565b6060830152506102206134a784828501612bcd565b60808301525092915050565b600061024082840312156134ca576134c9612946565b5b60006134d884828501613422565b91505092915050565b60006040820190506134f66000830185612cb3565b6135036020830184612cb3565b9392505050565b600060408201905061351f6000830185612c7b565b61352c6020830184612c7b565b9392505050565b7f4e487b7100000000000000000000000000000000000000000000000000000000600052601160045260246000fd5b600061356d82612bac565b915061357883612bac565b92508282019050808211156135905761358f613533565b5b92915050565b60006135a182612bac565b91506135ac83612bac565b92508282039050818111156135c4576135c3613533565b5b92915050565b6135d381612bac565b82525050565b6040820160008201516135ef60008501826135ca565b50602082015161360260208501826135ca565b50505050565b600060408201905061361d60008301846135d9565b92915050565b61362c81612aa6565b82525050565b60808201600082015161364860008501826135ca565b50602082015161365b60208501826135ca565b50604082015161366e60408501826135ca565b50606082015161368160608501826135ca565b50505050565b60006101608201905061369d600083018b612cb3565b6136aa602083018a612cb3565b6136b76040830189612cb3565b6136c46060830188612c7b565b6136d16080830187613623565b6136de60a0830186612c7b565b6136eb60c0830185612c7b565b6136f860e0830184613632565b9998505050505050505050565b6000604082019050818103600083015261371f8185612d96565b905081810360208301526137338184612d96565b90509392505050565b600067ffffffffffffffff82111561375757613756613223565b5b602082029050919050565b600061010082840312156137795761377861321e565b5b613784610100613283565b90506000613794848285016132ce565b60008301525060206137a884828501612bcd565b60208301525060406137bc84828501612bcd565b60408301525060606137d084828501612bcd565b60608301525060806137e484828501612bcd565b60808301525060a06137f884828501612bcd565b60a08301525060c061380c84828501612bcd565b60c08301525060e061382084828501612bcd565b60e08301525092915050565b600061383f61383a8461373c565b613283565b905080610100840283018581111561385a576138596132c9565b5b835b81811015613884578061386f8882613762565b8452602084019350506101008101905061385c565b5050509392505050565b600082601f8301126138a3576138a261329e565b5b60026138b084828561382c565b91505092915050565b600061024082840312156138d0576138cf61321e565b5b6138da6060613283565b905060006138ea8482850161388e565b6000830152506102006138ff84828501612bcd565b602083015250610220613914848285016132ce565b60408301525092915050565b6000610240828403121561393757613936612946565b5b6000613945848285016138b9565b91505092915050565b7f504f4f4c00000000000000000000000000000000000000000000000000000000600082015250565b6000613984600483612a29565b915061398f8261394e565b602082019050919050565b600060208201905081810360008301526139b381613977565b9050919050565b60006060820190506139cf6000830186612b82565b6139dc6020830185612cb3565b6139e96040830184612cb3565b949350505050565b7f4d41585f424f52524f575f524154450000000000000000000000000000000000600082015250565b6000613a27600f83612a29565b9150613a32826139f1565b602082019050919050565b60006020820190508181036000830152613a5681613a1a565b9050919050565b60008160011c9050919050565b6000808291508390505b6001851115613ab457808604811115613a9057613a8f613533565b5b6001851615613a9f5780820291505b8081029050613aad85613a5d565b9450613a74565b94509492505050565b600082613acd5760019050613b89565b81613adb5760009050613b89565b8160018114613af15760028114613afb57613b2a565b6001915050613b89565b60ff841115613b0d57613b0c613533565b5b8360020a915084821115613b2457613b23613533565b5b50613b89565b5060208310610133831016604e8410600b8410161715613b5f5782820a905083811115613b5a57613b59613533565b5b613b89565b613b6c8484846001613a6a565b92509050818404811115613b8357613b82613533565b5b81810290505b9392505050565b6000613b9b82612bac565b9150613ba683612bac565b9250613bd37fffffffffffffffffffffffffffffffffffffffffffffffffffffffffffffffff8484613abd565b905092915050565b7f504f534954494f4e000000000000000000000000000000000000000000000000600082015250565b6000613c11600883612a29565b9150613c1c82613bdb565b602082019050919050565b60006020820190508181036000830152613c4081613c04565b9050919050565b6000606082019050613c5c6000830186612b82565b613c696020830185612cb3565b613c766040830184612c7b565b949350505050565b6000613c8982612bac565b9150613c9483612bac565b9250828202613ca281612bac565b91508282048414831517613cb957613cb8613533565b5b5092915050565b7f4e487b7100000000000000000000000000000000000000000000000000000000600052601260045260246000fd5b6000602082019050613d046000830184612cb3565b92915050565b7f64732d6d6174682d7375622d756e646572666c6f770000000000000000000000600082015250565b6000613d40601583612a29565b9150613d4b82613d0a565b602082019050919050565b60006020820190508181036000830152613d6f81613d33565b9050919050565b7f4d415247494e5f4c4556454c4c5f5448524553484f4c44000000000000000000600082015250565b6000613dac601783612a29565b9150613db782613d76565b602082019050919050565b60006020820190508181036000830152613ddb81613d9f565b9050919050565b7f53484f52545f4c49515549444954595f5448524553484f4c4400000000000000600082015250565b6000613e18601983612a29565b9150613e2382613de2565b602082019050919050565b60006020820190508181036000830152613e4781613e0b565b9050919050565b7f4e487b7100000000000000000000000000000000000000000000000000000000600052605160045260246000fdfea264697066735822122074b4152dfd80aea0e97f00589058f0cb2fb77e3c2bf7ed054718ce562a99106b64736f6c634300081c0033",
  "linkReferences": {
    "contracts/pool/PoolStoreUtils.sol": {
      "PoolStoreUtils": [
        {
          "length": 20,
          "start": 2357
        },
        {
          "length": 20,
          "start": 3151
        }
      ]
    },
    "contracts/position/PositionStoreUtils.sol": {
      "PositionStoreUtils": [
        {
          "length": 20,
          "start": 2220
        },
        {
          "length": 20,
          "start": 5148
        }
      ]
    }
  },
  "deployedLinkReferences": {
    "contracts/pool/PoolStoreUtils.sol": {
      "PoolStoreUtils": [
        {
          "length": 20,
          "start": 1728
        },
        {
          "length": 20,
          "start": 2522
        }
      ]
    },
    "contracts/position/PositionStoreUtils.sol": {
      "PositionStoreUtils": [
        {
          "length": 20,
          "start": 1591
        },
        {
          "length": 20,
          "start": 4519
        }
      ]
    }
  }
}