{
  "_format": "hh-sol-artifact-1",
  "contractName": "Config",
  "sourceName": "contracts/config/Config.sol",
  "abi": [
    {
      "inputs": [
        {
          "internalType": "contract RoleStore",
          "name": "_roleStore",
          "type": "address"
        },
        {
          "internalType": "contract DataStore",
          "name": "_dataStore",
          "type": "address"
        }
      ],
      "stateMutability": "nonpayable",
      "type": "constructor"
    },
    {
      "inputs": [
        {
          "internalType": "bytes32",
          "name": "key",
          "type": "bytes32"
        }
      ],
      "name": "EmptyPool",
      "type": "error"
    },
    {
      "inputs": [],
      "name": "EmptyTokenBase",
      "type": "error"
    },
    {
      "inputs": [],
      "name": "EmptyTreasury",
      "type": "error"
    },
    {
      "inputs": [
        {
          "internalType": "uint256",
          "name": "feeFactor",
          "type": "uint256"
        },
        {
          "internalType": "uint256",
          "name": "MaxValidFeeFactor",
          "type": "uint256"
        }
      ],
      "name": "InvalidFeeFactor",
      "type": "error"
    },
    {
      "inputs": [],
      "name": "ReentrancyGuardReentrantCall",
      "type": "error"
    },
    {
      "inputs": [
        {
          "internalType": "address",
          "name": "msgSender",
          "type": "address"
        },
        {
          "internalType": "string",
          "name": "role",
          "type": "string"
        }
      ],
      "name": "Unauthorized",
      "type": "error"
    },
    {
      "inputs": [],
      "name": "dataStore",
      "outputs": [
        {
          "internalType": "contract DataStore",
          "name": "",
          "type": "address"
        }
      ],
      "stateMutability": "view",
      "type": "function"
    },
    {
      "inputs": [
        {
          "internalType": "bytes[]",
          "name": "data",
          "type": "bytes[]"
        }
      ],
      "name": "multicall",
      "outputs": [
        {
          "internalType": "bytes[]",
          "name": "results",
          "type": "bytes[]"
        }
      ],
      "stateMutability": "nonpayable",
      "type": "function"
    },
    {
      "inputs": [],
      "name": "roleStore",
      "outputs": [
        {
          "internalType": "contract RoleStore",
          "name": "",
          "type": "address"
        }
      ],
      "stateMutability": "view",
      "type": "function"
    },
    {
      "inputs": [
        {
          "internalType": "uint256",
          "name": "debtSaftyFactor",
          "type": "uint256"
        }
      ],
      "name": "setDebtSafetyFactor",
      "outputs": [],
      "stateMutability": "nonpayable",
      "type": "function"
    },
    {
      "inputs": [
        {
          "internalType": "address",
          "name": "interestRateStrategy",
          "type": "address"
        }
      ],
      "name": "setDefaultInterestRateStrategy",
      "outputs": [],
      "stateMutability": "nonpayable",
      "type": "function"
    },
    {
      "inputs": [
        {
          "internalType": "uint256",
          "name": "configuration",
          "type": "uint256"
        }
      ],
      "name": "setDefaultPoolConfiguration",
      "outputs": [],
      "stateMutability": "nonpayable",
      "type": "function"
    },
    {
      "inputs": [
        {
          "internalType": "uint256",
          "name": "liquidationFee",
          "type": "uint256"
        }
      ],
      "name": "setLiquidationFee",
      "outputs": [],
      "stateMutability": "nonpayable",
      "type": "function"
    },
    {
      "inputs": [
        {
          "internalType": "uint256",
          "name": "threshold",
          "type": "uint256"
        }
      ],
      "name": "setMarginLevelThreshold",
      "outputs": [],
      "stateMutability": "nonpayable",
      "type": "function"
    },
    {
      "inputs": [
        {
          "internalType": "uint256",
          "name": "maxBorrowRate",
          "type": "uint256"
        }
      ],
      "name": "setMaxBorrowRate",
      "outputs": [],
      "stateMutability": "nonpayable",
      "type": "function"
    },
    {
      "inputs": [
        {
          "internalType": "uint256",
          "name": "maxDepositRate",
          "type": "uint256"
        }
      ],
      "name": "setMaxDepositRate",
      "outputs": [],
      "stateMutability": "nonpayable",
      "type": "function"
    },
    {
      "inputs": [
        {
          "internalType": "address",
          "name": "token0",
          "type": "address"
        },
        {
          "internalType": "address",
          "name": "token1",
          "type": "address"
        },
        {
          "internalType": "bool",
          "name": "shortEnabled",
          "type": "bool"
        }
      ],
      "name": "setShortEnabled",
      "outputs": [],
      "stateMutability": "nonpayable",
      "type": "function"
    },
    {
      "inputs": [
        {
          "internalType": "uint256",
          "name": "shortLiquidityThreshold",
          "type": "uint256"
        }
      ],
      "name": "setShortLiquidityThreshold",
      "outputs": [],
      "stateMutability": "nonpayable",
      "type": "function"
    },
    {
      "inputs": [
        {
          "internalType": "address",
          "name": "token0",
          "type": "address"
        },
        {
          "internalType": "address",
          "name": "token1",
          "type": "address"
        },
        {
          "internalType": "uint256",
          "name": "feeFactor",
          "type": "uint256"
        }
      ],
      "name": "setSwapFeeFactor",
      "outputs": [],
      "stateMutability": "nonpayable",
      "type": "function"
    },
    {
      "inputs": [
        {
          "internalType": "address",
          "name": "token",
          "type": "address"
        }
      ],
      "name": "setTokenBase",
      "outputs": [],
      "stateMutability": "nonpayable",
      "type": "function"
    },
    {
      "inputs": [
        {
          "internalType": "uint256",
          "name": "multipierFactor",
          "type": "uint256"
        }
      ],
      "name": "setTradableDebtMultipierFactor",
      "outputs": [],
      "stateMutability": "nonpayable",
      "type": "function"
    },
    {
      "inputs": [
        {
          "internalType": "address",
          "name": "treasury",
          "type": "address"
        }
      ],
      "name": "setTreasury",
      "outputs": [],
      "stateMutability": "nonpayable",
      "type": "function"
    },
    {
      "inputs": [
        {
          "internalType": "address",
          "name": "token0",
          "type": "address"
        },
        {
          "internalType": "address",
          "name": "token1",
          "type": "address"
        },
        {
          "internalType": "uint256",
          "name": "feeFactor",
          "type": "uint256"
        }
      ],
      "name": "setTreasuryFeeFactor",
      "outputs": [],
      "stateMutability": "nonpayable",
      "type": "function"
    },
    {
      "inputs": [
        {
          "internalType": "uint256",
          "name": "period",
          "type": "uint256"
        }
      ],
      "name": "setTwapPeriod",
      "outputs": [],
      "stateMutability": "nonpayable",
      "type": "function"
    }
  ],
  "bytecode": "0x60c060405234801561001057600080fd5b50604051612e62380380612e628339818101604052810190610032919061015e565b818073ffffffffffffffffffffffffffffffffffffffff1660808173ffffffffffffffffffffffffffffffffffffffff16815250505060016000819055508073ffffffffffffffffffffffffffffffffffffffff1660a08173ffffffffffffffffffffffffffffffffffffffff1681525050505061019e565b600080fd5b600073ffffffffffffffffffffffffffffffffffffffff82169050919050565b60006100db826100b0565b9050919050565b60006100ed826100d0565b9050919050565b6100fd816100e2565b811461010857600080fd5b50565b60008151905061011a816100f4565b92915050565b600061012b826100d0565b9050919050565b61013b81610120565b811461014657600080fd5b50565b60008151905061015881610132565b92915050565b60008060408385031215610175576101746100ab565b5b60006101838582860161010b565b925050602061019485828601610149565b9150509250929050565b60805160a051612c1a61024860003960008181610393015281816104d701528181610518015281816105cd0152818161060e015281816106690152818161079d015281816107cf01528181610895015281816108b90152818161097f01528181610ac301528181610b0401528181610ba901528181610bdb01528181610ca101528181610f0e01528181610fae015261104e01526000818161064501526110800152612c1a6000f3fe608060405234801561001057600080fd5b50600436106101165760003560e01c80636a72c63f116100a2578063956228c611610071578063956228c61461028b578063ac9650d8146102a7578063bb789bd7146102d7578063f0f44260146102f3578063fef0bec81461030f57610116565b80636a72c63f1461021b5780636a97c0fe1461023757806388235d101461025357806392547c381461026f57610116565b806357c25c66116100e957806357c25c661461018d5780635e657adf146101a95780635eadca7e146101c5578063660d0d67146101e157806369ea8682146101ff57610116565b80631dee7f3e1461011b5780632ffaf5591461013757806330a767c5146101535780634a4a7b041461016f575b600080fd5b61013560048036038101906101309190611bb4565b61032b565b005b610151600480360381019061014c9190611c19565b610457565b005b61016d60048036038101906101689190611ca2565b61054d565b005b610177610643565b6040516101849190611d54565b60405180910390f35b6101a760048036038101906101a29190611d6f565b610667565b005b6101c360048036038101906101be9190611d6f565b61072d565b005b6101df60048036038101906101da9190611d6f565b6107cd565b005b6101e9610893565b6040516101f69190611dbd565b60405180910390f35b61021960048036038101906102149190611bb4565b6108b7565b005b61023560048036038101906102309190611d6f565b61097d565b005b610251600480360381019061024c9190611ca2565b610a43565b005b61026d60048036038101906102689190611d6f565b610b39565b005b61028960048036038101906102849190611d6f565b610bd9565b005b6102a560048036038101906102a09190611d6f565b610c9f565b005b6102c160048036038101906102bc9190611e3d565b610d65565b6040516102ce9190611fdc565b60405180910390f35b6102f160048036038101906102ec9190611d6f565b610e9e565b005b61030d60048036038101906103089190611bb4565b610f3e565b005b61032960048036038101906103249190611d6f565b610fde565b005b600073ffffffffffffffffffffffffffffffffffffffff168173ffffffffffffffffffffffffffffffffffffffff1603610391576040517f58c52e4d00000000000000000000000000000000000000000000000000000000815260040160405180910390fd5b7f000000000000000000000000000000000000000000000000000000000000000073ffffffffffffffffffffffffffffffffffffffff1663ca446dd96040516020016103dc9061205b565b60405160208183030381529060405280519060200120836040518363ffffffff1660e01b81526004016104109291906120a3565b6020604051808303816000875af115801561042f573d6000803e3d6000fd5b505050506040513d601f19601f8201168201806040525081019061045391906120e1565b5050565b6104ba6040516020016104699061215a565b604051602081830303815290604052805190602001206040518060400160405280600d81526020017f434f4e4649475f4b45455045520000000000000000000000000000000000000081525061107e565b6104c2611161565b60006104ce84846111a7565b905060006104fc7f000000000000000000000000000000000000000000000000000000000000000083611245565b9050610511838261125990919063ffffffff16565b905061053e7f0000000000000000000000000000000000000000000000000000000000000000838361129d565b505061054861137c565b505050565b6105b060405160200161055f9061215a565b604051602081830303815290604052805190602001206040518060400160405280600d81526020017f434f4e4649475f4b45455045520000000000000000000000000000000000000081525061107e565b6105b8611161565b60006105c484846111a7565b905060006105f27f000000000000000000000000000000000000000000000000000000000000000083611245565b9050610607838261138690919063ffffffff16565b90506106347f0000000000000000000000000000000000000000000000000000000000000000838361129d565b505061063e61137c565b505050565b7f000000000000000000000000000000000000000000000000000000000000000081565b7f000000000000000000000000000000000000000000000000000000000000000073ffffffffffffffffffffffffffffffffffffffff1663e2a4853a6040516020016106b2906121c6565b60405160208183030381529060405280519060200120836040518363ffffffff1660e01b81526004016106e69291906121f5565b6020604051808303816000875af1158015610705573d6000803e3d6000fd5b505050506040513d601f19601f820116820180604052508101906107299190612233565b5050565b61079060405160200161073f9061215a565b604051602081830303815290604052805190602001206040518060400160405280600d81526020017f434f4e4649475f4b45455045520000000000000000000000000000000000000081525061107e565b610798611161565b6107c27f000000000000000000000000000000000000000000000000000000000000000082611404565b6107ca61137c565b50565b7f000000000000000000000000000000000000000000000000000000000000000073ffffffffffffffffffffffffffffffffffffffff1663e2a4853a604051602001610818906122ac565b60405160208183030381529060405280519060200120836040518363ffffffff1660e01b815260040161084c9291906121f5565b6020604051808303816000875af115801561086b573d6000803e3d6000fd5b505050506040513d601f19601f8201168201806040525081019061088f9190612233565b5050565b7f000000000000000000000000000000000000000000000000000000000000000081565b7f000000000000000000000000000000000000000000000000000000000000000073ffffffffffffffffffffffffffffffffffffffff1663ca446dd960405160200161090290612318565b60405160208183030381529060405280519060200120836040518363ffffffff1660e01b81526004016109369291906120a3565b6020604051808303816000875af1158015610955573d6000803e3d6000fd5b505050506040513d601f19601f8201168201806040525081019061097991906120e1565b5050565b7f000000000000000000000000000000000000000000000000000000000000000073ffffffffffffffffffffffffffffffffffffffff1663e2a4853a6040516020016109c890612384565b60405160208183030381529060405280519060200120836040518363ffffffff1660e01b81526004016109fc9291906121f5565b6020604051808303816000875af1158015610a1b573d6000803e3d6000fd5b505050506040513d601f19601f82011682018060405250810190610a3f9190612233565b5050565b610aa6604051602001610a559061215a565b604051602081830303815290604052805190602001206040518060400160405280600d81526020017f434f4e4649475f4b45455045520000000000000000000000000000000000000081525061107e565b610aae611161565b6000610aba84846111a7565b90506000610ae87f000000000000000000000000000000000000000000000000000000000000000083611245565b9050610afd83826114ab90919063ffffffff16565b9050610b2a7f0000000000000000000000000000000000000000000000000000000000000000838361129d565b5050610b3461137c565b505050565b610b9c604051602001610b4b9061215a565b604051602081830303815290604052805190602001206040518060400160405280600d81526020017f434f4e4649475f4b45455045520000000000000000000000000000000000000081525061107e565b610ba4611161565b610bce7f000000000000000000000000000000000000000000000000000000000000000082611529565b610bd661137c565b50565b7f000000000000000000000000000000000000000000000000000000000000000073ffffffffffffffffffffffffffffffffffffffff1663e2a4853a604051602001610c24906123f0565b60405160208183030381529060405280519060200120836040518363ffffffff1660e01b8152600401610c589291906121f5565b6020604051808303816000875af1158015610c77573d6000803e3d6000fd5b505050506040513d601f19601f82011682018060405250810190610c9b9190612233565b5050565b7f000000000000000000000000000000000000000000000000000000000000000073ffffffffffffffffffffffffffffffffffffffff1663e2a4853a604051602001610cea9061245c565b60405160208183030381529060405280519060200120836040518363ffffffff1660e01b8152600401610d1e9291906121f5565b6020604051808303816000875af1158015610d3d573d6000803e3d6000fd5b505050506040513d601f19601f82011682018060405250810190610d619190612233565b5050565b60608282905067ffffffffffffffff811115610d8457610d8361247c565b5b604051908082528060200260200182016040528015610db757816020015b6060815260200190600190039081610da25790505b50905060005b83839050811015610e97576000803073ffffffffffffffffffffffffffffffffffffffff16868685818110610df557610df46124ab565b5b9050602002810190610e0791906124e9565b604051610e1592919061258b565b600060405180830381855af49150503d8060008114610e50576040519150601f19603f3d011682016040523d82523d6000602084013e610e55565b606091505b509150915081610e6957610e68816115d0565b5b80848481518110610e7d57610e7c6124ab565b5b602002602001018190525050508080600101915050610dbd565b5092915050565b610f01604051602001610eb09061215a565b604051602081830303815290604052805190602001206040518060400160405280600d81526020017f434f4e4649475f4b45455045520000000000000000000000000000000000000081525061107e565b610f09611161565b610f337f000000000000000000000000000000000000000000000000000000000000000082611631565b610f3b61137c565b50565b610fa1604051602001610f509061215a565b604051602081830303815290604052805190602001206040518060400160405280600d81526020017f434f4e4649475f4b45455045520000000000000000000000000000000000000081525061107e565b610fa9611161565b610fd37f0000000000000000000000000000000000000000000000000000000000000000826116d8565b610fdb61137c565b50565b611041604051602001610ff09061215a565b604051602081830303815290604052805190602001206040518060400160405280600d81526020017f434f4e4649475f4b45455045520000000000000000000000000000000000000081525061107e565b611049611161565b6110737f0000000000000000000000000000000000000000000000000000000000000000826117e5565b61107b61137c565b50565b7f000000000000000000000000000000000000000000000000000000000000000073ffffffffffffffffffffffffffffffffffffffff1663ac4ab3fb33846040518363ffffffff1660e01b81526004016110d99291906125a4565b602060405180830381865afa1580156110f6573d6000803e3d6000fd5b505050506040513d601f19601f8201168201806040525081019061111a91906125e2565b61115d5733816040517fa35b150b000000000000000000000000000000000000000000000000000000008152600401611154929190612653565b60405180910390fd5b5050565b60026000540361119d576040517f3ee5aeb500000000000000000000000000000000000000000000000000000000815260040160405180910390fd5b6002600081905550565b60008173ffffffffffffffffffffffffffffffffffffffff168373ffffffffffffffffffffffffffffffffffffffff16106111e35781836111e6565b82825b80935081945050506040516020016111fd906126cf565b604051602081830303815290604052805190602001208383604051602001611227939291906126ef565b60405160208183030381529060405280519060200120905092915050565b6000611251838361188c565b905092915050565b600060338261126957600061126c565b60015b60ff16901b7ffffffffffffffffffffffffffffffffffffffffffffffffffff7ffffffffffff841617905092915050565b60006112a9848461196a565b90508073ffffffffffffffffffffffffffffffffffffffff1663e2a4853a846040516020016112d790612772565b604051602081830303815290604052805190602001206040516020016112fe929190612792565b60405160208183030381529060405280519060200120846040518363ffffffff1660e01b81526004016113329291906121f5565b6020604051808303816000875af1158015611351573d6000803e3d6000fd5b505050506040513d601f19601f820116820180604052508101906113759190612233565b5050505050565b6001600081905550565b600061ffff8211156113d3578161ffff6040517f9d1ea70b0000000000000000000000000000000000000000000000000000000081526004016113ca9291906127bb565b60405180910390fd5b604882901b7fffffffffffffffffffffffffffffffffffffffffff0000ffffffffffffffffff841617905092915050565b8173ffffffffffffffffffffffffffffffffffffffff1663e2a4853a60405160200161142f90612830565b60405160208183030381529060405280519060200120836040518363ffffffff1660e01b81526004016114639291906121f5565b6020604051808303816000875af1158015611482573d6000803e3d6000fd5b505050506040513d601f19601f820116820180604052508101906114a69190612233565b505050565b600061ffff8211156114f8578161ffff6040517f9d1ea70b0000000000000000000000000000000000000000000000000000000081526004016114ef9291906127bb565b60405180910390fd5b603882901b7fffffffffffffffffffffffffffffffffffffffffffffff0000ffffffffffffff841617905092915050565b8173ffffffffffffffffffffffffffffffffffffffff1663e2a4853a6040516020016115549061289c565b60405160208183030381529060405280519060200120836040518363ffffffff1660e01b81526004016115889291906121f5565b6020604051808303816000875af11580156115a7573d6000803e3d6000fd5b505050506040513d601f19601f820116820180604052508101906115cb9190612233565b505050565b6000806115dc83611a5b565b91509150801561162357816040517f08c379a000000000000000000000000000000000000000000000000000000000815260040161161a91906128bc565b60405180910390fd5b61162c83611b22565b505050565b8173ffffffffffffffffffffffffffffffffffffffff1663e2a4853a60405160200161165c9061292a565b60405160208183030381529060405280519060200120836040518363ffffffff1660e01b81526004016116909291906121f5565b6020604051808303816000875af11580156116af573d6000803e3d6000fd5b505050506040513d601f19601f820116820180604052508101906116d39190612233565b505050565b600073ffffffffffffffffffffffffffffffffffffffff168173ffffffffffffffffffffffffffffffffffffffff160361173e576040517fcdcb50b400000000000000000000000000000000000000000000000000000000815260040160405180910390fd5b8173ffffffffffffffffffffffffffffffffffffffff1663ca446dd960405160200161176990612996565b60405160208183030381529060405280519060200120836040518363ffffffff1660e01b815260040161179d9291906120a3565b6020604051808303816000875af11580156117bc573d6000803e3d6000fd5b505050506040513d601f19601f820116820180604052508101906117e091906120e1565b505050565b8173ffffffffffffffffffffffffffffffffffffffff1663e2a4853a60405160200161181090612a02565b60405160208183030381529060405280519060200120836040518363ffffffff1660e01b81526004016118449291906121f5565b6020604051808303816000875af1158015611863573d6000803e3d6000fd5b505050506040513d601f19601f820116820180604052508101906118879190612233565b505050565b600080611899848461196a565b90508073ffffffffffffffffffffffffffffffffffffffff1663bd02d0f5846040516020016118c790612772565b604051602081830303815290604052805190602001206040516020016118ee929190612792565b604051602081830303815290604052805190602001206040518263ffffffff1660e01b81526004016119209190612a22565b602060405180830381865afa15801561193d573d6000803e3d6000fd5b505050506040513d601f19601f820116820180604052508101906119619190612233565b91505092915050565b6000808390508073ffffffffffffffffffffffffffffffffffffffff166391d4403c60405160200161199b90612a89565b60405160208183030381529060405280519060200120856040518363ffffffff1660e01b81526004016119cf929190612792565b602060405180830381865afa1580156119ec573d6000803e3d6000fd5b505050506040513d601f19601f82011682018060405250810190611a1091906125e2565b611a5157826040517f7357d91f000000000000000000000000000000000000000000000000000000008152600401611a489190612a22565b60405180910390fd5b8091505092915050565b60606000604483511015611a85576000604051806020016040528060008152509091509150611b1d565b6000611a9084611b2f565b90506308c379a060e01b7bffffffffffffffffffffffffffffffffffffffffffffffffffffffff1916817bffffffffffffffffffffffffffffffffffffffffffffffffffffffff191603611b045760048401935083806020019051810190611af89190612b9b565b60019250925050611b1d565b6000604051806020016040528060008152509092509250505b915091565b6000815190508060208301fd5b6000806020830151905080915050919050565b6000604051905090565b600080fd5b600080fd5b600073ffffffffffffffffffffffffffffffffffffffff82169050919050565b6000611b8182611b56565b9050919050565b611b9181611b76565b8114611b9c57600080fd5b50565b600081359050611bae81611b88565b92915050565b600060208284031215611bca57611bc9611b4c565b5b6000611bd884828501611b9f565b91505092915050565b60008115159050919050565b611bf681611be1565b8114611c0157600080fd5b50565b600081359050611c1381611bed565b92915050565b600080600060608486031215611c3257611c31611b4c565b5b6000611c4086828701611b9f565b9350506020611c5186828701611b9f565b9250506040611c6286828701611c04565b9150509250925092565b6000819050919050565b611c7f81611c6c565b8114611c8a57600080fd5b50565b600081359050611c9c81611c76565b92915050565b600080600060608486031215611cbb57611cba611b4c565b5b6000611cc986828701611b9f565b9350506020611cda86828701611b9f565b9250506040611ceb86828701611c8d565b9150509250925092565b6000819050919050565b6000611d1a611d15611d1084611b56565b611cf5565b611b56565b9050919050565b6000611d2c82611cff565b9050919050565b6000611d3e82611d21565b9050919050565b611d4e81611d33565b82525050565b6000602082019050611d696000830184611d45565b92915050565b600060208284031215611d8557611d84611b4c565b5b6000611d9384828501611c8d565b91505092915050565b6000611da782611d21565b9050919050565b611db781611d9c565b82525050565b6000602082019050611dd26000830184611dae565b92915050565b600080fd5b600080fd5b600080fd5b60008083601f840112611dfd57611dfc611dd8565b5b8235905067ffffffffffffffff811115611e1a57611e19611ddd565b5b602083019150836020820283011115611e3657611e35611de2565b5b9250929050565b60008060208385031215611e5457611e53611b4c565b5b600083013567ffffffffffffffff811115611e7257611e71611b51565b5b611e7e85828601611de7565b92509250509250929050565b600081519050919050565b600082825260208201905092915050565b6000819050602082019050919050565b600081519050919050565b600082825260208201905092915050565b60005b83811015611ef0578082015181840152602081019050611ed5565b60008484015250505050565b6000601f19601f8301169050919050565b6000611f1882611eb6565b611f228185611ec1565b9350611f32818560208601611ed2565b611f3b81611efc565b840191505092915050565b6000611f528383611f0d565b905092915050565b6000602082019050919050565b6000611f7282611e8a565b611f7c8185611e95565b935083602082028501611f8e85611ea6565b8060005b85811015611fca5784840389528151611fab8582611f46565b9450611fb683611f5a565b925060208a01995050600181019050611f92565b50829750879550505050505092915050565b60006020820190508181036000830152611ff68184611f67565b905092915050565b600082825260208201905092915050565b7f544f4b454e5f4241534500000000000000000000000000000000000000000000600082015250565b6000612045600a83611ffe565b91506120508261200f565b602082019050919050565b6000602082019050818103600083015261207481612038565b9050919050565b6000819050919050565b61208e8161207b565b82525050565b61209d81611b76565b82525050565b60006040820190506120b86000830185612085565b6120c56020830184612094565b9392505050565b6000815190506120db81611b88565b92915050565b6000602082840312156120f7576120f6611b4c565b5b6000612105848285016120cc565b91505092915050565b7f434f4e4649475f4b454550455200000000000000000000000000000000000000600082015250565b6000612144600d83611ffe565b915061214f8261210e565b602082019050919050565b6000602082019050818103600083015261217381612137565b9050919050565b7f4d41585f424f52524f575f524154450000000000000000000000000000000000600082015250565b60006121b0600f83611ffe565b91506121bb8261217a565b602082019050919050565b600060208201905081810360008301526121df816121a3565b9050919050565b6121ef81611c6c565b82525050565b600060408201905061220a6000830185612085565b61221760208301846121e6565b9392505050565b60008151905061222d81611c76565b92915050565b60006020828403121561224957612248611b4c565b5b60006122578482850161221e565b91505092915050565b7f44454641554c545f504f4f4c5f434f4e46494755524154494f4e000000000000600082015250565b6000612296601a83611ffe565b91506122a182612260565b602082019050919050565b600060208201905081810360008301526122c581612289565b9050919050565b7f44454641554c545f494e5445524553545f524154455f53545241544547590000600082015250565b6000612302601e83611ffe565b915061230d826122cc565b602082019050919050565b60006020820190508181036000830152612331816122f5565b9050919050565b7f5452414441424c455f444542545f4d554c5449504945525f464143544f520000600082015250565b600061236e601e83611ffe565b915061237982612338565b602082019050919050565b6000602082019050818103600083015261239d81612361565b9050919050565b7f53484f52545f4c49515549444954595f5448524553484f4c4400000000000000600082015250565b60006123da601983611ffe565b91506123e5826123a4565b602082019050919050565b60006020820190508181036000830152612409816123cd565b9050919050565b7f4d41585f4445504f5349545f5241544500000000000000000000000000000000600082015250565b6000612446601083611ffe565b915061245182612410565b602082019050919050565b6000602082019050818103600083015261247581612439565b9050919050565b7f4e487b7100000000000000000000000000000000000000000000000000000000600052604160045260246000fd5b7f4e487b7100000000000000000000000000000000000000000000000000000000600052603260045260246000fd5b600080fd5b600080fd5b600080fd5b60008083356001602003843603038112612506576125056124da565b5b80840192508235915067ffffffffffffffff821115612528576125276124df565b5b602083019250600182023603831315612544576125436124e4565b5b509250929050565b600081905092915050565b82818337600083830152505050565b6000612572838561254c565b935061257f838584612557565b82840190509392505050565b6000612598828486612566565b91508190509392505050565b60006040820190506125b96000830185612094565b6125c66020830184612085565b9392505050565b6000815190506125dc81611bed565b92915050565b6000602082840312156125f8576125f7611b4c565b5b6000612606848285016125cd565b91505092915050565b600081519050919050565b60006126258261260f565b61262f8185611ffe565b935061263f818560208601611ed2565b61264881611efc565b840191505092915050565b60006040820190506126686000830185612094565b818103602083015261267a818461261a565b90509392505050565b7f504f4f4c00000000000000000000000000000000000000000000000000000000600082015250565b60006126b9600483611ffe565b91506126c482612683565b602082019050919050565b600060208201905081810360008301526126e8816126ac565b9050919050565b60006060820190506127046000830186612085565b6127116020830185612094565b61271e6040830184612094565b949350505050565b7f504f4f4c5f434f4e46494755524154494f4e0000000000000000000000000000600082015250565b600061275c601283611ffe565b915061276782612726565b602082019050919050565b6000602082019050818103600083015261278b8161274f565b9050919050565b60006040820190506127a76000830185612085565b6127b46020830184612085565b9392505050565b60006040820190506127d060008301856121e6565b6127dd60208301846121e6565b9392505050565b7f545741505f504552494f44000000000000000000000000000000000000000000600082015250565b600061281a600b83611ffe565b9150612825826127e4565b602082019050919050565b600060208201905081810360008301526128498161280d565b9050919050565b7f4d415247494e5f4c4556454c4c5f5448524553484f4c44000000000000000000600082015250565b6000612886601783611ffe565b915061289182612850565b602082019050919050565b600060208201905081810360008301526128b581612879565b9050919050565b600060208201905081810360008301526128d6818461261a565b905092915050565b7f444542545f5341464554595f464143544f520000000000000000000000000000600082015250565b6000612914601283611ffe565b915061291f826128de565b602082019050919050565b6000602082019050818103600083015261294381612907565b9050919050565b7f5452454153555259000000000000000000000000000000000000000000000000600082015250565b6000612980600883611ffe565b915061298b8261294a565b602082019050919050565b600060208201905081810360008301526129af81612973565b9050919050565b7f4c49515549444154494f4e5f4645450000000000000000000000000000000000600082015250565b60006129ec600f83611ffe565b91506129f7826129b6565b602082019050919050565b60006020820190508181036000830152612a1b816129df565b9050919050565b6000602082019050612a376000830184612085565b92915050565b7f504f4f4c5f4c4953540000000000000000000000000000000000000000000000600082015250565b6000612a73600983611ffe565b9150612a7e82612a3d565b602082019050919050565b60006020820190508181036000830152612aa281612a66565b9050919050565b600080fd5b612ab782611efc565b810181811067ffffffffffffffff82111715612ad657612ad561247c565b5b80604052505050565b6000612ae9611b42565b9050612af58282612aae565b919050565b600067ffffffffffffffff821115612b1557612b1461247c565b5b612b1e82611efc565b9050602081019050919050565b6000612b3e612b3984612afa565b612adf565b905082815260208101848484011115612b5a57612b59612aa9565b5b612b65848285611ed2565b509392505050565b600082601f830112612b8257612b81611dd8565b5b8151612b92848260208601612b2b565b91505092915050565b600060208284031215612bb157612bb0611b4c565b5b600082015167ffffffffffffffff811115612bcf57612bce611b51565b5b612bdb84828501612b6d565b9150509291505056fea2646970667358221220f232d639d8bb788fe709c4b7764aa33d6992cb51c5f732fa6e0c807b9be9c18c64736f6c634300081c0033",
  "linkReferences": {},
  "deployedLinkReferences": {}
}