{
  "_format": "hh-sol-artifact-1",
  "contractName": "Config",
  "sourceName": "contracts/config/Config.sol",
  "abi": [
    {
      "inputs": [
        {
          "internalType": "contract RoleStore",
          "name": "_roleStore",
          "type": "address"
        },
        {
          "internalType": "contract DataStore",
          "name": "_dataStore",
          "type": "address"
        }
      ],
      "stateMutability": "nonpayable",
      "type": "constructor"
    },
    {
      "inputs": [
        {
          "internalType": "bytes32",
          "name": "key",
          "type": "bytes32"
        }
      ],
      "name": "EmptyPool",
      "type": "error"
    },
    {
      "inputs": [],
      "name": "EmptyTokenBase",
      "type": "error"
    },
    {
      "inputs": [],
      "name": "EmptyTreasury",
      "type": "error"
    },
    {
      "inputs": [
        {
          "internalType": "uint256",
          "name": "feeFactor",
          "type": "uint256"
        },
        {
          "internalType": "uint256",
          "name": "MaxValidFeeFactor",
          "type": "uint256"
        }
      ],
      "name": "InvalidFeeFactor",
      "type": "error"
    },
    {
      "inputs": [],
      "name": "ReentrancyGuardReentrantCall",
      "type": "error"
    },
    {
      "inputs": [
        {
          "internalType": "address",
          "name": "msgSender",
          "type": "address"
        },
        {
          "internalType": "string",
          "name": "role",
          "type": "string"
        }
      ],
      "name": "Unauthorized",
      "type": "error"
    },
    {
      "inputs": [],
      "name": "dataStore",
      "outputs": [
        {
          "internalType": "contract DataStore",
          "name": "",
          "type": "address"
        }
      ],
      "stateMutability": "view",
      "type": "function"
    },
    {
      "inputs": [
        {
          "internalType": "bytes[]",
          "name": "data",
          "type": "bytes[]"
        }
      ],
      "name": "multicall",
      "outputs": [
        {
          "internalType": "bytes[]",
          "name": "results",
          "type": "bytes[]"
        }
      ],
      "stateMutability": "nonpayable",
      "type": "function"
    },
    {
      "inputs": [],
      "name": "roleStore",
      "outputs": [
        {
          "internalType": "contract RoleStore",
          "name": "",
          "type": "address"
        }
      ],
      "stateMutability": "view",
      "type": "function"
    },
    {
      "inputs": [
        {
          "internalType": "uint256",
          "name": "debtSaftyFactor",
          "type": "uint256"
        }
      ],
      "name": "setDebtSafetyFactor",
      "outputs": [],
      "stateMutability": "nonpayable",
      "type": "function"
    },
    {
      "inputs": [
        {
          "internalType": "address",
          "name": "interestRateStrategy",
          "type": "address"
        }
      ],
      "name": "setDefaultInterestRateStrategy",
      "outputs": [],
      "stateMutability": "nonpayable",
      "type": "function"
    },
    {
      "inputs": [
        {
          "internalType": "uint256",
          "name": "configuration",
          "type": "uint256"
        }
      ],
      "name": "setDefaultPoolConfiguration",
      "outputs": [],
      "stateMutability": "nonpayable",
      "type": "function"
    },
    {
      "inputs": [
        {
          "internalType": "uint256",
          "name": "threshold",
          "type": "uint256"
        }
      ],
      "name": "setMarginLevelThreshold",
      "outputs": [],
      "stateMutability": "nonpayable",
      "type": "function"
    },
    {
      "inputs": [
        {
          "internalType": "uint256",
          "name": "shortLiquidityThreshold",
          "type": "uint256"
        }
      ],
      "name": "setShortLiquidityThreshold",
      "outputs": [],
      "stateMutability": "nonpayable",
      "type": "function"
    },
    {
      "inputs": [
        {
          "internalType": "address",
          "name": "token0",
          "type": "address"
        },
        {
          "internalType": "address",
          "name": "token1",
          "type": "address"
        },
        {
          "internalType": "uint256",
          "name": "feeFactor",
          "type": "uint256"
        }
      ],
      "name": "setSwapFeeFactor",
      "outputs": [],
      "stateMutability": "nonpayable",
      "type": "function"
    },
    {
      "inputs": [
        {
          "internalType": "address",
          "name": "token",
          "type": "address"
        }
      ],
      "name": "setTokenBase",
      "outputs": [],
      "stateMutability": "nonpayable",
      "type": "function"
    },
    {
      "inputs": [
        {
          "internalType": "address",
          "name": "treasury",
          "type": "address"
        }
      ],
      "name": "setTreasury",
      "outputs": [],
      "stateMutability": "nonpayable",
      "type": "function"
    },
    {
      "inputs": [
        {
          "internalType": "address",
          "name": "token0",
          "type": "address"
        },
        {
          "internalType": "address",
          "name": "token1",
          "type": "address"
        },
        {
          "internalType": "uint256",
          "name": "feeFactor",
          "type": "uint256"
        }
      ],
      "name": "setTreasuryFeeFactor",
      "outputs": [],
      "stateMutability": "nonpayable",
      "type": "function"
    }
  ],
  "bytecode": "0x60c060405234801561001057600080fd5b506040516124893803806124898339818101604052810190610032919061015e565b818073ffffffffffffffffffffffffffffffffffffffff1660808173ffffffffffffffffffffffffffffffffffffffff16815250505060016000819055508073ffffffffffffffffffffffffffffffffffffffff1660a08173ffffffffffffffffffffffffffffffffffffffff1681525050505061019e565b600080fd5b600073ffffffffffffffffffffffffffffffffffffffff82169050919050565b60006100db826100b0565b9050919050565b60006100ed826100d0565b9050919050565b6100fd816100e2565b811461010857600080fd5b50565b60008151905061011a816100f4565b92915050565b600061012b826100d0565b9050919050565b61013b81610120565b811461014657600080fd5b50565b60008151905061015881610132565b92915050565b60008060408385031215610175576101746100ab565b5b60006101838582860161010b565b925050602061019485828601610149565b9150509250929050565b60805160a05161227261021760003960008181610289015281816103cd0152818161040e015281816104690152818161052f0152818161055301528181610697015281816106d80152818161077d015281816107af01528181610a1c0152610abc0152600081816104450152610aee01526122726000f3fe608060405234801561001057600080fd5b50600436106100b45760003560e01c80636a97c0fe116100715780636a97c0fe1461016557806388235d101461018157806392547c381461019d578063ac9650d8146101b9578063bb789bd7146101e9578063f0f4426014610205576100b4565b80631dee7f3e146100b957806330a767c5146100d55780634a4a7b04146100f15780635eadca7e1461010f578063660d0d671461012b57806369ea868214610149575b600080fd5b6100d360048036038101906100ce9190611490565b610221565b005b6100ef60048036038101906100ea91906114f3565b61034d565b005b6100f9610443565b60405161010691906115a5565b60405180910390f35b610129600480360381019061012491906115c0565b610467565b005b61013361052d565b604051610140919061160e565b60405180910390f35b610163600480360381019061015e9190611490565b610551565b005b61017f600480360381019061017a91906114f3565b610617565b005b61019b600480360381019061019691906115c0565b61070d565b005b6101b760048036038101906101b291906115c0565b6107ad565b005b6101d360048036038101906101ce919061168e565b610873565b6040516101e0919061182d565b60405180910390f35b61020360048036038101906101fe91906115c0565b6109ac565b005b61021f600480360381019061021a9190611490565b610a4c565b005b600073ffffffffffffffffffffffffffffffffffffffff168173ffffffffffffffffffffffffffffffffffffffff1603610287576040517f58c52e4d00000000000000000000000000000000000000000000000000000000815260040160405180910390fd5b7f000000000000000000000000000000000000000000000000000000000000000073ffffffffffffffffffffffffffffffffffffffff1663ca446dd96040516020016102d2906118ac565b60405160208183030381529060405280519060200120836040518363ffffffff1660e01b81526004016103069291906118f4565b6020604051808303816000875af1158015610325573d6000803e3d6000fd5b505050506040513d601f19601f820116820180604052508101906103499190611932565b5050565b6103b060405160200161035f906119ab565b604051602081830303815290604052805190602001206040518060400160405280600d81526020017f434f4e4649475f4b454550455200000000000000000000000000000000000000815250610aec565b6103b8610bcf565b60006103c48484610c15565b905060006103f27f000000000000000000000000000000000000000000000000000000000000000083610cb3565b90506104078382610cc790919063ffffffff16565b90506104347f00000000000000000000000000000000000000000000000000000000000000008383610d45565b505061043e610e24565b505050565b7f000000000000000000000000000000000000000000000000000000000000000081565b7f000000000000000000000000000000000000000000000000000000000000000073ffffffffffffffffffffffffffffffffffffffff1663e2a4853a6040516020016104b290611a17565b60405160208183030381529060405280519060200120836040518363ffffffff1660e01b81526004016104e6929190611a46565b6020604051808303816000875af1158015610505573d6000803e3d6000fd5b505050506040513d601f19601f820116820180604052508101906105299190611a84565b5050565b7f000000000000000000000000000000000000000000000000000000000000000081565b7f000000000000000000000000000000000000000000000000000000000000000073ffffffffffffffffffffffffffffffffffffffff1663ca446dd960405160200161059c90611afd565b60405160208183030381529060405280519060200120836040518363ffffffff1660e01b81526004016105d09291906118f4565b6020604051808303816000875af11580156105ef573d6000803e3d6000fd5b505050506040513d601f19601f820116820180604052508101906106139190611932565b5050565b61067a604051602001610629906119ab565b604051602081830303815290604052805190602001206040518060400160405280600d81526020017f434f4e4649475f4b454550455200000000000000000000000000000000000000815250610aec565b610682610bcf565b600061068e8484610c15565b905060006106bc7f000000000000000000000000000000000000000000000000000000000000000083610cb3565b90506106d18382610e2e90919063ffffffff16565b90506106fe7f00000000000000000000000000000000000000000000000000000000000000008383610d45565b5050610708610e24565b505050565b61077060405160200161071f906119ab565b604051602081830303815290604052805190602001206040518060400160405280600d81526020017f434f4e4649475f4b454550455200000000000000000000000000000000000000815250610aec565b610778610bcf565b6107a27f000000000000000000000000000000000000000000000000000000000000000082610eac565b6107aa610e24565b50565b7f000000000000000000000000000000000000000000000000000000000000000073ffffffffffffffffffffffffffffffffffffffff1663e2a4853a6040516020016107f890611b69565b60405160208183030381529060405280519060200120836040518363ffffffff1660e01b815260040161082c929190611a46565b6020604051808303816000875af115801561084b573d6000803e3d6000fd5b505050506040513d601f19601f8201168201806040525081019061086f9190611a84565b5050565b60608282905067ffffffffffffffff81111561089257610891611b89565b5b6040519080825280602002602001820160405280156108c557816020015b60608152602001906001900390816108b05790505b50905060005b838390508110156109a5576000803073ffffffffffffffffffffffffffffffffffffffff1686868581811061090357610902611bb8565b5b90506020028101906109159190611bf6565b604051610923929190611c98565b600060405180830381855af49150503d806000811461095e576040519150601f19603f3d011682016040523d82523d6000602084013e610963565b606091505b5091509150816109775761097681610f53565b5b8084848151811061098b5761098a611bb8565b5b6020026020010181905250505080806001019150506108cb565b5092915050565b610a0f6040516020016109be906119ab565b604051602081830303815290604052805190602001206040518060400160405280600d81526020017f434f4e4649475f4b454550455200000000000000000000000000000000000000815250610aec565b610a17610bcf565b610a417f000000000000000000000000000000000000000000000000000000000000000082610fb4565b610a49610e24565b50565b610aaf604051602001610a5e906119ab565b604051602081830303815290604052805190602001206040518060400160405280600d81526020017f434f4e4649475f4b454550455200000000000000000000000000000000000000815250610aec565b610ab7610bcf565b610ae17f00000000000000000000000000000000000000000000000000000000000000008261105b565b610ae9610e24565b50565b7f000000000000000000000000000000000000000000000000000000000000000073ffffffffffffffffffffffffffffffffffffffff1663ac4ab3fb33846040518363ffffffff1660e01b8152600401610b47929190611cb1565b602060405180830381865afa158015610b64573d6000803e3d6000fd5b505050506040513d601f19601f82011682018060405250810190610b889190611d12565b610bcb5733816040517fa35b150b000000000000000000000000000000000000000000000000000000008152600401610bc2929190611d83565b60405180910390fd5b5050565b600260005403610c0b576040517f3ee5aeb500000000000000000000000000000000000000000000000000000000815260040160405180910390fd5b6002600081905550565b60008173ffffffffffffffffffffffffffffffffffffffff168373ffffffffffffffffffffffffffffffffffffffff1610610c51578183610c54565b82825b8093508194505050604051602001610c6b90611dff565b604051602081830303815290604052805190602001208383604051602001610c9593929190611e1f565b60405160208183030381529060405280519060200120905092915050565b6000610cbf8383611168565b905092915050565b600061ffff821115610d14578161ffff6040517f9d1ea70b000000000000000000000000000000000000000000000000000000008152600401610d0b929190611e56565b60405180910390fd5b604882901b7fffffffffffffffffffffffffffffffffffffffffff0000ffffffffffffffffff841617905092915050565b6000610d518484611246565b90508073ffffffffffffffffffffffffffffffffffffffff1663e2a4853a84604051602001610d7f90611ecb565b60405160208183030381529060405280519060200120604051602001610da6929190611eeb565b60405160208183030381529060405280519060200120846040518363ffffffff1660e01b8152600401610dda929190611a46565b6020604051808303816000875af1158015610df9573d6000803e3d6000fd5b505050506040513d601f19601f82011682018060405250810190610e1d9190611a84565b5050505050565b6001600081905550565b600061ffff821115610e7b578161ffff6040517f9d1ea70b000000000000000000000000000000000000000000000000000000008152600401610e72929190611e56565b60405180910390fd5b603882901b7fffffffffffffffffffffffffffffffffffffffffffffff0000ffffffffffffff841617905092915050565b8173ffffffffffffffffffffffffffffffffffffffff1663e2a4853a604051602001610ed790611f60565b60405160208183030381529060405280519060200120836040518363ffffffff1660e01b8152600401610f0b929190611a46565b6020604051808303816000875af1158015610f2a573d6000803e3d6000fd5b505050506040513d601f19601f82011682018060405250810190610f4e9190611a84565b505050565b600080610f5f83611337565b915091508015610fa657816040517f08c379a0000000000000000000000000000000000000000000000000000000008152600401610f9d9190611f80565b60405180910390fd5b610faf836113fe565b505050565b8173ffffffffffffffffffffffffffffffffffffffff1663e2a4853a604051602001610fdf90611fee565b60405160208183030381529060405280519060200120836040518363ffffffff1660e01b8152600401611013929190611a46565b6020604051808303816000875af1158015611032573d6000803e3d6000fd5b505050506040513d601f19601f820116820180604052508101906110569190611a84565b505050565b600073ffffffffffffffffffffffffffffffffffffffff168173ffffffffffffffffffffffffffffffffffffffff16036110c1576040517fcdcb50b400000000000000000000000000000000000000000000000000000000815260040160405180910390fd5b8173ffffffffffffffffffffffffffffffffffffffff1663ca446dd96040516020016110ec9061205a565b60405160208183030381529060405280519060200120836040518363ffffffff1660e01b81526004016111209291906118f4565b6020604051808303816000875af115801561113f573d6000803e3d6000fd5b505050506040513d601f19601f820116820180604052508101906111639190611932565b505050565b6000806111758484611246565b90508073ffffffffffffffffffffffffffffffffffffffff1663bd02d0f5846040516020016111a390611ecb565b604051602081830303815290604052805190602001206040516020016111ca929190611eeb565b604051602081830303815290604052805190602001206040518263ffffffff1660e01b81526004016111fc919061207a565b602060405180830381865afa158015611219573d6000803e3d6000fd5b505050506040513d601f19601f8201168201806040525081019061123d9190611a84565b91505092915050565b6000808390508073ffffffffffffffffffffffffffffffffffffffff166391d4403c604051602001611277906120e1565b60405160208183030381529060405280519060200120856040518363ffffffff1660e01b81526004016112ab929190611eeb565b602060405180830381865afa1580156112c8573d6000803e3d6000fd5b505050506040513d601f19601f820116820180604052508101906112ec9190611d12565b61132d57826040517f7357d91f000000000000000000000000000000000000000000000000000000008152600401611324919061207a565b60405180910390fd5b8091505092915050565b606060006044835110156113615760006040518060200160405280600081525090915091506113f9565b600061136c8461140b565b90506308c379a060e01b7bffffffffffffffffffffffffffffffffffffffffffffffffffffffff1916817bffffffffffffffffffffffffffffffffffffffffffffffffffffffff1916036113e057600484019350838060200190518101906113d491906121f3565b600192509250506113f9565b6000604051806020016040528060008152509092509250505b915091565b6000815190508060208301fd5b6000806020830151905080915050919050565b6000604051905090565b600080fd5b600080fd5b600073ffffffffffffffffffffffffffffffffffffffff82169050919050565b600061145d82611432565b9050919050565b61146d81611452565b811461147857600080fd5b50565b60008135905061148a81611464565b92915050565b6000602082840312156114a6576114a5611428565b5b60006114b48482850161147b565b91505092915050565b6000819050919050565b6114d0816114bd565b81146114db57600080fd5b50565b6000813590506114ed816114c7565b92915050565b60008060006060848603121561150c5761150b611428565b5b600061151a8682870161147b565b935050602061152b8682870161147b565b925050604061153c868287016114de565b9150509250925092565b6000819050919050565b600061156b61156661156184611432565b611546565b611432565b9050919050565b600061157d82611550565b9050919050565b600061158f82611572565b9050919050565b61159f81611584565b82525050565b60006020820190506115ba6000830184611596565b92915050565b6000602082840312156115d6576115d5611428565b5b60006115e4848285016114de565b91505092915050565b60006115f882611572565b9050919050565b611608816115ed565b82525050565b600060208201905061162360008301846115ff565b92915050565b600080fd5b600080fd5b600080fd5b60008083601f84011261164e5761164d611629565b5b8235905067ffffffffffffffff81111561166b5761166a61162e565b5b60208301915083602082028301111561168757611686611633565b5b9250929050565b600080602083850312156116a5576116a4611428565b5b600083013567ffffffffffffffff8111156116c3576116c261142d565b5b6116cf85828601611638565b92509250509250929050565b600081519050919050565b600082825260208201905092915050565b6000819050602082019050919050565b600081519050919050565b600082825260208201905092915050565b60005b83811015611741578082015181840152602081019050611726565b60008484015250505050565b6000601f19601f8301169050919050565b600061176982611707565b6117738185611712565b9350611783818560208601611723565b61178c8161174d565b840191505092915050565b60006117a3838361175e565b905092915050565b6000602082019050919050565b60006117c3826116db565b6117cd81856116e6565b9350836020820285016117df856116f7565b8060005b8581101561181b57848403895281516117fc8582611797565b9450611807836117ab565b925060208a019950506001810190506117e3565b50829750879550505050505092915050565b6000602082019050818103600083015261184781846117b8565b905092915050565b600082825260208201905092915050565b7f544f4b454e5f4241534500000000000000000000000000000000000000000000600082015250565b6000611896600a8361184f565b91506118a182611860565b602082019050919050565b600060208201905081810360008301526118c581611889565b9050919050565b6000819050919050565b6118df816118cc565b82525050565b6118ee81611452565b82525050565b600060408201905061190960008301856118d6565b61191660208301846118e5565b9392505050565b60008151905061192c81611464565b92915050565b60006020828403121561194857611947611428565b5b60006119568482850161191d565b91505092915050565b7f434f4e4649475f4b454550455200000000000000000000000000000000000000600082015250565b6000611995600d8361184f565b91506119a08261195f565b602082019050919050565b600060208201905081810360008301526119c481611988565b9050919050565b7f44454641554c545f504f4f4c5f434f4e46494755524154494f4e000000000000600082015250565b6000611a01601a8361184f565b9150611a0c826119cb565b602082019050919050565b60006020820190508181036000830152611a30816119f4565b9050919050565b611a40816114bd565b82525050565b6000604082019050611a5b60008301856118d6565b611a686020830184611a37565b9392505050565b600081519050611a7e816114c7565b92915050565b600060208284031215611a9a57611a99611428565b5b6000611aa884828501611a6f565b91505092915050565b7f44454641554c545f494e5445524553545f524154455f53545241544547590000600082015250565b6000611ae7601e8361184f565b9150611af282611ab1565b602082019050919050565b60006020820190508181036000830152611b1681611ada565b9050919050565b7f53484f52545f4c49515549444954595f5448524553484f4c4400000000000000600082015250565b6000611b5360198361184f565b9150611b5e82611b1d565b602082019050919050565b60006020820190508181036000830152611b8281611b46565b9050919050565b7f4e487b7100000000000000000000000000000000000000000000000000000000600052604160045260246000fd5b7f4e487b7100000000000000000000000000000000000000000000000000000000600052603260045260246000fd5b600080fd5b600080fd5b600080fd5b60008083356001602003843603038112611c1357611c12611be7565b5b80840192508235915067ffffffffffffffff821115611c3557611c34611bec565b5b602083019250600182023603831315611c5157611c50611bf1565b5b509250929050565b600081905092915050565b82818337600083830152505050565b6000611c7f8385611c59565b9350611c8c838584611c64565b82840190509392505050565b6000611ca5828486611c73565b91508190509392505050565b6000604082019050611cc660008301856118e5565b611cd360208301846118d6565b9392505050565b60008115159050919050565b611cef81611cda565b8114611cfa57600080fd5b50565b600081519050611d0c81611ce6565b92915050565b600060208284031215611d2857611d27611428565b5b6000611d3684828501611cfd565b91505092915050565b600081519050919050565b6000611d5582611d3f565b611d5f818561184f565b9350611d6f818560208601611723565b611d788161174d565b840191505092915050565b6000604082019050611d9860008301856118e5565b8181036020830152611daa8184611d4a565b90509392505050565b7f504f4f4c00000000000000000000000000000000000000000000000000000000600082015250565b6000611de960048361184f565b9150611df482611db3565b602082019050919050565b60006020820190508181036000830152611e1881611ddc565b9050919050565b6000606082019050611e3460008301866118d6565b611e4160208301856118e5565b611e4e60408301846118e5565b949350505050565b6000604082019050611e6b6000830185611a37565b611e786020830184611a37565b9392505050565b7f504f4f4c5f434f4e46494755524154494f4e0000000000000000000000000000600082015250565b6000611eb560128361184f565b9150611ec082611e7f565b602082019050919050565b60006020820190508181036000830152611ee481611ea8565b9050919050565b6000604082019050611f0060008301856118d6565b611f0d60208301846118d6565b9392505050565b7f4d415247494e5f4c4556454c4c5f5448524553484f4c44000000000000000000600082015250565b6000611f4a60178361184f565b9150611f5582611f14565b602082019050919050565b60006020820190508181036000830152611f7981611f3d565b9050919050565b60006020820190508181036000830152611f9a8184611d4a565b905092915050565b7f444542545f5341464554595f464143544f520000000000000000000000000000600082015250565b6000611fd860128361184f565b9150611fe382611fa2565b602082019050919050565b6000602082019050818103600083015261200781611fcb565b9050919050565b7f5452454153555259000000000000000000000000000000000000000000000000600082015250565b600061204460088361184f565b915061204f8261200e565b602082019050919050565b6000602082019050818103600083015261207381612037565b9050919050565b600060208201905061208f60008301846118d6565b92915050565b7f504f4f4c5f4c4953540000000000000000000000000000000000000000000000600082015250565b60006120cb60098361184f565b91506120d682612095565b602082019050919050565b600060208201905081810360008301526120fa816120be565b9050919050565b600080fd5b61210f8261174d565b810181811067ffffffffffffffff8211171561212e5761212d611b89565b5b80604052505050565b600061214161141e565b905061214d8282612106565b919050565b600067ffffffffffffffff82111561216d5761216c611b89565b5b6121768261174d565b9050602081019050919050565b600061219661219184612152565b612137565b9050828152602081018484840111156121b2576121b1612101565b5b6121bd848285611723565b509392505050565b600082601f8301126121da576121d9611629565b5b81516121ea848260208601612183565b91505092915050565b60006020828403121561220957612208611428565b5b600082015167ffffffffffffffff8111156122275761222661142d565b5b612233848285016121c5565b9150509291505056fea26469706673582212207e2938c5799236b88d09d1b05d3d161c7f88a7dbbd4d8db1a2ab42d10d9dad9f64736f6c634300081c0033",
  "linkReferences": {},
  "deployedLinkReferences": {}
}