{
  "_format": "hh-sol-artifact-1",
  "contractName": "Config",
  "sourceName": "contracts/config/Config.sol",
  "abi": [
    {
      "inputs": [
        {
          "internalType": "contract RoleStore",
          "name": "_roleStore",
          "type": "address"
        },
        {
          "internalType": "contract DataStore",
          "name": "_dataStore",
          "type": "address"
        }
      ],
      "stateMutability": "nonpayable",
      "type": "constructor"
    },
    {
      "inputs": [],
      "name": "EmptyTokenBase",
      "type": "error"
    },
    {
      "inputs": [
        {
          "internalType": "uint256",
          "name": "feeFactor",
          "type": "uint256"
        },
        {
          "internalType": "uint256",
          "name": "MaxValidFeeFactor",
          "type": "uint256"
        }
      ],
      "name": "InvalidFeeFactor",
      "type": "error"
    },
    {
      "inputs": [],
      "name": "ReentrancyGuardReentrantCall",
      "type": "error"
    },
    {
      "inputs": [
        {
          "internalType": "address",
          "name": "msgSender",
          "type": "address"
        },
        {
          "internalType": "string",
          "name": "role",
          "type": "string"
        }
      ],
      "name": "Unauthorized",
      "type": "error"
    },
    {
      "inputs": [],
      "name": "dataStore",
      "outputs": [
        {
          "internalType": "contract DataStore",
          "name": "",
          "type": "address"
        }
      ],
      "stateMutability": "view",
      "type": "function"
    },
    {
      "inputs": [
        {
          "internalType": "bytes[]",
          "name": "data",
          "type": "bytes[]"
        }
      ],
      "name": "multicall",
      "outputs": [
        {
          "internalType": "bytes[]",
          "name": "results",
          "type": "bytes[]"
        }
      ],
      "stateMutability": "nonpayable",
      "type": "function"
    },
    {
      "inputs": [],
      "name": "roleStore",
      "outputs": [
        {
          "internalType": "contract RoleStore",
          "name": "",
          "type": "address"
        }
      ],
      "stateMutability": "view",
      "type": "function"
    },
    {
      "inputs": [
        {
          "internalType": "uint256",
          "name": "debtSaftyFactor",
          "type": "uint256"
        }
      ],
      "name": "setDebtSafetyFactor",
      "outputs": [],
      "stateMutability": "nonpayable",
      "type": "function"
    },
    {
      "inputs": [
        {
          "internalType": "address",
          "name": "interestRateStrategy",
          "type": "address"
        }
      ],
      "name": "setDefaultInterestRateStrategy",
      "outputs": [],
      "stateMutability": "nonpayable",
      "type": "function"
    },
    {
      "inputs": [
        {
          "internalType": "uint256",
          "name": "configuration",
          "type": "uint256"
        }
      ],
      "name": "setDefaultPoolConfiguration",
      "outputs": [],
      "stateMutability": "nonpayable",
      "type": "function"
    },
    {
      "inputs": [
        {
          "internalType": "uint256",
          "name": "threshold",
          "type": "uint256"
        }
      ],
      "name": "setMarginLevelThreshold",
      "outputs": [],
      "stateMutability": "nonpayable",
      "type": "function"
    },
    {
      "inputs": [
        {
          "internalType": "address",
          "name": "token0",
          "type": "address"
        },
        {
          "internalType": "address",
          "name": "token1",
          "type": "address"
        },
        {
          "internalType": "uint256",
          "name": "feeFactor",
          "type": "uint256"
        }
      ],
      "name": "setSwapFeeFactor",
      "outputs": [],
      "stateMutability": "nonpayable",
      "type": "function"
    },
    {
      "inputs": [
        {
          "internalType": "address",
          "name": "token",
          "type": "address"
        }
      ],
      "name": "setTokenBase",
      "outputs": [],
      "stateMutability": "nonpayable",
      "type": "function"
    },
    {
      "inputs": [
        {
          "internalType": "address",
          "name": "treasury",
          "type": "address"
        }
      ],
      "name": "setTreasury",
      "outputs": [],
      "stateMutability": "nonpayable",
      "type": "function"
    },
    {
      "inputs": [
        {
          "internalType": "address",
          "name": "token0",
          "type": "address"
        },
        {
          "internalType": "address",
          "name": "token1",
          "type": "address"
        },
        {
          "internalType": "uint256",
          "name": "feeFactor",
          "type": "uint256"
        }
      ],
      "name": "setTreasuryFeeFactor",
      "outputs": [],
      "stateMutability": "nonpayable",
      "type": "function"
    }
  ],
  "bytecode": "0x60c060405234801561001057600080fd5b50604051611f48380380611f488339818101604052810190610032919061015e565b818073ffffffffffffffffffffffffffffffffffffffff1660808173ffffffffffffffffffffffffffffffffffffffff16815250505060016000819055508073ffffffffffffffffffffffffffffffffffffffff1660a08173ffffffffffffffffffffffffffffffffffffffff1681525050505061019e565b600080fd5b600073ffffffffffffffffffffffffffffffffffffffff82169050919050565b60006100db826100b0565b9050919050565b60006100ed826100d0565b9050919050565b6100fd816100e2565b811461010857600080fd5b50565b60008151905061011a816100f4565b92915050565b600061012b826100d0565b9050919050565b61013b81610120565b811461014657600080fd5b50565b60008151905061015881610132565b92915050565b60008060408385031215610175576101746100ab565b5b60006101838582860161010b565b925050602061019485828601610149565b9150509250929050565b60805160a051611d3861021060003960008181610262015281816103bd0152818161046e01528181610512015281816105d8015281816105fc01528181610757015281816108080152818161090d01528181610b450152610c440152600081816104ee0152610cbe0152611d386000f3fe608060405234801561001057600080fd5b50600436106100a95760003560e01c806369ea86821161007157806369ea86821461013e5780636a97c0fe1461015a57806388235d1014610176578063ac9650d814610192578063bb789bd7146101c2578063f0f44260146101de576100a9565b80631dee7f3e146100ae57806330a767c5146100ca5780634a4a7b04146100e65780635eadca7e14610104578063660d0d6714610120575b600080fd5b6100c860048036038101906100c39190611143565b6101fa565b005b6100e460048036038101906100df91906111a6565b610326565b005b6100ee6104ec565b6040516100fb9190611258565b60405180910390f35b61011e60048036038101906101199190611273565b610510565b005b6101286105d6565b60405161013591906112c1565b60405180910390f35b61015860048036038101906101539190611143565b6105fa565b005b610174600480360381019061016f91906111a6565b6106c0565b005b610190600480360381019061018b9190611273565b610886565b005b6101ac60048036038101906101a79190611341565b610985565b6040516101b991906114e0565b60405180910390f35b6101dc60048036038101906101d79190611273565b610abe565b005b6101f860048036038101906101f39190611143565b610bbd565b005b600073ffffffffffffffffffffffffffffffffffffffff168173ffffffffffffffffffffffffffffffffffffffff1603610260576040517f58c52e4d00000000000000000000000000000000000000000000000000000000815260040160405180910390fd5b7f000000000000000000000000000000000000000000000000000000000000000073ffffffffffffffffffffffffffffffffffffffff1663ca446dd96040516020016102ab9061155f565b60405160208183030381529060405280519060200120836040518363ffffffff1660e01b81526004016102df9291906115a7565b6020604051808303816000875af11580156102fe573d6000803e3d6000fd5b505050506040513d601f19601f8201168201806040525081019061032291906115e5565b5050565b6103896040516020016103389061165e565b604051602081830303815290604052805190602001206040518060400160405280600d81526020017f434f4e4649475f4b454550455200000000000000000000000000000000000000815250610cbc565b610391610d9f565b600061039d8484610de5565b9050600073__$e0022d6f389ac14ff1ce1dc57a4018d0a3$__63c10389b37f0000000000000000000000000000000000000000000000000000000000000000846040518363ffffffff1660e01b81526004016103fa92919061169c565b602060405180830381865af4158015610417573d6000803e3d6000fd5b505050506040513d601f19601f8201168201806040525081019061043b91906116da565b90506104508382610e8390919063ffffffff16565b905073__$e0022d6f389ac14ff1ce1dc57a4018d0a3$__63a2c59b127f000000000000000000000000000000000000000000000000000000000000000084846040518463ffffffff1660e01b81526004016104ad93929190611716565b60006040518083038186803b1580156104c557600080fd5b505af41580156104d9573d6000803e3d6000fd5b5050505050506104e7610f01565b505050565b7f000000000000000000000000000000000000000000000000000000000000000081565b7f000000000000000000000000000000000000000000000000000000000000000073ffffffffffffffffffffffffffffffffffffffff1663e2a4853a60405160200161055b90611799565b60405160208183030381529060405280519060200120836040518363ffffffff1660e01b815260040161058f9291906117c8565b6020604051808303816000875af11580156105ae573d6000803e3d6000fd5b505050506040513d601f19601f820116820180604052508101906105d291906116da565b5050565b7f000000000000000000000000000000000000000000000000000000000000000081565b7f000000000000000000000000000000000000000000000000000000000000000073ffffffffffffffffffffffffffffffffffffffff1663ca446dd96040516020016106459061183d565b60405160208183030381529060405280519060200120836040518363ffffffff1660e01b81526004016106799291906115a7565b6020604051808303816000875af1158015610698573d6000803e3d6000fd5b505050506040513d601f19601f820116820180604052508101906106bc91906115e5565b5050565b6107236040516020016106d29061165e565b604051602081830303815290604052805190602001206040518060400160405280600d81526020017f434f4e4649475f4b454550455200000000000000000000000000000000000000815250610cbc565b61072b610d9f565b60006107378484610de5565b9050600073__$e0022d6f389ac14ff1ce1dc57a4018d0a3$__63c10389b37f0000000000000000000000000000000000000000000000000000000000000000846040518363ffffffff1660e01b815260040161079492919061169c565b602060405180830381865af41580156107b1573d6000803e3d6000fd5b505050506040513d601f19601f820116820180604052508101906107d591906116da565b90506107ea8382610f0b90919063ffffffff16565b905073__$e0022d6f389ac14ff1ce1dc57a4018d0a3$__63a2c59b127f000000000000000000000000000000000000000000000000000000000000000084846040518463ffffffff1660e01b815260040161084793929190611716565b60006040518083038186803b15801561085f57600080fd5b505af4158015610873573d6000803e3d6000fd5b505050505050610881610f01565b505050565b6108e96040516020016108989061165e565b604051602081830303815290604052805190602001206040518060400160405280600d81526020017f434f4e4649475f4b454550455200000000000000000000000000000000000000815250610cbc565b6108f1610d9f565b73__$3d31b232fb363902662fbc281b11ab3357$__632d0bc6fc7f0000000000000000000000000000000000000000000000000000000000000000836040518363ffffffff1660e01b815260040161094a92919061185d565b60006040518083038186803b15801561096257600080fd5b505af4158015610976573d6000803e3d6000fd5b50505050610982610f01565b50565b60608282905067ffffffffffffffff8111156109a4576109a3611886565b5b6040519080825280602002602001820160405280156109d757816020015b60608152602001906001900390816109c25790505b50905060005b83839050811015610ab7576000803073ffffffffffffffffffffffffffffffffffffffff16868685818110610a1557610a146118b5565b5b9050602002810190610a2791906118f3565b604051610a35929190611995565b600060405180830381855af49150503d8060008114610a70576040519150601f19603f3d011682016040523d82523d6000602084013e610a75565b606091505b509150915081610a8957610a8881610f89565b5b80848481518110610a9d57610a9c6118b5565b5b6020026020010181905250505080806001019150506109dd565b5092915050565b610b21604051602001610ad09061165e565b604051602081830303815290604052805190602001206040518060400160405280600d81526020017f434f4e4649475f4b454550455200000000000000000000000000000000000000815250610cbc565b610b29610d9f565b73__$3d31b232fb363902662fbc281b11ab3357$__639820aad67f0000000000000000000000000000000000000000000000000000000000000000836040518363ffffffff1660e01b8152600401610b8292919061185d565b60006040518083038186803b158015610b9a57600080fd5b505af4158015610bae573d6000803e3d6000fd5b50505050610bba610f01565b50565b610c20604051602001610bcf9061165e565b604051602081830303815290604052805190602001206040518060400160405280600d81526020017f434f4e4649475f4b454550455200000000000000000000000000000000000000815250610cbc565b610c28610d9f565b73__$e88f7802466f52242b4297337cdc57c299$__63adfe08707f0000000000000000000000000000000000000000000000000000000000000000836040518363ffffffff1660e01b8152600401610c819291906119ae565b60006040518083038186803b158015610c9957600080fd5b505af4158015610cad573d6000803e3d6000fd5b50505050610cb9610f01565b50565b7f000000000000000000000000000000000000000000000000000000000000000073ffffffffffffffffffffffffffffffffffffffff1663ac4ab3fb33846040518363ffffffff1660e01b8152600401610d179291906119d7565b602060405180830381865afa158015610d34573d6000803e3d6000fd5b505050506040513d601f19601f82011682018060405250810190610d589190611a38565b610d9b5733816040517fa35b150b000000000000000000000000000000000000000000000000000000008152600401610d92929190611aa9565b60405180910390fd5b5050565b600260005403610ddb576040517f3ee5aeb500000000000000000000000000000000000000000000000000000000815260040160405180910390fd5b6002600081905550565b60008173ffffffffffffffffffffffffffffffffffffffff168373ffffffffffffffffffffffffffffffffffffffff1610610e21578183610e24565b82825b8093508194505050604051602001610e3b90611b25565b604051602081830303815290604052805190602001208383604051602001610e6593929190611b45565b60405160208183030381529060405280519060200120905092915050565b600061ffff821115610ed0578161ffff6040517f9d1ea70b000000000000000000000000000000000000000000000000000000008152600401610ec7929190611b7c565b60405180910390fd5b604882901b7fffffffffffffffffffffffffffffffffffffffffff0000ffffffffffffffffff841617905092915050565b6001600081905550565b600061ffff821115610f58578161ffff6040517f9d1ea70b000000000000000000000000000000000000000000000000000000008152600401610f4f929190611b7c565b60405180910390fd5b603882901b7fffffffffffffffffffffffffffffffffffffffffffffff0000ffffffffffffff841617905092915050565b600080610f9583610fea565b915091508015610fdc57816040517f08c379a0000000000000000000000000000000000000000000000000000000008152600401610fd39190611ba5565b60405180910390fd5b610fe5836110b1565b505050565b606060006044835110156110145760006040518060200160405280600081525090915091506110ac565b600061101f846110be565b90506308c379a060e01b7bffffffffffffffffffffffffffffffffffffffffffffffffffffffff1916817bffffffffffffffffffffffffffffffffffffffffffffffffffffffff19160361109357600484019350838060200190518101906110879190611cb9565b600192509250506110ac565b6000604051806020016040528060008152509092509250505b915091565b6000815190508060208301fd5b6000806020830151905080915050919050565b6000604051905090565b600080fd5b600080fd5b600073ffffffffffffffffffffffffffffffffffffffff82169050919050565b6000611110826110e5565b9050919050565b61112081611105565b811461112b57600080fd5b50565b60008135905061113d81611117565b92915050565b600060208284031215611159576111586110db565b5b60006111678482850161112e565b91505092915050565b6000819050919050565b61118381611170565b811461118e57600080fd5b50565b6000813590506111a08161117a565b92915050565b6000806000606084860312156111bf576111be6110db565b5b60006111cd8682870161112e565b93505060206111de8682870161112e565b92505060406111ef86828701611191565b9150509250925092565b6000819050919050565b600061121e611219611214846110e5565b6111f9565b6110e5565b9050919050565b600061123082611203565b9050919050565b600061124282611225565b9050919050565b61125281611237565b82525050565b600060208201905061126d6000830184611249565b92915050565b600060208284031215611289576112886110db565b5b600061129784828501611191565b91505092915050565b60006112ab82611225565b9050919050565b6112bb816112a0565b82525050565b60006020820190506112d660008301846112b2565b92915050565b600080fd5b600080fd5b600080fd5b60008083601f840112611301576113006112dc565b5b8235905067ffffffffffffffff81111561131e5761131d6112e1565b5b60208301915083602082028301111561133a576113396112e6565b5b9250929050565b60008060208385031215611358576113576110db565b5b600083013567ffffffffffffffff811115611376576113756110e0565b5b611382858286016112eb565b92509250509250929050565b600081519050919050565b600082825260208201905092915050565b6000819050602082019050919050565b600081519050919050565b600082825260208201905092915050565b60005b838110156113f45780820151818401526020810190506113d9565b60008484015250505050565b6000601f19601f8301169050919050565b600061141c826113ba565b61142681856113c5565b93506114368185602086016113d6565b61143f81611400565b840191505092915050565b60006114568383611411565b905092915050565b6000602082019050919050565b60006114768261138e565b6114808185611399565b935083602082028501611492856113aa565b8060005b858110156114ce57848403895281516114af858261144a565b94506114ba8361145e565b925060208a01995050600181019050611496565b50829750879550505050505092915050565b600060208201905081810360008301526114fa818461146b565b905092915050565b600082825260208201905092915050565b7f544f4b454e5f4241534500000000000000000000000000000000000000000000600082015250565b6000611549600a83611502565b915061155482611513565b602082019050919050565b600060208201905081810360008301526115788161153c565b9050919050565b6000819050919050565b6115928161157f565b82525050565b6115a181611105565b82525050565b60006040820190506115bc6000830185611589565b6115c96020830184611598565b9392505050565b6000815190506115df81611117565b92915050565b6000602082840312156115fb576115fa6110db565b5b6000611609848285016115d0565b91505092915050565b7f434f4e4649475f4b454550455200000000000000000000000000000000000000600082015250565b6000611648600d83611502565b915061165382611612565b602082019050919050565b600060208201905081810360008301526116778161163b565b9050919050565b61168781611105565b82525050565b6116968161157f565b82525050565b60006040820190506116b1600083018561167e565b6116be602083018461168d565b9392505050565b6000815190506116d48161117a565b92915050565b6000602082840312156116f0576116ef6110db565b5b60006116fe848285016116c5565b91505092915050565b61171081611170565b82525050565b600060608201905061172b600083018661167e565b611738602083018561168d565b6117456040830184611707565b949350505050565b7f44454641554c545f504f4f4c5f434f4e46494755524154494f4e000000000000600082015250565b6000611783601a83611502565b915061178e8261174d565b602082019050919050565b600060208201905081810360008301526117b281611776565b9050919050565b6117c281611170565b82525050565b60006040820190506117dd6000830185611589565b6117ea60208301846117b9565b9392505050565b7f44454641554c545f494e5445524553545f524154455f53545241544547590000600082015250565b6000611827601e83611502565b9150611832826117f1565b602082019050919050565b600060208201905081810360008301526118568161181a565b9050919050565b6000604082019050611872600083018561167e565b61187f6020830184611707565b9392505050565b7f4e487b7100000000000000000000000000000000000000000000000000000000600052604160045260246000fd5b7f4e487b7100000000000000000000000000000000000000000000000000000000600052603260045260246000fd5b600080fd5b600080fd5b600080fd5b600080833560016020038436030381126119105761190f6118e4565b5b80840192508235915067ffffffffffffffff821115611932576119316118e9565b5b60208301925060018202360383131561194e5761194d6118ee565b5b509250929050565b600081905092915050565b82818337600083830152505050565b600061197c8385611956565b9350611989838584611961565b82840190509392505050565b60006119a2828486611970565b91508190509392505050565b60006040820190506119c3600083018561167e565b6119d0602083018461167e565b9392505050565b60006040820190506119ec6000830185611598565b6119f96020830184611589565b9392505050565b60008115159050919050565b611a1581611a00565b8114611a2057600080fd5b50565b600081519050611a3281611a0c565b92915050565b600060208284031215611a4e57611a4d6110db565b5b6000611a5c84828501611a23565b91505092915050565b600081519050919050565b6000611a7b82611a65565b611a858185611502565b9350611a958185602086016113d6565b611a9e81611400565b840191505092915050565b6000604082019050611abe6000830185611598565b8181036020830152611ad08184611a70565b90509392505050565b7f504f4f4c00000000000000000000000000000000000000000000000000000000600082015250565b6000611b0f600483611502565b9150611b1a82611ad9565b602082019050919050565b60006020820190508181036000830152611b3e81611b02565b9050919050565b6000606082019050611b5a6000830186611589565b611b676020830185611598565b611b746040830184611598565b949350505050565b6000604082019050611b9160008301856117b9565b611b9e60208301846117b9565b9392505050565b60006020820190508181036000830152611bbf8184611a70565b905092915050565b600080fd5b611bd582611400565b810181811067ffffffffffffffff82111715611bf457611bf3611886565b5b80604052505050565b6000611c076110d1565b9050611c138282611bcc565b919050565b600067ffffffffffffffff821115611c3357611c32611886565b5b611c3c82611400565b9050602081019050919050565b6000611c5c611c5784611c18565b611bfd565b905082815260208101848484011115611c7857611c77611bc7565b5b611c838482856113d6565b509392505050565b600082601f830112611ca057611c9f6112dc565b5b8151611cb0848260208601611c49565b91505092915050565b600060208284031215611ccf57611cce6110db565b5b600082015167ffffffffffffffff811115611ced57611cec6110e0565b5b611cf984828501611c8b565b9150509291505056fea2646970667358221220bfe62ca4442f03d0af42a4be551702739eb4c11e8253d5081820a13215de2c7764736f6c634300081b0033",
  "linkReferences": {
    "contracts/fee/FeeStoreUtils.sol": {
      "FeeStoreUtils": [
        {
          "length": 20,
          "start": 3642
        }
      ]
    },
    "contracts/pool/PoolStoreUtils.sol": {
      "PoolStoreUtils": [
        {
          "length": 20,
          "start": 1459
        },
        {
          "length": 20,
          "start": 1636
        },
        {
          "length": 20,
          "start": 2381
        },
        {
          "length": 20,
          "start": 2558
        }
      ]
    },
    "contracts/position/PositionStoreUtils.sol": {
      "PositionStoreUtils": [
        {
          "length": 20,
          "start": 2819
        },
        {
          "length": 20,
          "start": 3387
        }
      ]
    }
  },
  "deployedLinkReferences": {
    "contracts/fee/FeeStoreUtils.sol": {
      "FeeStoreUtils": [
        {
          "length": 20,
          "start": 3114
        }
      ]
    },
    "contracts/pool/PoolStoreUtils.sol": {
      "PoolStoreUtils": [
        {
          "length": 20,
          "start": 931
        },
        {
          "length": 20,
          "start": 1108
        },
        {
          "length": 20,
          "start": 1853
        },
        {
          "length": 20,
          "start": 2030
        }
      ]
    },
    "contracts/position/PositionStoreUtils.sol": {
      "PositionStoreUtils": [
        {
          "length": 20,
          "start": 2291
        },
        {
          "length": 20,
          "start": 2859
        }
      ]
    }
  }
}