{
  "_format": "hh-sol-artifact-1",
  "contractName": "Config",
  "sourceName": "contracts/config/Config.sol",
  "abi": [
    {
      "inputs": [
        {
          "internalType": "contract RoleStore",
          "name": "_roleStore",
          "type": "address"
        },
        {
          "internalType": "contract DataStore",
          "name": "_dataStore",
          "type": "address"
        }
      ],
      "stateMutability": "nonpayable",
      "type": "constructor"
    },
    {
      "inputs": [
        {
          "internalType": "bytes32",
          "name": "key",
          "type": "bytes32"
        }
      ],
      "name": "EmptyPool",
      "type": "error"
    },
    {
      "inputs": [],
      "name": "EmptyTokenBase",
      "type": "error"
    },
    {
      "inputs": [],
      "name": "EmptyTreasury",
      "type": "error"
    },
    {
      "inputs": [
        {
          "internalType": "uint256",
          "name": "feeFactor",
          "type": "uint256"
        },
        {
          "internalType": "uint256",
          "name": "MaxValidFeeFactor",
          "type": "uint256"
        }
      ],
      "name": "InvalidFeeFactor",
      "type": "error"
    },
    {
      "inputs": [],
      "name": "ReentrancyGuardReentrantCall",
      "type": "error"
    },
    {
      "inputs": [
        {
          "internalType": "address",
          "name": "msgSender",
          "type": "address"
        },
        {
          "internalType": "string",
          "name": "role",
          "type": "string"
        }
      ],
      "name": "Unauthorized",
      "type": "error"
    },
    {
      "inputs": [],
      "name": "dataStore",
      "outputs": [
        {
          "internalType": "contract DataStore",
          "name": "",
          "type": "address"
        }
      ],
      "stateMutability": "view",
      "type": "function"
    },
    {
      "inputs": [
        {
          "internalType": "bytes[]",
          "name": "data",
          "type": "bytes[]"
        }
      ],
      "name": "multicall",
      "outputs": [
        {
          "internalType": "bytes[]",
          "name": "results",
          "type": "bytes[]"
        }
      ],
      "stateMutability": "nonpayable",
      "type": "function"
    },
    {
      "inputs": [],
      "name": "roleStore",
      "outputs": [
        {
          "internalType": "contract RoleStore",
          "name": "",
          "type": "address"
        }
      ],
      "stateMutability": "view",
      "type": "function"
    },
    {
      "inputs": [
        {
          "internalType": "uint256",
          "name": "debtSaftyFactor",
          "type": "uint256"
        }
      ],
      "name": "setDebtSafetyFactor",
      "outputs": [],
      "stateMutability": "nonpayable",
      "type": "function"
    },
    {
      "inputs": [
        {
          "internalType": "address",
          "name": "interestRateStrategy",
          "type": "address"
        }
      ],
      "name": "setDefaultInterestRateStrategy",
      "outputs": [],
      "stateMutability": "nonpayable",
      "type": "function"
    },
    {
      "inputs": [
        {
          "internalType": "uint256",
          "name": "configuration",
          "type": "uint256"
        }
      ],
      "name": "setDefaultPoolConfiguration",
      "outputs": [],
      "stateMutability": "nonpayable",
      "type": "function"
    },
    {
      "inputs": [
        {
          "internalType": "uint256",
          "name": "liquidationFee",
          "type": "uint256"
        }
      ],
      "name": "setLiquidationFee",
      "outputs": [],
      "stateMutability": "nonpayable",
      "type": "function"
    },
    {
      "inputs": [
        {
          "internalType": "uint256",
          "name": "threshold",
          "type": "uint256"
        }
      ],
      "name": "setMarginLevelThreshold",
      "outputs": [],
      "stateMutability": "nonpayable",
      "type": "function"
    },
    {
      "inputs": [
        {
          "internalType": "uint256",
          "name": "maxBorrowRate",
          "type": "uint256"
        }
      ],
      "name": "setMaxBorrowRate",
      "outputs": [],
      "stateMutability": "nonpayable",
      "type": "function"
    },
    {
      "inputs": [
        {
          "internalType": "uint256",
          "name": "shortLiquidityThreshold",
          "type": "uint256"
        }
      ],
      "name": "setShortLiquidityThreshold",
      "outputs": [],
      "stateMutability": "nonpayable",
      "type": "function"
    },
    {
      "inputs": [
        {
          "internalType": "address",
          "name": "token0",
          "type": "address"
        },
        {
          "internalType": "address",
          "name": "token1",
          "type": "address"
        },
        {
          "internalType": "uint256",
          "name": "feeFactor",
          "type": "uint256"
        }
      ],
      "name": "setSwapFeeFactor",
      "outputs": [],
      "stateMutability": "nonpayable",
      "type": "function"
    },
    {
      "inputs": [
        {
          "internalType": "address",
          "name": "token",
          "type": "address"
        }
      ],
      "name": "setTokenBase",
      "outputs": [],
      "stateMutability": "nonpayable",
      "type": "function"
    },
    {
      "inputs": [
        {
          "internalType": "address",
          "name": "treasury",
          "type": "address"
        }
      ],
      "name": "setTreasury",
      "outputs": [],
      "stateMutability": "nonpayable",
      "type": "function"
    },
    {
      "inputs": [
        {
          "internalType": "address",
          "name": "token0",
          "type": "address"
        },
        {
          "internalType": "address",
          "name": "token1",
          "type": "address"
        },
        {
          "internalType": "uint256",
          "name": "feeFactor",
          "type": "uint256"
        }
      ],
      "name": "setTreasuryFeeFactor",
      "outputs": [],
      "stateMutability": "nonpayable",
      "type": "function"
    }
  ],
  "bytecode": "0x60c060405234801561001057600080fd5b506040516127ea3803806127ea8339818101604052810190610032919061015e565b818073ffffffffffffffffffffffffffffffffffffffff1660808173ffffffffffffffffffffffffffffffffffffffff16815250505060016000819055508073ffffffffffffffffffffffffffffffffffffffff1660a08173ffffffffffffffffffffffffffffffffffffffff1681525050505061019e565b600080fd5b600073ffffffffffffffffffffffffffffffffffffffff82169050919050565b60006100db826100b0565b9050919050565b60006100ed826100d0565b9050919050565b6100fd816100e2565b811461010857600080fd5b50565b60008151905061011a816100f4565b92915050565b600061012b826100d0565b9050919050565b61013b81610120565b811461014657600080fd5b50565b60008151905061015881610132565b92915050565b60008060408385031215610175576101746100ab565b5b60006101838582860161010b565b925050602061019485828601610149565b9150509250929050565b60805160a0516125c5610225600039600081816102f70152818161043b0152818161047c015281816104d70152818161059d0152818161066301528181610687015281816107cb0152818161080c015281816108b1015281816108e301528181610b5001528181610bf00152610c900152600081816104b30152610cc201526125c56000f3fe608060405234801561001057600080fd5b50600436106100ea5760003560e01c80636a97c0fe1161008c578063ac9650d811610066578063ac9650d81461020b578063bb789bd71461023b578063f0f4426014610257578063fef0bec814610273576100ea565b80636a97c0fe146101b757806388235d10146101d357806392547c38146101ef576100ea565b806357c25c66116100c857806357c25c66146101455780635eadca7e14610161578063660d0d671461017d57806369ea86821461019b576100ea565b80631dee7f3e146100ef57806330a767c51461010b5780634a4a7b0414610127575b600080fd5b6101096004803603810190610104919061170b565b61028f565b005b6101256004803603810190610120919061176e565b6103bb565b005b61012f6104b1565b60405161013c9190611820565b60405180910390f35b61015f600480360381019061015a919061183b565b6104d5565b005b61017b6004803603810190610176919061183b565b61059b565b005b610185610661565b6040516101929190611889565b60405180910390f35b6101b560048036038101906101b0919061170b565b610685565b005b6101d160048036038101906101cc919061176e565b61074b565b005b6101ed60048036038101906101e8919061183b565b610841565b005b6102096004803603810190610204919061183b565b6108e1565b005b61022560048036038101906102209190611909565b6109a7565b6040516102329190611aa8565b60405180910390f35b6102556004803603810190610250919061183b565b610ae0565b005b610271600480360381019061026c919061170b565b610b80565b005b61028d6004803603810190610288919061183b565b610c20565b005b600073ffffffffffffffffffffffffffffffffffffffff168173ffffffffffffffffffffffffffffffffffffffff16036102f5576040517f58c52e4d00000000000000000000000000000000000000000000000000000000815260040160405180910390fd5b7f000000000000000000000000000000000000000000000000000000000000000073ffffffffffffffffffffffffffffffffffffffff1663ca446dd960405160200161034090611b27565b60405160208183030381529060405280519060200120836040518363ffffffff1660e01b8152600401610374929190611b6f565b6020604051808303816000875af1158015610393573d6000803e3d6000fd5b505050506040513d601f19601f820116820180604052508101906103b79190611bad565b5050565b61041e6040516020016103cd90611c26565b604051602081830303815290604052805190602001206040518060400160405280600d81526020017f434f4e4649475f4b454550455200000000000000000000000000000000000000815250610cc0565b610426610da3565b60006104328484610de9565b905060006104607f000000000000000000000000000000000000000000000000000000000000000083610e87565b90506104758382610e9b90919063ffffffff16565b90506104a27f00000000000000000000000000000000000000000000000000000000000000008383610f19565b50506104ac610ff8565b505050565b7f000000000000000000000000000000000000000000000000000000000000000081565b7f000000000000000000000000000000000000000000000000000000000000000073ffffffffffffffffffffffffffffffffffffffff1663e2a4853a60405160200161052090611c92565b60405160208183030381529060405280519060200120836040518363ffffffff1660e01b8152600401610554929190611cc1565b6020604051808303816000875af1158015610573573d6000803e3d6000fd5b505050506040513d601f19601f820116820180604052508101906105979190611cff565b5050565b7f000000000000000000000000000000000000000000000000000000000000000073ffffffffffffffffffffffffffffffffffffffff1663e2a4853a6040516020016105e690611d78565b60405160208183030381529060405280519060200120836040518363ffffffff1660e01b815260040161061a929190611cc1565b6020604051808303816000875af1158015610639573d6000803e3d6000fd5b505050506040513d601f19601f8201168201806040525081019061065d9190611cff565b5050565b7f000000000000000000000000000000000000000000000000000000000000000081565b7f000000000000000000000000000000000000000000000000000000000000000073ffffffffffffffffffffffffffffffffffffffff1663ca446dd96040516020016106d090611de4565b60405160208183030381529060405280519060200120836040518363ffffffff1660e01b8152600401610704929190611b6f565b6020604051808303816000875af1158015610723573d6000803e3d6000fd5b505050506040513d601f19601f820116820180604052508101906107479190611bad565b5050565b6107ae60405160200161075d90611c26565b604051602081830303815290604052805190602001206040518060400160405280600d81526020017f434f4e4649475f4b454550455200000000000000000000000000000000000000815250610cc0565b6107b6610da3565b60006107c28484610de9565b905060006107f07f000000000000000000000000000000000000000000000000000000000000000083610e87565b9050610805838261100290919063ffffffff16565b90506108327f00000000000000000000000000000000000000000000000000000000000000008383610f19565b505061083c610ff8565b505050565b6108a460405160200161085390611c26565b604051602081830303815290604052805190602001206040518060400160405280600d81526020017f434f4e4649475f4b454550455200000000000000000000000000000000000000815250610cc0565b6108ac610da3565b6108d67f000000000000000000000000000000000000000000000000000000000000000082611080565b6108de610ff8565b50565b7f000000000000000000000000000000000000000000000000000000000000000073ffffffffffffffffffffffffffffffffffffffff1663e2a4853a60405160200161092c90611e50565b60405160208183030381529060405280519060200120836040518363ffffffff1660e01b8152600401610960929190611cc1565b6020604051808303816000875af115801561097f573d6000803e3d6000fd5b505050506040513d601f19601f820116820180604052508101906109a39190611cff565b5050565b60608282905067ffffffffffffffff8111156109c6576109c5611e70565b5b6040519080825280602002602001820160405280156109f957816020015b60608152602001906001900390816109e45790505b50905060005b83839050811015610ad9576000803073ffffffffffffffffffffffffffffffffffffffff16868685818110610a3757610a36611e9f565b5b9050602002810190610a499190611edd565b604051610a57929190611f7f565b600060405180830381855af49150503d8060008114610a92576040519150601f19603f3d011682016040523d82523d6000602084013e610a97565b606091505b509150915081610aab57610aaa81611127565b5b80848481518110610abf57610abe611e9f565b5b6020026020010181905250505080806001019150506109ff565b5092915050565b610b43604051602001610af290611c26565b604051602081830303815290604052805190602001206040518060400160405280600d81526020017f434f4e4649475f4b454550455200000000000000000000000000000000000000815250610cc0565b610b4b610da3565b610b757f000000000000000000000000000000000000000000000000000000000000000082611188565b610b7d610ff8565b50565b610be3604051602001610b9290611c26565b604051602081830303815290604052805190602001206040518060400160405280600d81526020017f434f4e4649475f4b454550455200000000000000000000000000000000000000815250610cc0565b610beb610da3565b610c157f00000000000000000000000000000000000000000000000000000000000000008261122f565b610c1d610ff8565b50565b610c83604051602001610c3290611c26565b604051602081830303815290604052805190602001206040518060400160405280600d81526020017f434f4e4649475f4b454550455200000000000000000000000000000000000000815250610cc0565b610c8b610da3565b610cb57f00000000000000000000000000000000000000000000000000000000000000008261133c565b610cbd610ff8565b50565b7f000000000000000000000000000000000000000000000000000000000000000073ffffffffffffffffffffffffffffffffffffffff1663ac4ab3fb33846040518363ffffffff1660e01b8152600401610d1b929190611f98565b602060405180830381865afa158015610d38573d6000803e3d6000fd5b505050506040513d601f19601f82011682018060405250810190610d5c9190611ff9565b610d9f5733816040517fa35b150b000000000000000000000000000000000000000000000000000000008152600401610d9692919061206a565b60405180910390fd5b5050565b600260005403610ddf576040517f3ee5aeb500000000000000000000000000000000000000000000000000000000815260040160405180910390fd5b6002600081905550565b60008173ffffffffffffffffffffffffffffffffffffffff168373ffffffffffffffffffffffffffffffffffffffff1610610e25578183610e28565b82825b8093508194505050604051602001610e3f906120e6565b604051602081830303815290604052805190602001208383604051602001610e6993929190612106565b60405160208183030381529060405280519060200120905092915050565b6000610e9383836113e3565b905092915050565b600061ffff821115610ee8578161ffff6040517f9d1ea70b000000000000000000000000000000000000000000000000000000008152600401610edf92919061213d565b60405180910390fd5b604882901b7fffffffffffffffffffffffffffffffffffffffffff0000ffffffffffffffffff841617905092915050565b6000610f2584846114c1565b90508073ffffffffffffffffffffffffffffffffffffffff1663e2a4853a84604051602001610f53906121b2565b60405160208183030381529060405280519060200120604051602001610f7a9291906121d2565b60405160208183030381529060405280519060200120846040518363ffffffff1660e01b8152600401610fae929190611cc1565b6020604051808303816000875af1158015610fcd573d6000803e3d6000fd5b505050506040513d601f19601f82011682018060405250810190610ff19190611cff565b5050505050565b6001600081905550565b600061ffff82111561104f578161ffff6040517f9d1ea70b00000000000000000000000000000000000000000000000000000000815260040161104692919061213d565b60405180910390fd5b603882901b7fffffffffffffffffffffffffffffffffffffffffffffff0000ffffffffffffff841617905092915050565b8173ffffffffffffffffffffffffffffffffffffffff1663e2a4853a6040516020016110ab90612247565b60405160208183030381529060405280519060200120836040518363ffffffff1660e01b81526004016110df929190611cc1565b6020604051808303816000875af11580156110fe573d6000803e3d6000fd5b505050506040513d601f19601f820116820180604052508101906111229190611cff565b505050565b600080611133836115b2565b91509150801561117a57816040517f08c379a00000000000000000000000000000000000000000000000000000000081526004016111719190612267565b60405180910390fd5b61118383611679565b505050565b8173ffffffffffffffffffffffffffffffffffffffff1663e2a4853a6040516020016111b3906122d5565b60405160208183030381529060405280519060200120836040518363ffffffff1660e01b81526004016111e7929190611cc1565b6020604051808303816000875af1158015611206573d6000803e3d6000fd5b505050506040513d601f19601f8201168201806040525081019061122a9190611cff565b505050565b600073ffffffffffffffffffffffffffffffffffffffff168173ffffffffffffffffffffffffffffffffffffffff1603611295576040517fcdcb50b400000000000000000000000000000000000000000000000000000000815260040160405180910390fd5b8173ffffffffffffffffffffffffffffffffffffffff1663ca446dd96040516020016112c090612341565b60405160208183030381529060405280519060200120836040518363ffffffff1660e01b81526004016112f4929190611b6f565b6020604051808303816000875af1158015611313573d6000803e3d6000fd5b505050506040513d601f19601f820116820180604052508101906113379190611bad565b505050565b8173ffffffffffffffffffffffffffffffffffffffff1663e2a4853a604051602001611367906123ad565b60405160208183030381529060405280519060200120836040518363ffffffff1660e01b815260040161139b929190611cc1565b6020604051808303816000875af11580156113ba573d6000803e3d6000fd5b505050506040513d601f19601f820116820180604052508101906113de9190611cff565b505050565b6000806113f084846114c1565b90508073ffffffffffffffffffffffffffffffffffffffff1663bd02d0f58460405160200161141e906121b2565b604051602081830303815290604052805190602001206040516020016114459291906121d2565b604051602081830303815290604052805190602001206040518263ffffffff1660e01b815260040161147791906123cd565b602060405180830381865afa158015611494573d6000803e3d6000fd5b505050506040513d601f19601f820116820180604052508101906114b89190611cff565b91505092915050565b6000808390508073ffffffffffffffffffffffffffffffffffffffff166391d4403c6040516020016114f290612434565b60405160208183030381529060405280519060200120856040518363ffffffff1660e01b81526004016115269291906121d2565b602060405180830381865afa158015611543573d6000803e3d6000fd5b505050506040513d601f19601f820116820180604052508101906115679190611ff9565b6115a857826040517f7357d91f00000000000000000000000000000000000000000000000000000000815260040161159f91906123cd565b60405180910390fd5b8091505092915050565b606060006044835110156115dc576000604051806020016040528060008152509091509150611674565b60006115e784611686565b90506308c379a060e01b7bffffffffffffffffffffffffffffffffffffffffffffffffffffffff1916817bffffffffffffffffffffffffffffffffffffffffffffffffffffffff19160361165b576004840193508380602001905181019061164f9190612546565b60019250925050611674565b6000604051806020016040528060008152509092509250505b915091565b6000815190508060208301fd5b6000806020830151905080915050919050565b6000604051905090565b600080fd5b600080fd5b600073ffffffffffffffffffffffffffffffffffffffff82169050919050565b60006116d8826116ad565b9050919050565b6116e8816116cd565b81146116f357600080fd5b50565b600081359050611705816116df565b92915050565b600060208284031215611721576117206116a3565b5b600061172f848285016116f6565b91505092915050565b6000819050919050565b61174b81611738565b811461175657600080fd5b50565b60008135905061176881611742565b92915050565b600080600060608486031215611787576117866116a3565b5b6000611795868287016116f6565b93505060206117a6868287016116f6565b92505060406117b786828701611759565b9150509250925092565b6000819050919050565b60006117e66117e16117dc846116ad565b6117c1565b6116ad565b9050919050565b60006117f8826117cb565b9050919050565b600061180a826117ed565b9050919050565b61181a816117ff565b82525050565b60006020820190506118356000830184611811565b92915050565b600060208284031215611851576118506116a3565b5b600061185f84828501611759565b91505092915050565b6000611873826117ed565b9050919050565b61188381611868565b82525050565b600060208201905061189e600083018461187a565b92915050565b600080fd5b600080fd5b600080fd5b60008083601f8401126118c9576118c86118a4565b5b8235905067ffffffffffffffff8111156118e6576118e56118a9565b5b602083019150836020820283011115611902576119016118ae565b5b9250929050565b600080602083850312156119205761191f6116a3565b5b600083013567ffffffffffffffff81111561193e5761193d6116a8565b5b61194a858286016118b3565b92509250509250929050565b600081519050919050565b600082825260208201905092915050565b6000819050602082019050919050565b600081519050919050565b600082825260208201905092915050565b60005b838110156119bc5780820151818401526020810190506119a1565b60008484015250505050565b6000601f19601f8301169050919050565b60006119e482611982565b6119ee818561198d565b93506119fe81856020860161199e565b611a07816119c8565b840191505092915050565b6000611a1e83836119d9565b905092915050565b6000602082019050919050565b6000611a3e82611956565b611a488185611961565b935083602082028501611a5a85611972565b8060005b85811015611a965784840389528151611a778582611a12565b9450611a8283611a26565b925060208a01995050600181019050611a5e565b50829750879550505050505092915050565b60006020820190508181036000830152611ac28184611a33565b905092915050565b600082825260208201905092915050565b7f544f4b454e5f4241534500000000000000000000000000000000000000000000600082015250565b6000611b11600a83611aca565b9150611b1c82611adb565b602082019050919050565b60006020820190508181036000830152611b4081611b04565b9050919050565b6000819050919050565b611b5a81611b47565b82525050565b611b69816116cd565b82525050565b6000604082019050611b846000830185611b51565b611b916020830184611b60565b9392505050565b600081519050611ba7816116df565b92915050565b600060208284031215611bc357611bc26116a3565b5b6000611bd184828501611b98565b91505092915050565b7f434f4e4649475f4b454550455200000000000000000000000000000000000000600082015250565b6000611c10600d83611aca565b9150611c1b82611bda565b602082019050919050565b60006020820190508181036000830152611c3f81611c03565b9050919050565b7f4d41585f424f52524f575f524154450000000000000000000000000000000000600082015250565b6000611c7c600f83611aca565b9150611c8782611c46565b602082019050919050565b60006020820190508181036000830152611cab81611c6f565b9050919050565b611cbb81611738565b82525050565b6000604082019050611cd66000830185611b51565b611ce36020830184611cb2565b9392505050565b600081519050611cf981611742565b92915050565b600060208284031215611d1557611d146116a3565b5b6000611d2384828501611cea565b91505092915050565b7f44454641554c545f504f4f4c5f434f4e46494755524154494f4e000000000000600082015250565b6000611d62601a83611aca565b9150611d6d82611d2c565b602082019050919050565b60006020820190508181036000830152611d9181611d55565b9050919050565b7f44454641554c545f494e5445524553545f524154455f53545241544547590000600082015250565b6000611dce601e83611aca565b9150611dd982611d98565b602082019050919050565b60006020820190508181036000830152611dfd81611dc1565b9050919050565b7f53484f52545f4c49515549444954595f5448524553484f4c4400000000000000600082015250565b6000611e3a601983611aca565b9150611e4582611e04565b602082019050919050565b60006020820190508181036000830152611e6981611e2d565b9050919050565b7f4e487b7100000000000000000000000000000000000000000000000000000000600052604160045260246000fd5b7f4e487b7100000000000000000000000000000000000000000000000000000000600052603260045260246000fd5b600080fd5b600080fd5b600080fd5b60008083356001602003843603038112611efa57611ef9611ece565b5b80840192508235915067ffffffffffffffff821115611f1c57611f1b611ed3565b5b602083019250600182023603831315611f3857611f37611ed8565b5b509250929050565b600081905092915050565b82818337600083830152505050565b6000611f668385611f40565b9350611f73838584611f4b565b82840190509392505050565b6000611f8c828486611f5a565b91508190509392505050565b6000604082019050611fad6000830185611b60565b611fba6020830184611b51565b9392505050565b60008115159050919050565b611fd681611fc1565b8114611fe157600080fd5b50565b600081519050611ff381611fcd565b92915050565b60006020828403121561200f5761200e6116a3565b5b600061201d84828501611fe4565b91505092915050565b600081519050919050565b600061203c82612026565b6120468185611aca565b935061205681856020860161199e565b61205f816119c8565b840191505092915050565b600060408201905061207f6000830185611b60565b81810360208301526120918184612031565b90509392505050565b7f504f4f4c00000000000000000000000000000000000000000000000000000000600082015250565b60006120d0600483611aca565b91506120db8261209a565b602082019050919050565b600060208201905081810360008301526120ff816120c3565b9050919050565b600060608201905061211b6000830186611b51565b6121286020830185611b60565b6121356040830184611b60565b949350505050565b60006040820190506121526000830185611cb2565b61215f6020830184611cb2565b9392505050565b7f504f4f4c5f434f4e46494755524154494f4e0000000000000000000000000000600082015250565b600061219c601283611aca565b91506121a782612166565b602082019050919050565b600060208201905081810360008301526121cb8161218f565b9050919050565b60006040820190506121e76000830185611b51565b6121f46020830184611b51565b9392505050565b7f4d415247494e5f4c4556454c4c5f5448524553484f4c44000000000000000000600082015250565b6000612231601783611aca565b915061223c826121fb565b602082019050919050565b6000602082019050818103600083015261226081612224565b9050919050565b600060208201905081810360008301526122818184612031565b905092915050565b7f444542545f5341464554595f464143544f520000000000000000000000000000600082015250565b60006122bf601283611aca565b91506122ca82612289565b602082019050919050565b600060208201905081810360008301526122ee816122b2565b9050919050565b7f5452454153555259000000000000000000000000000000000000000000000000600082015250565b600061232b600883611aca565b9150612336826122f5565b602082019050919050565b6000602082019050818103600083015261235a8161231e565b9050919050565b7f4c49515549444154494f4e5f4645450000000000000000000000000000000000600082015250565b6000612397600f83611aca565b91506123a282612361565b602082019050919050565b600060208201905081810360008301526123c68161238a565b9050919050565b60006020820190506123e26000830184611b51565b92915050565b7f504f4f4c5f4c4953540000000000000000000000000000000000000000000000600082015250565b600061241e600983611aca565b9150612429826123e8565b602082019050919050565b6000602082019050818103600083015261244d81612411565b9050919050565b600080fd5b612462826119c8565b810181811067ffffffffffffffff8211171561248157612480611e70565b5b80604052505050565b6000612494611699565b90506124a08282612459565b919050565b600067ffffffffffffffff8211156124c0576124bf611e70565b5b6124c9826119c8565b9050602081019050919050565b60006124e96124e4846124a5565b61248a565b90508281526020810184848401111561250557612504612454565b5b61251084828561199e565b509392505050565b600082601f83011261252d5761252c6118a4565b5b815161253d8482602086016124d6565b91505092915050565b60006020828403121561255c5761255b6116a3565b5b600082015167ffffffffffffffff81111561257a576125796116a8565b5b61258684828501612518565b9150509291505056fea2646970667358221220015a75c1a79704317c3a0bbdd01f2b183f20ec3df562fb4b80ec415a0d6913fc64736f6c634300081c0033",
  "linkReferences": {},
  "deployedLinkReferences": {}
}