{
  "_format": "hh-sol-artifact-1",
  "contractName": "Config",
  "sourceName": "contracts/config/Config.sol",
  "abi": [
    {
      "inputs": [
        {
          "internalType": "contract RoleStore",
          "name": "_roleStore",
          "type": "address"
        },
        {
          "internalType": "contract DataStore",
          "name": "_dataStore",
          "type": "address"
        }
      ],
      "stateMutability": "nonpayable",
      "type": "constructor"
    },
    {
      "inputs": [
        {
          "internalType": "bytes32",
          "name": "key",
          "type": "bytes32"
        }
      ],
      "name": "EmptyPool",
      "type": "error"
    },
    {
      "inputs": [],
      "name": "EmptyTokenBase",
      "type": "error"
    },
    {
      "inputs": [],
      "name": "EmptyTreasury",
      "type": "error"
    },
    {
      "inputs": [
        {
          "internalType": "uint256",
          "name": "feeFactor",
          "type": "uint256"
        },
        {
          "internalType": "uint256",
          "name": "MaxValidFeeFactor",
          "type": "uint256"
        }
      ],
      "name": "InvalidFeeFactor",
      "type": "error"
    },
    {
      "inputs": [],
      "name": "ReentrancyGuardReentrantCall",
      "type": "error"
    },
    {
      "inputs": [
        {
          "internalType": "address",
          "name": "msgSender",
          "type": "address"
        },
        {
          "internalType": "string",
          "name": "role",
          "type": "string"
        }
      ],
      "name": "Unauthorized",
      "type": "error"
    },
    {
      "inputs": [],
      "name": "dataStore",
      "outputs": [
        {
          "internalType": "contract DataStore",
          "name": "",
          "type": "address"
        }
      ],
      "stateMutability": "view",
      "type": "function"
    },
    {
      "inputs": [
        {
          "internalType": "bytes[]",
          "name": "data",
          "type": "bytes[]"
        }
      ],
      "name": "multicall",
      "outputs": [
        {
          "internalType": "bytes[]",
          "name": "results",
          "type": "bytes[]"
        }
      ],
      "stateMutability": "nonpayable",
      "type": "function"
    },
    {
      "inputs": [],
      "name": "roleStore",
      "outputs": [
        {
          "internalType": "contract RoleStore",
          "name": "",
          "type": "address"
        }
      ],
      "stateMutability": "view",
      "type": "function"
    },
    {
      "inputs": [
        {
          "internalType": "uint256",
          "name": "debtSaftyFactor",
          "type": "uint256"
        }
      ],
      "name": "setDebtSafetyFactor",
      "outputs": [],
      "stateMutability": "nonpayable",
      "type": "function"
    },
    {
      "inputs": [
        {
          "internalType": "address",
          "name": "interestRateStrategy",
          "type": "address"
        }
      ],
      "name": "setDefaultInterestRateStrategy",
      "outputs": [],
      "stateMutability": "nonpayable",
      "type": "function"
    },
    {
      "inputs": [
        {
          "internalType": "uint256",
          "name": "configuration",
          "type": "uint256"
        }
      ],
      "name": "setDefaultPoolConfiguration",
      "outputs": [],
      "stateMutability": "nonpayable",
      "type": "function"
    },
    {
      "inputs": [
        {
          "internalType": "uint256",
          "name": "threshold",
          "type": "uint256"
        }
      ],
      "name": "setMarginLevelThreshold",
      "outputs": [],
      "stateMutability": "nonpayable",
      "type": "function"
    },
    {
      "inputs": [
        {
          "internalType": "address",
          "name": "token0",
          "type": "address"
        },
        {
          "internalType": "address",
          "name": "token1",
          "type": "address"
        },
        {
          "internalType": "uint256",
          "name": "feeFactor",
          "type": "uint256"
        }
      ],
      "name": "setSwapFeeFactor",
      "outputs": [],
      "stateMutability": "nonpayable",
      "type": "function"
    },
    {
      "inputs": [
        {
          "internalType": "address",
          "name": "token",
          "type": "address"
        }
      ],
      "name": "setTokenBase",
      "outputs": [],
      "stateMutability": "nonpayable",
      "type": "function"
    },
    {
      "inputs": [
        {
          "internalType": "address",
          "name": "treasury",
          "type": "address"
        }
      ],
      "name": "setTreasury",
      "outputs": [],
      "stateMutability": "nonpayable",
      "type": "function"
    },
    {
      "inputs": [
        {
          "internalType": "address",
          "name": "token0",
          "type": "address"
        },
        {
          "internalType": "address",
          "name": "token1",
          "type": "address"
        },
        {
          "internalType": "uint256",
          "name": "feeFactor",
          "type": "uint256"
        }
      ],
      "name": "setTreasuryFeeFactor",
      "outputs": [],
      "stateMutability": "nonpayable",
      "type": "function"
    }
  ],
  "bytecode": "0x60c060405234801561001057600080fd5b506040516123293803806123298339818101604052810190610032919061015e565b818073ffffffffffffffffffffffffffffffffffffffff1660808173ffffffffffffffffffffffffffffffffffffffff16815250505060016000819055508073ffffffffffffffffffffffffffffffffffffffff1660a08173ffffffffffffffffffffffffffffffffffffffff1681525050505061019e565b600080fd5b600073ffffffffffffffffffffffffffffffffffffffff82169050919050565b60006100db826100b0565b9050919050565b60006100ed826100d0565b9050919050565b6100fd816100e2565b811461010857600080fd5b50565b60008151905061011a816100f4565b92915050565b600061012b826100d0565b9050919050565b61013b81610120565b811461014657600080fd5b50565b60008151905061015881610132565b92915050565b60008060408385031215610175576101746100ab565b5b60006101838582860161010b565b925050602061019485828601610149565b9150509250929050565b60805160a05161211961021060003960008181610262015281816103a6015281816103e701528181610442015281816105080152818161052c01528181610670015281816106b1015281816107560152818161092f01526109cf01526000818161041e0152610a0101526121196000f3fe608060405234801561001057600080fd5b50600436106100a95760003560e01c806369ea86821161007157806369ea86821461013e5780636a97c0fe1461015a57806388235d1014610176578063ac9650d814610192578063bb789bd7146101c2578063f0f44260146101de576100a9565b80631dee7f3e146100ae57806330a767c5146100ca5780634a4a7b04146100e65780635eadca7e14610104578063660d0d6714610120575b600080fd5b6100c860048036038101906100c391906113a3565b6101fa565b005b6100e460048036038101906100df9190611406565b610326565b005b6100ee61041c565b6040516100fb91906114b8565b60405180910390f35b61011e600480360381019061011991906114d3565b610440565b005b610128610506565b6040516101359190611521565b60405180910390f35b610158600480360381019061015391906113a3565b61052a565b005b610174600480360381019061016f9190611406565b6105f0565b005b610190600480360381019061018b91906114d3565b6106e6565b005b6101ac60048036038101906101a791906115a1565b610786565b6040516101b99190611740565b60405180910390f35b6101dc60048036038101906101d791906114d3565b6108bf565b005b6101f860048036038101906101f391906113a3565b61095f565b005b600073ffffffffffffffffffffffffffffffffffffffff168173ffffffffffffffffffffffffffffffffffffffff1603610260576040517f58c52e4d00000000000000000000000000000000000000000000000000000000815260040160405180910390fd5b7f000000000000000000000000000000000000000000000000000000000000000073ffffffffffffffffffffffffffffffffffffffff1663ca446dd96040516020016102ab906117bf565b60405160208183030381529060405280519060200120836040518363ffffffff1660e01b81526004016102df929190611807565b6020604051808303816000875af11580156102fe573d6000803e3d6000fd5b505050506040513d601f19601f820116820180604052508101906103229190611845565b5050565b610389604051602001610338906118be565b604051602081830303815290604052805190602001206040518060400160405280600d81526020017f434f4e4649475f4b4545504552000000000000000000000000000000000000008152506109ff565b610391610ae2565b600061039d8484610b28565b905060006103cb7f000000000000000000000000000000000000000000000000000000000000000083610bc6565b90506103e08382610bda90919063ffffffff16565b905061040d7f00000000000000000000000000000000000000000000000000000000000000008383610c58565b5050610417610d37565b505050565b7f000000000000000000000000000000000000000000000000000000000000000081565b7f000000000000000000000000000000000000000000000000000000000000000073ffffffffffffffffffffffffffffffffffffffff1663e2a4853a60405160200161048b9061192a565b60405160208183030381529060405280519060200120836040518363ffffffff1660e01b81526004016104bf929190611959565b6020604051808303816000875af11580156104de573d6000803e3d6000fd5b505050506040513d601f19601f820116820180604052508101906105029190611997565b5050565b7f000000000000000000000000000000000000000000000000000000000000000081565b7f000000000000000000000000000000000000000000000000000000000000000073ffffffffffffffffffffffffffffffffffffffff1663ca446dd960405160200161057590611a10565b60405160208183030381529060405280519060200120836040518363ffffffff1660e01b81526004016105a9929190611807565b6020604051808303816000875af11580156105c8573d6000803e3d6000fd5b505050506040513d601f19601f820116820180604052508101906105ec9190611845565b5050565b610653604051602001610602906118be565b604051602081830303815290604052805190602001206040518060400160405280600d81526020017f434f4e4649475f4b4545504552000000000000000000000000000000000000008152506109ff565b61065b610ae2565b60006106678484610b28565b905060006106957f000000000000000000000000000000000000000000000000000000000000000083610bc6565b90506106aa8382610d4190919063ffffffff16565b90506106d77f00000000000000000000000000000000000000000000000000000000000000008383610c58565b50506106e1610d37565b505050565b6107496040516020016106f8906118be565b604051602081830303815290604052805190602001206040518060400160405280600d81526020017f434f4e4649475f4b4545504552000000000000000000000000000000000000008152506109ff565b610751610ae2565b61077b7f000000000000000000000000000000000000000000000000000000000000000082610dbf565b610783610d37565b50565b60608282905067ffffffffffffffff8111156107a5576107a4611a30565b5b6040519080825280602002602001820160405280156107d857816020015b60608152602001906001900390816107c35790505b50905060005b838390508110156108b8576000803073ffffffffffffffffffffffffffffffffffffffff1686868581811061081657610815611a5f565b5b90506020028101906108289190611a9d565b604051610836929190611b3f565b600060405180830381855af49150503d8060008114610871576040519150601f19603f3d011682016040523d82523d6000602084013e610876565b606091505b50915091508161088a5761088981610e66565b5b8084848151811061089e5761089d611a5f565b5b6020026020010181905250505080806001019150506107de565b5092915050565b6109226040516020016108d1906118be565b604051602081830303815290604052805190602001206040518060400160405280600d81526020017f434f4e4649475f4b4545504552000000000000000000000000000000000000008152506109ff565b61092a610ae2565b6109547f000000000000000000000000000000000000000000000000000000000000000082610ec7565b61095c610d37565b50565b6109c2604051602001610971906118be565b604051602081830303815290604052805190602001206040518060400160405280600d81526020017f434f4e4649475f4b4545504552000000000000000000000000000000000000008152506109ff565b6109ca610ae2565b6109f47f000000000000000000000000000000000000000000000000000000000000000082610f6e565b6109fc610d37565b50565b7f000000000000000000000000000000000000000000000000000000000000000073ffffffffffffffffffffffffffffffffffffffff1663ac4ab3fb33846040518363ffffffff1660e01b8152600401610a5a929190611b58565b602060405180830381865afa158015610a77573d6000803e3d6000fd5b505050506040513d601f19601f82011682018060405250810190610a9b9190611bb9565b610ade5733816040517fa35b150b000000000000000000000000000000000000000000000000000000008152600401610ad5929190611c2a565b60405180910390fd5b5050565b600260005403610b1e576040517f3ee5aeb500000000000000000000000000000000000000000000000000000000815260040160405180910390fd5b6002600081905550565b60008173ffffffffffffffffffffffffffffffffffffffff168373ffffffffffffffffffffffffffffffffffffffff1610610b64578183610b67565b82825b8093508194505050604051602001610b7e90611ca6565b604051602081830303815290604052805190602001208383604051602001610ba893929190611cc6565b60405160208183030381529060405280519060200120905092915050565b6000610bd2838361107b565b905092915050565b600061ffff821115610c27578161ffff6040517f9d1ea70b000000000000000000000000000000000000000000000000000000008152600401610c1e929190611cfd565b60405180910390fd5b604882901b7fffffffffffffffffffffffffffffffffffffffffff0000ffffffffffffffffff841617905092915050565b6000610c648484611159565b90508073ffffffffffffffffffffffffffffffffffffffff1663e2a4853a84604051602001610c9290611d72565b60405160208183030381529060405280519060200120604051602001610cb9929190611d92565b60405160208183030381529060405280519060200120846040518363ffffffff1660e01b8152600401610ced929190611959565b6020604051808303816000875af1158015610d0c573d6000803e3d6000fd5b505050506040513d601f19601f82011682018060405250810190610d309190611997565b5050505050565b6001600081905550565b600061ffff821115610d8e578161ffff6040517f9d1ea70b000000000000000000000000000000000000000000000000000000008152600401610d85929190611cfd565b60405180910390fd5b603882901b7fffffffffffffffffffffffffffffffffffffffffffffff0000ffffffffffffff841617905092915050565b8173ffffffffffffffffffffffffffffffffffffffff1663e2a4853a604051602001610dea90611e07565b60405160208183030381529060405280519060200120836040518363ffffffff1660e01b8152600401610e1e929190611959565b6020604051808303816000875af1158015610e3d573d6000803e3d6000fd5b505050506040513d601f19601f82011682018060405250810190610e619190611997565b505050565b600080610e728361124a565b915091508015610eb957816040517f08c379a0000000000000000000000000000000000000000000000000000000008152600401610eb09190611e27565b60405180910390fd5b610ec283611311565b505050565b8173ffffffffffffffffffffffffffffffffffffffff1663e2a4853a604051602001610ef290611e95565b60405160208183030381529060405280519060200120836040518363ffffffff1660e01b8152600401610f26929190611959565b6020604051808303816000875af1158015610f45573d6000803e3d6000fd5b505050506040513d601f19601f82011682018060405250810190610f699190611997565b505050565b600073ffffffffffffffffffffffffffffffffffffffff168173ffffffffffffffffffffffffffffffffffffffff1603610fd4576040517fcdcb50b400000000000000000000000000000000000000000000000000000000815260040160405180910390fd5b8173ffffffffffffffffffffffffffffffffffffffff1663ca446dd9604051602001610fff90611f01565b60405160208183030381529060405280519060200120836040518363ffffffff1660e01b8152600401611033929190611807565b6020604051808303816000875af1158015611052573d6000803e3d6000fd5b505050506040513d601f19601f820116820180604052508101906110769190611845565b505050565b6000806110888484611159565b90508073ffffffffffffffffffffffffffffffffffffffff1663bd02d0f5846040516020016110b690611d72565b604051602081830303815290604052805190602001206040516020016110dd929190611d92565b604051602081830303815290604052805190602001206040518263ffffffff1660e01b815260040161110f9190611f21565b602060405180830381865afa15801561112c573d6000803e3d6000fd5b505050506040513d601f19601f820116820180604052508101906111509190611997565b91505092915050565b6000808390508073ffffffffffffffffffffffffffffffffffffffff166391d4403c60405160200161118a90611f88565b60405160208183030381529060405280519060200120856040518363ffffffff1660e01b81526004016111be929190611d92565b602060405180830381865afa1580156111db573d6000803e3d6000fd5b505050506040513d601f19601f820116820180604052508101906111ff9190611bb9565b61124057826040517f7357d91f0000000000000000000000000000000000000000000000000000000081526004016112379190611f21565b60405180910390fd5b8091505092915050565b6060600060448351101561127457600060405180602001604052806000815250909150915061130c565b600061127f8461131e565b90506308c379a060e01b7bffffffffffffffffffffffffffffffffffffffffffffffffffffffff1916817bffffffffffffffffffffffffffffffffffffffffffffffffffffffff1916036112f357600484019350838060200190518101906112e7919061209a565b6001925092505061130c565b6000604051806020016040528060008152509092509250505b915091565b6000815190508060208301fd5b6000806020830151905080915050919050565b6000604051905090565b600080fd5b600080fd5b600073ffffffffffffffffffffffffffffffffffffffff82169050919050565b600061137082611345565b9050919050565b61138081611365565b811461138b57600080fd5b50565b60008135905061139d81611377565b92915050565b6000602082840312156113b9576113b861133b565b5b60006113c78482850161138e565b91505092915050565b6000819050919050565b6113e3816113d0565b81146113ee57600080fd5b50565b600081359050611400816113da565b92915050565b60008060006060848603121561141f5761141e61133b565b5b600061142d8682870161138e565b935050602061143e8682870161138e565b925050604061144f868287016113f1565b9150509250925092565b6000819050919050565b600061147e61147961147484611345565b611459565b611345565b9050919050565b600061149082611463565b9050919050565b60006114a282611485565b9050919050565b6114b281611497565b82525050565b60006020820190506114cd60008301846114a9565b92915050565b6000602082840312156114e9576114e861133b565b5b60006114f7848285016113f1565b91505092915050565b600061150b82611485565b9050919050565b61151b81611500565b82525050565b60006020820190506115366000830184611512565b92915050565b600080fd5b600080fd5b600080fd5b60008083601f8401126115615761156061153c565b5b8235905067ffffffffffffffff81111561157e5761157d611541565b5b60208301915083602082028301111561159a57611599611546565b5b9250929050565b600080602083850312156115b8576115b761133b565b5b600083013567ffffffffffffffff8111156115d6576115d5611340565b5b6115e28582860161154b565b92509250509250929050565b600081519050919050565b600082825260208201905092915050565b6000819050602082019050919050565b600081519050919050565b600082825260208201905092915050565b60005b83811015611654578082015181840152602081019050611639565b60008484015250505050565b6000601f19601f8301169050919050565b600061167c8261161a565b6116868185611625565b9350611696818560208601611636565b61169f81611660565b840191505092915050565b60006116b68383611671565b905092915050565b6000602082019050919050565b60006116d6826115ee565b6116e081856115f9565b9350836020820285016116f28561160a565b8060005b8581101561172e578484038952815161170f85826116aa565b945061171a836116be565b925060208a019950506001810190506116f6565b50829750879550505050505092915050565b6000602082019050818103600083015261175a81846116cb565b905092915050565b600082825260208201905092915050565b7f544f4b454e5f4241534500000000000000000000000000000000000000000000600082015250565b60006117a9600a83611762565b91506117b482611773565b602082019050919050565b600060208201905081810360008301526117d88161179c565b9050919050565b6000819050919050565b6117f2816117df565b82525050565b61180181611365565b82525050565b600060408201905061181c60008301856117e9565b61182960208301846117f8565b9392505050565b60008151905061183f81611377565b92915050565b60006020828403121561185b5761185a61133b565b5b600061186984828501611830565b91505092915050565b7f434f4e4649475f4b454550455200000000000000000000000000000000000000600082015250565b60006118a8600d83611762565b91506118b382611872565b602082019050919050565b600060208201905081810360008301526118d78161189b565b9050919050565b7f44454641554c545f504f4f4c5f434f4e46494755524154494f4e000000000000600082015250565b6000611914601a83611762565b915061191f826118de565b602082019050919050565b6000602082019050818103600083015261194381611907565b9050919050565b611953816113d0565b82525050565b600060408201905061196e60008301856117e9565b61197b602083018461194a565b9392505050565b600081519050611991816113da565b92915050565b6000602082840312156119ad576119ac61133b565b5b60006119bb84828501611982565b91505092915050565b7f44454641554c545f494e5445524553545f524154455f53545241544547590000600082015250565b60006119fa601e83611762565b9150611a05826119c4565b602082019050919050565b60006020820190508181036000830152611a29816119ed565b9050919050565b7f4e487b7100000000000000000000000000000000000000000000000000000000600052604160045260246000fd5b7f4e487b7100000000000000000000000000000000000000000000000000000000600052603260045260246000fd5b600080fd5b600080fd5b600080fd5b60008083356001602003843603038112611aba57611ab9611a8e565b5b80840192508235915067ffffffffffffffff821115611adc57611adb611a93565b5b602083019250600182023603831315611af857611af7611a98565b5b509250929050565b600081905092915050565b82818337600083830152505050565b6000611b268385611b00565b9350611b33838584611b0b565b82840190509392505050565b6000611b4c828486611b1a565b91508190509392505050565b6000604082019050611b6d60008301856117f8565b611b7a60208301846117e9565b9392505050565b60008115159050919050565b611b9681611b81565b8114611ba157600080fd5b50565b600081519050611bb381611b8d565b92915050565b600060208284031215611bcf57611bce61133b565b5b6000611bdd84828501611ba4565b91505092915050565b600081519050919050565b6000611bfc82611be6565b611c068185611762565b9350611c16818560208601611636565b611c1f81611660565b840191505092915050565b6000604082019050611c3f60008301856117f8565b8181036020830152611c518184611bf1565b90509392505050565b7f504f4f4c00000000000000000000000000000000000000000000000000000000600082015250565b6000611c90600483611762565b9150611c9b82611c5a565b602082019050919050565b60006020820190508181036000830152611cbf81611c83565b9050919050565b6000606082019050611cdb60008301866117e9565b611ce860208301856117f8565b611cf560408301846117f8565b949350505050565b6000604082019050611d12600083018561194a565b611d1f602083018461194a565b9392505050565b7f504f4f4c5f434f4e46494755524154494f4e0000000000000000000000000000600082015250565b6000611d5c601283611762565b9150611d6782611d26565b602082019050919050565b60006020820190508181036000830152611d8b81611d4f565b9050919050565b6000604082019050611da760008301856117e9565b611db460208301846117e9565b9392505050565b7f4d415247494e5f4c4556454c4c5f5448524553484f4c44000000000000000000600082015250565b6000611df1601783611762565b9150611dfc82611dbb565b602082019050919050565b60006020820190508181036000830152611e2081611de4565b9050919050565b60006020820190508181036000830152611e418184611bf1565b905092915050565b7f444542545f5341464554595f464143544f520000000000000000000000000000600082015250565b6000611e7f601283611762565b9150611e8a82611e49565b602082019050919050565b60006020820190508181036000830152611eae81611e72565b9050919050565b7f5452454153555259000000000000000000000000000000000000000000000000600082015250565b6000611eeb600883611762565b9150611ef682611eb5565b602082019050919050565b60006020820190508181036000830152611f1a81611ede565b9050919050565b6000602082019050611f3660008301846117e9565b92915050565b7f504f4f4c5f4c4953540000000000000000000000000000000000000000000000600082015250565b6000611f72600983611762565b9150611f7d82611f3c565b602082019050919050565b60006020820190508181036000830152611fa181611f65565b9050919050565b600080fd5b611fb682611660565b810181811067ffffffffffffffff82111715611fd557611fd4611a30565b5b80604052505050565b6000611fe8611331565b9050611ff48282611fad565b919050565b600067ffffffffffffffff82111561201457612013611a30565b5b61201d82611660565b9050602081019050919050565b600061203d61203884611ff9565b611fde565b90508281526020810184848401111561205957612058611fa8565b5b612064848285611636565b509392505050565b600082601f8301126120815761208061153c565b5b815161209184826020860161202a565b91505092915050565b6000602082840312156120b0576120af61133b565b5b600082015167ffffffffffffffff8111156120ce576120cd611340565b5b6120da8482850161206c565b9150509291505056fea2646970667358221220902b9c39c8e9deb7c9d1cdc4305aa0b15741bf8af91f148a9df1e5cc2058d0a364736f6c634300081c0033",
  "linkReferences": {},
  "deployedLinkReferences": {}
}