{
  "_format": "hh-sol-artifact-1",
  "contractName": "LiquidityHandler",
  "sourceName": "contracts/exchange/LiquidityHandler.sol",
  "abi": [
    {
      "inputs": [
        {
          "internalType": "contract RoleStore",
          "name": "_roleStore",
          "type": "address"
        },
        {
          "internalType": "contract DataStore",
          "name": "_dataStore",
          "type": "address"
        },
        {
          "internalType": "contract EventEmitter",
          "name": "_eventEmitter",
          "type": "address"
        }
      ],
      "stateMutability": "nonpayable",
      "type": "constructor"
    },
    {
      "inputs": [],
      "name": "EmptyAddAmounts",
      "type": "error"
    },
    {
      "inputs": [
        {
          "internalType": "bytes32",
          "name": "key",
          "type": "bytes32"
        }
      ],
      "name": "EmptyPool",
      "type": "error"
    },
    {
      "inputs": [],
      "name": "EmptyRemoveAmounts",
      "type": "error"
    },
    {
      "inputs": [
        {
          "internalType": "uint256",
          "name": "balance",
          "type": "uint256"
        },
        {
          "internalType": "uint256",
          "name": "liquidity",
          "type": "uint256"
        }
      ],
      "name": "InsufficientUserBalance",
      "type": "error"
    },
    {
      "inputs": [],
      "name": "MathOverflowedMulDiv",
      "type": "error"
    },
    {
      "inputs": [
        {
          "internalType": "uint256",
          "name": "amount0",
          "type": "uint256"
        },
        {
          "internalType": "uint256",
          "name": "availableReserve0",
          "type": "uint256"
        }
      ],
      "name": "Reserve0Insufficient",
      "type": "error"
    },
    {
      "inputs": [
        {
          "internalType": "uint256",
          "name": "amount1",
          "type": "uint256"
        },
        {
          "internalType": "uint256",
          "name": "availableReserve1",
          "type": "uint256"
        }
      ],
      "name": "Reserve1Insufficient",
      "type": "error"
    },
    {
      "inputs": [
        {
          "internalType": "address",
          "name": "msgSender",
          "type": "address"
        },
        {
          "internalType": "string",
          "name": "role",
          "type": "string"
        }
      ],
      "name": "Unauthorized",
      "type": "error"
    },
    {
      "inputs": [],
      "name": "dataStore",
      "outputs": [
        {
          "internalType": "contract DataStore",
          "name": "",
          "type": "address"
        }
      ],
      "stateMutability": "view",
      "type": "function"
    },
    {
      "inputs": [],
      "name": "eventEmitter",
      "outputs": [
        {
          "internalType": "contract EventEmitter",
          "name": "",
          "type": "address"
        }
      ],
      "stateMutability": "view",
      "type": "function"
    },
    {
      "inputs": [
        {
          "internalType": "address",
          "name": "account",
          "type": "address"
        },
        {
          "components": [
            {
              "internalType": "address",
              "name": "token0",
              "type": "address"
            },
            {
              "internalType": "address",
              "name": "token1",
              "type": "address"
            },
            {
              "internalType": "address",
              "name": "to",
              "type": "address"
            }
          ],
          "internalType": "struct LiquidityUtils.AddParams",
          "name": "AddParams",
          "type": "tuple"
        }
      ],
      "name": "executeAdd",
      "outputs": [],
      "stateMutability": "nonpayable",
      "type": "function"
    },
    {
      "inputs": [
        {
          "internalType": "address",
          "name": "account",
          "type": "address"
        },
        {
          "components": [
            {
              "internalType": "address",
              "name": "token0",
              "type": "address"
            },
            {
              "internalType": "address",
              "name": "token1",
              "type": "address"
            },
            {
              "internalType": "uint256",
              "name": "liquidity",
              "type": "uint256"
            },
            {
              "internalType": "address",
              "name": "to",
              "type": "address"
            }
          ],
          "internalType": "struct LiquidityUtils.RemoveParams",
          "name": "removeParams",
          "type": "tuple"
        }
      ],
      "name": "executeRemove",
      "outputs": [],
      "stateMutability": "nonpayable",
      "type": "function"
    },
    {
      "inputs": [],
      "name": "roleStore",
      "outputs": [
        {
          "internalType": "contract RoleStore",
          "name": "",
          "type": "address"
        }
      ],
      "stateMutability": "view",
      "type": "function"
    }
  ],
  "bytecode": "0x60e060405234801561001057600080fd5b506040516136eb3803806136eb833981810160405281019061003291906101cb565b82828073ffffffffffffffffffffffffffffffffffffffff1660808173ffffffffffffffffffffffffffffffffffffffff1681525050508073ffffffffffffffffffffffffffffffffffffffff1660a08173ffffffffffffffffffffffffffffffffffffffff1681525050508073ffffffffffffffffffffffffffffffffffffffff1660c08173ffffffffffffffffffffffffffffffffffffffff168152505050505061021e565b600080fd5b600073ffffffffffffffffffffffffffffffffffffffff82169050919050565b600061010a826100df565b9050919050565b600061011c826100ff565b9050919050565b61012c81610111565b811461013757600080fd5b50565b60008151905061014981610123565b92915050565b600061015a826100ff565b9050919050565b61016a8161014f565b811461017557600080fd5b50565b60008151905061018781610161565b92915050565b6000610198826100ff565b9050919050565b6101a88161018d565b81146101b357600080fd5b50565b6000815190506101c58161019f565b92915050565b6000806000606084860312156101e4576101e36100da565b5b60006101f28682870161013a565b935050602061020386828701610178565b9250506040610214868287016101b6565b9150509250925092565b60805160a05160c051613467610284600039600081816101c80152818161037d015261046401526000818160f0015261065401526000818161018c015281816102a5015281816103410152818161048a0152818161058d015261092601526134676000f3fe608060405234801561001057600080fd5b50600436106100575760003560e01c80634a4a7b041461005c5780635ecd44e81461007a578063660d0d67146100965780637d237c99146100b45780639ff78c30146100d0575b600080fd5b6100646100ee565b60405161007191906124d6565b60405180910390f35b610094600480360381019061008f9190612562565b610112565b005b61009e6102a3565b6040516100ab91906125c3565b60405180910390f35b6100ce60048036038101906100c991906125fd565b6102c7565b005b6100d8610462565b6040516100e5919061265e565b60405180910390f35b7f000000000000000000000000000000000000000000000000000000000000000081565b61011a610486565b61017d60405160200161012c906126d6565b604051602081830303815290604052805190602001206040518060400160405280600a81526020017f434f4e54524f4c4c455200000000000000000000000000000000000000000000815250610652565b60006040518060a001604052807f000000000000000000000000000000000000000000000000000000000000000073ffffffffffffffffffffffffffffffffffffffff1681526020017f000000000000000000000000000000000000000000000000000000000000000073ffffffffffffffffffffffffffffffffffffffff16815260200183600001602081019061021591906126f6565b73ffffffffffffffffffffffffffffffffffffffff16815260200183602001602081019061024391906126f6565b73ffffffffffffffffffffffffffffffffffffffff16815260200183604001602081019061027191906126f6565b73ffffffffffffffffffffffffffffffffffffffff1681525090506102968382610735565b5061029f610924565b5050565b7f000000000000000000000000000000000000000000000000000000000000000081565b6102cf610486565b6103326040516020016102e1906126d6565b604051602081830303815290604052805190602001206040518060400160405280600a81526020017f434f4e54524f4c4c455200000000000000000000000000000000000000000000815250610652565b60006040518060c001604052807f000000000000000000000000000000000000000000000000000000000000000073ffffffffffffffffffffffffffffffffffffffff1681526020017f000000000000000000000000000000000000000000000000000000000000000073ffffffffffffffffffffffffffffffffffffffff1681526020018360000160208101906103ca91906126f6565b73ffffffffffffffffffffffffffffffffffffffff1681526020018360200160208101906103f891906126f6565b73ffffffffffffffffffffffffffffffffffffffff1681526020018360400135815260200183606001602081019061043091906126f6565b73ffffffffffffffffffffffffffffffffffffffff16815250905061045583826109ea565b5061045e610924565b5050565b7f000000000000000000000000000000000000000000000000000000000000000081565b60007f000000000000000000000000000000000000000000000000000000000000000073ffffffffffffffffffffffffffffffffffffffff1663bd02d0f56040516020016104d39061276f565b604051602081830303815290604052805190602001206040518263ffffffff1660e01b815260040161050591906127a8565b602060405180830381865afa158015610522573d6000803e3d6000fd5b505050506040513d601f19601f8201168201806040525081019061054691906127f9565b90506000811461058b576040517f08c379a000000000000000000000000000000000000000000000000000000000815260040161058290612872565b60405180910390fd5b7f000000000000000000000000000000000000000000000000000000000000000073ffffffffffffffffffffffffffffffffffffffff1663e2a4853a6040516020016105d69061276f565b6040516020818303038152906040528051906020012060016040518363ffffffff1660e01b815260040161060b9291906128a1565b6020604051808303816000875af115801561062a573d6000803e3d6000fd5b505050506040513d601f19601f8201168201806040525081019061064e91906127f9565b5050565b7f000000000000000000000000000000000000000000000000000000000000000073ffffffffffffffffffffffffffffffffffffffff1663ac4ab3fb33846040518363ffffffff1660e01b81526004016106ad9291906128d9565b602060405180830381865afa1580156106ca573d6000803e3d6000fd5b505050506040513d601f19601f820116820180604052508101906106ee919061293a565b6107315733816040517fa35b150b0000000000000000000000000000000000000000000000000000000081526004016107289291906129e6565b60405180910390fd5b5050565b60008061074f836000015184604001518560600151610cf4565b9150915060008260200151905060008173ffffffffffffffffffffffffffffffffffffffff1663352f9aed86604001516040518263ffffffff1660e01b815260040161079b9190612a16565b6020604051808303816000875af11580156107ba573d6000803e3d6000fd5b505050506040513d601f19601f820116820180604052508101906107de91906127f9565b905060008273ffffffffffffffffffffffffffffffffffffffff1663352f9aed87606001516040518263ffffffff1660e01b815260040161081f9190612a16565b6020604051808303816000875af115801561083e573d6000803e3d6000fd5b505050506040513d601f19601f8201168201806040525081019061086291906127f9565b905061086e8282610dad565b61087f858484848a60800151610df7565b61088d866020015186610f6a565b73__$e0022d6f389ac14ff1ce1dc57a4018d0a3$__63be6afc39876000015186886040518463ffffffff1660e01b81526004016108cc93929190612c04565b60006040518083038186803b1580156108e457600080fd5b505af41580156108f8573d6000803e3d6000fd5b5050505061091b866020015188886040015189606001518a608001518787611135565b50505050505050565b7f000000000000000000000000000000000000000000000000000000000000000073ffffffffffffffffffffffffffffffffffffffff1663e2a4853a60405160200161096f9061276f565b6040516020818303038152906040528051906020012060006040518363ffffffff1660e01b81526004016109a49291906128a1565b6020604051808303816000875af11580156109c3573d6000803e3d6000fd5b505050506040513d601f19601f820116820180604052508101906109e791906127f9565b50565b6109f261228d565b610a09826000015183604001518460600151610cf4565b8260000183602001828152508290525050610a2d83826000015184608001516111b3565b610a3f816000015183608001516112c2565b846101000185610120018660a0018760c0018481525084815250848152508481525050505050610a838161010001518261012001518360a001518460c0015161153d565b806000015160200151816040019073ffffffffffffffffffffffffffffffffffffffff16908173ffffffffffffffffffffffffffffffffffffffff1681525050806040015173ffffffffffffffffffffffffffffffffffffffff16639dc29fac8484608001516040518363ffffffff1660e01b8152600401610b06929190612c3c565b600060405180830381600087803b158015610b2057600080fd5b505af1158015610b34573d6000803e3d6000fd5b50505050806040015173ffffffffffffffffffffffffffffffffffffffff1663078d3b7983604001518460a001518461010001516040518463ffffffff1660e01b8152600401610b8693929190612c65565b600060405180830381600087803b158015610ba057600080fd5b505af1158015610bb4573d6000803e3d6000fd5b50505050806040015173ffffffffffffffffffffffffffffffffffffffff1663078d3b7983606001518460a001518461012001516040518463ffffffff1660e01b8152600401610c0693929190612c65565b600060405180830381600087803b158015610c2057600080fd5b505af1158015610c34573d6000803e3d6000fd5b50505050610c4a82602001518260000151610f6a565b73__$e0022d6f389ac14ff1ce1dc57a4018d0a3$__63be6afc398360000151836020015184600001516040518463ffffffff1660e01b8152600401610c9193929190612c04565b60006040518083038186803b158015610ca957600080fd5b505af4158015610cbd573d6000803e3d6000fd5b50505050610cef8260200151848460400151856060015186608001518760a001518761010001518861012001516115d1565b505050565b610cfc6122ff565b600080610d098585611652565b9050600073__$e0022d6f389ac14ff1ce1dc57a4018d0a3$__637b82d74e88846040518363ffffffff1660e01b8152600401610d46929190612c9c565b61024060405180830381865af4158015610d64573d6000803e3d6000fd5b505050506040513d601f19601f82011682018060405250810190610d889190612f5a565b9050610d9481836116f0565b610d9d81611769565b8082935093505050935093915050565b6000821480610dbc5750600081145b15610df3576040517f6977ca0c00000000000000000000000000000000000000000000000000000000815260040160405180910390fd5b5050565b6000610e068685856001611915565b905060008573ffffffffffffffffffffffffffffffffffffffff166318160ddd6040518163ffffffff1660e01b8152600401602060405180830381865afa158015610e55573d6000803e3d6000fd5b505050506040513d601f19601f82011682018060405250810190610e7991906127f9565b905060008103610ef4578573ffffffffffffffffffffffffffffffffffffffff166340c10f1960006103e86040518363ffffffff1660e01b8152600401610ec1929190612c3c565b600060405180830381600087803b158015610edb57600080fd5b505af1158015610eef573d6000803e3d6000fd5b505050505b8573ffffffffffffffffffffffffffffffffffffffff166340c10f1984846040518363ffffffff1660e01b8152600401610f2f929190612c3c565b600060405180830381600087803b158015610f4957600080fd5b505af1158015610f5d573d6000803e3d6000fd5b5050505050505050505050565b610f72612360565b610f7d826000611a93565b826000018360200182815250828152505050816040015173ffffffffffffffffffffffffffffffffffffffff16634329759a60405180604001604052808460000151815260200184602001518152506040518263ffffffff1660e01b8152600401610fe89190612fc6565b602060405180830381865afa158015611005573d6000803e3d6000fd5b505050506040513d601f19601f8201168201806040525081019061102991906127f9565b8260000151600060ff166002811061104457611043612fe1565b5b6020020151604001818152505061105c826001611a93565b826000018360200182815250828152505050816040015173ffffffffffffffffffffffffffffffffffffffff16634329759a60405180604001604052808460000151815260200184602001518152506040518263ffffffff1660e01b81526004016110c79190612fc6565b602060405180830381865afa1580156110e4573d6000803e3d6000fd5b505050506040513d601f19601f8201168201806040525081019061110891906127f9565b8260000151600160ff166002811061112357611122612fe1565b5b60200201516040018181525050505050565b8673ffffffffffffffffffffffffffffffffffffffff16639ed486eb8787878787876040518763ffffffff1660e01b815260040161117896959493929190613010565b600060405180830381600087803b15801561119257600080fd5b505af11580156111a6573d6000803e3d6000fd5b5050505050505050505050565b600081036111ed576040517f5186591100000000000000000000000000000000000000000000000000000000815260040160405180910390fd5b60008260200151905060008173ffffffffffffffffffffffffffffffffffffffff166370a08231866040518263ffffffff1660e01b81526004016112319190612a16565b602060405180830381865afa15801561124e573d6000803e3d6000fd5b505050506040513d601f19601f8201168201806040525081019061127291906127f9565b9050808311156112bb5780836040517f5f504d200000000000000000000000000000000000000000000000000000000081526004016112b2929190613071565b60405180910390fd5b5050505050565b6000806000806112d061237a565b866020015173ffffffffffffffffffffffffffffffffffffffff166318160ddd6040518163ffffffff1660e01b8152600401602060405180830381865afa15801561131f573d6000803e3d6000fd5b505050506040513d601f19601f8201168201806040525081019061134391906127f9565b816020018181525050611357876000611ae3565b9050826040018360800182815250828152505050611376876001611ae3565b9050826060018360a0018281525082815250505061139d8682604001518360200151611b6e565b816101000181815250506113ba8682606001518360200151611b6e565b816101200181815250506114076040518060400160405280601081526020017f766172732e746f74616c537570706c79000000000000000000000000000000008152508260200151611c75565b61144a6040518060400160405280601281526020017f766172732e7072696365526573657276653000000000000000000000000000008152508260400151611c75565b61148d6040518060400160405280601281526020017f766172732e7072696365526573657276653100000000000000000000000000008152508260600151611c75565b6114d16040518060400160405280600c81526020017f766172732e616d6f756e74300000000000000000000000000000000000000000815250826101000151611c75565b6115156040518060400160405280600c81526020017f766172732e616d6f756e74310000000000000000000000000000000000000000815250826101200151611c75565b80610100015181610120015182608001518360a0015194509450945094505092959194509250565b818411156115845783826040517f1fc107c100000000000000000000000000000000000000000000000000000000815260040161157b929190613071565b60405180910390fd5b808311156115cb5782816040517f0e793baf0000000000000000000000000000000000000000000000000000000081526004016115c2929190613071565b60405180910390fd5b50505050565b8773ffffffffffffffffffffffffffffffffffffffff1663292ae722888888888888886040518863ffffffff1660e01b8152600401611616979695949392919061309a565b600060405180830381600087803b15801561163057600080fd5b505af1158015611644573d6000803e3d6000fd5b505050505050505050505050565b60008173ffffffffffffffffffffffffffffffffffffffff168373ffffffffffffffffffffffffffffffffffffffff161061168e578183611691565b82825b80935081945050506040516020016116a890613155565b6040516020818303038152906040528051906020012083836040516020016116d293929190613175565b60405160208183030381529060405280519060200120905092915050565b600073ffffffffffffffffffffffffffffffffffffffff16826020015173ffffffffffffffffffffffffffffffffffffffff160361176557806040517f7357d91f00000000000000000000000000000000000000000000000000000000815260040161175c91906127a8565b60405180910390fd5b5050565b6000611773611cc0565b9050808260800151036117865750611912565b60008260000151600060ff16600281106117a3576117a2612fe1565b5b602002015160a00151146118465760006117e48360000151600060ff16600281106117d1576117d0612fe1565b5b6020020151604001518460800151611cc8565b905061181c818460000151600060ff166002811061180557611804612fe1565b5b602002015160200151611d2390919063ffffffff16565b8360000151600060ff166002811061183757611836612fe1565b5b60200201516020018181525050505b60008260000151600160ff166002811061186357611862612fe1565b5b602002015160a00151146119065760006118a48360000151600160ff166002811061189157611890612fe1565b5b6020020151604001518460800151611cc8565b90506118dc818460000151600160ff16600281106118c5576118c4612fe1565b5b602002015160200151611d2390919063ffffffff16565b8360000151600160ff16600281106118f7576118f6612fe1565b5b60200201516020018181525050505b80826080018181525050505b50565b600061191f61237a565b856020015173ffffffffffffffffffffffffffffffffffffffff166318160ddd6040518163ffffffff1660e01b8152600401602060405180830381865afa15801561196e573d6000803e3d6000fd5b505050506040513d601f19601f8201168201806040525081019061199291906127f9565b8160200181815250506119a6866000611ae3565b9050508160c00181815250506119bd866001611ae3565b9050508160e00181815250508215611a0257848160c0018181516119e191906131db565b91508181525050838160e0018181516119fa91906131db565b915081815250505b6000816020015103611a4b57611a3d6103e8611a2f611a2a8789611d6e90919063ffffffff16565b611ddb565b611ed490919063ffffffff16565b816000018181525050611a83565b611a79611a618683602001518460c00151611b6e565b611a748684602001518560e00151611b6e565b611f2d565b8160000181815250505b8060000151915050949350505050565b6000806000611ac485600001518560ff1660028110611ab557611ab4612fe1565b5b60200201518660800151611f46565b90506000611ad28686611f8b565b905080829350935050509250929050565b60008060008085600001518560ff1660028110611b0357611b02612fe1565b5b602002015190506000611b168787611f8b565b905060008103611b325760008060009450945094505050611b67565b6000611b42838960800151611f46565b90508082611b50919061320f565b828284611b5d91906131db565b9550955095505050505b9250925092565b6000808385029050600080198587098281108382030391505060008103611ba957838281611b9f57611b9e613243565b5b0492505050611c6e565b808411611be2576040517f227bc15300000000000000000000000000000000000000000000000000000000815260040160405180910390fd5b600084868809905082811182039150808303925060008560000386169050808604955080840493506001818260000304019050808302841793506000600287600302189050808702600203810290508087026002038102905080870260020381029050808702600203810290508087026002038102905080870260020381029050808502955050505050505b9392505050565b6000611cbc57611cbb6040518060400160405280600681526020017f2573202d257300000000000000000000000000000000000000000000000000008152508383612078565b5b5050565b600042905090565b60008082611cd4611cc0565b611cde91906131db565b84611ce99190613272565b90506301e133808181611cff57611cfe613243565b5b049050806b033b2e3c9fd0803ce8000000611d1a919061320f565b91505092915050565b6000816b019d971e4fe8401e740000006000190304831115821517611d4757600080fd5b6b033b2e3c9fd0803ce80000006b019d971e4fe8401e740000008385020104905092915050565b600080821480611d96575082828385611d879190613272565b925082611d9491906132b4565b145b611dd5576040517f08c379a0000000000000000000000000000000000000000000000000000000008152600401611dcc90613331565b60405180910390fd5b92915050565b6000808203611ded5760009050611ecf565b60006001611dfa84612117565b901c6001901b90506001818481611e1457611e13613243565b5b048201901c90506001818481611e2d57611e2c613243565b5b048201901c90506001818481611e4657611e45613243565b5b048201901c90506001818481611e5f57611e5e613243565b5b048201901c90506001818481611e7857611e77613243565b5b048201901c90506001818481611e9157611e90613243565b5b048201901c90506001818481611eaa57611ea9613243565b5b048201901c9050611ecb81828581611ec557611ec4613243565b5b04611f2d565b9150505b919050565b6000828284611ee391906131db565b9150811115611f27576040517f08c379a0000000000000000000000000000000000000000000000000000000008152600401611f1e9061339d565b60405180910390fd5b92915050565b6000818310611f3c5781611f3e565b825b905092915050565b6000808360a0015103611f5c5760009050611f85565b6000611f6884846121f8565b9050611f81818560a00151611d2390919063ffffffff16565b9150505b92915050565b60008083600001518360ff1660028110611fa857611fa7612fe1565b5b602002015190506000846020015173ffffffffffffffffffffffffffffffffffffffff1663e42c08f283600001516040518263ffffffff1660e01b8152600401611ff29190612a16565b602060405180830381865afa15801561200f573d6000803e3d6000fd5b505050506040513d601f19601f8201168201806040525081019061203391906127f9565b90506000810361204857600092505050612072565b6000826060015190508260c00151818361206291906131db565b61206c91906131db565b93505050505b92915050565b612112838383604051602401612090939291906133bd565b6040516020818303038152906040527f5821efa1000000000000000000000000000000000000000000000000000000007bffffffffffffffffffffffffffffffffffffffffffffffffffffffff19166020820180517bffffffffffffffffffffffffffffffffffffffffffffffffffffffff8381831617835250505050612247565b505050565b600080600090506000608084901c111561213957608083901c92506080810190505b6000604084901c111561215457604083901c92506040810190505b6000602084901c111561216f57602083901c92506020810190505b6000601084901c111561218a57601083901c92506010810190505b6000600884901c11156121a557600883901c92506008810190505b6000600484901c11156121c057600483901c92506004810190505b6000600284901c11156121db57600283901c92506002810190505b6000600184901c11156121ef576001810190505b80915050919050565b6000612202611cc0565b82036122145782602001519050612241565b6000612224846040015184611cc8565b905061223d846020015182611d2390919063ffffffff16565b9150505b92915050565b61225e81612256612261612282565b63ffffffff16565b50565b60006a636f6e736f6c652e6c6f679050600080835160208501845afa505050565b6123cd819050919050565b6040518061014001604052806122a16122ff565b815260200160008019168152602001600073ffffffffffffffffffffffffffffffffffffffff168152602001600081526020016000815260200160008152602001600081526020016000815260200160008152602001600081525090565b6040518060a001604052806123126123d7565b8152602001600073ffffffffffffffffffffffffffffffffffffffff168152602001600073ffffffffffffffffffffffffffffffffffffffff16815260200160008152602001600081525090565b604051806040016040528060008152602001600081525090565b604051806101400160405280600081526020016000815260200160008152602001600081526020016000815260200160008152602001600081526020016000815260200160008152602001600081525090565b6123d5613402565b565b60405180604001604052806002905b6123ee612404565b8152602001906001900390816123e65790505090565b6040518060e00160405280600073ffffffffffffffffffffffffffffffffffffffff1681526020016000815260200160008152602001600081526020016000815260200160008152602001600081525090565b600073ffffffffffffffffffffffffffffffffffffffff82169050919050565b6000819050919050565b600061249c61249761249284612457565b612477565b612457565b9050919050565b60006124ae82612481565b9050919050565b60006124c0826124a3565b9050919050565b6124d0816124b5565b82525050565b60006020820190506124eb60008301846124c7565b92915050565b6000604051905090565b600080fd5b600061250b82612457565b9050919050565b61251b81612500565b811461252657600080fd5b50565b60008135905061253881612512565b92915050565b600080fd5b6000606082840312156125595761255861253e565b5b81905092915050565b60008060808385031215612579576125786124fb565b5b600061258785828601612529565b925050602061259885828601612543565b9150509250929050565b60006125ad826124a3565b9050919050565b6125bd816125a2565b82525050565b60006020820190506125d860008301846125b4565b92915050565b6000608082840312156125f4576125f361253e565b5b81905092915050565b60008060a08385031215612614576126136124fb565b5b600061262285828601612529565b9250506020612633858286016125de565b9150509250929050565b6000612648826124a3565b9050919050565b6126588161263d565b82525050565b6000602082019050612673600083018461264f565b92915050565b600082825260208201905092915050565b7f434f4e54524f4c4c455200000000000000000000000000000000000000000000600082015250565b60006126c0600a83612679565b91506126cb8261268a565b602082019050919050565b600060208201905081810360008301526126ef816126b3565b9050919050565b60006020828403121561270c5761270b6124fb565b5b600061271a84828501612529565b91505092915050565b7f5245454e5452414e43595f47554152445f535441545553000000000000000000600082015250565b6000612759601783612679565b915061276482612723565b602082019050919050565b600060208201905081810360008301526127888161274c565b9050919050565b6000819050919050565b6127a28161278f565b82525050565b60006020820190506127bd6000830184612799565b92915050565b6000819050919050565b6127d6816127c3565b81146127e157600080fd5b50565b6000815190506127f3816127cd565b92915050565b60006020828403121561280f5761280e6124fb565b5b600061281d848285016127e4565b91505092915050565b7f5265656e7472616e637947756172643a207265656e7472616e742063616c6c00600082015250565b600061285c601f83612679565b915061286782612826565b602082019050919050565b6000602082019050818103600083015261288b8161284f565b9050919050565b61289b816127c3565b82525050565b60006040820190506128b66000830185612799565b6128c36020830184612892565b9392505050565b6128d381612500565b82525050565b60006040820190506128ee60008301856128ca565b6128fb6020830184612799565b9392505050565b60008115159050919050565b61291781612902565b811461292257600080fd5b50565b6000815190506129348161290e565b92915050565b6000602082840312156129505761294f6124fb565b5b600061295e84828501612925565b91505092915050565b600081519050919050565b60005b83811015612990578082015181840152602081019050612975565b60008484015250505050565b6000601f19601f8301169050919050565b60006129b882612967565b6129c28185612679565b93506129d2818560208601612972565b6129db8161299c565b840191505092915050565b60006040820190506129fb60008301856128ca565b8181036020830152612a0d81846129ad565b90509392505050565b6000602082019050612a2b60008301846128ca565b92915050565b612a3a81612500565b82525050565b612a498161278f565b82525050565b600060029050919050565b600081905092915050565b6000819050919050565b612a7881612500565b82525050565b612a87816127c3565b82525050565b60e082016000820151612aa36000850182612a6f565b506020820151612ab66020850182612a7e565b506040820151612ac96040850182612a7e565b506060820151612adc6060850182612a7e565b506080820151612aef6080850182612a7e565b5060a0820151612b0260a0850182612a7e565b5060c0820151612b1560c0850182612a7e565b50505050565b6000612b278383612a8d565b60e08301905092915050565b6000602082019050919050565b612b4981612a4f565b612b538184612a5a565b9250612b5e82612a65565b8060005b83811015612b8f578151612b768782612b1b565b9650612b8183612b33565b925050600181019050612b62565b505050505050565b61024082016000820151612bae6000850182612b40565b506020820151612bc26101c0850182612a6f565b506040820151612bd66101e0850182612a6f565b506060820151612bea610200850182612a7e565b506080820151612bfe610220850182612a7e565b50505050565b600061028082019050612c1a6000830186612a31565b612c276020830185612a40565b612c346040830184612b97565b949350505050565b6000604082019050612c5160008301856128ca565b612c5e6020830184612892565b9392505050565b6000606082019050612c7a60008301866128ca565b612c8760208301856128ca565b612c946040830184612892565b949350505050565b6000604082019050612cb16000830185612a31565b612cbe6020830184612a40565b9392505050565b600080fd5b7f4e487b7100000000000000000000000000000000000000000000000000000000600052604160045260246000fd5b612d028261299c565b810181811067ffffffffffffffff82111715612d2157612d20612cca565b5b80604052505050565b6000612d346124f1565b9050612d408282612cf9565b919050565b600080fd5b600067ffffffffffffffff821115612d6557612d64612cca565b5b602082029050919050565b600080fd5b600081519050612d8481612512565b92915050565b600060e08284031215612da057612d9f612cc5565b5b612daa60e0612d2a565b90506000612dba84828501612d75565b6000830152506020612dce848285016127e4565b6020830152506040612de2848285016127e4565b6040830152506060612df6848285016127e4565b6060830152506080612e0a848285016127e4565b60808301525060a0612e1e848285016127e4565b60a08301525060c0612e32848285016127e4565b60c08301525092915050565b6000612e51612e4c84612d4a565b612d2a565b90508060e08402830185811115612e6b57612e6a612d70565b5b835b81811015612e945780612e808882612d8a565b84526020840193505060e081019050612e6d565b5050509392505050565b600082601f830112612eb357612eb2612d45565b5b6002612ec0848285612e3e565b91505092915050565b60006102408284031215612ee057612edf612cc5565b5b612eea60a0612d2a565b90506000612efa84828501612e9e565b6000830152506101c0612f0f84828501612d75565b6020830152506101e0612f2484828501612d75565b604083015250610200612f39848285016127e4565b606083015250610220612f4e848285016127e4565b60808301525092915050565b60006102408284031215612f7157612f706124fb565b5b6000612f7f84828501612ec9565b91505092915050565b612f91816127c3565b82525050565b604082016000820151612fad6000850182612f88565b506020820151612fc06020850182612f88565b50505050565b6000604082019050612fdb6000830184612f97565b92915050565b7f4e487b7100000000000000000000000000000000000000000000000000000000600052603260045260246000fd5b600060c08201905061302560008301896128ca565b61303260208301886128ca565b61303f60408301876128ca565b61304c60608301866128ca565b6130596080830185612892565b61306660a0830184612892565b979650505050505050565b60006040820190506130866000830185612892565b6130936020830184612892565b9392505050565b600060e0820190506130af600083018a6128ca565b6130bc60208301896128ca565b6130c960408301886128ca565b6130d66060830187612892565b6130e360808301866128ca565b6130f060a0830185612892565b6130fd60c0830184612892565b98975050505050505050565b7f504f4f4c00000000000000000000000000000000000000000000000000000000600082015250565b600061313f600483612679565b915061314a82613109565b602082019050919050565b6000602082019050818103600083015261316e81613132565b9050919050565b600060608201905061318a6000830186612799565b61319760208301856128ca565b6131a460408301846128ca565b949350505050565b7f4e487b7100000000000000000000000000000000000000000000000000000000600052601160045260246000fd5b60006131e6826127c3565b91506131f1836127c3565b9250828203905081811115613209576132086131ac565b5b92915050565b600061321a826127c3565b9150613225836127c3565b925082820190508082111561323d5761323c6131ac565b5b92915050565b7f4e487b7100000000000000000000000000000000000000000000000000000000600052601260045260246000fd5b600061327d826127c3565b9150613288836127c3565b9250828202613296816127c3565b915082820484148315176132ad576132ac6131ac565b5b5092915050565b60006132bf826127c3565b91506132ca836127c3565b9250826132da576132d9613243565b5b828204905092915050565b7f64732d6d6174682d6d756c2d6f766572666c6f77000000000000000000000000600082015250565b600061331b601483612679565b9150613326826132e5565b602082019050919050565b6000602082019050818103600083015261334a8161330e565b9050919050565b7f64732d6d6174682d7375622d756e646572666c6f770000000000000000000000600082015250565b6000613387601583612679565b915061339282613351565b602082019050919050565b600060208201905081810360008301526133b68161337a565b9050919050565b600060608201905081810360008301526133d781866129ad565b905081810360208301526133eb81856129ad565b90506133fa6040830184612892565b949350505050565b7f4e487b7100000000000000000000000000000000000000000000000000000000600052605160045260246000fdfea2646970667358221220c2272f68ccbaeeb60b6d16067b577af9fff8679c2b3a6e0efe5e9306541f353f64736f6c634300081c0033",
  "linkReferences": {
    "contracts/pool/PoolStoreUtils.sol": {
      "PoolStoreUtils": [
        {
          "length": 20,
          "start": 2835
        },
        {
          "length": 20,
          "start": 3792
        },
        {
          "length": 20,
          "start": 3987
        }
      ]
    }
  },
  "deployedLinkReferences": {
    "contracts/pool/PoolStoreUtils.sol": {
      "PoolStoreUtils": [
        {
          "length": 20,
          "start": 2191
        },
        {
          "length": 20,
          "start": 3148
        },
        {
          "length": 20,
          "start": 3343
        }
      ]
    }
  }
}