{
  "_format": "hh-sol-artifact-1",
  "contractName": "LiquidityHandler",
  "sourceName": "contracts/exchange/LiquidityHandler.sol",
  "abi": [
    {
      "inputs": [
        {
          "internalType": "contract RoleStore",
          "name": "_roleStore",
          "type": "address"
        },
        {
          "internalType": "contract DataStore",
          "name": "_dataStore",
          "type": "address"
        },
        {
          "internalType": "contract EventEmitter",
          "name": "_eventEmitter",
          "type": "address"
        }
      ],
      "stateMutability": "nonpayable",
      "type": "constructor"
    },
    {
      "inputs": [],
      "name": "EmptyAddAmounts",
      "type": "error"
    },
    {
      "inputs": [
        {
          "internalType": "bytes32",
          "name": "key",
          "type": "bytes32"
        }
      ],
      "name": "EmptyPool",
      "type": "error"
    },
    {
      "inputs": [],
      "name": "EmptyRemoveAmounts",
      "type": "error"
    },
    {
      "inputs": [
        {
          "internalType": "uint256",
          "name": "balance",
          "type": "uint256"
        },
        {
          "internalType": "uint256",
          "name": "liquidity",
          "type": "uint256"
        }
      ],
      "name": "InsufficientUserBalance",
      "type": "error"
    },
    {
      "inputs": [],
      "name": "MathOverflowedMulDiv",
      "type": "error"
    },
    {
      "inputs": [
        {
          "internalType": "uint256",
          "name": "amount0",
          "type": "uint256"
        },
        {
          "internalType": "uint256",
          "name": "availableReserve0",
          "type": "uint256"
        }
      ],
      "name": "Reserve0Insufficient",
      "type": "error"
    },
    {
      "inputs": [
        {
          "internalType": "uint256",
          "name": "amount1",
          "type": "uint256"
        },
        {
          "internalType": "uint256",
          "name": "availableReserve1",
          "type": "uint256"
        }
      ],
      "name": "Reserve1Insufficient",
      "type": "error"
    },
    {
      "inputs": [
        {
          "internalType": "address",
          "name": "msgSender",
          "type": "address"
        },
        {
          "internalType": "string",
          "name": "role",
          "type": "string"
        }
      ],
      "name": "Unauthorized",
      "type": "error"
    },
    {
      "inputs": [],
      "name": "dataStore",
      "outputs": [
        {
          "internalType": "contract DataStore",
          "name": "",
          "type": "address"
        }
      ],
      "stateMutability": "view",
      "type": "function"
    },
    {
      "inputs": [],
      "name": "eventEmitter",
      "outputs": [
        {
          "internalType": "contract EventEmitter",
          "name": "",
          "type": "address"
        }
      ],
      "stateMutability": "view",
      "type": "function"
    },
    {
      "inputs": [
        {
          "internalType": "address",
          "name": "account",
          "type": "address"
        },
        {
          "components": [
            {
              "internalType": "address",
              "name": "token0",
              "type": "address"
            },
            {
              "internalType": "address",
              "name": "token1",
              "type": "address"
            },
            {
              "internalType": "address",
              "name": "to",
              "type": "address"
            }
          ],
          "internalType": "struct LiquidityUtils.AddParams",
          "name": "AddParams",
          "type": "tuple"
        }
      ],
      "name": "executeAdd",
      "outputs": [],
      "stateMutability": "nonpayable",
      "type": "function"
    },
    {
      "inputs": [
        {
          "internalType": "address",
          "name": "account",
          "type": "address"
        },
        {
          "components": [
            {
              "internalType": "address",
              "name": "token0",
              "type": "address"
            },
            {
              "internalType": "address",
              "name": "token1",
              "type": "address"
            },
            {
              "internalType": "uint256",
              "name": "liquidity",
              "type": "uint256"
            },
            {
              "internalType": "address",
              "name": "to",
              "type": "address"
            }
          ],
          "internalType": "struct LiquidityUtils.RemoveParams",
          "name": "removeParams",
          "type": "tuple"
        }
      ],
      "name": "executeRemove",
      "outputs": [],
      "stateMutability": "nonpayable",
      "type": "function"
    },
    {
      "inputs": [],
      "name": "roleStore",
      "outputs": [
        {
          "internalType": "contract RoleStore",
          "name": "",
          "type": "address"
        }
      ],
      "stateMutability": "view",
      "type": "function"
    }
  ],
  "bytecode": "0x60e060405234801561001057600080fd5b50604051613e39380380613e39833981810160405281019061003291906101cb565b82828073ffffffffffffffffffffffffffffffffffffffff1660808173ffffffffffffffffffffffffffffffffffffffff1681525050508073ffffffffffffffffffffffffffffffffffffffff1660a08173ffffffffffffffffffffffffffffffffffffffff1681525050508073ffffffffffffffffffffffffffffffffffffffff1660c08173ffffffffffffffffffffffffffffffffffffffff168152505050505061021e565b600080fd5b600073ffffffffffffffffffffffffffffffffffffffff82169050919050565b600061010a826100df565b9050919050565b600061011c826100ff565b9050919050565b61012c81610111565b811461013757600080fd5b50565b60008151905061014981610123565b92915050565b600061015a826100ff565b9050919050565b61016a8161014f565b811461017557600080fd5b50565b60008151905061018781610161565b92915050565b6000610198826100ff565b9050919050565b6101a88161018d565b81146101b357600080fd5b50565b6000815190506101c58161019f565b92915050565b6000806000606084860312156101e4576101e36100da565b5b60006101f28682870161013a565b935050602061020386828701610178565b9250506040610214868287016101b6565b9150509250925092565b60805160a05160c051613bb5610284600039600081816101c80152818161037d015261046401526000818160f0015261065401526000818161018c015281816102a5015281816103410152818161048a0152818161058d01526109340152613bb56000f3fe608060405234801561001057600080fd5b50600436106100575760003560e01c80634a4a7b041461005c5780635ecd44e81461007a578063660d0d67146100965780637d237c99146100b45780639ff78c30146100d0575b600080fd5b6100646100ee565b60405161007191906129bb565b60405180910390f35b610094600480360381019061008f9190612a47565b610112565b005b61009e6102a3565b6040516100ab9190612aa8565b60405180910390f35b6100ce60048036038101906100c99190612ae2565b6102c7565b005b6100d8610462565b6040516100e59190612b43565b60405180910390f35b7f000000000000000000000000000000000000000000000000000000000000000081565b61011a610486565b61017d60405160200161012c90612bbb565b604051602081830303815290604052805190602001206040518060400160405280600a81526020017f434f4e54524f4c4c455200000000000000000000000000000000000000000000815250610652565b60006040518060a001604052807f000000000000000000000000000000000000000000000000000000000000000073ffffffffffffffffffffffffffffffffffffffff1681526020017f000000000000000000000000000000000000000000000000000000000000000073ffffffffffffffffffffffffffffffffffffffff1681526020018360000160208101906102159190612bdb565b73ffffffffffffffffffffffffffffffffffffffff1681526020018360200160208101906102439190612bdb565b73ffffffffffffffffffffffffffffffffffffffff1681526020018360400160208101906102719190612bdb565b73ffffffffffffffffffffffffffffffffffffffff1681525090506102968382610735565b5061029f610932565b5050565b7f000000000000000000000000000000000000000000000000000000000000000081565b6102cf610486565b6103326040516020016102e190612bbb565b604051602081830303815290604052805190602001206040518060400160405280600a81526020017f434f4e54524f4c4c455200000000000000000000000000000000000000000000815250610652565b60006040518060c001604052807f000000000000000000000000000000000000000000000000000000000000000073ffffffffffffffffffffffffffffffffffffffff1681526020017f000000000000000000000000000000000000000000000000000000000000000073ffffffffffffffffffffffffffffffffffffffff1681526020018360000160208101906103ca9190612bdb565b73ffffffffffffffffffffffffffffffffffffffff1681526020018360200160208101906103f89190612bdb565b73ffffffffffffffffffffffffffffffffffffffff168152602001836040013581526020018360600160208101906104309190612bdb565b73ffffffffffffffffffffffffffffffffffffffff16815250905061045583826109f8565b5061045e610932565b5050565b7f000000000000000000000000000000000000000000000000000000000000000081565b60007f000000000000000000000000000000000000000000000000000000000000000073ffffffffffffffffffffffffffffffffffffffff1663bd02d0f56040516020016104d390612c54565b604051602081830303815290604052805190602001206040518263ffffffff1660e01b81526004016105059190612c8d565b602060405180830381865afa158015610522573d6000803e3d6000fd5b505050506040513d601f19601f820116820180604052508101906105469190612cde565b90506000811461058b576040517f08c379a000000000000000000000000000000000000000000000000000000000815260040161058290612d57565b60405180910390fd5b7f000000000000000000000000000000000000000000000000000000000000000073ffffffffffffffffffffffffffffffffffffffff1663e2a4853a6040516020016105d690612c54565b6040516020818303038152906040528051906020012060016040518363ffffffff1660e01b815260040161060b929190612d86565b6020604051808303816000875af115801561062a573d6000803e3d6000fd5b505050506040513d601f19601f8201168201806040525081019061064e9190612cde565b5050565b7f000000000000000000000000000000000000000000000000000000000000000073ffffffffffffffffffffffffffffffffffffffff1663ac4ab3fb33846040518363ffffffff1660e01b81526004016106ad929190612dbe565b602060405180830381865afa1580156106ca573d6000803e3d6000fd5b505050506040513d601f19601f820116820180604052508101906106ee9190612e1f565b6107315733816040517fa35b150b000000000000000000000000000000000000000000000000000000008152600401610728929190612ecb565b60405180910390fd5b5050565b60008061074f836000015184604001518560600151610d07565b9150915060008260200151905060008173ffffffffffffffffffffffffffffffffffffffff1663352f9aed86604001516040518263ffffffff1660e01b815260040161079b9190612efb565b6020604051808303816000875af11580156107ba573d6000803e3d6000fd5b505050506040513d601f19601f820116820180604052508101906107de9190612cde565b905060008273ffffffffffffffffffffffffffffffffffffffff1663352f9aed87606001516040518263ffffffff1660e01b815260040161081f9190612efb565b6020604051808303816000875af115801561083e573d6000803e3d6000fd5b505050506040513d601f19601f820116820180604052508101906108629190612cde565b905061086e8282610dc0565b61087f858484848a60800151610e0a565b61088d866000015186610f7d565b61089b866020015186610fcf565b73__$e0022d6f389ac14ff1ce1dc57a4018d0a3$__63be6afc39876000015186886040518463ffffffff1660e01b81526004016108da939291906130e9565b60006040518083038186803b1580156108f257600080fd5b505af4158015610906573d6000803e3d6000fd5b50505050610929866020015188886040015189606001518a60800151878761102c565b50505050505050565b7f000000000000000000000000000000000000000000000000000000000000000073ffffffffffffffffffffffffffffffffffffffff1663e2a4853a60405160200161097d90612c54565b6040516020818303038152906040528051906020012060006040518363ffffffff1660e01b81526004016109b2929190612d86565b6020604051808303816000875af11580156109d1573d6000803e3d6000fd5b505050506040513d601f19601f820116820180604052508101906109f59190612cde565b50565b610a0061274f565b610a17826000015183604001518460600151610d07565b8260000183602001828152508290525050610a3b83826000015184608001516110aa565b610a528260000151826000015184608001516111b9565b846101000185610120018660a0018760c0018481525084815250848152508481525050505050610a968161010001518261012001518360a001518460c0015161145a565b806000015160200151816040019073ffffffffffffffffffffffffffffffffffffffff16908173ffffffffffffffffffffffffffffffffffffffff1681525050806040015173ffffffffffffffffffffffffffffffffffffffff16639dc29fac8484608001516040518363ffffffff1660e01b8152600401610b19929190613121565b600060405180830381600087803b158015610b3357600080fd5b505af1158015610b47573d6000803e3d6000fd5b50505050806040015173ffffffffffffffffffffffffffffffffffffffff1663078d3b7983604001518460a001518461010001516040518463ffffffff1660e01b8152600401610b999392919061314a565b600060405180830381600087803b158015610bb357600080fd5b505af1158015610bc7573d6000803e3d6000fd5b50505050806040015173ffffffffffffffffffffffffffffffffffffffff1663078d3b7983606001518460a001518461012001516040518463ffffffff1660e01b8152600401610c199392919061314a565b600060405180830381600087803b158015610c3357600080fd5b505af1158015610c47573d6000803e3d6000fd5b50505050610c5d82602001518260000151610fcf565b73__$e0022d6f389ac14ff1ce1dc57a4018d0a3$__63be6afc398360000151836020015184600001516040518463ffffffff1660e01b8152600401610ca4939291906130e9565b60006040518083038186803b158015610cbc57600080fd5b505af4158015610cd0573d6000803e3d6000fd5b50505050610d028260200151848460400151856060015186608001518760a001518761010001518861012001516114ee565b505050565b610d0f6127c1565b600080610d1c858561156f565b9050600073__$e0022d6f389ac14ff1ce1dc57a4018d0a3$__637b82d74e88846040518363ffffffff1660e01b8152600401610d59929190613181565b61024060405180830381865af4158015610d77573d6000803e3d6000fd5b505050506040513d601f19601f82011682018060405250810190610d9b919061343f565b9050610da7818361160d565b610db081611686565b8082935093505050935093915050565b6000821480610dcf5750600081145b15610e06576040517f6977ca0c00000000000000000000000000000000000000000000000000000000815260040160405180910390fd5b5050565b6000610e198685856001611832565b905060008573ffffffffffffffffffffffffffffffffffffffff166318160ddd6040518163ffffffff1660e01b8152600401602060405180830381865afa158015610e68573d6000803e3d6000fd5b505050506040513d601f19601f82011682018060405250810190610e8c9190612cde565b905060008103610f07578573ffffffffffffffffffffffffffffffffffffffff166340c10f1960006103e86040518363ffffffff1660e01b8152600401610ed4929190613121565b600060405180830381600087803b158015610eee57600080fd5b505af1158015610f02573d6000803e3d6000fd5b505050505b8573ffffffffffffffffffffffffffffffffffffffff166340c10f1984846040518363ffffffff1660e01b8152600401610f42929190613121565b600060405180830381600087803b158015610f5c57600080fd5b505af1158015610f70573d6000803e3d6000fd5b5050505050505050505050565b610f8a81606001516119bc565b610fcb57600080610f9b84846119ec565b91509150818110610fc857610fbe60018460600151611a5c90919063ffffffff16565b8360600181815250505b50505b5050565b610fd881611aa0565b8260000151600060ff1660028110610ff357610ff261346d565b5b60200201516040018360000151600160ff16600281106110165761101561346d565b5b6020020151604001828152508281525050505050565b8673ffffffffffffffffffffffffffffffffffffffff16639ed486eb8787878787876040518763ffffffff1660e01b815260040161106f9695949392919061349c565b600060405180830381600087803b15801561108957600080fd5b505af115801561109d573d6000803e3d6000fd5b5050505050505050505050565b600081036110e4576040517f5186591100000000000000000000000000000000000000000000000000000000815260040160405180910390fd5b60008260200151905060008173ffffffffffffffffffffffffffffffffffffffff166370a08231866040518263ffffffff1660e01b81526004016111289190612efb565b602060405180830381865afa158015611145573d6000803e3d6000fd5b505050506040513d601f19601f820116820180604052508101906111699190612cde565b9050808311156111b25780836040517f5f504d200000000000000000000000000000000000000000000000000000000081526004016111a99291906134fd565b60405180910390fd5b5050505050565b6000806000806111c7612822565b6111d088611cd9565b81610140018181525050866020015173ffffffffffffffffffffffffffffffffffffffff166318160ddd6040518163ffffffff1660e01b8152600401602060405180830381865afa158015611229573d6000803e3d6000fd5b505050506040513d601f19601f8201168201806040525081019061124d9190612cde565b81602001818152505061126887600080846101400151611d80565b909150508260400183608001828152508281525050506112918760016000846101400151611d80565b90915050826060018360a001828152508281525050506112ba8682604001518360200151611ea8565b816101000181815250506112d78682606001518360200151611ea8565b816101200181815250506113246040518060400160405280601081526020017f766172732e746f74616c537570706c79000000000000000000000000000000008152508260200151611faf565b6113676040518060400160405280601281526020017f766172732e7072696365526573657276653000000000000000000000000000008152508260400151611faf565b6113aa6040518060400160405280601281526020017f766172732e7072696365526573657276653100000000000000000000000000008152508260600151611faf565b6113ee6040518060400160405280600c81526020017f766172732e616d6f756e74300000000000000000000000000000000000000000815250826101000151611faf565b6114326040518060400160405280600c81526020017f766172732e616d6f756e74310000000000000000000000000000000000000000815250826101200151611faf565b80610100015181610120015182608001518360a0015194509450945094505093509350935093565b818411156114a15783826040517f1fc107c10000000000000000000000000000000000000000000000000000000081526004016114989291906134fd565b60405180910390fd5b808311156114e85782816040517f0e793baf0000000000000000000000000000000000000000000000000000000081526004016114df9291906134fd565b60405180910390fd5b50505050565b8773ffffffffffffffffffffffffffffffffffffffff1663292ae722888888888888886040518863ffffffff1660e01b81526004016115339796959493929190613526565b600060405180830381600087803b15801561154d57600080fd5b505af1158015611561573d6000803e3d6000fd5b505050505050505050505050565b60008173ffffffffffffffffffffffffffffffffffffffff168373ffffffffffffffffffffffffffffffffffffffff16106115ab5781836115ae565b82825b80935081945050506040516020016115c5906135e1565b6040516020818303038152906040528051906020012083836040516020016115ef93929190613601565b60405160208183030381529060405280519060200120905092915050565b600073ffffffffffffffffffffffffffffffffffffffff16826020015173ffffffffffffffffffffffffffffffffffffffff160361168257806040517f7357d91f0000000000000000000000000000000000000000000000000000000081526004016116799190612c8d565b60405180910390fd5b5050565b6000611690611ffa565b9050808260800151036116a3575061182f565b60008260000151600060ff16600281106116c0576116bf61346d565b5b602002015160a00151146117635760006117018360000151600060ff16600281106116ee576116ed61346d565b5b6020020151604001518460800151612002565b9050611739818460000151600060ff16600281106117225761172161346d565b5b60200201516020015161205d90919063ffffffff16565b8360000151600060ff16600281106117545761175361346d565b5b60200201516020018181525050505b60008260000151600160ff16600281106117805761177f61346d565b5b602002015160a00151146118235760006117c18360000151600160ff16600281106117ae576117ad61346d565b5b6020020151604001518460800151612002565b90506117f9818460000151600160ff16600281106117e2576117e161346d565b5b60200201516020015161205d90919063ffffffff16565b8360000151600160ff16600281106118145761181361346d565b5b60200201516020018181525050505b80826080018181525050505b50565b600061183c612822565b856020015173ffffffffffffffffffffffffffffffffffffffff166318160ddd6040518163ffffffff1660e01b8152600401602060405180830381865afa15801561188b573d6000803e3d6000fd5b505050506040513d601f19601f820116820180604052508101906118af9190612cde565b8160200181815250506118c6866000806000611d80565b9091509050508160c00181815250506118e3866001600080611d80565b9091509050508160e0018181525050821561192b57848160c00181815161190a9190613667565b91508181525050838160e0018181516119239190613667565b915081815250505b6000816020015103611974576119666103e861195861195387896120a890919063ffffffff16565b612115565b61220e90919063ffffffff16565b8160000181815250506119ac565b6119a261198a8683602001518460c00151611ea8565b61199d8684602001518560e00151611ea8565b612267565b8160000181815250505b8060000151915050949350505050565b6000807ffffffffffffffffffffffffffffffffffffffffffffffffffff7ffffffffffff19831614159050919050565b6000806000611a0084606001516000612280565b90506000611a0d866122f3565b90506000611a348284600a611a2291906137ce565b6b033b2e3c9fd0803ce8000000611ea8565b90506000611a46876000806000611d80565b5050509050818195509550505050509250929050565b6000603382611a6c576000611a6f565b60015b60ff16901b7ffffffffffffffffffffffffffffffffffffffffffffffffffff7ffffffffffff841617905092915050565b600080611aab61287c565b611ab684600061239a565b826000018360200182815250828152505050611ad784606001516000612280565b816060018181525050611b0b81600001516b033b2e3c9fd0803ce80000008360600151600a611b0691906137ce565b611ea8565b8160400181815250506000816020015103611b30576000816080018181525050611bde565b836040015173ffffffffffffffffffffffffffffffffffffffff1663fdd63ecf6040518060600160405280846000015181526020018460200151815260200184604001518152506040518263ffffffff1660e01b8152600401611b93919061386a565b602060405180830381865afa158015611bb0573d6000803e3d6000fd5b505050506040513d601f19601f82011682018060405250810190611bd49190612cde565b8160800181815250505b611be984600161239a565b8260000183602001828152508281525050506000816020015103611c175760008160a0018181525050611cc5565b836040015173ffffffffffffffffffffffffffffffffffffffff1663fdd63ecf6040518060600160405280846000015181526020018460200151815260200184604001518152506040518263ffffffff1660e01b8152600401611c7a919061386a565b602060405180830381865afa158015611c97573d6000803e3d6000fd5b505050506040513d601f19601f82011682018060405250810190611cbb9190612cde565b8160a00181815250505b80608001518160a001519250925050915091565b60008173ffffffffffffffffffffffffffffffffffffffff1663bd02d0f5604051602001611d06906138d1565b604051602081830303815290604052805190602001206040518263ffffffff1660e01b8152600401611d389190612c8d565b602060405180830381865afa158015611d55573d6000803e3d6000fd5b505050506040513d601f19601f82011682018060405250810190611d799190612cde565b9050919050565b600080600080600088600001518860ff1660028110611da257611da161346d565b5b602002015190506000611db58a8a6123ea565b905060008103611dd45760008060008095509550955095505050611e9d565b6000611de4838c608001516124f5565b90506000611dfb898361205d90919063ffffffff16565b90506000808a14611e2d57818410611e2557611e20828561220e90919063ffffffff16565b611e28565b60005b611e30565b60005b90506000611e478c8661205d90919063ffffffff16565b90506000808d14611e7957848210611e7157611e6c858361220e90919063ffffffff16565b611e74565b60005b611e7c565b60005b90508486611e8a91906138f1565b8684839a509a509a509a50505050505050505b945094509450949050565b6000808385029050600080198587098281108382030391505060008103611ee357838281611ed957611ed8613925565b5b0492505050611fa8565b808411611f1c576040517f227bc15300000000000000000000000000000000000000000000000000000000815260040160405180910390fd5b600084868809905082811182039150808303925060008560000386169050808604955080840493506001818260000304019050808302841793506000600287600302189050808702600203810290508087026002038102905080870260020381029050808702600203810290508087026002038102905080870260020381029050808502955050505050505b9392505050565b6000611ff657611ff56040518060400160405280600681526020017f2573202d25730000000000000000000000000000000000000000000000000000815250838361253a565b5b5050565b600042905090565b6000808261200e611ffa565b6120189190613667565b846120239190613954565b90506301e13380818161203957612038613925565b5b049050806b033b2e3c9fd0803ce800000061205491906138f1565b91505092915050565b6000816b019d971e4fe8401e74000000600019030483111582151761208157600080fd5b6b033b2e3c9fd0803ce80000006b019d971e4fe8401e740000008385020104905092915050565b6000808214806120d05750828283856120c19190613954565b9250826120ce9190613996565b145b61210f576040517f08c379a000000000000000000000000000000000000000000000000000000000815260040161210690613a13565b60405180910390fd5b92915050565b60008082036121275760009050612209565b60006001612134846125d9565b901c6001901b9050600181848161214e5761214d613925565b5b048201901c9050600181848161216757612166613925565b5b048201901c905060018184816121805761217f613925565b5b048201901c9050600181848161219957612198613925565b5b048201901c905060018184816121b2576121b1613925565b5b048201901c905060018184816121cb576121ca613925565b5b048201901c905060018184816121e4576121e3613925565b5b048201901c9050612205818285816121ff576121fe613925565b5b04612267565b9150505b919050565b600082828461221d9190613667565b9150811115612261576040517f08c379a000000000000000000000000000000000000000000000000000000000815260040161225890613a7f565b60405180910390fd5b92915050565b60008183106122765781612278565b825b905092915050565b6000807fffffffffffffffffffffffffffffffffffffffff00ffffffffffffffffffffff9050600060589050600160ff168460ff16036122e2577fffffffffffffffffffffffffffffffffffffff00ffffffffffffffffffffffff9150606090505b8082198616901c9250505092915050565b60008173ffffffffffffffffffffffffffffffffffffffff1663bd02d0f560405160200161232090613aeb565b604051602081830303815290604052805190602001206040518263ffffffff1660e01b81526004016123529190612c8d565b602060405180830381865afa15801561236f573d6000803e3d6000fd5b505050506040513d601f19601f820116820180604052508101906123939190612cde565b9050919050565b60008060006123cb85600001518560ff16600281106123bc576123bb61346d565b5b602002015186608001516124f5565b905060006123d986866123ea565b905080829350935050509250929050565b60008083600001518360ff16600281106124075761240661346d565b5b602002015190506000846020015173ffffffffffffffffffffffffffffffffffffffff1663e42c08f283600001516040518263ffffffff1660e01b81526004016124519190612efb565b602060405180830381865afa15801561246e573d6000803e3d6000fd5b505050506040513d601f19601f820116820180604052508101906124929190612cde565b9050600081036124a7576000925050506124ef565b6000826060015190508260c00151816124c091906138f1565b82106124e6578260c0015181836124d79190613667565b6124e19190613667565b6124e9565b60005b93505050505b92915050565b6000808360a001510361250b5760009050612534565b600061251784846126ba565b9050612530818560a0015161205d90919063ffffffff16565b9150505b92915050565b6125d483838360405160240161255293929190613b0b565b6040516020818303038152906040527f5821efa1000000000000000000000000000000000000000000000000000000007bffffffffffffffffffffffffffffffffffffffffffffffffffffffff19166020820180517bffffffffffffffffffffffffffffffffffffffffffffffffffffffff8381831617835250505050612709565b505050565b600080600090506000608084901c11156125fb57608083901c92506080810190505b6000604084901c111561261657604083901c92506040810190505b6000602084901c111561263157602083901c92506020810190505b6000601084901c111561264c57601083901c92506010810190505b6000600884901c111561266757600883901c92506008810190505b6000600484901c111561268257600483901c92506004810190505b6000600284901c111561269d57600283901c92506002810190505b6000600184901c11156126b1576001810190505b80915050919050565b60006126c4611ffa565b82036126d65782602001519050612703565b60006126e6846040015184612002565b90506126ff84602001518261205d90919063ffffffff16565b9150505b92915050565b61272081612718612723612744565b63ffffffff16565b50565b60006a636f6e736f6c652e6c6f679050600080835160208501845afa505050565b6128b2819050919050565b6040518061014001604052806127636127c1565b815260200160008019168152602001600073ffffffffffffffffffffffffffffffffffffffff168152602001600081526020016000815260200160008152602001600081526020016000815260200160008152602001600081525090565b6040518060a001604052806127d46128bc565b8152602001600073ffffffffffffffffffffffffffffffffffffffff168152602001600073ffffffffffffffffffffffffffffffffffffffff16815260200160008152602001600081525090565b60405180610160016040528060008152602001600081526020016000815260200160008152602001600081526020016000815260200160008152602001600081526020016000815260200160008152602001600081525090565b6040518060c001604052806000815260200160008152602001600081526020016000815260200160008152602001600081525090565b6128ba613b50565b565b60405180604001604052806002905b6128d36128e9565b8152602001906001900390816128cb5790505090565b6040518060e00160405280600073ffffffffffffffffffffffffffffffffffffffff1681526020016000815260200160008152602001600081526020016000815260200160008152602001600081525090565b600073ffffffffffffffffffffffffffffffffffffffff82169050919050565b6000819050919050565b600061298161297c6129778461293c565b61295c565b61293c565b9050919050565b600061299382612966565b9050919050565b60006129a582612988565b9050919050565b6129b58161299a565b82525050565b60006020820190506129d060008301846129ac565b92915050565b6000604051905090565b600080fd5b60006129f08261293c565b9050919050565b612a00816129e5565b8114612a0b57600080fd5b50565b600081359050612a1d816129f7565b92915050565b600080fd5b600060608284031215612a3e57612a3d612a23565b5b81905092915050565b60008060808385031215612a5e57612a5d6129e0565b5b6000612a6c85828601612a0e565b9250506020612a7d85828601612a28565b9150509250929050565b6000612a9282612988565b9050919050565b612aa281612a87565b82525050565b6000602082019050612abd6000830184612a99565b92915050565b600060808284031215612ad957612ad8612a23565b5b81905092915050565b60008060a08385031215612af957612af86129e0565b5b6000612b0785828601612a0e565b9250506020612b1885828601612ac3565b9150509250929050565b6000612b2d82612988565b9050919050565b612b3d81612b22565b82525050565b6000602082019050612b586000830184612b34565b92915050565b600082825260208201905092915050565b7f434f4e54524f4c4c455200000000000000000000000000000000000000000000600082015250565b6000612ba5600a83612b5e565b9150612bb082612b6f565b602082019050919050565b60006020820190508181036000830152612bd481612b98565b9050919050565b600060208284031215612bf157612bf06129e0565b5b6000612bff84828501612a0e565b91505092915050565b7f5245454e5452414e43595f47554152445f535441545553000000000000000000600082015250565b6000612c3e601783612b5e565b9150612c4982612c08565b602082019050919050565b60006020820190508181036000830152612c6d81612c31565b9050919050565b6000819050919050565b612c8781612c74565b82525050565b6000602082019050612ca26000830184612c7e565b92915050565b6000819050919050565b612cbb81612ca8565b8114612cc657600080fd5b50565b600081519050612cd881612cb2565b92915050565b600060208284031215612cf457612cf36129e0565b5b6000612d0284828501612cc9565b91505092915050565b7f5265656e7472616e637947756172643a207265656e7472616e742063616c6c00600082015250565b6000612d41601f83612b5e565b9150612d4c82612d0b565b602082019050919050565b60006020820190508181036000830152612d7081612d34565b9050919050565b612d8081612ca8565b82525050565b6000604082019050612d9b6000830185612c7e565b612da86020830184612d77565b9392505050565b612db8816129e5565b82525050565b6000604082019050612dd36000830185612daf565b612de06020830184612c7e565b9392505050565b60008115159050919050565b612dfc81612de7565b8114612e0757600080fd5b50565b600081519050612e1981612df3565b92915050565b600060208284031215612e3557612e346129e0565b5b6000612e4384828501612e0a565b91505092915050565b600081519050919050565b60005b83811015612e75578082015181840152602081019050612e5a565b60008484015250505050565b6000601f19601f8301169050919050565b6000612e9d82612e4c565b612ea78185612b5e565b9350612eb7818560208601612e57565b612ec081612e81565b840191505092915050565b6000604082019050612ee06000830185612daf565b8181036020830152612ef28184612e92565b90509392505050565b6000602082019050612f106000830184612daf565b92915050565b612f1f816129e5565b82525050565b612f2e81612c74565b82525050565b600060029050919050565b600081905092915050565b6000819050919050565b612f5d816129e5565b82525050565b612f6c81612ca8565b82525050565b60e082016000820151612f886000850182612f54565b506020820151612f9b6020850182612f63565b506040820151612fae6040850182612f63565b506060820151612fc16060850182612f63565b506080820151612fd46080850182612f63565b5060a0820151612fe760a0850182612f63565b5060c0820151612ffa60c0850182612f63565b50505050565b600061300c8383612f72565b60e08301905092915050565b6000602082019050919050565b61302e81612f34565b6130388184612f3f565b925061304382612f4a565b8060005b8381101561307457815161305b8782613000565b965061306683613018565b925050600181019050613047565b505050505050565b610240820160008201516130936000850182613025565b5060208201516130a76101c0850182612f54565b5060408201516130bb6101e0850182612f54565b5060608201516130cf610200850182612f63565b5060808201516130e3610220850182612f63565b50505050565b6000610280820190506130ff6000830186612f16565b61310c6020830185612f25565b613119604083018461307c565b949350505050565b60006040820190506131366000830185612daf565b6131436020830184612d77565b9392505050565b600060608201905061315f6000830186612daf565b61316c6020830185612daf565b6131796040830184612d77565b949350505050565b60006040820190506131966000830185612f16565b6131a36020830184612f25565b9392505050565b600080fd5b7f4e487b7100000000000000000000000000000000000000000000000000000000600052604160045260246000fd5b6131e782612e81565b810181811067ffffffffffffffff82111715613206576132056131af565b5b80604052505050565b60006132196129d6565b905061322582826131de565b919050565b600080fd5b600067ffffffffffffffff82111561324a576132496131af565b5b602082029050919050565b600080fd5b600081519050613269816129f7565b92915050565b600060e08284031215613285576132846131aa565b5b61328f60e061320f565b9050600061329f8482850161325a565b60008301525060206132b384828501612cc9565b60208301525060406132c784828501612cc9565b60408301525060606132db84828501612cc9565b60608301525060806132ef84828501612cc9565b60808301525060a061330384828501612cc9565b60a08301525060c061331784828501612cc9565b60c08301525092915050565b60006133366133318461322f565b61320f565b90508060e084028301858111156133505761334f613255565b5b835b818110156133795780613365888261326f565b84526020840193505060e081019050613352565b5050509392505050565b600082601f8301126133985761339761322a565b5b60026133a5848285613323565b91505092915050565b600061024082840312156133c5576133c46131aa565b5b6133cf60a061320f565b905060006133df84828501613383565b6000830152506101c06133f48482850161325a565b6020830152506101e06134098482850161325a565b60408301525061020061341e84828501612cc9565b60608301525061022061343384828501612cc9565b60808301525092915050565b60006102408284031215613456576134556129e0565b5b6000613464848285016133ae565b91505092915050565b7f4e487b7100000000000000000000000000000000000000000000000000000000600052603260045260246000fd5b600060c0820190506134b16000830189612daf565b6134be6020830188612daf565b6134cb6040830187612daf565b6134d86060830186612daf565b6134e56080830185612d77565b6134f260a0830184612d77565b979650505050505050565b60006040820190506135126000830185612d77565b61351f6020830184612d77565b9392505050565b600060e08201905061353b600083018a612daf565b6135486020830189612daf565b6135556040830188612daf565b6135626060830187612d77565b61356f6080830186612daf565b61357c60a0830185612d77565b61358960c0830184612d77565b98975050505050505050565b7f504f4f4c00000000000000000000000000000000000000000000000000000000600082015250565b60006135cb600483612b5e565b91506135d682613595565b602082019050919050565b600060208201905081810360008301526135fa816135be565b9050919050565b60006060820190506136166000830186612c7e565b6136236020830185612daf565b6136306040830184612daf565b949350505050565b7f4e487b7100000000000000000000000000000000000000000000000000000000600052601160045260246000fd5b600061367282612ca8565b915061367d83612ca8565b925082820390508181111561369557613694613638565b5b92915050565b60008160011c9050919050565b6000808291508390505b60018511156136f2578086048111156136ce576136cd613638565b5b60018516156136dd5780820291505b80810290506136eb8561369b565b94506136b2565b94509492505050565b60008261370b57600190506137c7565b8161371957600090506137c7565b816001811461372f576002811461373957613768565b60019150506137c7565b60ff84111561374b5761374a613638565b5b8360020a91508482111561376257613761613638565b5b506137c7565b5060208310610133831016604e8410600b841016171561379d5782820a90508381111561379857613797613638565b5b6137c7565b6137aa84848460016136a8565b925090508184048111156137c1576137c0613638565b5b81810290505b9392505050565b60006137d982612ca8565b91506137e483612ca8565b92506138117fffffffffffffffffffffffffffffffffffffffffffffffffffffffffffffffff84846136fb565b905092915050565b61382281612ca8565b82525050565b60608201600082015161383e6000850182613819565b5060208201516138516020850182613819565b5060408201516138646040850182613819565b50505050565b600060608201905061387f6000830184613828565b92915050565b7f5452414441424c455f444542545f4d554c5449504945525f464143544f520000600082015250565b60006138bb601e83612b5e565b91506138c682613885565b602082019050919050565b600060208201905081810360008301526138ea816138ae565b9050919050565b60006138fc82612ca8565b915061390783612ca8565b925082820190508082111561391f5761391e613638565b5b92915050565b7f4e487b7100000000000000000000000000000000000000000000000000000000600052601260045260246000fd5b600061395f82612ca8565b915061396a83612ca8565b925082820261397881612ca8565b9150828204841483151761398f5761398e613638565b5b5092915050565b60006139a182612ca8565b91506139ac83612ca8565b9250826139bc576139bb613925565b5b828204905092915050565b7f64732d6d6174682d6d756c2d6f766572666c6f77000000000000000000000000600082015250565b60006139fd601483612b5e565b9150613a08826139c7565b602082019050919050565b60006020820190508181036000830152613a2c816139f0565b9050919050565b7f64732d6d6174682d7375622d756e646572666c6f770000000000000000000000600082015250565b6000613a69601583612b5e565b9150613a7482613a33565b602082019050919050565b60006020820190508181036000830152613a9881613a5c565b9050919050565b7f53484f52545f4c49515549444954595f5448524553484f4c4400000000000000600082015250565b6000613ad5601983612b5e565b9150613ae082613a9f565b602082019050919050565b60006020820190508181036000830152613b0481613ac8565b9050919050565b60006060820190508181036000830152613b258186612e92565b90508181036020830152613b398185612e92565b9050613b486040830184612d77565b949350505050565b7f4e487b7100000000000000000000000000000000000000000000000000000000600052605160045260246000fdfea2646970667358221220810d781b33b55abaf7efcb2259cb2c41cb8e9ff5e779d003fd6823174065bedd64736f6c634300081c0033",
  "linkReferences": {
    "contracts/pool/PoolStoreUtils.sol": {
      "PoolStoreUtils": [
        {
          "length": 20,
          "start": 2849
        },
        {
          "length": 20,
          "start": 3811
        },
        {
          "length": 20,
          "start": 4006
        }
      ]
    }
  },
  "deployedLinkReferences": {
    "contracts/pool/PoolStoreUtils.sol": {
      "PoolStoreUtils": [
        {
          "length": 20,
          "start": 2205
        },
        {
          "length": 20,
          "start": 3167
        },
        {
          "length": 20,
          "start": 3362
        }
      ]
    }
  }
}