{
  "_format": "hh-sol-artifact-1",
  "contractName": "RepayUtils",
  "sourceName": "contracts/repay/RepayUtils.sol",
  "abi": [
    {
      "inputs": [
        {
          "internalType": "bytes32",
          "name": "key",
          "type": "bytes32"
        }
      ],
      "name": "EmptyPool",
      "type": "error"
    },
    {
      "inputs": [],
      "name": "EmptyRepayAmounts",
      "type": "error"
    },
    {
      "inputs": [
        {
          "internalType": "uint256",
          "name": "repayAmount",
          "type": "uint256"
        },
        {
          "internalType": "uint256",
          "name": "collateralAmount",
          "type": "uint256"
        }
      ],
      "name": "InsufficientCollateralAmountForRepay",
      "type": "error"
    },
    {
      "inputs": [],
      "name": "MathOverflowedMulDiv",
      "type": "error"
    },
    {
      "inputs": [
        {
          "internalType": "address",
          "name": "account",
          "type": "address"
        },
        {
          "internalType": "bytes32",
          "name": "positionKey",
          "type": "bytes32"
        }
      ],
      "name": "UserDoNotHaveDebtInPosition",
      "type": "error"
    },
    {
      "inputs": [],
      "name": "REPAYMENT_CLEAN",
      "outputs": [
        {
          "internalType": "uint8",
          "name": "",
          "type": "uint8"
        }
      ],
      "stateMutability": "view",
      "type": "function"
    },
    {
      "inputs": [],
      "name": "REPAYMENT_PARTIAL",
      "outputs": [
        {
          "internalType": "uint8",
          "name": "",
          "type": "uint8"
        }
      ],
      "stateMutability": "view",
      "type": "function"
    }
  ],
  "bytecode": "0x6126ad610052600b82828239805160001a6073146045577f4e487b7100000000000000000000000000000000000000000000000000000000600052600060045260246000fd5b30600052607381538281f3fe730000000000000000000000000000000000000000301460806040526004361061004b5760003560e01c806323536d67146100505780637e5c9f2714610079578063fbf7598414610097575b600080fd5b81801561005c57600080fd5b50610077600480360381019061007291906116e8565b6100b5565b005b610081610489565b60405161008e9190611744565b60405180910390f35b61009f61048e565b6040516100ac9190611744565b60405180910390f35b6100bd611406565b73__$91a1a7f12f728c8759f4be979bae55555f$__63f5c7898c848460000160208101906100eb919061175f565b85604001356040518463ffffffff1660e01b815260040161010e939291906117b4565b61026060405180830381865af415801561012c573d6000803e3d6000fd5b505050506040513d601f19601f820116820180604052508101906101509190611ae1565b82604001836060018281525082905250506101cc826000016020810190610177919061175f565b826040015160000151600060ff166002811061019657610195611b23565b5b602002015160000151836040015160000151600160ff16600281106101be576101bd611b23565b5b602002015160000151610493565b826000018360200182815250829052505081608001358160800181815250506102108160000151826040015184606001602081019061020b9190611b7e565b61054c565b8260e001836101000182815250828152505050600060ff168260a001602081019061023b9190611b7e565b60ff1603610253578061010001518160800181815250505b61027b8382600001518360400151846060015185608001518661010001518760e001516105fa565b600160ff168260600160208101906102939190611b7e565b60ff16036102fd576102a881600001516106cb565b816101200181815250506102fc8160400151600001518360600160208101906102d19190611b7e565b60ff16600281106102e5576102e4611b23565b5b602002015182610120015183608001516000610796565b5b61035a8160000151826040015184606001602081019061031d9190611b7e565b846080015161032b90611be4565b856080015161033990611be4565b600060ff168860a00160208101906103519190611b7e565b60ff1614610922565b73__$3d31b232fb363902662fbc281b11ab3357$__6370b5270e836000016020810190610387919061175f565b836060015184604001516040518463ffffffff1660e01b81526004016103af93929190611ddd565b60006040518083038186803b1580156103c757600080fd5b505af41580156103db573d6000803e3d6000fd5b505050506103ff8260200160208101906103f5919061175f565b8260000151610bf7565b73__$e0022d6f389ac14ff1ce1dc57a4018d0a3$__63be6afc3983600001602081019061042c919061175f565b836020015184600001516040518463ffffffff1660e01b815260040161045493929190611fac565b60006040518083038186803b15801561046c57600080fd5b505af4158015610480573d6000803e3d6000fd5b50505050505050565b600181565b600081565b61049b611497565b6000806104a88585610c11565b9050600073__$e0022d6f389ac14ff1ce1dc57a4018d0a3$__637b82d74e88846040518363ffffffff1660e01b81526004016104e5929190611fe4565b61024060405180830381865af4158015610503573d6000803e3d6000fd5b505050506040513d601f19601f820116820180604052508101906105279190612203565b90506105338183610caf565b61053c81610d28565b8082935093505050935093915050565b600080600084600001518460ff166002811061056b5761056a611b23565b5b602002015160400151905060006105a487600001518660ff166002811061059557610594611b23565b5b60200201518860800151610d6a565b9050600082146105c6576105c18183610db990919063ffffffff16565b6105c9565b60005b925085600001518560ff16600281106105e5576105e4611b23565b5b60200201516020015193505050935093915050565b600082036106415786846040517f31439e8900000000000000000000000000000000000000000000000000000000815260040161063892919061224f565b60405180910390fd5b6000830361067b576040517fc6d7c04d00000000000000000000000000000000000000000000000000000000815260040160405180910390fd5b828110156106c25782816040517f86c4ec210000000000000000000000000000000000000000000000000000000081526004016106b9929190612287565b60405180910390fd5b50505050505050565b6000806106d9836000610e04565b5050905060006106ea846001610e04565b505090506000810361070157600092505050610791565b600061071285606001516000610e8f565b9050600061072586606001516001610e8f565b9050600061074c856b033b2e3c9fd0803ce800000085600a61074791906123e3565b610f02565b90506000610773856b033b2e3c9fd0803ce800000085600a61076e91906123e3565b610f02565b9050610788818361100990919063ffffffff16565b96505050505050505b919050565b600260ff168460e00151036107cc57600160ff168460e0018181525050818460a00181815250508284606001818152505061091c565b600160ff168460e00151036108635760008460a001519050828560a0018181516107f6919061242e565b91508181525050811561085d5760006108188486610db990919063ffffffff16565b61082f838860600151610db990919063ffffffff16565b610839919061242e565b90506108528660a001518261100990919063ffffffff16565b866060018181525050505b5061091b565b600060ff168460e001510361091a57818460c00151111561089c57818460c0018181516108909190612462565b91508181525050610919565b818460c00151036108d057600260ff168460e001818152505060008460c00181815250506000846080018181525050610918565b600160ff168460e00181815250508360c00151826108ee9190612462565b8460a00181815250508284606001818152505060008460c001818152505060008460800181815250505b5b5b5b5b50505050565b600061092d84611050565b9050600084126109aa578086600001518660ff166002811061095257610951611b23565b5b6020020151602001818151610967919061242e565b915081815250508087600001518660ff166002811061098957610988611b23565b5b602002015160600181815161099e919061242e565b91508181525050610a19565b8086600001518660ff16600281106109c5576109c4611b23565b5b60200201516020018181516109da9190612462565b915081815250508087600001518660ff16600281106109fc576109fb611b23565b5b6020020151606001818151610a119190612462565b915081815250505b8115610aad57600086600001518660ff1660028110610a3b57610a3a611b23565b5b60200201516040015190508088600001518760ff1660028110610a6157610a60611b23565b5b602002015160a001818151610a769190612462565b91508181525050600087600001518760ff1660028110610a9957610a98611b23565b5b602002015160400181815250505050610bef565b60008303610abb5750610bef565b6000610ac684611050565b90506000610aff89600001518860ff1660028110610ae757610ae6611b23565b5b6020020151602001518361100990919063ffffffff16565b905060008512610b7c578088600001518860ff1660028110610b2457610b23611b23565b5b6020020151604001818151610b39919061242e565b915081815250508089600001518860ff1660028110610b5b57610b5a611b23565b5b602002015160a001818151610b70919061242e565b91508181525050610beb565b8088600001518860ff1660028110610b9757610b96611b23565b5b6020020151604001818151610bac9190612462565b915081815250508089600001518860ff1660028110610bce57610bcd611b23565b5b602002015160a001818151610be39190612462565b915081815250505b5050505b505050505050565b610c0281600061106c565b610c0d81600161106c565b5050565b60008173ffffffffffffffffffffffffffffffffffffffff168373ffffffffffffffffffffffffffffffffffffffff1610610c4d578183610c50565b82825b8093508194505050604051602001610c67906124f3565b604051602081830303815290604052805190602001208383604051602001610c9193929190612513565b60405160208183030381529060405280519060200120905092915050565b600073ffffffffffffffffffffffffffffffffffffffff16826020015173ffffffffffffffffffffffffffffffffffffffff1603610d2457806040517f7357d91f000000000000000000000000000000000000000000000000000000008152600401610d1b919061254a565b60405180910390fd5b5050565b6000610d32611156565b905080826080015103610d455750610d67565b610d5082600061115e565b610d5b82600061115e565b80826080018181525050505b50565b6000610d74611156565b8203610d865782602001519050610db3565b6000610d9684604001518461121e565b9050610daf846020015182610db990919063ffffffff16565b9150505b92915050565b6000816b019d971e4fe8401e740000006000190304831115821517610ddd57600080fd5b6b033b2e3c9fd0803ce80000006b019d971e4fe8401e740000008385020104905092915050565b60008060008085600001518560ff1660028110610e2457610e23611b23565b5b602002015190506000610e378787611279565b905060008103610e535760008060009450945094505050610e88565b6000610e63838960800151611366565b90508082610e71919061242e565b828284610e7e9190612462565b9550955095505050505b9250925092565b6000807fffffffffffffffffffffffffffffffffffffffff00ffffffffffffffffffffff9050600060589050600160ff168460ff1603610ef1577fffffffffffffffffffffffffffffffffffffff00ffffffffffffffffffffffff9150606090505b8082198616901c9250505092915050565b6000808385029050600080198587098281108382030391505060008103610f3d57838281610f3357610f32612565565b5b0492505050611002565b808411610f76576040517f227bc15300000000000000000000000000000000000000000000000000000000815260040160405180910390fd5b600084868809905082811182039150808303925060008560000386169050808604955080840493506001818260000304019050808302841793506000600287600302189050808702600203810290508087026002038102905080870260020381029050808702600203810290508087026002038102905080870260020381029050808502955050505050505b9392505050565b60006b033b2e3c9fd0803ce8000000600283046000190304831115158215171561103257600080fd5b81600283046b033b2e3c9fd0803ce800000085020104905092915050565b6000808212156110635781600003611065565b815b9050919050565b6110746114f8565b61107e83836113ab565b826000018360200182815250828152505050826040015173ffffffffffffffffffffffffffffffffffffffff16634329759a60405180604001604052808460200151815260200184600001518152506040518263ffffffff1660e01b81526004016110e991906125d2565b602060405180830381865afa158015611106573d6000803e3d6000fd5b505050506040513d601f19601f8201168201806040525081019061112a91906125ed565b83600001518360ff166002811061114457611143611b23565b5b60200201516040018181525050505050565b600042905090565b600082600001518260ff166002811061117a57611179611b23565b5b602002015160a001511461121a5760006111ba83600001518360ff16600281106111a7576111a6611b23565b5b602002015160400151846080015161121e565b90506111f18184600001518460ff16600281106111da576111d9611b23565b5b602002015160200151610db990919063ffffffff16565b83600001518360ff166002811061120b5761120a611b23565b5b60200201516020018181525050505b5050565b6000808261122a611156565b6112349190612462565b8461123f919061261a565b90506301e13380818161125557611254612565565b5b049050806b033b2e3c9fd0803ce8000000611270919061242e565b91505092915050565b60008083600001518360ff166002811061129657611295611b23565b5b602002015190506000846020015173ffffffffffffffffffffffffffffffffffffffff1663e42c08f283600001516040518263ffffffff1660e01b81526004016112e0919061265c565b602060405180830381865afa1580156112fd573d6000803e3d6000fd5b505050506040513d601f19601f8201168201806040525081019061132191906125ed565b90506000810361133657600092505050611360565b6000826060015190508260c0015181836113509190612462565b61135a9190612462565b93505050505b92915050565b6000808360a001510361137c57600090506113a5565b60006113888484610d6a565b90506113a1818560a00151610db990919063ffffffff16565b9150505b92915050565b60008060006113dc85600001518560ff16600281106113cd576113cc611b23565b5b60200201518660800151611366565b905060006113ea8686611279565b90508182826113f99190612462565b9350935050509250929050565b60405180610140016040528061141a611497565b815260200160008019168152602001611431611512565b81526020016000801916815260200160008152602001600073ffffffffffffffffffffffffffffffffffffffff168152602001600073ffffffffffffffffffffffffffffffffffffffff1681526020016000815260200160008152602001600081525090565b6040518060a001604052806114aa61154f565b8152602001600073ffffffffffffffffffffffffffffffffffffffff168152602001600073ffffffffffffffffffffffffffffffffffffffff16815260200160008152602001600081525090565b604051806040016040528060008152602001600081525090565b604051806060016040528061152561157c565b815260200160008152602001600073ffffffffffffffffffffffffffffffffffffffff1681525090565b60405180604001604052806002905b6115666115a9565b81526020019060019003908161155e5790505090565b60405180604001604052806002905b6115936115fc565b81526020019060019003908161158b5790505090565b6040518060e00160405280600073ffffffffffffffffffffffffffffffffffffffff1681526020016000815260200160008152602001600081526020016000815260200160008152602001600081525090565b604051806101000160405280600073ffffffffffffffffffffffffffffffffffffffff168152602001600081526020016000815260200160008152602001600081526020016000815260200160008152602001600081525090565b6000604051905090565b600080fd5b600073ffffffffffffffffffffffffffffffffffffffff82169050919050565b600061169182611666565b9050919050565b6116a181611686565b81146116ac57600080fd5b50565b6000813590506116be81611698565b92915050565b600080fd5b600060c082840312156116df576116de6116c4565b5b81905092915050565b60008060e083850312156116ff576116fe611661565b5b600061170d858286016116af565b925050602061171e858286016116c9565b9150509250929050565b600060ff82169050919050565b61173e81611728565b82525050565b60006020820190506117596000830184611735565b92915050565b60006020828403121561177557611774611661565b5b6000611783848285016116af565b91505092915050565b61179581611686565b82525050565b6000819050919050565b6117ae8161179b565b82525050565b60006060820190506117c9600083018661178c565b6117d6602083018561178c565b6117e360408301846117a5565b949350505050565b600080fd5b6000601f19601f8301169050919050565b7f4e487b7100000000000000000000000000000000000000000000000000000000600052604160045260246000fd5b611839826117f0565b810181811067ffffffffffffffff8211171561185857611857611801565b5b80604052505050565b600061186b611657565b90506118778282611830565b919050565b600080fd5b600067ffffffffffffffff82111561189c5761189b611801565b5b602082029050919050565b600080fd5b6000815190506118bb81611698565b92915050565b6118ca8161179b565b81146118d557600080fd5b50565b6000815190506118e7816118c1565b92915050565b60006101008284031215611904576119036117eb565b5b61190f610100611861565b9050600061191f848285016118ac565b6000830152506020611933848285016118d8565b6020830152506040611947848285016118d8565b604083015250606061195b848285016118d8565b606083015250608061196f848285016118d8565b60808301525060a0611983848285016118d8565b60a08301525060c0611997848285016118d8565b60c08301525060e06119ab848285016118d8565b60e08301525092915050565b60006119ca6119c584611881565b611861565b90508061010084028301858111156119e5576119e46118a7565b5b835b81811015611a0f57806119fa88826118ed565b845260208401935050610100810190506119e7565b5050509392505050565b600082601f830112611a2e57611a2d61187c565b5b6002611a3b8482856119b7565b91505092915050565b60006102408284031215611a5b57611a5a6117eb565b5b611a656060611861565b90506000611a7584828501611a19565b600083015250610200611a8a848285016118d8565b602083015250610220611a9f848285016118ac565b60408301525092915050565b6000819050919050565b611abe81611aab565b8114611ac957600080fd5b50565b600081519050611adb81611ab5565b92915050565b6000806102608385031215611af957611af8611661565b5b6000611b0785828601611a44565b925050610240611b1985828601611acc565b9150509250929050565b7f4e487b7100000000000000000000000000000000000000000000000000000000600052603260045260246000fd5b611b5b81611728565b8114611b6657600080fd5b50565b600081359050611b7881611b52565b92915050565b600060208284031215611b9457611b93611661565b5b6000611ba284828501611b69565b91505092915050565b6000819050919050565b7f4e487b7100000000000000000000000000000000000000000000000000000000600052601160045260246000fd5b6000611bef82611bab565b91507f80000000000000000000000000000000000000000000000000000000000000008203611c2157611c20611bb5565b5b816000039050919050565b611c3581611aab565b82525050565b600060029050919050565b600081905092915050565b6000819050919050565b611c6481611686565b82525050565b611c738161179b565b82525050565b61010082016000820151611c906000850182611c5b565b506020820151611ca36020850182611c6a565b506040820151611cb66040850182611c6a565b506060820151611cc96060850182611c6a565b506080820151611cdc6080850182611c6a565b5060a0820151611cef60a0850182611c6a565b5060c0820151611d0260c0850182611c6a565b5060e0820151611d1560e0850182611c6a565b50505050565b6000611d278383611c79565b6101008301905092915050565b6000602082019050919050565b611d4a81611c3b565b611d548184611c46565b9250611d5f82611c51565b8060005b83811015611d90578151611d778782611d1b565b9650611d8283611d34565b925050600181019050611d63565b505050505050565b61024082016000820151611daf6000850182611d41565b506020820151611dc3610200850182611c6a565b506040820151611dd7610220850182611c5b565b50505050565b600061028082019050611df3600083018661178c565b611e006020830185611c2c565b611e0d6040830184611d98565b949350505050565b600060029050919050565b600081905092915050565b6000819050919050565b60e082016000820151611e4b6000850182611c5b565b506020820151611e5e6020850182611c6a565b506040820151611e716040850182611c6a565b506060820151611e846060850182611c6a565b506080820151611e976080850182611c6a565b5060a0820151611eaa60a0850182611c6a565b5060c0820151611ebd60c0850182611c6a565b50505050565b6000611ecf8383611e35565b60e08301905092915050565b6000602082019050919050565b611ef181611e15565b611efb8184611e20565b9250611f0682611e2b565b8060005b83811015611f37578151611f1e8782611ec3565b9650611f2983611edb565b925050600181019050611f0a565b505050505050565b61024082016000820151611f566000850182611ee8565b506020820151611f6a6101c0850182611c5b565b506040820151611f7e6101e0850182611c5b565b506060820151611f92610200850182611c6a565b506080820151611fa6610220850182611c6a565b50505050565b600061028082019050611fc2600083018661178c565b611fcf6020830185611c2c565b611fdc6040830184611f3f565b949350505050565b6000604082019050611ff9600083018561178c565b6120066020830184611c2c565b9392505050565b600067ffffffffffffffff82111561202857612027611801565b5b602082029050919050565b600060e08284031215612049576120486117eb565b5b61205360e0611861565b90506000612063848285016118ac565b6000830152506020612077848285016118d8565b602083015250604061208b848285016118d8565b604083015250606061209f848285016118d8565b60608301525060806120b3848285016118d8565b60808301525060a06120c7848285016118d8565b60a08301525060c06120db848285016118d8565b60c08301525092915050565b60006120fa6120f58461200d565b611861565b90508060e08402830185811115612114576121136118a7565b5b835b8181101561213d57806121298882612033565b84526020840193505060e081019050612116565b5050509392505050565b600082601f83011261215c5761215b61187c565b5b60026121698482856120e7565b91505092915050565b60006102408284031215612189576121886117eb565b5b61219360a0611861565b905060006121a384828501612147565b6000830152506101c06121b8848285016118ac565b6020830152506101e06121cd848285016118ac565b6040830152506102006121e2848285016118d8565b6060830152506102206121f7848285016118d8565b60808301525092915050565b6000610240828403121561221a57612219611661565b5b600061222884828501612172565b91505092915050565b61223a81611686565b82525050565b61224981611aab565b82525050565b60006040820190506122646000830185612231565b6122716020830184612240565b9392505050565b6122818161179b565b82525050565b600060408201905061229c6000830185612278565b6122a96020830184612278565b9392505050565b60008160011c9050919050565b6000808291508390505b6001851115612307578086048111156122e3576122e2611bb5565b5b60018516156122f25780820291505b8081029050612300856122b0565b94506122c7565b94509492505050565b60008261232057600190506123dc565b8161232e57600090506123dc565b8160018114612344576002811461234e5761237d565b60019150506123dc565b60ff8411156123605761235f611bb5565b5b8360020a91508482111561237757612376611bb5565b5b506123dc565b5060208310610133831016604e8410600b84101617156123b25782820a9050838111156123ad576123ac611bb5565b5b6123dc565b6123bf84848460016122bd565b925090508184048111156123d6576123d5611bb5565b5b81810290505b9392505050565b60006123ee8261179b565b91506123f98361179b565b92506124267fffffffffffffffffffffffffffffffffffffffffffffffffffffffffffffffff8484612310565b905092915050565b60006124398261179b565b91506124448361179b565b925082820190508082111561245c5761245b611bb5565b5b92915050565b600061246d8261179b565b91506124788361179b565b92508282039050818111156124905761248f611bb5565b5b92915050565b600082825260208201905092915050565b7f504f4f4c00000000000000000000000000000000000000000000000000000000600082015250565b60006124dd600483612496565b91506124e8826124a7565b602082019050919050565b6000602082019050818103600083015261250c816124d0565b9050919050565b60006060820190506125286000830186612240565b6125356020830185612231565b6125426040830184612231565b949350505050565b600060208201905061255f6000830184612240565b92915050565b7f4e487b7100000000000000000000000000000000000000000000000000000000600052601260045260246000fd5b61259d8161179b565b82525050565b6040820160008201516125b96000850182612594565b5060208201516125cc6020850182612594565b50505050565b60006040820190506125e760008301846125a3565b92915050565b60006020828403121561260357612602611661565b5b6000612611848285016118d8565b91505092915050565b60006126258261179b565b91506126308361179b565b925082820261263e8161179b565b9150828204841483151761265557612654611bb5565b5b5092915050565b60006020820190506126716000830184612231565b9291505056fea2646970667358221220e23563412a5016ac286eb14267477721554b3c079af62beaa0fed7e64decfecb64736f6c634300081b0033",
  "linkReferences": {
    "contracts/pool/PoolStoreUtils.sol": {
      "PoolStoreUtils": [
        {
          "length": 20,
          "start": 1107
        },
        {
          "length": 20,
          "start": 1280
        }
      ]
    },
    "contracts/position/PositionStoreUtils.sol": {
      "PositionStoreUtils": [
        {
          "length": 20,
          "start": 942
        }
      ]
    },
    "contracts/position/PositionUtils.sol": {
      "PositionUtils": [
        {
          "length": 20,
          "start": 273
        }
      ]
    }
  },
  "deployedLinkReferences": {
    "contracts/pool/PoolStoreUtils.sol": {
      "PoolStoreUtils": [
        {
          "length": 20,
          "start": 1025
        },
        {
          "length": 20,
          "start": 1198
        }
      ]
    },
    "contracts/position/PositionStoreUtils.sol": {
      "PositionStoreUtils": [
        {
          "length": 20,
          "start": 860
        }
      ]
    },
    "contracts/position/PositionUtils.sol": {
      "PositionUtils": [
        {
          "length": 20,
          "start": 191
        }
      ]
    }
  }
}