{
  "_format": "hh-sol-artifact-1",
  "contractName": "RepayUtils",
  "sourceName": "contracts/repay/RepayUtils.sol",
  "abi": [
    {
      "inputs": [],
      "name": "REPAYMENT_CLEAN",
      "outputs": [
        {
          "internalType": "uint8",
          "name": "",
          "type": "uint8"
        }
      ],
      "stateMutability": "view",
      "type": "function"
    },
    {
      "inputs": [],
      "name": "REPAYMENT_PARTIAL",
      "outputs": [
        {
          "internalType": "uint8",
          "name": "",
          "type": "uint8"
        }
      ],
      "stateMutability": "view",
      "type": "function"
    }
  ],
  "bytecode": "0x60e9610051600b82828239805160001a6073146044577f4e487b7100000000000000000000000000000000000000000000000000000000600052600060045260246000fd5b30600052607381538281f3fe7300000000000000000000000000000000000000003014608060405260043610603d5760003560e01c80637e5c9f27146042578063fbf7598414605c575b600080fd5b60486076565b60405160539190609a565b60405180910390f35b6062607b565b604051606d9190609a565b60405180910390f35b600181565b600081565b600060ff82169050919050565b6094816080565b82525050565b600060208201905060ad6000830184608d565b9291505056fea2646970667358221220ad0b5815f83b4446e856acd97a46efd3ec7338e2d56f273428d794c15d8164b864736f6c634300081c0033",
  "linkReferences": {},
  "deployedLinkReferences": {}
}