{
  "_format": "hh-sol-artifact-1",
  "contractName": "ReaderPoolUtils",
  "sourceName": "contracts/reader/ReaderPoolUtils.sol",
  "abi": [
    {
      "inputs": [
        {
          "internalType": "bytes32",
          "name": "key",
          "type": "bytes32"
        }
      ],
      "name": "EmptyPool",
      "type": "error"
    },
    {
      "inputs": [],
      "name": "MathOverflowedMulDiv",
      "type": "error"
    },
    {
      "inputs": [],
      "name": "SingleTokenInOutSwapOnly",
      "type": "error"
    },
    {
      "inputs": [
        {
          "internalType": "address",
          "name": "dataStore",
          "type": "address"
        },
        {
          "internalType": "address",
          "name": "token0",
          "type": "address"
        },
        {
          "internalType": "address",
          "name": "token1",
          "type": "address"
        },
        {
          "internalType": "uint256",
          "name": "amountOut",
          "type": "uint256"
        },
        {
          "internalType": "uint8",
          "name": "tokenOutIndex",
          "type": "uint8"
        }
      ],
      "name": "calcAmountIn",
      "outputs": [
        {
          "internalType": "uint256",
          "name": "",
          "type": "uint256"
        },
        {
          "internalType": "uint256",
          "name": "",
          "type": "uint256"
        },
        {
          "internalType": "int256",
          "name": "",
          "type": "int256"
        }
      ],
      "stateMutability": "view",
      "type": "function"
    },
    {
      "inputs": [
        {
          "internalType": "address",
          "name": "dataStore",
          "type": "address"
        },
        {
          "internalType": "address",
          "name": "token0",
          "type": "address"
        },
        {
          "internalType": "address",
          "name": "token1",
          "type": "address"
        },
        {
          "internalType": "uint256",
          "name": "amountIn",
          "type": "uint256"
        },
        {
          "internalType": "uint8",
          "name": "tokenInIndex",
          "type": "uint8"
        }
      ],
      "name": "calcAmountOut",
      "outputs": [
        {
          "internalType": "uint256",
          "name": "",
          "type": "uint256"
        },
        {
          "internalType": "uint256",
          "name": "",
          "type": "uint256"
        },
        {
          "internalType": "int256",
          "name": "",
          "type": "int256"
        }
      ],
      "stateMutability": "view",
      "type": "function"
    },
    {
      "inputs": [
        {
          "internalType": "address",
          "name": "dataStore",
          "type": "address"
        },
        {
          "internalType": "address",
          "name": "token0",
          "type": "address"
        },
        {
          "internalType": "address",
          "name": "token1",
          "type": "address"
        },
        {
          "internalType": "uint256",
          "name": "amount0",
          "type": "uint256"
        },
        {
          "internalType": "uint256",
          "name": "amount1",
          "type": "uint256"
        }
      ],
      "name": "calcLiquidityOut",
      "outputs": [
        {
          "internalType": "uint256",
          "name": "",
          "type": "uint256"
        }
      ],
      "stateMutability": "view",
      "type": "function"
    },
    {
      "inputs": [
        {
          "internalType": "address",
          "name": "dataStore",
          "type": "address"
        },
        {
          "internalType": "address",
          "name": "token0",
          "type": "address"
        },
        {
          "internalType": "address",
          "name": "token1",
          "type": "address"
        },
        {
          "internalType": "uint256",
          "name": "liquidity",
          "type": "uint256"
        }
      ],
      "name": "calcTokenPairOut",
      "outputs": [
        {
          "internalType": "uint256",
          "name": "",
          "type": "uint256"
        },
        {
          "internalType": "uint256",
          "name": "",
          "type": "uint256"
        }
      ],
      "stateMutability": "view",
      "type": "function"
    },
    {
      "inputs": [
        {
          "internalType": "address",
          "name": "dataStore",
          "type": "address"
        },
        {
          "internalType": "uint256",
          "name": "start",
          "type": "uint256"
        },
        {
          "internalType": "uint256",
          "name": "end",
          "type": "uint256"
        }
      ],
      "name": "getPools",
      "outputs": [
        {
          "components": [
            {
              "components": [
                {
                  "internalType": "address",
                  "name": "token",
                  "type": "address"
                },
                {
                  "internalType": "string",
                  "name": "symbol",
                  "type": "string"
                },
                {
                  "internalType": "uint256",
                  "name": "decimals",
                  "type": "uint256"
                },
                {
                  "internalType": "uint256",
                  "name": "borrowIndex",
                  "type": "uint256"
                },
                {
                  "internalType": "uint256",
                  "name": "borrowApy",
                  "type": "uint256"
                },
                {
                  "internalType": "uint256",
                  "name": "totalCollateral",
                  "type": "uint256"
                },
                {
                  "internalType": "uint256",
                  "name": "totalCollateralWithDebt",
                  "type": "uint256"
                },
                {
                  "internalType": "uint256",
                  "name": "totalDebtScaled",
                  "type": "uint256"
                },
                {
                  "internalType": "uint256",
                  "name": "poolBalance",
                  "type": "uint256"
                },
                {
                  "internalType": "uint256",
                  "name": "priceLiquidity",
                  "type": "uint256"
                },
                {
                  "internalType": "uint256",
                  "name": "avaiableLoan",
                  "type": "uint256"
                },
                {
                  "internalType": "uint256",
                  "name": "actualTradable",
                  "type": "uint256"
                }
              ],
              "internalType": "struct ReaderPoolUtils.Asset[2]",
              "name": "assets",
              "type": "tuple[2]"
            },
            {
              "internalType": "address",
              "name": "bank",
              "type": "address"
            },
            {
              "internalType": "address",
              "name": "interestRateStrategy",
              "type": "address"
            },
            {
              "internalType": "uint256",
              "name": "configuration",
              "type": "uint256"
            },
            {
              "internalType": "uint256",
              "name": "lastUpdateTimestamp",
              "type": "uint256"
            },
            {
              "internalType": "uint256",
              "name": "priceDecimals",
              "type": "uint256"
            },
            {
              "internalType": "uint256",
              "name": "price",
              "type": "uint256"
            },
            {
              "internalType": "address",
              "name": "source",
              "type": "address"
            },
            {
              "internalType": "bool",
              "name": "shortEnabled",
              "type": "bool"
            },
            {
              "internalType": "uint256",
              "name": "createdTimestamp",
              "type": "uint256"
            },
            {
              "internalType": "uint256",
              "name": "unclaimedFee",
              "type": "uint256"
            },
            {
              "internalType": "uint256",
              "name": "memeMaxDepositAmount",
              "type": "uint256"
            },
            {
              "internalType": "uint256",
              "name": "averagePrice",
              "type": "uint256"
            }
          ],
          "internalType": "struct ReaderPoolUtils.GetPool[]",
          "name": "",
          "type": "tuple[]"
        }
      ],
      "stateMutability": "view",
      "type": "function"
    },
    {
      "inputs": [
        {
          "internalType": "address",
          "name": "dataStore",
          "type": "address"
        },
        {
          "internalType": "uint256",
          "name": "start",
          "type": "uint256"
        },
        {
          "internalType": "uint256",
          "name": "end",
          "type": "uint256"
        }
      ],
      "name": "getPoolsInfo",
      "outputs": [
        {
          "components": [
            {
              "components": [
                {
                  "internalType": "address",
                  "name": "token",
                  "type": "address"
                },
                {
                  "internalType": "string",
                  "name": "symbol",
                  "type": "string"
                },
                {
                  "internalType": "uint256",
                  "name": "decimals",
                  "type": "uint256"
                },
                {
                  "internalType": "uint256",
                  "name": "borrowIndex",
                  "type": "uint256"
                }
              ],
              "internalType": "struct ReaderPoolUtils.AssetInfo[2]",
              "name": "assets",
              "type": "tuple[2]"
            },
            {
              "internalType": "uint256",
              "name": "priceDecimals",
              "type": "uint256"
            },
            {
              "internalType": "uint256",
              "name": "price",
              "type": "uint256"
            }
          ],
          "internalType": "struct ReaderPoolUtils.GetPoolInfo[]",
          "name": "",
          "type": "tuple[]"
        }
      ],
      "stateMutability": "view",
      "type": "function"
    },
    {
      "inputs": [
        {
          "internalType": "address",
          "name": "dataStore",
          "type": "address"
        },
        {
          "internalType": "bytes32[]",
          "name": "poolKeys",
          "type": "bytes32[]"
        }
      ],
      "name": "getPoolsInfo",
      "outputs": [
        {
          "components": [
            {
              "components": [
                {
                  "internalType": "address",
                  "name": "token",
                  "type": "address"
                },
                {
                  "internalType": "string",
                  "name": "symbol",
                  "type": "string"
                },
                {
                  "internalType": "uint256",
                  "name": "decimals",
                  "type": "uint256"
                },
                {
                  "internalType": "uint256",
                  "name": "borrowIndex",
                  "type": "uint256"
                }
              ],
              "internalType": "struct ReaderPoolUtils.AssetInfo[2]",
              "name": "assets",
              "type": "tuple[2]"
            },
            {
              "internalType": "uint256",
              "name": "priceDecimals",
              "type": "uint256"
            },
            {
              "internalType": "uint256",
              "name": "price",
              "type": "uint256"
            }
          ],
          "internalType": "struct ReaderPoolUtils.GetPoolInfo[]",
          "name": "",
          "type": "tuple[]"
        }
      ],
      "stateMutability": "view",
      "type": "function"
    }
  ],
  "bytecode": "0x615e1f610052600b82828239805160001a6073146045577f4e487b7100000000000000000000000000000000000000000000000000000000600052600060045260246000fd5b30600052607381538281f3fe73000000000000000000000000000000000000000030146080604052600436106100875760003560e01c8063c2bdeda111610065578063c2bdeda11461011d578063d28b0a151461014f578063eed0742814610181578063f68a7131146101b157610087565b8063317b50ec1461008c578063382fc72e146100bd5780638f6c7a3c146100ed575b600080fd5b6100a660048036038101906100a19190614170565b6101e1565b6040516100b49291906141e6565b60405180910390f35b6100d760048036038101906100d2919061420f565b610298565b6040516100e4919061453b565b60405180910390f35b6101076004803603810190610102919061420f565b61033b565b604051610114919061490d565b60405180910390f35b61013760048036038101906101329190614968565b610458565b604051610146939291906149fc565b60405180910390f35b61016960048036038101906101649190614968565b610605565b604051610178939291906149fc565b60405180910390f35b61019b60048036038101906101969190614bb1565b6107b6565b6040516101a8919061453b565b60405180910390f35b6101cb60048036038101906101c69190614c0d565b6108c3565b6040516101d89190614c88565b60405180910390f35b60008060006101f0868661096b565b9050600073__$e0022d6f389ac14ff1ce1dc57a4018d0a3$__637b82d74e89846040518363ffffffff1660e01b815260040161022d929190614cc1565b61024060405180830381865af415801561024b573d6000803e3d6000fd5b505050506040513d601f19601f8201168201806040525081019061026f9190614f0f565b905060008061027f8a8489610a09565b5050915091508181955095505050505094509492505050565b60606102d96040518060400160405280601381526020017f676574506f6f6c73496e666f302073746172740000000000000000000000000081525084610ccb565b6103186040518060400160405280601181526020017f676574506f6f6c73496e666f3020656e6400000000000000000000000000000081525083610ccb565b6000610325858585610d16565b90506103318582610dc8565b9150509392505050565b6060600061034a858585610d16565b90506000815167ffffffffffffffff81111561036957610368614a38565b5b6040519080825280602002602001820160405280156103a257816020015b61038f613c4e565b8152602001906001900390816103875790505b50905060005b825181101561044b5760008382815181106103c6576103c5614f3d565b5b6020026020010151905061040f6040518060400160405280600781526020017f706f6f6c4b65790000000000000000000000000000000000000000000000000081525082610e95565b600061041b8983610ee8565b90508084848151811061043157610430614f3d565b5b6020026020010181905250505080806001019150506103a8565b5080925050509392505050565b600080600080610468888861096b565b9050600073__$e0022d6f389ac14ff1ce1dc57a4018d0a3$__637b82d74e8b846040518363ffffffff1660e01b81526004016104a5929190614cc1565b61024060405180830381865af41580156104c3573d6000803e3d6000fd5b505050506040513d601f19601f820116820180604052508101906104e79190614f0f565b905060008060008060ff168960ff1603610529576105068d8b866116f1565b90915090508093508194505050610522846000858d600061186f565b9050610561565b600160ff168960ff1603610560576105428d8b86611996565b9091509050809350819450505061055d84846000808e61186f565b90505b5b6000810361057e57600080600097509750975050505050506105fa565b600061058985611b1d565b905060008282116105a55781836105a09190614f9b565b6105b2565b82826105b19190614f9b565b5b905060006105c98383611c0790919063ffffffff16565b905060008484116105e357816105de90614fcf565b6105e5565b815b90508686829b509b509b505050505050505050505b955095509592505050565b600080600080610615888861096b565b9050600073__$e0022d6f389ac14ff1ce1dc57a4018d0a3$__637b82d74e8b846040518363ffffffff1660e01b8152600401610652929190614cc1565b61024060405180830381865af4158015610670573d6000803e3d6000fd5b505050506040513d601f19601f820116820180604052508101906106949190614f0f565b905060008060008060ff168960ff16036106d7576106b58d8b866000611c4e565b909150905080935081945050506106d0848b6000808761186f565b9050610712565b600160ff168960ff1603610711576106f28d8b866000611dee565b9091509050809350819450505061070e8460008c86600061186f565b90505b5b6000810361072f57600080600097509750975050505050506107ab565b600061073a85611b1d565b905060008282116107565781836107519190614f9b565b610763565b82826107629190614f9b565b5b9050600061077a8383611c0790919063ffffffff16565b90506000848411610794578161078f90614fcf565b610796565b815b90508686829b509b509b505050505050505050505b955095509592505050565b60606107f86040518060400160405280600d81526020017f676574506f6f6c73496e666f32000000000000000000000000000000000000008152508351610ccb565b6000825167ffffffffffffffff81111561081557610814614a38565b5b60405190808252806020026020018201604052801561084e57816020015b61083b613d00565b8152602001906001900390816108335790505b50905060005b83518110156108b857600084828151811061087257610871614f3d565b5b6020026020010151905060006108888783611f82565b90508084848151811061089e5761089d614f3d565b5b602002602001018190525050508080600101915050610854565b508091505092915050565b6000806108d0868661096b565b9050600073__$e0022d6f389ac14ff1ce1dc57a4018d0a3$__637b82d74e89846040518363ffffffff1660e01b815260040161090d929190614cc1565b61024060405180830381865af415801561092b573d6000803e3d6000fd5b505050506040513d601f19601f8201168201806040525081019061094f9190614f0f565b905061095e81868660006124c0565b9250505095945050505050565b60008173ffffffffffffffffffffffffffffffffffffffff168373ffffffffffffffffffffffffffffffffffffffff16106109a75781836109aa565b82825b80935081945050506040516020016109c190615074565b6040516020818303038152906040528051906020012083836040516020016109eb939291906150b2565b60405160208183030381529060405280519060200120905092915050565b600080600080610a17613d27565b610a2088612671565b81610140018181525050866020015173ffffffffffffffffffffffffffffffffffffffff166318160ddd6040518163ffffffff1660e01b8152600401602060405180830381865afa158015610a79573d6000803e3d6000fd5b505050506040513d601f19601f82011682018060405250810190610a9d91906150e9565b816020018181525050610ab887600080846101400151612718565b90915050826040018360800182815250828152505050610ae18760016000846101400151612718565b90915050826060018360a001828152508281525050506000816020015103610b1757600080600080945094509450945050610cc2565b610b2a8682604001518360200151612840565b81610100018181525050610b478682606001518360200151612840565b81610120018181525050610b946040518060400160405280601081526020017f766172732e746f74616c537570706c79000000000000000000000000000000008152508260200151610ccb565b610bd76040518060400160405280601281526020017f766172732e7072696365526573657276653000000000000000000000000000008152508260400151610ccb565b610c1a6040518060400160405280601281526020017f766172732e7072696365526573657276653100000000000000000000000000008152508260600151610ccb565b610c5e6040518060400160405280600c81526020017f766172732e616d6f756e74300000000000000000000000000000000000000000815250826101000151610ccb565b610ca26040518060400160405280600c81526020017f766172732e616d6f756e74310000000000000000000000000000000000000000815250826101200151610ccb565b80610100015181610120015182608001518360a001519450945094509450505b93509350935093565b6000610d1257610d116040518060400160405280600681526020017f2573202d257300000000000000000000000000000000000000000000000000008152508383612947565b5b5050565b60608373ffffffffffffffffffffffffffffffffffffffff1663f069052a604051602001610d4390615162565b6040516020818303038152906040528051906020012085856040518463ffffffff1660e01b8152600401610d7993929190615191565b600060405180830381865afa158015610d96573d6000803e3d6000fd5b505050506040513d6000823e3d601f19601f82011682018060405250810190610dbf9190615274565b90509392505050565b60606000825167ffffffffffffffff811115610de757610de6614a38565b5b604051908082528060200260200182016040528015610e2057816020015b610e0d613d00565b815260200190600190039081610e055790505b50905060005b8351811015610e8a576000848281518110610e4457610e43614f3d565b5b602002602001015190506000610e5a8783611f82565b905080848481518110610e7057610e6f614f3d565b5b602002602001018190525050508080600101915050610e26565b508091505092915050565b6000610ee457610ee36040518060400160405280600681526020017f2573202d2573000000000000000000000000000000000000000000000000000081525083610ede846129e6565b612a17565b5b5050565b610ef0613c4e565b610ef8613d81565b73__$e0022d6f389ac14ff1ce1dc57a4018d0a3$__637b82d74e85856040518363ffffffff1660e01b8152600401610f31929190614cc1565b61024060405180830381865af4158015610f4f573d6000803e3d6000fd5b505050506040513d601f19601f82011682018060405250810190610f739190614f0f565b8160000181905250610f8484612ab6565b816020018181525050610f9684612671565b81610180018181525050610fba816000015160008360200151846101800151612718565b84606001856040018660a001876080018481525084815250848152508481525050505050610ff8816000015160018360200151846101800151612718565b84610100018560e00186610140018761012001848152508481525084815250848152505050505061102c8160000151612b5d565b8260c001836101600182815250828152505050604051806101a001604052806040518060400160405280604051806101800160405280866000015160000151600060ff166002811061108157611080614f3d565b5b60200201516000015173ffffffffffffffffffffffffffffffffffffffff168152602001866000015160000151600060ff16600281106110c4576110c3614f3d565b5b60200201516000015173ffffffffffffffffffffffffffffffffffffffff166395d89b416040518163ffffffff1660e01b8152600401600060405180830381865afa158015611117573d6000803e3d6000fd5b505050506040513d6000823e3d601f19601f820116820180604052508101906111409190615363565b8152602001866000015160000151600060ff166002811061116457611163614f3d565b5b60200201516000015173ffffffffffffffffffffffffffffffffffffffff1663313ce5676040518163ffffffff1660e01b8152600401602060405180830381865afa1580156111b7573d6000803e3d6000fd5b505050506040513d601f19601f820116820180604052508101906111db91906153c1565b60ff168152602001866000015160000151600060ff166002811061120257611201614f3d565b5b60200201516020015181526020018660c001518152602001866000015160000151600060ff166002811061123957611238614f3d565b5b6020020151606001518152602001866000015160000151600060ff166002811061126657611265614f3d565b5b6020020151608001518152602001866000015160000151600060ff166002811061129357611292614f3d565b5b602002015160a0015181526020018660400151815260200186606001518152602001866080015181526020018660a001518152508152602001604051806101800160405280866000015160000151600160ff16600281106112f7576112f6614f3d565b5b60200201516000015173ffffffffffffffffffffffffffffffffffffffff168152602001866000015160000151600160ff166002811061133a57611339614f3d565b5b60200201516000015173ffffffffffffffffffffffffffffffffffffffff166395d89b416040518163ffffffff1660e01b8152600401600060405180830381865afa15801561138d573d6000803e3d6000fd5b505050506040513d6000823e3d601f19601f820116820180604052508101906113b69190615363565b8152602001866000015160000151600160ff16600281106113da576113d9614f3d565b5b60200201516000015173ffffffffffffffffffffffffffffffffffffffff1663313ce5676040518163ffffffff1660e01b8152600401602060405180830381865afa15801561142d573d6000803e3d6000fd5b505050506040513d601f19601f8201168201806040525081019061145191906153c1565b60ff168152602001866000015160000151600160ff166002811061147857611477614f3d565b5b60200201516020015181526020018661016001518152602001866000015160000151600160ff16600281106114b0576114af614f3d565b5b6020020151606001518152602001866000015160000151600160ff16600281106114dd576114dc614f3d565b5b6020020151608001518152602001866000015160000151600160ff166002811061150a57611509614f3d565b5b602002015160a0015181526020018660e00151815260200186610100015181526020018661012001518152602001866101400151815250815250815260200182600001516020015173ffffffffffffffffffffffffffffffffffffffff16815260200182600001516040015173ffffffffffffffffffffffffffffffffffffffff16815260200182600001516060015181526020018260000151608001518152602001601b60ff1681526020016115c48360000151611b1d565b81526020016115d38686612d96565b73ffffffffffffffffffffffffffffffffffffffff1681526020016115ff836000015160600151612e74565b151581526020016116108686612ea4565b8152602001826000015160000151600060ff166002811061163457611633614f3d565b5b602002015160c001518152602001611653868460000151600080612f82565b815260200173__$298f7a26f5551156800138e763233ed11a$__63d46cdf328785600001516040518363ffffffff1660e01b8152600401611695929190615585565b602060405180830381865af41580156116b2573d6000803e3d6000fd5b505050506040513d601f19601f820116820180604052508101906116d691906150e9565b815250816101a00181905250806101a0015191505092915050565b6000806000806116ff613dfc565b61170888612671565b816101c001818152505061172486600080846101c00151612718565b9091505082600001836040018281525082815250505061174d8660016000846101c00151612718565b9091505082602001836060018281525082815250505060008160000151148061177a575060008160200151145b1561179357600080600080945094509450945050611866565b6117a086606001516130fc565b816101400181815250506117d0876117c883610140015161271061312d90919063ffffffff16565b612710612840565b8161018001818152505061180881600001518260200151611803846101800151856000015161312d90919063ffffffff16565b612840565b81608001818152505061182c8160200151826080015161312d90919063ffffffff16565b8160e00181815250508060e001518160400151826060015161185c8461014001518b61318690919063ffffffff16565b9450945094509450505b93509350935093565b600080600080861180156118835750600084145b15611893578491508590506118e6565b6000871180156118a35750600085145b156118b3578691508390506118e5565b6040517f6331fab100000000000000000000000000000000000000000000000000000000815260040160405180910390fd5b5b60006118f7896060015160006131b3565b9050600061190a8a6060015160016131b3565b90506000611931856b033b2e3c9fd0803ce800000085600a61192c91906156e2565b612840565b90506000611958856b033b2e3c9fd0803ce800000085600a61195391906156e2565b612840565b905060008103611971576000965050505050505061198d565b6119848183611c0790919063ffffffff16565b96505050505050505b95945050505050565b6000806000806119a4613dfc565b6119ad88612671565b816101c00181815250506119c986600080846101c00151612718565b909150508260000183604001828152508281525050506119f28660016000846101c00151612718565b90915050826020018360600182815250828152505050600081600001511480611a1f575060008160200151145b15611a3857600080600080945094509450945050611b14565b611a6181600001518260200151611a5c8a856020015161312d90919063ffffffff16565b612840565b81610100018181525050611a87816000015182610100015161312d90919063ffffffff16565b81610120018181525050611a9e86606001516130fc565b81610140018181525050611ad3816101200151612710611ace84610140015161271061312d90919063ffffffff16565b612840565b816101a0018181525050806101a0015181604001518260600151611b0a84610140015185610120015161318690919063ffffffff16565b9450945094509450505b93509350935093565b600080611b2e836000806000612718565b50505090506000611b43846001600080612718565b505050905060008103611b5b57600092505050611c02565b6000611b6c856060015160006131b3565b90506000611b7f866060015160016131b3565b90506000611ba6856b033b2e3c9fd0803ce800000085600a611ba191906156e2565b612840565b90506000611bcd856b033b2e3c9fd0803ce800000085600a611bc891906156e2565b612840565b905060008103611be65760009650505050505050611c02565b611bf98183611c0790919063ffffffff16565b96505050505050505b919050565b60006b033b2e3c9fd0803ce80000006002830460001903048311151582151715611c3057600080fd5b81600283046b033b2e3c9fd0803ce800000085020104905092915050565b600080600080611c5c613dfc565b611c6589612671565b816101c0018181525050611c8187600080846101c00151612718565b90915050826000018360400182815250828152505050611caa8760016000846101c00151612718565b90915050826020018360600182815250828152505050600081600001511480611cd7575060008160200151145b15611cf057600080600080945094509450945050611de3565b8515611d10578781600001818151611d089190614f9b565b915081815250505b611d1d87606001516130fc565b81610140018181525050611d4d88611d4583610140015161271061312d90919063ffffffff16565b612710612840565b81610160018181525050611d8581600001518260200151611d80846101600151856000015161322690919063ffffffff16565b612840565b816080018181525050611da98160800151826020015161312d90919063ffffffff16565b8160c00181815250508060c0015181604001518260600151611dd98461014001518c61318690919063ffffffff16565b9450945094509450505b945094509450949050565b600080600080611dfc613dfc565b611e0589612671565b816101c0018181525050611e2187600080846101c00151612718565b90915050826000018360400182815250828152505050611e4a8760016000846101c00151612718565b90915050826020018360600182815250828152505050600081600001511480611e77575060008160200151145b15611e9057600080600080945094509450945050611f77565b8515611eb0578781602001818151611ea89190614f9b565b915081815250505b611ed981600001518260200151611ed48b856020015161322690919063ffffffff16565b612840565b816080018181525050611efd8160800151826000015161312d90919063ffffffff16565b8160a0018181525050611f1387606001516130fc565b81610140018181525050611f478160a00151611f3f83610140015161271061312d90919063ffffffff16565b612710612840565b81604001518260600151611f6d8461014001518560a0015161318690919063ffffffff16565b9450945094509450505b945094509450949050565b611f8a613d00565b611f92613e72565b73__$e0022d6f389ac14ff1ce1dc57a4018d0a3$__637b82d74e85856040518363ffffffff1660e01b8152600401611fcb929190614cc1565b61024060405180830381865af4158015611fe9573d6000803e3d6000fd5b505050506040513d601f19601f8201168201806040525081019061200d9190614f0f565b8160000181905250600073ffffffffffffffffffffffffffffffffffffffff1681600001516020015173ffffffffffffffffffffffffffffffffffffffff160361208e57826040517f7357d91f000000000000000000000000000000000000000000000000000000008152600401612085919061572d565b60405180910390fd5b604051806060016040528060405180604001604052806040518060800160405280866000015160000151600060ff16600281106120ce576120cd614f3d565b5b60200201516000015173ffffffffffffffffffffffffffffffffffffffff168152602001866000015160000151600060ff166002811061211157612110614f3d565b5b60200201516000015173ffffffffffffffffffffffffffffffffffffffff166395d89b416040518163ffffffff1660e01b8152600401600060405180830381865afa158015612164573d6000803e3d6000fd5b505050506040513d6000823e3d601f19601f8201168201806040525081019061218d9190615363565b8152602001866000015160000151600060ff16600281106121b1576121b0614f3d565b5b60200201516000015173ffffffffffffffffffffffffffffffffffffffff1663313ce5676040518163ffffffff1660e01b8152600401602060405180830381865afa158015612204573d6000803e3d6000fd5b505050506040513d601f19601f8201168201806040525081019061222891906153c1565b60ff168152602001866000015160000151600060ff166002811061224f5761224e614f3d565b5b60200201516020015181525081526020016040518060800160405280866000015160000151600160ff166002811061228a57612289614f3d565b5b60200201516000015173ffffffffffffffffffffffffffffffffffffffff168152602001866000015160000151600160ff16600281106122cd576122cc614f3d565b5b60200201516000015173ffffffffffffffffffffffffffffffffffffffff166395d89b416040518163ffffffff1660e01b8152600401600060405180830381865afa158015612320573d6000803e3d6000fd5b505050506040513d6000823e3d601f19601f820116820180604052508101906123499190615363565b8152602001866000015160000151600160ff166002811061236d5761236c614f3d565b5b60200201516000015173ffffffffffffffffffffffffffffffffffffffff1663313ce5676040518163ffffffff1660e01b8152600401602060405180830381865afa1580156123c0573d6000803e3d6000fd5b505050506040513d601f19601f820116820180604052508101906123e491906153c1565b60ff168152602001866000015160000151600160ff166002811061240b5761240a614f3d565b5b6020020151602001518152508152508152602001601b60ff16815260200173__$298f7a26f5551156800138e763233ed11a$__63d46cdf328785600001516040518363ffffffff1660e01b8152600401612466929190615585565b602060405180830381865af4158015612483573d6000803e3d6000fd5b505050506040513d601f19601f820116820180604052508101906124a791906150e9565b8152508160200181905250806020015191505092915050565b60006124ca613d27565b856020015173ffffffffffffffffffffffffffffffffffffffff166318160ddd6040518163ffffffff1660e01b8152600401602060405180830381865afa158015612519573d6000803e3d6000fd5b505050506040513d601f19601f8201168201806040525081019061253d91906150e9565b816020018181525050612554866000806000612718565b9091509050508160c0018181525050612571866001600080612718565b9091509050508160e001818152505082156125b957848160c0018181516125989190614f9b565b91508181525050838160e0018181516125b19190614f9b565b915081815250505b60008160c0015114806125d0575060008160e00151145b156125df576000915050612669565b60008160200151036126285761261a6103e861260c612607878961327f90919063ffffffff16565b6132ec565b61312d90919063ffffffff16565b816000018181525050612660565b61265661263e8683602001518460c00151612840565b6126518684602001518560e00151612840565b6133e5565b8160000181815250505b80600001519150505b949350505050565b60008173ffffffffffffffffffffffffffffffffffffffff1663bd02d0f560405160200161269e90615794565b604051602081830303815290604052805190602001206040518263ffffffff1660e01b81526004016126d0919061572d565b602060405180830381865afa1580156126ed573d6000803e3d6000fd5b505050506040513d601f19601f8201168201806040525081019061271191906150e9565b9050919050565b600080600080600088600001518860ff166002811061273a57612739614f3d565b5b60200201519050600061274d8a8a6133fe565b90506000810361276c5760008060008095509550955095505050612835565b600061277c838c60800151613509565b90506000612793898361354e90919063ffffffff16565b90506000808a146127c5578184106127bd576127b8828561312d90919063ffffffff16565b6127c0565b60005b6127c8565b60005b905060006127df8c8661354e90919063ffffffff16565b90506000808d146128115784821061280957612804858361312d90919063ffffffff16565b61280c565b60005b612814565b60005b9050848661282291906157b4565b8684839a509a509a509a50505050505050505b945094509450949050565b600080838502905060008019858709828110838203039150506000810361287b57838281612871576128706157e8565b5b0492505050612940565b8084116128b4576040517f227bc15300000000000000000000000000000000000000000000000000000000815260040160405180910390fd5b600084868809905082811182039150808303925060008560000386169050808604955080840493506001818260000304019050808302841793506000600287600302189050808702600203810290508087026002038102905080870260020381029050808702600203810290508087026002038102905080870260020381029050808502955050505050505b9392505050565b6129e183838360405160240161295f93929190615850565b6040516020818303038152906040527f5821efa1000000000000000000000000000000000000000000000000000000007bffffffffffffffffffffffffffffffffffffffffffffffffffffffff19166020820180517bffffffffffffffffffffffffffffffffffffffffffffffffffffffff8381831617835250505050613599565b505050565b6060612a10826040516020016129fc91906158b6565b6040516020818303038152906040526135b3565b9050919050565b612ab1838383604051602401612a2f939291906158d1565b6040516020818303038152906040527f2ced7cef000000000000000000000000000000000000000000000000000000007bffffffffffffffffffffffffffffffffffffffffffffffffffffffff19166020820180517bffffffffffffffffffffffffffffffffffffffffffffffffffffffff8381831617835250505050613599565b505050565b60008173ffffffffffffffffffffffffffffffffffffffff1663bd02d0f5604051602001612ae390615969565b604051602081830303815290604052805190602001206040518263ffffffff1660e01b8152600401612b15919061572d565b602060405180830381865afa158015612b32573d6000803e3d6000fd5b505050506040513d601f19601f82011682018060405250810190612b5691906150e9565b9050919050565b600080612b68613e98565b612b738460006138a7565b826000018360200182815250828152505050612b94846060015160006131b3565b816060018181525050612bc881600001516b033b2e3c9fd0803ce80000008360600151600a612bc391906156e2565b612840565b8160400181815250506000816020015103612bed576000816080018181525050612c9b565b836040015173ffffffffffffffffffffffffffffffffffffffff1663fdd63ecf6040518060600160405280846000015181526020018460200151815260200184604001518152506040518263ffffffff1660e01b8152600401612c5091906159da565b602060405180830381865afa158015612c6d573d6000803e3d6000fd5b505050506040513d601f19601f82011682018060405250810190612c9191906150e9565b8160800181815250505b612ca68460016138a7565b8260000183602001828152508281525050506000816020015103612cd45760008160a0018181525050612d82565b836040015173ffffffffffffffffffffffffffffffffffffffff1663fdd63ecf6040518060600160405280846000015181526020018460200151815260200184604001518152506040518263ffffffff1660e01b8152600401612d3791906159da565b602060405180830381865afa158015612d54573d6000803e3d6000fd5b505050506040513d601f19601f82011682018060405250810190612d7891906150e9565b8160a00181815250505b80608001518160a001519250925050915091565b600080612da384846138f7565b90508073ffffffffffffffffffffffffffffffffffffffff166321f8a72184604051602001612dd190615a41565b60405160208183030381529060405280519060200120604051602001612df8929190615a61565b604051602081830303815290604052805190602001206040518263ffffffff1660e01b8152600401612e2a919061572d565b602060405180830381865afa158015612e47573d6000803e3d6000fd5b505050506040513d601f19601f82011682018060405250810190612e6b9190615a8a565b91505092915050565b6000807ffffffffffffffffffffffffffffffffffffffffffffffffffff7ffffffffffff19831614159050919050565b600080612eb184846138f7565b90508073ffffffffffffffffffffffffffffffffffffffff1663bd02d0f584604051602001612edf90615b03565b60405160208183030381529060405280519060200120604051602001612f06929190615a61565b604051602081830303815290604052805190602001206040518263ffffffff1660e01b8152600401612f38919061572d565b602060405180830381865afa158015612f55573d6000803e3d6000fd5b505050506040513d601f19601f82011682018060405250810190612f7991906150e9565b91505092915050565b600080612f908560016133fe565b90508215612fa7578381612fa49190614f9b565b90505b6000612fb2876139e8565b90506000612fc9828461354e90919063ffffffff16565b905060008760000151600160ff1660028110612fe857612fe7614f3d565b5b602002015160600151821061302b578760000151600160ff166002811061301257613011614f3d565b5b602002015160600151826130269190614f9b565b61302e565b60005b905061306f6040518060400160405280600b81526020017f706f6f6c42616c616e636500000000000000000000000000000000000000000081525085610ccb565b6130ae6040518060400160405280600e81526020017f6d61784465706f7369745261746500000000000000000000000000000000000081525084610ccb565b6130ed6040518060400160405280601181526020017f706f6f6c42616c616e636541646a75737400000000000000000000000000000081525083610ccb565b80945050505050949350505050565b600060387fffffffffffffffffffffffffffffffffffffffffffffff0000ffffffffffffff198316901c9050919050565b600082828461313c9190614f9b565b9150811115613180576040517f08c379a000000000000000000000000000000000000000000000000000000000815260040161317790615b6f565b60405180910390fd5b92915050565b60008161138860001903048311158215176131a057600080fd5b6127106113888385020104905092915050565b6000807fffffffffffffffffffffffffffffffffffffffff00ffffffffffffffffffffff9050600060589050600160ff168460ff1603613215577fffffffffffffffffffffffffffffffffffffff00ffffffffffffffffffffffff9150606090505b8082198616901c9250505092915050565b600082828461323591906157b4565b9150811015613279576040517f08c379a000000000000000000000000000000000000000000000000000000000815260040161327090615bdb565b60405180910390fd5b92915050565b6000808214806132a75750828283856132989190615bfb565b9250826132a59190615c3d565b145b6132e6576040517f08c379a00000000000000000000000000000000000000000000000000000000081526004016132dd90615cba565b60405180910390fd5b92915050565b60008082036132fe57600090506133e0565b6000600161330b84613a8f565b901c6001901b90506001818481613325576133246157e8565b5b048201901c9050600181848161333e5761333d6157e8565b5b048201901c90506001818481613357576133566157e8565b5b048201901c905060018184816133705761336f6157e8565b5b048201901c90506001818481613389576133886157e8565b5b048201901c905060018184816133a2576133a16157e8565b5b048201901c905060018184816133bb576133ba6157e8565b5b048201901c90506133dc818285816133d6576133d56157e8565b5b046133e5565b9150505b919050565b60008183106133f457816133f6565b825b905092915050565b60008083600001518360ff166002811061341b5761341a614f3d565b5b602002015190506000846020015173ffffffffffffffffffffffffffffffffffffffff1663e42c08f283600001516040518263ffffffff1660e01b81526004016134659190615cda565b602060405180830381865afa158015613482573d6000803e3d6000fd5b505050506040513d601f19601f820116820180604052508101906134a691906150e9565b9050600081036134bb57600092505050613503565b6000826060015190508260c00151816134d491906157b4565b82106134fa578260c0015181836134eb9190614f9b565b6134f59190614f9b565b6134fd565b60005b93505050505b92915050565b6000808360a001510361351f5760009050613548565b600061352b8484613b70565b9050613544818560a0015161354e90919063ffffffff16565b9150505b92915050565b6000816b019d971e4fe8401e74000000600019030483111582151761357257600080fd5b6b033b2e3c9fd0803ce80000006b019d971e4fe8401e740000008385020104905092915050565b6135b0816135a8613bbf613be0565b63ffffffff16565b50565b606060006040518060400160405280601081526020017f303132333435363738396162636465660000000000000000000000000000000081525090506000600284516135ff9190615bfb565b600261360b91906157b4565b67ffffffffffffffff81111561362457613623614a38565b5b6040519080825280601f01601f1916602001820160405280156136565781602001600182028036833780820191505090505b5090507f30000000000000000000000000000000000000000000000000000000000000008160008151811061368e5761368d614f3d565b5b60200101907effffffffffffffffffffffffffffffffffffffffffffffffffffffffffffff1916908160001a9053507f7800000000000000000000000000000000000000000000000000000000000000816001815181106136f2576136f1614f3d565b5b60200101907effffffffffffffffffffffffffffffffffffffffffffffffffffffffffffff1916908160001a90535060005b845181101561389c5782600486838151811061374357613742614f3d565b5b602001015160f81c60f81b7effffffffffffffffffffffffffffffffffffffffffffffffffffffffffffff1916901c60f81c60ff168151811061378957613788614f3d565b5b602001015160f81c60f81b826002836137a29190615bfb565b60026137ae91906157b4565b815181106137bf576137be614f3d565b5b60200101907effffffffffffffffffffffffffffffffffffffffffffffffffffffffffffff1916908160001a90535082600f60f81b86838151811061380757613806614f3d565b5b602001015160f81c60f81b1660f81c60ff168151811061382a57613829614f3d565b5b602001015160f81c60f81b826002836138439190615bfb565b600361384f91906157b4565b815181106138605761385f614f3d565b5b60200101907effffffffffffffffffffffffffffffffffffffffffffffffffffffffffffff1916908160001a9053508080600101915050613724565b508092505050919050565b60008060006138d885600001518560ff16600281106138c9576138c8614f3d565b5b60200201518660800151613509565b905060006138e686866133fe565b905080829350935050509250929050565b6000808390508073ffffffffffffffffffffffffffffffffffffffff166391d4403c60405160200161392890615162565b60405160208183030381529060405280519060200120856040518363ffffffff1660e01b815260040161395c929190615a61565b602060405180830381865afa158015613979573d6000803e3d6000fd5b505050506040513d601f19601f8201168201806040525081019061399d9190615d21565b6139de57826040517f7357d91f0000000000000000000000000000000000000000000000000000000081526004016139d5919061572d565b60405180910390fd5b8091505092915050565b60008173ffffffffffffffffffffffffffffffffffffffff1663bd02d0f5604051602001613a1590615d9a565b604051602081830303815290604052805190602001206040518263ffffffff1660e01b8152600401613a47919061572d565b602060405180830381865afa158015613a64573d6000803e3d6000fd5b505050506040513d601f19601f82011682018060405250810190613a8891906150e9565b9050919050565b600080600090506000608084901c1115613ab157608083901c92506080810190505b6000604084901c1115613acc57604083901c92506040810190505b6000602084901c1115613ae757602083901c92506020810190505b6000601084901c1115613b0257601083901c92506010810190505b6000600884901c1115613b1d57600883901c92506008810190505b6000600484901c1115613b3857600483901c92506004810190505b6000600284901c1115613b5357600283901c92506002810190505b6000600184901c1115613b67576001810190505b80915050919050565b6000613b7a613beb565b8203613b8c5782602001519050613bb9565b6000613b9c846040015184613bf3565b9050613bb584602001518261354e90919063ffffffff16565b9150505b92915050565b60006a636f6e736f6c652e6c6f679050600080835160208501845afa505050565b613ece819050919050565b600042905090565b60008082613bff613beb565b613c099190614f9b565b84613c149190615bfb565b90506301e133808181613c2a57613c296157e8565b5b049050806b033b2e3c9fd0803ce8000000613c4591906157b4565b91505092915050565b604051806101a00160405280613c62613ed8565b8152602001600073ffffffffffffffffffffffffffffffffffffffff168152602001600073ffffffffffffffffffffffffffffffffffffffff16815260200160008152602001600081526020016000815260200160008152602001600073ffffffffffffffffffffffffffffffffffffffff168152602001600015158152602001600081526020016000815260200160008152602001600081525090565b6040518060600160405280613d13613f05565b815260200160008152602001600081525090565b60405180610160016040528060008152602001600081526020016000815260200160008152602001600081526020016000815260200160008152602001600081526020016000815260200160008152602001600081525090565b604051806101c00160405280613d95613f32565b8152602001600081526020016000815260200160008152602001600081526020016000815260200160008152602001600081526020016000815260200160008152602001600081526020016000815260200160008152602001613df6613c4e565b81525090565b604051806101e001604052806000815260200160008152602001600081526020016000815260200160008152602001600081526020016000815260200160008152602001600081526020016000815260200160008152602001600081526020016000815260200160008152602001600081525090565b6040518060400160405280613e85613f32565b8152602001613e92613d00565b81525090565b6040518060c001604052806000815260200160008152602001600081526020016000815260200160008152602001600081525090565b613ed6615dba565b565b60405180604001604052806002905b613eef613f93565b815260200190600190039081613ee75790505090565b60405180604001604052806002905b613f1c61400a565b815260200190600190039081613f145790505090565b6040518060a00160405280613f45614048565b8152602001600073ffffffffffffffffffffffffffffffffffffffff168152602001600073ffffffffffffffffffffffffffffffffffffffff16815260200160008152602001600081525090565b604051806101800160405280600073ffffffffffffffffffffffffffffffffffffffff16815260200160608152602001600081526020016000815260200160008152602001600081526020016000815260200160008152602001600081526020016000815260200160008152602001600081525090565b6040518060800160405280600073ffffffffffffffffffffffffffffffffffffffff1681526020016060815260200160008152602001600081525090565b60405180604001604052806002905b61405f614075565b8152602001906001900390816140575790505090565b6040518060e00160405280600073ffffffffffffffffffffffffffffffffffffffff1681526020016000815260200160008152602001600081526020016000815260200160008152602001600081525090565b6000604051905090565b600080fd5b600080fd5b600073ffffffffffffffffffffffffffffffffffffffff82169050919050565b6000614107826140dc565b9050919050565b614117816140fc565b811461412257600080fd5b50565b6000813590506141348161410e565b92915050565b6000819050919050565b61414d8161413a565b811461415857600080fd5b50565b60008135905061416a81614144565b92915050565b6000806000806080858703121561418a576141896140d2565b5b600061419887828801614125565b94505060206141a987828801614125565b93505060406141ba87828801614125565b92505060606141cb8782880161415b565b91505092959194509250565b6141e08161413a565b82525050565b60006040820190506141fb60008301856141d7565b61420860208301846141d7565b9392505050565b600080600060608486031215614228576142276140d2565b5b600061423686828701614125565b93505060206142478682870161415b565b92505060406142588682870161415b565b9150509250925092565b600081519050919050565b600082825260208201905092915050565b6000819050602082019050919050565b600060029050919050565b600081905092915050565b6000819050919050565b6142b7816140fc565b82525050565b600081519050919050565b600082825260208201905092915050565b60005b838110156142f75780820151818401526020810190506142dc565b60008484015250505050565b6000601f19601f8301169050919050565b600061431f826142bd565b61432981856142c8565b93506143398185602086016142d9565b61434281614303565b840191505092915050565b6143568161413a565b82525050565b600060808301600083015161437460008601826142ae565b506020830151848203602086015261438c8282614314565b91505060408301516143a1604086018261434d565b5060608301516143b4606086018261434d565b508091505092915050565b60006143cb838361435c565b905092915050565b6000602082019050919050565b60006143eb8261428e565b6143f58185614299565b935083602082028501614407856142a4565b8060005b85811015614443578484038952815161442485826143bf565b945061442f836143d3565b925060208a0199505060018101905061440b565b50829750879550505050505092915050565b6000606083016000830151848203600086015261447282826143e0565b9150506020830151614487602086018261434d565b50604083015161449a604086018261434d565b508091505092915050565b60006144b18383614455565b905092915050565b6000602082019050919050565b60006144d182614262565b6144db818561426d565b9350836020820285016144ed8561427e565b8060005b85811015614529578484038952815161450a85826144a5565b9450614515836144b9565b925060208a019950506001810190506144f1565b50829750879550505050505092915050565b6000602082019050818103600083015261455581846144c6565b905092915050565b600081519050919050565b600082825260208201905092915050565b6000819050602082019050919050565b600060029050919050565b600081905092915050565b6000819050919050565b6000610180830160008301516145c260008601826142ae565b50602083015184820360208601526145da8282614314565b91505060408301516145ef604086018261434d565b506060830151614602606086018261434d565b506080830151614615608086018261434d565b5060a083015161462860a086018261434d565b5060c083015161463b60c086018261434d565b5060e083015161464e60e086018261434d565b5061010083015161466361010086018261434d565b5061012083015161467861012086018261434d565b5061014083015161468d61014086018261434d565b506101608301516146a261016086018261434d565b508091505092915050565b60006146b983836145a9565b905092915050565b6000602082019050919050565b60006146d982614589565b6146e38185614594565b9350836020820285016146f58561459f565b8060005b85811015614731578484038952815161471285826146ad565b945061471d836146c1565b925060208a019950506001810190506146f9565b50829750879550505050505092915050565b60008115159050919050565b61475881614743565b82525050565b60006101a083016000830151848203600086015261477c82826146ce565b915050602083015161479160208601826142ae565b5060408301516147a460408601826142ae565b5060608301516147b7606086018261434d565b5060808301516147ca608086018261434d565b5060a08301516147dd60a086018261434d565b5060c08301516147f060c086018261434d565b5060e083015161480360e08601826142ae565b5061010083015161481861010086018261474f565b5061012083015161482d61012086018261434d565b5061014083015161484261014086018261434d565b5061016083015161485761016086018261434d565b5061018083015161486c61018086018261434d565b508091505092915050565b6000614883838361475e565b905092915050565b6000602082019050919050565b60006148a38261455d565b6148ad8185614568565b9350836020820285016148bf85614579565b8060005b858110156148fb57848403895281516148dc8582614877565b94506148e78361488b565b925060208a019950506001810190506148c3565b50829750879550505050505092915050565b600060208201905081810360008301526149278184614898565b905092915050565b600060ff82169050919050565b6149458161492f565b811461495057600080fd5b50565b6000813590506149628161493c565b92915050565b600080600080600060a08688031215614984576149836140d2565b5b600061499288828901614125565b95505060206149a388828901614125565b94505060406149b488828901614125565b93505060606149c58882890161415b565b92505060806149d688828901614953565b9150509295509295909350565b6000819050919050565b6149f6816149e3565b82525050565b6000606082019050614a1160008301866141d7565b614a1e60208301856141d7565b614a2b60408301846149ed565b949350505050565b600080fd5b7f4e487b7100000000000000000000000000000000000000000000000000000000600052604160045260246000fd5b614a7082614303565b810181811067ffffffffffffffff82111715614a8f57614a8e614a38565b5b80604052505050565b6000614aa26140c8565b9050614aae8282614a67565b919050565b600067ffffffffffffffff821115614ace57614acd614a38565b5b602082029050602081019050919050565b600080fd5b6000819050919050565b614af781614ae4565b8114614b0257600080fd5b50565b600081359050614b1481614aee565b92915050565b6000614b2d614b2884614ab3565b614a98565b90508083825260208201905060208402830185811115614b5057614b4f614adf565b5b835b81811015614b795780614b658882614b05565b845260208401935050602081019050614b52565b5050509392505050565b600082601f830112614b9857614b97614a33565b5b8135614ba8848260208601614b1a565b91505092915050565b60008060408385031215614bc857614bc76140d2565b5b6000614bd685828601614125565b925050602083013567ffffffffffffffff811115614bf757614bf66140d7565b5b614c0385828601614b83565b9150509250929050565b600080600080600060a08688031215614c2957614c286140d2565b5b6000614c3788828901614125565b9550506020614c4888828901614125565b9450506040614c5988828901614125565b9350506060614c6a8882890161415b565b9250506080614c7b8882890161415b565b9150509295509295909350565b6000602082019050614c9d60008301846141d7565b92915050565b614cac816140fc565b82525050565b614cbb81614ae4565b82525050565b6000604082019050614cd66000830185614ca3565b614ce36020830184614cb2565b9392505050565b600080fd5b600067ffffffffffffffff821115614d0a57614d09614a38565b5b602082029050919050565b600081519050614d248161410e565b92915050565b600081519050614d3981614144565b92915050565b600060e08284031215614d5557614d54614cea565b5b614d5f60e0614a98565b90506000614d6f84828501614d15565b6000830152506020614d8384828501614d2a565b6020830152506040614d9784828501614d2a565b6040830152506060614dab84828501614d2a565b6060830152506080614dbf84828501614d2a565b60808301525060a0614dd384828501614d2a565b60a08301525060c0614de784828501614d2a565b60c08301525092915050565b6000614e06614e0184614cef565b614a98565b90508060e08402830185811115614e2057614e1f614adf565b5b835b81811015614e495780614e358882614d3f565b84526020840193505060e081019050614e22565b5050509392505050565b600082601f830112614e6857614e67614a33565b5b6002614e75848285614df3565b91505092915050565b60006102408284031215614e9557614e94614cea565b5b614e9f60a0614a98565b90506000614eaf84828501614e53565b6000830152506101c0614ec484828501614d15565b6020830152506101e0614ed984828501614d15565b604083015250610200614eee84828501614d2a565b606083015250610220614f0384828501614d2a565b60808301525092915050565b60006102408284031215614f2657614f256140d2565b5b6000614f3484828501614e7e565b91505092915050565b7f4e487b7100000000000000000000000000000000000000000000000000000000600052603260045260246000fd5b7f4e487b7100000000000000000000000000000000000000000000000000000000600052601160045260246000fd5b6000614fa68261413a565b9150614fb18361413a565b9250828203905081811115614fc957614fc8614f6c565b5b92915050565b6000614fda826149e3565b91507f8000000000000000000000000000000000000000000000000000000000000000820361500c5761500b614f6c565b5b816000039050919050565b600082825260208201905092915050565b7f504f4f4c00000000000000000000000000000000000000000000000000000000600082015250565b600061505e600483615017565b915061506982615028565b602082019050919050565b6000602082019050818103600083015261508d81615051565b9050919050565b61509d81614ae4565b82525050565b6150ac816140fc565b82525050565b60006060820190506150c76000830186615094565b6150d460208301856150a3565b6150e160408301846150a3565b949350505050565b6000602082840312156150ff576150fe6140d2565b5b600061510d84828501614d2a565b91505092915050565b7f504f4f4c5f4c4953540000000000000000000000000000000000000000000000600082015250565b600061514c600983615017565b915061515782615116565b602082019050919050565b6000602082019050818103600083015261517b8161513f565b9050919050565b61518b8161413a565b82525050565b60006060820190506151a66000830186615094565b6151b36020830185615182565b6151c06040830184615182565b949350505050565b6000815190506151d781614aee565b92915050565b60006151f06151eb84614ab3565b614a98565b9050808382526020820190506020840283018581111561521357615212614adf565b5b835b8181101561523c578061522888826151c8565b845260208401935050602081019050615215565b5050509392505050565b600082601f83011261525b5761525a614a33565b5b815161526b8482602086016151dd565b91505092915050565b60006020828403121561528a576152896140d2565b5b600082015167ffffffffffffffff8111156152a8576152a76140d7565b5b6152b484828501615246565b91505092915050565b600080fd5b600067ffffffffffffffff8211156152dd576152dc614a38565b5b6152e682614303565b9050602081019050919050565b6000615306615301846152c2565b614a98565b905082815260208101848484011115615322576153216152bd565b5b61532d8482856142d9565b509392505050565b600082601f83011261534a57615349614a33565b5b815161535a8482602086016152f3565b91505092915050565b600060208284031215615379576153786140d2565b5b600082015167ffffffffffffffff811115615397576153966140d7565b5b6153a384828501615335565b91505092915050565b6000815190506153bb8161493c565b92915050565b6000602082840312156153d7576153d66140d2565b5b60006153e5848285016153ac565b91505092915050565b600060029050919050565b600081905092915050565b6000819050919050565b60e08201600082015161542460008501826142ae565b506020820151615437602085018261434d565b50604082015161544a604085018261434d565b50606082015161545d606085018261434d565b506080820151615470608085018261434d565b5060a082015161548360a085018261434d565b5060c082015161549660c085018261434d565b50505050565b60006154a8838361540e565b60e08301905092915050565b6000602082019050919050565b6154ca816153ee565b6154d481846153f9565b92506154df82615404565b8060005b838110156155105781516154f7878261549c565b9650615502836154b4565b9250506001810190506154e3565b505050505050565b6102408201600082015161552f60008501826154c1565b5060208201516155436101c08501826142ae565b5060408201516155576101e08501826142ae565b50606082015161556b61020085018261434d565b50608082015161557f61022085018261434d565b50505050565b60006102608201905061559b6000830185614ca3565b6155a86020830184615518565b9392505050565b60008160011c9050919050565b6000808291508390505b6001851115615606578086048111156155e2576155e1614f6c565b5b60018516156155f15780820291505b80810290506155ff856155af565b94506155c6565b94509492505050565b60008261561f57600190506156db565b8161562d57600090506156db565b8160018114615643576002811461564d5761567c565b60019150506156db565b60ff84111561565f5761565e614f6c565b5b8360020a91508482111561567657615675614f6c565b5b506156db565b5060208310610133831016604e8410600b84101617156156b15782820a9050838111156156ac576156ab614f6c565b5b6156db565b6156be84848460016155bc565b925090508184048111156156d5576156d4614f6c565b5b81810290505b9392505050565b60006156ed8261413a565b91506156f88361413a565b92506157257fffffffffffffffffffffffffffffffffffffffffffffffffffffffffffffffff848461560f565b905092915050565b60006020820190506157426000830184615094565b92915050565b7f5452414441424c455f444542545f4d554c5449504945525f464143544f520000600082015250565b600061577e601e83615017565b915061578982615748565b602082019050919050565b600060208201905081810360008301526157ad81615771565b9050919050565b60006157bf8261413a565b91506157ca8361413a565b92508282019050808211156157e2576157e1614f6c565b5b92915050565b7f4e487b7100000000000000000000000000000000000000000000000000000000600052601260045260246000fd5b6000615822826142bd565b61582c8185615017565b935061583c8185602086016142d9565b61584581614303565b840191505092915050565b6000606082019050818103600083015261586a8186615817565b9050818103602083015261587e8185615817565b905061588d6040830184615182565b949350505050565b6000819050919050565b6158b06158ab82614ae4565b615895565b82525050565b60006158c2828461589f565b60208201915081905092915050565b600060608201905081810360008301526158eb8186615817565b905081810360208301526158ff8185615817565b905081810360408301526159138184615817565b9050949350505050565b7f4d41585f424f52524f575f524154450000000000000000000000000000000000600082015250565b6000615953600f83615017565b915061595e8261591d565b602082019050919050565b6000602082019050818103600083015261598281615946565b9050919050565b6159928161413a565b82525050565b6060820160008201516159ae6000850182615989565b5060208201516159c16020850182615989565b5060408201516159d46040850182615989565b50505050565b60006060820190506159ef6000830184615998565b92915050565b7f504f4f4c5f534f55524345000000000000000000000000000000000000000000600082015250565b6000615a2b600b83615017565b9150615a36826159f5565b602082019050919050565b60006020820190508181036000830152615a5a81615a1e565b9050919050565b6000604082019050615a766000830185615094565b615a836020830184615094565b9392505050565b600060208284031215615aa057615a9f6140d2565b5b6000615aae84828501614d15565b91505092915050565b7f504f4f4c5f435245415445445f54494d455f5354414d50000000000000000000600082015250565b6000615aed601783615017565b9150615af882615ab7565b602082019050919050565b60006020820190508181036000830152615b1c81615ae0565b9050919050565b7f64732d6d6174682d7375622d756e646572666c6f770000000000000000000000600082015250565b6000615b59601583615017565b9150615b6482615b23565b602082019050919050565b60006020820190508181036000830152615b8881615b4c565b9050919050565b7f64732d6d6174682d6164642d6f766572666c6f77000000000000000000000000600082015250565b6000615bc5601483615017565b9150615bd082615b8f565b602082019050919050565b60006020820190508181036000830152615bf481615bb8565b9050919050565b6000615c068261413a565b9150615c118361413a565b9250828202615c1f8161413a565b91508282048414831517615c3657615c35614f6c565b5b5092915050565b6000615c488261413a565b9150615c538361413a565b925082615c6357615c626157e8565b5b828204905092915050565b7f64732d6d6174682d6d756c2d6f766572666c6f77000000000000000000000000600082015250565b6000615ca4601483615017565b9150615caf82615c6e565b602082019050919050565b60006020820190508181036000830152615cd381615c97565b9050919050565b6000602082019050615cef60008301846150a3565b92915050565b615cfe81614743565b8114615d0957600080fd5b50565b600081519050615d1b81615cf5565b92915050565b600060208284031215615d3757615d366140d2565b5b6000615d4584828501615d0c565b91505092915050565b7f4d41585f4445504f5349545f5241544500000000000000000000000000000000600082015250565b6000615d84601083615017565b9150615d8f82615d4e565b602082019050919050565b60006020820190508181036000830152615db381615d77565b9050919050565b7f4e487b7100000000000000000000000000000000000000000000000000000000600052605160045260246000fdfea2646970667358221220f5e1288b5b6b78f8256bb9d91c147edd96d57d0888cc01737dd82e65611513f464736f6c634300081c0033",
  "linkReferences": {
    "contracts/pool/PoolStoreUtils.sol": {
      "PoolStoreUtils": [
        {
          "length": 20,
          "start": 584
        },
        {
          "length": 20,
          "start": 1216
        },
        {
          "length": 20,
          "start": 1645
        },
        {
          "length": 20,
          "start": 2344
        },
        {
          "length": 20,
          "start": 3916
        },
        {
          "length": 20,
          "start": 8166
        }
      ]
    },
    "contracts/twap/TwapUtils.sol": {
      "TwapUtils": [
        {
          "length": 20,
          "start": 5804
        },
        {
          "length": 20,
          "start": 9341
        }
      ]
    }
  },
  "deployedLinkReferences": {
    "contracts/pool/PoolStoreUtils.sol": {
      "PoolStoreUtils": [
        {
          "length": 20,
          "start": 502
        },
        {
          "length": 20,
          "start": 1134
        },
        {
          "length": 20,
          "start": 1563
        },
        {
          "length": 20,
          "start": 2262
        },
        {
          "length": 20,
          "start": 3834
        },
        {
          "length": 20,
          "start": 8084
        }
      ]
    },
    "contracts/twap/TwapUtils.sol": {
      "TwapUtils": [
        {
          "length": 20,
          "start": 5722
        },
        {
          "length": 20,
          "start": 9259
        }
      ]
    }
  }
}