{
  "_format": "hh-sol-artifact-1",
  "contractName": "ReaderPoolUtils",
  "sourceName": "contracts/reader/ReaderPoolUtils.sol",
  "abi": [
    {
      "inputs": [
        {
          "internalType": "bytes32",
          "name": "key",
          "type": "bytes32"
        }
      ],
      "name": "EmptyPool",
      "type": "error"
    },
    {
      "inputs": [],
      "name": "MathOverflowedMulDiv",
      "type": "error"
    },
    {
      "inputs": [],
      "name": "SingleTokenInOutSwapOnly",
      "type": "error"
    },
    {
      "inputs": [
        {
          "internalType": "address",
          "name": "dataStore",
          "type": "address"
        },
        {
          "internalType": "address",
          "name": "token0",
          "type": "address"
        },
        {
          "internalType": "address",
          "name": "token1",
          "type": "address"
        },
        {
          "internalType": "uint256",
          "name": "amountOut",
          "type": "uint256"
        },
        {
          "internalType": "uint8",
          "name": "tokenOutIndex",
          "type": "uint8"
        }
      ],
      "name": "calcAmountIn",
      "outputs": [
        {
          "internalType": "uint256",
          "name": "",
          "type": "uint256"
        },
        {
          "internalType": "uint256",
          "name": "",
          "type": "uint256"
        },
        {
          "internalType": "int256",
          "name": "",
          "type": "int256"
        }
      ],
      "stateMutability": "view",
      "type": "function"
    },
    {
      "inputs": [
        {
          "internalType": "address",
          "name": "dataStore",
          "type": "address"
        },
        {
          "internalType": "address",
          "name": "token0",
          "type": "address"
        },
        {
          "internalType": "address",
          "name": "token1",
          "type": "address"
        },
        {
          "internalType": "uint256",
          "name": "amountIn",
          "type": "uint256"
        },
        {
          "internalType": "uint8",
          "name": "tokenInIndex",
          "type": "uint8"
        }
      ],
      "name": "calcAmountOut",
      "outputs": [
        {
          "internalType": "uint256",
          "name": "",
          "type": "uint256"
        },
        {
          "internalType": "uint256",
          "name": "",
          "type": "uint256"
        },
        {
          "internalType": "int256",
          "name": "",
          "type": "int256"
        }
      ],
      "stateMutability": "view",
      "type": "function"
    },
    {
      "inputs": [
        {
          "internalType": "address",
          "name": "dataStore",
          "type": "address"
        },
        {
          "internalType": "address",
          "name": "token0",
          "type": "address"
        },
        {
          "internalType": "address",
          "name": "token1",
          "type": "address"
        },
        {
          "internalType": "uint256",
          "name": "amount0",
          "type": "uint256"
        },
        {
          "internalType": "uint256",
          "name": "amount1",
          "type": "uint256"
        }
      ],
      "name": "calcLiquidityOut",
      "outputs": [
        {
          "internalType": "uint256",
          "name": "",
          "type": "uint256"
        }
      ],
      "stateMutability": "view",
      "type": "function"
    },
    {
      "inputs": [
        {
          "internalType": "address",
          "name": "dataStore",
          "type": "address"
        },
        {
          "internalType": "address",
          "name": "token0",
          "type": "address"
        },
        {
          "internalType": "address",
          "name": "token1",
          "type": "address"
        },
        {
          "internalType": "uint256",
          "name": "liquidity",
          "type": "uint256"
        }
      ],
      "name": "calcTokenPairOut",
      "outputs": [
        {
          "internalType": "uint256",
          "name": "",
          "type": "uint256"
        },
        {
          "internalType": "uint256",
          "name": "",
          "type": "uint256"
        }
      ],
      "stateMutability": "view",
      "type": "function"
    },
    {
      "inputs": [
        {
          "internalType": "address",
          "name": "dataStore",
          "type": "address"
        },
        {
          "internalType": "uint256",
          "name": "start",
          "type": "uint256"
        },
        {
          "internalType": "uint256",
          "name": "end",
          "type": "uint256"
        }
      ],
      "name": "getPools",
      "outputs": [
        {
          "components": [
            {
              "components": [
                {
                  "internalType": "address",
                  "name": "token",
                  "type": "address"
                },
                {
                  "internalType": "string",
                  "name": "symbol",
                  "type": "string"
                },
                {
                  "internalType": "uint256",
                  "name": "decimals",
                  "type": "uint256"
                },
                {
                  "internalType": "uint256",
                  "name": "borrowIndex",
                  "type": "uint256"
                },
                {
                  "internalType": "uint256",
                  "name": "borrowApy",
                  "type": "uint256"
                },
                {
                  "internalType": "uint256",
                  "name": "totalCollateral",
                  "type": "uint256"
                },
                {
                  "internalType": "uint256",
                  "name": "totalCollateralWithDebt",
                  "type": "uint256"
                },
                {
                  "internalType": "uint256",
                  "name": "totalDebtScaled",
                  "type": "uint256"
                },
                {
                  "internalType": "uint256",
                  "name": "poolBalance",
                  "type": "uint256"
                },
                {
                  "internalType": "uint256",
                  "name": "priceLiquidity",
                  "type": "uint256"
                },
                {
                  "internalType": "uint256",
                  "name": "avaiableLoan",
                  "type": "uint256"
                },
                {
                  "internalType": "uint256",
                  "name": "actualTradable",
                  "type": "uint256"
                }
              ],
              "internalType": "struct ReaderPoolUtils.Asset[2]",
              "name": "assets",
              "type": "tuple[2]"
            },
            {
              "internalType": "address",
              "name": "bank",
              "type": "address"
            },
            {
              "internalType": "address",
              "name": "interestRateStrategy",
              "type": "address"
            },
            {
              "internalType": "uint256",
              "name": "configuration",
              "type": "uint256"
            },
            {
              "internalType": "uint256",
              "name": "lastUpdateTimestamp",
              "type": "uint256"
            },
            {
              "internalType": "uint256",
              "name": "priceDecimals",
              "type": "uint256"
            },
            {
              "internalType": "uint256",
              "name": "price",
              "type": "uint256"
            },
            {
              "internalType": "address",
              "name": "source",
              "type": "address"
            },
            {
              "internalType": "bool",
              "name": "shortEnabled",
              "type": "bool"
            },
            {
              "internalType": "uint256",
              "name": "createdTimestamp",
              "type": "uint256"
            },
            {
              "internalType": "uint256",
              "name": "unclaimedFee",
              "type": "uint256"
            },
            {
              "internalType": "uint256",
              "name": "memeMaxDepositAmount",
              "type": "uint256"
            }
          ],
          "internalType": "struct ReaderPoolUtils.GetPool[]",
          "name": "",
          "type": "tuple[]"
        }
      ],
      "stateMutability": "view",
      "type": "function"
    }
  ],
  "bytecode": "0x614dfa610052600b82828239805160001a6073146045577f4e487b7100000000000000000000000000000000000000000000000000000000600052600060045260246000fd5b30600052607381538281f3fe73000000000000000000000000000000000000000030146080604052600436106100615760003560e01c8063317b50ec146100665780638f6c7a3c14610097578063c2bdeda1146100c7578063d28b0a15146100f9578063f68a71311461012b575b600080fd5b610080600480360381019061007b9190613676565b61015b565b60405161008e9291906136ec565b60405180910390f35b6100b160048036038101906100ac9190613715565b610212565b6040516100be9190613bb1565b60405180910390f35b6100e160048036038101906100dc9190613c0c565b61032f565b6040516100f093929190613ca0565b60405180910390f35b610113600480360381019061010e9190613c0c565b6104be565b60405161012293929190613ca0565b60405180910390f35b61014560048036038101906101409190613cd7565b610651565b6040516101529190613d52565b60405180910390f35b600080600061016a86866106f9565b9050600073__$e0022d6f389ac14ff1ce1dc57a4018d0a3$__637b82d74e89846040518363ffffffff1660e01b81526004016101a7929190613d95565b61024060405180830381865af41580156101c5573d6000803e3d6000fd5b505050506040513d601f19601f820116820180604052508101906101e99190614068565b90506000806101f98a8489610797565b5050915091508181955095505050505094509492505050565b60606000610221858585610a38565b90506000815167ffffffffffffffff8111156102405761023f613dc3565b5b60405190808252806020026020018201604052801561027957816020015b610266613213565b81526020019060019003908161025e5790505b50905060005b825181101561032257600083828151811061029d5761029c614096565b5b602002602001015190506102e66040518060400160405280600781526020017f706f6f6c4b65790000000000000000000000000000000000000000000000000081525082610aea565b60006102f28983610b3d565b90508084848151811061030857610307614096565b5b60200260200101819052505050808060010191505061027f565b5080925050509392505050565b60008060008061033f88886106f9565b9050600073__$e0022d6f389ac14ff1ce1dc57a4018d0a3$__637b82d74e8b846040518363ffffffff1660e01b815260040161037c929190613d95565b61024060405180830381865af415801561039a573d6000803e3d6000fd5b505050506040513d601f19601f820116820180604052508101906103be9190614068565b905060008060008060ff168960ff1603610400576103dd8d8b866112c3565b909150905080935081945050506103f9846000858d6000611410565b9050610438565b600160ff168960ff1603610437576104198d8b8661151f565b9091509050809350819450505061043484846000808e611410565b90505b5b600061044385611675565b9050600082821161045f57818361045a91906140f4565b61046c565b828261046b91906140f4565b5b90506000610483838361174890919063ffffffff16565b9050600084841161049d578161049890614128565b61049f565b815b90508686829b509b509b50505050505050505050955095509592505050565b6000806000806104ce88886106f9565b9050600073__$e0022d6f389ac14ff1ce1dc57a4018d0a3$__637b82d74e8b846040518363ffffffff1660e01b815260040161050b929190613d95565b61024060405180830381865af4158015610529573d6000803e3d6000fd5b505050506040513d601f19601f8201168201806040525081019061054d9190614068565b905060008060008060ff168960ff16036105905761056e8d8b86600061178f565b90915090508093508194505050610589848b60008087611410565b90506105cb565b600160ff168960ff16036105ca576105ab8d8b8660006118fe565b909150905080935081945050506105c78460008c866000611410565b90505b5b60006105d685611675565b905060008282116105f25781836105ed91906140f4565b6105ff565b82826105fe91906140f4565b5b90506000610616838361174890919063ffffffff16565b90506000848411610630578161062b90614128565b610632565b815b90508686829b509b509b50505050505050505050955095509592505050565b60008061065e86866106f9565b9050600073__$e0022d6f389ac14ff1ce1dc57a4018d0a3$__637b82d74e89846040518363ffffffff1660e01b815260040161069b929190613d95565b61024060405180830381865af41580156106b9573d6000803e3d6000fd5b505050506040513d601f19601f820116820180604052508101906106dd9190614068565b90506106ec8186866000611a61565b9250505095945050505050565b60008173ffffffffffffffffffffffffffffffffffffffff168373ffffffffffffffffffffffffffffffffffffffff1610610735578183610738565b82825b809350819450505060405160200161074f906141cd565b6040516020818303038152906040528051906020012083836040516020016107799392919061420b565b60405160208183030381529060405280519060200120905092915050565b6000806000806107a56132be565b6107ae88611beb565b81610140018181525050866020015173ffffffffffffffffffffffffffffffffffffffff166318160ddd6040518163ffffffff1660e01b8152600401602060405180830381865afa158015610807573d6000803e3d6000fd5b505050506040513d601f19601f8201168201806040525081019061082b9190614242565b81602001818152505061084687600080846101400151611c92565b9091505082604001836080018281525082815250505061086f8760016000846101400151611c92565b90915050826060018360a001828152508281525050506108988682604001518360200151611dba565b816101000181815250506108b58682606001518360200151611dba565b816101200181815250506109026040518060400160405280601081526020017f766172732e746f74616c537570706c79000000000000000000000000000000008152508260200151611ec1565b6109456040518060400160405280601281526020017f766172732e7072696365526573657276653000000000000000000000000000008152508260400151611ec1565b6109886040518060400160405280601281526020017f766172732e7072696365526573657276653100000000000000000000000000008152508260600151611ec1565b6109cc6040518060400160405280600c81526020017f766172732e616d6f756e74300000000000000000000000000000000000000000815250826101000151611ec1565b610a106040518060400160405280600c81526020017f766172732e616d6f756e74310000000000000000000000000000000000000000815250826101200151611ec1565b80610100015181610120015182608001518360a0015194509450945094505093509350935093565b60608373ffffffffffffffffffffffffffffffffffffffff1663f069052a604051602001610a65906142bb565b6040516020818303038152906040528051906020012085856040518463ffffffff1660e01b8152600401610a9b939291906142ea565b600060405180830381865afa158015610ab8573d6000803e3d6000fd5b505050506040513d6000823e3d601f19601f82011682018060405250810190610ae19190614410565b90509392505050565b6000610b3957610b386040518060400160405280600681526020017f2573202d2573000000000000000000000000000000000000000000000000000081525083610b3384611f0c565b611f3d565b5b5050565b610b45613213565b610b4d613318565b73__$e0022d6f389ac14ff1ce1dc57a4018d0a3$__637b82d74e85856040518363ffffffff1660e01b8152600401610b86929190613d95565b61024060405180830381865af4158015610ba4573d6000803e3d6000fd5b505050506040513d601f19601f82011682018060405250810190610bc89190614068565b8160000181905250610bd984611fdc565b816020018181525050610beb84611beb565b81610180018181525050610c0f816000015160008360200151846101800151611c92565b84606001856040018660a001876080018481525084815250848152508481525050505050610c4d816000015160018360200151846101800151611c92565b84610100018560e001866101400187610120018481525084815250848152508481525050505050610c818160000151612083565b8260c0018361016001828152508281525050506040518061018001604052806040518060400160405280604051806101800160405280866000015160000151600060ff1660028110610cd657610cd5614096565b5b60200201516000015173ffffffffffffffffffffffffffffffffffffffff168152602001866000015160000151600060ff1660028110610d1957610d18614096565b5b60200201516000015173ffffffffffffffffffffffffffffffffffffffff166395d89b416040518163ffffffff1660e01b8152600401600060405180830381865afa158015610d6c573d6000803e3d6000fd5b505050506040513d6000823e3d601f19601f82011682018060405250810190610d9591906144ff565b8152602001866000015160000151600060ff1660028110610db957610db8614096565b5b60200201516000015173ffffffffffffffffffffffffffffffffffffffff1663313ce5676040518163ffffffff1660e01b8152600401602060405180830381865afa158015610e0c573d6000803e3d6000fd5b505050506040513d601f19601f82011682018060405250810190610e30919061455d565b60ff168152602001866000015160000151600060ff1660028110610e5757610e56614096565b5b60200201516020015181526020018660c001518152602001866000015160000151600060ff1660028110610e8e57610e8d614096565b5b6020020151606001518152602001866000015160000151600060ff1660028110610ebb57610eba614096565b5b6020020151608001518152602001866000015160000151600060ff1660028110610ee857610ee7614096565b5b602002015160a0015181526020018660400151815260200186606001518152602001866080015181526020018660a001518152508152602001604051806101800160405280866000015160000151600160ff1660028110610f4c57610f4b614096565b5b60200201516000015173ffffffffffffffffffffffffffffffffffffffff168152602001866000015160000151600160ff1660028110610f8f57610f8e614096565b5b60200201516000015173ffffffffffffffffffffffffffffffffffffffff166395d89b416040518163ffffffff1660e01b8152600401600060405180830381865afa158015610fe2573d6000803e3d6000fd5b505050506040513d6000823e3d601f19601f8201168201806040525081019061100b91906144ff565b8152602001866000015160000151600160ff166002811061102f5761102e614096565b5b60200201516000015173ffffffffffffffffffffffffffffffffffffffff1663313ce5676040518163ffffffff1660e01b8152600401602060405180830381865afa158015611082573d6000803e3d6000fd5b505050506040513d601f19601f820116820180604052508101906110a6919061455d565b60ff168152602001866000015160000151600160ff16600281106110cd576110cc614096565b5b60200201516020015181526020018661016001518152602001866000015160000151600160ff166002811061110557611104614096565b5b6020020151606001518152602001866000015160000151600160ff166002811061113257611131614096565b5b6020020151608001518152602001866000015160000151600160ff166002811061115f5761115e614096565b5b602002015160a0015181526020018660e00151815260200186610100015181526020018661012001518152602001866101400151815250815250815260200182600001516020015173ffffffffffffffffffffffffffffffffffffffff16815260200182600001516040015173ffffffffffffffffffffffffffffffffffffffff16815260200182600001516060015181526020018260000151608001518152602001601b60ff1681526020016112198360000151611675565b815260200161122886866122bc565b73ffffffffffffffffffffffffffffffffffffffff16815260200161125483600001516060015161239a565b1515815260200161126586866123ca565b8152602001826000015160000151600060ff166002811061128957611288614096565b5b602002015160c0015181526020016112a88684600001516000806124a8565b815250816101a00181905250806101a0015191505092915050565b6000806000806112d1613393565b6112da88611beb565b816101c00181815250506112f686600080846101c00151611c92565b9091505082600001836040018281525082815250505061131f8660016000846101c00151611c92565b909150508260200183606001828152508281525050506113428660600151612622565b816101400181815250506113728761136a83610140015161271061265390919063ffffffff16565b612710611dba565b816101800181815250506113aa816000015182602001516113a5846101800151856000015161265390919063ffffffff16565b611dba565b8160800181815250506113ce8160200151826080015161265390919063ffffffff16565b8160e00181815250508060e00151816040015182606001516113fe8461014001518b6126ac90919063ffffffff16565b94509450945094505093509350935093565b600080600080861180156114245750600084145b1561143457849150859050611487565b6000871180156114445750600085145b1561145457869150839050611486565b6040517f6331fab100000000000000000000000000000000000000000000000000000000815260040160405180910390fd5b5b6000611498896060015160006126d9565b905060006114ab8a6060015160016126d9565b905060006114d2856b033b2e3c9fd0803ce800000085600a6114cd91906146bd565b611dba565b905060006114f9856b033b2e3c9fd0803ce800000085600a6114f491906146bd565b611dba565b905061150e818361174890919063ffffffff16565b965050505050505095945050505050565b60008060008061152d613393565b61153688611beb565b816101c001818152505061155286600080846101c00151611c92565b9091505082600001836040018281525082815250505061157b8660016000846101c00151611c92565b909150508260200183606001828152508281525050506115ba816000015182602001516115b58a856020015161265390919063ffffffff16565b611dba565b816101000181815250506115e0816000015182610100015161265390919063ffffffff16565b816101200181815250506115f78660600151612622565b8161014001818152505061162c81610120015161271061162784610140015161271061265390919063ffffffff16565b611dba565b816101a0018181525050806101a00151816040015182606001516116638461014001518561012001516126ac90919063ffffffff16565b94509450945094505093509350935093565b600080611686836000806000611c92565b5050509050600061169b846001600080611c92565b5050509050600081036116b357600092505050611743565b60006116c4856060015160006126d9565b905060006116d7866060015160016126d9565b905060006116fe856b033b2e3c9fd0803ce800000085600a6116f991906146bd565b611dba565b90506000611725856b033b2e3c9fd0803ce800000085600a61172091906146bd565b611dba565b905061173a818361174890919063ffffffff16565b96505050505050505b919050565b60006b033b2e3c9fd0803ce8000000600283046000190304831115158215171561177157600080fd5b81600283046b033b2e3c9fd0803ce800000085020104905092915050565b60008060008061179d613393565b6117a689611beb565b816101c00181815250506117c287600080846101c00151611c92565b909150508260000183604001828152508281525050506117eb8760016000846101c00151611c92565b90915050826020018360600182815250828152505050851561182157878160000181815161181991906140f4565b915081815250505b61182e8760600151612622565b8161014001818152505061185e8861185683610140015161271061265390919063ffffffff16565b612710611dba565b8161016001818152505061189681600001518260200151611891846101600151856000015161274c90919063ffffffff16565b611dba565b8160800181815250506118ba8160800151826020015161265390919063ffffffff16565b8160c00181815250508060c00151816040015182606001516118ea8461014001518c6126ac90919063ffffffff16565b945094509450945050945094509450949050565b60008060008061190c613393565b61191589611beb565b816101c001818152505061193187600080846101c00151611c92565b9091505082600001836040018281525082815250505061195a8760016000846101c00151611c92565b90915050826020018360600182815250828152505050851561199057878160200181815161198891906140f4565b915081815250505b6119b9816000015182602001516119b48b856020015161274c90919063ffffffff16565b611dba565b8160800181815250506119dd8160800151826000015161265390919063ffffffff16565b8160a00181815250506119f38760600151612622565b81610140018181525050611a278160a00151611a1f83610140015161271061265390919063ffffffff16565b612710611dba565b81604001518260600151611a4d8461014001518560a001516126ac90919063ffffffff16565b945094509450945050945094509450949050565b6000611a6b6132be565b856020015173ffffffffffffffffffffffffffffffffffffffff166318160ddd6040518163ffffffff1660e01b8152600401602060405180830381865afa158015611aba573d6000803e3d6000fd5b505050506040513d601f19601f82011682018060405250810190611ade9190614242565b816020018181525050611af5866000806000611c92565b9091509050508160c0018181525050611b12866001600080611c92565b9091509050508160e00181815250508215611b5a57848160c001818151611b3991906140f4565b91508181525050838160e001818151611b5291906140f4565b915081815250505b6000816020015103611ba357611b956103e8611b87611b8287896127a590919063ffffffff16565b612812565b61265390919063ffffffff16565b816000018181525050611bdb565b611bd1611bb98683602001518460c00151611dba565b611bcc8684602001518560e00151611dba565b61290b565b8160000181815250505b8060000151915050949350505050565b60008173ffffffffffffffffffffffffffffffffffffffff1663bd02d0f5604051602001611c1890614754565b604051602081830303815290604052805190602001206040518263ffffffff1660e01b8152600401611c4a9190614774565b602060405180830381865afa158015611c67573d6000803e3d6000fd5b505050506040513d601f19601f82011682018060405250810190611c8b9190614242565b9050919050565b600080600080600088600001518860ff1660028110611cb457611cb3614096565b5b602002015190506000611cc78a8a612924565b905060008103611ce65760008060008095509550955095505050611daf565b6000611cf6838c60800151612a2f565b90506000611d0d8983612a7490919063ffffffff16565b90506000808a14611d3f57818410611d3757611d32828561265390919063ffffffff16565b611d3a565b60005b611d42565b60005b90506000611d598c86612a7490919063ffffffff16565b90506000808d14611d8b57848210611d8357611d7e858361265390919063ffffffff16565b611d86565b60005b611d8e565b60005b90508486611d9c919061478f565b8684839a509a509a509a50505050505050505b945094509450949050565b6000808385029050600080198587098281108382030391505060008103611df557838281611deb57611dea6147c3565b5b0492505050611eba565b808411611e2e576040517f227bc15300000000000000000000000000000000000000000000000000000000815260040160405180910390fd5b600084868809905082811182039150808303925060008560000386169050808604955080840493506001818260000304019050808302841793506000600287600302189050808702600203810290508087026002038102905080870260020381029050808702600203810290508087026002038102905080870260020381029050808502955050505050505b9392505050565b6000611f0857611f076040518060400160405280600681526020017f2573202d257300000000000000000000000000000000000000000000000000008152508383612abf565b5b5050565b6060611f3682604051602001611f229190614813565b604051602081830303815290604052612b5e565b9050919050565b611fd7838383604051602401611f5593929190614867565b6040516020818303038152906040527f2ced7cef000000000000000000000000000000000000000000000000000000007bffffffffffffffffffffffffffffffffffffffffffffffffffffffff19166020820180517bffffffffffffffffffffffffffffffffffffffffffffffffffffffff8381831617835250505050612e52565b505050565b60008173ffffffffffffffffffffffffffffffffffffffff1663bd02d0f5604051602001612009906148ff565b604051602081830303815290604052805190602001206040518263ffffffff1660e01b815260040161203b9190614774565b602060405180830381865afa158015612058573d6000803e3d6000fd5b505050506040513d601f19601f8201168201806040525081019061207c9190614242565b9050919050565b60008061208e613409565b612099846000612e6c565b8260000183602001828152508281525050506120ba846060015160006126d9565b8160600181815250506120ee81600001516b033b2e3c9fd0803ce80000008360600151600a6120e991906146bd565b611dba565b81604001818152505060008160200151036121135760008160800181815250506121c1565b836040015173ffffffffffffffffffffffffffffffffffffffff1663fdd63ecf6040518060600160405280846000015181526020018460200151815260200184604001518152506040518263ffffffff1660e01b81526004016121769190614970565b602060405180830381865afa158015612193573d6000803e3d6000fd5b505050506040513d601f19601f820116820180604052508101906121b79190614242565b8160800181815250505b6121cc846001612e6c565b82600001836020018281525082815250505060008160200151036121fa5760008160a00181815250506122a8565b836040015173ffffffffffffffffffffffffffffffffffffffff1663fdd63ecf6040518060600160405280846000015181526020018460200151815260200184604001518152506040518263ffffffff1660e01b815260040161225d9190614970565b602060405180830381865afa15801561227a573d6000803e3d6000fd5b505050506040513d601f19601f8201168201806040525081019061229e9190614242565b8160a00181815250505b80608001518160a001519250925050915091565b6000806122c98484612ebc565b90508073ffffffffffffffffffffffffffffffffffffffff166321f8a721846040516020016122f7906149d7565b6040516020818303038152906040528051906020012060405160200161231e9291906149f7565b604051602081830303815290604052805190602001206040518263ffffffff1660e01b81526004016123509190614774565b602060405180830381865afa15801561236d573d6000803e3d6000fd5b505050506040513d601f19601f820116820180604052508101906123919190614a20565b91505092915050565b6000807ffffffffffffffffffffffffffffffffffffffffffffffffffff7ffffffffffff19831614159050919050565b6000806123d78484612ebc565b90508073ffffffffffffffffffffffffffffffffffffffff1663bd02d0f58460405160200161240590614a99565b6040516020818303038152906040528051906020012060405160200161242c9291906149f7565b604051602081830303815290604052805190602001206040518263ffffffff1660e01b815260040161245e9190614774565b602060405180830381865afa15801561247b573d6000803e3d6000fd5b505050506040513d601f19601f8201168201806040525081019061249f9190614242565b91505092915050565b6000806124b6856001612924565b905082156124cd5783816124ca91906140f4565b90505b60006124d887612fad565b905060006124ef8284612a7490919063ffffffff16565b905060008760000151600160ff166002811061250e5761250d614096565b5b6020020151606001518210612551578760000151600160ff166002811061253857612537614096565b5b6020020151606001518261254c91906140f4565b612554565b60005b90506125956040518060400160405280600b81526020017f706f6f6c42616c616e636500000000000000000000000000000000000000000081525085611ec1565b6125d46040518060400160405280600e81526020017f6d61784465706f7369745261746500000000000000000000000000000000000081525084611ec1565b6126136040518060400160405280601181526020017f706f6f6c42616c616e636541646a75737400000000000000000000000000000081525083611ec1565b80945050505050949350505050565b600060387fffffffffffffffffffffffffffffffffffffffffffffff0000ffffffffffffff198316901c9050919050565b600082828461266291906140f4565b91508111156126a6576040517f08c379a000000000000000000000000000000000000000000000000000000000815260040161269d90614b05565b60405180910390fd5b92915050565b60008161138860001903048311158215176126c657600080fd5b6127106113888385020104905092915050565b6000807fffffffffffffffffffffffffffffffffffffffff00ffffffffffffffffffffff9050600060589050600160ff168460ff160361273b577fffffffffffffffffffffffffffffffffffffff00ffffffffffffffffffffffff9150606090505b8082198616901c9250505092915050565b600082828461275b919061478f565b915081101561279f576040517f08c379a000000000000000000000000000000000000000000000000000000000815260040161279690614b71565b60405180910390fd5b92915050565b6000808214806127cd5750828283856127be9190614b91565b9250826127cb9190614bd3565b145b61280c576040517f08c379a000000000000000000000000000000000000000000000000000000000815260040161280390614c50565b60405180910390fd5b92915050565b60008082036128245760009050612906565b6000600161283184613054565b901c6001901b9050600181848161284b5761284a6147c3565b5b048201901c90506001818481612864576128636147c3565b5b048201901c9050600181848161287d5761287c6147c3565b5b048201901c90506001818481612896576128956147c3565b5b048201901c905060018184816128af576128ae6147c3565b5b048201901c905060018184816128c8576128c76147c3565b5b048201901c905060018184816128e1576128e06147c3565b5b048201901c9050612902818285816128fc576128fb6147c3565b5b0461290b565b9150505b919050565b600081831061291a578161291c565b825b905092915050565b60008083600001518360ff166002811061294157612940614096565b5b602002015190506000846020015173ffffffffffffffffffffffffffffffffffffffff1663e42c08f283600001516040518263ffffffff1660e01b815260040161298b9190614c70565b602060405180830381865afa1580156129a8573d6000803e3d6000fd5b505050506040513d601f19601f820116820180604052508101906129cc9190614242565b9050600081036129e157600092505050612a29565b6000826060015190508260c00151816129fa919061478f565b8210612a20578260c001518183612a1191906140f4565b612a1b91906140f4565b612a23565b60005b93505050505b92915050565b6000808360a0015103612a455760009050612a6e565b6000612a518484613135565b9050612a6a818560a00151612a7490919063ffffffff16565b9150505b92915050565b6000816b019d971e4fe8401e740000006000190304831115821517612a9857600080fd5b6b033b2e3c9fd0803ce80000006b019d971e4fe8401e740000008385020104905092915050565b612b59838383604051602401612ad793929190614c8b565b6040516020818303038152906040527f5821efa1000000000000000000000000000000000000000000000000000000007bffffffffffffffffffffffffffffffffffffffffffffffffffffffff19166020820180517bffffffffffffffffffffffffffffffffffffffffffffffffffffffff8381831617835250505050612e52565b505050565b606060006040518060400160405280601081526020017f30313233343536373839616263646566000000000000000000000000000000008152509050600060028451612baa9190614b91565b6002612bb6919061478f565b67ffffffffffffffff811115612bcf57612bce613dc3565b5b6040519080825280601f01601f191660200182016040528015612c015781602001600182028036833780820191505090505b5090507f300000000000000000000000000000000000000000000000000000000000000081600081518110612c3957612c38614096565b5b60200101907effffffffffffffffffffffffffffffffffffffffffffffffffffffffffffff1916908160001a9053507f780000000000000000000000000000000000000000000000000000000000000081600181518110612c9d57612c9c614096565b5b60200101907effffffffffffffffffffffffffffffffffffffffffffffffffffffffffffff1916908160001a90535060005b8451811015612e4757826004868381518110612cee57612ced614096565b5b602001015160f81c60f81b7effffffffffffffffffffffffffffffffffffffffffffffffffffffffffffff1916901c60f81c60ff1681518110612d3457612d33614096565b5b602001015160f81c60f81b82600283612d4d9190614b91565b6002612d59919061478f565b81518110612d6a57612d69614096565b5b60200101907effffffffffffffffffffffffffffffffffffffffffffffffffffffffffffff1916908160001a90535082600f60f81b868381518110612db257612db1614096565b5b602001015160f81c60f81b1660f81c60ff1681518110612dd557612dd4614096565b5b602001015160f81c60f81b82600283612dee9190614b91565b6003612dfa919061478f565b81518110612e0b57612e0a614096565b5b60200101907effffffffffffffffffffffffffffffffffffffffffffffffffffffffffffff1916908160001a9053508080600101915050612ccf565b508092505050919050565b612e6981612e616131846131a5565b63ffffffff16565b50565b6000806000612e9d85600001518560ff1660028110612e8e57612e8d614096565b5b60200201518660800151612a2f565b90506000612eab8686612924565b905080829350935050509250929050565b6000808390508073ffffffffffffffffffffffffffffffffffffffff166391d4403c604051602001612eed906142bb565b60405160208183030381529060405280519060200120856040518363ffffffff1660e01b8152600401612f219291906149f7565b602060405180830381865afa158015612f3e573d6000803e3d6000fd5b505050506040513d601f19601f82011682018060405250810190612f629190614cfc565b612fa357826040517f7357d91f000000000000000000000000000000000000000000000000000000008152600401612f9a9190614774565b60405180910390fd5b8091505092915050565b60008173ffffffffffffffffffffffffffffffffffffffff1663bd02d0f5604051602001612fda90614d75565b604051602081830303815290604052805190602001206040518263ffffffff1660e01b815260040161300c9190614774565b602060405180830381865afa158015613029573d6000803e3d6000fd5b505050506040513d601f19601f8201168201806040525081019061304d9190614242565b9050919050565b600080600090506000608084901c111561307657608083901c92506080810190505b6000604084901c111561309157604083901c92506040810190505b6000602084901c11156130ac57602083901c92506020810190505b6000601084901c11156130c757601083901c92506010810190505b6000600884901c11156130e257600883901c92506008810190505b6000600484901c11156130fd57600483901c92506004810190505b6000600284901c111561311857600283901c92506002810190505b6000600184901c111561312c576001810190505b80915050919050565b600061313f6131b0565b8203613151578260200151905061317e565b60006131618460400151846131b8565b905061317a846020015182612a7490919063ffffffff16565b9150505b92915050565b60006a636f6e736f6c652e6c6f679050600080835160208501845afa505050565b61343f819050919050565b600042905090565b600080826131c46131b0565b6131ce91906140f4565b846131d99190614b91565b90506301e1338081816131ef576131ee6147c3565b5b049050806b033b2e3c9fd0803ce800000061320a919061478f565b91505092915050565b604051806101800160405280613227613449565b8152602001600073ffffffffffffffffffffffffffffffffffffffff168152602001600073ffffffffffffffffffffffffffffffffffffffff16815260200160008152602001600081526020016000815260200160008152602001600073ffffffffffffffffffffffffffffffffffffffff1681526020016000151581526020016000815260200160008152602001600081525090565b60405180610160016040528060008152602001600081526020016000815260200160008152602001600081526020016000815260200160008152602001600081526020016000815260200160008152602001600081525090565b604051806101c0016040528061332c613476565b815260200160008152602001600081526020016000815260200160008152602001600081526020016000815260200160008152602001600081526020016000815260200160008152602001600081526020016000815260200161338d613213565b81525090565b604051806101e001604052806000815260200160008152602001600081526020016000815260200160008152602001600081526020016000815260200160008152602001600081526020016000815260200160008152602001600081526020016000815260200160008152602001600081525090565b6040518060c001604052806000815260200160008152602001600081526020016000815260200160008152602001600081525090565b613447614d95565b565b60405180604001604052806002905b6134606134d7565b8152602001906001900390816134585790505090565b6040518060a0016040528061348961354e565b8152602001600073ffffffffffffffffffffffffffffffffffffffff168152602001600073ffffffffffffffffffffffffffffffffffffffff16815260200160008152602001600081525090565b604051806101800160405280600073ffffffffffffffffffffffffffffffffffffffff16815260200160608152602001600081526020016000815260200160008152602001600081526020016000815260200160008152602001600081526020016000815260200160008152602001600081525090565b60405180604001604052806002905b61356561357b565b81526020019060019003908161355d5790505090565b6040518060e00160405280600073ffffffffffffffffffffffffffffffffffffffff1681526020016000815260200160008152602001600081526020016000815260200160008152602001600081525090565b6000604051905090565b600080fd5b600080fd5b600073ffffffffffffffffffffffffffffffffffffffff82169050919050565b600061360d826135e2565b9050919050565b61361d81613602565b811461362857600080fd5b50565b60008135905061363a81613614565b92915050565b6000819050919050565b61365381613640565b811461365e57600080fd5b50565b6000813590506136708161364a565b92915050565b600080600080608085870312156136905761368f6135d8565b5b600061369e8782880161362b565b94505060206136af8782880161362b565b93505060406136c08782880161362b565b92505060606136d187828801613661565b91505092959194509250565b6136e681613640565b82525050565b600060408201905061370160008301856136dd565b61370e60208301846136dd565b9392505050565b60008060006060848603121561372e5761372d6135d8565b5b600061373c8682870161362b565b935050602061374d86828701613661565b925050604061375e86828701613661565b9150509250925092565b600081519050919050565b600082825260208201905092915050565b6000819050602082019050919050565b600060029050919050565b600081905092915050565b6000819050919050565b6137bd81613602565b82525050565b600081519050919050565b600082825260208201905092915050565b60005b838110156137fd5780820151818401526020810190506137e2565b60008484015250505050565b6000601f19601f8301169050919050565b6000613825826137c3565b61382f81856137ce565b935061383f8185602086016137df565b61384881613809565b840191505092915050565b61385c81613640565b82525050565b60006101808301600083015161387b60008601826137b4565b5060208301518482036020860152613893828261381a565b91505060408301516138a86040860182613853565b5060608301516138bb6060860182613853565b5060808301516138ce6080860182613853565b5060a08301516138e160a0860182613853565b5060c08301516138f460c0860182613853565b5060e083015161390760e0860182613853565b5061010083015161391c610100860182613853565b50610120830151613931610120860182613853565b50610140830151613946610140860182613853565b5061016083015161395b610160860182613853565b508091505092915050565b60006139728383613862565b905092915050565b6000602082019050919050565b600061399282613794565b61399c818561379f565b9350836020820285016139ae856137aa565b8060005b858110156139ea57848403895281516139cb8582613966565b94506139d68361397a565b925060208a019950506001810190506139b2565b50829750879550505050505092915050565b60008115159050919050565b613a11816139fc565b82525050565b6000610180830160008301518482036000860152613a358282613987565b9150506020830151613a4a60208601826137b4565b506040830151613a5d60408601826137b4565b506060830151613a706060860182613853565b506080830151613a836080860182613853565b5060a0830151613a9660a0860182613853565b5060c0830151613aa960c0860182613853565b5060e0830151613abc60e08601826137b4565b50610100830151613ad1610100860182613a08565b50610120830151613ae6610120860182613853565b50610140830151613afb610140860182613853565b50610160830151613b10610160860182613853565b508091505092915050565b6000613b278383613a17565b905092915050565b6000602082019050919050565b6000613b4782613768565b613b518185613773565b935083602082028501613b6385613784565b8060005b85811015613b9f5784840389528151613b808582613b1b565b9450613b8b83613b2f565b925060208a01995050600181019050613b67565b50829750879550505050505092915050565b60006020820190508181036000830152613bcb8184613b3c565b905092915050565b600060ff82169050919050565b613be981613bd3565b8114613bf457600080fd5b50565b600081359050613c0681613be0565b92915050565b600080600080600060a08688031215613c2857613c276135d8565b5b6000613c368882890161362b565b9550506020613c478882890161362b565b9450506040613c588882890161362b565b9350506060613c6988828901613661565b9250506080613c7a88828901613bf7565b9150509295509295909350565b6000819050919050565b613c9a81613c87565b82525050565b6000606082019050613cb560008301866136dd565b613cc260208301856136dd565b613ccf6040830184613c91565b949350505050565b600080600080600060a08688031215613cf357613cf26135d8565b5b6000613d018882890161362b565b9550506020613d128882890161362b565b9450506040613d238882890161362b565b9350506060613d3488828901613661565b9250506080613d4588828901613661565b9150509295509295909350565b6000602082019050613d6760008301846136dd565b92915050565b613d7681613602565b82525050565b6000819050919050565b613d8f81613d7c565b82525050565b6000604082019050613daa6000830185613d6d565b613db76020830184613d86565b9392505050565b600080fd5b7f4e487b7100000000000000000000000000000000000000000000000000000000600052604160045260246000fd5b613dfb82613809565b810181811067ffffffffffffffff82111715613e1a57613e19613dc3565b5b80604052505050565b6000613e2d6135ce565b9050613e398282613df2565b919050565b600080fd5b600067ffffffffffffffff821115613e5e57613e5d613dc3565b5b602082029050919050565b600080fd5b600081519050613e7d81613614565b92915050565b600081519050613e928161364a565b92915050565b600060e08284031215613eae57613ead613dbe565b5b613eb860e0613e23565b90506000613ec884828501613e6e565b6000830152506020613edc84828501613e83565b6020830152506040613ef084828501613e83565b6040830152506060613f0484828501613e83565b6060830152506080613f1884828501613e83565b60808301525060a0613f2c84828501613e83565b60a08301525060c0613f4084828501613e83565b60c08301525092915050565b6000613f5f613f5a84613e43565b613e23565b90508060e08402830185811115613f7957613f78613e69565b5b835b81811015613fa25780613f8e8882613e98565b84526020840193505060e081019050613f7b565b5050509392505050565b600082601f830112613fc157613fc0613e3e565b5b6002613fce848285613f4c565b91505092915050565b60006102408284031215613fee57613fed613dbe565b5b613ff860a0613e23565b9050600061400884828501613fac565b6000830152506101c061401d84828501613e6e565b6020830152506101e061403284828501613e6e565b60408301525061020061404784828501613e83565b60608301525061022061405c84828501613e83565b60808301525092915050565b6000610240828403121561407f5761407e6135d8565b5b600061408d84828501613fd7565b91505092915050565b7f4e487b7100000000000000000000000000000000000000000000000000000000600052603260045260246000fd5b7f4e487b7100000000000000000000000000000000000000000000000000000000600052601160045260246000fd5b60006140ff82613640565b915061410a83613640565b9250828203905081811115614122576141216140c5565b5b92915050565b600061413382613c87565b91507f80000000000000000000000000000000000000000000000000000000000000008203614165576141646140c5565b5b816000039050919050565b600082825260208201905092915050565b7f504f4f4c00000000000000000000000000000000000000000000000000000000600082015250565b60006141b7600483614170565b91506141c282614181565b602082019050919050565b600060208201905081810360008301526141e6816141aa565b9050919050565b6141f681613d7c565b82525050565b61420581613602565b82525050565b600060608201905061422060008301866141ed565b61422d60208301856141fc565b61423a60408301846141fc565b949350505050565b600060208284031215614258576142576135d8565b5b600061426684828501613e83565b91505092915050565b7f504f4f4c5f4c4953540000000000000000000000000000000000000000000000600082015250565b60006142a5600983614170565b91506142b08261426f565b602082019050919050565b600060208201905081810360008301526142d481614298565b9050919050565b6142e481613640565b82525050565b60006060820190506142ff60008301866141ed565b61430c60208301856142db565b61431960408301846142db565b949350505050565b600067ffffffffffffffff82111561433c5761433b613dc3565b5b602082029050602081019050919050565b61435681613d7c565b811461436157600080fd5b50565b6000815190506143738161434d565b92915050565b600061438c61438784614321565b613e23565b905080838252602082019050602084028301858111156143af576143ae613e69565b5b835b818110156143d857806143c48882614364565b8452602084019350506020810190506143b1565b5050509392505050565b600082601f8301126143f7576143f6613e3e565b5b8151614407848260208601614379565b91505092915050565b600060208284031215614426576144256135d8565b5b600082015167ffffffffffffffff811115614444576144436135dd565b5b614450848285016143e2565b91505092915050565b600080fd5b600067ffffffffffffffff82111561447957614478613dc3565b5b61448282613809565b9050602081019050919050565b60006144a261449d8461445e565b613e23565b9050828152602081018484840111156144be576144bd614459565b5b6144c98482856137df565b509392505050565b600082601f8301126144e6576144e5613e3e565b5b81516144f684826020860161448f565b91505092915050565b600060208284031215614515576145146135d8565b5b600082015167ffffffffffffffff811115614533576145326135dd565b5b61453f848285016144d1565b91505092915050565b60008151905061455781613be0565b92915050565b600060208284031215614573576145726135d8565b5b600061458184828501614548565b91505092915050565b60008160011c9050919050565b6000808291508390505b60018511156145e1578086048111156145bd576145bc6140c5565b5b60018516156145cc5780820291505b80810290506145da8561458a565b94506145a1565b94509492505050565b6000826145fa57600190506146b6565b8161460857600090506146b6565b816001811461461e576002811461462857614657565b60019150506146b6565b60ff84111561463a576146396140c5565b5b8360020a915084821115614651576146506140c5565b5b506146b6565b5060208310610133831016604e8410600b841016171561468c5782820a905083811115614687576146866140c5565b5b6146b6565b6146998484846001614597565b925090508184048111156146b0576146af6140c5565b5b81810290505b9392505050565b60006146c882613640565b91506146d383613640565b92506147007fffffffffffffffffffffffffffffffffffffffffffffffffffffffffffffffff84846145ea565b905092915050565b7f5452414441424c455f444542545f4d554c5449504945525f464143544f520000600082015250565b600061473e601e83614170565b915061474982614708565b602082019050919050565b6000602082019050818103600083015261476d81614731565b9050919050565b600060208201905061478960008301846141ed565b92915050565b600061479a82613640565b91506147a583613640565b92508282019050808211156147bd576147bc6140c5565b5b92915050565b7f4e487b7100000000000000000000000000000000000000000000000000000000600052601260045260246000fd5b6000819050919050565b61480d61480882613d7c565b6147f2565b82525050565b600061481f82846147fc565b60208201915081905092915050565b6000614839826137c3565b6148438185614170565b93506148538185602086016137df565b61485c81613809565b840191505092915050565b60006060820190508181036000830152614881818661482e565b90508181036020830152614895818561482e565b905081810360408301526148a9818461482e565b9050949350505050565b7f4d41585f424f52524f575f524154450000000000000000000000000000000000600082015250565b60006148e9600f83614170565b91506148f4826148b3565b602082019050919050565b60006020820190508181036000830152614918816148dc565b9050919050565b61492881613640565b82525050565b606082016000820151614944600085018261491f565b506020820151614957602085018261491f565b50604082015161496a604085018261491f565b50505050565b6000606082019050614985600083018461492e565b92915050565b7f504f4f4c5f534f55524345000000000000000000000000000000000000000000600082015250565b60006149c1600b83614170565b91506149cc8261498b565b602082019050919050565b600060208201905081810360008301526149f0816149b4565b9050919050565b6000604082019050614a0c60008301856141ed565b614a1960208301846141ed565b9392505050565b600060208284031215614a3657614a356135d8565b5b6000614a4484828501613e6e565b91505092915050565b7f504f4f4c5f435245415445445f54494d455f5354414d50000000000000000000600082015250565b6000614a83601783614170565b9150614a8e82614a4d565b602082019050919050565b60006020820190508181036000830152614ab281614a76565b9050919050565b7f64732d6d6174682d7375622d756e646572666c6f770000000000000000000000600082015250565b6000614aef601583614170565b9150614afa82614ab9565b602082019050919050565b60006020820190508181036000830152614b1e81614ae2565b9050919050565b7f64732d6d6174682d6164642d6f766572666c6f77000000000000000000000000600082015250565b6000614b5b601483614170565b9150614b6682614b25565b602082019050919050565b60006020820190508181036000830152614b8a81614b4e565b9050919050565b6000614b9c82613640565b9150614ba783613640565b9250828202614bb581613640565b91508282048414831517614bcc57614bcb6140c5565b5b5092915050565b6000614bde82613640565b9150614be983613640565b925082614bf957614bf86147c3565b5b828204905092915050565b7f64732d6d6174682d6d756c2d6f766572666c6f77000000000000000000000000600082015250565b6000614c3a601483614170565b9150614c4582614c04565b602082019050919050565b60006020820190508181036000830152614c6981614c2d565b9050919050565b6000602082019050614c8560008301846141fc565b92915050565b60006060820190508181036000830152614ca5818661482e565b90508181036020830152614cb9818561482e565b9050614cc860408301846142db565b949350505050565b614cd9816139fc565b8114614ce457600080fd5b50565b600081519050614cf681614cd0565b92915050565b600060208284031215614d1257614d116135d8565b5b6000614d2084828501614ce7565b91505092915050565b7f4d41585f4445504f5349545f5241544500000000000000000000000000000000600082015250565b6000614d5f601083614170565b9150614d6a82614d29565b602082019050919050565b60006020820190508181036000830152614d8e81614d52565b9050919050565b7f4e487b7100000000000000000000000000000000000000000000000000000000600052605160045260246000fdfea26469706673582212202e5a496db2defdb2cba06ed3bd4d11878870b4d20f72f162531aa59e52b2f13a64736f6c634300081c0033",
  "linkReferences": {
    "contracts/pool/PoolStoreUtils.sol": {
      "PoolStoreUtils": [
        {
          "length": 20,
          "start": 450
        },
        {
          "length": 20,
          "start": 919
        },
        {
          "length": 20,
          "start": 1318
        },
        {
          "length": 20,
          "start": 1718
        },
        {
          "length": 20,
          "start": 2977
        }
      ]
    }
  },
  "deployedLinkReferences": {
    "contracts/pool/PoolStoreUtils.sol": {
      "PoolStoreUtils": [
        {
          "length": 20,
          "start": 368
        },
        {
          "length": 20,
          "start": 837
        },
        {
          "length": 20,
          "start": 1236
        },
        {
          "length": 20,
          "start": 1636
        },
        {
          "length": 20,
          "start": 2895
        }
      ]
    }
  }
}