{
  "_format": "hh-sol-artifact-1",
  "contractName": "ReaderPoolUtils",
  "sourceName": "contracts/reader/ReaderPoolUtils.sol",
  "abi": [
    {
      "inputs": [
        {
          "internalType": "bytes32",
          "name": "key",
          "type": "bytes32"
        }
      ],
      "name": "EmptyPool",
      "type": "error"
    },
    {
      "inputs": [],
      "name": "MathOverflowedMulDiv",
      "type": "error"
    },
    {
      "inputs": [],
      "name": "SingleTokenInOutSwapOnly",
      "type": "error"
    },
    {
      "inputs": [
        {
          "internalType": "address",
          "name": "dataStore",
          "type": "address"
        },
        {
          "internalType": "address",
          "name": "token0",
          "type": "address"
        },
        {
          "internalType": "address",
          "name": "token1",
          "type": "address"
        },
        {
          "internalType": "uint256",
          "name": "amountIn",
          "type": "uint256"
        },
        {
          "internalType": "uint8",
          "name": "tokenInIndex",
          "type": "uint8"
        }
      ],
      "name": "calcAmountOut",
      "outputs": [
        {
          "internalType": "uint256",
          "name": "",
          "type": "uint256"
        },
        {
          "internalType": "uint256",
          "name": "",
          "type": "uint256"
        },
        {
          "internalType": "int256",
          "name": "",
          "type": "int256"
        }
      ],
      "stateMutability": "view",
      "type": "function"
    },
    {
      "inputs": [
        {
          "internalType": "address",
          "name": "dataStore",
          "type": "address"
        },
        {
          "internalType": "address",
          "name": "token0",
          "type": "address"
        },
        {
          "internalType": "address",
          "name": "token1",
          "type": "address"
        },
        {
          "internalType": "uint256",
          "name": "amount0",
          "type": "uint256"
        },
        {
          "internalType": "uint256",
          "name": "amount1",
          "type": "uint256"
        }
      ],
      "name": "calcLiquidityOut",
      "outputs": [
        {
          "internalType": "uint256",
          "name": "",
          "type": "uint256"
        }
      ],
      "stateMutability": "view",
      "type": "function"
    },
    {
      "inputs": [
        {
          "internalType": "address",
          "name": "dataStore",
          "type": "address"
        },
        {
          "internalType": "address",
          "name": "token0",
          "type": "address"
        },
        {
          "internalType": "address",
          "name": "token1",
          "type": "address"
        },
        {
          "internalType": "uint256",
          "name": "liquidity",
          "type": "uint256"
        }
      ],
      "name": "calcTokenPairOut",
      "outputs": [
        {
          "internalType": "uint256",
          "name": "",
          "type": "uint256"
        },
        {
          "internalType": "uint256",
          "name": "",
          "type": "uint256"
        }
      ],
      "stateMutability": "view",
      "type": "function"
    },
    {
      "inputs": [
        {
          "internalType": "address",
          "name": "dataStore",
          "type": "address"
        },
        {
          "internalType": "uint256",
          "name": "start",
          "type": "uint256"
        },
        {
          "internalType": "uint256",
          "name": "end",
          "type": "uint256"
        }
      ],
      "name": "getPools",
      "outputs": [
        {
          "components": [
            {
              "components": [
                {
                  "internalType": "address",
                  "name": "token",
                  "type": "address"
                },
                {
                  "internalType": "string",
                  "name": "symbol",
                  "type": "string"
                },
                {
                  "internalType": "uint256",
                  "name": "decimals",
                  "type": "uint256"
                },
                {
                  "internalType": "uint256",
                  "name": "borrowIndex",
                  "type": "uint256"
                },
                {
                  "internalType": "uint256",
                  "name": "borrowApy",
                  "type": "uint256"
                },
                {
                  "internalType": "uint256",
                  "name": "totalCollateral",
                  "type": "uint256"
                },
                {
                  "internalType": "uint256",
                  "name": "totalCollateralWithDebt",
                  "type": "uint256"
                },
                {
                  "internalType": "uint256",
                  "name": "totalDebtScaled",
                  "type": "uint256"
                },
                {
                  "internalType": "uint256",
                  "name": "poolBalance",
                  "type": "uint256"
                },
                {
                  "internalType": "uint256",
                  "name": "priceLiquidity",
                  "type": "uint256"
                },
                {
                  "internalType": "uint256",
                  "name": "avaiableLoan",
                  "type": "uint256"
                },
                {
                  "internalType": "uint256",
                  "name": "actualTradable",
                  "type": "uint256"
                }
              ],
              "internalType": "struct ReaderPoolUtils.Asset[2]",
              "name": "assets",
              "type": "tuple[2]"
            },
            {
              "internalType": "address",
              "name": "bank",
              "type": "address"
            },
            {
              "internalType": "address",
              "name": "interestRateStrategy",
              "type": "address"
            },
            {
              "internalType": "uint256",
              "name": "configuration",
              "type": "uint256"
            },
            {
              "internalType": "uint256",
              "name": "lastUpdateTimestamp",
              "type": "uint256"
            },
            {
              "internalType": "uint256",
              "name": "priceDecimals",
              "type": "uint256"
            },
            {
              "internalType": "uint256",
              "name": "price",
              "type": "uint256"
            },
            {
              "internalType": "address",
              "name": "source",
              "type": "address"
            },
            {
              "internalType": "bool",
              "name": "shortEnabled",
              "type": "bool"
            },
            {
              "internalType": "uint256",
              "name": "createdTimestamp",
              "type": "uint256"
            }
          ],
          "internalType": "struct ReaderPoolUtils.GetPool[]",
          "name": "",
          "type": "tuple[]"
        }
      ],
      "stateMutability": "view",
      "type": "function"
    }
  ],
  "bytecode": "0x613c57610052600b82828239805160001a6073146045577f4e487b7100000000000000000000000000000000000000000000000000000000600052600060045260246000fd5b30600052607381538281f3fe73000000000000000000000000000000000000000030146080604052600436106100565760003560e01c8063317b50ec1461005b5780638f6c7a3c1461008c578063d28b0a15146100bc578063f68a7131146100ee575b600080fd5b610075600480360381019061007091906126c9565b61011e565b60405161008392919061273f565b60405180910390f35b6100a660048036038101906100a19190612768565b6101d4565b6040516100b39190612bda565b60405180910390f35b6100d660048036038101906100d19190612c35565b6102b2565b6040516100e593929190612cc9565b60405180910390f35b61010860048036038101906101039190612d00565b610443565b6040516101159190612d7b565b60405180910390f35b600080600061012d86866104eb565b9050600073__$e0022d6f389ac14ff1ce1dc57a4018d0a3$__637b82d74e89846040518363ffffffff1660e01b815260040161016a929190612dbe565b61024060405180830381865af4158015610188573d6000803e3d6000fd5b505050506040513d601f19601f820116820180604052508101906101ac9190613091565b90506000806101bb8388610589565b5050915091508181955095505050505094509492505050565b606060006101e385858561080b565b90506000815167ffffffffffffffff81111561020257610201612dec565b5b60405190808252806020026020018201604052801561023b57816020015b6102286122e2565b8152602001906001900390816102205790505b50905060005b82518110156102a557600083828151811061025f5761025e6130bf565b5b60200260200101519050600061027589836108bd565b90508084848151811061028b5761028a6130bf565b5b602002602001018190525050508080600101915050610241565b5080925050509392505050565b6000806000806102c288886104eb565b9050600073__$e0022d6f389ac14ff1ce1dc57a4018d0a3$__637b82d74e8b846040518363ffffffff1660e01b81526004016102ff929190612dbe565b61024060405180830381865af415801561031d573d6000803e3d6000fd5b505050506040513d601f19601f820116820180604052508101906103419190613091565b905060008060008060ff168960ff1603610383576103618a856000611004565b9091509050809350819450505061037c848b60008087611152565b90506103bd565b600160ff168960ff16036103bc5761039d8a856000611261565b909150905080935081945050506103b98460008c866000611152565b90505b5b60006103c8856113a3565b905060008282116103e45781836103df919061311d565b6103f1565b82826103f0919061311d565b5b90506000610408838361147390919063ffffffff16565b90506000848411610422578161041d90613151565b610424565b815b90508686829b509b509b50505050505050505050955095509592505050565b60008061045086866104eb565b9050600073__$e0022d6f389ac14ff1ce1dc57a4018d0a3$__637b82d74e89846040518363ffffffff1660e01b815260040161048d929190612dbe565b61024060405180830381865af41580156104ab573d6000803e3d6000fd5b505050506040513d601f19601f820116820180604052508101906104cf9190613091565b90506104de81868660006114ba565b9250505095945050505050565b60008173ffffffffffffffffffffffffffffffffffffffff168373ffffffffffffffffffffffffffffffffffffffff161061052757818361052a565b82825b8093508194505050604051602001610541906131f6565b60405160208183030381529060405280519060200120838360405160200161056b93929190613234565b60405160208183030381529060405280519060200120905092915050565b60008060008061059761237f565b866020015173ffffffffffffffffffffffffffffffffffffffff166318160ddd6040518163ffffffff1660e01b8152600401602060405180830381865afa1580156105e6573d6000803e3d6000fd5b505050506040513d601f19601f8201168201806040525081019061060a919061326b565b81602001818152505061061f87600080611641565b909150508260400183608001828152508281525050506106428760016000611641565b90915050826060018360a0018281525082815250505061066b8682604001518360200151611715565b816101000181815250506106888682606001518360200151611715565b816101200181815250506106d56040518060400160405280601081526020017f766172732e746f74616c537570706c7900000000000000000000000000000000815250826020015161181c565b6107186040518060400160405280601281526020017f766172732e707269636552657365727665300000000000000000000000000000815250826040015161181c565b61075b6040518060400160405280601281526020017f766172732e707269636552657365727665310000000000000000000000000000815250826060015161181c565b61079f6040518060400160405280600c81526020017f766172732e616d6f756e7430000000000000000000000000000000000000000081525082610100015161181c565b6107e36040518060400160405280600c81526020017f766172732e616d6f756e7431000000000000000000000000000000000000000081525082610120015161181c565b80610100015181610120015182608001518360a0015194509450945094505092959194509250565b60608373ffffffffffffffffffffffffffffffffffffffff1663f069052a604051602001610838906132e4565b6040516020818303038152906040528051906020012085856040518463ffffffff1660e01b815260040161086e93929190613313565b600060405180830381865afa15801561088b573d6000803e3d6000fd5b505050506040513d6000823e3d601f19601f820116820180604052508101906108b49190613439565b90509392505050565b6108c56122e2565b6108cd6123d2565b73__$e0022d6f389ac14ff1ce1dc57a4018d0a3$__637b82d74e85856040518363ffffffff1660e01b8152600401610906929190612dbe565b61024060405180830381865af4158015610924573d6000803e3d6000fd5b505050506040513d601f19601f820116820180604052508101906109489190613091565b816000018190525061095984611867565b816020018181525050610976816000015160008360200151611641565b84606001856040018660a0018760800184815250848152508481525084815250505050506109ae816000015160018360200151611641565b8460e0018560c0018661012001876101000184815250848152508481525084815250505050506040518061014001604052806040518060400160405280604051806101800160405280866000015160000151600060ff1660028110610a1657610a156130bf565b5b60200201516000015173ffffffffffffffffffffffffffffffffffffffff168152602001866000015160000151600060ff1660028110610a5957610a586130bf565b5b60200201516000015173ffffffffffffffffffffffffffffffffffffffff166395d89b416040518163ffffffff1660e01b8152600401600060405180830381865afa158015610aac573d6000803e3d6000fd5b505050506040513d6000823e3d601f19601f82011682018060405250810190610ad59190613528565b8152602001866000015160000151600060ff1660028110610af957610af86130bf565b5b60200201516000015173ffffffffffffffffffffffffffffffffffffffff1663313ce5676040518163ffffffff1660e01b8152600401602060405180830381865afa158015610b4c573d6000803e3d6000fd5b505050506040513d601f19601f82011682018060405250810190610b709190613586565b60ff168152602001866000015160000151600060ff1660028110610b9757610b966130bf565b5b6020020151602001518152602001866000015160000151600060ff1660028110610bc457610bc36130bf565b5b6020020151604001518152602001866000015160000151600060ff1660028110610bf157610bf06130bf565b5b6020020151606001518152602001866000015160000151600060ff1660028110610c1e57610c1d6130bf565b5b6020020151608001518152602001866000015160000151600060ff1660028110610c4b57610c4a6130bf565b5b602002015160a0015181526020018660400151815260200186606001518152602001866080015181526020018660a001518152508152602001604051806101800160405280866000015160000151600160ff1660028110610caf57610cae6130bf565b5b60200201516000015173ffffffffffffffffffffffffffffffffffffffff168152602001866000015160000151600160ff1660028110610cf257610cf16130bf565b5b60200201516000015173ffffffffffffffffffffffffffffffffffffffff166395d89b416040518163ffffffff1660e01b8152600401600060405180830381865afa158015610d45573d6000803e3d6000fd5b505050506040513d6000823e3d601f19601f82011682018060405250810190610d6e9190613528565b8152602001866000015160000151600160ff1660028110610d9257610d916130bf565b5b60200201516000015173ffffffffffffffffffffffffffffffffffffffff1663313ce5676040518163ffffffff1660e01b8152600401602060405180830381865afa158015610de5573d6000803e3d6000fd5b505050506040513d601f19601f82011682018060405250810190610e099190613586565b60ff168152602001866000015160000151600160ff1660028110610e3057610e2f6130bf565b5b6020020151602001518152602001866000015160000151600160ff1660028110610e5d57610e5c6130bf565b5b6020020151604001518152602001866000015160000151600160ff1660028110610e8a57610e896130bf565b5b6020020151606001518152602001866000015160000151600160ff1660028110610eb757610eb66130bf565b5b6020020151608001518152602001866000015160000151600160ff1660028110610ee457610ee36130bf565b5b602002015160a0015181526020018660c0015181526020018660e0015181526020018661010001518152602001866101200151815250815250815260200182600001516020015173ffffffffffffffffffffffffffffffffffffffff16815260200182600001516040015173ffffffffffffffffffffffffffffffffffffffff16815260200182600001516060015181526020018260000151608001518152602001601b60ff168152602001610f9d83600001516113a3565b8152602001610fac868661190e565b73ffffffffffffffffffffffffffffffffffffffff168152602001610fd88360000151606001516119ec565b15158152602001610fe98686611a1c565b81525081610140018190525080610140015191505092915050565b600080600080611012612438565b61101e87600080611641565b909150508260000183604001828152508281525050506110418760016000611641565b90915050826020018360600182815250828152505050851561107757878160000181815161106f919061311d565b915081815250505b6110848760600151611afa565b816101200181815250506110b4886110ac836101200151612710611b2b90919063ffffffff16565b612710611715565b816101400181815250506110ec816000015182602001516110e78461014001518560000151611b8490919063ffffffff16565b611715565b81608001818152505061111081608001518260200151611b2b90919063ffffffff16565b8160c00181815250508060c00151816040015182606001516111408461012001518c611bdd90919063ffffffff16565b94509450945094505093509350935093565b600080600080861180156111665750600084145b15611176578491508590506111c9565b6000871180156111865750600085145b15611196578691508390506111c8565b6040517f6331fab100000000000000000000000000000000000000000000000000000000815260040160405180910390fd5b5b60006111da89606001516000611c0a565b905060006111ed8a606001516001611c0a565b90506000611214856b033b2e3c9fd0803ce800000085600a61120f91906136e6565b611715565b9050600061123b856b033b2e3c9fd0803ce800000085600a61123691906136e6565b611715565b9050611250818361147390919063ffffffff16565b965050505050505095945050505050565b60008060008061126f612438565b61127b87600080611641565b9091505082600001836040018281525082815250505061129e8760016000611641565b9091505082602001836060018281525082815250505085156112d45787816020018181516112cc919061311d565b915081815250505b6112fd816000015182602001516112f88b8560200151611b8490919063ffffffff16565b611715565b81608001818152505061132181608001518260000151611b2b90919063ffffffff16565b8160a00181815250506113378760600151611afa565b8161012001818152505061136b8160a00151611363836101200151612710611b2b90919063ffffffff16565b612710611715565b816040015182606001516113918461012001518560a00151611bdd90919063ffffffff16565b94509450945094505093509350935093565b6000806113b283600080611641565b505050905060006113c68460016000611641565b5050509050600081036113de5760009250505061146e565b60006113ef85606001516000611c0a565b9050600061140286606001516001611c0a565b90506000611429856b033b2e3c9fd0803ce800000085600a61142491906136e6565b611715565b90506000611450856b033b2e3c9fd0803ce800000085600a61144b91906136e6565b611715565b9050611465818361147390919063ffffffff16565b96505050505050505b919050565b60006b033b2e3c9fd0803ce8000000600283046000190304831115158215171561149c57600080fd5b81600283046b033b2e3c9fd0803ce800000085020104905092915050565b60006114c461237f565b856020015173ffffffffffffffffffffffffffffffffffffffff166318160ddd6040518163ffffffff1660e01b8152600401602060405180830381865afa158015611513573d6000803e3d6000fd5b505050506040513d601f19601f82011682018060405250810190611537919061326b565b81602001818152505061154c86600080611641565b9091509050508160c00181815250506115688660016000611641565b9091509050508160e001818152505082156115b057848160c00181815161158f919061311d565b91508181525050838160e0018181516115a8919061311d565b915081815250505b60008160200151036115f9576115eb6103e86115dd6115d88789611c7d90919063ffffffff16565b611cea565b611b2b90919063ffffffff16565b816000018181525050611631565b61162761160f8683602001518460c00151611715565b6116228684602001518560e00151611715565b611de3565b8160000181815250505b8060000151915050949350505050565b600080600080600087600001518760ff1660028110611663576116626130bf565b5b6020020151905060006116768989611dfc565b905060008103611695576000806000809550955095509550505061170c565b60006116a5838b60800151611ee9565b905060006116bc8984611f2e90919063ffffffff16565b90506000808a146116df576116da8383611b2b90919063ffffffff16565b6116e2565b60005b905082846116f09190613731565b8484866116fd919061311d565b83985098509850985050505050505b93509350935093565b60008083850290506000801985870982811083820303915050600081036117505783828161174657611745613765565b5b0492505050611815565b808411611789576040517f227bc15300000000000000000000000000000000000000000000000000000000815260040160405180910390fd5b600084868809905082811182039150808303925060008560000386169050808604955080840493506001818260000304019050808302841793506000600287600302189050808702600203810290508087026002038102905080870260020381029050808702600203810290508087026002038102905080870260020381029050808502955050505050505b9392505050565b6000611863576118626040518060400160405280600681526020017f2573202d257300000000000000000000000000000000000000000000000000008152508383611f79565b5b5050565b60008173ffffffffffffffffffffffffffffffffffffffff1663bd02d0f5604051602001611894906137e0565b604051602081830303815290604052805190602001206040518263ffffffff1660e01b81526004016118c69190613800565b602060405180830381865afa1580156118e3573d6000803e3d6000fd5b505050506040513d601f19601f82011682018060405250810190611907919061326b565b9050919050565b60008061191b8484612018565b90508073ffffffffffffffffffffffffffffffffffffffff166321f8a7218460405160200161194990613867565b60405160208183030381529060405280519060200120604051602001611970929190613887565b604051602081830303815290604052805190602001206040518263ffffffff1660e01b81526004016119a29190613800565b602060405180830381865afa1580156119bf573d6000803e3d6000fd5b505050506040513d601f19601f820116820180604052508101906119e391906138b0565b91505092915050565b6000807ffffffffffffffffffffffffffffffffffffffffffffffffffff7ffffffffffff19831614159050919050565b600080611a298484612018565b90508073ffffffffffffffffffffffffffffffffffffffff1663bd02d0f584604051602001611a5790613929565b60405160208183030381529060405280519060200120604051602001611a7e929190613887565b604051602081830303815290604052805190602001206040518263ffffffff1660e01b8152600401611ab09190613800565b602060405180830381865afa158015611acd573d6000803e3d6000fd5b505050506040513d601f19601f82011682018060405250810190611af1919061326b565b91505092915050565b600060387fffffffffffffffffffffffffffffffffffffffffffffff0000ffffffffffffff198316901c9050919050565b6000828284611b3a919061311d565b9150811115611b7e576040517f08c379a0000000000000000000000000000000000000000000000000000000008152600401611b7590613995565b60405180910390fd5b92915050565b6000828284611b939190613731565b9150811015611bd7576040517f08c379a0000000000000000000000000000000000000000000000000000000008152600401611bce90613a01565b60405180910390fd5b92915050565b6000816113886000190304831115821517611bf757600080fd5b6127106113888385020104905092915050565b6000807fffffffffffffffffffffffffffffffffffffffff00ffffffffffffffffffffff9050600060589050600160ff168460ff1603611c6c577fffffffffffffffffffffffffffffffffffffff00ffffffffffffffffffffffff9150606090505b8082198616901c9250505092915050565b600080821480611ca5575082828385611c969190613a21565b925082611ca39190613a63565b145b611ce4576040517f08c379a0000000000000000000000000000000000000000000000000000000008152600401611cdb90613ae0565b60405180910390fd5b92915050565b6000808203611cfc5760009050611dde565b60006001611d0984612109565b901c6001901b90506001818481611d2357611d22613765565b5b048201901c90506001818481611d3c57611d3b613765565b5b048201901c90506001818481611d5557611d54613765565b5b048201901c90506001818481611d6e57611d6d613765565b5b048201901c90506001818481611d8757611d86613765565b5b048201901c90506001818481611da057611d9f613765565b5b048201901c90506001818481611db957611db8613765565b5b048201901c9050611dda81828581611dd457611dd3613765565b5b04611de3565b9150505b919050565b6000818310611df25781611df4565b825b905092915050565b60008083600001518360ff1660028110611e1957611e186130bf565b5b602002015190506000846020015173ffffffffffffffffffffffffffffffffffffffff1663e42c08f283600001516040518263ffffffff1660e01b8152600401611e639190613b00565b602060405180830381865afa158015611e80573d6000803e3d6000fd5b505050506040513d601f19601f82011682018060405250810190611ea4919061326b565b905060008103611eb957600092505050611ee3565b6000826060015190508260c001518183611ed3919061311d565b611edd919061311d565b93505050505b92915050565b6000808360a0015103611eff5760009050611f28565b6000611f0b84846121ea565b9050611f24818560a00151611f2e90919063ffffffff16565b9150505b92915050565b6000816b019d971e4fe8401e740000006000190304831115821517611f5257600080fd5b6b033b2e3c9fd0803ce80000006b019d971e4fe8401e740000008385020104905092915050565b612013838383604051602401611f9193929190613b54565b6040516020818303038152906040527f5821efa1000000000000000000000000000000000000000000000000000000007bffffffffffffffffffffffffffffffffffffffffffffffffffffffff19166020820180517bffffffffffffffffffffffffffffffffffffffffffffffffffffffff8381831617835250505050612239565b505050565b6000808390508073ffffffffffffffffffffffffffffffffffffffff166391d4403c604051602001612049906132e4565b60405160208183030381529060405280519060200120856040518363ffffffff1660e01b815260040161207d929190613887565b602060405180830381865afa15801561209a573d6000803e3d6000fd5b505050506040513d601f19601f820116820180604052508101906120be9190613bc5565b6120ff57826040517f7357d91f0000000000000000000000000000000000000000000000000000000081526004016120f69190613800565b60405180910390fd5b8091505092915050565b600080600090506000608084901c111561212b57608083901c92506080810190505b6000604084901c111561214657604083901c92506040810190505b6000602084901c111561216157602083901c92506020810190505b6000601084901c111561217c57601083901c92506010810190505b6000600884901c111561219757600883901c92506008810190505b6000600484901c11156121b257600483901c92506004810190505b6000600284901c11156121cd57600283901c92506002810190505b6000600184901c11156121e1576001810190505b80915050919050565b60006121f4612253565b82036122065782602001519050612233565b600061221684604001518461225b565b905061222f846020015182611f2e90919063ffffffff16565b9150505b92915050565b612250816122486122b66122d7565b63ffffffff16565b50565b600042905090565b60008082612267612253565b612271919061311d565b8461227c9190613a21565b90506301e13380818161229257612291613765565b5b049050806b033b2e3c9fd0803ce80000006122ad9190613731565b91505092915050565b60006a636f6e736f6c652e6c6f679050600080835160208501845afa505050565b612492819050919050565b6040518061014001604052806122f661249c565b8152602001600073ffffffffffffffffffffffffffffffffffffffff168152602001600073ffffffffffffffffffffffffffffffffffffffff16815260200160008152602001600081526020016000815260200160008152602001600073ffffffffffffffffffffffffffffffffffffffff168152602001600015158152602001600081525090565b604051806101400160405280600081526020016000815260200160008152602001600081526020016000815260200160008152602001600081526020016000815260200160008152602001600081525090565b6040518061016001604052806123e66124c9565b81526020016000815260200160008152602001600081526020016000815260200160008152602001600081526020016000815260200160008152602001600081526020016124326122e2565b81525090565b60405180610160016040528060008152602001600081526020016000815260200160008152602001600081526020016000815260200160008152602001600081526020016000815260200160008152602001600081525090565b61249a613bf2565b565b60405180604001604052806002905b6124b361252a565b8152602001906001900390816124ab5790505090565b6040518060a001604052806124dc6125a1565b8152602001600073ffffffffffffffffffffffffffffffffffffffff168152602001600073ffffffffffffffffffffffffffffffffffffffff16815260200160008152602001600081525090565b604051806101800160405280600073ffffffffffffffffffffffffffffffffffffffff16815260200160608152602001600081526020016000815260200160008152602001600081526020016000815260200160008152602001600081526020016000815260200160008152602001600081525090565b60405180604001604052806002905b6125b86125ce565b8152602001906001900390816125b05790505090565b6040518060e00160405280600073ffffffffffffffffffffffffffffffffffffffff1681526020016000815260200160008152602001600081526020016000815260200160008152602001600081525090565b6000604051905090565b600080fd5b600080fd5b600073ffffffffffffffffffffffffffffffffffffffff82169050919050565b600061266082612635565b9050919050565b61267081612655565b811461267b57600080fd5b50565b60008135905061268d81612667565b92915050565b6000819050919050565b6126a681612693565b81146126b157600080fd5b50565b6000813590506126c38161269d565b92915050565b600080600080608085870312156126e3576126e261262b565b5b60006126f18782880161267e565b94505060206127028782880161267e565b93505060406127138782880161267e565b9250506060612724878288016126b4565b91505092959194509250565b61273981612693565b82525050565b60006040820190506127546000830185612730565b6127616020830184612730565b9392505050565b6000806000606084860312156127815761278061262b565b5b600061278f8682870161267e565b93505060206127a0868287016126b4565b92505060406127b1868287016126b4565b9150509250925092565b600081519050919050565b600082825260208201905092915050565b6000819050602082019050919050565b600060029050919050565b600081905092915050565b6000819050919050565b61281081612655565b82525050565b600081519050919050565b600082825260208201905092915050565b60005b83811015612850578082015181840152602081019050612835565b60008484015250505050565b6000601f19601f8301169050919050565b600061287882612816565b6128828185612821565b9350612892818560208601612832565b61289b8161285c565b840191505092915050565b6128af81612693565b82525050565b6000610180830160008301516128ce6000860182612807565b50602083015184820360208601526128e6828261286d565b91505060408301516128fb60408601826128a6565b50606083015161290e60608601826128a6565b50608083015161292160808601826128a6565b5060a083015161293460a08601826128a6565b5060c083015161294760c08601826128a6565b5060e083015161295a60e08601826128a6565b5061010083015161296f6101008601826128a6565b506101208301516129846101208601826128a6565b506101408301516129996101408601826128a6565b506101608301516129ae6101608601826128a6565b508091505092915050565b60006129c583836128b5565b905092915050565b6000602082019050919050565b60006129e5826127e7565b6129ef81856127f2565b935083602082028501612a01856127fd565b8060005b85811015612a3d5784840389528151612a1e85826129b9565b9450612a29836129cd565b925060208a01995050600181019050612a05565b50829750879550505050505092915050565b60008115159050919050565b612a6481612a4f565b82525050565b6000610140830160008301518482036000860152612a8882826129da565b9150506020830151612a9d6020860182612807565b506040830151612ab06040860182612807565b506060830151612ac360608601826128a6565b506080830151612ad660808601826128a6565b5060a0830151612ae960a08601826128a6565b5060c0830151612afc60c08601826128a6565b5060e0830151612b0f60e0860182612807565b50610100830151612b24610100860182612a5b565b50610120830151612b396101208601826128a6565b508091505092915050565b6000612b508383612a6a565b905092915050565b6000602082019050919050565b6000612b70826127bb565b612b7a81856127c6565b935083602082028501612b8c856127d7565b8060005b85811015612bc85784840389528151612ba98582612b44565b9450612bb483612b58565b925060208a01995050600181019050612b90565b50829750879550505050505092915050565b60006020820190508181036000830152612bf48184612b65565b905092915050565b600060ff82169050919050565b612c1281612bfc565b8114612c1d57600080fd5b50565b600081359050612c2f81612c09565b92915050565b600080600080600060a08688031215612c5157612c5061262b565b5b6000612c5f8882890161267e565b9550506020612c708882890161267e565b9450506040612c818882890161267e565b9350506060612c92888289016126b4565b9250506080612ca388828901612c20565b9150509295509295909350565b6000819050919050565b612cc381612cb0565b82525050565b6000606082019050612cde6000830186612730565b612ceb6020830185612730565b612cf86040830184612cba565b949350505050565b600080600080600060a08688031215612d1c57612d1b61262b565b5b6000612d2a8882890161267e565b9550506020612d3b8882890161267e565b9450506040612d4c8882890161267e565b9350506060612d5d888289016126b4565b9250506080612d6e888289016126b4565b9150509295509295909350565b6000602082019050612d906000830184612730565b92915050565b612d9f81612655565b82525050565b6000819050919050565b612db881612da5565b82525050565b6000604082019050612dd36000830185612d96565b612de06020830184612daf565b9392505050565b600080fd5b7f4e487b7100000000000000000000000000000000000000000000000000000000600052604160045260246000fd5b612e248261285c565b810181811067ffffffffffffffff82111715612e4357612e42612dec565b5b80604052505050565b6000612e56612621565b9050612e628282612e1b565b919050565b600080fd5b600067ffffffffffffffff821115612e8757612e86612dec565b5b602082029050919050565b600080fd5b600081519050612ea681612667565b92915050565b600081519050612ebb8161269d565b92915050565b600060e08284031215612ed757612ed6612de7565b5b612ee160e0612e4c565b90506000612ef184828501612e97565b6000830152506020612f0584828501612eac565b6020830152506040612f1984828501612eac565b6040830152506060612f2d84828501612eac565b6060830152506080612f4184828501612eac565b60808301525060a0612f5584828501612eac565b60a08301525060c0612f6984828501612eac565b60c08301525092915050565b6000612f88612f8384612e6c565b612e4c565b90508060e08402830185811115612fa257612fa1612e92565b5b835b81811015612fcb5780612fb78882612ec1565b84526020840193505060e081019050612fa4565b5050509392505050565b600082601f830112612fea57612fe9612e67565b5b6002612ff7848285612f75565b91505092915050565b6000610240828403121561301757613016612de7565b5b61302160a0612e4c565b9050600061303184828501612fd5565b6000830152506101c061304684828501612e97565b6020830152506101e061305b84828501612e97565b60408301525061020061307084828501612eac565b60608301525061022061308584828501612eac565b60808301525092915050565b600061024082840312156130a8576130a761262b565b5b60006130b684828501613000565b91505092915050565b7f4e487b7100000000000000000000000000000000000000000000000000000000600052603260045260246000fd5b7f4e487b7100000000000000000000000000000000000000000000000000000000600052601160045260246000fd5b600061312882612693565b915061313383612693565b925082820390508181111561314b5761314a6130ee565b5b92915050565b600061315c82612cb0565b91507f8000000000000000000000000000000000000000000000000000000000000000820361318e5761318d6130ee565b5b816000039050919050565b600082825260208201905092915050565b7f504f4f4c00000000000000000000000000000000000000000000000000000000600082015250565b60006131e0600483613199565b91506131eb826131aa565b602082019050919050565b6000602082019050818103600083015261320f816131d3565b9050919050565b61321f81612da5565b82525050565b61322e81612655565b82525050565b60006060820190506132496000830186613216565b6132566020830185613225565b6132636040830184613225565b949350505050565b6000602082840312156132815761328061262b565b5b600061328f84828501612eac565b91505092915050565b7f504f4f4c5f4c4953540000000000000000000000000000000000000000000000600082015250565b60006132ce600983613199565b91506132d982613298565b602082019050919050565b600060208201905081810360008301526132fd816132c1565b9050919050565b61330d81612693565b82525050565b60006060820190506133286000830186613216565b6133356020830185613304565b6133426040830184613304565b949350505050565b600067ffffffffffffffff82111561336557613364612dec565b5b602082029050602081019050919050565b61337f81612da5565b811461338a57600080fd5b50565b60008151905061339c81613376565b92915050565b60006133b56133b08461334a565b612e4c565b905080838252602082019050602084028301858111156133d8576133d7612e92565b5b835b8181101561340157806133ed888261338d565b8452602084019350506020810190506133da565b5050509392505050565b600082601f8301126134205761341f612e67565b5b81516134308482602086016133a2565b91505092915050565b60006020828403121561344f5761344e61262b565b5b600082015167ffffffffffffffff81111561346d5761346c612630565b5b6134798482850161340b565b91505092915050565b600080fd5b600067ffffffffffffffff8211156134a2576134a1612dec565b5b6134ab8261285c565b9050602081019050919050565b60006134cb6134c684613487565b612e4c565b9050828152602081018484840111156134e7576134e6613482565b5b6134f2848285612832565b509392505050565b600082601f83011261350f5761350e612e67565b5b815161351f8482602086016134b8565b91505092915050565b60006020828403121561353e5761353d61262b565b5b600082015167ffffffffffffffff81111561355c5761355b612630565b5b613568848285016134fa565b91505092915050565b60008151905061358081612c09565b92915050565b60006020828403121561359c5761359b61262b565b5b60006135aa84828501613571565b91505092915050565b60008160011c9050919050565b6000808291508390505b600185111561360a578086048111156135e6576135e56130ee565b5b60018516156135f55780820291505b8081029050613603856135b3565b94506135ca565b94509492505050565b60008261362357600190506136df565b8161363157600090506136df565b8160018114613647576002811461365157613680565b60019150506136df565b60ff841115613663576136626130ee565b5b8360020a91508482111561367a576136796130ee565b5b506136df565b5060208310610133831016604e8410600b84101617156136b55782820a9050838111156136b0576136af6130ee565b5b6136df565b6136c284848460016135c0565b925090508184048111156136d9576136d86130ee565b5b81810290505b9392505050565b60006136f182612693565b91506136fc83612693565b92506137297fffffffffffffffffffffffffffffffffffffffffffffffffffffffffffffffff8484613613565b905092915050565b600061373c82612693565b915061374783612693565b925082820190508082111561375f5761375e6130ee565b5b92915050565b7f4e487b7100000000000000000000000000000000000000000000000000000000600052601260045260246000fd5b7f4d41585f424f52524f575f524154450000000000000000000000000000000000600082015250565b60006137ca600f83613199565b91506137d582613794565b602082019050919050565b600060208201905081810360008301526137f9816137bd565b9050919050565b60006020820190506138156000830184613216565b92915050565b7f504f4f4c5f534f55524345000000000000000000000000000000000000000000600082015250565b6000613851600b83613199565b915061385c8261381b565b602082019050919050565b6000602082019050818103600083015261388081613844565b9050919050565b600060408201905061389c6000830185613216565b6138a96020830184613216565b9392505050565b6000602082840312156138c6576138c561262b565b5b60006138d484828501612e97565b91505092915050565b7f504f4f4c5f435245415445445f54494d455f5354414d50000000000000000000600082015250565b6000613913601783613199565b915061391e826138dd565b602082019050919050565b6000602082019050818103600083015261394281613906565b9050919050565b7f64732d6d6174682d7375622d756e646572666c6f770000000000000000000000600082015250565b600061397f601583613199565b915061398a82613949565b602082019050919050565b600060208201905081810360008301526139ae81613972565b9050919050565b7f64732d6d6174682d6164642d6f766572666c6f77000000000000000000000000600082015250565b60006139eb601483613199565b91506139f6826139b5565b602082019050919050565b60006020820190508181036000830152613a1a816139de565b9050919050565b6000613a2c82612693565b9150613a3783612693565b9250828202613a4581612693565b91508282048414831517613a5c57613a5b6130ee565b5b5092915050565b6000613a6e82612693565b9150613a7983612693565b925082613a8957613a88613765565b5b828204905092915050565b7f64732d6d6174682d6d756c2d6f766572666c6f77000000000000000000000000600082015250565b6000613aca601483613199565b9150613ad582613a94565b602082019050919050565b60006020820190508181036000830152613af981613abd565b9050919050565b6000602082019050613b156000830184613225565b92915050565b6000613b2682612816565b613b308185613199565b9350613b40818560208601612832565b613b498161285c565b840191505092915050565b60006060820190508181036000830152613b6e8186613b1b565b90508181036020830152613b828185613b1b565b9050613b916040830184613304565b949350505050565b613ba281612a4f565b8114613bad57600080fd5b50565b600081519050613bbf81613b99565b92915050565b600060208284031215613bdb57613bda61262b565b5b6000613be984828501613bb0565b91505092915050565b7f4e487b7100000000000000000000000000000000000000000000000000000000600052605160045260246000fdfea2646970667358221220873deda04e4010ec3640c56d6bec17cd233a60d5f4edbc71cd8b242db61273f864736f6c634300081c0033",
  "linkReferences": {
    "contracts/pool/PoolStoreUtils.sol": {
      "PoolStoreUtils": [
        {
          "length": 20,
          "start": 389
        },
        {
          "length": 20,
          "start": 794
        },
        {
          "length": 20,
          "start": 1192
        },
        {
          "length": 20,
          "start": 2337
        }
      ]
    }
  },
  "deployedLinkReferences": {
    "contracts/pool/PoolStoreUtils.sol": {
      "PoolStoreUtils": [
        {
          "length": 20,
          "start": 307
        },
        {
          "length": 20,
          "start": 712
        },
        {
          "length": 20,
          "start": 1110
        },
        {
          "length": 20,
          "start": 2255
        }
      ]
    }
  }
}