{
  "_format": "hh-sol-artifact-1",
  "contractName": "ReaderPoolUtils",
  "sourceName": "contracts/reader/ReaderPoolUtils.sol",
  "abi": [
    {
      "inputs": [
        {
          "internalType": "bytes32",
          "name": "key",
          "type": "bytes32"
        }
      ],
      "name": "EmptyPool",
      "type": "error"
    },
    {
      "inputs": [],
      "name": "MathOverflowedMulDiv",
      "type": "error"
    },
    {
      "inputs": [],
      "name": "SingleTokenInOutSwapOnly",
      "type": "error"
    },
    {
      "inputs": [
        {
          "internalType": "address",
          "name": "dataStore",
          "type": "address"
        },
        {
          "internalType": "address",
          "name": "token0",
          "type": "address"
        },
        {
          "internalType": "address",
          "name": "token1",
          "type": "address"
        },
        {
          "internalType": "uint256",
          "name": "amountOut",
          "type": "uint256"
        },
        {
          "internalType": "uint8",
          "name": "tokenOutIndex",
          "type": "uint8"
        }
      ],
      "name": "calcAmountIn",
      "outputs": [
        {
          "internalType": "uint256",
          "name": "",
          "type": "uint256"
        },
        {
          "internalType": "uint256",
          "name": "",
          "type": "uint256"
        },
        {
          "internalType": "int256",
          "name": "",
          "type": "int256"
        }
      ],
      "stateMutability": "view",
      "type": "function"
    },
    {
      "inputs": [
        {
          "internalType": "address",
          "name": "dataStore",
          "type": "address"
        },
        {
          "internalType": "address",
          "name": "token0",
          "type": "address"
        },
        {
          "internalType": "address",
          "name": "token1",
          "type": "address"
        },
        {
          "internalType": "uint256",
          "name": "amountIn",
          "type": "uint256"
        },
        {
          "internalType": "uint8",
          "name": "tokenInIndex",
          "type": "uint8"
        }
      ],
      "name": "calcAmountOut",
      "outputs": [
        {
          "internalType": "uint256",
          "name": "",
          "type": "uint256"
        },
        {
          "internalType": "uint256",
          "name": "",
          "type": "uint256"
        },
        {
          "internalType": "int256",
          "name": "",
          "type": "int256"
        }
      ],
      "stateMutability": "view",
      "type": "function"
    },
    {
      "inputs": [
        {
          "internalType": "address",
          "name": "dataStore",
          "type": "address"
        },
        {
          "internalType": "address",
          "name": "token0",
          "type": "address"
        },
        {
          "internalType": "address",
          "name": "token1",
          "type": "address"
        },
        {
          "internalType": "uint256",
          "name": "amount0",
          "type": "uint256"
        },
        {
          "internalType": "uint256",
          "name": "amount1",
          "type": "uint256"
        }
      ],
      "name": "calcLiquidityOut",
      "outputs": [
        {
          "internalType": "uint256",
          "name": "",
          "type": "uint256"
        }
      ],
      "stateMutability": "view",
      "type": "function"
    },
    {
      "inputs": [
        {
          "internalType": "address",
          "name": "dataStore",
          "type": "address"
        },
        {
          "internalType": "address",
          "name": "token0",
          "type": "address"
        },
        {
          "internalType": "address",
          "name": "token1",
          "type": "address"
        },
        {
          "internalType": "uint256",
          "name": "liquidity",
          "type": "uint256"
        }
      ],
      "name": "calcTokenPairOut",
      "outputs": [
        {
          "internalType": "uint256",
          "name": "",
          "type": "uint256"
        },
        {
          "internalType": "uint256",
          "name": "",
          "type": "uint256"
        }
      ],
      "stateMutability": "view",
      "type": "function"
    },
    {
      "inputs": [
        {
          "internalType": "address",
          "name": "dataStore",
          "type": "address"
        },
        {
          "internalType": "uint256",
          "name": "start",
          "type": "uint256"
        },
        {
          "internalType": "uint256",
          "name": "end",
          "type": "uint256"
        }
      ],
      "name": "getPools",
      "outputs": [
        {
          "components": [
            {
              "components": [
                {
                  "internalType": "address",
                  "name": "token",
                  "type": "address"
                },
                {
                  "internalType": "string",
                  "name": "symbol",
                  "type": "string"
                },
                {
                  "internalType": "uint256",
                  "name": "decimals",
                  "type": "uint256"
                },
                {
                  "internalType": "uint256",
                  "name": "borrowIndex",
                  "type": "uint256"
                },
                {
                  "internalType": "uint256",
                  "name": "borrowApy",
                  "type": "uint256"
                },
                {
                  "internalType": "uint256",
                  "name": "totalCollateral",
                  "type": "uint256"
                },
                {
                  "internalType": "uint256",
                  "name": "totalCollateralWithDebt",
                  "type": "uint256"
                },
                {
                  "internalType": "uint256",
                  "name": "totalDebtScaled",
                  "type": "uint256"
                },
                {
                  "internalType": "uint256",
                  "name": "poolBalance",
                  "type": "uint256"
                },
                {
                  "internalType": "uint256",
                  "name": "priceLiquidity",
                  "type": "uint256"
                },
                {
                  "internalType": "uint256",
                  "name": "avaiableLoan",
                  "type": "uint256"
                },
                {
                  "internalType": "uint256",
                  "name": "actualTradable",
                  "type": "uint256"
                }
              ],
              "internalType": "struct ReaderPoolUtils.Asset[2]",
              "name": "assets",
              "type": "tuple[2]"
            },
            {
              "internalType": "address",
              "name": "bank",
              "type": "address"
            },
            {
              "internalType": "address",
              "name": "interestRateStrategy",
              "type": "address"
            },
            {
              "internalType": "uint256",
              "name": "configuration",
              "type": "uint256"
            },
            {
              "internalType": "uint256",
              "name": "lastUpdateTimestamp",
              "type": "uint256"
            },
            {
              "internalType": "uint256",
              "name": "priceDecimals",
              "type": "uint256"
            },
            {
              "internalType": "uint256",
              "name": "price",
              "type": "uint256"
            },
            {
              "internalType": "address",
              "name": "source",
              "type": "address"
            },
            {
              "internalType": "bool",
              "name": "shortEnabled",
              "type": "bool"
            },
            {
              "internalType": "uint256",
              "name": "createdTimestamp",
              "type": "uint256"
            },
            {
              "internalType": "uint256",
              "name": "unclaimedFee",
              "type": "uint256"
            }
          ],
          "internalType": "struct ReaderPoolUtils.GetPool[]",
          "name": "",
          "type": "tuple[]"
        }
      ],
      "stateMutability": "view",
      "type": "function"
    }
  ],
  "bytecode": "0x614921610052600b82828239805160001a6073146045577f4e487b7100000000000000000000000000000000000000000000000000000000600052600060045260246000fd5b30600052607381538281f3fe73000000000000000000000000000000000000000030146080604052600436106100615760003560e01c8063317b50ec146100665780638f6c7a3c14610097578063c2bdeda1146100c7578063d28b0a15146100f9578063f68a71311461012b575b600080fd5b610080600480360381019061007b919061328a565b61015b565b60405161008e929190613300565b60405180910390f35b6100b160048036038101906100ac9190613329565b610211565b6040516100be91906137b0565b60405180910390f35b6100e160048036038101906100dc919061380b565b61032e565b6040516100f09392919061389f565b60405180910390f35b610113600480360381019061010e919061380b565b6104bb565b6040516101229392919061389f565b60405180910390f35b610145600480360381019061014091906138d6565b61064c565b6040516101529190613951565b60405180910390f35b600080600061016a86866106f4565b9050600073__$e0022d6f389ac14ff1ce1dc57a4018d0a3$__637b82d74e89846040518363ffffffff1660e01b81526004016101a7929190613994565b61024060405180830381865af41580156101c5573d6000803e3d6000fd5b505050506040513d601f19601f820116820180604052508101906101e99190613c67565b90506000806101f88388610792565b5050915091508181955095505050505094509492505050565b60606000610220858585610a14565b90506000815167ffffffffffffffff81111561023f5761023e6139c2565b5b60405190808252806020026020018201604052801561027857816020015b610265612e43565b81526020019060019003908161025d5790505b50905060005b825181101561032157600083828151811061029c5761029b613c95565b5b602002602001015190506102e56040518060400160405280600781526020017f706f6f6c4b65790000000000000000000000000000000000000000000000000081525082610ac6565b60006102f18983610b19565b90508084848151811061030757610306613c95565b5b60200260200101819052505050808060010191505061027e565b5080925050509392505050565b60008060008061033e88886106f4565b9050600073__$e0022d6f389ac14ff1ce1dc57a4018d0a3$__637b82d74e8b846040518363ffffffff1660e01b815260040161037b929190613994565b61024060405180830381865af4158015610399573d6000803e3d6000fd5b505050506040513d601f19601f820116820180604052508101906103bd9190613c67565b905060008060008060ff168960ff16036103fe576103db8a8561126a565b909150905080935081945050506103f7846000858d6000611398565b9050610435565b600160ff168960ff1603610434576104168a856114a7565b9091509050809350819450505061043184846000808e611398565b90505b5b6000610440856115de565b9050600082821161045c5781836104579190613cf3565b610469565b82826104689190613cf3565b5b9050600061048083836116ae90919063ffffffff16565b9050600084841161049a578161049590613d27565b61049c565b815b90508686829b509b509b50505050505050505050955095509592505050565b6000806000806104cb88886106f4565b9050600073__$e0022d6f389ac14ff1ce1dc57a4018d0a3$__637b82d74e8b846040518363ffffffff1660e01b8152600401610508929190613994565b61024060405180830381865af4158015610526573d6000803e3d6000fd5b505050506040513d601f19601f8201168201806040525081019061054a9190613c67565b905060008060008060ff168960ff160361058c5761056a8a8560006116f5565b90915090508093508194505050610585848b60008087611398565b90506105c6565b600160ff168960ff16036105c5576105a68a856000611843565b909150905080935081945050506105c28460008c866000611398565b90505b5b60006105d1856115de565b905060008282116105ed5781836105e89190613cf3565b6105fa565b82826105f99190613cf3565b5b9050600061061183836116ae90919063ffffffff16565b9050600084841161062b578161062690613d27565b61062d565b815b90508686829b509b509b50505050505050505050955095509592505050565b60008061065986866106f4565b9050600073__$e0022d6f389ac14ff1ce1dc57a4018d0a3$__637b82d74e89846040518363ffffffff1660e01b8152600401610696929190613994565b61024060405180830381865af41580156106b4573d6000803e3d6000fd5b505050506040513d601f19601f820116820180604052508101906106d89190613c67565b90506106e78186866000611985565b9250505095945050505050565b60008173ffffffffffffffffffffffffffffffffffffffff168373ffffffffffffffffffffffffffffffffffffffff1610610730578183610733565b82825b809350819450505060405160200161074a90613dcc565b60405160208183030381529060405280519060200120838360405160200161077493929190613e0a565b60405160208183030381529060405280519060200120905092915050565b6000806000806107a0612ee7565b866020015173ffffffffffffffffffffffffffffffffffffffff166318160ddd6040518163ffffffff1660e01b8152600401602060405180830381865afa1580156107ef573d6000803e3d6000fd5b505050506040513d601f19601f820116820180604052508101906108139190613e41565b81602001818152505061082887600080611b0c565b9091505082604001836080018281525082815250505061084b8760016000611b0c565b90915050826060018360a001828152508281525050506108748682604001518360200151611c0b565b816101000181815250506108918682606001518360200151611c0b565b816101200181815250506108de6040518060400160405280601081526020017f766172732e746f74616c537570706c79000000000000000000000000000000008152508260200151611d12565b6109216040518060400160405280601281526020017f766172732e7072696365526573657276653000000000000000000000000000008152508260400151611d12565b6109646040518060400160405280601281526020017f766172732e7072696365526573657276653100000000000000000000000000008152508260600151611d12565b6109a86040518060400160405280600c81526020017f766172732e616d6f756e74300000000000000000000000000000000000000000815250826101000151611d12565b6109ec6040518060400160405280600c81526020017f766172732e616d6f756e74310000000000000000000000000000000000000000815250826101200151611d12565b80610100015181610120015182608001518360a0015194509450945094505092959194509250565b60608373ffffffffffffffffffffffffffffffffffffffff1663f069052a604051602001610a4190613eba565b6040516020818303038152906040528051906020012085856040518463ffffffff1660e01b8152600401610a7793929190613ee9565b600060405180830381865afa158015610a94573d6000803e3d6000fd5b505050506040513d6000823e3d601f19601f82011682018060405250810190610abd919061400f565b90509392505050565b6000610b1557610b146040518060400160405280600681526020017f2573202d2573000000000000000000000000000000000000000000000000000081525083610b0f84611d5d565b611d8e565b5b5050565b610b21612e43565b610b29612f3a565b73__$e0022d6f389ac14ff1ce1dc57a4018d0a3$__637b82d74e85856040518363ffffffff1660e01b8152600401610b62929190613994565b61024060405180830381865af4158015610b80573d6000803e3d6000fd5b505050506040513d601f19601f82011682018060405250810190610ba49190613c67565b8160000181905250610bb584611e2d565b816020018181525050610bd2816000015160008360200151611b0c565b84606001856040018660a001876080018481525084815250848152508481525050505050610c0a816000015160018360200151611b0c565b84610100018560e001866101400187610120018481525084815250848152508481525050505050610c3e8160000151611ed4565b8260c0018361016001828152508281525050506040518061016001604052806040518060400160405280604051806101800160405280866000015160000151600060ff1660028110610c9357610c92613c95565b5b60200201516000015173ffffffffffffffffffffffffffffffffffffffff168152602001866000015160000151600060ff1660028110610cd657610cd5613c95565b5b60200201516000015173ffffffffffffffffffffffffffffffffffffffff166395d89b416040518163ffffffff1660e01b8152600401600060405180830381865afa158015610d29573d6000803e3d6000fd5b505050506040513d6000823e3d601f19601f82011682018060405250810190610d5291906140fe565b8152602001866000015160000151600060ff1660028110610d7657610d75613c95565b5b60200201516000015173ffffffffffffffffffffffffffffffffffffffff1663313ce5676040518163ffffffff1660e01b8152600401602060405180830381865afa158015610dc9573d6000803e3d6000fd5b505050506040513d601f19601f82011682018060405250810190610ded919061415c565b60ff168152602001866000015160000151600060ff1660028110610e1457610e13613c95565b5b60200201516020015181526020018660c001518152602001866000015160000151600060ff1660028110610e4b57610e4a613c95565b5b6020020151606001518152602001866000015160000151600060ff1660028110610e7857610e77613c95565b5b6020020151608001518152602001866000015160000151600060ff1660028110610ea557610ea4613c95565b5b602002015160a0015181526020018660400151815260200186606001518152602001866080015181526020018660a001518152508152602001604051806101800160405280866000015160000151600160ff1660028110610f0957610f08613c95565b5b60200201516000015173ffffffffffffffffffffffffffffffffffffffff168152602001866000015160000151600160ff1660028110610f4c57610f4b613c95565b5b60200201516000015173ffffffffffffffffffffffffffffffffffffffff166395d89b416040518163ffffffff1660e01b8152600401600060405180830381865afa158015610f9f573d6000803e3d6000fd5b505050506040513d6000823e3d601f19601f82011682018060405250810190610fc891906140fe565b8152602001866000015160000151600160ff1660028110610fec57610feb613c95565b5b60200201516000015173ffffffffffffffffffffffffffffffffffffffff1663313ce5676040518163ffffffff1660e01b8152600401602060405180830381865afa15801561103f573d6000803e3d6000fd5b505050506040513d601f19601f82011682018060405250810190611063919061415c565b60ff168152602001866000015160000151600160ff166002811061108a57611089613c95565b5b60200201516020015181526020018661016001518152602001866000015160000151600160ff16600281106110c2576110c1613c95565b5b6020020151606001518152602001866000015160000151600160ff16600281106110ef576110ee613c95565b5b6020020151608001518152602001866000015160000151600160ff166002811061111c5761111b613c95565b5b602002015160a0015181526020018660e00151815260200186610100015181526020018661012001518152602001866101400151815250815250815260200182600001516020015173ffffffffffffffffffffffffffffffffffffffff16815260200182600001516040015173ffffffffffffffffffffffffffffffffffffffff16815260200182600001516060015181526020018260000151608001518152602001601b60ff1681526020016111d683600001516115de565b81526020016111e5868661210d565b73ffffffffffffffffffffffffffffffffffffffff1681526020016112118360000151606001516121eb565b15158152602001611222868661221b565b8152602001826000015160000151600060ff166002811061124657611245613c95565b5b602002015160c0015181525081610180018190525080610180015191505092915050565b600080600080611278612fae565b61128486600080611b0c565b909150508260000183604001828152508281525050506112a78660016000611b0c565b909150508260200183606001828152508281525050506112ca86606001516122f9565b816101400181815250506112fa876112f283610140015161271061232a90919063ffffffff16565b612710611c0b565b816101800181815250506113328160000151826020015161132d846101800151856000015161232a90919063ffffffff16565b611c0b565b8160800181815250506113568160200151826080015161232a90919063ffffffff16565b8160e00181815250508060e00151816040015182606001516113868461014001518b61238390919063ffffffff16565b94509450945094505092959194509250565b600080600080861180156113ac5750600084145b156113bc5784915085905061140f565b6000871180156113cc5750600085145b156113dc5786915083905061140e565b6040517f6331fab100000000000000000000000000000000000000000000000000000000815260040160405180910390fd5b5b6000611420896060015160006123b0565b905060006114338a6060015160016123b0565b9050600061145a856b033b2e3c9fd0803ce800000085600a61145591906142bc565b611c0b565b90506000611481856b033b2e3c9fd0803ce800000085600a61147c91906142bc565b611c0b565b905061149681836116ae90919063ffffffff16565b965050505050505095945050505050565b6000806000806114b5612fae565b6114c186600080611b0c565b909150508260000183604001828152508281525050506114e48660016000611b0c565b909150508260200183606001828152508281525050506115238160000151826020015161151e8a856020015161232a90919063ffffffff16565b611c0b565b81610100018181525050611549816000015182610100015161232a90919063ffffffff16565b8161012001818152505061156086606001516122f9565b8161014001818152505061159581610120015161271061159084610140015161271061232a90919063ffffffff16565b611c0b565b816101a0018181525050806101a00151816040015182606001516115cc84610140015185610120015161238390919063ffffffff16565b94509450945094505092959194509250565b6000806115ed83600080611b0c565b505050905060006116018460016000611b0c565b505050905060008103611619576000925050506116a9565b600061162a856060015160006123b0565b9050600061163d866060015160016123b0565b90506000611664856b033b2e3c9fd0803ce800000085600a61165f91906142bc565b611c0b565b9050600061168b856b033b2e3c9fd0803ce800000085600a61168691906142bc565b611c0b565b90506116a081836116ae90919063ffffffff16565b96505050505050505b919050565b60006b033b2e3c9fd0803ce800000060028304600019030483111515821517156116d757600080fd5b81600283046b033b2e3c9fd0803ce800000085020104905092915050565b600080600080611703612fae565b61170f87600080611b0c565b909150508260000183604001828152508281525050506117328760016000611b0c565b9091505082602001836060018281525082815250505085156117685787816000018181516117609190613cf3565b915081815250505b61177587606001516122f9565b816101400181815250506117a58861179d83610140015161271061232a90919063ffffffff16565b612710611c0b565b816101600181815250506117dd816000015182602001516117d8846101600151856000015161242390919063ffffffff16565b611c0b565b8160800181815250506118018160800151826020015161232a90919063ffffffff16565b8160c00181815250508060c00151816040015182606001516118318461014001518c61238390919063ffffffff16565b94509450945094505093509350935093565b600080600080611851612fae565b61185d87600080611b0c565b909150508260000183604001828152508281525050506118808760016000611b0c565b9091505082602001836060018281525082815250505085156118b65787816020018181516118ae9190613cf3565b915081815250505b6118df816000015182602001516118da8b856020015161242390919063ffffffff16565b611c0b565b8160800181815250506119038160800151826000015161232a90919063ffffffff16565b8160a001818152505061191987606001516122f9565b8161014001818152505061194d8160a0015161194583610140015161271061232a90919063ffffffff16565b612710611c0b565b816040015182606001516119738461014001518560a0015161238390919063ffffffff16565b94509450945094505093509350935093565b600061198f612ee7565b856020015173ffffffffffffffffffffffffffffffffffffffff166318160ddd6040518163ffffffff1660e01b8152600401602060405180830381865afa1580156119de573d6000803e3d6000fd5b505050506040513d601f19601f82011682018060405250810190611a029190613e41565b816020018181525050611a1786600080611b0c565b9091509050508160c0018181525050611a338660016000611b0c565b9091509050508160e00181815250508215611a7b57848160c001818151611a5a9190613cf3565b91508181525050838160e001818151611a739190613cf3565b915081815250505b6000816020015103611ac457611ab66103e8611aa8611aa3878961247c90919063ffffffff16565b6124e9565b61232a90919063ffffffff16565b816000018181525050611afc565b611af2611ada8683602001518460c00151611c0b565b611aed8684602001518560e00151611c0b565b6125e2565b8160000181815250505b8060000151915050949350505050565b600080600080600087600001518760ff1660028110611b2e57611b2d613c95565b5b602002015190506000611b4189896125fb565b905060008103611b605760008060008095509550955095505050611c02565b6000611b70838b60800151612706565b90506000818310611b9357611b8e828461232a90919063ffffffff16565b611b96565b60005b90506000611bad8a8561274b90919063ffffffff16565b90506000808b14611bdf57838210611bd757611bd2848361232a90919063ffffffff16565b611bda565b60005b611be2565b60005b90508385611bf09190614307565b85848399509950995099505050505050505b93509350935093565b6000808385029050600080198587098281108382030391505060008103611c4657838281611c3c57611c3b61433b565b5b0492505050611d0b565b808411611c7f576040517f227bc15300000000000000000000000000000000000000000000000000000000815260040160405180910390fd5b600084868809905082811182039150808303925060008560000386169050808604955080840493506001818260000304019050808302841793506000600287600302189050808702600203810290508087026002038102905080870260020381029050808702600203810290508087026002038102905080870260020381029050808502955050505050505b9392505050565b6000611d5957611d586040518060400160405280600681526020017f2573202d257300000000000000000000000000000000000000000000000000008152508383612796565b5b5050565b6060611d8782604051602001611d73919061438b565b604051602081830303815290604052612835565b9050919050565b611e28838383604051602401611da6939291906143df565b6040516020818303038152906040527f2ced7cef000000000000000000000000000000000000000000000000000000007bffffffffffffffffffffffffffffffffffffffffffffffffffffffff19166020820180517bffffffffffffffffffffffffffffffffffffffffffffffffffffffff8381831617835250505050612b29565b505050565b60008173ffffffffffffffffffffffffffffffffffffffff1663bd02d0f5604051602001611e5a90614477565b604051602081830303815290604052805190602001206040518263ffffffff1660e01b8152600401611e8c9190614497565b602060405180830381865afa158015611ea9573d6000803e3d6000fd5b505050506040513d601f19601f82011682018060405250810190611ecd9190613e41565b9050919050565b600080611edf61301d565b611eea846000612b43565b826000018360200182815250828152505050611f0b846060015160006123b0565b816060018181525050611f3f81600001516b033b2e3c9fd0803ce80000008360600151600a611f3a91906142bc565b611c0b565b8160400181815250506000816020015103611f64576000816080018181525050612012565b836040015173ffffffffffffffffffffffffffffffffffffffff1663fdd63ecf6040518060600160405280846000015181526020018460200151815260200184604001518152506040518263ffffffff1660e01b8152600401611fc79190614503565b602060405180830381865afa158015611fe4573d6000803e3d6000fd5b505050506040513d601f19601f820116820180604052508101906120089190613e41565b8160800181815250505b61201d846001612b43565b826000018360200182815250828152505050600081602001510361204b5760008160a00181815250506120f9565b836040015173ffffffffffffffffffffffffffffffffffffffff1663fdd63ecf6040518060600160405280846000015181526020018460200151815260200184604001518152506040518263ffffffff1660e01b81526004016120ae9190614503565b602060405180830381865afa1580156120cb573d6000803e3d6000fd5b505050506040513d601f19601f820116820180604052508101906120ef9190613e41565b8160a00181815250505b80608001518160a001519250925050915091565b60008061211a8484612b93565b90508073ffffffffffffffffffffffffffffffffffffffff166321f8a721846040516020016121489061456a565b6040516020818303038152906040528051906020012060405160200161216f92919061458a565b604051602081830303815290604052805190602001206040518263ffffffff1660e01b81526004016121a19190614497565b602060405180830381865afa1580156121be573d6000803e3d6000fd5b505050506040513d601f19601f820116820180604052508101906121e291906145b3565b91505092915050565b6000807ffffffffffffffffffffffffffffffffffffffffffffffffffff7ffffffffffff19831614159050919050565b6000806122288484612b93565b90508073ffffffffffffffffffffffffffffffffffffffff1663bd02d0f5846040516020016122569061462c565b6040516020818303038152906040528051906020012060405160200161227d92919061458a565b604051602081830303815290604052805190602001206040518263ffffffff1660e01b81526004016122af9190614497565b602060405180830381865afa1580156122cc573d6000803e3d6000fd5b505050506040513d601f19601f820116820180604052508101906122f09190613e41565b91505092915050565b600060387fffffffffffffffffffffffffffffffffffffffffffffff0000ffffffffffffff198316901c9050919050565b60008282846123399190613cf3565b915081111561237d576040517f08c379a000000000000000000000000000000000000000000000000000000000815260040161237490614698565b60405180910390fd5b92915050565b600081611388600019030483111582151761239d57600080fd5b6127106113888385020104905092915050565b6000807fffffffffffffffffffffffffffffffffffffffff00ffffffffffffffffffffff9050600060589050600160ff168460ff1603612412577fffffffffffffffffffffffffffffffffffffff00ffffffffffffffffffffffff9150606090505b8082198616901c9250505092915050565b60008282846124329190614307565b9150811015612476576040517f08c379a000000000000000000000000000000000000000000000000000000000815260040161246d90614704565b60405180910390fd5b92915050565b6000808214806124a45750828283856124959190614724565b9250826124a29190614766565b145b6124e3576040517f08c379a00000000000000000000000000000000000000000000000000000000081526004016124da906147e3565b60405180910390fd5b92915050565b60008082036124fb57600090506125dd565b6000600161250884612c84565b901c6001901b905060018184816125225761252161433b565b5b048201901c9050600181848161253b5761253a61433b565b5b048201901c905060018184816125545761255361433b565b5b048201901c9050600181848161256d5761256c61433b565b5b048201901c905060018184816125865761258561433b565b5b048201901c9050600181848161259f5761259e61433b565b5b048201901c905060018184816125b8576125b761433b565b5b048201901c90506125d9818285816125d3576125d261433b565b5b046125e2565b9150505b919050565b60008183106125f157816125f3565b825b905092915050565b60008083600001518360ff166002811061261857612617613c95565b5b602002015190506000846020015173ffffffffffffffffffffffffffffffffffffffff1663e42c08f283600001516040518263ffffffff1660e01b81526004016126629190614803565b602060405180830381865afa15801561267f573d6000803e3d6000fd5b505050506040513d601f19601f820116820180604052508101906126a39190613e41565b9050600081036126b857600092505050612700565b6000826060015190508260c00151816126d19190614307565b82106126f7578260c0015181836126e89190613cf3565b6126f29190613cf3565b6126fa565b60005b93505050505b92915050565b6000808360a001510361271c5760009050612745565b60006127288484612d65565b9050612741818560a0015161274b90919063ffffffff16565b9150505b92915050565b6000816b019d971e4fe8401e74000000600019030483111582151761276f57600080fd5b6b033b2e3c9fd0803ce80000006b019d971e4fe8401e740000008385020104905092915050565b6128308383836040516024016127ae9392919061481e565b6040516020818303038152906040527f5821efa1000000000000000000000000000000000000000000000000000000007bffffffffffffffffffffffffffffffffffffffffffffffffffffffff19166020820180517bffffffffffffffffffffffffffffffffffffffffffffffffffffffff8381831617835250505050612b29565b505050565b606060006040518060400160405280601081526020017f303132333435363738396162636465660000000000000000000000000000000081525090506000600284516128819190614724565b600261288d9190614307565b67ffffffffffffffff8111156128a6576128a56139c2565b5b6040519080825280601f01601f1916602001820160405280156128d85781602001600182028036833780820191505090505b5090507f3000000000000000000000000000000000000000000000000000000000000000816000815181106129105761290f613c95565b5b60200101907effffffffffffffffffffffffffffffffffffffffffffffffffffffffffffff1916908160001a9053507f78000000000000000000000000000000000000000000000000000000000000008160018151811061297457612973613c95565b5b60200101907effffffffffffffffffffffffffffffffffffffffffffffffffffffffffffff1916908160001a90535060005b8451811015612b1e578260048683815181106129c5576129c4613c95565b5b602001015160f81c60f81b7effffffffffffffffffffffffffffffffffffffffffffffffffffffffffffff1916901c60f81c60ff1681518110612a0b57612a0a613c95565b5b602001015160f81c60f81b82600283612a249190614724565b6002612a309190614307565b81518110612a4157612a40613c95565b5b60200101907effffffffffffffffffffffffffffffffffffffffffffffffffffffffffffff1916908160001a90535082600f60f81b868381518110612a8957612a88613c95565b5b602001015160f81c60f81b1660f81c60ff1681518110612aac57612aab613c95565b5b602001015160f81c60f81b82600283612ac59190614724565b6003612ad19190614307565b81518110612ae257612ae1613c95565b5b60200101907effffffffffffffffffffffffffffffffffffffffffffffffffffffffffffff1916908160001a90535080806001019150506129a6565b508092505050919050565b612b4081612b38612db4612dd5565b63ffffffff16565b50565b6000806000612b7485600001518560ff1660028110612b6557612b64613c95565b5b60200201518660800151612706565b90506000612b8286866125fb565b905080829350935050509250929050565b6000808390508073ffffffffffffffffffffffffffffffffffffffff166391d4403c604051602001612bc490613eba565b60405160208183030381529060405280519060200120856040518363ffffffff1660e01b8152600401612bf892919061458a565b602060405180830381865afa158015612c15573d6000803e3d6000fd5b505050506040513d601f19601f82011682018060405250810190612c39919061488f565b612c7a57826040517f7357d91f000000000000000000000000000000000000000000000000000000008152600401612c719190614497565b60405180910390fd5b8091505092915050565b600080600090506000608084901c1115612ca657608083901c92506080810190505b6000604084901c1115612cc157604083901c92506040810190505b6000602084901c1115612cdc57602083901c92506020810190505b6000601084901c1115612cf757601083901c92506010810190505b6000600884901c1115612d1257600883901c92506008810190505b6000600484901c1115612d2d57600483901c92506004810190505b6000600284901c1115612d4857600283901c92506002810190505b6000600184901c1115612d5c576001810190505b80915050919050565b6000612d6f612de0565b8203612d815782602001519050612dae565b6000612d91846040015184612de8565b9050612daa84602001518261274b90919063ffffffff16565b9150505b92915050565b60006a636f6e736f6c652e6c6f679050600080835160208501845afa505050565b613053819050919050565b600042905090565b60008082612df4612de0565b612dfe9190613cf3565b84612e099190614724565b90506301e133808181612e1f57612e1e61433b565b5b049050806b033b2e3c9fd0803ce8000000612e3a9190614307565b91505092915050565b604051806101600160405280612e5761305d565b8152602001600073ffffffffffffffffffffffffffffffffffffffff168152602001600073ffffffffffffffffffffffffffffffffffffffff16815260200160008152602001600081526020016000815260200160008152602001600073ffffffffffffffffffffffffffffffffffffffff16815260200160001515815260200160008152602001600081525090565b604051806101400160405280600081526020016000815260200160008152602001600081526020016000815260200160008152602001600081526020016000815260200160008152602001600081525090565b604051806101a00160405280612f4e61308a565b81526020016000815260200160008152602001600081526020016000815260200160008152602001600081526020016000815260200160008152602001600081526020016000815260200160008152602001612fa8612e43565b81525090565b604051806101c0016040528060008152602001600081526020016000815260200160008152602001600081526020016000815260200160008152602001600081526020016000815260200160008152602001600081526020016000815260200160008152602001600081525090565b6040518060c001604052806000815260200160008152602001600081526020016000815260200160008152602001600081525090565b61305b6148bc565b565b60405180604001604052806002905b6130746130eb565b81526020019060019003908161306c5790505090565b6040518060a0016040528061309d613162565b8152602001600073ffffffffffffffffffffffffffffffffffffffff168152602001600073ffffffffffffffffffffffffffffffffffffffff16815260200160008152602001600081525090565b604051806101800160405280600073ffffffffffffffffffffffffffffffffffffffff16815260200160608152602001600081526020016000815260200160008152602001600081526020016000815260200160008152602001600081526020016000815260200160008152602001600081525090565b60405180604001604052806002905b61317961318f565b8152602001906001900390816131715790505090565b6040518060e00160405280600073ffffffffffffffffffffffffffffffffffffffff1681526020016000815260200160008152602001600081526020016000815260200160008152602001600081525090565b6000604051905090565b600080fd5b600080fd5b600073ffffffffffffffffffffffffffffffffffffffff82169050919050565b6000613221826131f6565b9050919050565b61323181613216565b811461323c57600080fd5b50565b60008135905061324e81613228565b92915050565b6000819050919050565b61326781613254565b811461327257600080fd5b50565b6000813590506132848161325e565b92915050565b600080600080608085870312156132a4576132a36131ec565b5b60006132b28782880161323f565b94505060206132c38782880161323f565b93505060406132d48782880161323f565b92505060606132e587828801613275565b91505092959194509250565b6132fa81613254565b82525050565b600060408201905061331560008301856132f1565b61332260208301846132f1565b9392505050565b600080600060608486031215613342576133416131ec565b5b60006133508682870161323f565b935050602061336186828701613275565b925050604061337286828701613275565b9150509250925092565b600081519050919050565b600082825260208201905092915050565b6000819050602082019050919050565b600060029050919050565b600081905092915050565b6000819050919050565b6133d181613216565b82525050565b600081519050919050565b600082825260208201905092915050565b60005b838110156134115780820151818401526020810190506133f6565b60008484015250505050565b6000601f19601f8301169050919050565b6000613439826133d7565b61344381856133e2565b93506134538185602086016133f3565b61345c8161341d565b840191505092915050565b61347081613254565b82525050565b60006101808301600083015161348f60008601826133c8565b50602083015184820360208601526134a7828261342e565b91505060408301516134bc6040860182613467565b5060608301516134cf6060860182613467565b5060808301516134e26080860182613467565b5060a08301516134f560a0860182613467565b5060c083015161350860c0860182613467565b5060e083015161351b60e0860182613467565b50610100830151613530610100860182613467565b50610120830151613545610120860182613467565b5061014083015161355a610140860182613467565b5061016083015161356f610160860182613467565b508091505092915050565b60006135868383613476565b905092915050565b6000602082019050919050565b60006135a6826133a8565b6135b081856133b3565b9350836020820285016135c2856133be565b8060005b858110156135fe57848403895281516135df858261357a565b94506135ea8361358e565b925060208a019950506001810190506135c6565b50829750879550505050505092915050565b60008115159050919050565b61362581613610565b82525050565b6000610160830160008301518482036000860152613649828261359b565b915050602083015161365e60208601826133c8565b50604083015161367160408601826133c8565b5060608301516136846060860182613467565b5060808301516136976080860182613467565b5060a08301516136aa60a0860182613467565b5060c08301516136bd60c0860182613467565b5060e08301516136d060e08601826133c8565b506101008301516136e561010086018261361c565b506101208301516136fa610120860182613467565b5061014083015161370f610140860182613467565b508091505092915050565b6000613726838361362b565b905092915050565b6000602082019050919050565b60006137468261337c565b6137508185613387565b93508360208202850161376285613398565b8060005b8581101561379e578484038952815161377f858261371a565b945061378a8361372e565b925060208a01995050600181019050613766565b50829750879550505050505092915050565b600060208201905081810360008301526137ca818461373b565b905092915050565b600060ff82169050919050565b6137e8816137d2565b81146137f357600080fd5b50565b600081359050613805816137df565b92915050565b600080600080600060a08688031215613827576138266131ec565b5b60006138358882890161323f565b95505060206138468882890161323f565b94505060406138578882890161323f565b935050606061386888828901613275565b9250506080613879888289016137f6565b9150509295509295909350565b6000819050919050565b61389981613886565b82525050565b60006060820190506138b460008301866132f1565b6138c160208301856132f1565b6138ce6040830184613890565b949350505050565b600080600080600060a086880312156138f2576138f16131ec565b5b60006139008882890161323f565b95505060206139118882890161323f565b94505060406139228882890161323f565b935050606061393388828901613275565b925050608061394488828901613275565b9150509295509295909350565b600060208201905061396660008301846132f1565b92915050565b61397581613216565b82525050565b6000819050919050565b61398e8161397b565b82525050565b60006040820190506139a9600083018561396c565b6139b66020830184613985565b9392505050565b600080fd5b7f4e487b7100000000000000000000000000000000000000000000000000000000600052604160045260246000fd5b6139fa8261341d565b810181811067ffffffffffffffff82111715613a1957613a186139c2565b5b80604052505050565b6000613a2c6131e2565b9050613a3882826139f1565b919050565b600080fd5b600067ffffffffffffffff821115613a5d57613a5c6139c2565b5b602082029050919050565b600080fd5b600081519050613a7c81613228565b92915050565b600081519050613a918161325e565b92915050565b600060e08284031215613aad57613aac6139bd565b5b613ab760e0613a22565b90506000613ac784828501613a6d565b6000830152506020613adb84828501613a82565b6020830152506040613aef84828501613a82565b6040830152506060613b0384828501613a82565b6060830152506080613b1784828501613a82565b60808301525060a0613b2b84828501613a82565b60a08301525060c0613b3f84828501613a82565b60c08301525092915050565b6000613b5e613b5984613a42565b613a22565b90508060e08402830185811115613b7857613b77613a68565b5b835b81811015613ba15780613b8d8882613a97565b84526020840193505060e081019050613b7a565b5050509392505050565b600082601f830112613bc057613bbf613a3d565b5b6002613bcd848285613b4b565b91505092915050565b60006102408284031215613bed57613bec6139bd565b5b613bf760a0613a22565b90506000613c0784828501613bab565b6000830152506101c0613c1c84828501613a6d565b6020830152506101e0613c3184828501613a6d565b604083015250610200613c4684828501613a82565b606083015250610220613c5b84828501613a82565b60808301525092915050565b60006102408284031215613c7e57613c7d6131ec565b5b6000613c8c84828501613bd6565b91505092915050565b7f4e487b7100000000000000000000000000000000000000000000000000000000600052603260045260246000fd5b7f4e487b7100000000000000000000000000000000000000000000000000000000600052601160045260246000fd5b6000613cfe82613254565b9150613d0983613254565b9250828203905081811115613d2157613d20613cc4565b5b92915050565b6000613d3282613886565b91507f80000000000000000000000000000000000000000000000000000000000000008203613d6457613d63613cc4565b5b816000039050919050565b600082825260208201905092915050565b7f504f4f4c00000000000000000000000000000000000000000000000000000000600082015250565b6000613db6600483613d6f565b9150613dc182613d80565b602082019050919050565b60006020820190508181036000830152613de581613da9565b9050919050565b613df58161397b565b82525050565b613e0481613216565b82525050565b6000606082019050613e1f6000830186613dec565b613e2c6020830185613dfb565b613e396040830184613dfb565b949350505050565b600060208284031215613e5757613e566131ec565b5b6000613e6584828501613a82565b91505092915050565b7f504f4f4c5f4c4953540000000000000000000000000000000000000000000000600082015250565b6000613ea4600983613d6f565b9150613eaf82613e6e565b602082019050919050565b60006020820190508181036000830152613ed381613e97565b9050919050565b613ee381613254565b82525050565b6000606082019050613efe6000830186613dec565b613f0b6020830185613eda565b613f186040830184613eda565b949350505050565b600067ffffffffffffffff821115613f3b57613f3a6139c2565b5b602082029050602081019050919050565b613f558161397b565b8114613f6057600080fd5b50565b600081519050613f7281613f4c565b92915050565b6000613f8b613f8684613f20565b613a22565b90508083825260208201905060208402830185811115613fae57613fad613a68565b5b835b81811015613fd75780613fc38882613f63565b845260208401935050602081019050613fb0565b5050509392505050565b600082601f830112613ff657613ff5613a3d565b5b8151614006848260208601613f78565b91505092915050565b600060208284031215614025576140246131ec565b5b600082015167ffffffffffffffff811115614043576140426131f1565b5b61404f84828501613fe1565b91505092915050565b600080fd5b600067ffffffffffffffff821115614078576140776139c2565b5b6140818261341d565b9050602081019050919050565b60006140a161409c8461405d565b613a22565b9050828152602081018484840111156140bd576140bc614058565b5b6140c88482856133f3565b509392505050565b600082601f8301126140e5576140e4613a3d565b5b81516140f584826020860161408e565b91505092915050565b600060208284031215614114576141136131ec565b5b600082015167ffffffffffffffff811115614132576141316131f1565b5b61413e848285016140d0565b91505092915050565b600081519050614156816137df565b92915050565b600060208284031215614172576141716131ec565b5b600061418084828501614147565b91505092915050565b60008160011c9050919050565b6000808291508390505b60018511156141e0578086048111156141bc576141bb613cc4565b5b60018516156141cb5780820291505b80810290506141d985614189565b94506141a0565b94509492505050565b6000826141f957600190506142b5565b8161420757600090506142b5565b816001811461421d576002811461422757614256565b60019150506142b5565b60ff84111561423957614238613cc4565b5b8360020a9150848211156142505761424f613cc4565b5b506142b5565b5060208310610133831016604e8410600b841016171561428b5782820a90508381111561428657614285613cc4565b5b6142b5565b6142988484846001614196565b925090508184048111156142af576142ae613cc4565b5b81810290505b9392505050565b60006142c782613254565b91506142d283613254565b92506142ff7fffffffffffffffffffffffffffffffffffffffffffffffffffffffffffffffff84846141e9565b905092915050565b600061431282613254565b915061431d83613254565b925082820190508082111561433557614334613cc4565b5b92915050565b7f4e487b7100000000000000000000000000000000000000000000000000000000600052601260045260246000fd5b6000819050919050565b6143856143808261397b565b61436a565b82525050565b60006143978284614374565b60208201915081905092915050565b60006143b1826133d7565b6143bb8185613d6f565b93506143cb8185602086016133f3565b6143d48161341d565b840191505092915050565b600060608201905081810360008301526143f981866143a6565b9050818103602083015261440d81856143a6565b9050818103604083015261442181846143a6565b9050949350505050565b7f4d41585f424f52524f575f524154450000000000000000000000000000000000600082015250565b6000614461600f83613d6f565b915061446c8261442b565b602082019050919050565b6000602082019050818103600083015261449081614454565b9050919050565b60006020820190506144ac6000830184613dec565b92915050565b6144bb81613254565b82525050565b6060820160008201516144d760008501826144b2565b5060208201516144ea60208501826144b2565b5060408201516144fd60408501826144b2565b50505050565b600060608201905061451860008301846144c1565b92915050565b7f504f4f4c5f534f55524345000000000000000000000000000000000000000000600082015250565b6000614554600b83613d6f565b915061455f8261451e565b602082019050919050565b6000602082019050818103600083015261458381614547565b9050919050565b600060408201905061459f6000830185613dec565b6145ac6020830184613dec565b9392505050565b6000602082840312156145c9576145c86131ec565b5b60006145d784828501613a6d565b91505092915050565b7f504f4f4c5f435245415445445f54494d455f5354414d50000000000000000000600082015250565b6000614616601783613d6f565b9150614621826145e0565b602082019050919050565b6000602082019050818103600083015261464581614609565b9050919050565b7f64732d6d6174682d7375622d756e646572666c6f770000000000000000000000600082015250565b6000614682601583613d6f565b915061468d8261464c565b602082019050919050565b600060208201905081810360008301526146b181614675565b9050919050565b7f64732d6d6174682d6164642d6f766572666c6f77000000000000000000000000600082015250565b60006146ee601483613d6f565b91506146f9826146b8565b602082019050919050565b6000602082019050818103600083015261471d816146e1565b9050919050565b600061472f82613254565b915061473a83613254565b925082820261474881613254565b9150828204841483151761475f5761475e613cc4565b5b5092915050565b600061477182613254565b915061477c83613254565b92508261478c5761478b61433b565b5b828204905092915050565b7f64732d6d6174682d6d756c2d6f766572666c6f77000000000000000000000000600082015250565b60006147cd601483613d6f565b91506147d882614797565b602082019050919050565b600060208201905081810360008301526147fc816147c0565b9050919050565b60006020820190506148186000830184613dfb565b92915050565b6000606082019050818103600083015261483881866143a6565b9050818103602083015261484c81856143a6565b905061485b6040830184613eda565b949350505050565b61486c81613610565b811461487757600080fd5b50565b60008151905061488981614863565b92915050565b6000602082840312156148a5576148a46131ec565b5b60006148b38482850161487a565b91505092915050565b7f4e487b7100000000000000000000000000000000000000000000000000000000600052605160045260246000fdfea2646970667358221220f6393838f12e571faf1bcefa5b81ebf38b1a797d8791916c686102d9f893d05464736f6c634300081c0033",
  "linkReferences": {
    "contracts/pool/PoolStoreUtils.sol": {
      "PoolStoreUtils": [
        {
          "length": 20,
          "start": 450
        },
        {
          "length": 20,
          "start": 918
        },
        {
          "length": 20,
          "start": 1315
        },
        {
          "length": 20,
          "start": 1713
        },
        {
          "length": 20,
          "start": 2941
        }
      ]
    }
  },
  "deployedLinkReferences": {
    "contracts/pool/PoolStoreUtils.sol": {
      "PoolStoreUtils": [
        {
          "length": 20,
          "start": 368
        },
        {
          "length": 20,
          "start": 836
        },
        {
          "length": 20,
          "start": 1233
        },
        {
          "length": 20,
          "start": 1631
        },
        {
          "length": 20,
          "start": 2859
        }
      ]
    }
  }
}