{
  "_format": "hh-sol-artifact-1",
  "contractName": "RoleModule",
  "sourceName": "contracts/role/RoleModule.sol",
  "abi": [
    {
      "inputs": [
        {
          "internalType": "contract RoleStore",
          "name": "_roleStore",
          "type": "address"
        }
      ],
      "stateMutability": "nonpayable",
      "type": "constructor"
    },
    {
      "inputs": [],
      "name": "roleStore",
      "outputs": [
        {
          "internalType": "contract RoleStore",
          "name": "",
          "type": "address"
        }
      ],
      "stateMutability": "view",
      "type": "function"
    }
  ],
  "bytecode": "0x60a060405234801561001057600080fd5b50604051610255380380610255833981810160405281019061003291906100e1565b8073ffffffffffffffffffffffffffffffffffffffff1660808173ffffffffffffffffffffffffffffffffffffffff16815250505061010e565b600080fd5b600073ffffffffffffffffffffffffffffffffffffffff82169050919050565b600061009c82610071565b9050919050565b60006100ae82610091565b9050919050565b6100be816100a3565b81146100c957600080fd5b50565b6000815190506100db816100b5565b92915050565b6000602082840312156100f7576100f661006c565b5b6000610105848285016100cc565b91505092915050565b60805161012d61012860003960006049015261012d6000f3fe6080604052348015600f57600080fd5b506004361060285760003560e01c80634a4a7b0414602d575b600080fd5b60336047565b604051603e919060de565b60405180910390f35b7f000000000000000000000000000000000000000000000000000000000000000081565b600073ffffffffffffffffffffffffffffffffffffffff82169050919050565b6000819050919050565b600060aa60a660a284606b565b608b565b606b565b9050919050565b600060ba826095565b9050919050565b600060ca8260b1565b9050919050565b60d88160c1565b82525050565b600060208201905060f1600083018460d1565b9291505056fea2646970667358221220fc88c423c03be2cb8c16625cda348a2b608c7640717fc40953bb038ce94ee7d364736f6c634300081c0033",
  "linkReferences": {},
  "deployedLinkReferences": {}
}