{
  "_format": "hh-sol-artifact-1",
  "contractName": "Printer",
  "sourceName": "contracts/utils/Printer.sol",
  "abi": [
    {
      "inputs": [
        {
          "internalType": "address",
          "name": "account",
          "type": "address"
        }
      ],
      "name": "toString",
      "outputs": [
        {
          "internalType": "string",
          "name": "",
          "type": "string"
        }
      ],
      "stateMutability": "pure",
      "type": "function"
    },
    {
      "inputs": [
        {
          "internalType": "uint256",
          "name": "value",
          "type": "uint256"
        }
      ],
      "name": "toString",
      "outputs": [
        {
          "internalType": "string",
          "name": "",
          "type": "string"
        }
      ],
      "stateMutability": "pure",
      "type": "function"
    },
    {
      "inputs": [
        {
          "internalType": "bytes",
          "name": "data",
          "type": "bytes"
        }
      ],
      "name": "toString",
      "outputs": [
        {
          "internalType": "string",
          "name": "",
          "type": "string"
        }
      ],
      "stateMutability": "pure",
      "type": "function"
    },
    {
      "inputs": [
        {
          "internalType": "bytes32",
          "name": "value",
          "type": "bytes32"
        }
      ],
      "name": "toString",
      "outputs": [
        {
          "internalType": "string",
          "name": "",
          "type": "string"
        }
      ],
      "stateMutability": "pure",
      "type": "function"
    }
  ],
  "bytecode": "0x610a1c610052600b82828239805160001a6073146045577f4e487b7100000000000000000000000000000000000000000000000000000000600052600060045260246000fd5b30600052607381538281f3fe73000000000000000000000000000000000000000030146080604052600436106100565760003560e01c806356ca623e1461005b5780636900a3ae1461008b57806371aad10d146100bb578063b11a19e8146100eb575b600080fd5b61007560048036038101906100709190610514565b61011b565b60405161008291906105d1565b60405180910390f35b6100a560048036038101906100a09190610629565b61014c565b6040516100b291906105d1565b60405180910390f35b6100d560048036038101906100d0919061078b565b61017d565b6040516100e291906105d1565b60405180910390f35b6101056004803603810190610100919061080a565b610471565b60405161011291906105d1565b60405180910390f35b606061014582604051602001610131919061087f565b60405160208183030381529060405261017d565b9050919050565b60606101768260405160200161016291906108bb565b60405160208183030381529060405261017d565b9050919050565b606060006040518060400160405280601081526020017f303132333435363738396162636465660000000000000000000000000000000081525090506000600284516101c99190610905565b60026101d59190610947565b67ffffffffffffffff8111156101ee576101ed610660565b5b6040519080825280601f01601f1916602001820160405280156102205781602001600182028036833780820191505090505b5090507f3000000000000000000000000000000000000000000000000000000000000000816000815181106102585761025761097b565b5b60200101907effffffffffffffffffffffffffffffffffffffffffffffffffffffffffffff1916908160001a9053507f7800000000000000000000000000000000000000000000000000000000000000816001815181106102bc576102bb61097b565b5b60200101907effffffffffffffffffffffffffffffffffffffffffffffffffffffffffffff1916908160001a90535060005b84518110156104665782600486838151811061030d5761030c61097b565b5b602001015160f81c60f81b7effffffffffffffffffffffffffffffffffffffffffffffffffffffffffffff1916901c60f81c60ff16815181106103535761035261097b565b5b602001015160f81c60f81b8260028361036c9190610905565b60026103789190610947565b815181106103895761038861097b565b5b60200101907effffffffffffffffffffffffffffffffffffffffffffffffffffffffffffff1916908160001a90535082600f60f81b8683815181106103d1576103d061097b565b5b602001015160f81c60f81b1660f81c60ff16815181106103f4576103f361097b565b5b602001015160f81c60f81b8260028361040d9190610905565b60036104199190610947565b8151811061042a5761042961097b565b5b60200101907effffffffffffffffffffffffffffffffffffffffffffffffffffffffffffff1916908160001a90535080806001019150506102ee565b508092505050919050565b606061049b8260405160200161048791906109cb565b60405160208183030381529060405261017d565b9050919050565b6000604051905090565b600080fd5b600080fd5b600073ffffffffffffffffffffffffffffffffffffffff82169050919050565b60006104e1826104b6565b9050919050565b6104f1816104d6565b81146104fc57600080fd5b50565b60008135905061050e816104e8565b92915050565b60006020828403121561052a576105296104ac565b5b6000610538848285016104ff565b91505092915050565b600081519050919050565b600082825260208201905092915050565b60005b8381101561057b578082015181840152602081019050610560565b60008484015250505050565b6000601f19601f8301169050919050565b60006105a382610541565b6105ad818561054c565b93506105bd81856020860161055d565b6105c681610587565b840191505092915050565b600060208201905081810360008301526105eb8184610598565b905092915050565b6000819050919050565b610606816105f3565b811461061157600080fd5b50565b600081359050610623816105fd565b92915050565b60006020828403121561063f5761063e6104ac565b5b600061064d84828501610614565b91505092915050565b600080fd5b600080fd5b7f4e487b7100000000000000000000000000000000000000000000000000000000600052604160045260246000fd5b61069882610587565b810181811067ffffffffffffffff821117156106b7576106b6610660565b5b80604052505050565b60006106ca6104a2565b90506106d6828261068f565b919050565b600067ffffffffffffffff8211156106f6576106f5610660565b5b6106ff82610587565b9050602081019050919050565b82818337600083830152505050565b600061072e610729846106db565b6106c0565b90508281526020810184848401111561074a5761074961065b565b5b61075584828561070c565b509392505050565b600082601f83011261077257610771610656565b5b813561078284826020860161071b565b91505092915050565b6000602082840312156107a1576107a06104ac565b5b600082013567ffffffffffffffff8111156107bf576107be6104b1565b5b6107cb8482850161075d565b91505092915050565b6000819050919050565b6107e7816107d4565b81146107f257600080fd5b50565b600081359050610804816107de565b92915050565b6000602082840312156108205761081f6104ac565b5b600061082e848285016107f5565b91505092915050565b60008160601b9050919050565b600061084f82610837565b9050919050565b600061086182610844565b9050919050565b610879610874826104d6565b610856565b82525050565b600061088b8284610868565b60148201915081905092915050565b6000819050919050565b6108b56108b0826105f3565b61089a565b82525050565b60006108c782846108a4565b60208201915081905092915050565b7f4e487b7100000000000000000000000000000000000000000000000000000000600052601160045260246000fd5b6000610910826105f3565b915061091b836105f3565b9250828202610929816105f3565b915082820484148315176109405761093f6108d6565b5b5092915050565b6000610952826105f3565b915061095d836105f3565b9250828201905080821115610975576109746108d6565b5b92915050565b7f4e487b7100000000000000000000000000000000000000000000000000000000600052603260045260246000fd5b6000819050919050565b6109c56109c0826107d4565b6109aa565b82525050565b60006109d782846109b4565b6020820191508190509291505056fea2646970667358221220300c8c317de35a60b2745511f874c2d01e84e3ed3d6cf370e8a60f1735a342a764736f6c634300081c0033",
  "linkReferences": {},
  "deployedLinkReferences": {}
}